:100000009DC10000CCC10000CAC10000C8C10000F1
:10001000C6C10000C4C10000C2C10000C0C10000D0
:10002000BEC10000BCC10000BAC10000B8C10000E0
:10003000B6C10000B4C10000B2C10000B0C10000F0
:10004000AEC100000C94CF4FAAC10000A8C10000AF
:100050000C94FD4FA4C10000A2C100000C94FB4E03
:100060009EC100000C94C54E0C949B4E98C100009C
:1000700096C1000094C1000092C1000090C1000030
:100080000C94A14F8CC100008AC1000088C10000FF
:1000900086C1000084C1000082C1000080C1000050
:1000A0007EC100007CC100000C94734F78C1000039
:1000B00076C1000074C1000072C100000C94454F6D
:1000C0006EC100006CC100006AC1000068C1000080
:1000D00066C1000064C1000062C1000060C1000090
:1000E0005EC100004E414E494E495459494E46CDDD
:1000F000CCCC3D0AD7233C17B7D13877CC2B3295DF
:1001000095E6241FB14F0A000020410000C84200BC
:10011000401C4620BCBE4CCA1B0E5AAEC59D740086
:10012000407A10F35A00A0724E18090010A5D4E8C6
:100130000000E87648170000E40B54020000CA9A59
:100140003B000000E1F505000080969800000040AB
:10015000420F000000A086010000001027000000F0
:1001600000E803000000006400000000000A000036
:100170000000000100000000002C76D888DC674FEA
:100180000823DFC1DFAE59E1B1B796E5E3E453C61A
:100190003AE651997696E8E6C28426EB898C9B6212
:1001A000ED407C6FFCEFBC9C9F40F2BAA56FA5F4BC
:1001B00090055A2AF75C936B6CF9676DC11BFCE0E4
:1001C000E40D47FEF520E6B500D0ED902E03009437
:1001D0003577050080841E080000204E0A000000CC
:1001E000C80C333333330F986E12831141EF8D21D6
:1001F00014893BE65516CFFEE6DB18D1844B381B3D
:10020000F77C1D901DA4BBE424203284725E228101
:1002100000C9F124ECA1E53D2700002200250028BB
:10022000002B002E003100340002010000050108FF
:10023000010B01000020002300260029002C002FC4
:100240000032000001000003010601090100000A5C
:100250000B02090C0D0E080703040100000000004A
:10026000000000000000000000000000000000008E
:10027000000000000000000000121110000000004B
:10028000000000000000000000000000000000006E
:1002900000000000002100240027002A002D00306B
:1002A00000330001010000040107010A01010210EE
:1002B0002020080810204010204080020102010880
:1002C0000402010102040810204080804020100830
:1002D0000402018004020180402010080402010889
:1002E00004020101020408102040800102040810E9
:1002F00020408005050505070508080808020202D8
:10030000020A0A08080404040401010101010101B0
:10031000010303030303030303040707070C0C0C87
:100320000C0C0C0C0C02020202060606060606065F
:10033000060B0B0B0B0B0B0B0B00285011241FBED5
:10034000CFEFD1E2DEBFCDBF00E00CBF1AE0A0E0EE
:10035000B2E0EAE1F1ED00E00BBF02C007900D92C0
:10036000A63BB107D9F724E1A6EBBAE001C01D9284
:10037000A33EB207E1F711E0CEE9D1E000E006C00C
:1003800021970109802FFE010E947667CD39D107A0
:1003900080E00807A9F70E94FE520C948B6830CECB
:1003A0009C01803E910508F0E6C5FC018827E452D7
:1003B000FE4F8F4F0C947667BC02C902D202DB025B
:1003C000E402ED02BB07BB07BB07BB07BB07FA0292
:1003D00007031403BB0721032A0333034003490324
:1003E00052035B0364036D03BB0776037F0388033B
:1003F000BB07BB07BB0791039A03A303BB07BB075C
:10040000AC03B903BB07BB07BB07C603D303E003B9
:10041000ED03FA0303040C04BB07BB07BB07150479
:100420001E042704BB07340441044E04BB07BB076A
:10043000BB075B046804750482048F049C04A90450
:10044000BB07BB07BB07B604C304D004DD04EA0442
:10045000F304FC04BB07BB07BB07B005BD05CA0519
:10046000BB07D705E405F105BB07BB07BB07FE05C6
:1004700007061006BB07BB07BB07BB07BB07BB07CD
:10048000BB07190622062B06BB0734063D064606A7
:10049000BB07BB07BB074F065C066906BB077606B2
:1004A00083069006BB07BB07BB079D06AA06B706D7
:1004B000BB07C406CD06D606BB07BB07BB07DF06D6
:1004C000E806F106BB07BB07BB07BB07BB07BB07BB
:1004D000BB07BB07BB07BB07BB0705050E05170519
:1004E000BB07BB07BB07BB07BB07BB07BB07BB07FC
:1004F000BB07BB07BB07BB07BB0720052D053A059C
:10050000BB0795059E05A705BB07BB07BB076E0587
:100510007B058805BB07470554056105BB07BB077D
:10052000BB07BB07BB07BB07BB07BB07BB07BB07BB
:10053000BB07BB07BB07BB07BB07BB07BB07BB07AB
:10054000BB07BB07A907B207BB07FA0603071007DB
:10055000BB071D0726073307BB07BB07BB074007C1
:1005600049075607BB0763076C077907BB07BB073B
:10057000BB0786078F079C0781E090E0A0E0B0E012
:100580008093E60B9093E70BA093E80BB093E90BF5
:1005900008951092EA0B1092EB0B1092EC0B109254
:1005A000ED0B08951092EE0B1092EF0B1092F00BE2
:1005B0001092F10B08951092F20B1092F30B10921F
:1005C000F40B1092F50B08951092F60B1092F70BA6
:1005D0001092F80B1092F90B089583E090E0A0E0E0
:1005E000B0E08093FA0B9093FB0BA093FC0BB093BD
:1005F000FD0B089588E790E0A0E0B0E08093120C36
:100600009093130CA093140CB093150C089588E7E5
:1006100090E0A0E0B0E08093160C9093170CA093AC
:10062000180CB093190C089588E790E0A0E0B0E0B2
:1006300080931A0C90931B0CA0931C0CB0931D0C70
:1006400008951092220C1092230C1092240C1092F8
:10065000250C08951092260C1092270C1092280C4D
:100660001092290C089581E090E0A0E0B0E0809322
:100670002A0C90932B0CA0932C0CB0932D0C089566
:1006800010922E0C10922F0C1092300C1092310CF4
:1006900008951092320C1092330C1092340C109278
:1006A000350C08951092360C1092370C1092380CBD
:1006B0001092390C089510923A0C10923B0C109243
:1006C0003C0C10923D0C089510923E0C10923F0C81
:1006D0001092400C1092410C08951092420C10920E
:1006E000430C1092440C1092450C089510924A0C41
:1006F00010924B0C10924C0C10924D0C08951092CD
:100700004E0C10924F0C1092500C1092510C0895F8
:100710001092520C1092530C1092540C1092550CD3
:1007200008951092620C1092630C1092640C109257
:10073000650C08951092660C1092670C1092680C6C
:100740001092690C089510926A0C10926B0C109222
:100750006C0C10926D0C089581E090E0A0E0B0E088
:100760008093760C9093770CA093780CB093790CCF
:10077000089581E090E0A0E0B0E080937A0C90933F
:100780007B0CA0937C0CB0937D0C08958CE291E0DF
:10079000A0E0B0E080938A0C90938B0CA0938C0C1B
:1007A000B0938D0C08958CE291E0A0E0B0E08093CE
:1007B0008E0C90938F0CA093900CB093910C089595
:1007C0008CE291E0A0E0B0E08093920C9093930CC7
:1007D000A093940CB093950C08958CE291E0A0E066
:1007E000B0E08093960C9093970CA093980CB093E4
:1007F000990C089510929A0C10929B0C10929C0CDC
:1008000010929D0C089510929E0C10929F0C1092C5
:10081000A00C1092A10C08951092A20C1092A30C9F
:100820001092A40C1092A50C08951092B20C109284
:10083000B30C1092B40C1092B50C08951092B60C33
:100840001092B70C1092B80C1092B90C089581E078
:1008500090E0A0E0B0E08093BA0C9093BB0CA09322
:10086000BC0CB093BD0C089585E090E0A0E0B0E032
:100870008093C20C9093C30CA093C40CB093C50C8E
:10088000089585E090E0A0E0B0E08093C60C9093DE
:10089000C70CA093C80CB093C90C089589E190E0EF
:1008A000A0E0B0E08093CA0C9093CB0CA093CC0C4A
:1008B000B093CD0C089582E390E0A0E0B0E0809387
:1008C000DA0C9093DB0CA093DC0CB093DD0C089554
:1008D00082E390E0A0E0B0E08093DE0C9093DF0C28
:1008E000A093E00CB093E10C089582E390E0A0E0C7
:1008F000B0E08093E20C9093E30CA093E40CB093EF
:10090000E50C089582E390E0A0E0B0E08093E60C6F
:100910009093E70CA093E80CB093E90C089582E360
:1009200090E0A0E0B0E08093EA0C9093EB0CA093F1
:10093000EC0CB093ED0C089582E390E0A0E0B0E001
:100940008093EE0C9093EF0CA093F00CB093F10C0D
:10095000089582E390E0A0E0B0E08093F20C9093E1
:10096000F30CA093F40CB093F50C089580E991E09A
:10097000A0E0B0E08093020D9093030DA093040DCE
:10098000B093050D089580E991E0A0E0B0E0809378
:10099000060D9093070DA093080DB093090D0895CF
:1009A00080E991E0A0E0B0E080930A0D90930B0DF8
:1009B000A0930C0DB0930D0D089580E991E0A0E097
:1009C000B0E080930E0D90930F0DA093100DB09397
:1009D000110D08951092120D1092130D1092140D16
:1009E0001092150D08951092160D1092170D109279
:1009F000180D1092190D089510921A0D10921B0DDA
:100A000010921C0D10921D0D089510922A0E109236
:100A10002B0E10922C0E10922D0E089510922E0E69
:100A200010922F0E1092300E1092310E08951092E7
:100A3000320E1092330E1092340E1092350E08952D
:100A400083E090E0A0E0B0E080936A0E90936B0E9C
:100A5000A0936C0EB0936D0E089583E090E0A0E03B
:100A6000B0E080936E0E90936F0EA093700EB093D3
:100A7000710E089583E090E0A0E0B0E08093720EE4
:100A80009093730EA093740EB093750E08958AE040
:100A900090E0A0E0B0E08093A20E9093A30EA0930C
:100AA000A40EB093A50E08958AE090E0A0E0B0E017
:100AB0008093A60E9093A70EA093A80EB093A90EB4
:100AC00008958AE090E0A0E0B0E08093AA0E9093B1
:100AD000AB0EA093AC0EB093AD0E08958AE090E0FB
:100AE000A0E0B0E08093920E9093930EA093940EAA
:100AF000B093950E08958AE090E0A0E0B0E0809376
:100B0000960E9093970EA093980EB093990E089519
:100B10008AE090E0A0E0B0E080939A0E90939B0E64
:100B2000A0939C0EB0939D0E089510927A0E109291
:100B30007B0E10927C0E10927D0E089510927E0E08
:100B400010927F0E1092800E1092810E08951092D6
:100B5000820E1092830E1092840E1092850E0895CC
:100B600088E592E0A0E0B0E080932A0D90932B0DF1
:100B7000A0932C0DB0932D0D089588E592E0A0E090
:100B8000B0E080932E0D90932F0DA093300DB09375
:100B9000310D089588E592E0A0E0B0E08093320D39
:100BA0009093330DA093340DB093350D08958EE1DD
:100BB00090E0A0E0B0E080933A0D90933B0DA093BD
:100BC0003C0DB0933D0D08958EE190E0A0E0B0E0C3
:100BD00080933E0D90933F0DA093400DB093410D37
:100BE00008958EE190E0A0E0B0E08093420D9093F4
:100BF000430DA093440DB093450D08951092520DEE
:100C00001092530D1092540D1092550D089510929C
:100C1000560D1092570D1092580D1092590D0895BF
:100C200010925A0D10925B0D10925C0D10925D0D9A
:100C3000089510927A0D10927B0D10927C0D1092F7
:100C40007D0D089510927E0D10927F0D1092800DF3
:100C50001092810D08951092820D1092830D1092C2
:100C6000840D1092850D089510928A0D10928B0DAF
:100C700010928C0D10928D0D089510928E0D109281
:100C80008F0D1092900D1092910D08951092920D6B
:100C90001092930D1092940D1092950D089585E089
:100CA00090E0A0E0B0E08093A20D9093A30DA093FC
:100CB000A40DB093A50D089585E090E0A0E0B0E00C
:100CC0008093A60D9093A70DA093A80DB093A90DA6
:100CD000089585E090E0A0E0B0E08093AA0D9093A5
:100CE000AB0DA093AC0DB093AD0D089584EB95E1E1
:100CF000A0E0B0E08093B20D9093B30DA093B40D3B
:100D0000B093B50D089584EB95E1A0E0B0E0809339
:100D1000B60D9093B70DA093B80DB093B90D08958B
:100D200084EB95E1A0E0B0E08093BA0D9093BB0D09
:100D3000A093BC0DB093BD0D089585E090E0A0E0B8
:100D4000B0E08093CA0D9093CB0DA093CC0DB093DF
:100D5000CD0D089585E090E0A0E0B0E08093CE0D49
:100D60009093CF0DA093D00DB093D10D089585E051
:100D700090E0A0E0B0E08093D20D9093D30DA093CB
:100D8000D40DB093D50D08951092DA0D1092DB0DAD
:100D90001092DC0D1092DD0D08951092DE0D109270
:100DA000DF0D1092E00D1092E10D08951092E20D0A
:100DB0001092E30D1092E40D1092E50D089510923B
:100DC000F20D1092F30D1092F40D1092F50D08959E
:100DD0001092F60D1092F70D1092F80D1092F90D79
:100DE00008951092FA0D1092FB0D1092FC0D1092C6
:100DF000FD0D089510920A0F10920B0F10920C0F18
:100E000010920D0F08958CE390E0A0E0B0E0809385
:100E10000E0F90930F0FA093100FB093110F089522
:100E200081E090E0A0E0B0E08093120F9093130F68
:100E3000A093140FB093150F089510921A0F1092EB
:100E40001B0F10921C0F10921D0F08958CE390E061
:100E5000A0E0B0E080931E0F90931F0FA093200F8F
:100E6000B093210F089581E090E0A0E0B0E080937E
:100E7000220F9093230FA093240FB093250F089572
:100E80001092320F1092330F1092340F1092350FD0
:100E900008958CE390E0A0E0B0E08093360F90934B
:100EA000370FA093380FB093390F089581E090E089
:100EB000A0E0B0E080933A0F90933B0FA0933C0FDB
:100EC000B0933D0F08951092420F1092430F10926D
:100ED000440F1092450F08958CE390E0A0E0B0E03D
:100EE0008093460F9093470FA093480FB093490FFC
:100EF000089581E090E0A0E0B0E080934A0F9093E5
:100F00004B0FA0934C0FB0934D0F089510925A0FB2
:100F100010925B0F10925C0F10925D0F08958CE39E
:100F200090E0A0E0B0E080935E0F90935F0FA093FD
:100F3000600FB093610F089581E090E0A0E0B0E011
:100F40008093620F9093630FA093640FB093650F2B
:100F500008951092FE0E1092FF0E1092000F109244
:100F6000010F08951092020F1092030F1092040FB8
:100F70001092050F0895220F331F220F331FF9011E
:100F8000EA51F44F1082118212821382089582373F
:100F900091050CF054C08F369105CCF48633910541
:100FA0005CF5833391059CF48C319105BCF4893157
:100FB00091056CF48E30910564F48B3091053CF40E
:100FC000009729F097FD08C00297049728F481E064
:100FD00008950F970997D8F380E008958632910518
:100FE0003CF4843291059CF74F970397A8F7EFCF15
:100FF0008997079788F7EBCF8435910574F481358D
:1010000091052CF7843491052CF48D339105FCF671
:10101000C797EBCF87549109ECCF8E35910534F407
:101020008B359105A4F685559109DFCF853691055D
:101030009CF2883691055CF289569109D6CF883AA0
:10104000910524F5853A910514F6863891058CF4BE
:10105000833891050CF0BBCF8C3791053CF4893770
:1010600091050CF0B4CF83579109BFCF8D579109EB
:10107000BCCF843991053CF4813991050CF0A7CFA0
:101080008D589109B2CF815A9109AFCF8C3C91050F
:10109000A4F4893C91050CF09ACF823B91053CF475
:1010A0008F3A91050CF093CF8B5A91099ECF865CB5
:1010B0009109029708F090CF8ACF863D91053CF4C4
:1010C000833D91050CF083CF8D5C91098ECF873DD8
:1010D00091050CF481CF8A3D91050CF478CF8D5D9C
:1010E000910983CFAF92BF92CF92DF92EF92FF929E
:1010F0000F931F93CF93DF936C017B018B01040F40
:10110000151FEB015E01AE18BF08C017D10759F0DB
:101110006991D601ED91FC910190F081E02DC6011D
:101120001995892B79F7C501DF91CF911F910F9107
:10113000FF90EF90DF90CF90BF90AF900895FC01AB
:10114000538D448D252F30E0842F90E0821B930B2C
:10115000541710F0CF96089501970895FC01918DD2
:10116000828D981761F0A28DAE0FBF2FB11D5D96D5
:101170008C91928D9F5F9F73928F90E008958FEF77
:101180009FEF0895FC01918D828D981731F0828D2B
:10119000E80FF11D858D90E008958FEF9FEF089582
:1011A000FC01918D228D892F90E0805C9F4F821BE6
:1011B00091098F73992708958FE79FE0F1DF21E070
:1011C000892B09F420E0822F0895FC01A48DA80F3B
:1011D000B92FB11DA35ABF4F2C91848D90E0019679
:1011E0008F739927848FA689B7892C93A089B18999
:1011F0008C91837080648C93938D848D981306C03A
:101200000288F389E02D80818F7D80830895EF929D
:10121000FF920F931F93CF93DF93EC0181E0888FB0
:101220009B8D8C8D98131AC0E889F989808185FF80
:1012300015C09FB7F894EE89FF896083E889F98922
:1012400080818370806480839FBF81E090E0DF9124
:10125000CF911F910F91FF90EF900895F62E0B8D77
:1012600010E00F5F1F4F0F731127E02E8C8D8E1132
:101270000BC00FB607FCFACFE889F989808185FF9A
:10128000F5CFCE01A2DFF2CFEB8DEC0FFD2FF11DDC
:10129000E35AFF4FF0829FB7F8940B8FEA89FB89DE
:1012A00080818062D0CF682F8FE79FE0B0CFCF934F
:1012B000DF93EC01888D8823B1F0AA89BB89E88986
:1012C000F9898C9185FD03C0808186FD0CC00FB625
:1012D00007FCF7CF8C9185FFF2CF808185FFEDCFA2
:1012E000CE0173DFEACFDF91CF91089580E090E0E7
:1012F000892B21F061DF81110E94000080E090E0E5
:10130000892B49F080E090E0892B29F00E940000B1
:1013100081110E94000080E090E0892B49F080E07C
:1013200090E0892B29F00E94000081110E940000AA
:1013300080E090E0892B49F080E090E0892B29F053
:101340000E94000081110C940000089581508231A8
:1013500008F05AC0E82FF0E08827EE54F64F8F4F80
:101360000C947667D209D609C409CA09CE09040AC1
:10137000D909DF09E309E909ED09F109F709FB09D1
:10138000040AFF09050A090A809180008F7780937B
:1013900080000895809180008F7DF9CF809180003A
:1013A000877FF5CF84B58F7784BD089584B58F7D11
:1013B000FBCF8091B0008F778093B000089580912B
:1013C000B0008F7DF9CF809190008F77809390004F
:1013D0000895809190008F7DF9CF80919000877F54
:1013E000F5CF8091A0008F778093A0000895809121
:1013F000A0008F7DF9CF8091A000877FF5CF8091ED
:1014000020018F77809320010895809120018F7DA6
:10141000F9CF80912001877FF5CFCF93DF93282FDD
:1014200030E0F901E35BFD4F8491F901E355FD4F95
:10143000D491F901ED50FD4FC491CC2399F0811165
:1014400085DFEC2FF0E0EE0FFF1FED5CFD4FA59167
:10145000B491EC91ED2381E090E009F480E0DF911C
:10146000CF91089580E090E0FACF1F93CF93DF9360
:10147000282F30E0F901E35BFD4F8491F901E3553A
:10148000FD4FD491F901ED50FD4FC491CC23A1F053
:10149000162F81115BDFEC2FF0E0EE0FFF1FE75EF0
:1014A000FD4FA591B4918FB7F894EC91111108C03C
:1014B000D095DE23DC938FBFDF91CF911F910895EC
:1014C000DE2BF8CFCF93DF9390E0FC01E355FD4F87
:1014D00024918D509D4FFC0184918823C9F090E0A8
:1014E000880F991FFC01ED56FD4FA591B491FC01A9
:1014F000E75EFD4FC591D49161110DC09FB7F8947F
:101500008C91209582238C938881282328839FBFE8
:10151000DF91CF910895623051F49FB7F8943C91D8
:10152000822F809583238C93E8812E2BEFCF8FB76A
:10153000F894EC912E2B2C938FBFEACFCF938CB5E0
:101540008C608CBD8CB58F7D8CBD8CB58C7F8CBD3B
:101550008DB58E7F8DBDCFB7F89480917E0F8111B0
:1015600023C0E8E2F3E08491E2EEF2E09491E82F08
:10157000F0E0EE0FFF1FED56FD4FA591B491EC91F9
:10158000E92319F461E085E370DF61E085E39ADF28
:101590008CB580618CBD8CB580648CBD61E084E3CA
:1015A00091DF61E083E38EDF80917E0F8F5F809318
:1015B0007E0FCFBFCF910895863308F086532091D8
:1015C0007B00982F9870277F922B90937B008770D9
:1015D000806480937C0080917A00806480937A009C
:1015E00080917A0086FDFCCF8091780090917900FF
:1015F00008958230910538F0880F991F880F991F40
:1016000005970197F1F708953FB7F8948091CC0AB8
:101610009091CD0AA091CE0AB091CF0A26B5A89B91
:1016200005C02F3F19F00196A11DB11D3FBFBA2F74
:10163000A92F982F8827BC01CD01620F711D811D34
:10164000911D42E0660F771F881F991F4A95D1F7B9
:1016500008958F929F92AF92BF92CF92DF92EF92B6
:10166000FF926B017C01D0DF4B015C01C114D104FE
:10167000E104F104B1F0C8DF681979098A099B090E
:10168000683E73408105910588F321E0C21AD108B4
:10169000E108F10888EE880E83E0981EA11CB11CB9
:1016A000E5CFFF90EF90DF90CF90BF90AF909F90ED
:1016B0008F9008952FB7F8946091C80A7091C90A65
:1016C0008091CA0A9091CB0A2FBF0895CF92DF92E2
:1016D000EF92FF92CF93DF93EC01603282E07807C4
:1016E000CCF5653B710514F064EB70E0898128E866
:1016F00030E0281B310987FD3395220F331F220F5D
:10170000331F6901330FEE08FF088A8128E532E0B4
:10171000281B310987FD3395220F331F220F331FFA
:10172000032E000C440B550B2C193D094E095F0983
:10173000DB0177FF02C0B0E0A0E00E940B6624EB63
:1017400030E040E050E00E94E565C20ED31EE41E8A
:10175000F51EB601E881E03370F5298188E890E054
:10176000821B910927FD9395880F991F880F991F58
:10177000681779077CF02A8188E592E0821B91093D
:1017800027FD9395880F991F880F991F6817790770
:101790000CF4CB010297880F991F4FB7F8942E2FA6
:1017A00030E0F901EE0FFF1FE20FF31FEC58FF4E80
:1017B000928381834FBFDF91CF91FF90EF90DF90B5
:1017C000CF9008951F93CF93DF93EC01162F88815C
:1017D000803308F04DC061E0812F74DE8881282FAE
:1017E00030E0F901EE0FFF1FE20FF31FEC58FF4E40
:1017F0001F736081607C612B608319821A822CE0E8
:10180000622F0E945767829FB001112430E020E0D0
:10181000AB01420F531FFA01EE0FFF1FE40FF51F3C
:10182000EC58FF4E908196FD16C02F5F3F4F2C3035
:10183000310571F7813009F51092800082E08093C4
:1018400081001092850010928400B19A80916F00FF
:10185000826080936F00E8818E2F90E0FC01EE0F94
:10186000FF1FE80FF91FEC58FF4E808180648083D2
:101870008881DF91CF911F910895823061F4109299
:10188000900080939100109295001092940088BB74
:1018900080937100E0CF833069F41092A00082E061
:1018A0008093A1001092A5001092A40089BB8093A0
:1018B0007200D1CF8111CFCF1092200182E08093AE
:1018C000210110922501109224018ABB809373009C
:1018D000C2CFAF92BF92CF92DF92EF92FF920F935F
:1018E0001F93CF93DF936B017A01EC01CD53D54F5A
:1018F00028813CE0389F8001399F100D1124A09071
:101900000411B12C27FF1FC0FB01118210828881B6
:101910008F5F888388819801280F311D87FD3A9554
:10192000F6012A153B051CF488818C30BCF18081BE
:101930009181049680349C4908F471C0F60180813D
:10194000918104966EC088819801280F311D87FD12
:101950003A952A153B05DCF68881A801480F511DF0
:1019600087FD5A95FA01EE0FFF1FE40FF51FEC58A3
:10197000FF4E808186FFCBCF8881F801E80FF11DF3
:1019800087FDFA95CF01EE0FFF1FE80FF91FEC5806
:10199000FF4E808160E08F7368DDB9CF80819181D7
:1019A0002881A801420F511D27FD5A959A01FA017D
:1019B000EE0FFF1FE20FF31FEC58FF4E2181328123
:1019C000820F931FF7019183808388819801280FEC
:1019D000311D87FD3A95F901EE0FFF1FE20FF31F4E
:1019E000EC58FF4E808186FF21C08881080F111DB1
:1019F00087FD1A95F801EE0FFF1FE00FF11FEC585D
:101A0000FF4E808161E08F73DF91CF911F910F9125
:101A1000FF90EF90DF90CF90BF90AF9026CD80E405
:101A20009CE9F701918380838FEF8883DF91CF91C9
:101A30001F910F91FF90EF90DF90CF90BF90AF90EC
:101A400008958EBD00000DB407FEFDCF8EB508953C
:101A5000DF92EF92FF920F931F93CF93DF93EC01EE
:101A6000D62E122F032FF42EE52E60E08885FDDCA4
:101A70008D2D8068E6DF89878E2DE3DF8F2DE1DFF6
:101A8000802FDFDF812FDDDF61E08885EEDC898557
:101A9000DF91CF911F910F91FF90EF90DF9008950C
:101AA000FF920F931F93CF93DF93EC01F62E8A01E1
:101AB00045DD60E08885D9DC8F2DC3DF898780E034
:101AC000C0DF80E0BEDF80E0BCDF80E0BADF61E045
:101AD0008885CBDC60E08885C8DC8F2DB2DF898704
:101AE00080E0AFDF90E0B0E0A0E0BA2FA92F982F00
:101AF0008827F80180839183A283B38380E0A1DFEC
:101B0000F8014081518162817381482B762F652FC6
:101B1000542F4427408351836283738380E091DF95
:101B2000F8014081518162817381482B762F652FA6
:101B3000542F4427408351836283738380E081DF85
:101B4000F8014081518162817381482B4083518328
:101B50006283738361E0888588DC8985DF91CF911A
:101B60001F910F91FF9008952F923F924F925F9295
:101B70007F928F929F92AF92BF92CF92DF92EF921D
:101B8000FF920F931F93CF93DF9300D01F92CDB797
:101B9000DEB76C01762E49015A0117012801AE010A
:101BA0004F5F5F4F7DDF89819A81AB81BC81882641
:101BB0009926AA26BB26A50194012E213321402374
:101BC0005521282739274A275B27672DC60140DF83
:101BD000F60181850F900F900F900F90DF91CF91BC
:101BE0001F910F91FF90EF90DF90CF90BF90AF903B
:101BF0009F908F907F905F904F903F902F9008958F
:101C0000EF92FF920F931F93CF93DF93EC01E62F98
:101C1000F0E0EE0FFF1FE85FFC4FE080F180062E42
:101C200002C0EE0CFF1C0A94E2F70F2C000C000B14
:101C3000110B242F30E050E040E004C0220F331F8E
:101C4000441F551F6A95D2F760E7CE018DDF898565
:101C5000DF91CF911F910F91FF90EF900895EF9238
:101C6000FF920F931F93CF93DF93EC0184E0689F63
:101C7000F0011124E857FD4FE080F18002811381CB
:101C8000062E04C0EE0CFF1C001F111F0A94D2F791
:101C9000242F30E050E040E004C0220F331F441FE7
:101CA000551F6A95D2F76CE6CE015EDF8985DF911C
:101CB000CF911F910F91FF90EF900895EF92FF92B7
:101CC0000F931F93CF93DF93EC01E12CF12C87014D
:101CD000E394062E04C0EE0CFF1C001F111F0A9493
:101CE000D2F7242F30E050E040E004C0220F331F31
:101CF000441F551F6A95D2F760E0CE0135DF898514
:101D0000DF91CF911F910F91FF90EF900895CF93A6
:101D1000DF93EC0161E08885D5DB61E08885A5DB98
:101D20000DDC60E08885A1DB80E08BDE898780E0C8
:101D300088DE80E086DE80E084DE80E082DE61E0B6
:101D40008885DF91CF9191CB8F929F92AF92BF9276
:101D5000DF92EF92FF920F931F93CF93DF93EC01EB
:101D60007B015A01D22ED3DF45E088E0E816F1046A
:101D700039F17CF447E082E0E816F10409F146E02D
:101D800084E0E816F104E1F0EA94EF2869F448E011
:101D900017C043E080E2E816F10491F03CF444E01F
:101DA00080E1E816F10461F040E00AC042E080E41E
:101DB000E816F10429F041E080E8E816F104A1F703
:101DC00068E1CE014CDFB50190E080E00E94B7648D
:101DD00025ED34E045E352E40E94186520E030E050
:101DE0004AE754E40E94A76628EB3EE145E05EE343
:101DF0000E9418654B015C0126E636E646EA5EE382
:101E00000E94A76620E030E040E85FE30E9442665F
:101E10000E941467603180F42CEE31E548E35EE304
:101E2000C501B4010E94A76620E030E040E85FE30E
:101E30000E9442660E941467862F8F71262F30E021
:101E400050E040E0542F432F322F222722273F71AA
:101E500044275527282B60E1CE01FADD011181C00E
:101E600041E060E0CE012ADF43E060E0CE01F7DE32
:101E700044E064E0CE01F3DE41E067E0CE01EFDE56
:101E800042E06FE0CE01EBDE40E06EE0CE01E7DE47
:101E900041E060E0CE01E3DE42E068E0CE01DFDE5B
:101EA00041E06DE0CE01DBDE2FEF3FEFA90163E102
:101EB000CE01CEDD2FEF3FEF4FE050E064E1CE01E9
:101EC000C7DD20E137E240E050E065E1CE01C0DD52
:101ED00041E063E1CE01C3DE41E062E1CE01BFDE5D
:101EE00048E060E0CE01BBDEE12CF12C8701EA94F2
:101EF00024E630E040E050E06EE6CE0135DEE12C35
:101F0000F12C0FEF13E020E030E048E050E06EE607
:101F1000CE012ADE20E137E240E050E065E1CE016B
:101F200097DD41E065E0CE01C9DE41E06BE0CE0126
:101F3000C5DE4D2D60E1CE0192DE41E062E0CE01D2
:101F4000BDDE64E670E080E090E0DF91CF911F910C
:101F50000F91FF90EF90DF90BF90AF909F908F9088
:101F600078CB43E060E0CE017ADE41E06FE0CE0165
:101F700076DE40E064E0CE0172DE40E067E0CE0154
:101F80006EDE41E06CE1CE016ADE40E06EE0CE0143
:101F900066DE40E060E0CE0191DE40E063E1CE012C
:101FA0005EDE40E062E1CE015ADEE12CF12C8701D9
:101FB000EA9420E030E0A9016EE6CE01D5DDE12C07
:101FC000F12C0FEF13E020E030E0A9016EE6CE0126
:101FD000CBDD41E062E1CE0113DE40E060E1CE0105
:101FE0000FDE41E068E0CE010BDE40E860E0CE01AC
:101FF00007DE41E062E0CE0161DE41E060E0CE015B
:102000002EDE42E068E0CE012ADE41E06DE0CE0146
:1020100026DE40E063E1CE0122DE40E062E1CE0157
:102020001EDE48E060E0CE011ADE40E065E0CE0151
:1020300045DE40E06BE0CE0141DE40E060E1CE01F4
:102040000EDE7FCF0F931F93CF93DF938B01EA01B7
:10205000AB01415051094534510508F0E9C0223027
:10206000310508F0E5C046E4429FF001439FF00DC2
:102070001124E80FF91FE60FF71F81E080836C2F12
:10208000232B09F4D2C061E0802F1CDA209749F499
:1020900060E0802FEAD9CE01DF91CF911F910F919F
:1020A0000895CF3FD10511F461E0BFC0F801E35BB3
:1020B000FD4FE491E150E23108F0B2C0F0E0882732
:1020C000EB59FF4E8F4F0C94766777107E1083107C
:1020D0008D1097101011A110A910B110BB10C510D0
:1020E000CF10DE10E8101011F210FC10061184B5AC
:1020F000806884BDC7BDD0E0C0E0CDCF84B580622C
:1021000084BDC8BDF8CF8091800080688093800036
:10211000D0938900C0938800EECF809180008062C8
:1021200080938000D0938B00C0938A00E4CF80918D
:102130008000886080938000D0938D00C0938C00D5
:10214000DACF8091B00080688093B000C093B30074
:10215000D2CF8091B00080628093B000C093B40071
:10216000CACF80919000806880939000D0939900AE
:10217000C0939800C0CF80919000806280939000BF
:10218000D0939B00C0939A00B6CF80919000886056
:1021900080939000D0939D00C0939C00ACCF809121
:1021A000A00080688093A0008091A0008F7B809326
:1021B000A000D093A900C093A8009DCF8091A0005B
:1021C00080628093A000D093AB00C093AA0093CF0D
:1021D0008091A00088608093A000D093AD00C09350
:1021E000AC0089CF80912001806880932001D0933A
:1021F0002901C09328017FCF8091200180628093C4
:102200002001D0932B01C0932A0175CF809120012A
:10221000886080932001D0932D01C0932C016BCF57
:1022200060E0C038D1050CF03FCF802F1ED963CFBE
:10223000C1E0D0E030CFCF93DF93D0E0C0E0CE015B
:102240000E94C707882319F0CE010E94D001219671
:10225000C63ED105A1F7DF91CF9108954F925F92CD
:102260006F927F928F929F92AF92BF92CF92DF92A6
:10227000EF92FF92CF93DF93EC016C897D898E8979
:102280009F8988889988AA88BB88CE8CDF8C0D2C82
:10229000000CEE08FF08603127E272078105910506
:1022A00029F01616170618061906ACF0A7019601B4
:1022B000C501B4010E944867DF91CF91FF90EF9074
:1022C000DF90CF90BF90AF909F908F907F906F9056
:1022D0005F904F9008950E94B96420E030E44CE193
:1022E00056E40E94A7662B013C01488E598E6A8EE7
:1022F0007B8EC501B4010E94B964A30192010E94C2
:1023000018654B015C01C701B6010E94B9649B01CD
:10231000AC01C501B4010E9418650E940F67CCCFC3
:10232000FC0111821082138212821582148217829C
:1023300016821086118612861386148615861686D6
:102340001786108A118A128A138A108E118E128EA5
:10235000138E158E148E178E168E10A211A212A235
:1023600013A214A215A216A217A210A611A612A6B5
:1023700013A614A615A681E090E097A786A780E192
:1023800097E2A0E0B0E0848B958BA68BB78B089585
:102390004F925F926F927F928F929F92AF92BF9275
:1023A000CF92DF92EF92FF920F931F93CF93DF9321
:1023B000EC014B018A015901CD88DE88EF88F88C49
:1023C0002601370144245524662481E07822FE0149
:1023D000ED57FF4F608171818281938124E630E067
:1023E00040E050E00E941166672B682B692BF1F4E6
:1023F0008C859D859F878E878A859B859D878C8709
:10240000888599859B878A878E819F819987888710
:10241000F80160817181828193810E940F677F83BF
:102420006E83F80110821182128213824528462899
:10243000472859F4F7FC09C0CC24DD24EE24FEE73C
:10244000FF22CD28CE28CF2881F020E030E040E8E0
:102450005FE3F80160817181828193810E9443660C
:10246000F8016083718382839383C25ADF4F88812E
:102470009981AA81BB81F50180839183A283B38373
:1024800088819981AA81BB81F401808B918BA28B79
:10249000B38BDF91CF911F910F91FF90EF90DF9061
:1024A000CF90BF90AF909F908F907F906F905F90F4
:1024B0004F900895889A0895889808958E9A08955F
:1024C0008E980895EBE0F1E0808188608083089524
:1024D000EBE0F1E08081877F80830895149A08956E
:1024E0001498089560E0FC01878D0C94350A60E033
:1024F000FC01818D0C94350A61E0FC01878D0C9400
:10250000350A61E0FC01818D0C94350ACF93DF938D
:10251000EC01FC01EF56FF4F1082379781E080837A
:1025200060E0898D0E94350A8BA19CA1892B31F036
:1025300060E08F8DDF91CF910C94350ADF91CF91C0
:102540000895CF93DF93EC018FA10E940D0A2AA575
:102550002817190621F48BA5DF91CF91089580E00B
:10256000FBCFCF93DF93EC018DA10E940D0A2AA52A
:102570002817190621F48BA5DF91CF91089580E0EB
:10258000FBCFCF93DF93EC018B8DFE01E35BFF4F1D
:10259000908161E0911101C060E00E94350A89A13B
:1025A000FE01E25BFF4F9081992331F0C15BDF4F69
:1025B000988161E0911101C060E0DF91CF910C94AE
:1025C000350ACF93DF93EC018B8DFE01E35BFF4F68
:1025D000908160E0911101C061E00E94350A89A1FB
:1025E000FE01E25BFF4F9081992331F0C15BDF4F29
:1025F000988160E0911101C061E0DF91CF910C946E
:10260000350ACF93DF93EC0161E08D8D0E94350A8E
:10261000FE01E25BFF4F8081882321F061E08BA106
:102620000E94350AC157DF4F1882DF91CF9108957C
:10263000CF93DF93EC01FC01E453FC4F1082EE5882
:10264000F1098081811103C0CE014096DADFFE01DD
:10265000E15CFC4F8081811104C0CE018E549F4FFC
:10266000D0DFFE01E05CFC4F8081811104C0CE010F
:102670008C5A9E4FC6DF64E670E080E090E0DF9108
:10268000CF910C94290BCF93DF93EC0160E08D8DFB
:102690000E94350AFE01E25BFF4F8081882321F012
:1026A00060E08BA10E94350AC157DF4F81E088832B
:1026B000DF91CF9108958F929F92AF92BF92CF9268
:1026C000DF92EF92FF920F931F93CF93FC01E65A94
:1026D000FF4F4083518362837383349640835183D9
:1026E0006283738334960083118322833383DC01F6
:1026F000AA59BF4FEC925297CC91CC2351F0189726
:102700004C91411152C037FF56C010821182128283
:102710001382DC01AB5ABF4F4D915D916D917C915D
:102720001397141615061606170634F514963C91E1
:10273000332311F1C080D180E280F380460157013C
:10274000F7FE07C08824992454018C189D08AE0810
:10275000BF08481559056A057B0574F4F7FE07C0E4
:1027600070956095509541955F4F6F4F7F4F4083B7
:10277000518362837383C32FFC01ED58FF4F108296
:1027800011821282138289579F4F31E0FC013083FE
:102790008C2FCF911F910F91FF90EF90DF90CF90F2
:1027A000BF90AF909F908F9008951016110612065B
:1027B00013060CF4AACFC0E0ACCF0F931F93CF93B6
:1027C000DF93EC01062F89A581110DC0CE01C9DE72
:1027D000182FCE01B6DE0111182F812FDF91CF9176
:1027E0001F910F910895CE01ACDE182FCE01B9DEF6
:1027F000F2CFCF93DF93EC01FC01ED57FF4F8081C7
:102800009181A281B3810196A11DB11D8083918325
:10281000A283B3833E9681E08083AE01425A5F4F2C
:10282000FA0180819181A281B3819E0128573F4F97
:10283000F9012081222309F440C00196A11DB11D98
:10284000FA0180839183A283B383FE01EC56FF4F8C
:1028500020813181C901959587958C0F9D1F3297F5
:102860000190F081E02D20FF08C0DC012D913C910A
:10287000E20FF31F0190F081E02D19958BA19CA12F
:10288000892BF9F0FE01E856FF4F20813181C90103
:10289000959587958C0F9D1FCA56DF4FE881F9816A
:1028A00020FF08C0DC012D913C91E20FF31F019045
:1028B000F081E02DDF91CF9119940197A109B10921
:1028C000BFCFDF91CF9108958F929F92AF92BF9229
:1028D000CF92DF92EF92FF920F931F93CF93DF93EC
:1028E000EC01FC01ED58FF4F608171818281938181
:1028F0000E94B7646B017C01FE01E05BFF4F6081C9
:102900007181828193810E94B9649B01AC0160E076
:1029100074E284E799E40E94A7664B015C01FE0122
:10292000E158FF4F60817181828193810E94B76479
:102930009B01AC01C501B4010E94A7664B015C017B
:102940008E0109581F4F20E030E040E05FE30E9415
:102950001865A70196010E9443660E941467F8015A
:102960006083718382839383C558DF4FA5019401EF
:10297000C701B6010E9443660E9414676883798389
:102980008A839B83DF91CF911F910F91FF90EF90EE
:10299000DF90CF90BF90AF909F908F9008950F934E
:1029A0001F93CF93DF93FC01EF56FF4F208122232B
:1029B000B9F07E9700811181228133813896408160
:1029C000518162817381041715072607370710F1BB
:1029D000EC019CDDCE01DF91CF911F910F9174CF5F
:1029E000FC01E957FF4F20812223A1F07497008159
:1029F00011812281338134964081518162817381BA
:102A0000041715072607370728F0DF91CF911F918C
:102A10000F91EFCEDF91CF911F910F910895FC019F
:102A2000E957FF4F2081222361F0749780819181C3
:102A3000A281B3810196A11DB11D80839183A283E0
:102A4000B38308950F931F93FC01EA59FF4F208130
:102A5000211112C03897008111812281338134966F
:102A6000408151816281738104171507260737075A
:102A70004CF41F910F91A5CDFC01E45BFF4F208129
:102A80002111F7CF1F910F917CCDAC014B5E5F4FB1
:102A90006FE6FC018081918103C8AF92BF92CF9213
:102AA000DF92EF92FF920F931F93CF93DF93EC018E
:102AB0006B015A0179019A01AB01B70188819981B3
:102AC00043D98C81883531F49501A601B7018A81FB
:102AD0009B813AD9DF91CF911F910F91FF90EF9099
:102AE000DF90CF90BF90AF900895CF93DF93EC012C
:102AF0008C818835A9F58AE891E19983888389E6F4
:102B000091E19B838A8381E892E1FE01EE56FF4FBB
:102B1000918380833296118210828CE792E1329603
:102B20009183808332961182108287E792E13296F8
:102B30009183808332961182108282E792E13296ED
:102B40009183808332961182108288819981DFD8A7
:102B50008C81883589F48A819B81DF91CF91D7C898
:102B6000893529F48FE791E199838883CCCF8A3521
:102B700051F684E791E1F8CFDF91CF910895CF939B
:102B8000DF93FC01DC0116968AE0ED0119928A952B
:102B9000E9F781E0808B818B138A128A148A158A67
:102BA000168A178A108E8CE291E0A0E0B0E084A72C
:102BB00095A7A6A7B7A780AB91ABA2ABB3AB42E3F7
:102BC00050E060E070E044AB55AB66AB77AB40AF34
:102BD00051AF62AF73AF44AF55AF66AF77AFEF01A0
:102BE000C05CDF4F88839983AA83BB832496888344
:102BF0009983AA83BB83DF01A85BBF4F48E750E0FE
:102C000060E070E04D935D936D937C931397149601
:102C10001C9211961C9211961C9211961C92119660
:102C200044E650E060E070E04D935D936D937C93DB
:102C3000139714961C9211961D921D921D921C9230
:102C4000139714961C9211961D921D921D921C9220
:102C5000139714961D921D921D921C921397149611
:102C60001D921D921D921C92139714961C92119600
:102C70001D921D921D921C92139714961D921D92E7
:102C80001D921C92139714961D921D921D921C92D8
:102C9000139714961D921D921D921C9213971496D1
:102CA0001D921D921D921C92139714961D921D92B7
:102CB0001D921C92139714961D921D921D921C92A8
:102CC000139714961D921D921D921C9213971496A1
:102CD0001C9211961C9211961C9211961C921196A0
:102CE0001C9211961C9211961C9211961C92119690
:102CF0001C9211961C9211961C92128E118E148E9B
:102D0000138E168E158E10A2178E12A211A214A267
:102D100013A216A215A210A617A2119681E892E19D
:102D200011969C938E93129611961C921E92129657
:102D30008CE792E111969C938E93129611961C92B9
:102D40001E92129687E792E111969C938E931296AB
:102D500011961C921E92129682E792E18D939C939B
:102D6000E056FF4F11821082DF91CF9108950895B0
:102D70008FEF9FEF08950895089508950895089599
:102D8000089508950895089508950895089508955B
:102D9000089508950895089508950895089508954B
:102DA0008091C10A9091C20A892B41F481E090E0A0
:102DB0000E943A5F9093C20A8093C10A8091C10A2F
:102DC0009091C20A08950F931F93CF93DF938B01C5
:102DD000E7DFF801C2A1D3A1868D978D85309105DB
:102DE00029F14CF40497B1F090E080E0DF91CF91AD
:102DF0001F910F9108958630910511F10B97A1F75E
:102E00006BE070E08EE091E10E94E20BBE018EE08B
:102E100091E109C064E070E085E091E10E94E20B7D
:102E2000BE0185E091E10E94660BDECF65E070E0B7
:102E300088E091E10E94E20BBE0188E091E1F3CFCE
:102E400066E070E08BE091E10E94E20BBE018BE056
:102E500091E1E9CF8091BD0A9091BE0A892BA9F436
:102E60008CE890E00E943A5FFC0131969C012A5B5D
:102E70003F4F1192DF01AB5BBF4F1C92E217F3078C
:102E8000C1F79093BE0A8093BD0A8091BD0A9091CC
:102E9000BE0A08954F925F926F927F92AF92BF9257
:102EA000CF92DF92EF92FF920F931F93CF93DF9316
:102EB000EB01D0DF8C01CAA8DBA84EA45FA468A8F0
:102EC00079A8AEA0BFA0EE8CFF8C4AA15BA19601B1
:102ED000B701B8D8C301B2010E94290B9601A50120
:102EE000B701C801AFD890E080E0DF91CF911F918A
:102EF0000F91FF90EF90DF90CF90BF90AF907F90B9
:102F00006F905F904F900895CF93DF93EB01A2DF16
:102F10006AA98E8D0E94620A90E080E0DF91CF91D5
:102F20000895CF93DF93EB0195DF2AA93BA94AA12E
:102F30005BA16E8D7F8D86D890E080E0DF91CF9190
:102F400008958091B60A9091B70A892BE9F586E336
:102F500090E00E943A5FFC0181E090E0A0E0B0E0E8
:102F600080839183A283B38384839583A683B7836D
:102F700080879187A287B387158614861686178661
:102F8000108A118A128A138A148A158A168A178A55
:102F9000108E118E138E128E12A213A214A215A2DD
:102FA00017A216A210A611A612A613A614A615A65D
:102FB00016A617A610AA11AA12AA13AA14AA15AA2D
:102FC000F093B70AE093B60A8091B60A9091B70AD7
:102FD0000895CF93DF93B5DFEC0185E40E940D0ADD
:102FE00021E0892B09F420E02C8FABDFEC0184E495
:102FF0000E940D0A21E0892B09F420E02D8FA1DF2A
:10300000EC0183E40E940D0A21E0892B09F420E001
:103010002E8F97DFEC0182E40E940D0A21E0892BBC
:1030200009F420E02F8F8DDFEC0181E40E940D0A6E
:1030300021E0892B09F420E028A383DFEC0180E460
:103040000E940D0A21E0892B09F420E029A3DF91D9
:10305000CF91089576DFBDCF74DFFC0114AA90E014
:1030600080E00895FC0101900020E9F73197AF015D
:10307000481B590BBC018FE79FE00C9472088F929C
:103080009F92AF92BF920F931F93CF93DF93CDB7D1
:10309000DEB7A1970FB6F894DEBF0FBECDBF19A261
:1030A000423008F44AE08E010F5D1F4F842E912CB0
:1030B000B12CA12CA50194010E941166E62FB90143
:1030C000CA01EA30ECF4E05DD801EE938D01232BC8
:1030D000242B252B79F790E080E0109711F0CD019B
:1030E000C1DFA1960FB6F894DEBF0FBECDBFDF9152
:1030F000CF911F910F91BF90AF909F908F900895A7
:10310000E95CE2CFAFCF882319F081E19AE0FACFF2
:103110008AE09AE0FCCFFC0180819181009711F058
:103120000C94D65F08950C94D65F0C94D65F0C94E3
:10313000D65F0C94D65F0C94D65F0C94D65F0C943B
:10314000D65F0C94D65F0C94D65F0C94D65F0C942B
:10315000D65F0C94D65F0C94D65F0C94D65F0C941B
:10316000D65F0C94D65F0C94D65F0C94D65F0C940B
:10317000D65F0C94D65F0C94D65F0C94D65F0C94FB
:10318000D65FCF92DF92EF92FF92CF93DF9397FFBC
:1031900018C06B017C018DE20E945309EC01662787
:1031A0007727CB016C197D098E099F094AE067DFFB
:1031B0008C0F9D1FDF91CF91FF90EF90DF90CF900C
:1031C00008954AE0DF91CF91FF90EF90DF90CF908C
:1031D00056CFBC01990F880B990BD3CFCF93DF93B8
:1031E000EC0186E694E08EDF6AA17BA18CA19DA113
:1031F000C8DF89E595E0DF91CF9184CF0F931F93CE
:10320000CF93DF938C01EB0188E494E07BDF89EAC4
:1032100098E078DFF80184810E945309CE01D9DF5C
:1032200090DEDF91CF911F910F91D8CFEF92FF9257
:103230000F931F93CF93DF93182F092F7B016115F5
:10324000710559F50E940D0AD1E0C0E0019709F01F
:10325000D0E082E0E816F10458F589E694E052DF08
:1032600089EA98E04FDF8AE298E04CDF812F902FC7
:10327000B0DF89EA98E046DF8DE298E043DF8D2FEA
:103280009C2FA7DF5EDEAADF90E080E0DF91CF9188
:103290001F910F91FF90EF900895D0E0C0E0613052
:1032A0007105B9F6812F0E94DC0AD82FC92FD1CF22
:1032B00081E090E0EBCF0F931F93CF93DF93FC015E
:1032C0002081318121153105C1F1EC01822F0E944D
:1032D0000D0A21E0892B09F420E02B876A85261747
:1032E00001F11E821F82188619860E811F81288592
:1032F00039858A819B81AC81BD81081719072A070E
:103300003B07DCF081E0682788810E94350AA2DD56
:1033100070E060E088819981DF91CF911F910F91DA
:1033200085CF8E819F81A885B9850196A11DB11D8C
:103330008E839F83A887B987D8CFDF91CF911F91C4
:103340000F910895CF93DF93EB0184DD6AA97BA9E8
:103350008E8D9F8D6BDF90E080E0DF91CF9108959F
:10336000CF92DF92EF92FF92CF93DF93EB01CB01ED
:103370000E94C707882351F1FE01EE0FFF1FEE0FD9
:10338000FF1FEA51F44FC080D180E280F3808DE6C8
:1033900094E0B8DE89EA98E0B5DE8AE298E0B2DE31
:1033A000CE0117DF89EA98E0ADDE8DE298E0AADE73
:1033B000C701B601E6DEC5DD11DF90E080E0DF91F8
:1033C000CF91FF90EF90DF90CF90089581E794E048
:1033D00099DEF3CF0F931F93CF93DF938C01D0E04F
:1033E000C0E0CE010E94C707882319F0BE01C801C2
:1033F000B7DF2196C63ED105A1F7DF91CF911F918E
:103400000F91089583E994E07DDE80E492E07ADE16
:1034100088E092E077DE88E994E074DE92DDDEDE1B
:1034200090E080E00895CF93DF93EC0182EA94E08E
:1034300069DE86EA94E066DE8C8D65DE8AEA94E0D9
:1034400061DE8D8D60DE8EEA94E05CDE8E8D5BDE6B
:1034500082EB94E057DE8F8D56DE86EB94E052DEF1
:1034600088A151DE8AEB94E04DDE89A14CDECE01CD
:10347000DF91CF91B3CE65DDD6CF8EEB94E042DE07
:1034800060DDA7DD5EDDCFDFE5DC70E060E088E0D9
:1034900090E0CCDEDFDC70E060E089E090E0C6DE4A
:1034A000D9DC70E060E08AE090E0C0DED3DC70E060
:1034B00060E08DE090E0BADE90E080E008954F9209
:1034C0005F926F927F928F929F92AF92BF92CF92B4
:1034D000DF92EF92FF920F931F93CF936B017C01CA
:1034E000742EAC019B010E944467882391F085EC07
:1034F00094E0CF911F910F91FF90EF90DF90CF90CC
:10350000BF90AF909F908F907F906F905F904F9003
:10351000A9CD46015701E894B7F82FEF3FEF4FE7E9
:103520005FE7C501B4010E94446781110DC02FEF10
:103530003FEF4FE75FE7C501B4010E94B36418167F
:103540001CF489EC94E0D5CF2FEF3FEF4FE75FE419
:10355000C701B6010E94406718161CF48DEC94E078
:10356000C8CF2FEF3FEF4FE75FECC701B6010E94D6
:10357000B36487FDF3CF20E030E0A901C701B601B5
:103580000E94B36410E000E087FF08C08DE20E9453
:1035900053098C01F7FAF094F7F8F094C0E060E07A
:1035A00070E080E09FE37C1641F020E030E040E2F4
:1035B00051E40E94A766CF5FF6CFA70196010E9453
:1035C00043662B013C010E9414674B015C014AE0F9
:1035D00056DD7C01E00EF11ECC23A9F1C501B4013A
:1035E0000E94B7649B01AC01C301B2010E94426614
:1035F0004B015C018EE20E945309E80EF91EC15096
:1036000010F120E030E040E251E4C501B4010E9435
:1036100018652B013C010E9414674B01B12CA12CB1
:103620004AE0C501B4012BDDE80EF91EC501B40165
:103630000E94B7649B01AC01C301B2010E944266C3
:103640004B015C01DCCFC701CF911F910F91FF901F
:10365000EF90DF90CF90BF90AF909F908F907F9032
:103660006F905F904F9008958F929F92AF92BF920C
:10367000CF92DF92EF92FF920F931F93CF93DF933E
:10368000EC018CE492E03EDD8BE195E03BDD6E01E8
:103690008AE0C81A8EEFD80AC6010E942E110E9435
:1036A000B9644B015C01FE01E15AFC4F60817181FC
:1036B000828193810E94B9649B01AC01C501B40170
:1036C0000E94A76642E0FBDE8BE295E01BDD7E01F7
:1036D000EAEDEE1AEDEFFE0AC7010E942E110E94DC
:1036E000B9644B015C01FE01ED59FC4F60817181B1
:1036F000828193810E94B9649B01AC01C501B40130
:103700000E94A76642E0DBDE8BE395E0FBDC8E01E6
:103710000A5A1D4FC8010E942E110E94B9644B0124
:103720005C01C959DC4F688179818A819B810E9443
:10373000B9649B01AC01C501B4010E94A76642E0D7
:10374000BEDEFFDB4BDD88E492E0DCDC8BE195E064
:10375000D9DCF601A68DB78D20893189428953893C
:103760000E940B660EDD8BE295E0CCDCF701A68DA6
:10377000B78D20893189428953890E940B6601DD0A
:103780008BE395E0BFDCF801A68DB78D20893189E8
:10379000428953890E940B66F4DCD3DBDF91CF9121
:1037A0001F910F91FF90EF90DF90CF90BF90AF905F
:1037B0009F908F9013CDCF92DF92EF92FF92CF9395
:1037C000DF93EC0188819981AA81BB8118161906C3
:1037D0001A061B0644F081E090E0A0E0B0E0888388
:1037E0009983AA83BB838C819D81AE81BF8118168A
:1037F00019061A061B0644F081E090E0A0E0B0E054
:103800008C839D83AE83BF8388859985AA85BB857C
:10381000181619061A061B0644F081E090E0A0E095
:10382000B0E088879987AA87BB8781ED94E06ADC3E
:103830008BE195E067DC6E857F85888999890E9498
:10384000B9646B017C01688179818A819B810E94C6
:10385000B9649B01AC01C701B6010E94A76642E0B2
:103860002EDE8BE295E04EDC6A897B898C899D890E
:103870000E94B9646B017C016C817D818E819F8186
:103880000E94B9649B01AC01C701B6010E94A76602
:1038900042E015DE8BE395E035DC6E897F89888D0B
:1038A000998D0E94B9646B017C01688579858A8550
:1038B0009B850E94B9649B01AC01C701B6010E94BF
:1038C000A76642E0FCDDCE01DF91CF91FF90EF9043
:1038D000DF90CF9083CC35DB6EDF90E080E0089501
:1038E0002F923F924F925F926F927F928F929F9210
:1038F000AF92BF92CF92DF92EF92FF920F931F93FE
:10390000CF93DF93CDB7DEB762970FB6F894DEBFE3
:103910000FBECDBF1C017C012EE5E20EF11CD701CC
:103920004D915D916D917C91FC01EE59FF4FFE87A9
:10393000ED8780819181A281B3814101F6E68F0EEE
:10394000911CF4012081B2965F01810107571F4F3E
:10395000222309F440C06101FCE4CF0ED11CF60122
:103960002081F501208321E0F801208341155105D4
:103970006105710591F42081F101E158FF4F6F015C
:10398000F101222309F44FC040AC51AC62AC73ACDE
:10399000F60140825182628273829101265A3F4F22
:1039A0003A8B298BF9014080518062807380235DBE
:1039B0003F4F5901481659066A067B06CCF5481751
:1039C00059076A077B07F4F1D4018C9181113AC041
:1039D000D5011C9242C121E0481759076A077B07AD
:1039E0000CF020E0F50120835A016B0177FF07C03E
:1039F000AA24BB246501A41AB50AC60AD70A2C0159
:103A00003D01B7FF07C0442455243201481A590A22
:103A10006A0A7B0A21E0A414B504C604D7040CF09A
:103A2000A3CF20E0A1CF44A855A866A877A8B0CF1F
:103A300084159505A605B7053CF684179507A607D6
:103A4000B70714F6F5018081882311F2D4018C9117
:103A500081110EC0F40180818111BACFD8016C911F
:103A600081E06827C1010E94DD138111B1CF06C03A
:103A700060E0C1010E94DD138111ECCFD1019C9661
:103A80002D913D914D915C919F9729833A834B8372
:103A90005C83F8018081811106C1F101E05CFF4F78
:103AA00080819181A281B3818D839E83AF83B8870A
:103AB000D101D4962D913D914D915C91D797298755
:103AC0003A874B875C87ED85FE8580819181A28155
:103AD000B381F701C080D180E280F380E989FA895F
:103AE0004081518162817381F101E557FF4F10825E
:103AF000319610823101FDE86F0E711CF3011082C6
:103B0000910122573F4FF9011082329610824C01E9
:103B10005D01841A950AA60AB70AB7FE08C0B094D8
:103B2000A09490948094811C911CA11CB11C4817F6
:103B300059076A077B070CF0CAC0C41AD50AE60AFF
:103B4000F70AD501C401B595A795979587958D87F7
:103B50009E87AF87B88B810100571F4F8C149D043F
:103B6000AE04BF0408F0B8C0D101DC960D90BC9142
:103B7000A02DBA8BA98B81E0F9018083D8018C93A9
:103B8000F1018489882309F45CC00E945A0BD10199
:103B900052960D911C91012E000C220B330B601BD1
:103BA000710B820B930B693E73408105910508F4FC
:103BB00048C00E945A0BF101738B628B85ED94E033
:103BC000A1DA89ED94E09EDA60E070E0CB01D9DA09
:103BD0008FED94E097DAC701B601D3DA85EE94E071
:103BE00091DAC501B401CDDA8BEE94E08BDA4AE0CC
:103BF0006D857E858F85988942DA82EF94E082DA3E
:103C00006D817E818F819885BCDA88EF94E07ADAC5
:103C100069857A858B859C85B4DA8EEF94E072DABB
:103C200069817A818B819C81ACDA84E095E06ADAE3
:103C300089EA98E067DA89899A89CBDA89E595E09B
:103C400061DAF101E158FF4F29893A89C901B0E0F1
:103C5000A0E080839183A283B38360E0C1010E94CE
:103C6000DD13882339F0F101E25AFF4F10821182EF
:103C70001282138262960FB6F894DEBF0FBECDBFDC
:103C8000DF91CF911F910F91FF90EF90DF90CF9038
:103C9000BF90AF909F908F907F906F905F904F906C
:103CA0003F902F900895F10180A991A9A2A9B3A9ED
:103CB00029813A814B815C8182179307A407B5075C
:103CC0000CF0EBCE89839A83AB83BC83E6CEC81A13
:103CD000D90AEA0AFB0A35CF2D853E854F855889DA
:103CE0002C153D054E055F0508F450C08D819E8161
:103CF000AF81B8858C159D05AE05BF0544F4A9813B
:103D0000BA811196BA8BA98B81E0F30136CFC70136
:103D1000B6010E94B9642B013C016D817E818F81C7
:103D200098850E94B9649B01AC01C301B2010E9455
:103D3000A7662B013C0169817A818B819C81298551
:103D40003A854B855C85621B730B840B950B0E9437
:103D5000B9649B01AC01C301B2010E9418652B013B
:103D60003C0169857A858B859C850E94B9649B019D
:103D7000AC01C301B2010E9443660E940F677A8BB7
:103D8000698B81E0F101E557FF4FF7CED501C40102
:103D90002D813E814F815885821B930BA40BB50B5F
:103DA000C816D906EA06FB065CF449815A814E5FC3
:103DB0005F4F5A8B498B81E0F101E357FF4FDDCE16
:103DC000C501B4016C197D098E099F090E94B9646F
:103DD0002B013C016D817E818F8198850E94B964A1
:103DE0009B01AC01C301B2010E94A7662B013C01FB
:103DF00069817A818B819C8129853A854B855C8597
:103E0000621B730B840B950B0E94B9649B01AC0180
:103E1000C301B2010E9418652B013C0169857A85B6
:103E20008B859C850E94B9649B01AC01C301B201E2
:103E30000E9443660E940F677A8B698B81E0F101D3
:103E4000E457FF4F9ACECF92DF92EF92FF920F93FB
:103E50001F93CF93DF938C016A017B01EC01CC0FA0
:103E6000DD1F642FCE010E94D7659927F7FC9A9534
:103E70008F2D7E2D6D2DCE0101960E94D7650D5898
:103E800011090330110588F4B701992777FD909542
:103E9000892FCE0144960E94D7656F2D77278827FA
:103EA0009927CE0145960E94D76590E080E0DF918A
:103EB000CF911F910F91FF90EF90DF90CF900895D9
:103EC0004F925F926F927F928F929F92AF92BF922A
:103ED000CF92DF92EF92FF920F931F93CF93DF93D6
:103EE0008C01EC01CC0FDD1FCE010E94CF65882E26
:103EF000912CB12CA12CCE0101960E94CF65C82E29
:103F0000D12CF12CE12C0D5811090330110508F0CA
:103F10005AC0CE0144960E94CF65482E512C712C78
:103F2000612CCE0145960E94CF65082F10E030E04D
:103F300020E08FEF481651046104710429F50F3F0A
:103F400011052105310501F58FEF88169104A104B3
:103F5000B104C9F58FEFC816D104E104F10499F555
:103F60006FEF7FEFCB01DF91CF911F910F91FF900A
:103F7000EF90DF90CF90BF90AF909F908F907F9009
:103F80006F905F904F90089500381105210531051D
:103F90003CF7FE2CED2CDC2CCC24C701B601680DBF
:103FA000791D8A1D9B1D320155244424640D751D05
:103FB000861D971D302F222711270027600F711FA4
:103FC000821F931FD0CF00E010E09801412C512CAC
:103FD000320180E8C816D104E104F104D4F2C0CF64
:103FE000EF92FF920F931F93CF93DF938091BB0AC1
:103FF0009091BC0A892B51F586E090E00E943A5FCF
:104000007C0190E080E05CDF1616170654F1C701D2
:104010000E941B11D0E0C0E0CE010E94C707882398
:1040200069F0FE01EE0FFF1FEE0FFF1FEA51F44F84
:104030004081518162817381CE0105DF2196C639AD
:10404000D10551F7F092BC0AE092BB0A8091BB0AFD
:104050009091BC0ADF91CF911F910F91FF90EF904B
:10406000089583E090E02CDF6130710581059105B2
:1040700031F506EE1BE0D0E0C0E0CE010E94C7079C
:104080008823B1F0CE011CDFF80160837183828345
:1040900093836F3F7F4F8F4F9F4F51F4CE010E940C
:1040A000D001F8014081518162817381CE01CBDE64
:1040B00021960C5F1F4FC63ED105F9F6C3CFC7014D
:1040C0000E941B11BFCFCF92DF92EF92FF920F930E
:1040D0001F93CF93DF937C016B018A01E90180DF9D
:1040E000F601EE0FFF1FEE0FFF1FEA51F44F808124
:1040F0009181F7019183808373DF000F111F000FFF
:10410000111FF801EA51F44F81E040815181628131
:104110007381413051056105710509F080E0F701B7
:1041200082875EDFCC0FDD1FCC0FDD1FCA51D44F5D
:1041300088819981AA81BB81F70182839383A483BB
:10414000B5831682178210861186DF91CF911F9159
:104150000F91FF90EF90DF90CF900895CF93DF9372
:10416000EC012AEC30E04BEC50E069EC70E0ABDFA6
:104170002EEC30E04FEC50E06DEC70E0CE010C9690
:10418000A2DF24ED30E045ED50E063ED70E0CE01BC
:10419000489699DF28ED30E049ED50E067ED70E09A
:1041A000CE01849690DF2EED30E04FED50E06DEDC6
:1041B00070E0CE01C096DF91CF9185CFCF93DF9392
:1041C0008091BF0A9091C00A892BA1F48CE390E002
:1041D0000E943A5FEC01198218821D861C86198E96
:1041E000188E1DA21CA219AA18AAB8DFD093C00A63
:1041F000C093BF0A8091BF0A9091C00ADF91CF910E
:1042000008950F931F93CF93DF93EC01E9DEFE0136
:10421000EB56FC4F8091A20D9091A30D918380836A
:10422000DFDEFE01E956FC4F8091A60D9091A70DAF
:1042300091838083D5DEFE01E756FC4F8091AA0D65
:104240009091AB0D91838083CBDE8E0105561C4F80
:104250006091CA0D7091CB0D8091CC0D9091CD0DD8
:104260000E94B964F8016083718382839383B8DE0E
:104270000C5F1F4F6091CE0D7091CF0D8091D00DCE
:104280009091D10D0E94B964F8016083718382839B
:104290009383A6DE0C5F1F4F6091D20D7091D30DFA
:1042A0008091D40D9091D50D0E94B964F80160837E
:1042B00071838283938394DEFE01E655FC4F8091E7
:1042C0008A0D90918B0D918380838ADEFE01E455E7
:1042D000FC4F80918E0D90918F0D9183808380DEB5
:1042E000FE01E255FC4F8091920D9091930D9183C8
:1042F000808376DEFE01E055FC4F8091B20D9091F7
:10430000B30DA091B40DB091B50D80839183A283BC
:10431000B38366DEFE01EC54FC4F8091B60D9091A4
:10432000B70DA091B80DB091B90D80839183A28390
:10433000B38356DEFE01E854FC4F8091BA0D909194
:10434000BB0DA091BC0DB091BD0D80839183A28364
:10435000B38346DEFE01E454FC4F8091DA0D909168
:10436000DB0D918380833CDEFE01E254FC4F8091A3
:10437000DE0D9091DF0D9183808332DEFE01E054EB
:10438000FC4F8091E20D9091E30D9183808328DEB4
:10439000FE01EE53FC4F8091F20D9091F30D91834D
:1043A00080831EDEFE01EC53FC4F8091F60D909150
:1043B000F70D9183808314DEFE01EA53FC4F809158
:1043C000FA0D9091FB0D918380830ADE80917A0D26
:1043D00090917B0DA0917C0DB0917D0DFE01E95572
:1043E000FC4F0197A105B10551F581E08083F8DD0F
:1043F00080917E0D90917F0DA091800DB091810DE7
:10440000FE01E855FC4F0197A105B105D1F481E00B
:104410008083E6DD8091820D9091830DA091840DC3
:10442000B091850DC755DC4F0197A105B10559F431
:1044300081E08883DF91CF911F910F9108951082C1
:10444000D6CF1082E6CF1882F5CF2F923F924F92AF
:104450005F926F927F928F929F92AF92BF92CF9214
:10446000DF92EF92FF920F931F93CF93DF93CDB71D
:10447000DEB76F970FB6F894DEBF0FBECDBF9B8F30
:104480008A8FAEDDEA8DFB8DEB55FD4F81E04091CB
:10449000B20C5091B30C6091B40C7091B50C452BDB
:1044A000462B472B09F480E080839ADDEA8DFB8D53
:1044B000EA55FD4F81E04091B60C5091B70C6091E8
:1044C000B80C7091B90C452B462B472B09F480E0B2
:1044D000808386DDEA8DFB8DE955FD4F81E04091BB
:1044E000BA0C5091BB0C6091BC0C7091BD0C452B6B
:1044F000462B472B09F480E0808372DD8091020D0A
:104500009091030DA091040DB091050DEA8DFB8DE6
:10451000E855FD4F80839183A283B38361DD809151
:10452000060D9091070DA091080DB091090DEA8D2F
:10453000FB8DE455FD4F80839183A283B38350DDCF
:1045400080910A0D90910B0DA0910C0DB0910D0D65
:10455000EA8DFB8DE055FD4F80839183A283B38369
:104560003FDD8091020D9091030DA091040DB0915B
:10457000050DEA8DFB8DEC54FD4F80839183A28362
:10458000B3832EDD8091060D9091070DA091080D4B
:10459000B091090DEA8DFB8DE854FD4F8083918326
:1045A000A283B3831DDD80910E0D90910F0DA0911C
:1045B000100DB091110DEA8DFB8DE454FD4F8083F9
:1045C0009183A283B3830CDD8091DA0C9091DB0C94
:1045D000A091DC0CB091DD0CEA8DFB8DE453FD4F16
:1045E00080839183A283B383FBDC8091DE0C909166
:1045F000DF0CA091E00CB091E10CEA8DFB8DE05353
:10460000FD4F80839183A283B383EADC8091E20C27
:104610009091E30CA091E40CB091E50CEA8DFB8D38
:10462000EC52FD4F80839183A283B383D9DC8091C8
:10463000DA0C9091DB0CA091DC0CB091DD0CEA8DD2
:10464000FB8DE852FD4F80839183A283B383C8DC46
:104650008091DE0C9091DF0CA091E00CB091E10C08
:10466000EA8DFB8DE452FD4F80839183A283B38357
:10467000B7DC8091E60C9091E70CA091E80CB0912A
:10468000E90CEA8DFB8DE052FD4F80839183A2837C
:10469000B383A6DC8091EA0C9091EB0CA091EC0C1A
:1046A000B091ED0CEA8DFB8DEC51FD4F8083918331
:1046B000A283B38395DC8091EE0C9091EF0CA091D6
:1046C000F00CB091F10CEA8DFB8DE851FD4F808329
:1046D0009183A283B38384DC8091F20C9091F30CDC
:1046E000A091F40CB091F50CEA8DFB8DE451FD4FD7
:1046F00080839183A283B38373DC80918A0C909131
:104700008B0CA0918C0CB0918D0CEA8DFB8DE0513F
:10471000FD4F80839183A283B38362DC80918E0CF2
:1047200090918F0CA091900CB091910CEA8DFB8D23
:10473000EC50FD4F80839183A283B38351DC809141
:10474000920C9091930CA091940CB091950CEA8DE1
:10475000FB8DE850FD4F80839183A283B38340DCBF
:1047600080918A0C90918B0CA0918C0CB0918D0C47
:10477000EA8DFB8DE450FD4F80839183A283B38348
:104780002FDC80918E0C90918F0CA091900CB091A9
:10479000910CEA8DFB8DFD5F80839183A283B383AF
:1047A0001FDC8091960C9091970CA091980CB09181
:1047B000990CEA8DFB8DEC5FFC4F80839183A28383
:1047C000B3830EDCEA8DFB8DE85FFC4F81E0209126
:1047D000620C3091630C2130310509F080E0808358
:1047E000FFDBEA8DFB8DE75FFC4F81E02091660CDB
:1047F0003091670C2130310509F080E08083F0DBD7
:10480000EA8DFB8DE65FFC4F81E020916A0C3091D0
:104810006B0C2130310509F080E08083E1DBEA8D0B
:10482000FB8DE65BFC4F81E040913A0C50913B0CD4
:1048300060913C0C70913D0C452B462B472B09F4A5
:1048400080E08083CDDBEA8DFB8DE55BFC4F81E072
:1048500040913E0C50913F0C6091400C7091410C86
:10486000452B462B472B09F480E08083B9DBEA8D8A
:10487000FB8DE45BFC4F81E04091420C5091430C76
:104880006091440C7091450C452B462B472B09F445
:1048900080E08083A5DBEA8DFB8DE35BFC4F81E04C
:1048A0004091120D5091130D6091140D7091150DE2
:1048B000452B462B472B09F480E0808391DBEA8D62
:1048C000FB8DE25BFC4F81E04091160D5091170D7E
:1048D0006091180D7091190D452B462B472B09F44B
:1048E00080E080837DDBEA8DFB8DE15BFC4F81E026
:1048F00040911A0D50911B0D60911C0D70911D0D72
:10490000452B462B472B09F480E0808369DBEA8D39
:10491000FB8DE05BFC4F81E020914A0C30914B0C09
:104920002130310509F080E080835ADBEA8DFB8D70
:10493000EF5AFC4F81E020914E0C30914F0C21300A
:10494000310509F080E080834BDBEA8DFB8DEE5A68
:10495000FC4F81E02091520C3091530C21303105F5
:1049600009F080E080833CDB8091120C9091130C65
:10497000A091140CB091150CEA8DFB8DED5AFC4FF3
:1049800080839183A283B3832BDB8091160C90915B
:10499000170CA091180CB091190CEA8DFB8DE95AF7
:1049A000FC4F80839183A283B3831ADB80911A0C1E
:1049B00090911B0CA0911C0CB0911D0CEA8DFB8DED
:1049C000E55AFC4F80839183A283B38309DBEA8D90
:1049D000FB8DE25CFC4F81E04091220C5091230C56
:1049E0006091240C7091250C452B462B472B09F424
:1049F00080E08083F5DAEA8DFB8DE15CFC4F81E09D
:104A00004091260C5091270C6091280C7091290C34
:104A1000452B462B472B09F480E08083E1DAEA8DB1
:104A2000FB8DE05CFC4F81E040912A0C50912B0CF7
:104A300060912C0C70912D0C452B462B472B09F4C3
:104A400080E08083CDDA80911A0E90911B0EA091A8
:104A50001C0EB0911D0EEA8DFB8DE55FFC4F80832F
:104A60009183A283B383BCDA80911E0E90911F0EB6
:104A7000A091200EB091210EEA8DFB8DE15FFC4FDD
:104A800080839183A283B383ABDA8091220E9091CD
:104A9000230EA091240EB091250EEA8DFB8DED5EC4
:104AA000FC4F80839183A283B3839ADAEA8DFB8DD6
:104AB000EF5BFC4F81E020917A0C30917B0C213030
:104AC000310509F080E08083EA8DFB8DEE5BFC4FC1
:104AD0001082EA8DFB8DED5BFC4F108281DAEA8D4E
:104AE000FB8DEC5BFC4F81E02091760C3091770CD4
:104AF0002130310509F080E08083EA8DFB8DEB5B8E
:104B0000FC4F1082EA8DFB8DEA5BFC4F108268DA65
:104B1000EA8DFB8DE95BFC4F81E020919A0C30918E
:104B20009B0C2130310509F080E0808359DAEA8D51
:104B3000FB8DE85BFC4F81E020919E0C30919F0C37
:104B40002130310509F080E080834ADAEA8DFB8D5F
:104B5000E75BFC4F81E02091A20C3091A30C213047
:104B6000310509F080E080833BDAEA8DFB8DE95E58
:104B7000FC4F81E020912A0E30912B0E213031051F
:104B800009F080E080832CDAEA8DFB8DE85EFC4F33
:104B900081E020912E0E30912F0E2130310509F049
:104BA00080E080831DDAEA8DFB8DE75EFC4F81E0BB
:104BB0002091320E3091330E2130310509F080E022
:104BC00080830EDA80916A0E90916B0EA0916C0E2C
:104BD000B0916D0EEA8DFB8DE65EFC4F8083918374
:104BE000A283B383FDD980916E0E90916F0EA09138
:104BF000700EB091710EEA8DFB8DE25EFC4F8083EA
:104C00009183A283B383ECD98091720E9091730E3D
:104C1000A091740EB091750EEA8DFB8DEE5DFC4F88
:104C200080839183A283B383DBD98091A20E90917C
:104C3000A30EA091A40EB091A50EEA8DFB8DEA5DA6
:104C4000FC4F80839183A283B383CAD98091A60E3F
:104C50009091A70EA091A80EB091A90EEA8DFB8DA0
:104C6000E65DFC4F80839183A283B383B9D98091A1
:104C7000AA0E9091AB0EA091AC0EB091AD0EEA8D44
:104C8000FB8DE25DFC4F80839183A283B383A8D91F
:104C900080919A0E90919B0EA0919C0EB0919D0ECA
:104CA000EA8DFB8DEE5CFC4F80839183A283B383FE
:104CB00097D980919A0E90919B0EA0919C0EB091E5
:104CC0009D0EEA8DFB8DEA5CFC4F80839183A2836D
:104CD000B38386D980919A0E90919B0EA0919C0EE1
:104CE000B0919D0EEA8DFB8DE65CFC4F8083918335
:104CF000A283B38375D90A8D1B8D015A1C4F8091F5
:104D0000C20C9091C30CA091C40CB091C50CF801D9
:104D100080839183A283B38363D9EA8CFB8CFDE902
:104D2000EF1AFCEFFF0A8091C60C9091C70CA0917E
:104D3000C80CB091C90CF70180839183A283B3831F
:104D40004FD98091CA0C9091CB0CA091CC0CB09112
:104D5000CD0CCA8CDB8CF9E9CF1AFCEFDF0AF60127
:104D600080839183A283B383F80140815181628162
:104D70007381141615061606170644F041E050E03C
:104D800060E070E04083518362837383F701408168
:104D9000518162817381141615061606170644F0B8
:104DA00041E050E060E070E04083518362837383B0
:104DB000181619061A061B064CF081E090E0A0E0D8
:104DC000B0E0F60180839183A283B3830E94A11790
:104DD000FC01D6018D909D90AD90BC90D7014D9176
:104DE0005D916D917C91D8010D911D912D913C911A
:104DF00000831183228333834483558366837783BF
:104E000080869186A286B386EA8DFB8D7096FA83A2
:104E1000E983EA8DFB8DE95EFC4F80808B82EA8D11
:104E2000FB8DE55FFC4F4080518062807380EA8D8E
:104E3000FB8DE95BFC4F90809A86EA8DFB8DE05BF1
:104E4000FC4FA080AC82EA8DFB8DEF5BFC4FB08005
:104E5000BD82EA8DFB8DEC5BFC4F20812E83EA8DB9
:104E6000FB8DE35BFC4F80818E87EA8DFB8DE65BDB
:104E7000FC4F90819A8BEA8DFB8DE85FFC4F208080
:104E8000EA8DFB8DEB55FD4F3080EA8DFB8DED5AA1
:104E9000FC4F80809180A280B380EA8DFB8DE05131
:104EA000FD4F80819181A281B381EA8DFB8DEC5110
:104EB000FD4FC080D180E280F380EA8DFB8DE4530A
:104EC000FD4F4081518162817381EA8DFB8DE855F0
:104ED000FD4F0081118122813381EA8DFB8D04AF6A
:104EE00015AF26AF37AFEC5BFF4F40835183628332
:104EF0007383EA8DFB8DE05BFF4F80839183A283F8
:104F0000B383EA8DFB8DE05CFF4F00831183228326
:104F10003383EA8DFB8DE85BFF4F408351836283CF
:104F20007383EA8DFB8DEC5AFF4F80839183A283BC
:104F3000B383EA8DFB8DE45BFF4FC082D182E282B6
:104F4000F382EA8DFB8DE85AFF4F80829182A28224
:104F5000B382EA8DFB8DE45AFF4F3082EA8DFB8DE0
:104F6000E35AFF4F2082EA89AA8DBB8DD996EC9334
:104F7000D997FE85DA96FC93DA978C80DB968C9233
:104F800080E490E0A0E0B0E0EA8DFB8DE05AFF4FB6
:104F900080839183A283B383EA8DFB8DE25AFF4F16
:104FA0009E809082EA8DFB8DE15AFF4FAD80A082FA
:104FB000EA8DFB8DEC59FF4FBA84B082EA8DFB8DF0
:104FC000EB59FF4F4082518262827382EA8DFB8DE2
:104FD000E759FF4F2B812083AA8DBB8D99968D9128
:104FE0009C919A978633910509F0E7C28AE592E190
:104FF000FD01EE55FF4F918380833296118210821E
:105000008CE592E1369691838083329611821082EC
:10501000EA8DFB8D87A590A94A97D1F48EE692E19F
:10502000EA55FF4F91838083EA8DFB8DE855FF4F52
:105030001182108280E792E1EA8DFB8DE255FF4FED
:1050400091838083EA8DFB8DE055FF4F11821082A2
:105050000A8D1B8D0E541F4FEA8DFB8DE85EFC4FB1
:1050600080808B82EA8DFB8DE15FFC4F8081918196
:10507000A281B3818A879B87AC87BD87EA8DFB8D30
:10508000E85BFC4F90819C83EA8DFB8DEF5AFC4FCF
:10509000A081AD83EA8DFB8DEE5BFC4FB081BE83BA
:1050A000EA8DFB8DEB5BFC4F80808E86EA8DFB8D5D
:1050B000E25BFC4F2080EA8DFB8DE55BFC4F30808E
:1050C000EA8DFB8DE75FFC4F3081EA8DFB8DEA5561
:1050D000FD4F2081EA8DFB8DE95AFC4F40815181C3
:1050E00062817381EA8DFB8DEC50FD4F808191814F
:1050F000A281B381EA8DFB8DE851FD4FC080D18044
:10510000E280F380EA8DFB8DE053FD4F808091803B
:10511000A280B380EA8DFB8DE455FD4F4080518025
:1051200062807380F80144A655A666A677A684AA75
:1051300095AAA6AAB7AAEA8DFB8DEE50FF4F8083F1
:105140009183A283B383F80140AA51AA62AA73AAE9
:1051500080AE91AEA2AEB3AEEA8DFB8DEA50FF4FAA
:1051600080839183A283B383D801DC96CD92DD92B4
:10517000ED92FC92DF97EA8DFB8DE650FF4F408366
:10518000518362837383EA8DFB8DE250FF4F20834E
:10519000EA8DFB8DE150FF4F308399963C929997B1
:1051A0009A962C929A97ED819B96EC9380E490E0EE
:1051B000A0E0B0E0EA8DFB8DEE5FFE4F808391832F
:1051C000A283B383EA8DFB8DF3958E848082EA8D72
:1051D000FB8DEF5FFE4F9E809082EA8DFB8DEA5F34
:1051E000FE4FAC80A082EA8DFB8DE95FFE4F8A8581
:1051F0009B85AC85BD8580839183A283B383EA8D33
:10520000FB8DE55FFE4F9B819083D80159968D9170
:105210009C918633910509F002C28AE592E1EA8DFC
:10522000FB8DEC5BFE4F91838083EA8DFB8DEA5B07
:10523000FE4F118210828CE592E1EA8DFB8DE45BDA
:10524000FE4F91838083EA8DFB8DE25BFE4F1182DE
:105250001082F801878D90A14A97E1F48EE692E1E1
:10526000EA8DFB8DE85BFE4F91838083EA8DFB8D99
:10527000E65BFE4F1182108280E792E1EA8DFB8DA2
:10528000E05BFE4F91838083EA8DFB8DEE5AFE4FEB
:1052900011821082EA8CFB8CFCEAEF1AFEEFFF0A07
:1052A000EA8DFB8DE75EFC4F80808B82EA8DFB8D63
:1052B000ED5EFC4F80819181A281B3818A879B87BB
:1052C000AC87BD87EA8DFB8DE75BFC4F90819C83AB
:1052D000EA8DFB8DEE5AFC4F3080EA8DFB8DED5B45
:1052E000FC4FA081AD83EA8DFB8DEA5BFC4F2080F3
:1052F000EA8DFB8DE15BFC4FC080EA8DFB8DE45BAA
:10530000FC4FD080EA8DFB8DE65FFC4F3081EA8D4B
:10531000FB8DE955FD4F2081EA8DFB8DE55AFC4F51
:1053200080809180A280B3808E829F82A886B98679
:10533000EA8DFB8DEC5FFC4F80819181A281B3816E
:105340008E879F87A88BB98BEA8DFB8DE850FD4F28
:1053500080809180A280B3808C8E9D8EAE8EBF8E19
:10536000EA8DFB8DE451FD4F80819181A281B38153
:105370008A8B9B8BAC8BBD8BEA8DFB8DE052FD4FF6
:1053800080819181A281B381EA8DFB8DEC52FD4F2A
:105390004080518062807380EA8DFB8DE454FD4F24
:1053A0004081518162817381EA8DFB8DE055FD4F13
:1053B00080809180A280B380F70184A695A6A6A6DE
:1053C000B7A644AA55AA66AA77AAEA8DFB8DEC5621
:1053D000FE4F8C8C9D8CAE8CBF8C80829182A28281
:1053E000B382F70140AB51AB62AB73AB80AF91AF0F
:1053F000A2AFB3AFEA8DFB8DE856FE4F8E849F843B
:10540000A888B98880829182A282B3828A899B8986
:10541000AC89BD89F70184AF95AFA6AFB7AFEA8D70
:10542000FB8DE456FE4F8E809F80A884B9848082D5
:105430009182A282B382EA8DFB8DE056FE4F2083DB
:10544000EA8DFB8DEF55FE4F3083D7019996DC92A4
:1054500099979A96CC929A979B963C9280E490E08A
:10546000A0E0B0E0EA8DFB8DEC55FE4F8083918388
:10547000A283B383EA8DFB8DEE55FE4F2082EA8D29
:10548000FB8DED55FE4FBD81B083EA8DFB8DE85558
:10549000FE4F8C808082EA8DFB8DE755FE4F8A851A
:1054A0009B85AC85BD8580839183A283B383EA8D80
:1054B000FB8DE355FE4F9B819083D70159968D91CB
:1054C0009C918633910509F0D2C08AE592E1EA8D7C
:1054D000FB8DEA51FE4F91838083EA8DFB8DE8516D
:1054E000FE4F118210828CE592E1EA8DFB8DE25134
:1054F000FE4F91838083EA8DFB8DE051FE4F118238
:105500001082F701878D90A14A97E1F48EE692E12F
:10551000EA8DFB8DE651FE4F91838083EA8DFB8DF2
:10552000E451FE4F1182108280E792E1EA8DFB8DFB
:10553000EE50FE4F91838083EA8DFB8DEC50FE4F41
:1055400011821082EA8DFB8DE25CFC4F8081882302
:1055500009F4B5C089819A810E944313EA8DFB8DBD
:10556000E15CFC4F8081882309F4AEC0C8010E9431
:1055700043138A8D9B8D805C9C4FDC018C9188232A
:1055800009F4A6C0C7016F960FB6F894DEBF0FBE30
:10559000CDBFDF91CF911F910F91FF90EF90DF90E2
:1055A000CF90BF90AF909F908F907F906F905F90C3
:1055B0004F903F902F900C9443138C339105D9F466
:1055C0008EE592E1EA8DFB8DEE55FF4F918380834E
:1055D000EA8DFB8DEC55FF4F1182108280E692E13F
:1055E000EA8DFB8DE655FF4F91838083EA8DFB8D1D
:1055F000E455FF4F0BCD8E9709F00ACD82E692E17C
:10560000EA8DFB8DEE55FF4F91838083EA8DFB8DF4
:10561000EC55FF4F1182108288E692E1E1CF8C3386
:10562000910589F48EE592E1EA8DFB8DEC5BFE4FEE
:1056300091838083EA8DFB8DEA5BFE4F118210829D
:1056400080E692E1FACD8E9709F003CE82E692E1F0
:10565000EA8DFB8DEC5BFE4F91838083EA8DFB8DA1
:10566000EA5BFE4F1182108288E692E1E6CD8C3330
:10567000910589F48EE592E1EA8DFB8DEA51FE4FAA
:1056800091838083EA8DFB8DE851FE4F1182108259
:1056900080E692E12ACF8E9709F033CF82E692E13D
:1056A000EA8DFB8DEA51FE4F91838083EA8DFB8D5D
:1056B000E851FE4F1182108288E692E116CF89816F
:1056C0009A810E9401134ACFC8010E94011351CF51
:1056D000C7016F960FB6F894DEBF0FBECDBFDF9146
:1056E000CF911F910F91FF90EF90DF90CF90BF90DF
:1056F000AF909F908F907F906F905F904F903F9072
:105700002F900C940113AF92BF92CF92DF92EF9241
:10571000FF920F931F93CF93DF93EC018AE190E008
:105720009AA789A78BE190E09CA78BA789E190E0DD
:105730009EA78DA78FE090E098AB8FA78EE190E0B9
:105740009AAB89AB8EE090E09CAB8BAB85E490E0AC
:105750009EAB8DAB84E490E098AF8FABFE01EE542E
:10576000FF4F80E290E0928F818F81E290E0948FF2
:10577000838F8FE190E0968F858F10A2178E12A2F3
:1057800011A214A213A283E490E096A385A382E45D
:1057900090E090A787A3EE55FF4F83E290E0928FB1
:1057A000818F84E290E0948F838F82E290E0968FE5
:1057B000858F10A2178E12A211A214A213A281E447
:1057C00090E096A385A380E490E090A787A3E55B93
:1057D000FE4F11821082329611821082329611820F
:1057E0001082CE010E942522CE010E940121CE010D
:1057F0008A509E4F41E050E0FC0157A746A7DE01CA
:10580000AA5DBD4F24E030E09F963C932E939E9777
:105810005E01FAEAAF1AFDEFBF0A28E030E0F501B9
:1058200037A726A72FEF3FEFFC0131832083358375
:10583000248333832283378326836285608763854D
:10584000618711963C932E9315963C932E93149753
:1058500013963C932E93129717963C932E9316977C
:105860001A966C911A9718966C9318971B966C91D0
:105870001B9719966C931997F50131832083358313
:1058800024833383228337832683628560876385FD
:105890006187BE016E537C4FFB01608171818E0177
:1058A00000551C4FF801C080D180E280F380065083
:1058B0001109F80100811181FC01158F048FC48A40
:1058C000D58AE68AF78A6130710509F04EC0378FB4
:1058D000268FCE018C539C4FFC01808191819E01CB
:1058E0002C543C4FF90140815181628173812850D1
:1058F0003109F901208131815D963C932E935C97AB
:1059000054964D935D936D937C935797019781F5D2
:105910008FEF9FEF5F969C938E935E97DE01AA5365
:10592000BC4F8D919C9111971E974D915D916D91FA
:105930007C91C255DC4F28813981F501358F248F48
:10594000448B558B668B778B0197A9F48FEF9FEF74
:10595000978F868FDF91CF911F910F91FF90EF90DE
:10596000DF90CF90BF90AF900895578F468FB1CF03
:1059700081E090E0CFCF81E090E0EACFBF92CF927C
:10598000DF92EF92FF920F931F93CF93DF93EC017F
:105990000E94F01FE090320DF090330D0E94F01F36
:1059A000C090420DD090430D0E94F01FB0905A0D50
:1059B00010915B0D0E94F01F01E08091820E90918A
:1059C000830E019709F000E02B2D312F12161306DC
:1059D00014F021E030E0A601B701CE018C5A9E4FB1
:1059E0000E944D15DF91CF911F910F91FF90EF9085
:1059F000DF90CF90BF900895BF92CF92DF92EF9249
:105A0000FF920F931F93CF93DF93EC010E94F01F3F
:105A1000E0902E0DF0902F0D0E94F01FC0903E0DD3
:105A2000D0903F0D0E94F01FB090560D1091570D71
:105A30000E94F01F01E080917E0E90917F0E0197F1
:105A400009F000E02B2D312F1216130614F021E07F
:105A500030E0A601B701CE018E549F4F0E944D1534
:105A6000DF91CF911F910F91FF90EF90DF90CF903A
:105A7000BF900895BF92CF92DF92EF92FF920F9363
:105A80001F93CF93DF93EC010E94F01FE0902A0D4B
:105A9000F0902B0D0E94F01FC0903A0DD0903B0D5E
:105AA0000E94F01FB090520D1091530D0E94F01FF4
:105AB00001E080917A0E90917B0E019709F000E051
:105AC0002B2D312F1216130614F021E030E0A60121
:105AD000B701CE0140960E944D15DF91CF911F91E5
