:100000009DC10000CCC10000CAC10000C8C10000F1
:10001000C6C10000C4C10000C2C10000C0C10000D0
:10002000BEC10000BCC10000BAC10000B8C10000E0
:10003000B6C10000B4C10000B2C10000B0C10000F0
:10004000AEC100000C94E04EAAC10000A8C100009F
:100050000C940E4FA4C10000A2C100000C940C4EE1
:100060009EC100000C94D64D0C94AC4D98C100007C
:1000700096C1000094C1000092C1000090C1000030
:100080000C94B24E8CC100008AC1000088C10000EF
:1000900086C1000084C1000082C1000080C1000050
:1000A0007EC100007CC100000C94844E78C1000029
:1000B00076C1000074C1000072C100000C94564E5D
:1000C0006EC100006CC100006AC1000068C1000080
:1000D00066C1000064C1000062C1000060C1000090
:1000E0005EC100004E414E494E495459494E46CDDD
:1000F000CCCC3D0AD7233C17B7D13877CC2B3295DF
:1001000095E6241FB14F0A000020410000C84200BC
:10011000401C4620BCBE4CCA1B0E5AAEC59D740086
:10012000407A10F35A00A0724E18090010A5D4E8C6
:100130000000E87648170000E40B54020000CA9A59
:100140003B000000E1F505000080969800000040AB
:10015000420F000000A086010000001027000000F0
:1001600000E803000000006400000000000A000036
:100170000000000100000000002C76D888DC674FEA
:100180000823DFC1DFAE59E1B1B796E5E3E453C61A
:100190003AE651997696E8E6C28426EB898C9B6212
:1001A000ED407C6FFCEFBC9C9F40F2BAA56FA5F4BC
:1001B00090055A2AF75C936B6CF9676DC11BFCE0E4
:1001C000E40D47FEF520E6B500D0ED902E03009437
:1001D0003577050080841E080000204E0A000000CC
:1001E000C80C333333330F986E12831141EF8D21D6
:1001F00014893BE65516CFFEE6DB18D1844B381B3D
:10020000F77C1D901DA4BBE424203284725E228101
:1002100000C9F124ECA1E53D2700002100240027BE
:10022000002A002D00300033000101000004010706
:10023000010A0100002200250028002B002E0031B9
:1002400000340002010000050108010B010000203C
:10025000002300260029002C002F0032000001009E
:100260000003010601090105050505070508080841
:1002700008020202020A0A08080404040401010137
:10028000010101010103030303030303030407073F
:10029000070C0C0C0C0C0C0C0C02020202060606DD
:1002A00006060606060B0B0B0B0B0B0B0B010210C5
:1002B0002020080810204010204080020102010880
:1002C0000402010102040810204080804020100830
:1002D0000402018004020180402010080402010889
:1002E00004020101020408102040800102040810E9
:1002F00020408000000A0B02090C0D0E08070304C1
:1003000001000000000000000000000000000000EC
:1003100000000000000000000000000000000012CB
:1003200011100000000000000000000000000000AC
:1003300000000000000000000000394F11241FBE23
:10034000CFEFD1E2DEBFCDBF00E00CBF1AE0A0E0EE
:10035000B2E0E0E9F0ED00E00BBF02C007900D92C3
:10036000AC34B107D9F724E1ACE4BAE001C01D9286
:10037000AA37B207E1F711E0CEE9D1E000E006C00C
:1003800021970109802FFE010E943167CD39D107E5
:1003900080E00807A9F70E940F520C94466830CEFF
:1003A0009C01803E910508F0E6C5FC018827E452D7
:1003B000FE4F8F4F0C943167BC02C902D202DB02A0
:1003C000E402ED02BB07BB07BB07BB07BB07FA0292
:1003D00007031403BB0721032A0333034003490324
:1003E00052035B0364036D03BB0776037F0388033B
:1003F000BB07BB07BB0791039A03A303BB07BB075C
:10040000AC03B903BB07BB07BB07C603D303E003B9
:10041000ED03FA0303040C04BB07BB07BB07150479
:100420001E042704BB07340441044E04BB07BB076A
:10043000BB075B046804750482048F049C04A90450
:10044000BB07BB07BB07B604C304D004DD04EA0442
:10045000F304FC04BB07BB07BB07B005BD05CA0519
:10046000BB07D705E405F105BB07BB07BB07FE05C6
:1004700007061006BB07BB07BB07BB07BB07BB07CD
:10048000BB07190622062B06BB0734063D064606A7
:10049000BB07BB07BB074F065C066906BB077606B2
:1004A00083069006BB07BB07BB079D06AA06B706D7
:1004B000BB07C406CD06D606BB07BB07BB07DF06D6
:1004C000E806F106BB07BB07BB07BB07BB07BB07BB
:1004D000BB07BB07BB07BB07BB0705050E05170519
:1004E000BB07BB07BB07BB07BB07BB07BB07BB07FC
:1004F000BB07BB07BB07BB07BB0720052D053A059C
:10050000BB0795059E05A705BB07BB07BB076E0587
:100510007B058805BB07470554056105BB07BB077D
:10052000BB07BB07BB07BB07BB07BB07BB07BB07BB
:10053000BB07BB07BB07BB07BB07BB07BB07BB07AB
:10054000BB07BB07A907B207BB07FA0603071007DB
:10055000BB071D0726073307BB07BB07BB074007C1
:1005600049075607BB0763076C077907BB07BB073B
:10057000BB0786078F079C0781E090E0A0E0B0E012
:1005800080937E0B90937F0BA093800BB093810B95
:1005900008951092820B1092830B1092840B10928C
:1005A000850B08951092860B1092870B1092880B82
:1005B0001092890B089510928A0B10928B0B109257
:1005C0008C0B10928D0B089510928E0B10928F0B46
:1005D0001092900B1092910B089583E090E0A0E0B0
:1005E000B0E08093920B9093930BA093940BB093F5
:1005F000950B089588E790E0A0E0B0E08093AA0B07
:100600009093AB0BA093AC0BB093AD0B089588E720
:1006100090E0A0E0B0E08093AE0B9093AF0BA0937E
:10062000B00BB093B10B089588E790E0A0E0B0E084
:100630008093B20B9093B30BA093B40BB093B50B14
:1006400008951092BA0B1092BB0B1092BC0B109233
:10065000BD0B08951092BE0B1092BF0B1092C00BF1
:100660001092C10B089581E090E0A0E0B0E080938B
:10067000C20B9093C30BA093C40BB093C50B08950A
:100680001092C60B1092C70B1092C80B1092C90B98
:1006900008951092CA0B1092CB0B1092CC0B1092B3
:1006A000CD0B08951092CE0B1092CF0B1092D00B61
:1006B0001092D10B08951092D20B1092D30B10927E
:1006C000D40B1092D50B08951092D60B1092D70B25
:1006D0001092D80B1092D90B08951092DA0B109249
:1006E000DB0B1092DC0B1092DD0B08951092E20BE5
:1006F0001092E30B1092E40B1092E50B0895109208
:10070000E60B1092E70B1092E80B1092E90B08959C
:100710001092EA0B1092EB0B1092EC0B1092ED0B77
:1007200008951092FA0B1092FB0B1092FC0B109292
:10073000FD0B08951092FE0B1092FF0B1092000C0F
:100740001092010C08951092020C1092030C10925A
:10075000040C1092050C089581E090E0A0E0B0E058
:1007600080930E0C90930F0CA093100CB093110C6F
:10077000089581E090E0A0E0B0E08093120C9093A7
:10078000130CA093140CB093150C08958CE291E017
:10079000A0E0B0E08093220C9093230CA093240C53
:1007A000B093250C08958CE291E0A0E0B0E0809336
:1007B000260C9093270CA093280CB093290C089535
:1007C0008CE291E0A0E0B0E080932A0C90932B0C97
:1007D000A0932C0CB0932D0C08958CE291E0A0E036
:1007E000B0E080932E0C90932F0CA093300CB0931C
:1007F000310C08951092320C1092330C1092340C7C
:100800001092350C08951092360C1092370C1092FD
:10081000380C1092390C089510923A0C10923B0C3F
:1008200010923C0C10923D0C089510924A0C1092BC
:100830004B0C10924C0C10924D0C089510924E0CD3
:1008400010924F0C1092500C1092510C089581E0B0
:1008500090E0A0E0B0E08093520C9093530CA093F2
:10086000540CB093550C089585E090E0A0E0B0E002
:1008700080935A0C90935B0CA0935C0CB0935D0C2E
:10088000089585E090E0A0E0B0E080935E0C909346
:100890005F0CA093600CB093610C089589E190E027
:1008A000A0E0B0E08093620C9093630CA093640C82
:1008B000B093650C089582E390E0A0E0B0E08093EF
:1008C000720C9093730CA093740CB093750C0895F4
:1008D00082E390E0A0E0B0E08093760C9093770CF8
:1008E000A093780CB093790C089582E390E0A0E097
:1008F000B0E080937A0C90937B0CA0937C0CB09327
:100900007D0C089582E390E0A0E0B0E080937E0C3F
:1009100090937F0CA093800CB093810C089582E398
:1009200090E0A0E0B0E08093820C9093830CA093C1
:10093000840CB093850C089582E390E0A0E0B0E0D1
:100940008093860C9093870CA093880CB093890CAD
:10095000089582E390E0A0E0B0E080938A0C909349
:100960008B0CA0938C0CB0938D0C089580E991E0D2
:10097000A0E0B0E080939A0C90939B0CA0939C0C09
:10098000B0939D0C089580E991E0A0E0B0E08093E1
:100990009E0C90939F0CA093A00CB093A10C089573
:1009A00080E991E0A0E0B0E08093A20C9093A30CCA
:1009B000A093A40CB093A50C089580E991E0A0E069
:1009C000B0E08093A60C9093A70CA093A80CB093D2
:1009D000A90C08951092AA0C1092AB0C1092AC0CBA
:1009E0001092AD0C08951092AE0C1092AF0C1092B4
:1009F000B00C1092B10C08951092B20C1092B30C7E
:100A00001092B40C1092B50C08951092C20D109271
:100A1000C30D1092C40D1092C50D08951092C60D0D
:100A20001092C70D1092C80D1092C90D0895109222
:100A3000CA0D1092CB0D1092CC0D1092CD0D0895D1
:100A400083E090E0A0E0B0E08093020E9093030E6C
:100A5000A093040EB093050E089583E090E0A0E00B
:100A6000B0E08093060E9093070EA093080EB0930B
:100A7000090E089583E090E0A0E0B0E080930A0EB4
:100A800090930B0EA0930C0EB0930D0E08958AE078
:100A900090E0A0E0B0E080933A0E90933B0EA093DC
:100AA0003C0EB0933D0E08958AE090E0A0E0B0E0E7
:100AB00080933E0E90933F0EA093400EB093410E54
:100AC00008958AE090E0A0E0B0E08093420E909319
:100AD000430EA093440EB093450E08958AE090E033
:100AE000A0E0B0E080932A0E90932B0EA0932C0EE2
:100AF000B0932D0E08958AE090E0A0E0B0E08093DE
:100B00002E0E90932F0EA093300EB093310E0895B9
:100B10008AE090E0A0E0B0E08093320E9093330E34
:100B2000A093340EB093350E08951092120E1092C9
:100B3000130E1092140E1092150E08951092160EA8
:100B40001092170E1092180E1092190E089510920E
:100B50001A0E10921B0E10921C0E10921D0E08956C
:100B600088E592E0A0E0B0E08093C20C9093C30CC3
:100B7000A093C40CB093C50C089588E592E0A0E062
:100B8000B0E08093C60C9093C70CA093C80CB093B0
:100B9000C90C089588E592E0A0E0B0E08093CA0C0B
:100BA0009093CB0CA093CC0CB093CD0C08958EE118
:100BB00090E0A0E0B0E08093D20C9093D30CA0938F
:100BC000D40CB093D50C08958EE190E0A0E0B0E095
:100BD0008093D60C9093D70CA093D80CB093D90CDB
:100BE00008958EE190E0A0E0B0E08093DA0C90935D
:100BF000DB0CA093DC0CB093DD0C08951092EA0C92
:100C00001092EB0C1092EC0C1092ED0C08951092D7
:100C1000EE0C1092EF0C1092F00C1092F10C089563
:100C20001092F20C1092F30C1092F40C1092F50C3E
:100C300008951092120D1092130D1092140D10922F
:100C4000150D08951092160D1092170D1092180D93
:100C50001092190D089510921A0D10921B0D1092FA
:100C60001C0D10921D0D08951092220D1092230D4F
:100C70001092240D1092250D08951092260D1092B9
:100C8000270D1092280D1092290D089510922A0D0B
:100C900010922B0D10922C0D10922D0D089585E0C1
:100CA00090E0A0E0B0E080933A0D90933B0DA093CC
:100CB0003C0DB0933D0D089585E090E0A0E0B0E0DC
:100CC00080933E0D90933F0DA093400DB093410D46
:100CD000089585E090E0A0E0B0E08093420D90930D
:100CE000430DA093440DB093450D089584EB95E119
:100CF000A0E0B0E080934A0D90934B0DA0934C0D73
:100D0000B0934D0D089584EB95E1A0E0B0E08093A1
:100D10004E0D90934F0DA093500DB093510D08952B
:100D200084EB95E1A0E0B0E08093520D9093530DD9
:100D3000A093540DB093550D089585E090E0A0E088
:100D4000B0E08093620D9093630DA093640DB09317
:100D5000650D089585E090E0A0E0B0E08093660D19
:100D60009093670DA093680DB093690D089585E089
:100D700090E0A0E0B0E080936A0D90936B0DA0939B
:100D80006C0DB0936D0D08951092720D1092730D4D
:100D90001092740D1092750D08951092760D1092A8
:100DA000770D1092780D1092790D089510927A0DAA
:100DB00010927B0D10927C0D10927D0D0895109273
:100DC0008A0D10928B0D10928C0D10928D0D08953E
:100DD00010928E0D10928F0D1092900D1092910D19
:100DE00008951092920D1092930D1092940D1092FE
:100DF000950D08951092A20E1092A30E1092A40EBB
:100E00001092A50E08958CE390E0A0E0B0E08093EE
:100E1000A60E9093A70EA093A80EB093A90E0895C6
:100E200081E090E0A0E0B0E08093AA0E9093AB0E3A
:100E3000A093AC0EB093AD0E08951092B20E109226
:100E4000B30E1092B40E1092B50E08958CE390E09C
:100E5000A0E0B0E08093B60E9093B70EA093B80ECA
:100E6000B093B90E089581E090E0A0E0B0E08093E7
:100E7000BA0E9093BB0EA093BC0EB093BD0E089516
:100E80001092CA0E1092CB0E1092CC0E1092CD0E74
:100E900008958CE390E0A0E0B0E08093CE0E9093B4
:100EA000CF0EA093D00EB093D10E089581E090E0C4
:100EB000A0E0B0E08093D20E9093D30EA093D40E16
:100EC000B093D50E08951092DA0E1092DB0E1092A8
:100ED000DC0E1092DD0E08958CE390E0A0E0B0E00F
:100EE0008093DE0E9093DF0EA093E00EB093E10EA0
:100EF000089581E090E0A0E0B0E08093E20E90934E
:100F0000E30EA093E40EB093E50E08951092F20E56
:100F10001092F30E1092F40E1092F50E08958CE3D9
:100F200090E0A0E0B0E08093F60E9093F70EA093CF
:100F3000F80EB093F90E089581E090E0A0E0B0E0E3
:100F40008093FA0E9093FB0EA093FC0EB093FD0ECF
:100F500008951092960E1092970E1092980E10927D
:100F6000990E089510929A0E10929B0E10929C0E5C
:100F700010929D0E0895220F331F220F331FF90187
:100F8000E258F44F10821182128213820895823740
:100F900091050CF054C08F369105CCF48633910541
:100FA0005CF5833391059CF48C319105BCF4893157
:100FB00091056CF48E30910564F48B3091053CF40E
:100FC000009729F097FD08C00297049728F481E064
:100FD00008950F970997D8F380E008958632910518
:100FE0003CF4843291059CF74F970397A8F7EFCF15
:100FF0008997079788F7EBCF8435910574F481358D
:1010000091052CF7843491052CF48D339105FCF671
:10101000C797EBCF87549109ECCF8E35910534F407
:101020008B359105A4F685559109DFCF853691055D
:101030009CF2883691055CF289569109D6CF883AA0
:10104000910524F5853A910514F6863891058CF4BE
:10105000833891050CF0BBCF8C3791053CF4893770
:1010600091050CF0B4CF83579109BFCF8D579109EB
:10107000BCCF843991053CF4813991050CF0A7CFA0
:101080008D589109B2CF815A9109AFCF8C3C91050F
:10109000A4F4893C91050CF09ACF823B91053CF475
:1010A0008F3A91050CF093CF8B5A91099ECF865CB5
:1010B0009109029708F090CF8ACF863D91053CF4C4
:1010C000833D91050CF083CF8D5C91098ECF873DD8
:1010D00091050CF481CF8A3D91050CF478CF8D5D9C
:1010E000910983CF8CBD9DBD08958CB58C7F8CBD3F
:1010F0008DB58E7F8DBD0895AF92BF92CF92DF9256
:10110000EF92FF920F931F93CF93DF936C017B01BC
:101110008B01040F151FEB015E01AE18BF08C0174D
:10112000D10759F06991D601ED91FC910190F081C0
:10113000E02DC6011995892B79F7C501DF91CF9173
:101140001F910F91FF90EF90DF90CF90BF90AF90E5
:101150000895FC01538D448D252F30E0842F90E0BD
:10116000821B930B541710F0CF96089501970895A2
:10117000FC01918D828D981761F0A28DAE0FBF2F6B
:10118000B11D5D968C91928D9F5F9F73928F90E0C1
:1011900008958FEF9FEF0895FC01918D828D981730
:1011A00031F0828DE80FF11D858D90E008958FEF6D
:1011B0009FEF0895FC01918D228D892F90E0805C36
:1011C0009F4F821B91098F739927089586E19FE0B5
:1011D000F1DF21E0892B09F420E0822F0895FC0142
:1011E000A48DA80FB92FB11DA35ABF4F2C91848D88
:1011F00090E001968F739927848FA689B7892C93E5
:10120000A089B1898C91837080648C93938D848D37
:10121000981306C00288F389E02D80818F7D80833A
:101220000895EF92FF920F931F93CF93DF93EC01FA
:1012300081E0888F9B8D8C8D98131AC0E889F9897D
:10124000808185FF15C09FB7F894EE89FF89608380
:10125000E889F98980818370806480839FBF81E001
:1012600090E0DF91CF911F910F91FF90EF90089543
:10127000F62E0B8D10E00F5F1F4F0F731127E02E1E
:101280008C8D8E110BC00FB607FCFACFE889F98957
:10129000808185FFF5CFCE01A2DFF2CFEB8DEC0F81
:1012A000FD2FF11DE35AFF4FF0829FB7F8940B8F8B
:1012B000EA89FB8980818062D0CF682F86E19FE038
:1012C000B0CFCF93DF93EC01888D8823B1F0AA894A
:1012D000BB89E889F9898C9185FD03C0808186FDF1
:1012E0000CC00FB607FCF7CF8C9185FFF2CF808141
:1012F00085FFEDCFCE0173DFEACFDF91CF91089567
:1013000080E090E0892B21F061DF81110E940000D4
:1013100080E090E0892B49F080E090E0892B29F073
:101320000E94000081110E94000080E090E0892B63
:1013300049F080E090E0892B29F00E9400008111A3
:101340000E94000080E090E0892B49F080E090E06E
:10135000892B29F00E94000081110C94000008954F
:101360008150823108F05AC0E82FF0E08827E45419
:10137000F64F8F4F0C943167DC09E009CE09D40990
:10138000D8090E0AE309E909ED09F309F709FB0990
:10139000010A050A0E0A090A0F0A130A8091800041
:1013A0008F77809380000895809180008F7DF9CFA2
:1013B00080918000877FF5CF84B58F7784BD0895B5
:1013C00084B58F7DFBCF8091B0008F778093B00084
:1013D00008958091B0008F7DF9CF809190008F7734
:1013E000809390000895809190008F7DF9CF809137
:1013F0009000877FF5CF8091A0008F778093A00029
:1014000008958091A0008F7DF9CF8091A000877F03
:10141000F5CF809120018F778093200108958091EE
:1014200020018F7DF9CF80912001877FF5CFCF9369
:10143000DF93282F30E0F901ED50FD4F8491F90141
:10144000E355FD4FD491F901E959FD4FC491CC23E7
:1014500099F0811185DFEC2FF0E0EE0FFF1FE35BC9
:10146000FD4FA591B491EC91ED2381E090E009F45A
:1014700080E0DF91CF91089580E090E0FACF1F9354
:10148000CF93DF93282F30E0F901ED50FD4F849189
:10149000F901E355FD4FD491F901E959FD4FC4918C
:1014A000CC23A1F0162F81115BDFEC2FF0E0EE0FC3
:1014B000FF1FED5CFD4FA591B4918FB7F894EC91AF
:1014C000111108C0D095DE23DC938FBFDF91CF913F
:1014D0001F910895DE2BF8CFCF93DF9390E0FC01AE
:1014E000E355FD4F249189599D4FFC018491882338
:1014F000C9F090E0880F991FFC01E75EFD4FA591B0
:10150000B491FC01ED5CFD4FC591D49161110DC00A
:101510009FB7F8948C91209582238C9388812823FF
:1015200028839FBFDF91CF910895623051F49FB718
:10153000F8943C91822F809583238C93E8812E2B05
:10154000EFCF8FB7F894EC912E2B2C938FBFEACF6F
:10155000863308F0865320917B00982F9870277F60
:10156000922B90937B008770806480937C008091A5
:101570007A00806480937A0080917A0086FDFCCFA7
:10158000809178009091790008958230910538F02B
:10159000880F991F880F991F05970197F1F70895F4
:1015A0003FB7F8948091630A9091640AA091650A0C
:1015B000B091660A26B5A89B05C02F3F19F0019689
:1015C000A11DB11D3FBFBA2FA92F982F8827BC019D
:1015D000CD01620F711D811D911D42E0660F771FC5
:1015E000881F991F4A95D1F708958F929F92AF92C5
:1015F000BF92CF92DF92EF92FF926B017C01D0DF1E
:101600004B015C01C114D104E104F104B1F0C8DF65
:10161000681979098A099B09683E7340810591051B
:1016200088F321E0C21AD108E108F10888EE880E9B
:1016300083E0981EA11CB11CE5CFFF90EF90DF90D6
:10164000CF90BF90AF909F908F9008952FB7F89450
:1016500060915F0A7091600A8091610A9091620ABC
:101660002FBF0895CF92DF92EF92FF92CF93DF9337
:10167000EC01603282E07807CCF5653B710514F02F
:1016800064EB70E0898128E830E0281B310987FD90
:101690003395220F331F220F331F6901330FEE08DA
:1016A000FF088A8128E532E0281B310987FD339540
:1016B000220F331F220F331F032E000C440B550B38
:1016C0002C193D094E095F09DB0177FF02C0B0E02C
:1016D000A0E00E94C66524EB30E040E050E00E94AC
:1016E000A065C20ED31EE41EF51EB601E881E033EC
:1016F00070F5298188E890E0821B910927FD939578
:10170000880F991F880F991F681779077CF02A8125
:1017100088E592E0821B910927FD9395880F991F18
:10172000880F991F681779070CF4CB010297880F6F
:10173000991F4FB7F8942E2F30E0F901EE0FFF1FDD
:10174000E20FF31FE55FFF4E928381834FBFDF916E
:10175000CF91FF90EF90DF90CF9008951F93CF939C
:10176000DF93EC01162F8881803308F04DC061E0D3
:10177000812FB2DE8881282F30E0F901EE0FFF1FA4
:10178000E20FF31FE55FFF4E1F736081607C612BEA
:10179000608319821A822CE0622F0E941267829F56
:1017A000B001112430E020E0AB01420F531FFA01D9
:1017B000EE0FFF1FE40FF51FE55FFF4E908196FDD2
:1017C00016C02F5F3F4F2C30310571F7813009F57E
:1017D0001092800082E08093810010928500109228
:1017E0008400B19A80916F00826080936F00E881DD
:1017F0008E2F90E0FC01EE0FFF1FE80FF91FE55F51
:10180000FF4E8081806480838881DF91CF911F911A
:101810000895823061F410929000809391001092AC
:1018200095001092940088BB80937100E0CF8330C4
:1018300069F41092A00082E08093A1001092A500AC
:101840001092A40089BB80937200D1CF8111CFCFB9
:101850001092200182E080932101109225011092C4
:1018600024018ABB80937300C2CFAF92BF92CF9204
:10187000DF92EF92FF920F931F93CF93DF936B0151
:101880007A01EC01C65AD54F28813CE0389F80018F
:10189000399F100D1124A0909B10B12C27FF1FC061
:1018A000FB011182108288818F5F88838881980173
:1018B000280F311D87FD3A95F6012A153B051CF4CA
:1018C00088818C30BCF180819181049680349C4960
:1018D00008F471C0F6018081918104966EC0888100
:1018E0009801280F311D87FD3A952A153B05DCF636
:1018F0008881A801480F511D87FD5A95FA01EE0F06
:10190000FF1FE40FF51FE55FFF4E808186FFCBCF01
:101910008881F801E80FF11D87FDFA95CF01EE0FE0
:10192000FF1FE80FF91FE55FFF4E808160E08F73B6
:10193000A6DDB9CF808191812881A801420F511D78
:1019400027FD5A959A01FA01EE0FFF1FE20FF31FD0
:10195000E55FFF4E21813281820F931FF701918352
:10196000808388819801280F311D87FD3A95F90100
:10197000EE0FFF1FE20FF31FE55FFF4E808186FF32
:1019800021C08881080F111D87FD1A95F801EE0FFF
:10199000FF1FE00FF11FE55FFF4E808161E08F7355
:1019A000DF91CF911F910F91FF90EF90DF90CF903B
:1019B000BF90AF9064CD80E49CE9F7019183808370
:1019C0008FEF8883DF91CF911F910F91FF90EF9060
:1019D000DF90CF90BF90AF900895CF93CFB7F8949A
:1019E0008091590A811123C0ECE9F2E08491E2EE82
:1019F000F2E09491E82FF0E0EE0FFF1FE75EFD4F5D
:101A0000A591B491EC91E92319F461E085E337DD08
:101A100061E085E361DD8CB580618CBD8CB580644F
:101A20008CBD61E084E358DD61E083E355DD8091A6
:101A3000590A8F5F8093590ACFBFCF9108958CB513
:101A40008C608CBD8CB58F7D8CBD4FDBC6CF0F936A
:101A50001F93CF93DF938B01EA01AB0141505109F2
:101A60004534510508F0E9C02230310508F0E5C0E1
:101A700046E4429FF001439FF00D1124E80FF91F47
:101A8000E60FF71F81E080836C2F232B09F4D2C06F
:101A900061E0802F21DD209749F460E0802FEFDCAA
:101AA000CE01DF91CF911F910F910895CF3FD105C6
:101AB00011F461E0BFC0F801ED50FD4FE491E15039
:101AC000E23108F0B2C0F0E08827E659F24F8F4FBC
:101AD0000C9431677C0D830D880D920D9C0D150EB5
:101AE000A60DAE0DB60DC00DCA0DD40DE30DED0D56
:101AF000150EF70D010E0B0E84B5806884BDC7BDB1
:101B0000D0E0C0E0CDCF84B5806284BDC8BDF8CF41
:101B100080918000806880938000D0938900C0937A
:101B20008800EECF80918000806280938000D09307
:101B30008B00C0938A00E4CF8091800088608093FE
:101B40008000D0938D00C0938C00DACF8091B000DC
:101B500080688093B000C093B300D2CF8091B00072
:101B600080628093B000C093B400CACF809190008F
:101B7000806880939000D0939900C0939800C0CF64
:101B800080919000806280939000D0939B00C093DE
:101B90009A00B6CF80919000886080939000D09397
:101BA0009D00C0939C00ACCF8091A0008068809382
:101BB000A0008091A0008F7B8093A000D093A9000B
:101BC000C093A8009DCF8091A00080628093A00068
:101BD000D093AB00C093AA0093CF8091A0008860FF
:101BE0008093A000D093AD00C093AC0089CF8091CA
:101BF0002001806880932001D0932901C09328019F
:101C00007FCF80912001806280932001D0932B01AF
:101C1000C0932A0175CF80912001886080932001B4
:101C2000D0932D01C0932C016BCF60E0C038D1055B
:101C30000CF03FCF802F23DC63CFC1E0D0E030CF6A
:101C4000CF93DF93D0E0C0E0CE01A1D9882319F073
:101C5000CE010E94D0012196C63ED105A9F7DF91A1
:101C6000CF9108958FB7F89480917D0B8FBF089521
:101C70004F925F926F927F928F929F92AF92BF929C
:101C8000CF92DF92EF92FF92CF93DF93EC016C89BA
:101C90007D898E899F8988889988AA88BB88CE8CFF
:101CA000DF8C0D2C000CEE08FF08603127E2720774
:101CB0008105910529F01616170618061906ACF0CD
:101CC000A7019601C501B4010E940367DF91CF917E
:101CD000FF90EF90DF90CF90BF90AF909F908F904C
:101CE0007F906F905F904F9008950E94746420E001
:101CF00030E44CE157E40E9462662B013C01488EBF
:101D0000598E6A8E7B8EC501B4010E947464A30152
:101D100092010E94D3644B015C01C701B6010E948D
:101D200074649B01AC01C501B4010E94D3640E949C
:101D3000CA66CCCFFC0111821082138212821582F6
:101D400014821782168210861186128613861486D4
:101D5000158616861786108A118A128A138A108EA3
:101D6000118E128E138E158E148E178E168E10A253
:101D700011A212A213A214A215A216A217A210A6B3
:101D800011A612A613A614A615A681E090E097A7A7
:101D900086A780E197E2A0E0B0E0848B958BA68BCC
:101DA000B78B08958EBD00000DB407FEFDCF8EB534
:101DB0000895DF92EF92FF920F931F93CF93DF93DB
:101DC000EC01D62E122F032FF42EE52E60E088852D
:101DD00056DB8D2D8068E6DF89878E2DE3DF8F2D22
:101DE000E1DF802FDFDF812FDDDF61E0888547DBEA
:101DF0008985DF91CF911F910F91FF90EF90DF9038
:101E000008953F924F925F926F927F928F929F922E
:101E1000AF92BF92CF92DF92EF92FF920F931F93F8
:101E2000CF93DF9300D000D0CDB7DEB79E838D83F4
:101E3000362E49015A012701380101DE60E0ED81AB
:101E4000FE8180851CDB832DADDFED81FE818187E6
:101E500080E0A8DF80E0A6DF80E0A4DF80E0A2DFF2
:101E600061E0ED81FE8180850ADB60E0ED81FE812D
:101E7000808505DB832D96DFED81FE81818780E003
:101E800091DFF82E80E08EDF082F80E08BDF182FA7
:101E900080E088DF202F30E050E040E03F296901FA
:101EA0007A01FE2CED2CDC2CCC24C12AFE2CED2C4E
:101EB000DC2CCC24C82A61E0ED81FE818085DFDA4C
:101EC0008C249D24AE24BF24482059206A207B20E6
:101ED000A30192012C253D254E255F25632D8D8183
:101EE0009E8167DFED81FE81818526960FB6F8948D
:101EF000DEBF0FBECDBFDF91CF911F910F91FF903D
:101F0000EF90DF90CF90BF90AF909F908F907F9099
:101F10006F905F904F903F900895EF92FF920F93D4
:101F20001F93CF93DF93EC01E62FF0E0EE0FFF1F3E
:101F3000EA5FFC4FE080F180062E02C0EE0CFF1C31
:101F40000A94E2F70F2C000C000B110B242F30E049
:101F500050E040E004C0220F331F441F551F6A9514
:101F6000D2F760E7CE014DDF8985DF91CF911F91D8
:101F70000F91FF90EF900895EF92FF920F931F93B0
:101F8000CF93DF93EC0184E0689FF0011124EA57BE
:101F9000FD4FE080F18002811381062E04C0EE0C1B
:101FA000FF1C001F111F0A94D2F7242F30E050E0CD
:101FB00040E004C0220F331F441F551F6A95D2F71B
:101FC0006CE6CE011EDF8985DF91CF911F910F91C5
:101FD000FF90EF900895EF92FF920F931F93CF938E
:101FE000DF93EC01E12CF12C8701E394062E04C071
:101FF000EE0CFF1C001F111F0A94D2F7242F30E0B3
:1020000050E040E004C0220F331F441F551F6A9563
:10201000D2F760E0CE01F5DE8985DF91CF911F9187
:102020000F91FF90EF900895CF93DF93EC0161E063
:10203000888552DA61E0888522DA01DD60E08885F2
:102040001EDA80E0AFDE898780E0ACDE80E0AADEC9
:1020500080E0A8DE80E0A6DE61E08885DF91CF9198
:102060000ECA8F929F92AF92BF92DF92EF92FF9231
:102070000F931F93CF93DF93EC017B015A01D22E74
:10208000D3DF45E088E0E816F10439F17CF447E05D
:1020900082E0E816F10409F146E084E0E816F10474
:1020A000E1F0EA94EF2869F448E017C043E080E2E9
:1020B000E816F10491F03CF444E080E1E816F10404
:1020C00061F040E00AC042E080E4E816F10429F043
:1020D00041E080E8E816F104A1F768E1CE014CDFA9
:1020E000B50190E080E00E94726425ED34E045E3A4
:1020F00052E40E94D36420E030E04AE754E40E94B6
:10210000626628EB3EE145E05EE30E94D3644B014A
:102110005C0126E636E646EA5EE30E94626620E05F
:1021200030E040E85FE30E94FD650E94CF666031C9
:1021300080F42CEE31E548E35EE3C501B4010E9472
:10214000626620E030E040E85FE30E94FD650E94A7
:10215000CF66862F8F71262F30E050E040E0542F5D
:10216000432F322F222722273F7144275527282B20
:1021700060E1CE011EDE011181C041E060E0CE01D0
:102180002ADF43E060E0CE01F7DE44E064E0CE0108
:10219000F3DE41E067E0CE01EFDE42E06FE0CE012A
:1021A000EBDE40E06EE0CE01E7DE41E060E0CE0134
:1021B000E3DE42E068E0CE01DFDE41E06DE0CE012B
:1021C000DBDE2FEF3FEFA90163E1CE01F2DD2FEF60
:1021D0003FEF4FE050E064E1CE01EBDD20E137E27C
:1021E00040E050E065E1CE01E4DD41E063E1CE0195
:1021F000C3DE41E062E1CE01BFDE48E060E0CE0137
:10220000BBDEE12CF12C8701EA9424E630E040E0CB
:1022100050E06EE6CE01F5DDE12CF12C0FEF13E07E
:1022200020E030E048E050E06EE6CE01EADD20E15B
:1022300037E240E050E065E1CE01BBDD41E065E022
:10224000CE01C9DE41E06BE0CE01C5DE4D2D60E17F
:10225000CE0192DE41E062E0CE01BDDE64E670E0D8
:1022600080E090E0DF91CF911F910F91FF90EF9070
:10227000DF90BF90AF909F908F90B7C943E060E030
:10228000CE017ADE41E06FE0CE0176DE40E064E030
:10229000CE0172DE40E067E0CE016EDE41E06CE12F
:1022A000CE016ADE40E06EE0CE0166DE40E060E036
:1022B000CE0191DE40E063E1CE015EDE40E062E10E
:1022C000CE015ADEE12CF12C8701EA9420E030E0C7
:1022D000A9016EE6CE0195DDE12CF12C0FEF13E0A4
:1022E00020E030E0A9016EE6CE018BDD41E062E145
:1022F000CE0113DE40E060E1CE010FDE41E068E098
:10230000CE010BDE40E860E0CE0107DE41E062E096
:10231000CE0161DE41E060E0CE012EDE42E068E009
:10232000CE012ADE41E06DE0CE0126DE40E063E131
:10233000CE0122DE40E062E1CE011EDE48E060E038
:10234000CE011ADE40E065E0CE0145DE40E06BE004
:10235000CE0141DE40E060E1CE010EDE7FCFCF93C3
:10236000DF93EC01188A198A1A8A1B8A83E590E0A8
:102370000E94720860E086E182D883E090E00197D5
:10238000F1F78EA58295807F0DDD8FE090E00197BB
:10239000F1F761E086E1DF91CF9171C8CF92DF92D2
:1023A000EF92FF920F931F93CF93DF938C0183E5FE
:1023B00090E00E94720860E086E161D883E090E0DE
:1023C0000197F1F7F80186A597A524E0880F991FDA
:1023D0002A95E1F78F60E6DC8FE090E00197F1F756
:1023E000C4E0D0E0C12CD12C7601FE2CED2CDC2CED
:1023F000CC2481E0D7DCC82A2197B9F761E086E1D7
:102400003ED8F801C08AD18AE28AF38ADF91CF915F
:102410001F910F91FF90EF90DF90CF9008952F9232
:102420003F924F925F926F927F928F929F92AF9264
:10243000BF92CF92DF92EF92FF920F931F93CF93B1
:10244000DF9300D01F92CDB7DEB79C838B834B0107
:102450005A011901FA82E982FA01408051806280B2
:10246000738020E030E0A901C301B2010E94FB6645
:10247000181674F4F6012081318142815381C30121
:10248000B2010E94FD65F5016083718382839383AD
:10249000F8014080518062807380F401A68DB78D71
:1024A00020893189428953890E94C6656B017C016C
:1024B000EB81FC81E857FF4F8081882309F440C0FD
:1024C000C414D504E604F7040CF440C0F801C0823B
:1024D000D182E282F3828B819C81825A9F4F9C83BE
:1024E0008B83FC0180819181A281B381F101808382
:1024F0009183A283B383E981FA8180819181892BC1
:1025000041F0C401B5DBEB81FC8160837183828380
:1025100093830F900F900F900F90DF91CF911F91A9
:102520000F91FF90EF90DF90CF90BF90AF909F9072
:102530008F907F906F905F904F903F902F90089575
:102540004C145D046E047F040CF0C0CFF501408094
:1025500051806280738020E030E04AEF56E4C3018E
:10256000B2010E946E6487FFB1CF20E030E040E806
:102570005FE3C301B2010E94FE65F50160837183D0
:1025800082839383A3CFCF93DF93EC0183B183B195
:1025900083B183B1CE018A509E4F00DF83B183B1F6
:1025A00083B183B1CE018A5D9D4FF8DE83B183B1E3
:1025B00083B183B1CE018A5A9D4FDF91CF91EECE88
:1025C000889A0895889808958E9A08958E98089507
:1025D000EBE0F1E08081886080830895EBE0F1E03A
:1025E0008081877F80830895149A089514980895B0
:1025F00060E0FC01878D0C943F0A60E0FC01818D56
:102600000C943F0A61E0FC01878D0C943F0A61E065
:10261000FC01818D0C943F0ACF93DF93EC01FC0108
:10262000EF56FF4F1082379781E0808360E0898DFD
:102630000E943F0A8BA19CA1892B31F060E08F8D15
:10264000DF91CF910C943F0ADF91CF910895CF9302
:10265000DF93EC018FA10E94170A2AA528171906FB
:1026600021F48BA5DF91CF91089580E0FBCFCF932C
:10267000DF93EC018DA10E94170A2AA528171906DD
:1026800021F48BA5DF91CF91089580E0FBCFCF930C
:10269000DF93EC018B8DFE01E35BFF4F908161E0E6
:1026A000911101C060E00E943F0A89A1FE01E25B36
:1026B000FF4F9081992331F0C15BDF4F988161E03A
:1026C000911101C060E0DF91CF910C943F0ACF934C
:1026D000DF93EC018B8DFE01E35BFF4F908160E0A7
:1026E000911101C061E00E943F0A89A1FE01E25BF5
:1026F000FF4F9081992331F0C15BDF4F988160E0FB
:10270000911101C061E0DF91CF910C943F0ACF930A
:10271000DF93EC0161E08D8D0E943F0AFE01E25BD8
:10272000FF4F8081882321F061E08BA10E943F0A46
:10273000C157DF4F1882DF91CF910895CF93DF9378
:10274000EC01FC01E453FC4F1082EE58F10980814A
:10275000811103C0CE014096DADFFE01E15CFC4F3F
:102760008081811104C0CE018E549F4FD0DFFE01C5
:10277000E05CFC4F8081811104C0CE018C5A9E4FD9
:10278000C6DF64E670E080E090E0DF91CF910C94CA
:10279000F50ACF93DF93EC0160E08D8D0E943F0A34
:1027A000FE01E25BFF4F8081882321F060E08BA176
:1027B0000E943F0AC157DF4F81E08883DF91CF91AC
:1027C00008958F929F92AF92BF92CF92DF92EF9235
:1027D000FF920F931F93CF93FC01E65AFF4F408364
:1027E00051836283738334964083518362837383FE
:1027F00034960083118322833383DC01AA59BF4FAF
:10280000EC925297CC91CC2351F018974C914111F6
:1028100052C037FF56C01082118212821382DC012F
:10282000AB5ABF4F4D915D916D917C9113971416EA
:1028300015061606170634F514963C91332311F14C
:10284000C080D180E280F38046015701F7FE07C0C7
:102850008824992454018C189D08AE08BF08481597
:1028600059056A057B0574F4F7FE07C070956095FD
:10287000509541955F4F6F4F7F4F408351836283E7
:102880007383C32FFC01ED58FF4F10821182128217
:10289000138289579F4F31E0FC0130838C2FCF91F9
:1028A0001F910F91FF90EF90DF90CF90BF90AF906E
:1028B0009F908F90089510161106120613060CF4BF
:1028C000AACFC0E0ACCF0F931F93CF93DF93EC015F
:1028D000062F89A581110DC0CE01C9DE182FCE01AA
:1028E000B6DE0111182F812FDF91CF911F910F912B
:1028F0000895CE01ACDE182FCE01B9DEF2CFCF9312
:10290000DF93EC01FC01ED57FF4F80819181A281A3
:10291000B3810196A11DB11D80839183A283B383EE
:102920003E9681E08083AE01425A5F4FFA0180817A
:102930009181A281B3819E0128573F4FF9012081E7
:10294000222309F440C00196A11DB11DFA01808324
:102950009183A283B383FE01EC56FF4F2081318126
:10296000C901959587958C0F9D1F32970190F08135
:10297000E02D20FF08C0DC012D913C91E20FF31FF8
:102980000190F081E02D19958BA19CA1892BF9F084
:10299000FE01E856FF4F20813181C9019595879549
:1029A0008C0F9D1FCA56DF4FE881F98120FF08C0B8
:1029B000DC012D913C91E20FF31F0190F081E02D9D
:1029C000DF91CF9119940197A109B109BFCFDF9190
:1029D000CF9108958F929F92AF92BF92CF92DF9244
:1029E000EF92FF920F931F93CF93DF93EC01FC01C3
:1029F000ED58FF4F60817181828193810E947264E2
:102A00006B017C01FE01E05BFF4F6081718182817F
:102A100093810E9474649B01AC0160E074E284E7DE
:102A200099E40E9462664B015C01FE01E158FF4F90
:102A300060817181828193810E9472649B01AC01EB
:102A4000C501B4010E9462664B015C018E01095808
:102A50001F4F20E030E040E05FE30E94D364A70115
:102A600096010E94FE650E94CF66F8016083718323
:102A700082839383C558DF4FA5019401C701B60136
:102A80000E94FE650E94CF66688379838A839B8358
:102A9000DF91CF911F910F91FF90EF90DF90CF903A
:102AA000BF90AF909F908F9008950F931F93CF93F7
:102AB000DF93FC01EF56FF4F20812223B9F07E9770
:102AC0000081118122813381389640815181628158
:102AD0007381041715072607370710F1EC019CDDF9
:102AE000CE01DF91CF911F910F9174CFFC01E95777
:102AF000FF4F20812223A1F0749700811181228150
:102B000033813496408151816281738104171507A6
:102B10002607370728F0DF91CF911F910F91EFCE55
:102B2000DF91CF911F910F910895FC01E957FF4F5D
:102B30002081222361F0749780819181A281B381E9
:102B40000196A11DB11D80839183A283B383089553
:102B50000F931F93FC01EA59FF4F2081211112C0EE
:102B600038970081118122813381349640815181CF
:102B70006281738104171507260737074CF41F91EC
:102B80000F91A5CDFC01E45BFF4F20812111F7CF10
:102B90001F910F917CCDAF92BF92CF92DF92EF92B7
:102BA000FF920F931F93CF93DF93EC016B015A01B8
:102BB00079019A01AB01B7018881998152DA8C8140
:102BC000883531F49501A601B7018A819B8149DAE4
:102BD000DF91CF911F910F91FF90EF90DF90CF90F9
:102BE000BF90AF900895CF93DF93EC018C8188352F
:102BF000A9F581E291E19983888380E091E19B834B
:102C00008A8387E093E1FE01EE56FF4F9183808334
:102C100032961182108282E093E132969183808312
:102C20003296118210828DEF92E1329691838083E9
:102C300032961182108288EF92E1329691838083DE
:102C400032961182108288819981EED98C818835E3
:102C500089F48A819B81DF91CF91E6C9893529F476
:102C600086E191E199838883CCCF8A3551F68BE058
:102C700091E1F8CFDF91CF910895CF93DF93FC01DD
:102C8000DC0116968AE0ED0119928A95E9F781E058
:102C9000808B818B138A128A148A158A168A178A66
:102CA000108E8CE291E0A0E0B0E084A795A7A6A7E3
:102CB000B7A780AB91ABA2ABB3AB42E350E060E00F
:102CC00070E044AB55AB66AB77AB40AF51AF62AF92
:102CD00073AF44AF55AF66AF77AFEF01C05CDF4F66
:102CE00088839983AA83BB83249688839983AA8344
:102CF000BB83DF01A85BBF4F48E750E060E070E0B6
:102D00004D935D936D937C93139714961C9211963B
:102D10001C9211961C9211961C92119644E650E05A
:102D200060E070E04D935D936D937C9313971496E0
:102D30001C9211961D921D921D921C92139714962F
:102D40001C9211961D921D921D921C92139714961F
:102D50001D921D921D921C92139714961D921D9206
:102D60001D921C92139714961C9211961D921D92FF
:102D70001D921C92139714961D921D921D921C92E7
:102D8000139714961D921D921D921C9213971496E0
:102D90001D921D921D921C92139714961D921D92C6
:102DA0001D921C92139714961D921D921D921C92B7
:102DB000139714961D921D921D921C9213971496B0
:102DC0001D921D921D921C92139714961C9211969F
:102DD0001C9211961C9211961C9211961C9211969F
:102DE0001C9211961C9211961C9211961C9211968F
:102DF0001C9211961C92128E118E148E138E168EAA
:102E0000158E10A2178E12A211A214A213A216A23E
:102E100015A210A617A2119687E093E111969C9334
:102E20008E93129611961C921E92129682E093E156
:102E300011969C938E93129611961C921E92129646
:102E40008DEF92E111969C938E93129611961C929F
:102E50001E92129688EF92E18D939C93E056FF4F5D
:102E600011821082DF91CF91089508958FEF9FEF27
:102E7000089508950895089508950895089508956A
:102E8000089508950895089508950895089508955A
:102E900008950895089508950895089580914C0A1D
:102EA00090914D0A892BE1F585E390E00E94F55E53
:102EB000FC0181E090E0A0E0B0E080839183A283F8
:102EC000B38384839583A683B78380879187A28702
:102ED000B3871586148616861786108A118A128A79
:102EE000138A148A158A168A178A108E118E138EE9
:102EF000128E12A213A214A215A217A216A210A635
:102F000011A612A613A614A615A616A617A610AAF1
:102F100011AA12AA13AA14AAF0934D0AE0934C0A1C
:102F200080914C0A90914D0A0895CF93DF93B6DFBC
:102F3000EC0185E40E94170A21E0892B09F420E0C6
:102F40002C8FACDFEC0184E40E94170A21E0892B6E
:102F500009F420E02D8FA2DFEC0183E40E94170A20
:102F600021E0892B09F420E02E8F98DFEC0182E428
:102F70000E94170A21E0892B09F420E02F8F8EDFB1
:102F8000EC0181E40E94170A21E0892B09F420E07A
:102F900028A384DFEC0180E40E94170A21E0892B3A
:102FA00009F420E029A3DF91CF91089577DFBDCF09
:102FB00075DFFC0114AA90E080E008958091570A23
:102FC0009091580A892B41F481E090E00E94F55ECF
:102FD0009093580A8093570A8091570A9091580A03
:102FE00008950F931F93CF93DF938B01E7DFF801D1
:102FF000C2A1D3A1868D978D8530910529F14CF41E
:103000000497B1F090E080E0DF91CF911F910F9194
:1030100008958630910511F10B97A1F76BE070E0F0
:1030200085EA90E10E94AE0BBE0185EA90E109C0FD
:1030300064E070E08CE990E10E94AE0BBE018CE987
:1030400090E10E94320BDECF65E070E08FE990E105
:103050000E94AE0BBE018FE990E1F3CF66E070E015
:1030600082EA90E10E94AE0BBE0182EA90E1E9CFD4
:103070008091530A9091540A892BA9F48CE890E02E
:103080000E94F55EFC0131969C012A5B3F4F119234
:10309000DF01AB5BBF4F1C92E217F307C1F79093C0
:1030A000540A8093530A8091530A9091540A0895C8
:1030B0004F925F926F927F92AF92BF92CF92DF92C8
:1030C000EF92FF920F931F93CF93DF93EB01D0DF2B
:1030D0008C01CAA8DBA84EA45FA468A879A8AEA0FA
:1030E000BFA0EE8CFF8C4AA15BA19601B7010E94A4
:1030F000270DC301B2010E94F50A9601A501B7018F
:10310000C8010E94270D90E080E0DF91CF911F91D0
:103110000F91FF90EF90DF90CF90BF90AF907F9096
:103120006F905F904F900895CF93DF93EB01A0DFF6
:103130006AA98E8D0E946C0A90E080E0DF91CF91A9
:103140000895CF93DF93EB0193DF2AA93BA94AA10E
:103150005BA16E8D7F8D0E94270D90E080E0DF9156
:10316000CF910895FC0101900020E9F73197AF015C
:10317000481B590BBC0186E19FE00C947C088F92A0
:103180009F92AF92BF920F931F93CF93DF93CDB7D0
:10319000DEB7A1970FB6F894DEBF0FBECDBF19A260
:1031A000423008F44AE08E010F5D1F4F842E912CAF
:1031B000B12CA12CA50194010E94CC65E62FB90188
:1031C000CA01EA30ECF4E05DD801EE938D01232BC7
:1031D000242B252B79F790E080E0109711F0CD019A
:1031E000C1DFA1960FB6F894DEBF0FBECDBFDF9151
:1031F000CF911F910F91BF90AF909F908F900895A6
:10320000E95CE2CFAFCF882319F088EA99E0FACFE2
:1032100081EA99E0FCCFFC0180819181009711F057
:103220000C94915F08950C94915F0C94915F0C94B1
:10323000915F0C94915F0C94915F0C94915F0C944E
:10324000915F0C94915F0C94915F0C94915F0C943E
:10325000915F0C94915F0C94915F0C94915F0C942E
:10326000915F0C94915F0C94915F0C94915F0C941E
:10327000915F0C94915F0C94915F0C94915F0C940E
:10328000915FCF92DF92EF92FF92CF93DF9397FF00
:1032900018C06B017C018DE20E945D09EC0166277C
:1032A0007727CB016C197D098E099F094AE067DFFA
:1032B0008C0F9D1FDF91CF91FF90EF90DF90CF900B
:1032C00008954AE0DF91CF91FF90EF90DF90CF908B
:1032D00056CFBC01990F880B990BD3CFCF93DF93B7
:1032E000EC0184E694E08EDF6AA17BA18CA19DA114
:1032F000C8DF88E595E0DF91CF9184CFDF92EF9230
:10330000FF920F931F93CF93DF93182F092F7B0109
:10331000D42E6115710571F50E94170AD1E0C0E045
:10332000019709F0D0E082E0E816F10470F5DD20A5
:1033300061F187E694E066DF80E498E063DF87E090
:1033400098E060DF812F902FC4DF80E498E05ADF9F
:103350008AE098E057DF8D2F9C2FBBDF9FDDBEDF1B
:1033600090E080E0DF91CF911F910F91FF90EF905F
:10337000DF900895D0E0C0E061307105A1F6812FA3
:103380000E94A80AD82FC92FCECF81E090E0EACFC3
:103390000F931F93CF93DF93FC012081318121157F
:1033A0003105C9F1EC01822F0E94170A21E0892B17
:1033B00009F420E02B876A85261709F11E821F82F7
:1033C000188619860E811F81288539858A819B81FF
:1033D000AC81BD81081719072A073B07E4F081E09B
:1033E000682788810E943F0A43DE41E070E060E088
:1033F00088819981DF91CF911F910F917FCF8E812D
:103400009F81A885B9850196A11DB11D8E839F83DB
:10341000A887B987D7CFDF91CF911F910F910895DA
:10342000CF93DF93EB0124DE6AA97BA941E08E8D67
:103430009F8D64DF90E080E0DF91CF9108950F933E
:103440001F93CF93DF938C01EB0186E494E0DADEE7
:1034500080E498E0D7DEF80184810E945D09CE0106
:1034600038DF1CDDDF91CF911F910F9137CFCF92C5
:10347000DF92EF92FF92CF93DF93EB01CB010E949B
:10348000C707882351F1FE01EE0FFF1FEE0FFF1F4C
:10349000E258F44FC080D180E280F3808BE694E064
:1034A000B1DE80E498E0AEDE87E098E0ABDECE01EE
:1034B00010DF80E498E0A6DE8AE098E0A3DEC70192
:1034C000B601DFDEEBDC0ADF90E080E0DF91CF9138
:1034D000FF90EF90DF90CF9008958FE694E092DE1A
:1034E000F3CF0F931F93CF93DF938C01D0E0C0E015
:1034F000CE010E94C707882319F0BE01C801B7DFBB
:103500002196C63ED105A1F7DF91CF911F910F9172
:10351000089581E994E076DE82E492E073DE8AE049
:1035200092E070DE86E994E06DDEB8DCD7DE90E0F4
:1035300080E00895CF93DF93EC0181EA94E062DEAE
:1035400085EA94E05FDE8C8D5EDE89EA94E05ADEE7
:103550008D8D59DE8DEA94E055DE8E8D54DE81EB43
:1035600094E050DE8F8D4FDE85EB94E04BDE88A13A
:103570004ADE89EB94E046DE89A145DECE01DF918B
:10358000CF91ACCE8BDCD6CF8DEB94E03BDE86DCEE
:10359000CCDC84DCCFDF6CDD41E070E060E088E013
:1035A00090E0ACDE65DD41E070E060E089E090E055
:1035B000A5DE5EDD41E070E060E08AE090E09EDE46
:1035C00057DD41E070E060E08DE090E097DE90E054
:1035D00080E008952F923F924F925F926F927F9278
:1035E0008F929F92AF92BF92CF92DF92EF92FF9213
:1035F0000F931F93CF93DF93CDB7DEB762970FB6CC
:10360000F894DEBF0FBECDBF1C017C012EE5E20E9B
:10361000F11CD7014D915D916D917C91FC01EE59AA
:10362000FF4FFE87ED8780819181A281B3814101A7
:10363000F6E68F0E911CF4012081B2965F018101A4
:1036400007571F4F222309F440C06101FCE4CF0E4D
:10365000D11CF6012081F501208321E0F8012083AF
:10366000411551056105710591F42081F101E15881
:10367000FF4F6F01F101222309F44FC040AC51AC60
:1036800062AC73ACF6014082518262827382910116
:10369000265A3F4F3A8B298BF90140805180628036
:1036A0007380235D3F4F5901481659066A067B0611
:1036B000CCF5481759076A077B07F4F1D4018C91C0
:1036C00081113AC0D5011C9240C121E04817590729
:1036D0006A077B070CF020E0F50120835A016B019B
:1036E00077FF07C0AA24BB246501A41AB50AC60A3D
:1036F000D70A2C013D01B7FF07C0442455243201ED
:10370000481A590A6A0A7B0A21E0A414B504C604BF
:10371000D7040CF0A3CF20E0A1CF44A855A866A8F9
:1037200077A8B0CF84159505A605B7053CF6841794
:103730009507A607B70714F6F5018081882311F2D3
:10374000D4018C9181110DC0F40180818111BACF17
:10375000D8016C9181E06827C101B5D88111B2CF41
:1037600005C060E0C101AFD88111EECFD1019C96B8
:103770002D913D914D915C919F9729833A834B8385
:103780005C83F8018081811106C1F101E05CFF4F8B
:1037900080819181A281B3818D839E83AF83B8871D
:1037A000D101D4962D913D914D915C91D797298768
:1037B0003A874B875C87ED85FE8580819181A28168
:1037C000B381F701C080D180E280F380E989FA8972
:1037D0004081518162817381F101E557FF4F108271
:1037E000319610823101FDE86F0E711CF3011082D9
:1037F000910122573F4FF9011082329610824C01FD
:103800005D01841A950AA60AB70AB7FE08C0B094EB
:10381000A09490948094811C911CA11CB11C481709
:1038200059076A077B070CF0CAC0C41AD50AE60A12
:10383000F70AD501C401B595A795979587958D870A
:103840009E87AF87B88B810100571F4F8C149D0452
:10385000AE04BF0408F0B8C0D101DC960D90BC9155
:10386000A02DBA8BA98B81E0F9018083D8018C93BC
:10387000F1018489882309F45CC00E94260BD101E0
:1038800052960D911C91012E000C220B330B601BE4
:10389000710B820B930B693E73408105910508F40F
:1038A00048C00E94260BF101738B628B84EC94E07C
:1038B000A9DC88EC94E0A6DC60E070E0CB01E1DC00
:1038C0008EEC94E09FDCC701B601DBDC84ED94E074
:1038D00099DCC501B401D5DC8AED94E093DC4AE0C3
:1038E0006D857E858F8598894ADC81EE94E08ADC3F
:1038F0006D817E818F819885C4DC87EE94E082DCC7
:1039000069857A858B859C85BCDC8DEE94E07ADCBC
:1039100069817A818B819C81B4DC83EF94E072DCD5
:1039200080E498E06FDC89899A89D3DC88E595E0AA
:1039300069DCF101E158FF4F29893A89C901B0E0FA
:10394000A0E080839183A283B38360E0C1010E94E1
:103950006314882339F0F101E25AFF4F108211827B
:103960001282138262960FB6F894DEBF0FBECDBFEF
:10397000DF91CF911F910F91FF90EF90DF90CF904B
:10398000BF90AF909F908F907F906F905F904F907F
:103990003F902F900895F10180A991A9A2A9B3A900
:1039A00029813A814B815C8182179307A407B5076F
:1039B0000CF0EBCE89839A83AB83BC83E6CEC81A26
:1039C000D90AEA0AFB0A35CF2D853E854F855889ED
:1039D0002C153D054E055F0508F450C08D819E8174
:1039E000AF81B8858C159D05AE05BF0544F4A9814E
:1039F000BA811196BA8BA98B81E0F30136CFC7014A
:103A0000B6010E9474642B013C016D817E818F811F
:103A100098850E9474649B01AC01C301B2010E94AD
:103A200062662B013C0169817A818B819C812985A9
:103A30003A854B855C85621B730B840B950B0E944A
:103A400074649B01AC01C301B2010E94D3642B01D9
:103A50003C0169857A858B859C850E9474649B01F5
:103A6000AC01C301B2010E94FE650E94CA667A8B56
:103A7000698B81E0F101E557FF4FF7CED501C40115
:103A80002D813E814F815885821B930BA40BB50B72
:103A9000C816D906EA06FB065CF449815A814E5FD6
:103AA0005F4F5A8B498B81E0F101E357FF4FDDCE29
:103AB000C501B4016C197D098E099F090E947464C7
:103AC0002B013C016D817E818F8198850E947464F9
:103AD0009B01AC01C301B2010E9462662B013C0153
:103AE00069817A818B819C8129853A854B855C85AA
:103AF000621B730B840B950B0E9474649B01AC01D9
:103B0000C301B2010E94D3642B013C0169857A850F
:103B10008B859C850E9474649B01AC01C301B2013A
:103B20000E94FE650E94CA667A8B698B81E0F10172
:103B3000E457FF4F9ACE4F925F926F927F928F928F
:103B40009F92AF92BF92CF92DF92EF92FF920F932C
:103B50001F93CF936B017C01742EAC019B010E94DB
:103B6000FF66882391F089EF94E0CF911F910F9128
:103B7000FF90EF90DF90CF90BF90AF909F908F908D
:103B80007F906F905F904F90EDCA46015701E89487
:103B9000B7F82FEF3FEF4FE75FE7C501B4010E9491
:103BA000FF6681110DC02FEF3FEF4FE75FE7C501C3
:103BB000B4010E946E6418161CF48DEF94E0D5CF0A
:103BC0002FEF3FEF4FE75FE4C701B6010E94FB66AE
:103BD00018161CF481E095E0C8CF2FEF3FEF4FE7B8
:103BE0005FECC701B6010E946E6487FDF3CF20E051
:103BF00030E0A901C701B6010E946E6410E000E048
:103C000087FF08C08DE20E945D098C01F7FAF094ED
:103C1000F7F8F094C0E060E070E080E09FE37C168D
:103C200041F020E030E040E251E40E946266CF5F64
:103C3000F6CFA70196010E94FE652B013C010E9470
:103C4000CF664B015C014AE09ADA7C01E00EF11E7E
:103C5000CC23A9F1C501B4010E9472649B01AC019F
:103C6000C301B2010E94FD654B015C018EE20E941E
:103C70005D09E80EF91EC15010F120E030E040E28D
:103C800051E4C501B4010E94D3642B013C010E94A0
:103C9000CF664B01B12CA12C4AE0C501B4016FDA0B
:103CA000E80EF91EC501B4010E9472649B01AC01CB
:103CB000C301B2010E94FD654B015C01DCCFC7016D
:103CC000CF911F910F91FF90EF90DF90CF90BF9019
:103CD000AF909F908F907F906F905F904F900895DE
:103CE0008F929F92AF92BF92CF92DF92EF92FF920C
:103CF0000F931F93CF93DF93EC0182E592E082DA7A
:103D00008AE195E07FDA6E018AE0C81A8EEFD80A60
:103D1000C6010E94380E0E9474644B015C01FE01D2
:103D2000E15AFC4F60817181828193810E947464A9
:103D30009B01AC01C501B4010E94626642E0FBDE5A
:103D40008AE295E05FDA7E01EAEDEE1AEDEFFE0A17
:103D5000C7010E94380E0E9474644B015C01FE0191
:103D6000ED59FC4F60817181828193810E9474645E
:103D70009B01AC01C501B4010E94626642E0DBDE3A
:103D80008AE395E03FDA8E010A5A1D4FC8010E946E
:103D9000380E0E9474644B015C01C959DC4F688184
:103DA00079818A819B810E9474649B01AC01C50169
:103DB000B4010E94626642E0BEDE70D88FDA8EE403
:103DC00092E020DA8AE195E01DDAF601A68DB78D42
:103DD00020893189428953890E94C66552DA8AE274
:103DE00095E010DAF701A68DB78D208931894289D7
:103DF00053890E94C66545DA8AE395E003DAF80143
:103E0000A68DB78D20893189428953890E94C66564
:103E100038DA44D8DF91CF911F910F91FF90EF9046
:103E2000DF90CF90BF90AF909F908F9057CACF9266
:103E3000DF92EF92FF92CF93DF93EC01888199811B
:103E4000AA81BB81181619061A061B0644F081E0E8
:103E500090E0A0E0B0E088839983AA83BB838C8143
:103E60009D81AE81BF81181619061A061B0644F003
:103E700081E090E0A0E0B0E08C839D83AE83BF83BF
:103E800088859985AA85BB85181619061A061B060A
:103E900044F081E090E0A0E0B0E088879987AA87AD
:103EA000BB8785E095E0AED98AE195E0ABD96E8518
:103EB0007F85888999890E9474646B017C0168817F
:103EC00079818A819B810E9474649B01AC01C70146
:103ED000B6010E94626642E02EDE8AE295E092D947
:103EE0006A897B898C899D890E9474646B017C013D
:103EF0006C817D818E819F810E9474649B01AC01E5
:103F0000C701B6010E94626642E015DE8AE395E0D1
:103F100079D96E897F89888D998D0E9474646B012F
:103F20007C01688579858A859B850E9474649B01E4
:103F3000AC01C701B6010E94626642E0FCDDCE0121
:103F4000DF91CF91FF90EF90DF90CF90C7C90E9493
:103F50004E176DDF90E080E00895CF92DF92EF92F0
:103F6000FF920F931F93CF93DF938C016A017B0124
:103F7000EC01CC0FDD1F642FCE010E9492659927C2
:103F8000F7FC9A958F2D7E2D6D2DCE0101960E9406
:103F900092650D5811090330110588F4B70199276E
:103FA00077FD9095892FCE0144960E9492656F2DE2
:103FB000772788279927CE0145960E94926590E041
:103FC00080E0DF91CF911F910F91FF90EF90DF90F4
:103FD000CF9008954F925F926F927F928F929F92AF
:103FE000AF92BF92CF92DF92EF92FF920F931F9307
:103FF000CF93DF938C01EC01CC0FDD1FCE010E942B
:104000008A65882E912CB12CA12CCE0101960E949C
:104010008A65C82ED12CF12CE12C0D5811090330E2
:10402000110508F05AC0CE0144960E948A65482EB8
:10403000512C712C612CCE0145960E948A65082F67
:1040400010E030E020E08FEF481651046104710465
:1040500029F50F3F11052105310501F58FEF881670
:104060009104A104B104C9F58FEFC816D104E1048D
:10407000F10499F56FEF7FEFCB01DF91CF911F91A5
:104080000F91FF90EF90DF90CF90BF90AF909F90F7
:104090008F907F906F905F904F900895003811053A
:1040A000210531053CF7FE2CED2CDC2CCC24C7017E
:1040B000B601680D791D8A1D9B1D320155244424CB
:1040C000640D751D861D971D302F2227112700278F
:1040D000600F711F821F931FD0CF00E010E0980186
:1040E000412C512C320180E8C816D104E104F104BE
:1040F000D4F2C0CFEF92FF920F931F93CF93DF9331
:104100008091510A9091520A892B51F586E090E0F6
:104110000E94F55E7C0190E080E05CDF16161706D9
:1041200054F1C7010E94200ED0E0C0E0CE010E94F1
:10413000C707882369F0FE01EE0FFF1FEE0FFF1F78
:10414000E258F44F4081518162817381CE0105DFD5
:104150002196C639D10551F7F092520AE092510AE0
:104160008091510A9091520ADF91CF911F910F9146
:10417000FF90EF90089583E090E02CDF61307105AF
:104180008105910531F50EE71BE0D0E0C0E0CE01DE
:104190000E94C7078823B1F0CE011CDFF8016083BD
:1041A0007183828393836F3F7F4F8F4F9F4F51F473
:1041B000CE010E94D001F80140815181628173815A
:1041C000CE01CBDE21960C5F1F4FC63ED105F9F61E
:1041D000C3CFC7010E94200EBFCFCF92DF92EF92D4
:1041E000FF920F931F93CF93DF937C016B018A01A2
:1041F000E90180DFF601EE0FFF1FEE0FFF1FE2580F
:10420000F44F80819181F7019183808373DF000FE8
:10421000111F000F111FF801E258F44F81E0408197
:10422000518162817381413051056105710509F049
:1042300080E0F70182875EDFCC0FDD1FCC0FDD1F32
:10424000C258D44F88819981AA81BB81F7018283AA
:104250009383A483B5831682178210861186DF911B
:10426000CF911F910F91FF90EF90DF90CF90089525
:10427000CF93DF93EC012AEC30E04BEC50E069EC9B
:1042800070E0ABDF2EEC30E04FEC50E06DEC70E016
:10429000CE010C96A2DF24ED30E045ED50E063ED59
:1042A00070E0CE01489699DF28ED30E049ED50E00E
:1042B00067ED70E0CE01849690DF2EED30E04FED9B
:1042C00050E06DED70E0CE01C096DF91CF9185CFCB
:1042D000CF93DF938091550A9091560A892BA1F4D0
:1042E0008CE390E00E94F55EEC01198218821D8635
:1042F0001C86198E188E1DA21CA219AA18AAB8DF36
:10430000D093560AC093550A8091550A9091560A47
:10431000DF91CF9108952F923F924F925F926F92CB
:104320007F928F929F92AF92BF92CF92DF92EF9245
:10433000FF920F931F93CF93DF93EC01DBDEFE011F
:10434000EB56FC4F80913A0D90913B0D9183808309
:10435000D1DEFE01E956FC4F80913E0D90913F0D5C
:1043600091838083C7DEFE01E756FC4F8091420DAA
:104370009091430D91838083BDDE8E0105561C4FC5
:104380006091620D7091630D8091640D9091650D47
:104390000E947464F8016083718382839383AADE30
:1043A0001E01F1E62F1AFCEF3F0A6091660D709135
:1043B000670D8091680D9091690D0E947464F10100
:1043C000608371838283938395DE20E030E048EC44
:1043D00052E4F80160817181828193810E9462665A
:1043E0002B013C0120E030E048EC52E4F101608117
:1043F0007181828193810E9462664B015C016091B0
:104400006A0D70916B0D80916C0D90916D0D0E94F5
:10441000746420E030E048EC52E40E9462666B0174
:104420007C012AE037ED43E25CE3C301B2010E9464
:10443000FB6618160CF02BC120E030E046EC52E48D
:10444000C301B2010E946E6487FD06C0412C512C4D
:1044500056EC652E52E4752EF8014082518262823C
:1044600073822AE037ED43E25CE3C501B4010E94A8
:10447000FB6618160CF014C120E030E046EC52E464
:10448000C501B4010E946E6487FD06C0812C912C89
:1044900036ECA32E32E4B32EF10180829182A28207
:1044A000B3822AE037ED43E25CE3C701B6010E9424
:1044B000FB6618160CF0FDC020E030E046EC52E43C
:1044C000C701B6010E946E6487FD06C0C12CD12CC5
:1044D00096ECE92E92E4F92EFE01ED55FC4FC082D8
:1044E000D182E282F38206DE8091220D9091230D2B
:1044F000FE01E655FC4F91838083FCDD8091260D03
:104500009091270DFE01E455FC4F91838083F2DDED
:1045100080912A0D90912B0DFE01E255FC4F918365
:104520008083E8DD80914A0D90914B0DA0914C0D58
:10453000B0914D0DFE01E055FC4F80839183A28325
:10454000B383D8DD80914E0D90914F0DA091500D09
:10455000B091510DFE01EC54FC4F80839183A283F6
:10456000B383C8DD8091520D9091530DA091540DED
:10457000B091550DFE01E854FC4F80839183A283D6
:10458000B383B8DD8091720D9091730DFE01E454F8
:10459000FC4F91838083AEDD8091760D9091770DF5
:1045A000FE01E254FC4F91838083A4DD80917A0D5B
:1045B00090917B0DFE01E054FC4F918380839ADD46
:1045C00080918A0D90918B0DFE01EE53FC4F9183EB
:1045D000808390DD80918E0D90918F0DFE01EC53C4
:1045E000FC4F9183808386DD8091920D9091930D95
:1045F000FE01EA53FC4F918380837CDD8091120D94
:104600009091130DA091140DB091150DFE01E95577
:10461000FC4F0197A105B10509F054C081E08083EA
:1046200069DD8091160D9091170DA091180DB09134
:10463000190DFE01E855FC4F0197A105B10509F0E0
:1046400043C081E0808356DD80911A0D90911B0D4F
:10465000A0911C0DB0911D0DC755DC4F0197A10510
:10466000B105A1F581E08883DF91CF911F910F9172
:10467000FF90EF90DF90CF90BF90AF909F908F9082
:104680007F906F905F904F903F902F9008954AE0F9
:10469000442E47ED542E43E2642E4CE3742EDCCEC0
:1046A0002AE0822E27ED922E23E2A22E2CE3B22EB8
:1046B000F3CE8AE0C82E87EDD82E83E2E82E8CE375
:1046C000F82E0ACF1082ACCF1082BDCF1882CCCF8B
:1046D0002F923F924F925F926F927F928F929F9212
:1046E000AF92BF92CF92DF92EF92FF920F931F9300
:1046F000CF93DF93CDB7DEB76F970FB6F894DEBFD9
:104700000FBECDBF9B8F8A8FF5DCEA8DFB8DEB55FD
:10471000FD4F81E040914A0C50914B0C60914C0C44
:1047200070914D0C452B462B472B09F480E080837C
:10473000E1DCEA8DFB8DEA55FD4F81E040914E0CA6
:1047400050914F0C6091500C7091510C452B462BA1
:10475000472B09F480E08083CDDCEA8DFB8DE955A1
:10476000FD4F81E04091520C5091530C6091540CDC
:104770007091550C452B462B472B09F480E0808324
:10478000B9DC80919A0C90919B0CA0919C0CB091FB
:104790009D0CEA8DFB8DE855FD4F80839183A283AC
:1047A000B383A8DC80919E0C90919F0CA091A00CEB
:1047B000B091A10CEA8DFB8DE455FD4F8083918370
:1047C000A283B38397DC8091A20C9091A30CA0915B
:1047D000A40CB091A50CEA8DFB8DE055FD4F8083B4
:1047E0009183A283B38386DC80919A0C90919B0C79
:1047F000A0919C0CB0919D0CEA8DFB8DEC54FD4F6B
:1048000080839183A283B38375DC80919E0C909109
:104810009F0CA091A00CB091A10CEA8DFB8DE854E7
:10482000FD4F80839183A283B38364DC8091A60CC7
:104830009091A70CA091A80CB091A90CEA8DFB8DCA
:10484000E454FD4F80839183A283B38353DC809132
:10485000720C9091730CA091740CB091750CEA8D50
:10486000FB8DE453FD4F80839183A283B38342DCAD
:104870008091760C9091770CA091780CB091790C86
:10488000EA8DFB8DE053FD4F80839183A283B38338
:1048900031DC80917A0C90917B0CA0917C0CB091D2
:1048A0007D0CEA8DFB8DEC52FD4F80839183A283BA
:1048B000B38320DC8091720C9091730CA091740CE6
:1048C000B091750CEA8DFB8DE852FD4F808391838A
:1048D000A283B3830FDC8091760C9091770CA0912A
:1048E000780CB091790CEA8DFB8DE452FD4F8083FA
:1048F0009183A283B383FEDB80917E0C90917F0C29
:10490000A091800CB091810CEA8DFB8DE052FD4F9F
:1049100080839183A283B383EDDB8091820C90919D
:10492000830CA091840CB091850CEA8DFB8DEC5129
:10493000FD4F80839183A283B383DCDB8091860C5F
:104940009091870CA091880CB091890CEA8DFB8D19
:10495000E851FD4F80839183A283B383CBDB8091A9
:104960008A0C90918B0CA0918C0CB0918D0CEA8DDF
:10497000FB8DE451FD4F80839183A283B383BADB27
:104980008091220C9091230CA091240CB091250CC5
:10499000EA8DFB8DE051FD4F80839183A283B38329
:1049A000A9DB8091260C9091270CA091280CB09146
:1049B000290CEA8DFB8DEC50FD4F80839183A283FF
:1049C000B38398DB80912A0C90912B0CA0912C0C36
:1049D000B0912D0CEA8DFB8DE850FD4F80839183C3
:1049E000A283B38387DB8091220C9091230CA0914A
:1049F000240CB091250CEA8DFB8DE450FD4F808393
:104A00009183A283B38376DB8091260C9091270C4F
:104A1000A091280CB091290CEA8DFB8DFD5F80835D
:104A20009183A283B38366DB80912E0C90912F0C2F
:104A3000A091300CB091310CEA8DFB8DEC5FFC4FF6
:104A400080839183A283B38355DBEA8DFB8DE85F7E
:104A5000FC4F81E02091FA0B3091FB0B21303105A6
:104A600009F080E0808346DBEA8DFB8DE75FFC4F39
:104A700081E02091FE0B3091FF0B2130310509F0D0
:104A800080E0808337DBEA8DFB8DE65FFC4F81E0C1
:104A90002091020C3091030C2130310509F080E0A7
:104AA000808328DBEA8DFB8DE65BFC4F81E0409143
:104AB000D20B5091D30B6091D40B7091D50B452B39
:104AC000462B472B09F480E0808314DBEA8DFB8DB5
:104AD000E55BFC4F81E04091D60B5091D70B609184
:104AE000D80B7091D90B452B462B472B09F480E04E
:104AF000808300DBEA8DFB8DE45BFC4F81E040911D
:104B0000DA0B5091DB0B6091DC0B7091DD0B452BC8
:104B1000462B472B09F480E08083ECDAEA8DFB8D8D
:104B2000E35BFC4F81E04091AA0C5091AB0C60918B
:104B3000AC0C7091AD0C452B462B472B09F480E053
:104B40008083D8DAEA8DFB8DE25BFC4F81E04091F7
:104B5000AE0C5091AF0C6091B00C7091B10C452B24
:104B6000462B472B09F480E08083C4DAEA8DFB8D65
:104B7000E15BFC4F81E04091B20C5091B30C60912D
:104B8000B40C7091B50C452B462B472B09F480E0F3
:104B90008083B0DAEA8DFB8DE05BFC4F81E02091F1
:104BA000E20B3091E30B2130310509F080E0808386
:104BB000A1DAEA8DFB8DEF5AFC4F81E02091E60BE4
:104BC0003091E70B2130310509F080E0808392DAE3
:104BD000EA8DFB8DEE5AFC4F81E02091EA0B30917B
:104BE000EB0B2130310509F080E0808383DA80917E
:104BF000AA0B9091AB0BA091AC0BB091AD0BEA8DD1
:104C0000FB8DED5AFC4F80839183A283B38372DACC
:104C10008091AE0B9091AF0BA091B00BB091B10B06
:104C2000EA8DFB8DE95AFC4F80839183A283B38385
:104C300061DA8091B20B9091B30BA091B40BB0915B
:104C4000B50BEA8DFB8DE55AFC4F80839183A283DF
:104C5000B38350DAEA8DFB8DE25CFC4F81E040913A
:104C6000BA0B5091BB0B6091BC0B7091BD0B452BE7
:104C7000462B472B09F480E080833CDAEA8DFB8DDC
:104C8000E15CFC4F81E04091BE0B5091BF0B609105
:104C9000C00B7091C10B452B462B472B09F480E0CC
:104CA000808328DAEA8DFB8DE05CFC4F81E0409147
:104CB000C20B5091C30B6091C40B7091C50B452B77
:104CC000462B472B09F480E0808314DA8091B20DE3
:104CD0009091B30DA091B40DB091B50DEA8DFB8DFF
:104CE000E55FFC4F80839183A283B38303DA8091D5
:104CF000B60D9091B70DA091B80DB091B90DEA8D98
:104D0000FB8DE15FFC4F80839183A283B383F2D953
:104D10008091BA0D9091BB0DA091BC0DB091BD0DCD
:104D2000EA8DFB8DED5EFC4F80839183A283B3837C
:104D3000E1D9EA8DFB8DEF5BFC4F81E02091120CF5
:104D40003091130C2130310509F080E08083EA8D29
:104D5000FB8DEE5BFC4F1082EA8DFB8DED5BFC4F13
:104D60001082C8D9EA8DFB8DEC5BFC4F81E020916D
:104D70000E0C30910F0C2130310509F080E080835A
:104D8000EA8DFB8DEB5BFC4F1082EA8DFB8DEA5BBD
:104D9000FC4F1082AFD9EA8DFB8DE95BFC4F81E0BF
:104DA0002091320C3091330C2130310509F080E034
:104DB0008083A0D9EA8DFB8DE85BFC4F81E02091D8
:104DC000360C3091370C2130310509F080E08083BA
:104DD00091D9EA8DFB8DE75BFC4F81E020913A0C85
:104DE00030913B0C2130310509F080E0808382D97D
:104DF000EA8DFB8DE95EFC4F81E02091C20D309180
:104E0000C30D2130310509F080E0808373D9EA8D2C
:104E1000FB8DE85EFC4F81E02091C60D3091C70DFF
:104E20002130310509F080E0808364D9EA8DFB8D63
:104E3000E75EFC4F81E02091CA0D3091CB0D21300F
:104E4000310509F080E0808355D98091020E909160
:104E5000030EA091040EB091050EEA8DFB8DE65E67
:104E6000FC4F80839183A283B38344D98091060E43
:104E70009091070EA091080EB091090EEA8DFB8D5E
:104E8000E25EFC4F80839183A283B38333D9809108
:104E90000A0E90910B0EA0910C0EB0910D0EEA8DA2
:104EA000FB8DEE5DFC4F80839183A283B38322D977
:104EB00080913A0E90913B0EA0913C0EB0913D0E28
:104EC000EA8DFB8DEA5DFC4F80839183A283B383DF
:104ED00011D980913E0E90913F0EA091400EB0915D
:104EE000410EEA8DFB8DE65DFC4F80839183A283AA
:104EF000B38300D98091420E9091430EA091440E4D
:104F0000B091450EEA8DFB8DE25DFC4F808391836D
:104F1000A283B383EFD88091320E9091330EA0918B
:104F2000340EB091350EEA8DFB8DEE5CFC4F808324
:104F30009183A283B383DED88091320E9091330E99
:104F4000A091340EB091350EEA8DFB8DEA5CFC4FDA
:104F500080839183A283B383CDD88091320E9091C8
:104F6000330EA091340EB091350EEA8DFB8DE65CC8
:104F7000FC4F80839183A283B383BCD80A8D1B8DA1
:104F8000015A1C4F80915A0C90915B0CA0915C0CC3
:104F9000B0915D0CF80180839183A283B383AAD87A
:104FA000EA8CFB8CFDE9EF1AFCEFFF0A80915E0CA6
:104FB00090915F0CA091600CB091610CF70180831F
:104FC0009183A283B38396D88091620C9091630CF5
:104FD000A091640CB091650CCA8CDB8CF9E9CF1AF6
:104FE000FCEFDF0AF60180839183A283B383F8018B
:104FF00040815181628173811416150616061706C9
:1050000044F041E050E060E070E04083518362830F
:105010007383F701408151816281738114161506F3
:105020001606170644F041E050E060E070E040836F
:10503000518362837383181619061A061B064CF0F7
:1050400081E090E0A0E0B0E0F60180839183A2834C
:10505000B3830E944E17FC01D6018D909D90AD90B8
:10506000BC90D7014D915D916D917C91D8010D91CE
:105070001D912D913C9100831183228333834483BE
:1050800055836683778380869186A286B386EA8D70
:10509000FB8D7096FA83E983EA8DFB8DE95EFC4F08
:1050A00080808B82EA8DFB8DE55FFC4F40805180D4
:1050B00062807380EA8DFB8DE95BFC4F90809A865D
:1050C000EA8DFB8DE05BFC4FA080AC82EA8DFB8D0E
:1050D000EF5BFC4FB080BD82EA8DFB8DEC5BFC4F3B
:1050E00020812E83EA8DFB8DE35BFC4F80818E87D0
:1050F000EA8DFB8DE65BFC4F90819A8BEA8DFB8DF0
:10510000E85FFC4F2080EA8DFB8DEB55FD4F308032
:10511000EA8DFB8DED5AFC4F80809180A280B38098
:10512000EA8DFB8DE051FD4F80819181A281B38199
:10513000EA8DFB8DEC51FD4FC080D180E280F38081
:10514000EA8DFB8DE453FD4F408151816281738173
:10515000EA8DFB8DE855FD4F00811181228133815D
:10516000EA8DFB8D04AF15AF26AF37AFEC5BFF4F79
:105170004083518362837383EA8DFB8DE05BFF4F35
:1051800080839183A283B383EA8DFB8DE05CFF4F24
:105190000083118322833383EA8DFB8DE85BFF4F0D
:1051A0004083518362837383EA8DFB8DEC5AFF4FFA
:1051B00080839183A283B383EA8DFB8DE45BFF4FF1
:1051C000C082D182E282F382EA8DFB8DE85AFF4FE2
:1051D00080829182A282B382EA8DFB8DE45AFF4FD6
:1051E0003082EA8DFB8DE35AFF4F2082EA89AA8D37
:1051F000BB8DD996EC93D997FE85DA96FC93DA9716
:105200008C80DB968C9280E490E0A0E0B0E0EA8DA8
:10521000FB8DE05AFF4F80839183A283B383EA8D95
:10522000FB8DE25AFF4F9E809082EA8DFB8DE15A02
:10523000FF4FAD80A082EA8DFB8DEC59FF4FBA8401
:10524000B082EA8DFB8DEB59FF4F40825182628222
:105250007382EA8DFB8DE759FF4F2B812083AA8D46
:10526000BB8D99968D919C919A978633910509F003
:10527000E7C280EE92E1FD01EE55FF4F91838083FE
:1052800032961182108282EE92E13696918380836B
:10529000329611821082EA8DFB8D87A590A94A97DC
:1052A000D1F484EF92E1EA55FF4F91838083EA8D38
:1052B000FB8DE855FF4F1182108286EF92E1EA8D57
:1052C000FB8DE255FF4F91838083EA8DFB8DE05586
:1052D000FF4F118210820A8D1B8D0E541F4FEA8DD5
:1052E000FB8DE85EFC4F80808B82EA8DFB8DE15F59
:1052F000FC4F80819181A281B3818A879B87AC8793
:10530000BD87EA8DFB8DE85BFC4F90819C83EA8D25
:10531000FB8DEF5AFC4FA081AD83EA8DFB8DEE5BD8
:10532000FC4FB081BE83EA8DFB8DEB5BFC4F808030
:105330008E86EA8DFB8DE25BFC4F2080EA8DFB8D33
:10534000E55BFC4F3080EA8DFB8DE75FFC4F3081E1
:10535000EA8DFB8DEA55FD4F2081EA8DFB8DE95AE0
:10536000FC4F4081518162817381EA8DFB8DEC504D
:10537000FD4F80819181A281B381EA8DFB8DE8513F
:10538000FD4FC080D180E280F380EA8DFB8DE05339
:10539000FD4F80809180A280B380EA8DFB8DE45523
:1053A000FD4F4080518062807380F80144A655A66D
:1053B00066A677A684AA95AAA6AAB7AAEA8DFB8DA7
:1053C000EE50FF4F80839183A283B383F80140AAFC
:1053D00051AA62AA73AA80AE91AEA2AEB3AEEA8D14
:1053E000FB8DEA50FF4F80839183A283B383D80162
:1053F000DC96CD92DD92ED92FC92DF97EA8DFB8DEB
:10540000E650FF4F4083518362837383EA8DFB8DA7
:10541000E250FF4F2083EA8DFB8DE150FF4F308338
:1054200099963C9299979A962C929A97ED819B9691
:10543000EC9380E490E0A0E0B0E0EA8DFB8DEE5FBD
:10544000FE4F80839183A283B383EA8DFB8DF39516
:105450008E848082EA8DFB8DEF5FFE4F9E8090826E
:10546000EA8DFB8DEA5FFE4FAC80A082EA8DFB8D5A
:10547000E95FFE4F8A859B85AC85BD8580839183DE
:10548000A283B383EA8DFB8DE55FFE4F9B81908302
:10549000D80159968D919C918633910509F002C2ED
:1054A00080EE92E1EA8DFB8DEC5BFE4F9183808371
:1054B000EA8DFB8DEA5BFE4F1182108282EE92E153
:1054C000EA8DFB8DE45BFE4F91838083EA8DFB8D3B
:1054D000E25BFE4F11821082F801878D90A14A97FE
:1054E000E1F484EF92E1EA8DFB8DE85BFE4F91835E
:1054F0008083EA8DFB8DE65BFE4F1182108286EF82
:1055000092E1EA8DFB8DE05BFE4F91838083EA8D13
:10551000FB8DEE5AFE4F11821082EA8CFB8CFCEA66
:10552000EF1AFEEFFF0AEA8DFB8DE75EFC4F8080ED
:105530008B82EA8DFB8DED5EFC4F80819181A28193
:10554000B3818A879B87AC87BD87EA8DFB8DE75B3C
:10555000FC4F90819C83EA8DFB8DEE5AFC4F30808E
:10556000EA8DFB8DED5BFC4FA081AD83EA8DFB8D59
:10557000EA5BFC4F2080EA8DFB8DE15BFC4FC08035
:10558000EA8DFB8DE45BFC4FD080EA8DFB8DE65FFE
:10559000FC4F3081EA8DFB8DE955FD4F2081EA8D6E
:1055A000FB8DE55AFC4F80809180A280B3808E8273
:1055B0009F82A886B986EA8DFB8DEC5FFC4F8081C7
:1055C0009181A281B3818E879F87A88BB98BEA8D49
:1055D000FB8DE850FD4F80809180A280B3808C8E3F
:1055E0009D8EAE8EBF8EEA8DFB8DE451FD4F808186
:1055F0009181A281B3818A8B9B8BAC8BBD8BEA8D11
:10560000FB8DE052FD4F80819181A281B381EA8DB3
:10561000FB8DEC52FD4F4080518062807380EA8D9B
:10562000FB8DE454FD4F4081518162817381EA8D8D
:10563000FB8DE055FD4F80809180A280B380F70103
:1056400084A695A6A6A6B7A644AA55AA66AA77AA2E
:10565000EA8DFB8DEC56FE4F8C8C9D8CAE8CBF8CF6
:1056600080829182A282B382F70140AB51AB62ABE0
:1056700073AB80AF91AFA2AFB3AFEA8DFB8DE856AD
:10568000FE4F8E849F84A888B98880829182A282EE
:10569000B3828A899B89AC89BD89F70184AF95AFB4
:1056A000A6AFB7AFEA8DFB8DE456FE4F8E809F808C
:1056B000A884B98480829182A282B382EA8DFB8D14
:1056C000E056FE4F2083EA8DFB8DEF55FE4F308371
:1056D000D7019996DC9299979A96CC929A979B9635
:1056E0003C9280E490E0A0E0B0E0EA8DFB8DEC55C8
:1056F000FE4F80839183A283B383EA8DFB8DEE55A9
:10570000FE4F2082EA8DFB8DED55FE4FBD81B083AB
:10571000EA8DFB8DE855FE4F8C808082EA8DFB8DF3
:10572000E755FE4F8A859B85AC85BD858083918337
:10573000A283B383EA8DFB8DE355FE4F9B8190835B
:10574000D70159968D919C918633910509F0D2C06D
:1057500080EE92E1EA8DFB8DEA51FE4F91838083CA
:10576000EA8DFB8DE851FE4F1182108282EE92E1AC
:10577000EA8DFB8DE251FE4F91838083EA8DFB8D94
:10578000E051FE4F11821082F701878D90A14A9758
:10579000E1F484EF92E1EA8DFB8DE651FE4F9183B7
:1057A0008083EA8DFB8DE451FE4F1182108286EFDB
:1057B00092E1EA8DFB8DEE50FE4F91838083EA8D5E
:1057C000FB8DEC50FE4F11821082EA8DFB8DE25C66
:1057D000FC4F8081882309F4B5C089819A810E9499
:1057E000C913EA8DFB8DE15CFC4F8081882309F4AD
:1057F000AEC0C8010E94C9138A8D9B8D805C9C4FEE
:10580000DC018C91882309F4A6C0C7016F960FB6FE
:10581000F894DEBF0FBECDBFDF91CF911F910F91E6
:10582000FF90EF90DF90CF90BF90AF909F908F90C0
:105830007F906F905F904F903F902F900C94C91382
:105840008C339105D9F484EE92E1EA8DFB8DEE550F
:10585000FF4F91838083EA8DFB8DEC55FF4F1182C2
:10586000108286EE92E1EA8DFB8DE655FF4F918323
:105870008083EA8DFB8DE455FF4F0BCD8E9709F0A9
:105880000ACD88EE92E1EA8DFB8DEE55FF4F9183B4
:105890008083EA8DFB8DEC55FF4F118210828EEED6
:1058A00092E1E1CF8C33910589F484EE92E1EA8DA7
:1058B000FB8DEC5BFE4F91838083EA8DFB8DEA5B71
:1058C000FE4F1182108286EE92E1FACD8E9709F09A
:1058D00003CE88EE92E1EA8DFB8DEC5BFE4F918367
:1058E0008083EA8DFB8DEA5BFE4F118210828EEE83
:1058F00092E1E6CD8C33910589F484EE92E1EA8D54
:10590000FB8DEA51FE4F91838083EA8DFB8DE85138
:10591000FE4F1182108286EE92E12ACF8E9709F017
:1059200033CF88EE92E1EA8DFB8DEA51FE4F9183F1
:105930008083EA8DFB8DE851FE4F118210828EEE3E
:1059400092E116CF89819A810E9487134ACFC801BC
:105950000E94871351CFC7016F960FB6F894DEBF30
:105960000FBECDBFDF91CF911F910F91FF90EF90B0
:10597000DF90CF90BF90AF909F908F907F906F906F
:105980005F904F903F902F900C948713AF92BF92EF
:10599000CF92DF92EF92FF920F931F93CF93DF93FB
:1059A000EC018AE190E09AA789A78BE190E09CA79F
:1059B0008BA789E190E09EA78DA78FE090E098AB40
:1059C0008FA78EE190E09AAB89AB8EE090E09CAB24
:1059D0008BAB85E490E09EAB8DAB84E490E098AF18
:1059E0008FABFE01EE54FF4F80E290E0928F818FEB
:1059F00081E290E0948F838F8FE190E0968F858F86
:105A000010A2178E12A211A214A213A283E490E096
:105A100096A385A382E490E090A787A3EE55FF4F5D
:105A200083E290E0928F818F84E290E0948F838F65
:105A300082E290E0968F858F10A2178E12A211A29B
:105A400014A213A281E490E096A385A380E490E0E1
:105A500090A787A3E55BFE4F1182108232961182D8
:105A60001082329611821082CE010E946823CE01EC
:105A70000E948B21CE018A509E4F41E050E0FC01F4
:105A800057A746A7DE01AA5DBD4F24E030E09F96F0
:105A90003C932E939E975E01FAEAAF1AFDEFBF0A80
:105AA00028E030E0F50137A726A72FEF3FEFFC01F4
:105AB0003183208335832483338322833783268372
:105AC000628560876385618711963C932E93159656
:105AD0003C932E93149713963C932E9312971796FC
