:10000000A2C20000D1C20000CFC20000CDC20000D9
:10001000CBC20000C9C20000C7C20000C5C20000B8
:10002000C3C20000C1C20000BFC20000BDC20000C8
:10003000BBC20000B9C20000B7C20000B5C20000D8
:10004000B3C200000C947F22AFC20000ADC200001A
:100050000C94801BA9C20000A7C200000C942B21A5
:10006000A3C200000C944E1F0C94251F9DC20000DB
:100070009BC2000099C2000097C2000095C2000018
:100080000C94522291C200008FC200008DC2000069
:100090008BC2000089C2000087C2000085C2000038
:1000A00083C2000081C200000C9425227DC20000A2
:1000B0007BC2000079C2000077C200000C94F821D6
:1000C00073C2000071C200006FC200006DC2000068
:1000D0006BC2000069C2000067C2000065C2000078
:1000E00063C200004E035303580362036C03E5032D
:1000F00076037E03860390039A03A403B303BD0330
:10010000E503C703D103DB035A1D5D1D4C1D501DC4
:10011000561D941D611D651D6B1D6F1D731D791D81
:100120007D1D811D941D871D8B1D8F1DED23FA23C1
:1001300003240C2419242224BE27BE27BE27BE2751
:10014000BE272F243C244924BE2756245F2468243C
:1001500075247E24872490249924A224BE27AB24CE
:10016000B424BD24BE27BE27BE27C624CF24D8244E
:10017000BE27BE27E124EE24BE27BE27BE27FB24D0
:1001800008251525BE2722252B253425BE27BE2769
:10019000BE273D2546254F25BE275C2569257625AA
:1001A000BE27BE27BE27832590259D25BE27AA25CD
:1001B000B725C425BE27BE27BE27D125DE25EB25C2
:1001C000BE27F82501260A26BE27BE27BE27BE2742
:1001D000BE27BE27BE27BE27BE27BE27BE27BE27F7
:1001E000BE27BE27BE27BE27BE27BE27BE27BE27E7
:1001F000BE27BE27BE272E2637264026BE274926E5
:1002000052265B26BE27BE27BE27642671267E2681
:10021000BE278B269826A526BE27BE27BE27B22638
:10022000BF26CC26BE27D926E226EB26BE27BE2730
:10023000BE27F426FD260627BE27BE27BE27BE27DB
:10024000BE27BE27BE27BE27BE27BE27BE27132632
:100250001C262526BE27BE27BE27BE27BE27BE27B3
:10026000BE27BE27BE27BE27BE27BE27BE27BE2766
:10027000BE27BE27BE27BE27BE27BE27BE27BE2756
:10028000BE27BE27BE27BE27BE27BE27BE27BE2746
:10029000BE27BE27BE27BE27BE27BE27BE27BE2736
:1002A000BE27BE27BE27BE27BE27BE27BE27BE2726
:1002B000BE27BE27BE27BE27BE27BE27BE270F27C5
:1002C00018272527BE2732273B274827BE27BE27CA
:1002D000BE2755275E276B27BE27782781278E27C5
:1002E000BE27BE27BE279B27A427B1274E414E49D4
:1002F0004E495459494E46CDCCCC3D0AD7233C17E4
:10030000B7D13877CC2B329595E6241FB14F0A0030
:100310000020410000C84200401C4620BCBE4CCA20
:100320001B0E5AAEC59D7400407A10F35A00A0729D
:100330004E18090010A5D4E80000E8764817000020
:10034000E40B54020000CA9A3B000000E1F50500EE
:100350000080969800000040420F000000A0860137
:10036000000000102700000000E803000000006407
:1003700000000000000A0000000000010000000072
:10038000002C76D888DC674F0823DFC1DFAE59E147
:10039000B1B796E5E3E453C63AE651997696E8E6B6
:1003A000C28426EB898C9B62ED407C6FFCEFBC9C89
:1003B0009F40F2BAA56FA5F490055A2AF75C936B9B
:1003C0006CF9676DC11BFCE0E40D47FEF520E6B556
:1003D00000D0ED902E0300943577050080841E0830
:1003E0000000204E0A000000C80C333333330F984E
:1003F0006E12831141EF8D2114893BE65516CFFE15
:10040000E6DB18D1844B381BF77C1D901DA4BBE4A0
:1004100024203284725E228100C9F124ECA1E53DE2
:100420002700000A0B02090C0D0E08070304010047
:1004300000000000000000000000000000000000BC
:100440000000000000000000000000000012111079
:10045000000000000000000000000000000000009C
:100460000000000000000000002100240027002AF6
:10047000002D003000330001010000040107010AD3
:100480000100002200250028002B002E003100343E
:100490000002010000050108010B010000200023FB
:1004A00000260029002C002F00320000010000036C
:1004B00001060109010505050507050808080802E8
:1004C0000202020A0A0808040404040101010101ED
:1004D0000101010303030303030303040707070CDC
:1004E0000C0C0C0C0C0C0C02020202060606060692
:1004F0000606060B0B0B0B0B0B0B0B01021020203F
:100500000808102040102040800201020108040267
:1005100001010204081020408080402010080402DD
:100520000180040201804020100804020108040236
:10053000010102040810204080010204081020403C
:1005400080005E46594611241FBECFEFD1E2DEBFC8
:10055000CDBF00E00CBF17E0A0E0B2E0EAEBF0EAAC
:1005600000E00BBF02C007900D92A234B107D9F78B
:100570002CE0A2E4B7E001C01D92AC3EB207E1F767
:1005800012E0C2EAD2E000E006C021970109802F04
:10059000FE010E94404FC13AD10780E00807A9F749
:1005A0000E94133C0C944C502BCDEBE0F1E0808189
:1005B000877F80830895EBE0F1E08081886080830D
:1005C00008958E9808958E9A089514980895149A0F
:1005D000089588980895889A0895662319F08DEAF9
:1005E00093E002C086EA93E00C94CC3A60E0FC0110
:1005F00083850C94AC1F60E0FC0185810C94AC1FDA
:1006000061E0FC0183850C94AC1F61E0FC018581F5
:100610000C94AC1F0F931F93CF93DF938B01EA01D0
:10062000AB01415051094433510508F0D4C0223088
:10063000310508F0D0C048E3429FF001439FF00D20
:100640001124E60FF71FE80FF91F81E08083232BA9
:1006500011F46C2F07C061E0802F0E94A02020972A
:1006600039F460E0802F0E94AC1F80E090E0B5C0BC
:10067000CF3FD10509F4ADC0F801EF5DFB4FE49128
:100680008E2F90E0FC013197E231F10508F09DC01A
:100690008827EE58FF4F8F4F0C94404F84B58068E9
:1006A00084BDC7BDE2CF84B5806284BDC8BDDDCF47
:1006B00080918000806880938000D0938900C093EF
:1006C0008800D3CF80918000806280938000D09397
:1006D0008B00C0938A00C9CF80918000886080938E
:1006E0008000D0938D00C0938C00BFCF8091B0006C
:1006F00080688093B000C093B300B7CF8091B00002
:1007000080628093B000C093B400AFCF809190001E
:10071000806880939000D0939900C0939800A5CFF3
:1007200080919000806280939000D0939B00C09352
:100730009A009BCF80919000886080939000D09326
:100740009D00C0939C0091CF8091A0008068809311
:10075000A0008091A0008F7B8093A000D093A9007F
:10076000C093A80082CF8091A00080628093A000F7
:10077000D093AB00C093AA0078CF8091A00088608E
:100780008093A000D093AD00C093AC006ECF809159
:100790002001806880932001D0932901C093280113
:1007A00064CF80912001806280932001D0932B013F
:1007B000C0932A015ACF8091200188608093200144
:1007C000D0932D01C0932C0150CFC038D1050CF42B
:1007D00048CF61E047CF81E090E0DF91CF911F915A
:1007E0000F9108950C9499470C9499470C9499474C
:1007F0000C9499470C9499470C9499470C949947F9
:100800000C9499470C949947EF92FF920F931F9382
:10081000CF93DF9300D01F92CDB7DEB7FB0122A1AB
:1008200033A144A155A1068D178D29833A834B83AB
:100830005C830E943B2B7C01FC0182819381298196
:100840003A814B815C818F30F7E29F072CF401964F
:10085000F7019383828303C0F70113821282B801E8
:10086000C70129833A834B835C830E94F92929813C
:100870003A814B815C818823A1F0F801EE0FFF1FC4
:10088000EE0FFF1FEA5AF84F2083318342835383D0
:10089000B801C7010E94AA2AB801C7010E94F92A1B
:1008A00004C08DE994E00E94CC3A0E94DD1B0E94B6
:1008B000AD1B80E090E00F900F900F900F90DF91B4
:1008C000CF911F910F91FF90EF9008958F929F927B
:1008D000AF92BF92CF92DF92EF92FF920F931F934E
:1008E0000E94521A60E070E00E94F332892BD1F42A
:1008F0000E94521A1F921F9221E02F931F921F9263
:10090000812C912CA12CB12CC12CD12C76019701DA
:100910008601B701A6010E94150D0F900F900F9050
:100920000F900F9080E090E01F910F91FF90EF905B
:10093000DF90CF90BF90AF909F908F9008958F924F
:100940009F92AF92BF92CF92DF92EF92FF920F935E
:100950001F930E94521A61E070E00E94F332892BCB
:10096000D1F40E94521A1F9221E02F931F921F92DE
:100970001F92812C912CA12CB12CC12CD12C760151
:1009800097018601B701A6010E94150D0F900F90E7
:100990000F900F900F9080E090E01F910F91FF90CB
:1009A000EF90DF90CF90BF90AF909F908F90089581
:1009B0008091900B9091910B892BA1F480E790E0AE
:1009C0000E940447FC01F9969C0123593F4FDF0127
:1009D000D8971C921192E217F307C9F79093910BE5
:1009E0008093900B8091900B9091910B08956F9252
:1009F0007F928F929F92AF92BF92CF92DF92EF92AF
:100A0000FF920F931F93CF93DF93FB01E2A8F3A80C
:100A100086A497A4A0A8B1A8C6A0D7A062A073A0DE
:100A2000068D178DC5DFEC019701A301B801F2DD3A
:100A3000C501B4010E94E7209701A601B801CE01CB
:100A4000E9DD80E090E0DF91CF911F910F91FF9061
:100A5000EF90DF90CF90BF90AF909F908F907F905E
:100A60006F900895EF92FF920F931F93CF93DF93B0
:100A7000FB01E2A8F3A802A113A1C68DD78D98DFD0
:100A80009701A801BE01C6DD80E090E0DF91CF9123
:100A90001F910F91FF90EF90089508950895089584
:100AA00008950895EF92FF920F931F93CF93DF93D2
:100AB000CDB7DEB72E970FB6F894DEBF0FBECDBF11
:100AC0008C016EE973E00E94111F6FEB74E0C801A6
:100AD0000E94D31E60914607709147078091480796
:100AE000909149072AE0AE014F5F5F4F7A010E9463
:100AF0006848F70101900020E9F73197AF014E19DE
:100B00005F09B701C8010E94761E6CE973E0C80155
:100B10000E94D31EC8012E960FB6F894DEBF0FBEFA
:100B2000CDBFDF91CF911F910F91FF90EF9008956E
:100B30008FEB94E00E94CC3A609146077091470792
:100B400080914807909149070E94183B8CE993E0F7
:100B50000C94CC3A0F931F93CF93DF93EC0182EC6C
:100B600094E00E94CC3A86EC94E00E94CC3A0AE8E9
:100B70001BE0F8016081CE0130DD8AEC94E00E9438
:100B8000CC3AF8016181CE0128DD8EEC94E00E9420
:100B9000CC3AF8016281CE0120DD82ED94E00E9422
:100BA000CC3AF8016381CE0118DD86ED94E00E9415
:100BB000CC3AF8016481CE0110DD8AED94E00E9408
:100BC000CC3AF8016581CE0108DDCE01DF91CF91ED
:100BD0001F910F91ADCFCF92DF92EF92FF92CF9303
:100BE000DF93EC0188819981AA81BB8118161906CF
:100BF0001A061B0644F081E090E0A0E0B0E0888394
:100C00009983AA83BB838C819D81AE81BF81181695
:100C100019061A061B0644F081E090E0A0E0B0E05F
:100C20008C839D83AE83BF8388859985AA85BB8588
:100C3000181619061A061B0644F081E090E0A0E0A1
:100C4000B0E088879987AA87BB878EED94E00E94E1
:100C5000CC3A8EE196E00E94CC3A60914A077091BE
:100C60004B0780914C0790914D070E94B14C6B014E
:100C70007C01688179818A819B810E94B14C9B01B2
:100C8000AC01C701B6010E949F4E42E00E94443B66
:100C90008EE296E00E94CC3A60914E0770914F0729
:100CA00080915007909151070E94B14C6B017C01DB
:100CB0006C817D818E819F810E94B14C9B01AC0132
:100CC000C701B6010E949F4E42E00E94443B8EE362
:100CD00096E00E94CC3A6091520770915307809140
:100CE0005407909155070E94B14C6B017C016885B7
:100CF00079858A859B850E94B14C9B01AC01C70117
:100D0000B6010E949F4E42E00E94443BCE01DF911B
:100D1000CF91FF90EF90DF90CF900ACF8091880B1A
:100D20009091890B892B91F58DE090E00E9404470A
:100D3000FC01148610924A0710924B0710924C0740
:100D400010924D0710924E0710924F0710925007C5
:100D500010925107109252071092530710925407A5
:100D6000109255071092870B1092860B109246072F
:100D700010924707109248071092490710924507B2
:100D8000109244079093890B8093880B8091880B75
:100D90009091890B0895EF92FF920F931F93CF9339
:100DA000DF93162F072F7A014115510559F4862F2D
:100DB0000E94841F31E020E0019709F030E0C32F4A
:100DC000D22F26C04130510509F5262F663310F089
:100DD0002AEC260F80917B00922F9870877F892BB9
:100DE00080937B002770206420937C0080917A00A0
:100DF000806480937A0080917A0086FDFCCFC09158
:100E0000780080917900D0E0D82B02C0C0E0D0E01B
:100E100082E0E816F10400F582EE94E00E94CC3AFC
:100E20008DEE94E00E94CC3A86EE94E00E94CC3A9B
:100E3000812F902F0E943F3B8DEE94E00E94CC3A90
:100E400088EE94E00E94CC3ACE010E943F3B66DFE0
:100E50006FDE80E090E002C081E090E0DF91CF9112
:100E60001F910F91FF90EF9008950F931F93CF93D1
:100E7000DF93FB0102A913A9C68DD78D99DDA801C7
:100E8000BE0189DF80E090E0DF91CF911F910F914B
:100E90000895CF93DF9383E00E94841FEC013EDF2F
:100EA00091E0CD2B09F490E090938A0B82E00E94B0
:100EB000841FEC0133DF91E0CD2B09F490E0909397
:100EC0008B0B8EE00E94841FEC0128DF91E0CD2B7C
:100ED00009F490E090938C0B8FE00E94841FEC014A
:100EE0001DDF91E0CD2B09F490E090938D0B82E112
:100EF0000E94841FEC0112DF91E0CD2B09F490E0F9
:100F000090938E0B83E10E94841FEC0107DF91E038
:100F1000CD2B09F490E090938F0BDF91CF91089542
:100F20008AEE94E00E94CC3A85E193E00E94CC3AAC
:100F3000F5DEFEDD80E090E00895F0DEFC01148631
:100F400080E090E008950895CF93DF93EC01FC01D9
:100F5000E759FF4F1082379781E0808360E08D81F1
:100F60000E94AC1F8F859889892B31F060E08B85BA
:100F7000DF91CF910C94AC1FDF91CF910895CF9367
:100F8000DF93EC018B890E94841F2E8930E0821749
:100F9000930711F48F8901C080E0DF91CF9108950C
:100FA000CF93DF93EC0189890E94841F2E8930E062
:100FB0008217930711F48F8901C080E0DF91CF91F0
:100FC0000895CF93DF93EC018DA5882311F061E0A4
:100FD00001C060E08F810E94AC1F8EA5882329F09C
:100FE0008FA5882311F061E001C060E08D85DF915D
:100FF000CF910C94AC1FCF93DF93EC018DA5882388
:1010000011F060E001C061E08F810E94AC1F8EA5ED
:10101000882329F08FA5882311F060E001C061E0EA
:101020008D85DF91CF910C94AC1FCF93DF93EC01B2
:1010300061E089850E94AC1F8EA5882321F061E0C4
:101040008F850E94AC1FC959DF4F1882DF91CF9165
:101050000895CF93DF93EC0160E089850E94AC1F77
:101060008EA5882321F060E08F850E94AC1FC959AE
:10107000DF4F81E08883DF91CF910895CF92DF9297
:10108000EF92FF920F931F93CF93DF93FC0142AF38
:1010900053AF64AF75AFDC01DE964D935D936D93F6
:1010A0007C93139714960D931D932D933C93139754
:1010B000EC01CA5BDF4FE88284A9882389F084A50C
:1010C000811109C037FF0CC01D921D921D921C9208
:1010D000139781E006C01016110612061306A4F33A
:1010E00080E045A956A967A970AD14161506160625
:1010F00017063CF591AD992321F10D911D912D918C
:101100003C9113976801790137FF07C0CC24DD2497
:101110007601C01AD10AE20AF30A4C155D056E0584
:101120007F057CF437FF07C0709560955095419519
:101130005F4F6F4F7F4F4D935D936D937C931397EC
:1011400081E0DF01A15BBF4F1D921D921D921C9299
:101150001397E15AFF4F91E09083DF91CF911F9158
:101160000F91FF90EF90DF90CF9008950F931F9312
:10117000CF93DF938C01D62FFC018589811109C0A3
:10118000C8010EDFC82FC801FADED11108C08C2FAC
:1011900006C0C801F4DEC82FC80102DFF6CFDF9118
:1011A000CF911F910F910895CF93DF93EC01FC0134
:1011B000E759FF4F81E0808339978081B297882378
:1011C00041F080819181A281B3810196A11DB11D61
:1011D00007C080819181A281B3810197A109B109E2
:1011E00080839183A283B383FE01E459FF4F208162
:1011F0003181DE01A659BF4FC9019595879520FD24
:1012000003C0ED91FC910DC0FE01E80FF91F0190A4
:10121000F081E02D2D913C91E20FF31F0190F081C0
:10122000E02D8C0F9D1F19958F859889892B11F1C1
:10123000FE01E059FF4F20813181DE01A259BF4FED
:10124000C9019595879520FD03C0ED91FC910DC0D6
:10125000FE01E80FF91F0190F081E02D2D913C91E6
:10126000E20FF31F0190F081E02D8C0F9D1FDF91A5
:10127000CF911994DF91CF9108958F929F92AF9261
:10128000BF92CF92DF92EF92FF920F931F93CF9373
:10129000DF93EC01FC01E15BFF4F60817181828192
:1012A00093810E94AF4C6B017C0168A979A98AA93E
:1012B0009BA90E94B14C9B01AC0160E074E284E701
:1012C00099E40E949F4E4B015C01FE01E55AFF4FDD
:1012D00060817181828193810E94AF4C9B01AC013E
:1012E000C501B4010E949F4E4B015C018E010D5A55
:1012F0001F4F20E030E040E05FE30E94104D9B0173
:10130000AC01C701B6010E943B4E0E940C4FF80190
:101310006083718382839383C95ADF4FA50194014F
:10132000C701B6010E943B4E0E940C4F688379832F
:101330008A839B83DF91CF911F910F91FF90EF9054
:10134000DF90CF90BF90AF909F908F9008950F93B4
:101350001F93CF93DF93FC01E759FF4F2081222396
:10136000B9F07A97008111812281338138964081CA
:10137000518162817381041715072607370710F121
:10138000EC01E2DDCE01DF91CF911F910F9175CF7E
:10139000FC01E15AFF4F20812223A1F070970081C8
:1013A0001181228133813496408151816281738120
:1013B000041715072607370728F0DF91CF911F91F3
:1013C0000F91F2CEDF91CF911F910F9108952F923F
:1013D0003F924F925F926F927F928F929F92AF92C5
:1013E000BF92CF92DF92EF92FF920F931F93CF9312
:1013F000DF93CDB7DEB762970FB6F894DEBF0FBEAE
:10140000CDBF8C017C0126E4E20EF11CD7018C914A
:101410009801205A3F4FF801EF59FF4F6F01A80183
:10142000425C5F4F4A0114971D01882341F0F80187
:1014300084A5D9018C9381E0F60180832FC0DA0165
:101440004D915D916D917C91F10180819181A2819D
:10145000B381BB24B394481759076A077B070CF084
:10146000B12CF901B08277FF07C070956095509557
:1014700041955F4F6F4F7F4FB7FF07C0B095A09565
:10148000909581959F4FAF4FBF4F21E04817590767
:101490006A077B070CF420E0D6012C93F40140810D
:1014A000518162817381411551056105710559F4BE
:1014B000F801848D958DA68DB78DE55AFF4F8083F9
:1014C0009183A283B383F10180819181A281B38151
:1014D000F80142AC53AC64AC75AC9801215A3F4F53
:1014E0005901481659066A067B0634F4481759070D
:1014F0006A077B077CF00AC084159505A605B70529
:101500002CF484179507A607B70724F0D7018C9110
:101510008823D9F0F50180818823B9F0D7018C9117
:10152000811105C0F701808181110FC006C060E004
:10153000C8011CDE8111F6CF17C0D6016C9181E085
:101540006827C80113DE882379F0D5011C9260E07A
:10155000C8010CDE882309F4C6C1F801FE9610828A
:10156000118212821382BFC1D80194962D913D91B0
:101570004D915C91979729833A834B835C8358966E
:101580002D913D914D915C915B972D833E834F83CF
:1015900058875C962D913D914D915C915F9729877D
:1015A0003A874B875C87F10180819181A281B38169
:1015B000F801FE96C080D180E280F380F80142AD50
:1015C00053AD64AD75ADED59FF4F10823196108269
:1015D0003801F5E66F0E711CF301108298012A594B
:1015E0003F4FF9011082329610824C015D01841A3E
:1015F000950AA60AB70AB7FE08C0B094A0949094C2
:101600008094811C911CA11CB11C481759076A07C2
:101610007B072CF4C41AD50AE60AF70A04C0C81AD4
:10162000D90AEA0AFB0AD501C401B595A795979591
:1016300087958D879E87AF87B88BD801A859BF4FF4
:101640001D01F7FC05C08C149D04AE04BF044CF4CE
:10165000F80100A0F1A1E02DFA8BE98B81E0D9011E
:101660001BC02D853E854F8558892C153D054E059F
:101670005F0508F454C089819A81AB81BC818C15C7
:101680009D05AE05BF0564F42D813E812F5F3F4F60
:101690003A8B298B81E0D3018C93F10180839EC02A
:1016A000C701B6010E94B14C2B013C0169817A81CE
:1016B0008B819C810E94B14C9B01AC01C301B201A2
:1016C0000E949F4E2B013C016D817E818F81988508
:1016D00029853A854B855C85621B730B840B950BC2
:1016E0000E94B14C9B01AC01C301B2010E94104D9C
:1016F0002B013C0169857A858B859C850E94B14CC4
:101700009B01AC01C301B2010E943B4E0E94074FF6
:101710007A8B698B81E0F801ED59FF4F5CC0D501F0
:10172000C40129813A814B815C81821B930BA40BFC
:10173000B50BC816D906EA06FB065CF42D813E817E
:101740002E5F3F4F3A8B298B81E0F801EB59FF4F19
:1017500042C0C501B4016C197D098E099F090E9420
:10176000B14C2B013C0169817A818B819C810E9463
:10177000B14C9B01AC01C301B2010E949F4E2B01F1
:101780003C016D817E818F81988529853A854B85C5
:101790005C85621B730B840B950B0E94B14C9B0103
:1017A000AC01C301B2010E94104D2B013C016985BF
:1017B0007A858B859C850E94B14C9B01AC01C3014D
:1017C000B2010E943B4E0E94074F7A8B698B81E0E9
:1017D000F801EC59FF4F8083D1018C93F80184818B
:1017E0008823B1F00E941F21D80112964D905C9081
:1017F0001397052C000C66087708DC01CB018419CF
:101800009509A609B709893E9340A105B10568F479
:10181000F801E55AFF4F29893A89C901A0E0B0E0F3
:1018200080839183A283B38392CE0E941F21D8012B
:1018300013967C936E93129784E294E00E94CC3AC4
:101840008FEE94E00E94CC3A60E070E0CB010E9401
:10185000183B85EF94E00E94CC3AC701B6010E9484
:10186000183B8BEF94E00E94CC3AC501B4010E9472
:10187000183B81E095E00E94CC3A4AE06D857E8578
:101880008F8598890E94CD3A88E095E00E94CC3AF5
:1018900069817A818B819C810E94183B8EE095E062
:1018A0000E94CC3A69857A858B859C850E94183B7D
:1018B00084E195E00E94CC3A6D817E818F8198858C
:1018C0000E94183B8AE195E00E94CC3A8DEE94E0AC
:1018D0000E94CC3A89899A890E943F3B8CE993E027
:1018E0000E94CC3A95CF62960FB6F894DEBF0FBE39
:1018F000CDBFDF91CF911F910F91FF90EF90DF90BF
:10190000CF90BF90AF909F908F907F906F905F909F
:101910004F903F902F9008950F931F93FC01EA5B27
:10192000FF4F2081211110C0389700811181228141
:101930003381349640815181628173810417150788
:101940002607370744F404C0FC0124A5222319F01C
:101950001F910F9150CB1F910F9133CBFC0113823C
:1019600012821482168215821086178212861186C0
:101970001486138616861586108A1786128A118A8F
:10198000148A138ADC01A15ABF4F1C9212AE13AE07
:1019900014AE15AE91971D921D921D921C92139735
:1019A00014961D921D921D921C92139714961C92D0
:1019B0005A961C9211961C9212961C9211961C9289
:1019C00011961C9211961C9211961C9211961C92C3
:1019D00011961C92119685E093E011969C938E933C
:1019E000129611961C921E92129680E093E0119628
:1019F0009C938E93129611961C921E9212968BEFC8
:101A000092E011969C938E93129611961C921E92C0
:101A1000129686EF92E08D939C93E858FF4F1182C7
:101A2000108208950895089508952F923F924F923D
:101A30005F926F927F928F929F92AF92BF92CF925E
:101A4000DF92EF92FF920F931F93CF93DF93CDB767
:101A5000DEB7E6970FB6F894DEBF0FBECDBF1C0110
:101A60002A013B010B871C872D873E872E960EADE2
:101A70001FAD2E97FC01E55AFD4F60817181828177
:101A800093810E94B14C9B01AC01C301B2010E9441
:101A9000104D0E94074F6B8B7C8B8D8B9E8BF101C1
:101AA000E15AFD4F60817181828193810E94B14C26
:101AB0009B01AC016B857C858D859E850E94104DB8
:101AC0000E94074F6B8F7C8F8D8F9E8FF101ED5998
:101AD000FD4F60817181828193810E94B14C9B0195
:101AE000AC01C701B6010E94104D0E94074F6F8FD5
:101AF00078A389A39AA30E941F216B877C878D8777
:101B00009E87F101E452FE4F1182108232961182BB
:101B100010823E96A114B10461F0C501A0E0B0E0CE
:101B2000408151816281738184179507A607B707A9
:101B300014F0A080B180F101E051FE4F81149104B6
:101B400061F0C401A0E0B0E0408151816281738105
:101B500084179507A607B70714F080809180F101DC
:101B6000EC50FE4F0115110561F0C801A0E0B0E096
:101B7000408151816281738184179507A607B70759
:101B800014F000811181310120E1620E711CC50148
:101B9000A0E0B0E0F10180A791A7A2A7B3A721011F
:101BA000FAE84F0E511CA12CB12CD20158968D92FF
:101BB0009D92AD92BC925B974101BCEF8B1ABEEF38
:101BC0009B0A20E030E0F401008F118F228F338FC9
:101BD000A5D8A4D8A3D8A2D840914A0750914B07C2
:101BE00060914C0770914D074BAB5CAB6DAB7EAB1E
:101BF00095D880914E0790914F07A0915007B091D2
:101C000051078F87988BA98BBA8B88D8A0905207E1
:101C1000B0905307C0905407D0905507F101E9598F
:101C2000FD4F10821182128213823496108211822B
:101C30001282138234961082118212821382349699
:101C40001182108232961182108232961182108295
:101C500032964BA95CA96DA97EA94083518362830A
:101C6000738334968F859889A989BA8980839183F3
:101C7000A283B3833496A082B182C282D3822F968C
:101C8000EFAC2F970B891C892D893E89C301F6D9AA
:101C90008823F1F08EE393E00E94CC3A8EE196E047
:101CA0000E94CC3AF101EE5AFF4F6081718182812E
:101CB0009381E75FFD4F20813181428153810E94F2
:101CC000DD4DCA01B9010E94183B28D80E94980531
:101CD0006096EFAC60970B8D1C8D2D8D3E8D4F85E2
:101CE000588969897A89C201C9D98823F9F08AE3B8
:101CF00093E00E94CC3A8EE296E00E94CC3AF10149
:101D0000E453FF4F6081718182819381ED56FE4FD4
:101D100020813181428153810E94DD4DCA01B90188
:101D20000E94183B0E948E060E9498056196EFACB7
:101D300061970F8D18A129A13AA1B601A501C4018F
:101D40009DD98823F9F086E393E00E94CC3A8EE394
:101D500096E00E94CC3AF101EA5BFE4F608171810E
:101D600082819381E35EFE4F2081318142815381E4
:101D70000E94DD4DCA01B9010E94183B0E948E06E7
:101D80000E949805D10151961C92F101E557FF4F31
:101D90001082E658FF4F1082C1010E94A938C1018C
:101DA0000E94AD38C301B8DDC201B6DDC401B4DDA7
:101DB000F101ED51FE4FFCA3EBA381E090E0918394
:101DC00080837101FBE1EF1AFEEFFF0AD7018D93CB
:101DD0009C93810109511E4FF8019183808341E05A
:101DE00050E0B301C1010E940D19D7014D915C91E2
:101DF000B201C1010E940D19F80140815181B40165
:101E0000C1010E940D1911E0F101EE53FD4F108345
:101E1000C3011FD9C2011DD9C4011BD964E670E0FA
:101E200080E090E00E94E720C10180529E4FDC01DB
:101E30001C9311961C93A1014E515E4FFA01108321
:101E40002F96FFAD2F97F1110FC060962FAD6097C1
:101E5000211105C061963FAD6197332339F191019E
:101E600021593F4FF90110826096FFAD6097F11143
:101E700005C0910127513F4FF90110826196FFADD6
:101E80006197F11105C091012D593E4FF901108262
:101E90002F962FAD2F97FC01208360963FAD609762
:101EA0003C936196EFAD6197DA01EC93C3018FDA51
:101EB000C2018DDAC4018BDAC301DFD9C201DDD9D9
:101EC000C401DBD90E948E06DC011C968C918F87A1
:101ED000A12CB12CF101E052FE4FFC8BEB8B910158
:101EE0002F513E4F3C8F2B8FA1014E515E4F58A377
:101EF0004F8FC1018D519E4F9CA78BA7D101AB5134
:101F0000BE4FBEA7ADA73796F8ABEFA72F5631400F
:101F10003AA729A74F535F4F5AAB49AB8B5191401A
:101F20009EA38DA3A35AB109B8A7AFA3EB89FC89DF
:101F3000808181110BC0AB8DBC8D8C91811106C04D
:101F4000EF8DF8A18081882309F459C3FF85F11131
:101F500056C34BA55CA5B301C1010E9461194DA5F3
:101F60005EA5B201C1010E9461194FA558A9B40133
:101F7000C1010E946119C301EAD9C201E8D9C401B3
:101F8000E6D9E9A5FAA58081882319F1C3011FDAF2
:101F9000A9A9BAA98C918823C9F06101B9E6CB1A25
:101FA000BDEFDB0A7101EEE4EE1AEDEFFE0A8101EE
:101FB0000B571D4F910127583D4FA10149595D4FC6
:101FC000B10162587E4FC3010E94ED37A9A5BAA5A1
:101FD0001C92F101E451FF4F8081882329F1C20155
:101FE000F6D9F101EC55FD4F80818823C9F06101DC
:101FF000B5E6CB1ABDEFDB0A7101ECE4EE1AEDEFAA
:10200000FE0A810107571D4F910123583D4FA10141
:1020100045595D4FB10166567E4FC2010E94ED37B2
:10202000F101E451FF4F1082F101EA59FE4F808126
:10203000882329F1C401CBD9F101EB55FD4F8081F3
:102040008823C9F06101F1E6CF1AFDEFDF0A7101C3
:102050002AE4E21A2DEFF20A810103571D4F910184
:102060002F573D4FA10141595D4FB1016A547E4F39
:10207000C4010E94ED37F101EA59FE4F108281013F
:1020800001591F4FD8018C91882309F43FC0F101F9
:10209000EF56FD4F60817181072E000C880B990B64
:1020A0000E94B14C9B01AC01F101E959FD4F6081E7
:1020B0007181828193810E94384F18163CF5D801B6
:1020C0001C9264E274E081010E521E4FC8010E940E
:1020D000D31E6AE575E0C8010E94D31E6CE973E067
:1020E000C8010E94D31E2F96BFAD2F97BB2309F4C2
:1020F00081C3F101E258FE4F108A118A128A138AB5
:10210000E053F14010821182128213828101075143
:102110001F4FF8018081882309F43FC0E655FE4F28
:1021200060817181072E000C880B990B0E94B14CC5
:102130009B01AC01F101E559FD4F60817181828104
:1021400093810E94384F181644F5F801108264E21A
:1021500074E081010E521E4FC8010E94D31E62E836
:1021600075E0C8010E94D31E6CE973E0C8010E94AB
:10217000D31E6096FFAD6097FF2309F43FC3F101C2
:10218000E656FE4F108A118A128A138AADA1BEA1AB
:102190001D921D921D921C92139781010D591E4F85
:1021A000F8018081882309F43FC0EE5CFE4F608116
:1021B0007181072E000C880B990B0E94B14C9B017A
:1021C000AC01F101E159FD4F608171818281938100
:1021D0000E94384F181644F5D8011C9264E274E04E
:1021E00081010E521E4FC8010E94D31E6AEA75E09B
:1021F000C8010E94D31E6CE973E0C8010E94D31E7F
:102200006196BFAD6197BB2309F4FCC2F101EA54AA
:10221000FE4F108A118A128A138AAFA1B8A51D92A7
:102220001D921D921C92139760E0C3010E94B60894
:10223000882369F0F101E25BFF4F10821182128264
:102240001382E05DFE4F108A118A128A138A60E0C1
:10225000C2010E94B608882369F0EDA1FEA1108298
:10226000118212821382F101E656FE4F108A118A02
:10227000128A138A60E0C4010E94B608882371F0B4
:10228000AFA1B8A51D921D921D921C921397F1014A
:10229000EA54FE4F108A118A128A138AF101E15919
:1022A000FF4F8081EB89FC898083F101E751FF4F6B
:1022B0008081AB8DBC8D8C93E658FF4F8081EF8D74
:1022C000F8A18083F101E25BFF4F208131814281DF
:1022D00053812F83388749875A87ADA1BEA14D917D
:1022E0005D916D917C91EFA1F8A5C080D180E280D5
:1022F000F3804BAB5CAB6DAB7EAB0E948E068F81E7
:102300009885A985BA8580934A0790934B07A09337
:102310004C07B0934D070E948E064BA95CA96DA98E
:102320007EA940934E0750934F07609350077093D8
:1023300051070E948E06C0925207D0925307E09236
:102340005407F0925507C1010E94A938AB89BC8996
:102350008C91882309F44AC00E941F212B853C855B
:102360004D855E85621773078407950760F40E94A8
:102370001F212B853C854D855E8562177307840779
:102380009507A0F51EC00E941F216B017C012B85C3
:102390003C854D855E85C21AD30AE40AF50AF1012F
:1023A000E15BFD4F2081318142815381A8EEB3E092
:1023B0000E94F94D6C157D058E059F0508F426C217
:1023C000D6CF0E941F216B017C01F101E15BFD4F23
:1023D0002081318142815381A8EEB3E00E94F94D02
:1023E0006C157D058E059F0508F410C2AB8DBC8D64
:1023F0008C91882309F44AC00E941F212B853C85BB
:102400004D855E85621773078407950760F40E9407
:102410001F212B853C854D855E85621773078407D8
:102420009507A0F51EC00E941F216B017C012B8522
:102430003C854D855E85C21AD30AE40AF50AF1018E
:10244000ED5AFD4F2081318142815381A8EEB3E0E6
:102450000E94F94D6C157D058E059F0508F4ECC1B1
:10246000D6CF0E941F216B017C01F101ED5AFD4F77
:102470002081318142815381A8EEB3E00E94F94D61
:102480006C157D058E059F0508F4D6C1AF8DB8A1EA
:102490008C91882309F44AC00E941F212B853C851A
:1024A0004D855E85621773078407950760F40E9467
:1024B0001F212B853C854D855E8562177307840738
:1024C0009507A0F51EC00E941F216B017C012B8582
:1024D0003C854D855E85C21AD30AE40AF50AF101EE
:1024E000E95AFD4F2081318142815381A8EEB3E04A
:1024F0000E94F94D6C157D058E059F0508F4B2C14B
:10250000D6CF0E941F216B017C01F101E95AFD4FDA
:102510002081318142815381A8EEB3E00E94F94DC0
:102520006C157D058E059F0508F49CC188EA9BE02B
:102530000E946A1C1816190684F588EA9BE00E941E
:10254000481C8F7D8534910541F560E275E0C1013D
:102550008E529E4F0E94D31E82E693E00E94CC3A98
:102560000E948E060E949805F101E159FF4F1082EA
:10257000E658FF4F1082E658FF4F1082AB89BC89A6
:102580001C92EB8DFC8D1082AF8DB8A11C92B1E036
:10259000BF87AA24A394B12C03C0A114B10481F075
:1025A00065E375E0C1018E529E4F0E94D31EEB89F8
:1025B000FC891082AB8DBC8D1C92EF8DF8A110822E
:1025C000C1010E94B537F101E252FE4F8081918135
:1025D0000196918380838D3291400CF4A7CCD10178
:1025E000AA52BE4F8D919C911197892B09F09ECCD8
:1025F00014968D919C91892B09F44AC197CC810145
:102600000A521E4FD8018D919C91892B21F0C10156
:102610000E94B537F7CF81E495E00E94CC3A2F961F
:10262000BFAD2F97BB2309F1A114B104F1F4EF85DD
:10263000E11140C086E293E00E94CC3A0E948E06EF
:102640000E9498056096FFAD6097FF2371F182E2CA
:1026500093E00E94CC3A0E948E060E9498056196F3
:102660002FAD6197211118C025C060963FAD6097CE
:10267000332339F0A114B10421F44F8541111AC05C
:10268000E6CF61965FAD61975523A1F0A114B10427
:1026900089F48F8581110EC08EE193E00E94CC3ABF
:1026A0000E948E060E94980505C06196EFAD619765
:1026B000E111F2CF85E090E0ABA1BCA18D939C939A
:1026C00091012B513E4F3C872B87D9018D939C93D1
:1026D000810109511E4FF8019183808345E050E04C
:1026E000B301C1019AD5AB85BC854D915C91B20116
:1026F000C10193D5F80140815181B401C1018DD54B
:10270000C1010E94B138F101E25BFF4F408151816C
:1027100062817381E658FF4F80819181A281B381EC
:102720008F8B988FA98FBA8FE658FF4FC080D180CA
:10273000E280F3804BAB5CAB6DAB7EAB0E948E0650
:102740004BA95CA96DA97EA940934A0750934B07FA
:1027500060934C0770934D070E948E062F89388D29
:10276000498D5A8D20934E0730934F074093500761
:10277000509351070E948E06C0925207D092530781
:10278000E0925407F0925507C1010E94A938C10197
:102790000E94AD380E948E060E94EB05C101C9D58A
:1027A000ABA1BCA11D921C92EB85FC85118210820D
:1027B000D8011D921C9240E050E0B301C1012DD51B
:1027C000EB85FC8540815181B201C10126D5D8013C
:1027D0004D915C91B401C10120D5C1010E94B13875
:1027E000BF85BB2309F451C10E948E0621E0FC0184
:1027F00024874BC1AA24A394B12C88CCAA24A394E7
:10280000B12CCBCCAA24A394B12C0ECD62E373E0FF
:1028100081010E521E4FC8010E94D31E6CE973E065
:10282000C8010E94D31E62ED75E0C8010E94D31E4C
:1028300022E0A22EB12CDACD6EE273E081010E52BD
:102840001E4FC8010E94D31E6CE973E0C8010E94AC
:10285000D31E67EE75E0C8010E94D31E92E0A92E38
:10286000B12C14CE6AE273E081010E521E4FC801F2
:102870000E94D31E6CE973E0C8010E94D31E6CEF66
:1028800075E0C8010E94D31E82E0A82EB12C4ECE66
:1028900011821082F101E452FE4F808191810097F4
:1028A00049F46EE573E081010E521E4FC8010E948B
:1028B000D31EC6C0019709F0D4C00E948E068C01B9
:1028C000FC0180819181A281B381181619061A0634
:1028D0001B0644F081E090E0A0E0B0E080839183AB
:1028E000A283B383F80184819581A681B7811816EC
:1028F00019061A061B0644F081E090E0A0E0B0E063
:1029000084839583A683B783F80180859185A2850A
:10291000B385181619061A061B0644F081E090E0EC
:10292000A0E0B0E080879187A287B3876EE973E06B
:10293000CE0101960E94111F6EED74E0CE0101964A
:102940000E94D31E6EE176E0CE0101960E94D31E56
:1029500060914A0770914B0780914C0790914D0709
:102960000E94B14C6B017C01D8016D917D918D91DC
:102970009C910E94B14C9B01AC01C701B6010E9421
:102980009F4EAB01BC01CE0101960E94A31E6EE2D8
:1029900076E0CE0101960E94D31E60914E077091A1
:1029A0004F0780915007909151070E94B14C6B01E5
:1029B0007C01F80164817581868197810E94B14C08
:1029C0009B01AC01C701B6010E949F4EAB01BC0147
:1029D000CE0101960E94A31E6EE376E0CE01019621
:1029E0000E94D31E60915207709153078091540743
:1029F000909155070E94B14C6B017C01D80118964B
:102A00006D917D918D919C911B970E94B14C9B0182
:102A1000AC01C701B6010E949F4EAB01BC01CE01C3
:102A200001960E94A31EBE016F5F7F4F81010E526F
:102A30001E4FC8010E94E11E89819A810E94994718
:102A40000E948E06BC01CE0101960E945205BE0175
:102A50006F5F7F4FC8010E94E11E89819A810E94A9
:102A60009947F101E452FE4F8081918101968230B5
:102A700091051CF49183808302C011821082F101C0
:102A8000E652FE4F1182108251CA8FE495E00E94F7
:102A9000CC3AC5010E943F3B8CE993E00E94CC3ABE
:102AA0000E948E06B0924507A0924407C501E696A3
:102AB0000FB6F894DEBF0FBECDBFDF91CF911F914F
:102AC0000F91FF90EF90DF90CF90BF90AF909F90CD
:102AD0008F907F906F905F904F903F902F900895D0
:102AE0000C9499470C9499470C9499470C949947E6
:102AF0000C9499471F93CF93DF931F92CDB7DEB706
:102B0000FB0162A9168D69830E94D8046981812F17
:102B10000E94A02080E090E00F90DF91CF911F9164
:102B200008950E948E060E94EB0580E090E00895D3
:102B3000AF92BF92CF92DF92EF92FF920F931F93CB
:102B4000CF93DF93EC0186E390E09E8B8D8B87E340
:102B500090E0988F8F8B86E290E09A8F898F8AE140
:102B600090E09C8F8B8F8CE190E09E8F8D8F88E121
:102B700090E098A38F8F83E090E09AA389A382E0EE
:102B800090E09CA38BA3FE01E657FF4F8CE390E0FF
:102B9000968385838DE390E09087878388E390E038
:102BA000928781871486138616861586108A178663
:102BB0008EE090E0928B818B8FE090E0948B838B02
:102BC000E658FF4F8EE290E09683858380E390E0A5
:102BD000908787838EE390E092878187148613869F
:102BE00016861586108A178682E190E0928B818B7B
:102BF00083E190E0948B838BE152FF4F118210822E
:102C0000329611821082329611821082CE010E9479
:102C1000C52BCE010E94DF386E0182E8C81A8EEF04
:102C2000D80AAA24A394B12CF601B38EA28E7E01F9
:102C3000F6E6EF1AFEEFFF0A84E090E0F701938FCB
:102C4000828F8E010A541E4F88E090E0F801938F26
:102C5000828F80E190E0F6019183808381E190E0B2
:102C6000958384838FE190E09383828381E290E077
:102C700097838683C6010E94AC22F60182858087F5
:102C80008385818787E190E0F7019183808389E1E3
:102C900090E09583848383E290E09383828385E24E
:102CA00090E097838683C7010E94AC22F70182855A
:102CB0008087838581878BE190E0F8019183808311
:102CC0008DE190E09583848387E290E09383828313
:102CD00089E290E097838683C8010E94AC22F801C4
:102CE0008285808783858187EE5FFE4F8081918119
:102CF0003C9720813181369740815181F601578B75
:102D0000468B358B248B019729F48FEF9FEF918FA2
:102D1000808F03C0F601B18EA08EFE01E654FD4FF8
:102D2000808191813C97208131813697408151810A
:102D3000F701578B468B358B248B019719F48FEF56
:102D40009FEF03C081E090E0F701918F808FFE013B
:102D5000E454FD4F808191813C9720813181C6559B
:102D6000DD4F48815981F801578B468B358B248B79
:102D7000019719F48FEF9FEF03C081E090E0F80115
:102D8000918F808FDF91CF911F910F91FF90EF90E6
:102D9000DF90CF90BF90AF9008952F923F924F92C7
:102DA0005F926F927F928F929F92AF92BF92CF92DB
:102DB000DF92EF92FF920F931F93CF93DF93CDB7E4
:102DC000DEB7CA57D1090FB6F894DEBF0FBECDBF2C
:102DD0008C01FC01108211821282138214821582EE
:102DE000168217821086118612861386148615861F
:102DF000168617862C01F0E14F0E511CC2010E946D
:102E0000AE0C68018AE8C80ED11CC6010E94AE0C47
:102E10007801ECEFEE1AEEEFFE0AC7010E94AE0C4D
:102E20003801F2E86F1AFEEF7F0AC3010E942E23D9
:102E3000480186E6881A8EEF980AC4010E942E2364
:102E40005801EAE4AE1AEEEFBE0AC5010E942E2335
:102E50006EE973E0C8018E529E4FE3D7F801E85245
:102E6000FE4F1182108232961182108232961182A8
:102E70001082329611821082329610823196108220
:102E80003196108231961182108232961182108210
:102E900032961182108232961082319610823196CB
:102EA000108231961082118212821382349610821F
:102EB000118212821382349610821182128213823E
:102EC00034961082118212821382349610821182FB
:102ED00012821382349610821182128213823496E7
:102EE0001082118212821382349610821182128211
:102EF00013823496108211821282138234961082C9
:102F000011821282138234961082118212821382ED
:102F100034961082118212821382349610821182AA
:102F20001282138234961082118212821382349696
:102F3000108211821282138234961082319610828E
:102F40003196108231961082118212821382349649
:102F500010821182128213823496108211821282A0
:102F600013823496108231961082319610823196F7
:102F700010823196108231961082319610823196ED
:102F800010823196108231961082319610823196DD
:102F900010823196108231961082319610823196CD
:102FA00010823196108231961082319610823196BD
:102FB00010823196108231961082319610823196AD
:102FC00010823196108211821282138234961082FE
:102FD000118212821382349610821182128213821D
:102FE000D801A55ABD4F8CE0E2E4F3E001900D92C8
:102FF0008A95E1F7F801E959FD4F1082118212829A
:1030000013823496108211821282138234961082B7
:1030100011821282138234961182108232961182AA
:1030200010823296118210823296108211821282A0
:103030001382349610821182128213823496108287
:1030400011821282138234961082118212821382AC
:103050003496108211821282138234961082118269
:10306000128213823496118210823296118210825B
:10307000329611821082329610821182128213824D
:103080003496108211821282138234961082118239
:1030900012821382349610823196108231961082F9
:1030A00031961182108232961182108232961182EC
:1030B00010823296118210823296118210823296DC
:1030C0001182108232961182108232961182108201
:1030D00032961182108232961182108232961182BB
:1030E00010823296118210823296118210823296AC
:1030F000118210821801FEE32F1AFDEF3F0AF10141
:103100001082CE0101960E94AE0C8AE7FE01319634
:10311000D20101900D928A95E1F7CE0101960E94AD
:10312000AE0C8AE7FE013196D60101900D928A9588
:10313000E1F7CE0101960E94AE0C8AE7FE013196BE
:10314000D70101900D928A95E1F788E5F801808B0F
:1031500089E5F60180838AE5F7018083CE01019637
:103160000E942E238CE1FE013196D30101900D9235
:103170008A95E1F7CE0101960E942E238CE1FE0193
:103180003196D40101900D928A95E1F7CE01019616
:103190000E942E238CE1FE013196D50101900D9203
:1031A0008A95E1F7C801C4DCF1011082C658DF4FEF
:1031B0000FB6F894DEBF0FBECDBFDF91CF911F9148
:1031C0000F91FF90EF90DF90CF90BF90AF909F90C6
:1031D0008F907F906F905F904F903F902F900895C9
:1031E0000F931F93CF93DF938B01EA018AE593E05E
:1031F0000E94CC3A8DEE94E00E94CC3AF801808196
:103200000E940D3BCE010E943F3B0E948E06DF9143
:10321000CF911F910F910C949805CF92DF92EF926E
:10322000FF920F931F93CF93DF93CDB7DEB728970D
:103230000FB6F894DEBF0FBECDBF8B016A018E5270
:103240009E4F7C0166E573E0AED56DEE74E0C7017C
:10325000AAD5F801808189831A8241E050E08E016D
:103260000F5F1F4FB801C70141D54AE0B801C60141
:103270000E945E48F80101900020E9F73197AF0104
:10328000401B510BB801C70131D50E948E06BC010D
:10329000C8010E945205B801C70193D589819A815E
:1032A0000E94994728960FB6F894DEBF0FBECDBF97
:1032B000DF91CF911F910F91FF90EF90DF90CF9012
:1032C0000895FC01DB01AD59BF4F8C91882319F0A3
:1032D00022E030E002C020E030E0DB01AB59BF4F1C
:1032E0008C91882311F023E030E0DB01AC59BF4F13
:1032F0008C91882311F024E030E0DB01AA59BF4F04
:103300008C91882311F026E030E0DA018D919C91B8
:103310008217930721F091E0121613060CF090E04B
:10332000DA012D933C93992319F0A901CF0175CFB0
:1033300008958F929F92AF92BF92CF92DF92EF92B9
:10334000FF920F931F93CF93DF93EC0182E593E0FD
:103350000E94CC3A8EE196E00E94CC3A6E0182E85F
:10336000C81A8EEFD80AC6010E940E230E94B14CE3
:103370004B015C01FE01E55AFD4F60817181828144
:1033800093810E94B14C9B01AC01C501B4010E9424
:103390009F4E42E00E94443B8EE296E00E94CC3A6F
:1033A0007E01E6E6EE1AEEEFFE0AC7010E940E234A
:1033B0000E94B14C4B015C01FE01E15AFD4F60815E
:1033C0007181828193810E94B14C9B01AC01C50146
:1033D000B4010E949F4E42E00E94443B8EE396E07F
:1033E0000E94CC3A8E010A541E4FC8010E940E233F
:1033F0000E94B14C4B015C01CD59DD4F6881798150
:103400008A819B810E94B14C9B01AC01C501B40132
:103410000E949F4E42E00E94443B0E948E060E9402
:1034200098058EE493E00E94CC3A8EE196E00E94EB
:10343000CC3AF601A08DB18D20893189428953891A
:103440000E94034E0E94183B8EE296E00E94CC3A06
:10345000F701A08DB18D20893189428953890E945D
:10346000034E0E94183B8EE396E00E94CC3AF8018E
:10347000A08DB18D20893189428953890E94034EE4
:103480000E94183B0E948E06DF91CF911F910F91F1
:10349000FF90EF90DF90CF90BF90AF909F908F9074
:1034A0000C949805CF93DF938091940B9091950B9A
:1034B000892B51F483EC92E00E940447EC016DDC0F
:1034C000D093950BC093940B8091940B9091950B96
:1034D000DF91CF9108954F925F926F927F928F927A
:1034E0009F92AF92BF92CF92DF92EF92FF920F9393
:1034F0001F93CF93DF9300D01F92CDB7DEB70E940A
:103500003B2B409032085090330860903408709004
:1035100035080E943B2B8090360890903708A09089
:103520003808B09039080E948E06C0904A07D090A3
:103530004B07E0904C07F0904D070E948E06C701A4
:10354000B6010E94B14C6B017C01C301B2010E9423
:10355000B14C9B01AC01C701B6010E949F4E2B01EB
:103560003C0160914E0770914F07809150079091F8
:1035700051070E94B14C6B017C01C501B4010E944E
:10358000B14C9B01AC01C701B6010E949F4EAB013B
:10359000BC0149835A836B837C8384DF1F921F9213
:1035A0001F921F921F92812C912CA12CB12CC12C07
:1035B000D12C760149815A816B817C818A019B01E2
:1035C000B301A2010E94150D6DDF1F921F921F9281
:1035D0001F921F9297018601B301A2010E94150D4F
:1035E00061DF1F921F921F921F921F929701860107
:1035F000B701A6010E94150D0FB6F894DEBF0FBEED
:10360000CDBF80E090E00F900F900F900F90DF9172
:10361000CF911F910F91FF90EF90DF90CF90BF90CF
:10362000AF909F908F907F906F905F904F90089594
:10363000CF93DF93EB0120E030E040E85FE36A8165
:103640007B818C819D810E94AB4C811112C081E1F4
:1036500096E00E94CC3A26DFFC01E25BFF4F10822D
:10366000118212821382E05DFE4F108A118A128A43
:10367000138A20E030E040E85FE36E817F81888537
:1036800099850E94AB4C811112C081E296E00E94A4
:10369000CC3A08DFFC01E853FF4F108211821282FE
:1036A0001382EE52FF4F108A118A128A138A20E089
:1036B00030E040E85FE36A857B858C859D850E94CC
:1036C000AB4C811112C081E396E00E94CC3AEADE55
:1036D000FC01EE5BFE4F1082118212821382EC58C5
:1036E000FF4F108A118A128A138A0E948E060E9446
:1036F000980580E090E0DF91CF91089508950895B6
:103700001F920F920FB60F9211240BB60F922F93A8
:103710003F934F935F936F937F938F939F93AF9359
:10372000BF93EF93FF93E0914207F0914307199500
:10373000FF91EF91BF91AF919F918F917F916F9189
:103740005F914F913F912F910F900BBE0F900FBE45
:103750000F901F90189508950895CF93DF93EC0173
:103760002AEC30E04BEC50E069EC70E0DCD72EEC5A
:1037700030E04FEC50E06DEC70E0CE010C96D3D70A
:1037800024ED30E045ED50E063ED70E0CE01489669
:10379000CAD728ED30E049ED50E067ED70E0CE018A
:1037A0008496C1D72EED30E04FED50E06DED70E026
:1037B000CE01C096DF91CF91B6C7CF93DF938091B2
:1037C000920B9091930B892BE9F48CE390E00E948B
:1037D0000447EC01FC01CC96118210823C96E8175C
:1037E000F907D1F7198218821D861C86198E188E4A
:1037F0001DA21CA219AA18AACE01AFDFD093930B69
:10380000C093920B8091920B9091930BDF91CF918B
:1038100008950895CF92DF92EF92FF920F931F9336
:10382000CF93DF936C017A018B01C0E0D0E0CE151D
:10383000DF0589F0D8016D918D01D601ED91FC91E4
:103840000190F081E02DC6011995892B11F47E01BC
:1038500002C02196ECCFC701DF91CF911F910F914C
:10386000FF90EF90DF90CF900895089580E090E072
:103870000895FC01538D448D252F30E0842F90E076
:10388000821B930B541710F0CF960895019708955B
:10389000FC01918D828D981761F0828DDF01A80F58
:1038A000B11D5D968C91928D9F5F9F73928F90E07A
:1038B00008958FEF9FEF0895FC01918D828D9817E9
:1038C00031F0828DE80FF11D858D90E008958FEF26
:1038D0009FEF0895FC01918D228D892F90E0805CEF
:1038E0009F4F821B91098F739927089588EA9BE067
:1038F000F1DF21E0892B09F420E0822F0895FC01FB
:10390000848DDF01A80FB11DA35ABF4F2C91848D68
:1039100090E001968F739927848FA689B7892C939D
:10392000A089B1898C9180648C93938D848D981338
:1039300006C00288F389E02D80818F7D8083089501
:10394000EF92FF920F931F93CF93DF93EC0181E0EF
:10395000888F9B8D8C8D981305C0E889F9898081AB
:1039600085FD23C0F62E0B8D10E00F5F1F4F0F73E8
:103970001127E02E8C8DE8120BC00FB607FCFACF92
:10398000E889F989808185FFF5CFCE01B8DFF2CFD4
:103990008B8DFE01E80FF11DE35AFF4FF0820B8F74
:1039A000EA89FB898081806207C0EE89FF89608394
:1039B000E889F98980818064808381E090E0DF91EB
:1039C000CF911F910F91FF90EF900895CF93DF93C8
:1039D000EC01888D8823C1F0EA89FB89808185FD0F
:1039E00005C0A889B9898C9186FD0EC00FB607FC69
:1039F000F5CF808185FFF2CFA889B9898C9185FFA9
:103A0000EDCFCE017CDFE8CFDF91CF91089580E04C
:103A100090E0892B19F06ADF811125C080E090E0E9
:103A2000892B41F080E090E0892B21F00E9400007A
:103A300081111CC080E090E0892B41F080E090E093
:103A4000892B21F00E940000811113C080E090E0DA
:103A5000892BA1F080E090E0892B81F00E9400008A
:103A600081110AC008950E940000D8CF0E94000072
:103A7000E1CF0E940000EACF0C940000089590E08E
:103A8000FC013197E231F10508F04EC08827EC5770
:103A9000FF4F8F4F0C94404F809180008F7703C071
:103AA000809180008F7D80938000089580918000B8
:103AB000877FF9CF84B58F7702C084B58F7D84BDB1
:103AC00008958091B0008F7703C08091B0008F7D02
:103AD0008093B0000895809190008F7707C0809107
:103AE00090008F7D03C080919000877F809390002D
:103AF00008958091A0008F7707C08091A0008F7DEE
:103B000003C08091A000877F8093A00008958091DA
:103B100020018F7707C0809120018F7D03C08091A5
:103B20002001877F8093200108953FB7F89480910A
:103B30009F0B9091A00BA091A10BB091A20B26B569
:103B4000A89B05C02F3F19F00196A11DB11D3FBFD5
:103B5000BA2FA92F982F8827820F911DA11DB11D63
:103B6000BC01CD0142E0660F771F881F991F4A955F
:103B7000D1F708950E942F500C9499470C949947BF
:103B80000C9499470F931F93CF93DF93EC01888197
:103B90009981009729F02A813B812617370788F4FD
:103BA0008B016F5F7F4F0E94484F009761F09983B0
:103BB00088831B830A832C813D81232B11F4FC0114
:103BC000108281E001C080E0DF91CF911F910F91C1
:103BD00008950F931F93CF93DF930E943B2B8C018B
:103BE000C0E0D0E0BE01C8010E94F929882321F07D
:103BF000BE01C8010E94F92A2196C13ED10591F764
:103C000081E496E00E94CC3A0E948E060E949805BC
:103C100080E090E0DF91CF911F910F9108958F92F6
:103C20009F92AF92BF92CF92DF92EF92FF920F934B
:103C30001F9338DC62E070E00E94F332892BC9F4F4
:103C400031DC21E02F931F921F921F921F92812C33
:103C5000912CA12CB12CC12CD12C7601970186017D
:103C6000B701A6010E94150D0F900F900F900F90B5
:103C70000F9080E090E01F910F91FF90EF90DF9008
:103C8000CF90BF90AF909F908F9008958F929F920A
:103C9000AF92BF92CF92DF92EF92FF920F931F935A
:103CA00001DC1F9221E02F931F921F921F92812C03
:103CB000912CA12CB12CC12CD12C7601970186011D
:103CC000B701A6010E94150D0F900F900F900F9055
:103CD0000F9080E090E01F910F91FF90EF90DF90A8
:103CE000CF90BF90AF909F908F900895EF92FF92EA
:103CF0000F931F93CF93DF93FC01248135816115CE
:103D0000710511F480E018C041155105A1F07B0147
:103D1000EC018A01020F131FB80134DF882391F3ED
:103D2000288139818C819D81B701820F931F0E9468
:103D300045501D830C8381E0DF91CF911F910F913E
:103D4000FF90EF900895EF92FF920F931F93CF9300
:103D5000DF93CDB7DEB764970FB6F894DEBF0FBE22
:103D6000CDBF7C01CB01BA018E010F5F1F4F22E056
:103D700044E00E94E546BC01FC0101900020E9F707
:103D80003197AF01481B590BC701B0DF64960FB6DE
:103D9000F894DEBF0FBECDBFDF91CF911F910F9181
:103DA000FF90EF9008956115710549F0FB010190B6
:103DB0000020E9F73197AF01461B570B97CF80E002
:103DC0000895FB0144815581608171818FCFEF920D
:103DD000FF920F931F93CF93DF93EC017B018A0136
:103DE000BA01D0DE2881398181110DC0211531053C
:103DF00019F0C9010E949947198218821D821C82FC
:103E00001B821A8206C01D830C83B701C9010E9460
:103E10004550CE01DF91CF911F910F91FF90EF9010
:103E20000895FC011182108213821282158214827D
:103E30006115710549F0FB0101900020E9F7319708
:103E4000AF01461B570BC3CF08951F920F920FB6B9
:103E50000F9211240BB60F922F933F934F935F93C2
:103E60006F937F938F939F93AF93BF93EF93FF9342
:103E700088EA9BE044DDFF91EF91BF91AF919F9164
:103E80008F917F916F915F914F913F912F910F9003
:103E90000BBE0F900FBE0F901F9018951F920F92A0
:103EA0000FB60F9211240BB60F922F938F939F93FF
:103EB000EF93FF93E091B80BF091B90B8081E09103
:103EC000BE0BF091BF0B82FD12C090818091C10B9F
:103ED0008F5F8F732091C20B821751F0E091C10B5D
:103EE000F0E0E855F44F958F8093C10B01C08081BD
:103EF000FF91EF919F918F912F910F900BBE0F909B
:103F00000FBE0F901F901895CF93DF93282F30E0AE
:103F1000F901EF5DFB4F8491F901E550FB4FD4911E
:103F2000F901EB54FB4FC491CC2389F08111A7DD3B
:103F3000EC2FF0E0EE0FFF1FE556FB4FA591B4917B
:103F4000EC91ED2381E090E021F480E002C080E07C
:103F500090E0DF91CF9108951F93CF93DF93282FA7
:103F600030E0F901EF5DFB4F8491F901E550FB4F23
:103F7000D491F901EB54FB4FC491CC23C1F0162F1F
:103F800081117DDDEC2FF0E0EE0FFF1FEF57FB4FAF
:103F9000A591B4918FB7F894111105C09C91ED2FA4
:103FA000E095E92302C0EC91ED2BEC938FBFDF91FC
:103FB000CF911F910895CF92DF92EF92FF920F93CE
:103FC0001F93CF93DF936C018B017A01EC01CA56EA
:103FD000D44F888187FF04C0FB011182108224C066
:103FE0008CE08C9D90018D9D300D11248881A9015C
:103FF000480F511D87FD5A958091DD0C90E04817C0
:10400000590794F48881A901480F511D87FD5A95DD
:10401000CA01FA01EE0FFF1F8E0F9F1FFC01E35B29
:10402000F34F808186FD19C088818F5F88838CE083
:104030008C9D90018D9D300D11248881A901480F20
:10404000511D87FD5A958091DD0C90E04817590766
:10405000B4F488818C303CF112C08881280F311D66
:1040600087FD3A95F901EE0FFF1F2E0F3F1FF90153
:10407000E35BF34F808160E08F736EDFD5CFF80193
:1040800080819181049680349C4918F480E49CE9F5
:1040900004C0F801808191810496F70191838083A7
:1040A0008FEF888344C0F801408151818881B90134
:1040B000680F711D87FD7A95CB01FB01EE0FFF1F85
:1040C0008E0F9F1FFC01E35BF34F81819281840F70
:1040D000951FF701918380838881A901480F511DA5
:1040E00087FD5A95CA01FA01EE0FFF1F8E0F9F1F21
:1040F000FC01E35BF34F808186FF19C08881280FA4
:10410000311D87FD3A95F901EE0FFF1F2E0F3F1F5E
:10411000F901E35BF34F808161E08F73DF91CF9111
:104120001F910F91FF90EF90DF90CF9015CFDF910F
:10413000CF911F910F91FF90EF90DF90CF90089556
:10414000CF93DF9390E0FC01E550FB4F2491FC01FD
:10415000EB54FB4F8491882361F190E0880F991F05
:10416000FC01E959FB4FC591D491FC01EF57FB4F7E
:10417000A591B491611109C09FB7F89488812095E9
:1041800082238883EC912E230BC0623061F49FB7A9
:10419000F8943881822F809583238883EC912E2B8D
:1041A0002C939FBF06C08FB7F894E8812E2B2883ED
:1041B0008FBFDF91CF9108958230910538F0880F3D
:1041C000991F880F991F05970197F1F708958F920E
:1041D0009F92AF92BF92CF92DF92EF92FF926B01CC
:1041E0007C01A3DC4B015C01C114D104E104F104A6
:1041F000E9F09BDCDC01CB0188199909AA09BB090C
:10420000883E9340A105B10578F321E0C21AD10898
:10421000E108F10888EE880E83E0981EA11CB11C0D
:10422000C114D104E104F10421F7DECFFF90EF9037
:10423000DF90CF90BF90AF909F908F9008952FB751
:10424000F89460919B0B70919C0B80919D0B9091C9
:104250009E0B2FBF08951F920F920FB60F9211243D
:104260002F933F938F939F93AF93BF9380919B0B1B
:1042700090919C0BA0919D0BB0919E0B30919A0B4D
:1042800023E0230F2D3720F40196A11DB11D05C099
:1042900026E8230F0296A11DB11D20939A0B80934F
:1042A0009B0B90939C0BA0939D0BB0939E0B8091C6
:1042B0009F0B9091A00BA091A10BB091A20B019626
:1042C000A11DB11D80939F0B9093A00BA093A10BF8
:1042D000B093A20BBF91AF919F918F913F912F917E
:1042E0000F900FBE0F901F901895CF92DF92EF9214
:1042F000FF92CF93DF93EC01603282E078070CF0FD
:104300003DC077FD06C0653B71052CF064EB70E0A5
:1043100002C060E070E0898128E830E06901C81AD5
:10432000D10887FDD394CC0CDD1CCC0CDD1C0D2CEE
:10433000000CEE08FF088A8128E532E0281B3109CD
:1043400087FD3395220F331F220F331FC901330F0F
:10435000AA0BBB0B9C01AD012C193D094E095F094D
:10436000DB010E94034E24EB30E040E050E00E946D
:10437000DD4DC20ED31EE41EF51EB60188818033CA
:1043800080F5998148E850E0491B510997FD539504
:10439000440F551F440F551F6417750784F09A8109
:1043A00028E532E0291B310997FD3395220F331F91
:1043B000220F331FAB01261737070CF4A901425017
:1043C0005109440F551F2FB7F89490E0FC01EE0FF0
:1043D000FF1F8E0F9F1FFC01E35BF34F528341834E
:1043E0002FBFDF91CF91FF90EF90DF90CF90089596
:1043F0001F920F920FB60F9211240BB60F922F93AC
:104400003F934F935F936F937F938F939F93AF935C
:10441000BF93EF93FF9348E251E064E271E080E0E4
:1044200090E0C9DDFF91EF91BF91AF919F918F9186
:104430007F916F915F914F913F912F910F900BBEA4
:104440000F900FBE0F901F9018951F920F920FB6EE
:104450000F9211240BB60F922F933F934F935F93BC
:104460006F937F938F939F93AF93BF93EF93FF933C
:1044700048EA50E064EA70E083E090E09CDDFF9160
:10448000EF91BF91AF919F918F917F916F915F91CC
:104490004F913F912F910F900BBE0F900FBE0F9039
:1044A0001F9018951F920F920FB60F9211240BB602
:1044B0000F922F933F934F935F936F937F938F93BD
:1044C0009F93AF93BF93EF93FF9348E950E064E964
:1044D00070E082E090E06FDDFF91EF91BF91AF91CE
:1044E0009F918F917F916F915F914F913F912F910C
:1044F0000F900BBE0F900FBE0F901F9018951F923C
:104500000F920FB60F9211240BB60F922F933F9379
:104510004F935F936F937F938F939F93AF93BF93CB
:10452000EF93FF9348E850E064E870E081E090E0AA
:1045300042DDFF91EF91BF91AF919F918F917F915C
:104540006F915F914F913F912F910F900BBE0F9004
:104550000FBE0F901F901895CF93DF93EC018881C9
:10456000D3DC21E0892B09F420E02C878C81CCDC82
:1045700021E0892B09F420E02E878E899F890197FD
:10458000C1F48A81C1DC21E0892B09F420E02D8768
:104590008E81BADC21E0892B09F420E02F879C85ED
:1045A0008D85981749F08E85821731F09A878B8711
:1045B00003C08C858A872B87DF91CF9108950F9355
:1045C000FC019285908783858187A689B789119799
:1045D00021F4621721F0401711F062874387838529
:1045E0008823D1F0828591110AC08823A9F080899F
:1045F0009189A289B3890197A109B10909C08111E3
:104600000BC080899189A289B3890196A11DB11D32
:10461000808B918BA28BB38B0F910895CF93DF93F7
:10462000FC01A489B589C08DD18D20893189428949
:104630005389A03187E2B80759F01A161B0644F4D3
:104640000E94034E20E137E240E050E00E94DD4D41
:10465000DE010E94034EDF91CF910895FC0181E0BD
:1046600090E0938F828F1182108215821482108ABB
:10467000118A128A138A178A168A80E197E2958B2B
:10468000848B1286108614861586168617860895E2
:10469000089508950F931F93CF93DF93FC0120811A
:1046A000318121153105D1F1EC01822F2DDC21E082
:1046B000892B09F420E02B876A85261729F01E82B2
:1046C0001F82188619860BC08E819F81A885B985A7
:1046D0000196A11DB11D8E839F83A887B9870E8186
:1046E0001F81288539858A819B81AC81BD8108170E
:1046F00019072A073B0794F081E0682788812CDCA2
:104700000990D881C02D0E94D80440E050E0BE013D
:10471000DF91CF911F910F910C94CB06DF91CF9138
:104720001F910F910895CF92DF92EF92FF920F9316
:104730001F93CF93DF937C016B018A01E9019BD723
:10474000F601EE0FFF1FEE0FFF1FEA5AF84F8081B0
:104750009181F701918380838ED7000F111F000F85
:10476000111FF801EA5AF84F81E0408151816281BE
:104770007381413051056105710509F080E0F70151
:10478000828779D7CC0FDD1FCC0FDD1FCA5AD84FD7
:1047900088819981AA81BB81F70182839383A48355
:1047A000B5831682178210861186DF91CF911F91F3
:1047B0000F91FF90EF90DF90CF90089508958FEFC5
:1047C0009FEF0895603E710508F0D8C3FB0188276C
:1047D000EA56FF4F8F4F0C94404F81E090E0A0E0ED
:1047E000B0E08093560790935707A0935807B09373
:1047F0005907089510925A0710925B0710925C07B0
:1048000010925D07089510925E0710925F07109254
:10481000600710926107089581E090E0A0E0B0E0A9
:104820008093620790936307A0936407B093650732
:104830000895109266071092670710926807109209
:104840006907089583E090E0A0E0B0E080936A07F4
:1048500090936B07A0936C07B0936D07089588E75A
:1048600090E0A0E0B0E08093820790938307A0934C
:104870008407B0938507089588E790E0A0E0B0E052
:104880008093860790938707A0938807B093890742
:10489000089588E790E0A0E0B0E080938A079093C5
:1048A0008B07A0938C07B0938D0708951092920701
:1048B0001092930710929407109295070895109202
:1048C00096071092970710929807109299070895EB
:1048D00081E090E0A0E0B0E080939A0790939B077E
:1048E000A0939C07B0939D07089510929E07109285
:1048F0009F071092A0071092A10708951092A20797
:104900001092A3071092A4071092A5070895109281
:10491000A6071092A7071092A8071092A90708955A
:104920001092AA071092AB071092AC071092AD0735
:1049300008951092AE071092AF071092B007109230
:10494000B10708951092B2071092B3071092B407FE
:104950001092B50708951092BA071092BB071092F3
:10496000BC071092BD0708951092BE071092BF07B2
:104970001092C0071092C10708951092C2071092BA
:10498000C3071092C4071092C50708951092D2076A
:104990001092D3071092D4071092D5070895109261
:1049A000D6071092D7071092D8071092D90708950A
:1049B0001092DA071092DB071092DC071092DD07E5
:1049C000089581E090E0A0E0B0E08093E607909346
:1049D000E707A093E807B093E907089581E090E026
:1049E000A0E0B0E08093EA079093EB07A093EC0778
:1049F000B093ED0708958CE291E0A0E0B0E08093E1
:104A0000FA079093FB07A093FC07B093FD07089566
:104A10008CE291E0A0E0B0E08093FE079093FF0766
:104A2000A0930008B093010808958CE291E0A0E003
:104A3000B0E08093020890930308A0930408B09319
:104A40000508089510920A0810920B0810920C089D
:104A500010920D08089510920E0810920F081092EF
:104A6000100810921108089510921208109213085D
:104A700010921408109215080895109222081092AE
:104A800023081092240810922508089510922608F1
:104A9000109227081092280810922908089581E0A2
:104AA00090E0A0E0B0E080932A0890932B08A093B8
:104AB0002C08B0932D08089585E090E0A0E0B0E0C8
:104AC0008093320890933308A0933408B09335084C
:104AD000089585E090E0A0E0B0E0809336089093E0
:104AE0003708A0933808B0933908089589E190E019
:104AF000A0E0B0E080933A0890933B08A0933C0874
:104B0000B0933D08089582E390E0A0E0B0E0809388
:104B10004A0890934B08A0934C08B0934D08089511
:104B200082E390E0A0E0B0E080934E0890934F08BD
:104B3000A0935008B0935108089582E390E0A0E05C
:104B4000B0E08093520890935308A0935408B09318
:104B50005508089582E390E0A0E0B0E080935A0801
:104B600090935B08A0935C08B0935D08089582E37E
:104B700090E0A0E0B0E080935E0890935F08A0937F
:104B80006008B0936108089582E390E0A0E0B0E08F
:104B90008093620890936308A0936408B0936508BB
:104BA000089580E991E0A0E0B0E0809372089093CE
:104BB0007308A0937408B0937508089580E991E094
:104BC000A0E0B0E08093760890937708A0937808EF
:104BD000B0937908089580E991E0A0E0B0E0809377
:104BE0007A0890937B08A0937C08B0937D08089581
:104BF00010928208109283081092840810928508FF
:104C000008951092860810928708109288081092D2
:104C10008908089510928A0810928B0810928C08C7
:104C200010928D08089510929A0910929B09109283
:104C30009C0910929D09089510929E0910929F0957
:104C40001092A0091092A10908951092A209109241
:104C5000A3091092A4091092A50908951092EA08D8
:104C60001092EB081092EC081092ED080895109243
:104C7000EE081092EF081092F0081092F1080895D3
:104C80001092F2081092F3081092F4081092F508AE
:104C900008951092FA081092FB081092FC081092E6
:104CA000FD0808951092FE081092FF081092000966
:104CB00010920109089510920209109203091092AE
:104CC000040910920509089585E090E0A0E0B0E0A5
:104CD0008093120990931309A0931409B0931509B6
:104CE000089585E090E0A0E0B0E0809316099093ED
:104CF0001709A0931809B0931909089585E090E069
:104D0000A0E0B0E080931A0990931B09A0931C09BE
:104D1000B0931D09089584EB95E1A0E0B0E0809385
:104D2000220990932309A0932409B093250908959B
:104D300084EB95E1A0E0B0E08093260990932709E9
:104D4000A0932809B0932909089584EB95E1A0E088
:104D5000B0E080932A0990932B09A0932C09B0937B
:104D60002D09089585E090E0A0E0B0E080933A0935
:104D700090933B09A0933C09B0933D09089585E0C9
:104D800090E0A0E0B0E080933E0990933F09A093AB
:104D90004009B0934109089585E090E0A0E0B0E0BB
:104DA0008093420990934309A0934409B093450925
:104DB000089510924A0910924B0910924C091092D2
:104DC0004D09089510924E0910924F091092500902
:104DD000109251090895109252091092530910929D
:104DE00054091092550908951092620910926309AE
:104DF0001092640910926509089510926609109244
:104E000067091092680910926909089510926A0959
:104E100010926B0910926C0910926D09089510920E
:104E20007A0A10927B0A10927C0A10927D0A0895E9
:104E30008CE390E0A0E0B0E080937E0A90937F0A3C
:104E4000A093800AB093810A089581E090E0A0E0E9
:104E5000B0E08093820A9093830AA093840AB0936F
:104E6000850A089510928A0A10928B0A10928C0A71
:104E700010928D0A08958CE390E0A0E0B0E080935A
:104E80008E0A90938F0AA093900AB093910A089586
:104E900081E090E0A0E0B0E08093920A9093930AC2
:104EA000A093940AB093950A08951092A20A1092C2
:104EB000A30A1092A40A1092A50A08958CE390E028
:104EC000A0E0B0E08093A60A9093A70AA093A80A56
:104ED000B093A90A089581E090E0A0E0B0E080934B
:104EE000AA0A9093AB0AA093AC0AB093AD0A0895B6
:104EF0001092B20A1092B30A1092B40A1092B50A34
:104F000008958CE390E0A0E0B0E08093B60A90931F
:104F1000B70AA093B80AB093B90A089581E090E067
:104F2000A0E0B0E08093BA0A9093BB0AA093BC0AB9
:104F3000B093BD0A08951092CA0A1092CB0A10923B
:104F4000CC0A1092CD0A08958CE390E0A0E0B0E086
:104F50008093CE0A9093CF0AA093D00AB093D10A3F
:104F6000089581E090E0A0E0B0E08093D20A9093B1
:104F7000D30AA093D40AB093D50A0895660F771F79
:104F8000660F771FFB01EA5AF84F108211821282D6
:104F9000138208950F931F93CF93DF93FB01C2A158
:104FA000D3A1068D178D8091A60B9091A70B892B0D
:104FB00041F481E090E00E9404479093A70B809316
:104FC000A60B0430110539F00530110541F4BE017E
:104FD00081EE9CE003C0BE018EED9CE086D980E0AE
:104FE00090E0DF91CF911F910F9108950C94994714
:104FF0000C9499470C9499470C9499470C949947B1
:105000000C9499478F929F92AF92BF92CF92DF926A
:10501000EF92FF920F931F930E94521A1F921F92BA
:1050200021E02F931F921F92812C912CA12CB12C47
:10503000C12CD12C760197018601B701A6010E94EF
:10504000150D0F900F900F900F900F9080E090E053
:105050001F910F91FF90EF90DF90CF90BF90AF9096
:105060009F908F9008954F925F926F927F928F9250
:105070009F92AF92BF92CF92DF92EF92FF920F93E7
:105080001F93CF93DF9300D01F92CDB7DEB7FB0104
:105090001689078982889388A684B784C284D384BA
:1050A000E484F58446805780608471844281538112
:1050B0006481758149835A836B837C830E94521A71
:1050C0001F921F921F920F931F9393018201498198
:1050D0005A816B817C810E94150D0F900F900F906B
:1050E0000F900F9080E090E00F900F900F900F9036
:1050F000DF91CF911F910F91FF90EF90DF90CF90B4
:10510000BF90AF909F908F907F906F905F904F90E7
:1051100008958F929F92AF92BF92CF92DF92EF92BB
:10512000FF920F931F930E94521A21E02F931F9218
:105130001F921F921F92812C912CA12CB12CC12C5B
:10514000D12C760197018601B701A6010E94150DA9
:105150000F900F900F900F900F9080E090E01F91B4
:105160000F91FF90EF90DF90CF90BF90AF909F9006
:105170008F90089585E496E00E94CC3A0E948E06B6
:105180000E9449070E948E060E94AA050E94D80428
:1051900040E050E068E070E00E94CB060E94D80436
:1051A00040E050E069E070E00E94CB060E94D80425
:1051B00040E050E06AE070E00E94CB060E94D80414
:1051C00040E050E06DE070E00E94CB0680E090E0AF
:1051D00008954F925F926F927F928F929F92AF92BB
:1051E000BF92CF92DF92EF92FF92CF93DF935B015A
:1051F000EB01CC0FDD1FCE010E94C74D482E512C74
:10520000612C712CCE0101960E94C74DC82ED12C65
:10521000E12CF12C8DE8A81AB10883E0A816B1049E
:1052200088F5CE0144960E94C74D882E912CA12C62
:10523000B12CCE0145960E94C74D482F50E060E04A
:1052400070E08FEF88169104A104B104A9F44F3FD8
:1052500051056105710581F48FEF48165104610411
:10526000710481F48FEFC816D104E104F10451F404
:105270006FEF7FEFCB012BC0403851056105710501
:105280006CF0F6CF80E8C816D104E104F10484F78D
:1052900040E050E0BA01812C912C5401FE2CED2C01
:1052A000DC2CCC24C40CD51CE61CF71C540199241E
:1052B0008824C80CD91CEA1CFB1C742F66275527B0
:1052C0004427CB01BA016C0D7D1D8E1D9F1DDF9102
:1052D000CF91FF90EF90DF90CF90BF90AF909F90D5
:1052E0008F907F906F905F904F9008950F93CF9322
:1052F000DF938091A30B811173C081E08093A30B96
:105300000E94521AEC0106B126B140910001609151
:1053100000010295017026FB222720F94170669555
:10532000617082589E4F4BD906B126B140B160B131
:10533000017022FB222720F943FB442740F96695A0
:105340006170CE0186569E4F3AD902B322B340B166
:1053500060B1017022FB222720F9441F4427441F1B
:1053600065FB662760F9CE018A549E4F28D9FE015D
:10537000E159FF4F8081882361F07097808191818E
:10538000A281B3810196A11DB11D80839183A28367
:10539000B383FE01E751FF4F8081882361F070974E
:1053A00080819181A281B3810196A11DB11D80836D
:1053B0009183A283B383FE01ED59FE4F8081882340
:1053C00069F0CD5ADE4F88819981AA81BB8101960F
:1053D000A11DB11D88839983AA83BB831092A30B5F
:1053E000DF91CF910F91089508950895089508953C
:1053F00008956E3471050CF050C06B3471050CF0DB
:105400008FC06C32710554F5693271050CF088C09B
:105410006831710594F46F3071050CF081C066300D
:10542000710544F4623071050CF07AC0672B09F005
:1054300075C076C06B5071096EC0623271053CF464
:105440006F3171050CF06CC06951710964C0645210
:1054500071096230710508F061C062C06A3371057C
:105460007CF4673371050CF05BC06D3271050CF490
:1054700055C0603371050CF453C0635371094BC0C0
:10548000643471053CF4613471050CF049C06D530E
:10549000710941C0675471093EC066387105F4F462
:1054A00063387105ECF56237710564F46F36710588
:1054B000BCF56536710594F1683671058CF1695655
:1054C000710929C06C37710534F46937710544F5E9
:1054D0006357710920C06D5771091DC0603D71058A
:1054E0007CF46D3C7105E4F46439710534F4613980
:1054F0007105B4F46D5871090EC0695C71090BC077
:105500006A3D710534F4673D710554F4635D7109BA
:1055100002C06D5D71096330710510F080E008957F
:1055200081E008950F931F93CF93DF938C01C0E028
:10553000D0E0BE01C8015DDF882319F0BE01C801BB
:1055400041D92196C13ED105A1F7DF91CF911F919D
:105550000F910895EF92FF920F931F93CF93DF93D4
:1055600000D01F92CDB7DEB78B017B01EE0CFF1C84
:10557000622FC70129833A834B835C830E94CF4DFE
:1055800029813A814B815C81992757FD9A95852F16
:10559000742F632FC70101960E94CF4D0D5811093A
:1055A00029813A814B815C8103301105A8F4BA014D
:1055B000992777FD9095892FC70144960E94CF4D7A
:1055C00029813A814B815C81652F7727882799272C
:1055D000C70145960E94CF4D80E090E00F900F905C
:1055E0000F900F90DF91CF911F910F91FF90EF904F
:1055F0000895CF92DF92EF92FF92CF93DF93EB016A
:10560000F8DE882359F1FE01EE0FFF1FEE0FFF1F9A
:10561000EA5AF84FC080D180E280F3808CE496E0B3
:105620000E94CC3A8DEE94E00E94CC3A86EE94E053
:105630000E94CC3ACE010E943F3B8DEE94E00E9446
:10564000CC3A88EE94E00E94CC3AC701B6010E94A1
:10565000183B0E948E060E94980504C08DE994E0D4
:105660000E94CC3A80E090E0DF91CF91FF90EF90E4
:10567000DF90CF900895EF92FF920F931F93CF93F7
:10568000DF938091A40B9091A50B892B09F064C046
:1056900084E090E00E940447EC0160E070E099DD56
:1056A00016161706F4F0CE013DDF96E5E92E97E0D9
:1056B000F92E00E010E0B801CE019BDE882341F016
:1056C000F7012081318142815381B801CE0142DF4F
:1056D0000F5F1F4FF4E0EF0EF11C0639110559F76B
:1056E00037C063E070E0CE0174DD61307105810583
:1056F000910561F586E5E82E87E0F82E00E010E0E0
:10570000B801CE0176DE8823C1F0B801CE0161DD9B
:10571000F70160837183828393836F3F7F4F8F4F45
:105720009F4F59F4B801CE014DD8F7012081318146
:1057300042815381B801CE010DDF0F5F1F4FF4E0AE
:10574000EF0EF11C013E1105D9F602C0CE01EADED2
:10575000D093A50BC093A40B8091A40B9091A50BA3
:10576000DF91CF911F910F91FF90EF900895CF930C
:10577000DF93FB01C68DD78D7EDFBE013ADF80E06F
:1057800090E0DF91CF91089508952F923F924F922C
:105790005F926F927F928F929F92AF92BF92CF92C1
:1057A000DF92EF92FF920F931F93CF93DF93CDB7CA
:1057B000DEB760970FB6F894DEBF0FBECDBF988BF3
:1057C0008F8759DFEF85F889E751FE4F81E04091DF
:1057D0002208509123086091240870912508452BD8
:1057E000462B472B09F480E0808345DFEF85F8895D
:1057F000E651FE4F81E040912608509127086091C4
:10580000280870912908452B462B472B09F480E086
:10581000808331DFEF85F889E551FE4F81E04091CB
:105820002A0850912B0860912C0870912D08452B67
:10583000462B472B09F480E080831DDF809172089E
:1058400090917308A0917408B0917508EF85F8895C
:10585000E451FE4F80839183A283B3830CDF809158
:10586000760890917708A0917808B0917908EF8533
:10587000F889E051FE4F80839183A283B383FBDEDE
:1058800080917A0890917B08A0917C08B0917D0866
:10589000EF85F889EC50FE4F80839183A283B38318
:1058A000EADE80914A0890914B08A0914C08B09193
:1058B0004D08EF85F889EC5FFD4F80839183A283CB
:1058C000B383D9DE80914E0890914F08A091500883
:1058D000B0915108EF85F889E85FFD4F808391838F
:1058E000A283B383C8DE8091520890915308A0919F
:1058F0005408B0915508EF85F889E45FFD4F808327
:105900009183A283B383B7DE80915A0890915B089C
:10591000A0915C08B0915D08EF85F889E05FFD4FCC
:1059200080839183A283B383A6DE80915E089091E9
:105930005F08A0916008B0916108EF85F889EC5E7E
:10594000FD4F80839183A283B38395DE80916208AB
:1059500090916308A0916408B0916508EF85F8897B
:10596000E85EFD4F80839183A283B38384DE8091C0
:10597000FA079091FB07A091FC07B091FD07EF8516
:10598000F889E45EFD4F80839183A283B38373DE45
:105990008091FE079091FF07A0910008B091010847
:1059A000EF85F889E05EFD4F80839183A283B38306
:1059B00062DE8091020890910308A0910408B091E2
:1059C0000508EF85F889EC5DFD4F80839183A28304
:1059D000B38351DEEF85F889E85DFD4F81E02091CA
:1059E000D2073091D3072130310509F080E0808360
:1059F00042DEEF85F889E75DFD4F81E02091D60713
:105A00003091D7072130310509F080E0808333DE03
:105A1000EF85F889E65DFD4F81E02091DA0730914E
:105A2000DB072130310509F080E0808324DEEF853B
:105A3000F889EA5BFD4F81E04091AA075091AB07DE
:105A40006091AC077091AD07452B462B472B09F4AD
:105A500080E0808310DEEF85F889E95BFD4F81E00F
:105A60004091AE075091AF076091B0077091B107B8
:105A7000452B462B472B09F480E08083FCDDEF8526
:105A8000F889E85BFD4F81E04091B2075091B30780
:105A90006091B4077091B507452B462B472B09F44D
:105AA00080E08083E8DDEF85F889E75BFD4F81E0EA
:105AB0004091820850918308609184087091850814
:105AC000452B462B472B09F480E08083D4DDEF85FE
:105AD000F889E65BFD4F81E0409186085091870888
