:10000000A2C20000D1C20000CFC20000CDC20000D9
:10001000CBC20000C9C20000C7C20000C5C20000B8
:10002000C3C20000C1C20000BFC20000BDC20000C8
:10003000BBC20000B9C20000B7C20000B5C20000D8
:10004000B3C200000C94D309AFC20000ADC20000DF
:100050000C94000AA9C20000A7C200000C947F08FB
:10006000A3C200005FC6000034C600009DC20000AD
:100070009BC2000099C2000097C2000095C2000018
:100080000C94A60991C200008FC200008DC200002E
:100090008BC2000089C2000087C2000085C2000038
:1000A00083C2000081C200000C9479097DC2000067
:1000B0007BC2000079C2000077C200000C944C099A
:1000C00073C2000071C200006FC200006DC2000068
:1000D0006BC2000069C2000067C2000065C2000078
:1000E00063C2000012041504040408040E044C0446
:1000F00019041D04230427042B0431043504390496
:100100004C043F0443044704D10AD80ADD0AE20A3A
:10011000E90AEE0AD70CD70CD70CD70CD70CF50A86
:10012000FC0A030BD70C0A0B0F0B140B1B0B200B39
:10013000250B2A0B2F0B340BD70C390B3E0B430B23
:10014000D70CD70CD70C480B4D0B520BD70CD70C38
:10015000570B5E0BD70CD70CD70C650B6C0B730BC6
:10016000D70C7A0B7F0B840BD70CD70CD70C890BD1
:100170008E0B930BD70C9A0BA10BA80BD70CD70C9B
:10018000D70CAF0BB60BBD0BD70CC40BCB0BD20BE4
:10019000D70CD70CD70CD90BE00BE70BD70CD70C2F
:1001A000D70CD70CD70CD70CD70CD70CD70CD70C37
:1001B000D70CD70CD70CD70CD70CD70CD70CD70C27
:1001C000D70CD70CD70CD70CD70CD70CD70CD70C17
:1001D000D70CFD0B020C070CD70C0C0C110C160CD9
:1001E000D70CD70CD70C1B0C220C290CD70C300CBD
:1001F000370C3E0CD70CD70CD70C450C4C0C530CC1
:10020000D70C5A0C5F0C640CD70CD70CD70C690CAC
:100210006E0C730CD70CD70CD70CD70CD70CD70C93
:10022000D70CD70CD70CD70CD70CEE0BF30BF80B65
:10023000D70CD70CD70CD70CD70CD70CD70CD70CA6
:10024000D70CD70CD70CD70CD70CD70CD70CD70C96
:10025000D70CD70CD70CD70CD70CD70CD70CD70C86
:10026000D70CD70CD70CD70CD70CD70CD70CD70C76
:10027000D70CD70CD70CD70CD70CD70CD70CD70C66
:10028000D70CD70CD70CD70CD70CD70CD70CD70C56
:10029000D70CD70CD70CD70CD70C780C7D0C840C52
:1002A000D70C8B0C900C970CD70CD70CD70C9E0C42
:1002B000A30CAA0CD70CB10CB60CBD0CD70CD70CE8
:1002C000D70CC40CC90CD00C921597159C15A6150B
:1002D000B0152916BA15C215CA15D415DE15E815BC
:1002E000F715011629160B1615161F1600000A0B16
:1002F00002090C0D0E0807030401000000000000B5
:1003000000000000000000000000000000000000ED
:1003100000000000000000001211100000000000AA
:1003200000000000000000000000000000000000CD
:10033000000000002100240027002A002D003000CA
:10034000330001010000040107010A01000022003E
:10035000250028002B002E0031003400020100008F
:10036000050108010B0100002000230026002900E0
:100370002C002F00320000010000030106010901DA
:1003800005050505070508080808020202020A0A11
:10039000080804040404010101010101010103032F
:1003A000030303030303040707070C0C0C0C0C0CDA
:1003B0000C0C0202020206060606060606060B0BD7
:1003C0000B0B0B0B0B0B0102102020080810204018
:1003D0001020408002010201080402010102040809
:1003E0001020408080402010080402018004020197
:1003F00080402010080402010804020101020408E0
:100400001020408001020408102040804E414E49D7
:100410004E495459494E46CDCCCC3D0AD7233C17C2
:10042000B7D13877CC2B329595E6241FB14F0A000F
:100430000020410000C84200401C4620BCBE4CCAFF
:100440001B0E5AAEC59D7400407A10F35A00A0727C
:100450004E18090010A5D4E80000E87648170000FF
:10046000E40B54020000CA9A3B000000E1F50500CD
:100470000080969800000040420F000000A0860116
:10048000000000102700000000E8030000000064E6
:1004900000000000000A0000000000010000000051
:1004A000002C76D888DC674F0823DFC1DFAE59E126
:1004B000B1B796E5E3E453C63AE651997696E8E695
:1004C000C28426EB898C9B62ED407C6FFCEFBC9C68
:1004D0009F40F2BAA56FA5F490055A2AF75C936B7A
:1004E0006CF9676DC11BFCE0E40D47FEF520E6B535
:1004F00000D0ED902E0300943577050080841E080F
:100500000000204E0A000000C80C333333330F982C
:100510006E12831141EF8D2114893BE65516CFFEF3
:10052000E6DB18D1844B381BF77C1D901DA4BBE47F
:1005300024203284725E228100C9F124ECA1E53DC1
:10054000270060415B4111241FBECFEFD1E2DEBF27
:10055000CDBF00E00CBF17E0A0E0B2E0EAEDF6E9A5
:1005600000E00BBF02C007900D92A635B107D9F786
:100570002BE0A6E5B7E001C01D92A834B207E1F771
:1005800012E0C2EAD2E000E006C021970109802F04
:10059000FE010E94E741C13AD10780E00807A9F7B0
:1005A0000E941B380C945B4B2BCDCF92DF92EF92C5
:1005B000FF920F931F93CF93DF936C017A018B010E
:1005C000C0E0D0E0CE15DF0589F0D8016D918D0136
:1005D000D601ED91FC910190F081E02DC6011995B5
:1005E000892B11F47E0102C02196ECCFC701DF9167
:1005F000CF911F910F91FF90EF90DF90CF900895D2
:10060000FC01918D828D981761F0828DDF01A80F1A
:10061000B11D5D968C91928D9F5F9F73928F90E03C
:1006200008958FEF9FEF0895FC01918D828D9817AB
:1006300031F0828DE80FF11D858D90E008958FEFE8
:100640009FEF0895FC01918D228D892F90E0805CB1
:100650009F4F821B91098F739927089584E09AE038
:10066000F1DF21E0892B09F420E0822F0895FC01BD
:10067000848DDF01A80FB11DA35ABF4F2C91848D2B
:1006800090E001968F739927848FA689B7892C9360
:10069000A089B1898C9180648C93938D848D9813FB
:1006A00006C00288F389E02D80818F7D80830895C4
:1006B000EF92FF920F931F93CF93DF93EC0181E0B2
:1006C000888F9B8D8C8D981305C0E889F98980816E
:1006D00085FD23C0F62E0B8D10E00F5F1F4F0F73AB
:1006E0001127E02E8C8DE8120BC00FB607FCFACF55
:1006F000E889F989808185FFF5CFCE01B8DFF2CF97
:100700008B8DFE01E80FF11DE35AFF4FF0820B8F36
:10071000EA89FB898081806207C0EE89FF89608356
:10072000E889F98980818064808381E090E0DF91AD
:10073000CF911F910F91FF90EF900895CF93DF938A
:10074000EC01888D8823C1F0EA89FB89808185FDD1
:1007500005C0A889B9898C9186FD0EC00FB607FC2B
:10076000F5CF808185FFF2CFA889B9898C9185FF6B
:10077000EDCFCE017CDFE8CFDF91CF91089580E00F
:1007800090E0892B19F06ADF811125C080E090E0AC
:10079000892B41F080E090E0892B21F00E9400003D
:1007A00081111CC080E090E0892B41F080E090E056
:1007B000892B21F00E940000811113C080E090E09D
:1007C000892BA1F080E090E0892B81F00E9400004D
:1007D00081110AC008950E940000D8CF0E94000035
:1007E000E1CF0E940000EACF0C940000089590E051
:1007F000FC013197E231F10508F04EC08827EE5830
:10080000FF4F8F4F0C94E741809180008F7703C09A
:10081000809180008F7D809380000895809180007A
:10082000877FF9CF84B58F7702C084B58F7D84BD73
:1008300008958091B0008F7703C08091B0008F7DC4
:100840008093B0000895809190008F7707C08091C9
:1008500090008F7D03C080919000877F80939000EF
:1008600008958091A0008F7707C08091A0008F7DB0
:1008700003C08091A000877F8093A000089580919D
:1008800020018F7707C0809120018F7D03C0809168
:100890002001877F8093200108953FB7F8948091CD
:1008A000EC099091ED09A091EE09B091EF0926B500
:1008B000A89B05C02F3F19F00196A11DB11D3FBF98
:1008C000BA2FA92F982F8827820F911DA11DB11D26
:1008D000BC01CD0142E0660F771F881F991F4A9522
:1008E000D1F708950F93FC019285908783858187C6
:1008F000A689B789119721F4621721F0401711F0EA
:100900006287438783858823D1F0828591110AC04D
:100910008823A9F080899189A289B3890197A109C7
:10092000B10909C081110BC080899189A289B3895D
:100930000196A11DB11D808B918BA28BB38B0F9162
:100940000895EBE0F1E08081877F80830895EBE0FC
:10095000F1E080818860808308958E9808958E9A52
:10096000089514980895149A089588980895889A77
:1009700008950E94E9430F931F93CF93DF93EC01F7
:1009800088819981009729F02A813B8126173707B2
:1009900088F48B016F5F7F4F0E940543009761F0E1
:1009A000998388831B830A832C813D81232B11F437
:1009B000FC01108281E001C080E0DF91CF911F91A6
:1009C0000F9108950F931F93CF93DF938091E109C7
:1009D0009091E20901969093E2098093E109809158
:1009E000E0098111C2C059DF6093DC097093DD0911
:1009F0008093DE099093DF0981E08093E0090E94F3
:100A00006D14EC0103B123B140910001609100012C
:100A1000001F0027001F221F2227221F41706695FA
:100A2000617085589E4F5EDF03B123B140B160B164
:100A3000001F0027001F221F2227221F42FB4427DE
:100A400040F966956170CE018B569E4F4BDF03B126
:100A500023B140B160B1001F0027001F221F2227D1
:100A6000221F46FB442740F9661F6627661FCE01FA
:100A700081559E4F37DFFE01E259FF4F8081882369
:100A800061F0709780819181A281B3810196A11D4F
:100A9000B11D80839183A283B383FE01E951FF4F8F
:100AA0008081882361F0709780819181A281B381D8
:100AB0000196A11DB11D80839183A283B383FE01A2
:100AC000E05AFE4F8081882369F0C05BDE4F888149
:100AD0009981AA81BB810196A11DB11D888399834B
:100AE000AA83BB83DADE6093D8097093D909809317
:100AF000DA099093DB090091DC091091DD0920915E
:100B0000DE093091DF09061717072807390770F447
:100B1000DC01CB01801B910BA20BB30B8093D4099A
:100B20009093D509A093D609B093D7098091D409A1
:100B30009091D509A091D609B091D7094091D009DB
:100B40005091D1096091D2097091D3094817590782
:100B50006A077B0740F48093D0099093D109A09352
:100B6000D209B093D3091092E009DF91CF911F9180
:100B70000F910895EF92FF920F931F93CF93DF93FE
:100B8000FC01248135816115710511F480E018C0E4
:100B900041155105A1F07B01EC018A01020F131FE1
:100BA000B801E9DE882391F3288139818C819D8108
:100BB000B701820F931F0E94FF431D830C8381E0C6
:100BC000DF91CF911F910F91FF90EF900895EF92D9
:100BD000FF920F931F93CF93DF93CDB7DEB7649748
:100BE0000FB6F894DEBF0FBECDBF7C01CB01BA01BA
:100BF0008E010F5F1F4F22E044E00E940644BC01BB
:100C0000FC0101900020E9F73197AF01481B590B17
:100C1000C701B0DF64960FB6F894DEBF0FBECDBF3C
:100C2000DF91CF911F910F91FF90EF900895611583
:100C3000710549F0FB0101900020E9F73197AF0100
:100C4000461B570B97CF80E00895FB0144815581E7
:100C5000608171818FCFEF92FF920F931F93CF939B
:100C6000DF93EC017B018A01BA0185DE288139819D
:100C700081110DC02115310519F0C9010E94BA4436
:100C8000198218821D821C821B821A8206C01D8353
:100C90000C83B701C9010E94FF43CE01DF91CF91C0
:100CA0001F910F91FF90EF900895FC011182108227
:100CB00013821282158214826115710549F0FB01BD
:100CC00001900020E9F73197AF01461B570BC3CFC6
:100CD00008951F920F920FB60F9211240BB60F9228
:100CE0002F933F934F935F936F937F938F939F9334
:100CF000AF93BF93EF93FF9384E09AE0B8DCFF914A
:100D0000EF91BF91AF919F918F917F916F915F9183
:100D10004F913F912F910F900BBE0F900FBE0F90F0
:100D20001F9018951F920F920FB60F9211240BB6B9
:100D30000F922F938F939F93EF93FF93E091140A59
:100D4000F091150A8081E0911A0AF0911B0A82FD48
:100D500012C0908180911D0A8F5F8F7320911E0AAF
:100D6000821751F0E0911D0AF0E0EC5FF54F958F8E
:100D700080931D0A01C08081FF91EF919F918F9117
:100D80002F910F900BBE0F900FBE0F901F901895D4
:100D9000CF93DF93282F30E0F901E451FD4F849188
:100DA000F901EA53FC4FD491F901E058FC4FC4918A
:100DB000CC2389F081111BDDEC2FF0E0EE0FFF1F3B
:100DC000EA59FC4FA591B491EC91ED2381E090E0BC
:100DD00021F480E002C080E090E0DF91CF9108959F
:100DE0001F93CF93DF93282F30E0F901E451FD4F9B
:100DF0008491F901EA53FC4FD491F901E058FC4F7A
:100E0000C491CC23C1F0162F8111F1DCEC2FF0E05E
:100E1000EE0FFF1FE45BFC4FA591B4918FB7F894E0
:100E2000111105C09C91ED2FE095E92302C0EC91D2
:100E3000ED2BEC938FBFDF91CF911F910895CF924F
:100E4000DF92EF92FF920F931F93CF93DF936C018A
:100E50008B017A01EC01CD51D64F888187FF04C008
:100E6000FB011182108224C08CE08C9D90018D9D2D
:100E7000300D11248881A901480F511D87FD5A9515
:100E80008091390B90E04817590794F48881A901A3
:100E9000480F511D87FD5A95CA01FA01EE0FFF1F39
:100EA0008E0F9F1FFC01E755F54F808186FD19C00D
:100EB00088818F5F88838CE08C9D90018D9D300DA3
:100EC00011248881A901480F511D87FD5A958091F1
:100ED000390B90E048175907B4F488818C303CF105
:100EE00012C08881280F311D87FD3A95F901EE0F58
:100EF000FF1F2E0F3F1FF901E755F54F808160E07E
:100F00008F736EDFD5CFF801808191810496803494
:100F10009C4918F480E49CE904C0F8018081918127
:100F20000496F701918380838FEF888344C0F80192
:100F3000408151818881B901680F711D87FD7A95C3
:100F4000CB01FB01EE0FFF1F8E0F9F1FFC01E7552A
:100F5000F54F81819281840F951FF70191838083E2
:100F60008881A901480F511D87FD5A95CA01FA01D0
:100F7000EE0FFF1F8E0F9F1FFC01E755F54F80817D
:100F800086FF19C08881280F311D87FD3A95F90128
:100F9000EE0FFF1F2E0F3F1FF901E755F54F808120
:100FA00061E08F73DF91CF911F910F91FF90EF90D0
:100FB000DF90CF9015CFDF91CF911F910F91FF90D0
:100FC000EF90DF90CF90089560E0FC01838508CF1B
:100FD00060E0FC01858104CF61E0FC01838500CFE6
:100FE00061E0FC018581FCCECF93DF9390E0FC01B2
:100FF000EA53FC4F2491FC01E058FC4F8491882374
:1010000061F190E0880F991FFC01EE5CFC4FC591E7
:10101000D491FC01E45BFC4FA591B491611109C02E
:101020009FB7F8948881209582238883EC912E23A2
:101030000BC0623061F49FB7F8943881822F80959D
:1010400083238883EC912E2B2C939FBF06C08FB7F0
:10105000F894E8812E2B28838FBFDF91CF910895DC
:101060008230910538F0880F991F880F991F0597D6
:101070000197F1F708958F929F92AF92BF92CF920E
:10108000DF92EF92FF926B017C0107DC4B015C0168
:10109000C114D104E104F104E9F0FFDBDC01CB0170
:1010A00088199909AA09BB09883E9340A105B10591
:1010B00078F321E0C21AD108E108F10888EE880E21
:1010C00083E0981EA11CB11CC114D104E104F104F9
:1010D00021F7DECFFF90EF90DF90CF90BF90AF90E1
:1010E0009F908F9008952FB7F8946091E8097091C0
:1010F000E9098091EA099091EB092FBF08951F92A9
:101100000F920FB60F9211242F933F938F939F93BB
:10111000AF93BF938091E8099091E909A091EA0902
:10112000B091EB093091E70923E0230F2D3720F42C
:101130000196A11DB11D05C026E8230F0296A11D31
:10114000B11D2093E7098093E8099093E909A093E2
:10115000EA09B093EB098091EC099091ED09A09117
:10116000EE09B091EF090196A11DB11D8093EC0924
:101170009093ED09A093EE09B093EF09BF91AF9161
:101180009F918F913F912F910F900FBE0F901F90C5
:101190001895CF92DF92EF92FF92CF93DF93EC01FD
:1011A000603282E078070CF03DC077FD06C0653BF9
:1011B00071052CF064EB70E002C060E070E08981A2
:1011C00028E830E06901C81AD10887FDD394CC0C17
:1011D000DD1CCC0CDD1C0D2C000CEE08FF088A81F8
:1011E00028E532E0281B310987FD3395220F331F94
:1011F000220F331FC901330FAA0BBB0B9C01AD019A
:101200002C193D094E095F09DB010E94244B24EB98
:1012100030E040E050E00E94FE4AC20ED31EE41EC1
:10122000F51EB6018881803380F5998148E850E049
:10123000491B510997FD5395440F551F440F551FE6
:101240006417750784F09A8128E532E0291B31097B
:1012500097FD3395220F331F220F331FAB01261743
:1012600037070CF4A90142505109440F551F2FB7FD
:10127000F89490E0FC01EE0FFF1F8E0F9F1FFC0102
:10128000E755F54F528341832FBFDF91CF91FF90F8
:10129000EF90DF90CF9008951F920F920FB60F92AC
:1012A00011240BB60F922F933F934F935F936F933D
:1012B0007F938F939F93AF93BF93EF93FF9348E2F6
:1012C00051E064E271E080E090E0B9DDFF91EF91E0
:1012D000BF91AF919F918F917F916F915F914F914E
:1012E0003F912F910F900BBE0F900FBE0F901F904C
:1012F00018951F920F920FB60F9211240BB60F92F2
:101300002F933F934F935F936F937F938F939F930D
:10131000AF93BF93EF93FF9348EA50E064EA70E025
:1013200083E090E08CDDFF91EF91BF91AF919F91B1
:101330008F917F916F915F914F913F912F910F907E
:101340000BBE0F900FBE0F901F9018951F920F921B
:101350000FB60F9211240BB60F922F933F934F931A
:101360005F936F937F938F939F93AF93BF93EF930D
:10137000FF9348E950E064E970E082E090E05FDDCF
:10138000FF91EF91BF91AF919F918F917F916F915D
:101390005F914F913F912F910F900BBE0F900FBE19
:1013A0000F901F9018951F920F920FB60F92112455
:1013B0000BB60F922F933F934F935F936F937F934F
:1013C0008F939F93AF93BF93EF93FF9348E850E0C1
:1013D00064E870E081E090E032DDFF91EF91BF9131
:1013E000AF919F918F917F916F915F914F913F91BD
:1013F0002F910F900BBE0F900FBE0F901F9018955E
:101400001F920F920FB60F9211240BB60F922F93CB
:101410003F934F935F936F937F938F939F93AF937C
:10142000BF93EF93FF93E0915607F09157071995FB
:10143000FF91EF91BF91AF919F918F917F916F91AC
:101440005F914F913F912F910F900BBE0F900FBE68
:101450000F901F901895CF93DF93EC01888198DC53
:1014600021E0892B09F420E02C878C8191DC21E09C
:10147000892B09F420E02E878E899F890197C1F47A
:101480008A8186DC21E0892B09F420E02D878E817A
:101490007FDC21E0892B09F420E02F879C858D8556
:1014A000981749F08E85821731F09A878B8703C091
:1014B0008C858A872B87DF91CF910895CF93DF9317
:1014C000FC01A489B589C08DD18D208931894289DB
:1014D0005389A436B10559F01A161B0644F40E942C
:1014E000244B24E630E040E050E00E94FE4ADE015A
:1014F0000E94244BDF91CF910895FC01118210824C
:1015000015821482108A118A128A138A178A168AFF
:1015100084E690E0958B848B12861086148615865F
:10152000168617860895CF93DF93EC01FC01E859E6
:10153000FF4F1082379781E0808360E08D8150DC1F
:101540008F859889892B29F060E08B85DF91CF9179
:1015500047CCDF91CF910895CF93DF93EC018B8936
:1015600017DC892B11F08E8901C080E0DF91CF91CB
:101570000895CF93DF93EC0189890ADC892B11F060
:101580008E8901C080E0DF91CF910895603E7105A2
:1015900008F00DC2FB018827EC57FF4F8F4F0C94CA
:1015A000E74181E090E090935B0780935A070895AC
:1015B00010925D0710925C07089510925F071092D9
:1015C0005E07089581E090E0909361078093600743
:1015D00008951092630710926207089583E090E0E7
:1015E0009093650780936407089588E790E090934F
:1015F000710780937007089588E790E090937307D0
:1016000080937207089588E790E090937507809320
:101610007407089510927907109278070895109230
:101620007B0710927A07089581E090E090937D0700
:1016300080937C07089510927F0710927E0708958B
:1016400010928107109280070895109283071092DC
:1016500082070895109285071092840708951092CA
:1016600087071092860708951092890710928807BD
:10167000089510928D0710928C07089510928F078D
:1016800010928E0708951092910710929007089576
:101690001092990710929807089510929B07109244
:1016A0009A07089510929D0710929C07089581E073
:1016B00090E09093A3078093A207089581E090E0C3
:1016C0009093A5078093A40708958CE291E09093EE
:1016D000AD078093AC0708958CE291E09093AF073B
:1016E0008093AE0708958CE291E09093B1078093C8
:1016F000B00708951092B5071092B407089510929C
:10170000B7071092B60708951092B9071092B8075C
:1017100008951092C1071092C00708951092C30750
:101720001092C207089581E090E09093C5078093DE
:10173000C407089585E090E09093C9078093C80797
:10174000089585E090E09093CB078093CA070895B1
:1017500089E190E09093CD078093CC07089582E3D0
:1017600090E09093D5078093D407089582E390E0AA
:101770009093D7078093D607089582E390E09093E3
:10178000D9078093D807089582E390E09093DD070E
:101790008093DC07089582E390E09093DF078093C5
:1017A000DE07089582E390E09093E1078093E007DD
:1017B000089580E991E09093E9078093E807089500
:1017C00080E991E09093EB078093EA07089580E920
:1017D00091E09093ED078093EC07089510927D08B7
:1017E00010927C08089510927F0810927E08089548
:1017F0001092810810928008089510922508109286
:10180000240808951092270810922608089510922F
:10181000290810922808089510922D0810922C087B
:10182000089510922F0810922E08089510923108F2
:1018300010923008089585E090E0909339088093E5
:101840003808089585E090E090933B0880933A082B
:10185000089585E090E090933D0880933C080895BA
:1018600088E390E09093410880934008089588E3CE
:1018700090E09093430880934208089588E390E0B5
:101880009093450880934408089585E090E09093F4
:101890004D0880934C08089585E090E090934F08A0
:1018A00080934E08089585E090E0909351088093CE
:1018B00050080895109255081092540808951092F7
:1018C0005708109256080895109259081092580817
:1018D00008951092610810926008089510926308AC
:1018E0001092620808951092650810926408089595
:1018F0001092ED081092EC0808958CE390E090931C
:10190000EF088093EE08089581E090E09093F1084D
:101910008093F00808951092F5081092F408089545
:101920008CE390E09093F7088093F608089581E0A7
:1019300090E09093F9088093F808089510920109B7
:101940001092000908958CE390E09093030980932E
:101950000209089581E090E09093050980930409BD
:101960000895109209091092080908958CE390E0F7
:1019700090930B0980930A09089581E090E0909379
:101980000D0980930C0908951092150910921409FD
:1019900008958CE390E090931709809316090895B9
:1019A00081E090E090931909809318090895660FDB
:1019B000771FFB01E65AF84F1182108208958FEFCE
:1019C0009FEF08958BE794E00E94E53681E193E074
:1019D0000E94E5360E941A220E94392180E090E0A0
:1019E00008950C94BA440C94BA440C94BA440C94E0
:1019F000BA440C94BA440C94BA440C94BA440C946F
:101A0000BA440C94BA440C94BA440C94BA448F92DD
:101A10009F92AF92BF92CF92DF92EF92FF920F937D
:101A20001F93CF935AD7C1E0CF931F921F921F925B
:101A30001F92812C912CA12CB12CC12CD12C760180
:101A400097018601B701A6010E94EB1646D71F92A7
:101A5000CF93CF931F921F9297018601B701A601E2
:101A60000E94EB168DB79EB70A960FB6F8949EBFEC
:101A70000FBE8DBF80E090E0CF911F910F91FF903E
:101A8000EF90DF90CF90BF90AF909F908F90089590
:101A90004F925F926F927F928F929F92AF92BF927E
:101AA000CF92DF92EF92FF920F931F93CF93DF932A
:101AB00000D01F92CDB7DEB7FB0116890789828857
:101AC0009388A684B784C284D384E484F584468052
:101AD0005780608471844281538164817581498318
:101AE0005A836B837C83F9D61F921F921F920F93A8
:101AF0001F939301820149815A816B817C810E94ED
:101B0000EB160F900F900F900F900F9080E090E0E9
:101B10000F900F900F900F90DF91CF911F910F9129
:101B2000FF90EF90DF90CF90BF90AF909F908F90FD
:101B30007F906F905F904F900895CF93DF93EB016C
:101B400020E030E040E85FE36A817B818C819D8109
:101B50000E94CC49811112C080E894E00E94E536D1
:101B6000BCD6FC01E35BFF4F10821182128213820C
:101B7000E25DFE4F108A118A128A138A20E030E05B
:101B800040E85FE36E817F81888599850E94CC491A
:101B9000811112C080E994E00E94E5369ED6FC01D6
:101BA000EA53FF4F1082118212821382E153FF4FDA
:101BB000108A118A128A138A20E030E040E85FE33D
:101BC0006A857B858C859D850E94CC49811112C0D8
:101BD00080EA94E00E94E53680D6FC01E15CFE4F8D
:101BE0001082118212821382E059FF4F108A118AEB
:101BF000128A138A0E941A220E94392180E090E002
:101C0000DF91CF9108950E941A220E948C2180E0DA
:101C100090E0089580EB94E00E94E5360E941A223D
:101C20000E9481220E941A220E944B210E94361695
:101C300040E050E068E070E0C5D60E94361640E013
:101C400050E069E070E0BED60E94361640E050E0F9
:101C50006AE070E0B7D60E94361640E050E06DE0D2
:101C600070E0B0D680E090E008950F931F93CF937B
:101C7000DF93FB01C2A1D3A1068D178D8091F009DE
:101C80009091F109892B41F481E090E00E94254474
:101C90009093F1098093F0090430110539F0053073
:101CA000110541F4BE018DE39BE003C0BE018AE350
:101CB0009BE06FDA80E090E0DF91CF911F910F9170
:101CC00008956F927F928F929F92AF92BF92CF9220
:101CD000DF92EF92FF920F931F93CF93DF93FB015D
:101CE000E2A8F3A886A497A4A0A8B1A8C6A0D7A0EC
:101CF00062A073A0068D178DB9D7EC019701A301DF
:101D0000B801CCD6C501B401B6D99701A601B80176
:101D1000CE01C4D680E090E0DF91CF911F910F916A
:101D2000FF90EF90DF90CF90BF90AF909F908F90FB
:101D30007F906F9008950F931F93CF93DF931F921F
:101D4000CDB7DEB78B01000F111F642FC801598377
:101D50000E94F04A5981652FC80101960E94F04AFD
:101D600080E090E00F90DF91CF911F910F91089547
:101D70000F931F93CF93DF93EB0197D7882331F114
:101D8000FE01EE0FFF1FE65AF84F0081118187EB2D
:101D900094E00E94E5368EE794E00E94E5368BEBF6
:101DA00094E00E94E536CE010E9416388EE794E05A
:101DB0000E94E5368DEB94E00E94E536C8010E9452
:101DC00016380E941A220E94392104C08FEB94E039
:101DD0000E94E53680E090E0DF91CF911F910F9156
:101DE0000895BF92CF92DF92EF92FF920F931F93CD
:101DF000CF93DF938091F2099091F309892B09F039
:101E000088C084E090E00E942544EC0180E090E0EE
:101E10000E94E84A182F81E090E00E94E84A482F8B
:101E200050E060E070E0762F652F542F4427812F1B
:101E300090E0480F591F141615066CF100E010E0F1
:101E4000B801CE0132D7882319F0B801CE019EDB4C
:101E50000F5F1F4F013E110599F76AE5E62E67E017
:101E6000F62E00E010E0B801CE011FD7882331F034
:101E7000F70140815181B801CE015DDF0F5F1F4F37
:101E8000F2E0EF0EF11C0639110569F7D093F30962
:101E9000C093F2093EC04AE5E42E47E0F42ECC247C
:101EA000C394D12C00E010E0B801CE01FED6882307
:101EB00021F1C801880F991F0E94E84AB82EC60177
:101EC0000E94E84A482F50E060E070E0762F652FCE
:101ED000542F44278B2D90E0480F591FF701518351
:101EE00040834F3F5F4F49F4B801CE014FDBF7010C
:101EF00040815181B801CE011EDF0F5F1F4FF2E01C
:101F0000EF0EF11C82E0C80ED11C013E110561F6F6
:101F1000BDCF8091F2099091F309DF91CF911F918C
:101F20000F91FF90EF90DF90CF90BF9008950895AC
:101F300008950895089508950895089508950895B9
:101F400008950895CF92DF92EF92FF920F931F931F
:101F5000CF93DF937C016B018A01E90142DFF60137
:101F6000EE0FFF1FE65AF84F80819181F7019183B0
:101F7000808337DF000F111FF801E65AF84F81E028
:101F8000208131812130310509F080E0F70182871D
:101F900028DFCC0FDD1FC65AD84F88819981092EC2
:101FA000000CAA0BBB0BF70182839383A483B58338
:101FB0001682178210861186DF91CF911F910F91A3
:101FC000FF90EF90DF90CF900895AF92BF92CF92A5
:101FD000DF92EF92FF920F931F93CF93DF93EC0169
:101FE0008AE190E09E8B8D8B8BE190E0988F8F8BB8
:101FF00089E190E09A8F898F8FE090E09C8F8B8FA2
:102000008EE190E09E8F8D8F8EE090E098A38F8F71
:1020100085E490E09AA389A384E490E09CA38BA339
:10202000FE01E757FF4F80E290E09683858381E2CF
:1020300090E0908787838FE190E092878187148674
:10204000138616861586108A178683E490E0928B95
:10205000818B82E490E0948B838BE758FF4F83E27F
:1020600090E09683858384E290E09087878382E284
:1020700090E0928781871486138616861586108ACB
:10208000178681E490E0928B818B80E490E0948BC2
:10209000838BE852FF4F1182108232961182108298
:1020A000329611821082CE010E94C822CE010E9477
:1020B000AA2F6E0185E8C81A8EEFD80A80E190E059
:1020C000F6019183808381E190E095838483AA2443
:1020D000AA94BA2CB382A282B782A682C601BBD9C7
:1020E000F60182858087838581877E01FBE6EF1A72
:1020F000FEEFFF0A87E190E0F7019183808388E19A
:1021000090E095838483B382A282B782A682C701BE
:10211000A2D9F70182858087838581878E01015549
:102120001E4F8DE190E0F801918380838CE190E077
:1021300095838483B382A282B782A682C8018BD999
:10214000F8018285808783858187EF50FF4F8081EA
:1021500091813C9720813181369740815181F601F0
:10216000578B468B358B248B019719F4B18EA08E3B
:1021700005C081E090E0F601918F808FFE01EE5561
:10218000FD4F808191813C9720813181369740813C
:102190005181F701578B468B358B248B019719F4AE
:1021A0008FEF9FEF03C081E090E0F701918F808F68
:1021B000FE01EC55FD4F808191813C97208131815A
:1021C000CE56DD4F48815981F801578B468B358BB0
:1021D000248B019719F48FEF9FEF03C081E090E00B
:1021E000F801918F808FDF91CF911F910F91FF9018
:1021F000EF90DF90CF90BF90AF9008952F923F92D5
:102200004F925F926F927F928F929F92AF92BF9206
:10221000CF92DF92EF92FF920F931F93CF93DF93B2
:10222000CDB7DEB7C957D1090FB6F894DEBF0FBEE0
:10223000CDBF8C01FC0110821182128213821482A4
:1022400015821682178210861186128613861486CE
:102250001586168617862C01F0E14F0E511CC2011F
:102260000E94132F680189E8C80ED11CC6010E9484
:10227000132F7801EEEFEE1AFE0AC7010E94132F0A
:102280003801F5E86F1AFEEF7F0AC30136D948011D
:102290008BE6881A8EEF980AC4012FD95801E1E520
:1022A000AE1AEEEFBE0AC50128D968EC73E0C8018A
:1022B00087539E4F0E945506F801E153FE4F11824D
:1022C00010823296118210823296118210823296DA
:1022D00011821082329610823196108231961082CD
:1022E00031961182108232961182108232961182BA
:1022F0001082329610823196108231961082319679
:1023000010821182128213823496108211821282FC
:1023100013823496108211821282138234961082B4
:1023200011821282138234961082118212821382D9
:102330003496108211821282138234961082118296
:102340001282138234961082118212821382349682
:1023500010821182128213823496108211821282AC
:102360001382349610821182128213823496108264
:102370001182128213823496108231961082319625
:10238000108231961082118212821382349610824A
:102390001182128213823496108211821282138269
:1023A00034961082319610823196108231961082C6
:1023B00031961082319610823196108231961082B9
:1023C00031961082319610823196108231961082A9
:1023D0003196108231961082319610823196108299
:1023E0003196108231961082319610823196108289
:1023F00031961082319610821182128213823496A5
:1024000010821182128213823496108211821282FB
:102410001382D801AD5BBD4F8CE0EAE1F3E001909F
:102420000D928A95E1F7F801E15BFD4F1082118270
:102430001282138234961082118212821382349691
:102440001082118212821382349611821082329687
:10245000118210823296118210823296108211827D
:102460001282138234961082118212821382349661
:10247000108211821282138234961082118212828B
:102480001382349610821182128213823496108243
:102490001182128213823496118210823296118236
:1024A000108232961182108232961082118212822C
:1024B0001382349610821182128213823496108213
:1024C00011821282138234961082319610823196D4
:1024D00010823196118210823296118210823296C9
:1024E00011821082329611821082329611821082ED
:1024F00032961182108232961182108232961182A7
:102500001082329611821082329611821082329697
:1025100011821082329611821082329611821082BC
:102520003296118210821801F6E52F1AFDEF3F0A4C
:10253000F1011082CE0101960E94132F89E7FE015E
:102540003196D20101900D928A95E1F7CE01019664
:102550000E94132F89E7FE013196D60101900D925A
:102560008A95E1F7CE0101960E94132F89E7FE01BB
:102570003196D70101900D928A95E1F788E5F8012F
:10258000808B89E5F60180838AE5F7018083CE019F
:1025900001960E947D0A8AE1FE013196D3010190E5
:1025A0000D928A95E1F7CE0101960E947D0A8AE19B
:1025B000FE013196D40101900D928A95E1F7CE018A
:1025C00001960E947D0A8AE1FE013196D5010190B3
:1025D0000D928A95E1F7C801F8DCF1011082C75825
:1025E000DF4F0FB6F894DEBF0FBECDBFDF91CF91A6
:1025F0001F910F91FF90EF90DF90CF90BF90AF9021
:102600009F908F907F906F905F904F903F902F9012
:1026100008950F931F93CF93DF938B01EA0182E319
:1026200093E00E94E5368EE794E00E94E536F801DB
:1026300080810E942637CE010E9416380E941A22FD
:10264000DF91CF911F910F910C943921CF92DF929E
:10265000EF92FF920F931F93CF93DF93CDB7DEB727
:1026600028970FB6F894DEBF0FBECDBF8B016A016D
:1026700087539E4F7C016EE273E00E9417066EE75F
:1026800074E0C7010E941706F801808189831A82CD
:1026900041E050E08E010F5F1F4FB801C7010E945B
:1026A000BA054AE0B801C6010E947F45F8010190D1
:1026B0000020E9F73197AF01401B510BB801C7016A
:1026C0000E94BA050E941A22BC01C8010E94F32090
:1026D000B801C7010E94250689819A810E94BA44E7
:1026E00028960FB6F894DEBF0FBECDBFDF91CF9115
:1026F0001F910F91FF90EF90DF90CF900895FC0114
:10270000DB01AE59BF4F8C91882319F022E030E0F5
:1027100002C020E030E0DB01AC59BF4F8C91882330
:1027200011F023E030E0DB01AD59BF4F8C918823DD
:1027300011F024E030E0DB01AB59BF4F8C918823CE
:1027400011F026E030E0DA018D919C918217930719
:1027500021F091E0121613060CF090E0DA012D93AF
:102760003C93992319F0A901CF0170CF08958F925E
:102770009F92AF92BF92CF92DF92EF92FF920F9310
:102780001F93CF93DF93EC018AE293E00E94E5363A
:102790008DE894E00E94E5366E0185E8C81A8EEF58
:1027A000D80AC6010E945E0A0E94D2494B015C0110
:1027B000FE01ED5BFD4F60817181828193810E94FA
:1027C000D2499B01AC01C501B4010E945B420E9449
:1027D00058378DE994E00E94E5367E01EBE6EE1A6B
:1027E000EEEFFE0AC7010E945E0A0E94D2494B0129
:1027F0005C01FE01E95BFD4F608171818281938103
:102800000E94D2499B01AC01C501B4010E945B4208
:102810000E9458378DEA94E00E94E5368E010155FA
:102820001E4FC8010E945E0A0E94D2494B015C0102
:10283000C55BDD4F688179818A819B810E94D24985
:102840009B01AC01C501B4010E945B420E94583754
:102850000E941A220E94392186E293E00E94E53606
:102860008DE894E00E94E536F601A08DB18D2089B7
:102870003189428953890E94244B0E9431378DE966
:1028800094E00E94E536F701A08DB18D2089318951
:10289000428953890E94244B0E9431378DEA94E08B
:1028A0000E94E536F801A08DB18D208931894289D9
:1028B00053890E94244B0E9431370E941A22DF91D3
:1028C000CF911F910F91FF90EF90DF90CF90BF902D
:1028D000AF909F908F900C943921CF93DF9380918C
:1028E000F8099091F909892B51F48BEA92E00E9442
:1028F0002544EC0183DCD093F909C093F809809159
:10290000F8099091F909DF91CF910895CF93DF9362
:10291000EC012AEC30E04BEC50E069EC70E012DBAB
:102920002EEC30E04FEC50E06DEC70E0CE010C96F8
:1029300009DB24ED30E045ED50E063ED70E0CE01C1
:10294000489600DB28ED30E049ED50E067ED70E09F
:10295000CE018496F7DA2EED30E04FED50E06DEDCC
:1029600070E0CE01C096DF91CF91ECCACF93DF9398
:102970008091F6099091F709892BE9F48CE390E0B6
:102980000E942544EC01FC01CC96118210823C96F9
:10299000E817F907D1F7198218821D861C86198E4F
:1029A000188E1DA21CA219AA18AACE01AFDFD093BF
:1029B000F709C093F6098091F6099091F709DF9124
:1029C000CF910895EF92FF920F931F93CF93DF93D0
:1029D000162F072F7A014115510559F4862F0E94B1
:1029E000C80631E020E0019709F030E0C32FD22F74
:1029F00026C04130510509F5262F663310F02AEC28
:102A0000260F80917B00922F9870877F892B80936F
:102A10007B002770206420937C0080917A00806482
:102A200080937A0080917A0086FDFCCFC091780077
:102A300080917900D0E0D82B02C0C0E0D0E082E0E5
:102A4000E816F10410F581EE94E00E94E5368EE779
:102A500094E00E94E5368BEB94E00E94E536812FEE
:102A6000902F0E9416388EE794E00E94E5368DEB99
:102A700094E00E94E536CE010E9416380E941A2288
:102A80000E94392180E090E002C081E090E0DF9177
:102A9000CF911F910F91FF90EF9008950F931F9387
:102AA000CF93DF938B01EA01AB01415051094433CD
:102AB000510508F0D4C02230310508F0D0C048E3F9
:102AC000429FF001439FF00D1124E60FF71FE80F1E
:102AD000F91F81E08083232B11F46C2F07C061E084
:102AE000802F0E94F407209739F460E0802F0E9425
:102AF000F00680E090E0B5C0CF3FD10509F4ADC04D
:102B0000F801E451FD4FE4918E2F90E0FC013197E4
:102B1000E231F10508F09DC08827EC59FE4F8F4F38
:102B20000C94E74184B5806884BDC7BDE2CF84B50D
:102B3000806284BDC8BDDDCF8091800080688093B5
:102B40008000D0938900C0938800D3CF809180000B
:102B5000806280938000D0938B00C0938A00C9CF9D
:102B600080918000886080938000D0938D00C09316
:102B70008C00BFCF8091B00080688093B000C0937C
:102B8000B300B7CF8091B00080628093B000C09353
:102B9000B400AFCF80919000806880939000D09374
:102BA0009900C0939800A5CF809190008062809397
:102BB0009000D0939B00C0939A009BCF809190008F
:102BC000886080939000D0939D00C0939C0091CF2B
:102BD0008091A00080688093A0008091A0008F7BEE
:102BE0008093A000D093A900C093A80082CF8091C9
:102BF000A00080628093A000D093AB00C093AA0095
:102C000078CF8091A00088608093A000D093AD0021
:102C1000C093AC006ECF809120018068809320012A
:102C2000D0932901C093280164CF80912001806254
:102C300080932001D0932B01C0932A015ACF809119
:102C40002001886080932001D0932D01C0932C0136
:102C500050CFC038D1050CF448CF61E047CF81E0B8
:102C600090E0DF91CF911F910F9108958091F40929
:102C70009091F509892BA1F480E790E00E9425440A
:102C8000FC01F9969C0123593F4FDF01D8971C9214
:102C90001192E217F307C9F79093F5098093F409AD
:102CA0008091F4099091F5090895683671050CF04A
:102CB00050C0653671050CF08CC06C32710554F54E
:102CC000693271050CF085C06831710594F46F307C
:102CD00071050CF07EC06630710544F462307105F8
:102CE0000CF077C0672B09F072C073C06B5071098C
:102CF0006BC0623271053CF46F3171050CF069C034
:102D00006951710961C0645271096230710508F03E
:102D10005EC05FC06A3371057CF4673371050CF0E7
:102D200058C06D3271050CF452C0603371050CF45B
:102D300050C06353710948C0643471053CF4613478
:102D400071050CF046C06D5371093EC0675471099E
:102D50003BC060397105F4F46D387105D4F5663700
:102D6000710564F463377105A4F5693671057CF16A
:102D70006C36710574F16F56710926C060387105A3
:102D800034F46D3771052CF5695771091DC063580E
:102D900071091AC0603D710564F46D3C7105CCF495
:102DA00061397105A4F0643971059CF0695C7109A1
:102DB0000BC06A3D710534F4673D710554F4635DE1
:102DC000710902C06D5D71096330710510F080E01A
:102DD000089581E008952F923F924F925F926F92F3
:102DE0007F928F929F92AF92BF92CF92DF92EF929B
:102DF000FF920F931F93CF93DF93CDB7DEB7E0978A
:102E00000FB6F894DEBF0FBECDBF1C012A013B01F7
:102E10000F83188729873A8728960EAD1FAD28970C
:102E2000FC01ED5BFD4F60817181828193810E9485
:102E3000D2499B01AC01C301B2010E94314A0E94F8
:102E4000CB426B8B7C8B8D8B9E8BF101E95BFD4FB5
:102E500060817181828193810E94D2499B01AC0182
:102E60006F81788589859A850E94314A0E94CB427C
:102E70006F8B788F898F9A8FF101E55BFD4F6081B1
:102E80007181828193810E94D2499B01AC01C7016B
:102E9000B6010E94314A0E94CB426B8F7C8F8D8F8E
:102EA0009E8F0E9473086F87788B898B9A8BF101B4
:102EB000ED52FE4F11821082329611821082A114BF
:102EC000B10489F0C501A0E0B0E03E964081518197
:102ED0006281738184179507A607B70724F480835E
:102EE0009183A283B3838114910491F0A12CB12C1E
:102EF000F101E951FE4F80819181A281B381881651
:102F00009906AA06BB0624F480829182A282B3822B
:102F10000115110591F020E030E0F101E551FE4F7F
:102F200080819181A281B381081719072A073B0785
:102F300024F400831183228333839101205F3F4F68
:102F40003E872D87F101ED51FE4F80819181A28155
:102F5000B381F10187A390A7A1A7B2A72101F9E846
:102F60004F0E511CF101E951FE4F80819181A281E8
:102F7000B381F201878B908FA18FB28F3101FEEF69
:102F80006F1A7F0AF101E551FE4F80819181A28184
:102F9000B381F301878B908FA18FB28F0E941A2289
:102FA0000E941A220E941A220E941A22409120098D
:102FB0005091210960912209709123094DA75EA7C4
:102FC0006FA778AB0E941A2280912409909125095D
:102FD000A0912609B09127098F839887A987BA877E
:102FE0000E941A228090280990902909A0902A090D
:102FF000B0902B09F101E15BFD4F1082118212822A
:1030000013823496108211821282138234961082B7
:1030100011821282138234961182108232961182AA
:10302000108232961182108232964DA55EA56FA550
:1030300078A9408351836283738334968F81988506
:10304000A985BA8580839183A283B38334968082D5
:103050009182A282B3822996EFAC29970B891C89B1
:103060002D893E898D859E850E94A02A2A96EFACE7
:103070002A970F89188D298D3A8D4F81588569853A
:103080007A85C2010E94A02A2B96EFAC2B970B8D5C
:103090001C8D2D8D3E8DB501A401C3010E94A02A77
:1030A000D10151961C92F101E657FF4F1082E7586B
:1030B000FF4F1082C1010E94772FC1010E947B2F18
:1030C0008D859E850E94F12EC2010E94F12EC301C2
:1030D0000E94F12E81E090E0F101E652FE4F9183D3
:1030E00080837101B4E2EB1ABEEFFB0AF701918312
:1030F0008083810102521E4FD8018D939C9341E041
:1031000050E06D857E85C101A1DAF70140815181D2
:10311000B201C1019BDAD8014D915C91B301C101AB
:1031200095DA11E0F101E655FD4F10838D859E85FE
:103130000E948B2AC2010E948B2AC3010E948B2A03
:1031400064E670E080E090E00E943B08C101895293
:103150009E4FFC011083D101A852BE4F1C93A101C8
:1031600047525E4FFA0110832996FFAD2997F1115E
:103170000FC02A962FAD2A97211105C02B963FAD7F
:103180002B97332339F1910122593F4FF9011082D6
:103190002A96FFAD2A97F11105C0910129513F4FA1
:1031A000F90110822B96FFAD2B97F11105C091010B
:1031B000205A3E4FF901108229962FAD2997FC0124
:1031C00020832A963FAD2A973C932B96EFAD2B9701
:1031D000DA01EC938D859E850E944C2CC2010E94E1
:1031E0004C2CC3010E944C2C8D859E850E94A12BE6
:1031F000C2010E94A12BC3010E94A12B0E941A228E
:10320000DC0116968C918B8B18861F82F101E95296
:10321000FE4FF88FEF8B910128523E4F3C8F2B8F42
:10322000A10147525E4F58A34F8FC10186529E4F56
:1032300098A78FA3D101A452BE4FBAA7A9A73796CA
:10324000FCA7EBA7275631403EA32DA34351514085
:103250005AA349A38B5991099CA38BA3AF89B88D1D
:103260008C9181110BC0EB8DFC8D8081811106C08A
:10327000AF8DB8A18C91882309F460C3BB89B111CB
:103280005DC34FA158A56D857E85C10138DA49A57A
:103290005AA5B201C10133DA4BA55CA5B301C10146
:1032A0002EDA8D859E850E940B2CC2010E940B2C6C
:1032B000C3010E940B2CADA1BEA18C91882349F1C2
:1032C0008D859E850E944C2C4101B5E78B1ABDEF80
:1032D0009B0A5101E1E8AE1AEDEFBE0A6101F6E684
:1032E000CF1AFDEFDF0A710123E9E21A2DEFF20A8E
:1032F00081010F591D4F9101215B3D4FA10145589F
:103300005E4F6D857E85C1010E948329ADA1BEA15E
:103310001C92F101E651FF4FFC87EB8780818823E7
:1033200039F1C2010E944C2C4101F4E78F1AFDEFE4
:103330009F0A51012DE7A21A2DEFB20A610134E66E
:10334000C31A3DEFD30A71014FE8E41A4DEFF40AB6
:1033500081010B591D4F91012D5A3D4FA1014B5633
:103360005E4FB201C1010E948329AB85BC851C92CE
:10337000F101ED59FE4FFC87EB878081882339F1FD
:10338000C3010E944C2C4101F3E78F1AFDEF9F0A05
:10339000510129E7A21A2DEFB20A610132E6C31AE0
:1033A0003DEFD30A71014BE8E41A4DEFF40A8101B5
:1033B00007591D4F9101295A3D4FA10141555E4FBB
:1033C000B301C1010E948329AB85BC851C92810198
:1033D00002591F4FF8018081882309F43EC0E55F40
:1033E000FD4F60817181072E000C880B990B0E94A4
:1033F000D2499B01AC01F101E15BFD4F608171811C
:10340000828193810E94FD4218163CF5D8011C92DE
:103410006AE474E0810107531E4FC8010E94170639
:1034200063E275E0C8010E94170666EC73E0C8010C
:103430000E9417062996BFAD2997BB2309F479C3CB
:10344000F101E558FE4F108A118A128A138AEE5252
:10345000F1401082118212821382810109511F4FA3
:10346000D8018C91882309F43FC0F101E558FD4F44
:1034700060817181072E000C880B990B0E94D24944
:103480009B01AC01F101ED5AFD4F60817181828198
:1034900093810E94FD4218163CF5D8011C926AE403
:1034A00074E0810107531E4FC8010E9417066BE4A8
:1034B00075E0C8010E94170666EC73E0C8010E941F
:1034C00017062A96BFAD2A97BB2309F437C3F1012B
:1034D000EB56FE4F108A118A128A138AE9A1FAA1CB
:1034E00010821182128213828101005A1E4FD8016C
:1034F0008C91882309F43FC0F101E358FD4F6081AE
:103500007181072E000C880B990B0E94D2499B01F8
:10351000AC01F101E95AFD4F608171818281938193
:103520000E94FD4218163CF5D8011C926AE474E032
:10353000810107531E4FC8010E94170663E775E01B
:10354000C8010E94170666EC73E0C8010E941706C6
:103550002B96BFAD2B97BB2309F4F5C2F101E155C2
:10356000FE4F108A118A128A138AEBA1FCA11082E5
:1035700011821282138260E08D859E850E94162B37
:10358000882369F0F101E35BFF4F10821182128200
:103590001382E25DFE4F108A118A128A138A60E05C
:1035A000C2010E94162B882371F0A9A1BAA11D9215
:1035B0001D921D921C921397F101EB56FE4F108A3B
:1035C000118A128A138A60E0C3010E94162B882395
:1035D00069F0EBA1FCA11082118212821382F10129
:1035E000E155FE4F108A118A128A138AF101E259BD
:1035F000FF4F8081AF89B88D8C93E758FF4F808152
:10360000EB8DFC8D8083F101E05AFE4F8081AF8D00
:10361000B8A18C93E351F140408151816281738163
:10362000E9A1FAA180809180A280B380ABA1BCA166
:10363000CD90DD90ED90FC904DA75EA76FA778AB85
:10364000F9D64DA55EA56FA578A9409320095093A2
:1036500021096093220970932309ECD680922409F2
:1036600090922509A0922609B0922709E3D6C0922C
:103670002809D0922909E0922A09F0922B09C10168
:103680000E94772FEF89F88D8081882309F44AC042
:103690000E9473082F85388949895A8962177307F0
:1036A0008407950760F40E9473082F85388949893B
:1036B0005A896217730784079507A0F51EC00E94F8
:1036C00073086B017C012F85388949895A89C21A90
:1036D000D30AE40AF50AF101E95CFD4F208131814A
:1036E00042815381A8EEB3E00E941A4B6C157D0510
:1036F0008E059F0508F42CC2D6CF0E9473086B017B
:103700007C01F101E95CFD4F2081318142815381CF
:10371000A8EEB3E00E941A4B6C157D058E059F053F
:1037200008F416C2AB8DBC8D8C91882309F44AC075
:103730000E9473082F85388949895A89621773074F
:103740008407950760F40E9473082F85388949899A
:103750005A896217730784079507A0F51EC00E9457
:1037600073086B017C012F85388949895A89C21AEF
:10377000D30AE40AF50AF101E95CFD4F20813181A9
:1037800042815381A8EEB3E00E941A4B6C157D056F
:103790008E059F0508F4E8C1D6CF0E9473086B011F
:1037A0007C01F101E95CFD4F20813181428153812F
:1037B000A8EEB3E00E941A4B6C157D058E059F059F
:1037C00008F4D2C1AF8DB8A18C91882309F44AC006
:1037D0000E9473082F85388949895A8962177307AF
:1037E0008407950760F40E9473082F8538894989FA
:1037F0005A896217730784079507A0F51EC00E94B7
:1038000073086B017C012F85388949895A89C21A4E
:10381000D30AE40AF50AF101E95CFD4F2081318108
:1038200042815381A8EEB3E00E941A4B6C157D05CE
:103830008E059F0508F4A4C1D6CF0E9473086B01C2
:103840007C01F101E95CFD4F20813181428153818E
:10385000A8EEB3E00E941A4B6C157D058E059F05FE
:1038600008F48EC184E09AE00E942203181619061B
:103870005CF584E09AE00E9400038F7D8534910519
:1038800019F565EE74E0C10187539E4F0E9417063B
:1038900082E493E00E94E536CDD5EBD4F101E25904
:1038A000FF4F1082E758FF4F1082E758FF4F1082FA
:1038B000AF89B88D1C92EB8DFC8D1082AF8DB8A1B5
:1038C0001C92B1E0BB8B04C0EF81F8853197A9F45D
:1038D0006AEF74E0C10187539E4F0E941706AF89BB
:1038E000B88D1C92EB8DFC8D1082AF8DB8A11C920F
:1038F000E1E0F0E0F887EF8302C018861F82C10183
:103900000E949B36F101EB52FE4F8081918101961E
:10391000918380838D3291400CF4A0CCD101A353CC
:10392000BE4F8D919C911197892B09F097CC1496DD
:103930008D919C91892B09F42FC190CC8101035367
:103940001E4FF80180819181892B21F0C1010E94D5
:103950009B36F7CF8AE095E00E94E5362996FFADC9
:103960002997FF23F1F02F813885232BD1F43B8950
:1039700031113CC08EE393E00E94E5365BD579D4EB
:103980002A964FAD2A97442361F18AE393E00E947F
:10399000E53650D56ED42B965FAD2B9751111AC0DA
:1039A00025C02A968FAD2A97882341F0AF81B8852C
:1039B000AB2B21F4BB89B11119C0E7CF2B96EFAD2A
:1039C0002B97EE2399F02F813885232B79F43B89AF
:1039D00031110CC086E393E00E94E5362BD549D423
:1039E00005C02B96AFAD2B97A111F4CF81010652E4
:1039F0001E4F85E090E0D8018D939C936101B4E265
:103A0000CB1ABEEFDB0AF601918380837101F2E2EB
:103A1000EF1AFEEFFF0AD7018D939C9345E050E02B
:103A20006D857E85C1010E942613F601408151817A
:103A3000B201C1010E942613D7014D915C91B301DF
:103A4000C1010E942613C1010E947F2FF101E35B97
:103A5000FF4F4081518162817381E758FF4F808021
:103A60009180A280B380E758FF4F80819181A2812D
:103A7000B3818F87988BA98BBA8B4DA75EA76FA751
:103A800078ABD8D44DA55EA56FA578A94093200941
:103A9000509321096093220970932309CBD480921B
:103AA000240990922509A0922609B0922709C2D430
:103AB0002F85388949895A89209328093093290903
:103AC00040932A0950932B09C1010E94772FC1010D
:103AD0000E947B2FAFD420D4C1010E94B713D8011C
:103AE0001D921C92F60111821082D7011D921C9228
:103AF00040E050E06D857E85C1010E942613F601ED
:103B000040815181B201C1010E942613D7014D911C
:103B10005C91B301C1010E942613C1010E947F2F55
:103B2000BB89BB2309F426C185D421E0FC0126838F
:103B300021C1E1E0F0E0F887EF838FCCE1E0F0E035
:103B4000F887EF83D1CCE1E0F0E0F887EF8313CD85
:103B50006BE975E0C10187539E4F0E94170621E073
:103B600030E038872F83DECD60EB75E0C1018753ED
:103B70009E4F0E94170641E050E058874F8322CEA7
:103B800065EC75E0C10187539E4F0E94170681E0E6
:103B900090E098878F8366CE11821082F101ED52FA
:103BA000FE4FE080F180E114F10449F466E473E033
:103BB000810107531E4FC8010E941706B8C091E04B
:103BC000E916F10409F0C2C035D48C01DC018D91F5
:103BD0009C9111971816190614F0ED92FC92F801B9
:103BE000828193811816190624F081E090E0938376
:103BF0008283D80114968D919C91159718161906F9
:103C000034F081E090E015969C938E93149768ECC5
:103C100073E0CE0101960E94550666E075E0CE0184
:103C200001960E9417066DE874E0CE0101960E948D
:103C300017066091200970912109809122099091C5
:103C400023090E94D2496B017C01F80160817181D6
:103C5000072E000C880B990B0E94D2499B01AC01E6
:103C6000C701B6010E945B42AB01BC01CE010196C7
:103C70000E94E7056DE974E0CE0101960E941706E7
:103C80006091240970912509809126099091270956
:103C90000E94D2496B017C01D80112966D917C91F2
:103CA0001397072E000C880B990B0E94D2499B0199
:103CB000AC01C701B6010E945B42AB01BC01CE0161
:103CC00001960E94E7056DEA74E0CE0101960E941C
:103CD0001706609128097091290980912A0990910D
:103CE0002B090E94D2496B017C01F8016481758126
:103CF000072E000C880B990B0E94D2499B01AC0146
:103D0000C701B6010E945B42AB01BC01CE01019626
:103D10000E94E705BE016F5F7F4F810107531E4F71
:103D2000C8010E94250689819A810E94BA4482D3E3
:103D3000BC01CE01019657D2BE016F5F7F4FC80113
:103D40000E94250689819A810E94BA44F101ED52B0
:103D5000FE4F808191810196823091051CF4918300
:103D6000808302C011821082F101EF52FE4F118256
:103D7000108274CA88E195E00E94E5368F819885AB
:103D80000E94163886EC93E00E94E53653D32F81CB
:103D900038853093590720935807C901E0960FB62C
:103DA000F894DEBF0FBECDBFDF91CF911F910F9171
:103DB000FF90EF90DF90CF90BF90AF909F908F904B
:103DC0007F906F905F904F903F902F9008951F933A
:103DD000CF93DF931F92CDB7DEB7FB0162A9168D9B
:103DE00069830E9436166981812F0E94F40780E062
:103DF00090E00F90DF91CF911F9108950C94BA44F9
:103E00000C94BA440C94BA440C94BA440C94BA443A
:103E10000C94BA440C94BA440C94BA440C94BA442A
:103E20000C94BA440C94BA440C94BA440F931F9364
:103E3000CF93DF93FB0102A913A9C68DD78D0E94F2
:103E40003616A801BE010E94E21480E090E0DF91E6
:103E5000CF911F910F910895EF92FF920F931F93AF
:103E6000CF93DF93FB01E2A8F3A802A113A1C68DB3
:103E7000D78D0E9436169701A801BE010E944E15EB
:103E800080E090E0DF91CF911F910F91FF90EF9034
:103E90000895662319F087ED93E002C080ED93E06A
:103EA0000C94E536CF93DF93FB01C68DD78D0E942E
:103EB000F10EBE010E94B80E80E090E0DF91CF913C
:103EC0000895CF92DF92EF92FF920F931F93CF93BB
:103ED000DF93FB01C2A0D3A0E4A0F5A0068D178D4F
:103EE0000E94F10EEC018A819B818F30F7E29F07DF
:103EF00024F401969B838A8302C01B821A82B80134
:103F0000CE010E945516882389F0F801EE0FFF1F9D
:103F1000E65AF84FD182C082A601B801CE010E94B4
:103F20009B0EB801CE010E94B80E04C08FEB94E046
:103F30000E94E5360E94B6140E94861480E090E04C
:103F4000DF91CF911F910F91FF90EF90DF90CF9075
:103F500008958F929F92AF92BF92CF92DF92EF928D
:103F6000FF920F931F930E946D1462E070E00E9415
:103F70007331892BD1F40E946D1421E02F931F928D
:103F80001F921F921F92812C912CA12CB12CC12C1D
:103F9000D12C760197018601B701A6010E94EB168C
:103FA0000F900F900F900F900F9080E090E01F9176
:103FB0000F91FF90EF90DF90CF90BF90AF909F90C8
:103FC0008F9008958F929F92AF92BF92CF92DF927F
:103FD000EF92FF920F931F930E946D1461E070E0C7
:103FE0000E947331892BD1F40E946D141F9221E03D
:103FF0002F931F921F921F92812C912CA12CB12CD8
:10400000C12CD12C760197018601B701A6010E942F
:10401000EB160F900F900F900F900F9080E090E0B4
:104020001F910F91FF90EF90DF90CF90BF90AF90D6
:104030009F908F9008958F929F92AF92BF92CF9250
:10404000DF92EF92FF920F931F930E946D1460E036
:1040500070E00E947331892BD1F40E946D141F927D
:104060001F9221E02F931F921F92812C912CA12C43
:10407000B12CC12CD12C760197018601B701A60184
:104080000E94EB160F900F900F900F900F9080E012
:1040900090E01F910F91FF90EF90DF90CF90BF9035
:1040A000AF909F908F9008958F929F92AF92BF9202
:1040B000CF92DF92EF92FF920F931F930E946D14A5
:1040C00021E02F931F921F921F921F92812C912CFF
:1040D000A12CB12CC12CD12C760197018601B701FE
:1040E000A6010E94EB160F900F900F900F900F906B
:1040F00080E090E01F910F91FF90EF90DF90CF90C4
:10410000BF90AF909F908F9008958F929F92AF92A3
:10411000BF92CF92DF92EF92FF920F931F930E9474
:104120006D141F9221E02F931F921F921F92812CDA
:10413000912CA12CB12CC12CD12C76019701860198
:10414000B701A6010E94EB160F900F900F900F90F1
:104150000F9080E090E01F910F91FF90EF90DF9023
:10416000CF90BF90AF909F908F9008958F929F9225
:10417000AF92BF92CF92DF92EF92FF920F931F9375
:104180000E946D141F921F9221E02F931F921F9285
:10419000812C912CA12CB12CC12CD12C7601970112
:1041A0008601B701A6010E94EB160F900F900F90A9
:1041B0000F900F9080E090E01F910F91FF90EF9093
:1041C000DF90CF90BF90AF909F908F90089508950B
:1041D00008950895089508950895089508950895F7
:1041E000089508950895EF92FF920F931F93CF9330
:1041F000DF93CDB7DEB72E970FB6F894DEBF0FBEB4
:10420000CDBF8C0168EC73E00E9455066AED75E045
:10421000C8010E94170660911C0970911D098091C8
:104220001E0990911F092AE0AE014F5F5F4F7A018E
:104230000E948945F70101900020E9F73197AF010D
:104240004E195F09B701C8010E94BA0566EC73E018
:10425000C8010E941706C8012E960FB6F894DEBF5B
:104260000FBECDBFDF91CF911F910F91FF90EF90C7
:1042700008958AED95E00E94E53660911C097091E1
:104280001D0980911E0990911F090E94313786EC0B
:1042900093E00C94E5360F931F93CF93DF93EC01DB
:1042A0008DED95E00E94E53681EE95E00E94E536C1
:1042B0000EEF19E0F8016081CE01EBDD85EE95E0AF
:1042C0000E94E536F8016181CE01E3DD89EE95E0DB
:1042D0000E94E536F8016281CE01DBDD8DEE95E0CE
:1042E0000E94E536F8016381CE01D3DD81EF95E0D0
:1042F0000E94E536F8016481CE01CBDD85EF95E0C3
:104300000E94E536F8016581CE01C3DDCE01DF9163
:10431000CF911F910F91ADCFCF92DF92EF92FF928D
:10432000CF93DF93EC01888199811816190624F048
:1043300081E090E0998388838A819B811816190611
:1043400024F081E090E09B838A838C819D81181604
:10435000190624F081E090E09D838C8386E095E04F
:104360000E94E5368DE894E00E94E53660912009D0
:104370007091210980912209909123090E94D249CC
:104380006B017C0188819981BC01990F880B990B85
:104390000E94D2499B01AC01C701B6010E945B4259
:1043A0000E9458378DE994E00E94E5366091240917
:1043B0007091250980912609909127090E94D24980
:1043C0006B017C018A819B81BC01990F880B990B41
:1043D0000E94D2499B01AC01C701B6010E945B4219
:1043E0000E9458378DEA94E00E94E53660912809D2
:1043F0007091290980912A0990912B090E94D24934
:104400006B017C018C819D81BC01990F880B990BFC
:104410000E94D2499B01AC01C701B6010E945B42D8
:104420000E945837CE01DF91CF91FF90EF90DF903F
:10443000CF901FCF8091FC099091FD09892B91F5B8
:1044400087E090E00E942544FC011682109220092A
:104450001092210910922209109223091092240926
:104460001092250910922609109227091092280906
:104470001092290910922A0910922B091092FB0917
:104480001092FA0910921C0910921D0910921E092F
:1044900010921F0910925907109258079093FD0926
:1044A0008093FC098091FC099091FD0908950F9378
:1044B0001F93CF93DF930E94F10E8C01C0E0D0E0F8
:1044C000BE01C8010E945516882321F0BE01C80113
:1044D0000E94B80E2196C13ED10591F789EF95E073
:1044E0000E94E536A7DFC5DE80E090E0DF91CF9146
:1044F0001F910F9108959EDFFC01168280E090E0ED
:104500000895CF93DF9385E40E94C806EC0192DF03
:1045100091E0CD2B09F490E09093FE0984E40E9491
:10452000C806EC0187DF91E0CD2B09F490E0909371
:10453000FF0983E40E94C806EC017CDF91E0CD2BEB
:1045400009F490E09093000A82E40E94C806EC010E
:1045500071DF91E0CD2B09F490E09093010A81E4A2
:104560000E94C806EC0166DF91E0CD2B09F490E0D3
:104570009093020A80E40E94C806EC015BDF91E0A0
:10458000CD2B09F490E09093030ADF91CF91089529
:104590002F923F924F925F926F927F928F929F9253
:1045A000AF92BF92CF92DF92EF92FF920F931F9341
:1045B000CF93DF93CDB7DEB72F970FB6F894DEBF5A
:1045C0000FBECDBF9F878E870E94F10EEE85FF85BF
:1045D000E052FE4F81E02091C0073091C107232BAC
:1045E00009F480E080830E94F10EEE85FF85EF5193
:1045F000FE4F81E02091C2073091C307232B09F4BD
:1046000080E080830E94F10EEE85FF85EE51FE4F23
:1046100081E02091C4073091C507232B09F480E085
:1046200080830E94F10EEE85FF85ED51FE4F809153
:10463000E8079091E907092E000CAA0BBB0B8083B9
:104640009183A283B3830E94F10EEE85FF85E95129
:10465000FE4F8091EA079091EB07092E000CAA0B00
:10466000BB0B80839183A283B3830E94F10EEE85FE
:10467000FF85E551FE4F8091EC079091ED07092EE3
:10468000000CAA0BBB0B80839183A283B3830E948F
:10469000F10EEE85FF85E151FE4F8091D407909198
:1046A000D507092E000CAA0BBB0B80839183A28334
:1046B000B3830E94F10EEE85FF85ED50FE4F809191
:1046C000D6079091D707092E000CAA0BBB0B80834D
:1046D0009183A283B3830E94F10EEE85FF85E9509A
:1046E000FE4F8091D8079091D907092E000CAA0B94
:1046F000BB0B80839183A283B3830E94F10EEE856E
:10470000FF85E550FE4F8091DC079091DD07092E73
:10471000000CAA0BBB0B80839183A283B3830E94FE
:10472000F10EEE85FF85E150FE4F8091DE079091FE
:10473000DF07092E000CAA0BBB0B80839183A28399
:10474000B3830E94F10EEE85FF85ED5FFD4F8091F2
:10475000E0079091E107092E000CAA0BBB0B8083A8
:104760009183A283B3830E94F10EEE85FF85E95FFA
:10477000FD4F8091AC079091AD07092E000CAA0B5C
:10478000BB0B80839183A283B3830E94F10EEE85DD
:10479000FF85E55FFD4F8091AE079091AF07092E31
:1047A000000CAA0BBB0B80839183A283B3830E946E
:1047B000F10EEE85FF85E15FFD4F8091B00790918E
:1047C000B107092E000CAA0BBB0B80839183A28337
:1047D000B3830E94F10EEE85FF85ED5EFD4F81E013
:1047E00020919807309199072130310509F080E038
:1047F00080830E94F10EEE85FF85EC5EFD4F81E027
:1048000020919A0730919B072130310509F080E013
:1048100080830E94F10EEE85FF85EB5EFD4F81E007
:1048200020919C0730919D072130310509F080E0EF
:1048300080830E94F10EEE85FF85EF5CFD4F81E0E5
:104840002091840730918507232B09F480E0808331
:104850000E94F10EEE85FF85EE5CFD4F81E0209118
:10486000860730918707232B09F480E080830E941C
:10487000F10EEE85FF85ED5CFD4F81E0209188070C
:1048800030918907232B09F480E080830E94F10E88
:10489000EE85FF85EC5CFD4F81E020918C07309127
:1048A0008D072130310509F080E080830E94F10EF0
:1048B000EE85FF85EB5CFD4F81E020918E07309106
:1048C0008F072130310509F080E080830E94F10ECE
:1048D000EE85FF85EA5CFD4F81E0209190073091E5
:1048E00091072130310509F080E080830E94F10EAC
:1048F000EE85FF85E95CFD4F80917007909171070F
:10490000092E000CAA0BBB0B80839183A283B38377
:104910000E94F10EEE85FF85E55CFD4F80917007EA
:1049200090917107092E000CAA0BBB0B8083918319
:10493000A283B3830E94F10EEE85FF85E15CFD4FFB
:104940008091700790917107092E000CAA0BBB0B88
:1049500080839183A283B3830E94F10EEE85FF854D
:10496000EB5DFD4F81E02091780730917907232B93
:1049700009F480E080830E94F10EEE85FF85EA5DF8
:10498000FD4F81E020917A0730917B07232B09F4BA
:1049900080E080830E94F10EEE85FF85E95DFD4F8A
:1049A00081E020917C0730917D07232B09F480E082
:1049B00080830E94F10EEE85FF85EA5EFD4F8091B7
:1049C000740890917508092E000CAA0BBB0B80830C
:1049D0009183A283B3830E94F10EEE85FF85E65E8C
:1049E000FD4F8091760890917708092E000CAA0B54
:1049F000BB0B80839183A283B3830E94F10EEE856B
:104A0000FF85E25EFD4F8091780890917908092E2C
:104A1000000CAA0BBB0B80839183A283B3830E94FB
:104A2000F10EEE85FF85E85DFD4F81E02091A40742
:104A30003091A5072130310509F080E08083EE85B3
:104A4000FF85E75DFD4F1082EE85FF85E65DFD4F3A
:104A500010820E94F10EEE85FF85E55DFD4F81E03D
:104A60002091A2073091A3072130310509F080E0A1
:104A70008083EE85FF85E45DFD4F1082EE85FF8526
:104A8000E35DFD4F10820E94F10EEE85FF85E25D31
:104A9000FD4F81E02091B4073091B50721303105F9
:104AA00009F080E080830E94F10EEE85FF85E15DD4
:104AB000FD4F81E02091B6073091B70721303105D5
:104AC00009F080E080830E94F10EEE85FF85E05DB5
:104AD000FD4F81E02091B8073091B90721303105B1
:104AE00009F080E080830E94F10EEE85FF85EE5D87
:104AF000FD4F81E020917C0830917D082130310507
:104B000009F080E080830E94F10EEE85FF85ED5D67
:104B1000FD4F81E020917E0830917F0821303105E2
:104B200009F080E080830E94F10EEE85FF85EC5D48
:104B3000FD4F81E0209180083091810821303105BE
:104B400009F080E080830E94F10E0E851F850D5BC9
:104B50001D4F8091C8079091C907092E000CAA0B20
:104B6000BB0BF80180839183A283B3830E94F10E73
:104B7000EE84FF84F9EBEF1AFDEFFF0A8091CA077C
:104B80009091CB07092E000CAA0BBB0BF701808379
:104B90009183A283B3830E94F10E8091CC07909100
:104BA000CD07092E000CAA0BBB0B2E853F85255B7C
:104BB0003D4FF90180839183A283B383F801408143
:104BC000518162817381141615061606170644F08A
:104BD00041E050E060E070E0408351836283738382
:104BE000F701408151816281738114161506160602
:104BF000170644F041E050E060E070E040835183EC
:104C000062837383181619061A061B064CF081E09E
:104C100090E0A0E0B0E0F90180839183A283B383A8
:104C2000D901CD90DC90F701E080F180D8010D91A1
:104C30001C9100DCFC0111830083F382E282D582A7
:104C4000C482EE85FF85EE5DFD4FB081B983EE85B0
:104C5000FF85EA5EFD4F80819181A281B3814E85FF
:104C60005F85425D5D4FFA01F081FB834E855F8574
:104C70004C5C5D4FFA01F081FA834E855F85485D9B
:104C80005D4FFA01F081FF834E855F85455D5D4F85
:104C9000FA01F081F8874E855F854F5C5D4FFA0120
:104CA000F081F987EE85FF85ED5EFD4F2080EE8572
:104CB000FF85E052FE4F3080EE85FF85E95CFD4FB9
:104CC0004081518162817381EE85FF85E95FFD4FEF
:104CD0000081118122813381EE85FF85E550FE4FF1
:104CE000C080D180E280F380EE85FF85E151FE4FE8
:104CF00080809180A280B380EE85FF85ED51FE4FCC
:104D00004080518062807380EE85FF8547A250A667
:104D100061A672A683A694A6A5A6B6A6C7A6D0AA83
:104D2000E1AAF2AA03AB14AB25AB36AB47AB50AF4D
:104D300061AF72AF33AE24AE298525A33A8136A385
:104D400040E450E060E070E0FF964083518362836E
:104D500073832885EE85FF8525AF3F8136AFAF0190
:104D60004D5B5F4F2B81FA012083EE85FF85EC5B65
:104D7000FF4F80839183A283B383EE85FF85E85B39
:104D8000FF4F39813083AE85BF8555968D919C91BB
:104D900056978633910589F487EB94E0FD01E75837
:104DA000FF4F9183808332961182108285EB94E0CD
:104DB000369691838083329630C08C33910589F486
:104DC0008FEA94E0EE85FF85E758FF4F918380835B
:104DD000EE85FF85E558FF4F118210828DEA94E041
:104DE00012C08E97E1F487EA94E0EE85FF85E758DC
:104DF000FF4F91838083EE85FF85E558FF4F118239
:104E0000108281EA94E0EE85FF85EF57FF4F918392
:104E10008083EE85FF85ED57FF4F11821082EE856E
:104E2000FF85838D948D4A97D1F483EB94E0E3580A
:104E3000FF4F91838083EE85FF85E158FF4F1182FC
:104E4000108281EB94E0EE85FF85EB57FF4F918355
:104E50008083EE85FF85E957FF4F11821082EE8532
:104E6000FF85ED5DFD4F20812983EE85FF85E65EA0
:104E7000FD4F4080518062807380EE85FF85E15D4B
:104E8000FD4F30813B83EE85FF85EB5CFD4F9081CC
:104E9000EE85FF85E75DFD4F40814F83EE85FF8501
:104EA000E45DFD4F50815887EE85FF85EE5CFD4F38
:104EB0008081EE85FF85EC5EFD4F2080EE85FF85CD
:104EC000EF51FE4F3080EE85FF85E55CFD4F208180
:104ED0003181428153812A873B874C875D87EE85EC
:104EE000FF85E55FFD4F4081518162817381EE85D1
:104EF000FF85E150FE4FC080D180E280F380EE85D7
:104F0000FF85ED50FE4F80809180A280B380EE85BA
:104F1000FF85E757FF4F2E853F8529513E4FD90129
:104F20000D911D912D913C91078B108F218F328F08
:104F3000838E948EA58EB68EC78ED0A2E1A2F2A2E9
:104F400043A354A365A376A32A853B854C855D8541
:104F500027A330A741A752A733A624A6858B968BFB
:104F600080E490E0A0E0B0E087A790ABA1ABB2AB4B
:104F7000388535A74F8146A75B8153AB44AA55AA14
:104F800066AA77AA898180AF85819681863391054B
:104F900089F487EB94E0AE85BF85AE50BF4F8D930B
:104FA0009C93AE85BF85AC50BF4F1D921C9285EB84
:104FB00094E026C08C33910589F48FEA94E0AE85A5
:104FC000BF85AE50BF4F8D939C93AE85BF85AC50CF
:104FD000BF4F1D921C928DEA94E012C08E97E1F4AF
:104FE00087EA94E0AE85BF85AE50BF4F8D939C930A
:104FF000AE85BF85AC50BF4F1D921C9281EA94E0F4
:10500000AE85BF85A650BF4F8D939C93AE85BF855F
:10501000A450BF4F1D921C92838594854A97D9F462
:1050200083EB94E0EE85FF85EA50FF4F9183808308
:10503000EE85FF85E850FF4F1182108281EB94E0EE
:10504000EE85FF85E250FF4F91838083EE85FF85DB
:10505000F39511821082EE85FF85EC5DFD4F908106
:1050600099832E853F85225E3D4FD9018D919D917B
:105070000D90BC91A02D8B839C83AD83BE83EE8568
:10508000FF85E05DFD4FB081BA83EE85FF85EA5C68
:10509000FD4F2080EE85FF85E65DFD4F20812F834B
:1050A000EE85FF85E35DFD4F30813887EE85FF8516
:1050B000ED5CFD4F3080EE85FF85EB5EFD4F30816E
:1050C000EE85FF85EE51FE4F2081EE85FF85E15C88
:1050D000FD4F80819181A281B381EE85FF85E15FE3
:1050E000FD4F4081518162817381EE85FF85ED5FC7
:1050F000FD4FC080D180E280F380EE85FF85E950CE
:10510000FE4F80809180A280B3800E851F850E5F48
:105110001E4FEE85FF85E551FE4F40805180628035
:105120007380F801478A508E618E728E838E948EC2
:10513000A58EB68EC78ED0A2E1A2F2A243A354A33D
:1051400065A376A387A390A7A1A7B2A723A734A797
:10515000358A268A80E490E0A0E0B0E087A790AB93
:10516000A1ABB2AB288525A73F8136A74A8143ABC7
:105170008B819C81AD81BE8184AB95ABA6ABB7AB77
:10518000298120AF858196818633910589F487EB4B
:1051900094E0EE85FF85E559FE4F91838083EE858F
:1051A000FF85E359FE4F1182108285EB94E026C003
:1051B0008C33910589F48FEA94E0EE85FF85E559FB
:1051C000FE4F91838083EE85FF85E359FE4F118268
:1051D00010828DEA94E012C08E97E1F487EA94E0A1
:1051E000EE85FF85E559FE4F91838083EE85FF852F
:1051F000E359FE4F1182108281EA94E0EE85FF852B
:10520000ED58FE4F91838083EE85FF85EB58FE4F6E
:1052100011821082D8011B968D919C911C974A9700
:10522000E1F483EB94E0EE85FF85E159FE4F918335
:105230008083EE85FF85EF58FE4F1182108281EB4F
:1052400094E0EE85FF85E958FE4F91838083EE85DB
:10525000FF85E758FE4F11821082EE85FF85EB5DDA
:10526000FD4F20818E859F854096222311F053D1DA
:1052700001C03DD1EE85FF85EA5DFD4F20818E8521
:105280009F8587579F4F222311F045D101C02FD111
:10529000EE85FF85E95DFD4F80818823D1F0C8014F
:1052A0002F960FB6F894DEBF0FBECDBFDF91CF9122
:1052B0001F910F91FF90EF90DF90CF90BF90AF9034
:1052C0009F908F907F906F905F904F903F902F9026
:1052D00022C1C8012F960FB6F894DEBF0FBECDBF16
:1052E000DF91CF911F910F91FF90EF90DF90CF90C2
:1052F000BF90AF909F908F907F906F905F904F90F6
:105300003F902F90F4C02F923F924F925F926F92F6
:105310007F928F929F92AF92BF92CF92DF92EF9245
:10532000FF920F931F93CF93DF9300D000D0CDB7A0
:10533000DEB73B011A0129011C830B83FA82E98243
:10534000DE82CD82F4018081882309F474C0F901E2
:10535000C080D180E280F38020E030E0A901C70165
:10536000B6010E94FD42181674F4F50120813181C6
:1053700042815381C701B6010E94EF41F20160836F
:10538000718382839383F301E15AFF4F8081F1019E
:10539000008D118DC088D188E288F388E981FA8177
:1053A00080809180A280B380D801A70196018823D4
:1053B00041F00E94244B681579058A059B0544F04D
:1053C00023C00E94244B86169706A806B906E4F46B
:1053D000F20180809180A280B38020E030E04AEF2B
:1053E00056E4C501B4010E94CC4987FF0DC020E0FE
:1053F00030E040E85FE3C501B4010E94F041F201F2
:105400006083718382839383D801A70196010E94F0
:10541000244BE981FA816083718382839383F30152
:10542000FD9680819181A281B381EB81FC81808393
:105430009183A283B383ED81FE8180819181892B49
:1054400049F0C1010E945E0AF301FD9660837183F9
:105450008283938326960FB6F894DEBF0FBECDBF2E
:10546000DF91CF911F910F91FF90EF90DF90CF9040
:10547000BF90AF909F908F907F906F905F904F9074
:105480003F902F900895CF93DF93EC018CA5882354
:1054900011F061E001C060E08F810E94F0068DA5EF
:1054A000882329F08EA5882311F061E001C060E017
:1054B0008D85DF91CF910C94F006CF93DF93EC01B3
:1054C0008CA5882311F060E001C061E08F810E940B
:1054D000F0068DA5882329F08EA5882311F060E0C1
:1054E00001C061E08D85DF91CF910C94F006CF93E0
:1054F000DF93EC0161E089850E94F0068DA5882389
:1055000021F061E08F850E94F006CA59DF4F1882B2
:10551000DF91CF910895CF93DF93EC0160E089850F
:105520000E94F0068DA5882321F060E08F850E94FF
:10553000F006CA59DF4F81E08883DF91CF9108954B
:10554000CF92DF92EF92FF920F931F93CF93DF934F
:10555000FC0141AF52AF63AF74AFDC01DD964D93F8
:105560005D936D937C93139714960D931D932D93D8
:105570003C931397EC01CB5BDF4FE88283A9882330
:1055800051F083A581114BC037FF05C01D921D92BC
:105590001D921C92139744A955A966A977A91416C0
:1055A00015061606170634F580AD882319F10D91FE
:1055B0001D912D913C9113976801790137FF07C028
:1055C000CC24DD247601C01AD10AE20AF30A4C1574
:1055D0005D056E057F0574F437FF07C07095609513
:1055E000509541955F4F6F4F7F4F4D935D936D93F6
:1055F0007C931397DF01A25BBF4F1D921D921D92FA
:105600001C921397E25AFF4F81E08083DF91CF9184
:105610001F910F91FF90EF90DF90CF90089510169B
:105620001106120613060CF4B1CFB5CF0F931F93DA
:10563000CF93DF938C01D62FFC01858981110BC09C
:10564000C8010E94B90AC82FC8010E94AC0AD11132
:105650000AC08C2F08C0C8010E94AC0AC82FC8011C
:105660000E94B90AF4CFDF91CF911F910F91089555
:10567000CF93DF93EC01FC01E859FF4F81E0808379
:1056800039978081B297882341F080819181A281EE
:10569000B3810196A11DB11D07C080819181A281B6
:1056A000B3810197A109B10980839183A283B38358
:1056B000FE01E559FF4F20813181DE01A759BF4F1F
:1056C000C9019595879520FD03C0ED91FC910DC012
:1056D000FE01E80FF91F0190F081E02D2D913C9122
:1056E000E20FF31F0190F081E02D8C0F9D1F1995A3
:1056F0008F859889892B11F1FE01E159FF4F208197
:105700003181DE01A359BF4FC9019595879520FDD1
:1057100003C0ED91FC910DC0FE01E80FF91F01904F
:10572000F081E02D2D913C91E20FF31F0190F0816B
:10573000E02D8C0F9D1FDF91CF911994DF91CF91B8
:1057400008958F929F92AF92BF92CF92DF92EF9285
:10575000FF920F931F93CF93DF93EC01FC01E25B69
:10576000FF4F60817181828193810E94D0496B01DA
:105770007C016FA578A989A99AA90E94D2499B01A9
:10578000AC0160E074E284E799E40E945B424B0163
:105790005C01FE01E65AFF4F608171818281938135
:1057A0000E94D0499B01AC01C501B4010E945B423B
:1057B0004B015C018E010E5A1F4F20E030E040E0AB
:1057C0005FE30E94314A9B01AC01C701B6010E9410
:1057D000F0410E94D142F8016083718382839383F8
:1057E000CA5ADF4FA5019401C701B6010E94F041DA
:1057F0000E94D142688379838A839B83DF91CF9112
:105800001F910F91FF90EF90DF90CF90BF90AF90DE
:105810009F908F9008950F931F93CF93DF93FC0178
:10582000E859FF4F20812223C1F07A97008111812E
:1058300022813381389640815181628173810417BE
:1058400015072607370718F1EC010E94930ACE01CD
:10585000DF91CF911F910F9174CFFC01E25AFF4F5E
:1058600020812223A1F07097008111812281338150
:105870003496408151816281738104171507260790
:10588000370728F0DF91CF911F910F91F1CEDF9173
:10589000CF911F910F9108952F923F924F925F9257
:1058A0006F927F928F929F92AF92BF92CF92DF9230
:1058B000EF92FF920F931F93CF93DF93CDB7DEB795
:1058C00062970FB6F894DEBF0FBECDBF8C017C018E
:1058D00025E4E20EF11CD7018C919801215A3F4F2B
:1058E000F801E05AFF4F6F01A801435C5F4F4A0186
:1058F00014971D01882341F0F80183A5D9018C93E9
:1059000081E0F60180832FC0DA014D915D916D91A8
:105910007C91F10180819181A281B381BB24B394F8
:10592000481759076A077B070CF0B12CF901B082C0
:1059300077FF07C070956095509541955F4F6F4F09
:105940007F4FB7FF07C0B095A095909581959F4F69
:10595000AF4FBF4F21E0481759076A077B070CF488
:1059600020E0D6012C93F401408151816281738142
:10597000411551056105710559F4F801838D948D28
:10598000A58DB68DE65AFF4F80839183A283B383A2
:10599000F10180819181A281B381F80141AC52ACC7
:1059A00063AC74AC9801225A3F4F5901481659060E
:1059B0006A067B0634F4481759076A077B077CF0B0
:1059C0000AC084159505A605B7052CF4841795071C
:1059D000A607B70724F0D7018C918823D9F0F501E9
:1059E00080818823B9F0D7018C91811105C0F7011E
:1059F000808181110FC006C060E0C80117DE8111EF
:105A0000F6CF17C0D6016C9181E06827C8010EDE81
:105A1000882379F0D5011C9260E0C80107DE882355
:105A200009F4C6C1F801FD96108211821282138218
:105A3000BFC1D80193962D913D914D915C91969760
:105A400029833A834B835C8357962D913D914D91E9
:105A50005C915A972D833E834F8358875B962D9197
:105A60003D914D915C915E9729873A874B875C8782
:105A7000F10180819181A281B381F801FD96C080FE
:105A8000D180E280F380F80141AD52AD63AD74ADD9
:105A9000EE59FF4F1082319610823801F4E66F0EF6
:105AA000711CF301108298012B593F4FF9011082AC
:105AB000329610824C015D01841A950AA60AB70A33
:105AC000B7FE08C0B094A09490948094811C911C5F
:105AD000A11CB11C481759076A077B072CF4C41A8C
