:100000000C94C0030C94F1030C94F1030C94F103D1
:100010000C94F1030C94F1030C94F1030C94F10390
:100020000C94F1030C94F1030C94F1030C94F10380
:100030000C94F1030C94F1030C94F1030C94F10370
:100040000C94F1030C94A63E0C94F1030C94F10370
:100050000C9416080C94F1030C94F1030C94EF40EB
:100060000C94F1030C94CF460C94BF470C94F1030D
:100070000C94F1030C94F1030C94F1030C94F10330
:100080000C94D43E0C94F1030C94F1030C94F10302
:100090000C9403470C94FE470C94F1030C94F10369
:1000A0000C94F1030C94F1030C94023F0C94F103B3
:1000B0000C94F1030C94F1030C94F1030C94303F75
:1000C0000C94F1030C94F1030C94F1030C94374756
:1000D0000C943D480C94F1030C946B470C947C48B1
:1000E0000C94F103520459045E0463046A046F041F
:1000F0002E062E062E062E062E0676047D04840479
:100100002E068B04900495049C04A104A604AB0461
:10011000B004B5042E06BA04BF04C4042E062E068D
:100120002E06C904CE04D3042E062E06D804DF04FE
:100130002E062E062E06E604ED04F4042E06FB041D
:10014000000505052E062E062E060A050F051405C8
:100150002E062E062E062E062E062E062E061B0513
:10016000220529052E062E062E062E062E062E0602
:100170002E06300537053E052E062E062E062E06C7
:100180002E062E062E062E062E062E062E062E06CF
:100190002E062E062E062E062E062E062E062E06BF
:1001A0002E062E062E062E062E062E062E0654058A
:1001B00059055E052E06630568056D052E062E069B
:1001C0002E067205790580052E0687058E05950594
:1001D0002E062E062E069C05A305AA052E06B105A1
:1001E000B605BB052E062E062E06C005C505CA059A
:1001F0002E062E062E062E062E062E062E062E065F
:100200002E062E062E0645054A054F052E062E06FD
:100210002E062E062E062E062E062E062E062E063E
:100220002E062E062E062E062E062E062E062E062E
:100230002E062E062E062E062E062E062E062E061E
:100240002E062E062E062E062E062E062E062E060E
:100250002E062E062E062E062E062E062E062E06FE
:100260002E062E062E062E062E062E062E062E06EE
:100270002E062E062E06CF05D405DB052E06E2053A
:10028000E705EE052E062E062E06F505FA050106F3
:100290002E0608060D0614062E062E062E061B0632
:1002A0002006270659405E4063406D40E640774097
:1002B0007F40874091409B40A540B440BE40E6400F
:1002C000C840D240DC404043434336433A437A433C
:1002D00047434B435143554359435F43634367434C
:1002E0007A436D43714375430C94D5270C9447436F
:1002F0000C9471430C94652A0C94BA040C94F40485
:100300000C94ED040C94FA050C944E3A0C94B00441
:100310000C941B060C9463430C946F2A0C941D2AB6
:100320000C9455290C940A050C94A1040C94692A88
:100330000C94DB230C94AC320C947A2A0C94754305
:100340000C943E050C9408060C94C0050C94842A69
:100350000C94DB050C940F050C94D8040C94010646
:100360000C9479270C94262A0C9468290C949C05EB
:100370000C9447460C9408320C94B6050C94A83D96
:100380000C94BF040C9405050C94A9310C944B33C8
:100390000C946F040C9437390C94AF290C947C3373
:1003A0000C9487050C94B1050C94DC400C949E478A
:1003B0000C9427060C940D060C9424260C948308A8
:1003C0000C9429050C94AB040C9459430C949004A0
:1003D0000C94A5400C946A040C948E050C9484042F
:1003E0000C942D2A0C946F290C949F290C94CA0507
:1003F0000C947F330C9440430C9487400C944F052D
:100400000C94E5320C94E2050C9400050C94D24057
:100410000C9451430C94DC320C94DF040C94B43AE9
:100420000C947C080C9472320C9430050C945E4051
:100430000C94D3040C94DC270C94AD3A0C94C404B3
:100440000C945F430C94672A0C94A8290C947309AC
:100450000C9477400C947F2A0C94D1310C94AA050B
:100460000C94D9360C9498390C949E280C94E93845
:100470000C9455430C949F390C94BB050C948B043D
:100480000C9421280C944B430C9459040C9459401F
:100490000C94793D0C94A3050C94ED290C949B408D
:1004A0000C9414050C9428280C945E050C94B4400C
:1004B0000C946D430C9463050C94612A0C94F739E9
:1004C0000C94A6040C94E6040C947F400C945D2AD2
:1004D0000C9476040C947E360C94C5050C9436432B
:1004E0000C94AD090C94B5040C9454050C94C840BC
:1004F0000C9495040C942B460C9443430C94A13D0E
:100500000C94E6400C9445050C94D4050C94FB0423
:100510000C9452040C9467460C9495050C94434932
:100520000C9441080C9444330C941C330C94370500
:100530000C946D400C94E6290C945E040C94724665
:100540000C941E290C94CE040C94DF290C94103AC0
:100550000C946D050C942E060C9468050C942529BA
:100560000C9472050C94EE050C947B330C94D831EA
:100570000C94F5050C94173A0C9409370C9410441C
:100580000C94E7050C9491400C947A430C94303908
:100590000C9479050C943A430C9422050C947D0438
:1005A0000C940A370C9467430C9420060C94853AFB
:1005B0000C94BE400C94553A0C9467390C94800509
:1005C0000C94EC320C9414060C940F260C940C280A
:1005D0000C94FF390C9459050C94CF050C945F2AA8
:1005E0000C943B320C9463400C94A5320C949C0404
:1005F0000C9442320C941B460C94473A0C944A05D6
:100600000C941B050C94D2360C94C9040C9463040E
:100610000C94752A0C94A6090C94632A0000090A0C
:1006200002080B0C0D070603040100000000000087
:1006300000000000000000000000000000000000BA
:10064000000000000000000011100F00000000007A
:10065000000000000000000000000000000000009A
:1006600000000102102020080810204010204080C7
:100670000201020108040201010204081020408066
:1006800080402010080402018004020180402010F4
:10069000080402010804020101020408102040803D
:1006A000010204081020408005050505070508081B
:1006B0000808020202020A0A0808040404040101EC
:1006C0000101010101010303030303030303040701
:1006D00007070C0C0C0C0C0C0C0C02020202060698
:1006E0000606060606060B0B0B0B0B0B0B0B00008E
:1006F00020002300260029002C002F0032000001DA
:100700000000030106010901000022002500280065
:100710002B002E0031003400020100000501080109
:100720000B0100002100240027002A002D003000CA
:10073000330001010000040107010A014E414E4946
:100740004E495459494E46CDCCCC3D0AD7233C178F
:10075000B7D13877CC2B329595E6241FB14F0A00DC
:100760000020410000C84200401C4620BCBE4CCACC
:100770001B0E5AAEC59D74000F26F7394349242637
:1007800011241FBECFEFD1E2DEBFCDBF00E00CBF12
:1007900018E0A0E0B2E0E4EEF3EA00E00BBF02C034
:1007A00007900D92AA31B107D9F72DE0AAE1B8E080
:1007B00001C01D92A63EB207E1F713E0CFEBD3E0F4
:1007C00000E006C021970109802FFE010E94494FD9
:1007D000CC3BD10780E00807A9F70E94BF4B0C94DF
:1007E000E0510C9400000E9459090C94B308FB01DD
:1007F000EE0FFF1FE45EF74F808191810895FC01A9
:100800008281938108951F93CF93DF93EB01CC0FE7
:10081000DD1FBE0189E99AE00E94D83D182FBE0174
:100820006F5F7F4F89E99AE00E94D83D482F50E0E2
:1008300060E070E0762F652F542F4427812F90E0E1
:10084000840F951FDF91CF911F9108950F931F93F0
:10085000CF93DF931F92CDB7DEB78B01000F111F2F
:10086000B80189E99AE059830E94DB3DB8016F5FC6
:100870007F4F5981452F89E99AE00E94DB3D80E056
:1008800090E00F90DF91CF911F910F910895603EFE
:10089000710508F0E3C1FB018827EE58FF4F8F4F29
:1008A0000C94494F81E090E090931D0880931C08C0
:1008B000089510921F0810921E08089510922108A2
:1008C00010922008089581E090E09093230880938F
:1008D000220808951092250810922408089583E0B4
:1008E00090E09093270880932608089588E790E089
:1008F0009093330880933208089588E790E09093AE
:10090000350880933408089588E790E0909337087D
:1009100080933608089510923B0810923A08089583
:1009200010923D0810923C08089581E090E0909369
:100930003F0880933E0808951092410810924008A5
:1009400008951092430810924208089510924508A5
:10095000109244080895109247081092460808958E
:100960001092490810924808089510924B0810926E
:100970004A08089510924F0810924E080895109258
:10098000510810925008089510925308109252087E
:10099000089510925B0810925A08089510925D080D
:1009A00010925C08089510925F0810925E080895F6
:1009B00081E090E09093650880936408089581E059
:1009C00090E0909367088093660808958CE291E028
:1009D00090936F0880936E0808958CE291E0909355
:1009E00071088093700808958CE291E090937308E9
:1009F00080937208089510927708109276080895EF
:100A00001092790810927808089510927B0810923D
:100A10007A0808951092830810928208089510921F
:100A2000850810928408089581E090E090938708EB
:100A300080938608089582E390E0909397088093CE
:100A40009608089582E390E090939908809398081F
:100A5000089582E390E090939B0880939A0808950C
:100A600080E991E09093AB088093AA08089580E90B
:100A700091E09093AD088093AC08089580E991E0EF
:100A80009093AF088093AE08089510923F0910929A
:100A90003E0908951092410910924009089510925C
:100AA00043091092420908951092E7081092E6084F
:100AB00008951092E9081092E80808951092EB0842
:100AC0001092EA0808951092EF081092EE08089527
:100AD0001092F1081092F00808951092F308109205
:100AE000F208089585E090E09093FB088093FA085F
:100AF000089585E090E09093FD088093FC080895A8
:100B000085E090E09093FF088093FE08089588E3C5
:100B100090E09093030980930209089588E390E0A0
:100B20009093050980930409089588E390E09093D9
:100B3000070980930609089585E090E090930F09D6
:100B400080930E09089585E090E0909311098093B9
:100B50001009089585E090E090931309809312099D
:100B60000895109217091092160908951092190904
:100B700010921809089510921B0910921A090895ED
:100B800010922309109222090895109225091092BB
:100B900024090895109227091092260908951092A9
:100BA000AF091092AE0908958CE390E09093B109DB
:100BB0008093B009089581E090E09093B309809309
:100BC000B20908951092B7091092B60908958CE3FE
:100BD00090E09093B9098093B809089581E090E07E
:100BE0009093BB098093BA0908951092C30910929B
:100BF000C20908958CE390E09093C5098093C409DD
:100C0000089581E090E09093C7098093C609089504
:100C10001092CB091092CA0908958CE390E090934A
:100C2000CD098093CC09089581E090E09093CF099D
:100C30008093CE0908951092D7091092D60908958D
:100C40008CE390E09093D9098093D809089581E0CE
:100C500090E09093DB098093DA090895660F771F7F
:100C6000FB01E45EF74F1182108208956C36710526
:100C70000CF04AC0693671050CF083C0663271050C
:100C800024F5643271050CF07CC06831710594F470
:100C90006F3071050CF075C06630710544F4623038
:100CA00071050CF06EC0672B09F069C06AC06B500B
:100CB000710962C0693171050CF461C06C31710554
:100CC0000CF45FC06F51710957C0663371057CF435
:100CD000633371050CF055C0693271050CF44FC0D7
:100CE0006C3271050CF44DC06D52710945C06A3407
:100CF00071053CF4673471050CF043C06D53710904
:100D00003BC06556710938C060397105DCF46D3837
:100D10007105BCF56C37710564F4693771058CF5A4
:100D20006F36710564F1623771055CF163577109C3
:100D300023C06D3771051CF16038710514F16358DB
:100D400071091AC0603D710564F46D3C7105CCF405
:100D500061397105A4F0643971059CF0695C710911
:100D60000BC06A3D710534F4673D710554F4635D51
:100D7000710902C06D5D71096330710510F080E08A
:100D8000089581E008950F931F93CF93DF93EB01B4
:100D90000E9436068823C1F1FE01EE0FFF1FE45EBC
:100DA000F74F0081118169E072E08EE99BE00E94BB
:100DB0004D446DE675E08EE99BE00E944D446DE088
:100DC00072E08EE99BE00E944D444AE050E0BE0193
:100DD0008EE99BE00E941C456DE675E08EE99BE084
:100DE0000E944D446FE072E08EE99BE00E944D440A
:100DF0004AE050E0B8018EE99BE00E941C450E9449
:100E0000B2330E94B63406C061E172E08EE99BE025
:100E10000E944D4480E090E0DF91CF911F910F91AF
:100E20000895EF92FF920F931F93CF93DF931F923A
:100E30001F92CDB7DEB77C018B01FC0182819381CB
:100E40008F30F7E29F072CF40196F701938382839A
:100E500003C0F70113821282B801C70149835A8384
:100E60000E94360649815A81882381F0F801EE0FED
:100E7000FF1FE45EF74F51834083B801C7010E9412
:100E80002604B801C7010E94C30606C061E172E0F2
:100E90008EE99BE00E944D44C7010E94F30380E06D
:100EA00090E00F900F90DF91CF911F910F91FF90E5
:100EB000EF9008950F931F93CF93DF938C01C0E0C1
:100EC000D0E0BE01C8010E943606882321F0BE0191
:100ED000C8010E94C3062196C13ED10591F7DF915A
:100EE000CF911F910F910895EF92FF920F931F934F
:100EF000CF93DF937C010CE118E0C0E0D0E0BE01AD
:100F0000C7010E9436068823A1F0BE01C7010E94D6
:100F10000304F80191838083019659F4BE01C7014F
:100F20000E944704F80140815181BE01C7010E941F
:100F3000260421960E5F1F4FC13ED10501F7DF91B8
:100F4000CF911F910F91FF90EF900895EF92FF9234
:100F50000F931F93CF93DF937C010CE118E0C0E067
:100F6000D0E0BE01C7010E943606882339F0F8019F
:100F700040815181BE01C7010E94260421960E5F67
:100F80001F4FC639D10569F7DF91CF911F910F919E
:100F9000FF90EF9008950F931F93CF93DF938C01F1
:100FA000C0E0D0E0BE01C8010E943606882321F0CF
:100FB000BE01C8010E9447042196C13ED10591F7A8
:100FC000DF91CF911F910F910895CF93DF93EC01A3
:100FD00060E070E00E9403041816190644F0CE0188
:100FE0000E94CB07CE01DF91CF910C94A607CE01D2
:100FF000DF91CF910C947407CF93DF938091DE093A
:101000009091DF09892B59F484E090E00E94174603
:10101000EC010E94E507D093DF09C093DE098091BF
:10102000DE099091DF09DF91CF9108951F920F9211
:101030000FB60F9211240BB60F922F933F934F933D
:101040005F936F937F938F939F93AF93BF93EF9330
:10105000FF93E091E009F091E1091995FF91EF917B
:10106000BF91AF919F918F917F916F915F914F91C0
:101070003F912F910F900BBE0F900FBE0F901F90BE
:1010800018958F929F92AF92BF92CF92DF92EF927C
:10109000FF92CF93DF9300D01F92CDB7DEB77B01D5
:1010A000CB010E946D3D9B01AC01C70129833A83AE
:1010B0004B835C830E945B3D4B015C01C7010E9436
:1010C000553D6B017C010E94E90929813A81A40107
:1010D000B6010E940A0A80E090E00F900F900F90F6
:1010E0000F90DF91CF91FF90EF90DF90CF90BF9066
:1010F000AF909F908F90089527E332E0FC013183F9
:1011000020830C947B33CF93DF93EC010E947C0807
:10111000CE01DF91CF910C941946CF93DF93EC0170
:101120000E94813387E392E099838883DF91CF9196
:101130000895CF93DF938091E5099091E609892B7B
:1011400059F482E090E00E941746EC010E948D085D
:10115000D093E609C093E5098091E5099091E609ED
:10116000DF91CF910895CF93DF93EC012AEC30E02B
:101170004BEC50E069EC70E00E945C282EEC30E013
:101180004FEC50E06DEC70E0CE010C960E945C28B4
:1011900024ED30E045ED50E063ED70E0CE0148967F
:1011A0000E945C2828ED30E049ED50E067ED70E0EA
:1011B000CE0184960E945C282EED30E04FED50E089
:1011C0006DED70E0CE01C096DF91CF910C945C285C
:1011D000CF92DF92EF92FF920F931F93CF93DF9303
:1011E000CDB7DEB72C970FB6F894DEBF0FBECDBFDC
:1011F0008C017C016C018CE3C80ED11CC7010E94DC
:1012000058288CE0E80EF11CEC14FD04B9F7CE016F
:1012100001960E9458288CE0FE013196D801019079
:101220000D928A95E1F7CE0101960E9458288CE034
:10123000FE013196D8011C9601900D928A95E1F736
:10124000CE0101960E9458288CE0FE013196D8010B
:10125000589601900D928A95E1F7CE0101960E9471
:1012600058288CE0FE013196D801949601900D9299
:101270008A95E1F7CE0101960E9458288CE0FE0184
:101280003196D801D09601900D928A95E1F7C80168
:101290000E94B3082C960FB6F894DEBF0FBECDBFE8
:1012A000DF91CF911F910F91FF90EF90DF90CF9042
:1012B0000895CF93DF938091E7099091E809892BF6
:1012C00059F48CE390E00E941746EC010E94E80874
:1012D000D093E809C093E7098091E7099091E80964
:1012E000DF91CF9108958F929F92AF92BF92CF924C
:1012F000DF92EF92FF920F931F930E94941621E0CA
:101300002F931F921F921F921F92812C912CA12C20
:10131000B12CC12CD12C760100E010E0980140E006
:1013200050E0BA010E94A3170F900F900F900F90FA
:101330000F9080E090E01F910F91FF90EF90DF9071
:10134000CF90BF90AF909F908F90089521E432E0AE
:10135000FC01318320830C947B33CF93DF93EC012A
:101360000E94A609CE01DF91CF910C941946CF932C
:10137000DF93EC010E94813381E492E099838883BA
:10138000DF91CF910895CF93DF938091E9099091F8
:10139000EA09892B59F482E090E00E941746EC019B
:1013A0000E94B709D093EA09C093E9098091E9093D
:1013B0009091EA09DF91CF910895FC01F996835944
:1013C0009F4FDF01D8971C921192E817F907C9F7D0
:1013D0000895CF93DF938091EB099091EC09892BCD
:1013E00059F480E790E00E941746EC010E94DD0965
:1013F000D093EC09C093EB098091EB099091EC0933
:10140000DF91CF910895862F642F0E947B4380E067
:1014100090E00895DB01642FFD013197F497E0F42B
:1014200022303105C8F448E3429FF001439FF00D9C
:101430001124EA0FFB1FE80FF91F81E08083232BA3
:1014400021F48A2F0E94B74304C0752F8A2F0E946F
:10145000304080E090E0089581E090E00895EF92C0
:10146000FF920F931F93CF93DF938C01075C1F4F65
:10147000C1E0D0E0780188E3E81AF108F701808143
:101480008823F9F067E472E08EE99BE00E944D4406
:101490006BE472E08EE99BE00E944D444AE050E02C
:1014A000BE018EE99BE00E941C4561E475E08EE977
:1014B0009BE00E944D4460E08C2F0E94B743F701EF
:1014C0001082F8018081882301F167E472E08EE9DF
:1014D0009BE00E944D4462E672E08EE99BE00E9430
:1014E0004D444AE050E0BE018EE99BE00E941C455D
:1014F00061E475E08EE99BE00E944D4460E070E09D
:101500008C2F0E943040F801108221960F5F1F4FF0
:10151000C533D10509F0AECFDF91CF911F910F9167
:10152000FF90EF900895EF92FF920F931F93CF9348
:10153000DF93162F072F7A014115510549F4862FA5
:101540000E94E743D1E0C0E0019769F0D0E00BC012
:101550004130510531F4862F0E940B40D82FC92FFE
:1015600002C0D0E0C0E082E0E816F104A8F568E728
:1015700072E08EE99BE00E944D446DE675E08EE9D5
:101580009BE00E944D446DE072E08EE99BE00E947A
:101590004D444AE050E0612F702F8EE99BE00E949D
:1015A0001C456DE675E08EE99BE00E944D446FE0BE
:1015B00072E08EE99BE00E944D444AE050E06D2FBE
:1015C0007C2F8EE99BE00E941C450E94B2330E9452
:1015D000B63480E090E002C081E090E0DF91CF91EE
:1015E0001F910F91FF90EF9008954F925F926F922D
:1015F0007F928F929F92AF92BF92CF92DF92EF92A3
:10160000FF920F931F93CF93DF93EC015B0149018E
:1016100096010E940A0AC801B7010E946A41960118
:10162000A401B501CE010E940A0A80E090E0DF919A
:10163000CF911F910F91FF90EF90DF90CF90BF90CF
:10164000AF909F908F907F906F905F904F90089594
:10165000EF92FF920F931F93CF93DF93EC016DEC0A
:1016600074E08EE99BE00E944D446EE576E08EE9E1
:101670009BE00E944D447E0181E9E81A8EEFF80A52
:10168000C7010E94C635AB01BC012AE030E08EE9FB
:101690009BE00E94D2446EE676E08EE99BE00E94D9
:1016A0004D448E0107571E4FC8010E94C635AB013D
:1016B000BC012AE030E08EE99BE00E94D2446EE754
:1016C00076E08EE99BE00E944D44CD55DE4FCE0181
:1016D0000E94C635AB01BC012AE030E08EE99BE0F8
:1016E0000E94D2440E94B2330E94B63469EC74E086
:1016F0008EE99BE00E944D446EE576E08EE99BE02A
:101700000E944D44C7010E94E535AB01BC012AE0AF
:1017100030E08EE99BE00E94D2446EE676E08EE9EE
:101720009BE00E944D44C8010E94E535AB01BC011D
:101730002AE030E08EE99BE00E94D2446EE776E03A
:101740008EE99BE00E944D44CE010E94E535AB013D
:10175000BC012AE030E08EE99BE00E94D2440E9466
:10176000B233DF91CF911F910F91FF90EF900C94C6
:10177000B634CF92DF92EF92FF920F931F93CF93E5
:10178000DF93CDB7DEB727970FB6F894DEBF0FBE55
:10179000CDBF6B017A018C0103541E4F65ED74E0DF
:1017A000C8010E94E54A6DE675E0C8010E94E54A5D
:1017B000F6016081C8010E94F44AB701C8010E9485
:1017C000084B0E94B233BC01CE0101960E947035D5
:1017D000BE016F5F7F4FC8010E94DE4ACE010196B5
:1017E0000E94154A27960FB6F894DEBF0FBECDBFF4
:1017F000DF91CF911F910F91FF90EF90DF90CF90ED
:1018000008950F931F93CF93DF938B01EA0161ED4E
:1018100074E08EE99BE00E944D446DE675E08EE930
:101820009BE00E944D44F80160818EE99BE00E949C
:101830004F444AE050E0BE018EE99BE00E941C4507
:101840000E94B233DF91CF911F910F910C94B63467
:10185000CF92DF92EF92FF920F931F93CF93DF937C
:101860007C018B016A01CB010E949531882319F01C
:10187000C2E0D0E002C0C0E0D0E0C8010E949F31C9
:10188000882311F0C3E0D0E0C8010E949A31882378
:1018900011F0C4E0D0E0C8010E94A431882311F007
:1018A000C6E0D0E0F601808191818C179D0721F080
:1018B00091E01C161D060CF090E0F601D183C08368
:1018C000992379F0B701605F7F4FAE01C701DF91C7
:1018D000CF911F910F91FF90EF90DF90CF900C94DC
:1018E000B90BDF91CF911F910F91FF90EF90DF9097
:1018F000CF9008950F931F93CF93DF93FC01EF5385
:10190000FE4F2081318121153105A1F1EC018C01BF
:101910000A531E4FF80160817181C354DE4F621774
:10192000730700F5CE010E947C4B8A30A1F08D3008
:1019300039F461E475E08EE99BE00E944D440BC0F0
:10194000F80160817181CE010E947C4B682F8EE985
:101950009BE00E944F44F801808191810196918320
:10196000808308C063E475E0CE010E94994AF801C3
:1019700011821082DF91CF911F910F9108950F93E3
:101980001F93CF93DF93EC018C010F531E4FF8018F
:1019900080819181892B21F0CE010E947A0CF7CFB2
:1019A000DF91CF911F910F9108952F923F924F9207
:1019B0005F926F927F928F929F92AF92BF92CF92DF
:1019C000DF92EF92FF920F931F93CF93DF931F92BB
:1019D0001F92CDB7DEB73B012A011901BA82A98255
:1019E000F4018081882309F46FC0F901808091801F
:1019F000A280B38020E030E0A901C501B4010E94BB
:101A0000814E18167CF4E981FA812081318142816E
:101A10005381C501B4010E94B54CF101608371830B
:101A200082839383C3010E949031811106C0C30158
:101A30000E949031811138C00EC0F70180809180E2
:101A4000A280B380C2010E94E535681579058A0538
:101A50009B0574F0ECCFF70180809180A280B38069
:101A6000C2010E94E53586169706A806B906E4F479
:101A7000F10180809180A280B38020E030E04AEFC5
:101A800056E4C501B4010E94224D87FF0DC020E03D
:101A900030E040E85FE3C501B4010E94B64CF101BB
:101AA0006083718382839383C2010E94E535F701CD
:101AB0006083718382839383C3010E947431F80130
:101AC0006083718382839383F60180819181892B66
:101AD000E1F0C2010E94C635AB01BC01C3010F9009
:101AE0000F90DF91CF911F910F91FF90EF90DF90BA
:101AF000CF90BF90AF909F908F907F906F905F90AE
:101B00004F903F902F900C947A310F900F90DF916F
:101B1000CF911F910F91FF90EF90DF90CF90BF90EA
:101B2000AF909F908F907F906F905F904F903F907D
:101B30002F9008952F923F924F925F926F927F92D3
:101B40008F929F92AF92BF92CF92DF92EF92FF92CD
:101B50000F931F93CF93DF93EC010E94FC076FE676
:101B600070E00E94F703FE01EA5AFD4F91838083E3
:101B70000E94FC0760E770E00E94F703FE01E85A4C
:101B8000FD4F918380830E94FC0761E770E00E9413
:101B9000F703FE01E65AFD4F918380830E94FC0704
:101BA00069E770E00E94F7031E0124EA221A2DEF74
:101BB000320ABC01990F880B990B0E94D14DF1019B
:101BC00060837183828393830E94FC076AE770E0DD
:101BD0000E94F7038E01005A1D4FBC01990F880B1C
:101BE000990B0E94D14DF8016083718382839383A6
:101BF0000E94FC076BE770E00E94F7033C0120E0C5
:101C000030E048EC52E4F10160817181828193817E
:101C10000E94274D4B015C0120E030E048EC52E48B
:101C2000F80160817181828193810E94274D6B014F
:101C30007C01B301770C880B990B0E94D14D20E0F9
:101C400030E048EC52E40E94274D2B013C012AE091
:101C500037ED43E25CE3C501B4010E94814E1816E2
:101C60008CF420E030E046EC52E4C501B4010E945F
:101C7000224D87FD0FC0812C912C46ECA42E42E40E
:101C8000B42E08C05AE0852E57ED952E53E2A52EAE
:101C90005CE3B52EF10180829182A282B3822AE0B8
:101CA00037ED43E25CE3C701B6010E94814E18168E
:101CB0008CF420E030E046EC52E4C701B6010E940B
:101CC000224D87FD0FC0C12CD12C26ECE22E22E440
:101CD000F22E08C03AE0C32E37EDD32E33E2E32EC6
:101CE0003CE3F32EF801C082D182E282F3822AE043
:101CF00037ED43E25CE3C301B2010E94814E181646
:101D00008CF420E030E046EC52E4C301B2010E94C2
:101D1000224D87FD0FC0412C512C86EC682E82E4A9
:101D2000782E08C09AE0492E97ED592E93E2692E3D
:101D30009CE3792EFE01EC59FD4F40825182628274
:101D400073820E94FC0769E670E00E94F703FE01BF
:101D5000E559FD4F918380830E94FC076AE670E09D
:101D60000E94F703FE01E359FD4F918380830E9497
:101D7000FC076BE670E00E94F703FE01E159FD4F9E
:101D8000918380830E94FC0763E770E00E94F70361
:101D9000FE01EF58FD4F918380830E94FC0764E7AA
:101DA00070E00E94F703FE01ED58FD4F91838083A0
:101DB0000E94FC0765E770E00E94F703FE01EB5804
:101DC000FD4F918380830E94FC076DE770E00E94C5
:101DD000F703FE01E958FD4F918380830E94FC07C1
:101DE0006EE770E00E94F703FE01E758FD4F918314
:101DF00080830E94FC076FE770E00E94F703FE01FA
:101E0000E558FD4F918380830E94FC0763E870E0F2
:101E10000E94F703FE01E358FD4F918380830E94E7
:101E2000FC0764E870E00E94F703FE01E158FD4FF3
:101E3000918380830E94FC0765E870E00E94F703AD
:101E4000FE01EF57FD4F918380830E94FC0765E6FA
:101E500070E00E94F703FE01E859FD4F019719F465
:101E600081E0808301C010820E94FC0766E670E07A
:101E70000E94F703FE01E759FD4F019719F481E035
:101E8000808301C010820E94FC0767E670E00E9418
:101E9000F703C659DD4F019719F481E0888301C02B
:101EA0001882DF91CF911F910F91FF90EF90DF90FB
:101EB000CF90BF90AF909F908F907F906F905F90EA
:101EC0004F903F902F900895CF93DF93EC01FC014A
:101ED000E957FD4F81E08083CE0140960E94032F99
:101EE000CE018B579F4F0E94032FCE0186509F4FEC
:101EF0000E94032F64E670E080E090E0DF91CF91D4
:101F00000C946A41CF93DF93EC01FC01E957FD4F3C
:101F1000108240960E94182FCE018B579F4F0E942F
:101F2000182FCE0186509F4FDF91CF910C94182F20
:101F3000CF93DF93EC01FC01E957FD4F1082E95785
:101F4000F1098081811104C0CE0140960E94182FB2
:101F5000FE01E15FFD4F8081811105C0CE018B57ED
:101F60009F4F0E94182FFE01E05FFD4F808181117D
:101F700005C0CE0186509F4F0E94182F64E670E086
:101F800080E090E0DF91CF910C946A41CF93DF9392
:101F9000EC01FC01E25FFD4F20814096222319F005
:101FA0000E94032F02C00E94182FFE01E15FFD4F27
:101FB0002081CE018B579F4F222319F00E94032FBF
:101FC00002C00E94182FFE01E05FFD4F2081CE016C
:101FD00086509F4F222321F0DF91CF910C94032F45
:101FE000DF91CF910C94182F2F923F924F925F92D6
:101FF0006F927F928F929F92AF92BF92CF92DF9219
:10200000EF92FF920F931F93CF93DF9300D01F9215
:10201000CDB7DEB79C838B830E94FC0763E370E03F
:102020000E94F7034B805C802BE2421A2EEF520A8B
:1020300021E0892B09F420E0F20120830E94FC07B3
:1020400064E370E00E94F7032B803C80FAE22F1AD1
:10205000FEEF3F0A21E0892B09F420E0F101208303
:102060000E94FC0765E370E00E94F7032B813C812E
:1020700029523E4F3A83298321E0892B09F420E03D
:10208000E981FA8120830E94FC0767E470E00E94E6
:10209000F7036B807C80F8E26F1AFEEF7F0A092E4F
:1020A000000CAA0BBB0BF30180839183A283B38343
:1020B0000E94FC0768E470E00E94F703EB81FC815A
:1020C000E452FE4F092E000CAA0BBB0B80839183B8
:1020D000A283B3830E94FC0769E470E00E94F703C7
:1020E000EB81FC81E052FE4F092E000CAA0BBB0BCA
:1020F00080839183A283B3830E94FC076DE370E029
:102100000E94F7030B811C810C511E4F092E000CFD
:10211000AA0BBB0BF80180839183A283B3830E9437
:10212000FC076EE370E00E94F703EB81FC81E8514D
:10213000FE4F092E000CAA0BBB0B80839183A28358
:10214000B3830E94FC076FE370E00E94F703EB810A
:10215000FC81E451FE4F092E000CAA0BBB0B8083BF
:102160009183A283B3830E94FC0769E270E00E941E
:10217000F703EB80FC80F0E1EF1AFEEFFF0A092E77
:10218000000CAA0BBB0BF70180839183A283B3835E
:102190000E94FC076AE270E00E94F703EB81FC8179
:1021A000EC50FE4F092E000CAA0BBB0B80839183D1
:1021B000A283B3830E94FC076BE270E00E94F703E6
:1021C000EB81FC81E850FE4F092E000CAA0BBB0BE3
:1021D00080839183A283B3830E94FC076FE170E048
:1021E0000E94F703EB81FC81E450FE4F21E0019750
:1021F00009F020E020830E94FC0760E270E00E946A
:10220000F703EB81FC81E350FE4F21E0019709F0D9
:1022100020E020830E94FC0761E270E00E94F70347
:10222000EB81FC81E250FE4F21E0019709F020E0B4
:1022300020830E94FC0765E170E00E94F703EB81B8
:10224000FC81E65EFD4F21E0892B09F420E020832C
:102250000E94FC0766E170E00E94F703EB81FC81BD
:10226000E55EFD4F21E0892B09F420E020830E94E8
:10227000FC0767E170E00E94F703EB81FC81E45EFC
:10228000FD4F21E0892B09F420E020830E94FC0708
:1022900069E170E00E94F703EB81FC81E35EFD4F92
:1022A00021E0019709F020E020830E94FC076AE109
:1022B00070E00E94F703EB81FC81E25EFD4F21E0BC
:1022C000019709F020E020830E94FC076BE170E099
:1022D0000E94F703EB81FC81E15EFD4F21E0019755
:1022E00009F020E020830E94FC076BE070E00E9470
:1022F000F703CB80DC80F0EECF1AFDEFDF0A092E6A
:10230000000CAA0BBB0BF60180839183A283B383DD
:102310000E94FC076BE070E00E94F703EB81FC81F8
:10232000EC5DFD4F092E000CAA0BBB0B8083918343
:10233000A283B3830E94FC076BE070E00E94F70366
:10234000EB81FC81E85DFD4F092E000CAA0BBB0B55
:1023500080839183A283B3830E94FC076FE070E0C7
:102360000E94F703EB81FC81E25FFD4F21E0892BA6
:1023700009F420E020830E94FC0760E170E00E94E5
:10238000F703EB81FC81E15FFD4F21E0892B09F42C
:1023900020E020830E94FC0761E170E00E94F703C7
:1023A000EB81FC81E05FFD4F21E0892B09F420E007
:1023B00020830E94FC076DE870E00E94F703EB8128
:1023C000FC81E150FE4F092E000CAA0BBB0B808351
:1023D0009183A283B3830E94FC076EE870E00E94A1
:1023E000F703EB81FC81ED5FFD4F092E000CAA0B7A
:1023F000BB0B80839183A283B3830E94FC076FE8A9
:1024000070E00E94F703EB81FC81E95FFD4F092E2C
:10241000000CAA0BBB0B80839183A283B3830E9421
:10242000FC0765E270E00E94F703EB81FC81EF5E40
:10243000FD4F21E0019709F020E02083EB81FC8132
:10244000EE5EFD4F1082EB81FC81ED5EFD4F108250
:102450000E94FC0764E270E00E94F703EB81FC81BC
:10246000EC5EFD4F21E0019709F020E02083EB8135
:10247000FC81EB5EFD4F1082EB81FC81EA5EFD4F3B
:1024800010820E94FC076DE270E00E94F703EB816E
:10249000FC81E95EFD4F21E0019709F020E02083F7
:1024A0000E94FC076EE270E00E94F703EB81FC8162
:1024B000E85EFD4F21E0019709F020E020830E94B3
:1024C000FC076FE270E00E94F703EB81FC81E75E9E
:1024D000FD4F21E0019709F020E020830E94FC07D6
:1024E00061E970E00E94F703EB81FC81E55FFD4F3D
:1024F00021E0019709F020E020830E94FC0762E9B7
:1025000070E00E94F703EB81FC81E45FFD4F21E066
:10251000019709F020E020830E94FC0763E970E046
:102520000E94F703EB81FC81E35FFD4F21E00197FF
:1025300009F020E02083F60180809180A280B380A2
:10254000F701C080D180E280F380F8010081118121
:1025500022813381F3014081518162817381EB815A
:10256000FC81E55FFD4F80818F93EB81FC81E15021
:10257000FE4F83818F9382818F9381818F9380819E
:102580008F93EB81FC81E95EFD4F80818F93EB811E
:10259000FC81E35EFD4F80818F93EB81FC81EF5ED8
:1025A000FD4F80818F93EB81FC81EC5EFD4F80813C
:1025B0008F931F921F921F9280E4782E7F92EB815F
:1025C000FC81E65EFD4F80818F93EB81FC81E450BE
:1025D000FE4F80818F93F20180818F938B819C814C
:1025E00040960E94ED2DEB81FC81EC5DFD4F8080DB
:1025F0009180A280B380EB81FC81EC50FE4FC080C3
:10260000D180E280F380EB81FC81E851FE4F0081B4
:10261000118122813381EB81FC81E452FE4F4081A4
:10262000518162817381EB81FC81E45FFD4F808188
:102630008F93EB81FC81ED5FFD4F83818F938281CE
:102640008F9381818F9380818F93EB81FC81E85EF2
:10265000FD4F80818F93EB81FC81E25EFD4F808195
:102660008F93EB81FC81EE5EFD4F80818F93EB8138
:10267000FC81EB5EFD4F80818F931F921F921F9212
:102680007F92EB81FC81E55EFD4F80818F93EB8132
:10269000FC81E350FE4F80818F93F10180818F9305
:1026A0008B819C818B579F4F0E94ED2D0FB6F89424
:1026B000DEBF0FBECDBFEB81FC81E85DFD4F8080AA
:1026C0009180A280B380EB81FC81E850FE4FC080F6
:1026D000D180E280F380EB81FC81E451FE4F0081E8
:1026E000118122813381EB81FC81E052FE4F4081D8
:1026F000518162817381EB81FC81E35FFD4F8081B9
:102700008F93EB81FC81E95FFD4F83818F93828101
:102710008F9381818F9380818F93EB81FC81E75E22
:10272000FD4F80818F93EB81FC81E15EFD4F8081C5
:102730008F93EB81FC81ED5EFD4F80818F93EB8168
:10274000FC81EA5EFD4F80818F931F921F921F9242
:102750007F92EB81FC81E45EFD4F80818F93EB8162
:10276000FC81E250FE4F80818F93E981FA81808164
:102770008F938B819C8186509F4F0E94ED2D0FB6C9
:10278000F894DEBF0FBECDBF8B819C810F900F9060
:102790000F900F90DF91CF911F910F91FF90EF90CD
:1027A000DF90CF90BF90AF909F908F907F906F9071
:1027B0005F904F903F902F900C94C60F8F929F92F6
:1027C000AF92BF92CF92DF92EF92FF920F931F933F
:1027D000CF93DF93EC0128E1822E912C3CE1A32ED4
:1027E000B12C4AE1C42ED12C52E0E52EF12C03E0AD
:1027F00010E026E230E047E350E066E370E0409608
:102800000E94C12D812C912CA12CB12CC12CD12C3A
:102810006FE0E62EF12C0EE010E028E330E04DE30F
:1028200050E06CE370E0CE018B579F4F0E94C12DAA
:1028300073E1E72EF12C02E110E02EE330E040E3FB
:1028400050E06EE270E0CE0186509F4F0E94C12D95
:10285000FE01E153FE4F11821082329611821082E6
:10286000329611821082CE010E94F40FCE010E9496
:102870009A0D5E0181E9A81A8EEFB80A01E210E014
:102880002FE130E041E150E060E170E0C5010E94DD
:1028900047366E0187E7C81A8EEFD80A05E210E0C6
:1028A00023E230E049E150E067E170E0C6010E94B8
:1028B00047367E018DE5E81A8EEFF80A09E210E04E
:1028C00027E230E04DE150E06BE170E0C7010E948B
:1028D0004736FE01E358FD4F208131813C9740810E
:1028E0005181369760817181C5010E94B035FE012A
:1028F000E158FD4F208131813C97408151813697CD
:1029000060817181C6010E94B035FE01EF57FD4F15
:10291000208131813C9740815181C159DD4F6881CF
:102920007981C701DF91CF911F910F91FF90EF90B7
:10293000DF90CF90BF90AF909F908F900C94B03568
:102940002F923F924F925F926F927F928F929F92BF
:10295000AF92BF92CF92DF92EF92FF920F931F93AD
:10296000CF93DF93CDB7DEB7C557D1090FB6F89433
:10297000DEBF0FBECDBF8C01FC011082118212821E
:10298000138214821582168217821086118612868F
:10299000138614861586168617862C01F0E14F0ED5
:1029A000511CC2010E94892A680185E8C80ED11C09
:1029B000C6010E94892A7801EAEFEE0EF11CC701D8
:1029C0000E94892A3801F1E96F1AFEEF7F0AC301DC
:1029D0000E949A35480187E7881A8EEF980AC40149
:1029E0000E949A355801EDE5AE1AEEEFBE0AC50118
:1029F0000E949A3563E475E0C80183549E4F0E949B
:102A0000834AF801EC53FE4F1182108232961182F4
:102A10001082329611821082329611821082329682
:102A20001082319610823196108231961182108276
:102A30003296118210823296118210823296108262
:102A40003196108231961082319610821182128254
:102A5000138234961082118212821382349610826D
:102A60001182128213823496108211821282138292
:102A7000349610821182128213823496108211824F
:102A8000128213823496108211821282138234963B
:102A90001082118212821382349610821182128265
:102AA00013823496108231961082319610823196BC
:102AB0001082118212821382349610821182128245
:102AC00013823496108211821282138234961082FD
:102AD0003196108231961082319610823196108292
:102AE0003196108231961082319610823196108282
:102AF0003196108231961082319610823196108272
:102B00003196108231961082319610823196108261
:102B10003196108231961082319610823196108251
:102B200031961082118212821382349610821182A1
:102B3000128213823496108211821282138234968A
:102B400010821182128213823496108211821282B4
:102B5000138234961082118212821382349611826B
:102B60001082329611821082329611821082329631
:102B70001082118212821382349610821182128284
:102B8000138234961082118212821382349610823C
:102B90001182128213823496108211821282138261
:102BA000349610821182128213823496118210821E
:102BB00032961182108232961182108232961082E1
:102BC0001182128213823496108211821282138231
:102BD00034961082118212821382349610823196BA
:102BE00010823196108231961182108232961182B3
:102BF00010823296118210823296118210823296A1
:102C000011821082329611821082329611821082C5
:102C1000329611821082329611821082329611827F
:102C20001082329611821082329611821082329670
:102C3000118210823296118210821801F9E72F1A40
:102C4000FDEF3F0AF1011082CE0101960E94892A10
:102C500085E7FE013196D20101900D928A95E1F748
:102C6000CE0101960E94892A85E7FE013196D601A0
:102C700001900D928A95E1F7CE0101960E94892A72
:102C800085E7FE013196D70101900D928A95E1F713
:102C900088E5F801808B89E5F60180838AE5F701F4
:102CA0008083CE0101960E949A358AE1FE01319619
:102CB000D30101900D928A95E1F7CE0101960E9411
:102CC0009A358AE1FE013196D40101900D928A95E0
:102CD000E1F7CE0101960E949A358AE1FE01319614
:102CE000D50101900D928A95E1F7C8010E94DE138B
:102CF000F1011082CB58DF4F0FB6F894DEBF0FBE44
:102D0000CDBFDF91CF911F910F91FF90EF90DF909A
:102D1000CF90BF90AF909F908F907F906F905F907B
:102D20004F903F902F900895CF93DF938091ED09BE
:102D30009091EE09892B59F488E892E00E94174699
:102D4000EC010E94A014D093EE09C093ED0980918C
:102D5000ED099091EE09DF91CF9108950F931F93A4
:102D6000CF93DF9300D01F92CDB7DEB78C01409692
:102D70000E947431AB01BC0149835A836B837C830D
:102D80000E94B23349815A816B817C810E94E73372
:102D9000C8018B579F4F0E947431AB01BC0149831E
:102DA0005A836B837C830E94B23349815A816B8141
:102DB0007C810E94F033C80186509F4F0E9474317D
:102DC000AB01BC0149835A836B837C830E94B2337D
:102DD00049815A816B817C810F900F900F900F90E9
:102DE000DF91CF911F910F910C94F9330E94B23370
:102DF0000C941A350E94B2330C94D0340E94B23332
:102E00000C940C34CF92DF92EF92FF92CF93DF932A
:102E1000EC016A017B0140960E947A31B701A6015C
:102E2000CE0181599E4FDF91CF91FF90EF90DF90BF
:102E3000CF900C94C035CF92DF92EF92FF92CF9358
:102E4000DF93EC016A017B018B579F4F0E947A311F
:102E5000B701A601CE0187579E4FDF91CF91FF901A
:102E6000EF90DF90CF900C94C035CF92DF92EF922D
:102E7000FF92CF93DF93EC016A017B0186509F4F55
:102E80000E947A31B701A601CE018D559E4FDF9188
:102E9000CF91FF90EF90DF90CF900C94C0350F93BF
:102EA000CF93DF93EC0106B126B1E0E0F1E0408181
:102EB00060810295017026FB222720F941706695FA
:102EC000617081599E4F0E946D3606B126B140B1A6
:102ED00060B1017022FB222720F943FB442740F90F
:102EE00066956170CE0187579E4F0E946D3602B382
:102EF00022B340B160B1017022FB222720F9441FA8
:102F00004427441F65FB662760F9CE018D559E4F0F
:102F10000E946D36DF91CF910F910895CF93DF938B
:102F2000EC010E944F17CE0140960E94442DCE0125
:102F30008B579F4F0E94442DCE0186509F4FDF91AB
:102F4000CF910C94442D2F923F924F925F926F92AB
:102F50007F928F929F92AF92BF92CF92DF92EF9229
:102F6000FF920F931F93CF93DF93CDB7DEB7E49714
:102F70000FB6F894DEBF0FBECDBF1C014E8F5F8F22
:102F800068A379A30AA31BA32CA33DA3CEA2DFA20F
:102F9000E8A6F9A62C96EEACFFAC2C970E9439411E
:102FA0006A8B7B8B8C8B9D8BF101E853FE4F1182DA
:102FB0001082329611821082A114B10489F0C501E9
:102FC000A0E0B0E03E964081518162817381841718
:102FD0009507A607B70724F480839183A283B38360
:102FE0008114910491F0A12CB12CF101E452FE4F17
:102FF00080819181A281B38188169906AA06BB06B9
:1030000024F480829182A282B382E114F10499F0C7
:10301000C701A0E0B0E0F101E052FE4F40815181D4
:103020006281738184179507A607B70724F480830C
:103030009183A283B383310120E1620E711CF101FF
:10304000E852FE4F4081518162817381C3010E9429
:103050008031210135E8430E511CF101E452FE4F4D
:103060004081518162817381C2010E948031A1013E
:1030700046505F4F59874887F101E052FE4F40812B
:10308000518162817381888599850E9480310E9477
:10309000B2330E94CC330E94B2330E94D5330E94D7
:1030A000B2330E94DE330E94B2330E94CC336E876B
:1030B0007F87888B998B0E94B2330E94D5336E8BA9
:1030C0007F8B888F998F0E94B2330E94DE334B0131
:1030D0005C01F101E45DFD4F1082118212821382C6
:1030E00034961082118212821382349610821182D9
:1030F00012821382349611821082329611821082CB
:1031000032961182108232968E859F85A889B98960
:1031100080839183A283B38334962E893F89488D1F
:10312000598D2083318342835383349680829182E8
:10313000A282B3822D96EFAC2D970E8D1F8D28A104
:1031400039A1AC01BD01C3010E948F2E2E96EFACB8
:103150002E970AA11BA12CA13DA14E895F89688DE4
:10316000798DC2010E948F2E2F96EFAC2F970EA162
:103170001FA128A539A5B501A401888599850E94BC
:103180008F2ED10151961C92F101EA57FF4F108208
:10319000EB58FF4F1082C1010E94FE16C1010E9430
:1031A000F616C3010E94602FC2010E94602F88851D
:1031B00099850E94602F81E090E0F101E153FE4F7C
:1031C000918380837101BFE2EB1ABEEFFB0AF70126
:1031D0009183808381010D521E4FD8018D939C9362
:1031E00041E050E0B301C1010E94B90BF7014081F9
:1031F0005181B201C1010E94B90BD8014D915C917E
:1032000068857985C1010E94B90BC1010E94640FD4
:103210006101B4E3CB1ABEEFDB0A81E0F6018083E3
:103220007101F3E3EF1AFEEFFF0AD7018C9305500B
:103230001109F80180832D96FFAD2D97F1110DC076
:103240002E962FAD2E97211105C02F963FAD2F97AB
:10325000332319F1C3010E94A4302E964FAD2E974F
:10326000411103C0C2010E94A4302F965FAD2F9779
:10327000511104C0888599850E94A4302D96EFAD28
:103280002D97D601EC932E96EFAD2E97D701EC93A8
:103290002F96EFAD2F97D801EC93C3010E94E92F31
:1032A000C2010E94E92F888599850E94E92FC301F8
:1032B0000E94572DC2010E94572D888599850E9432
:1032C000572D0E94B2330E9497358AA71F861E860B
:1032D000910124533E4F3F8B2E8BA10141535E4FF2
:1032E0005CA74BA7C10183539E4F9F8F8E8FD10147
:1032F000A253BE4FBBA3AAA3F101EF52FE4FF8ABFE
:10330000EFA7295F3F4F3AAB29AB47565F4F5CAB06
:103310004BAB07979EA78DA71697BFA3AEA3EE89C9
:10332000FF89808181110BC0AE8DBF8D8C91811181
:1033300006C0EAA1FBA18081882309F45DC3FAA538
:10334000F1115AC34BA55CA5B301C1010E94280C21
:103350004FA558A9B201C1010E94280C49A95AA938
:1033600068857985C1010E94280CC3010E94313112
:10337000C2010E943131888599850E943131C30193
:103380000E948631882321F1C3010E94E92F8BA876
:103390009CA85101B4EAAB1ABDEFBB0A6101E9E890
:1033A000CE1AEDEFDE0A7101F6EBEF1AFDEFFF0A20
:1033B0008101025C1D4F9101245D3D4FA1014159E6
:1033C0005E4FB301C1010E94D50CC3010E948B3135
:1033D000C2010E948631882339F1C2010E94E92F7F
:1033E000410127E9821A2DEF920A510130EAA31A0E
:1033F0003DEFB30A610147E8C41A4DEFD40A7101E9
:1034000052EBE51A5DEFF50A81010E5B1D4F91014C
:10341000205D3D4FA10147575E4FB201C1010E949F
:10342000D50CC2010E948B31888599850E94863116
:10343000882351F1888599850E94E92F410186E909
:10344000881A8DEF980A51019CE9A91A9DEFB90AD3
:103450006101A5E8CA1AADEFDA0A7101BEEAEB1AFA
:10346000BDEFFB0A81010A5B1D4F91012C5C3D4FB2
:10347000A1014D555E4F68857985C1010E94D50C2B
:10348000888599850E948B31C3010E949F308823D3
:1034900009F443C0F101EA5AFD4F60817181072EA2
:1034A000000C880B990B0E94D14D9B01AC01F101DE
:1034B000E45DFD4F60817181828193810E94814E24
:1034C00018165CF5C3010E94A43067E472E0710134
:1034D00023E4E21A2EEFF20AC7010E94E54A62EFE6
:1034E00072E0C7010E94E54A61E475E0C7010E94ED
:1034F000E54A2D963FAD2D97332309F415C340E0DF
:1035000050E0BA01C10181599E4F0E94C03540E090
:1035100050E0BA01C3010E947A31C2010E949F307B
:10352000882309F443C0F101E85AFD4F608171819D
:10353000072E000C880B990B0E94D14D9B01AC010A
:10354000F101E05DFD4F60817181828193810E9474
:10355000814E18165CF5C2010E94A43067E472E047
:10356000710153E4E51A5EEFF50AC7010E94E54ACE
:103570006AE173E0C7010E94E54A61E475E0C701B2
:103580000E94E54A2E968FAD2E97882309F4D1C26A
:1035900040E050E0BA01C10187579E4F0E94C035FC
:1035A00040E050E0BA01C2010E947A3188859985D5
:1035B0000E949F30882309F445C0F101E65AFD4F6F
:1035C00060817181072E000C880B990B0E94D14DF0
:1035D0009B01AC01F101EC5CFD4F60817181828146
:1035E00093810E94814E18166CF5888599850E94FA
:1035F000A43067E472E07101B3E4EB1ABEEFFB0A9A
:10360000C7010E94E54A62E473E0C7010E94E54AEF
:1036100061E475E0C7010E94E54A2F96EFAD2F9750
:10362000EE2309F48BC240E050E0BA01C1018D5590
:103630009E4F0E94C03540E050E0BA0188859985D0
:103640000E947A3160E0C3010E94C72F882371F085
:1036500040E050E0BA01C3010E947A3140E050E0FE
:10366000BA01C10181599E4F0E94C03560E0C2017C
:103670000E94C72F882371F040E050E0BA01C201D8
:103680000E947A3140E050E0BA01C10187579E4F55
:103690000E94C03560E0888599850E94C72F8823E5
:1036A00079F040E050E0BA01888599850E947A312E
:1036B00040E050E0BA01C1018D559E4F0E94C035D7
:1036C000C3010E949F30EE89FF898083C2010E945E
:1036D0009F30AE8DBF8D8C93888599850E949F30D9
:1036E000EAA1FBA18083C3010E9474316A877B87B2
:1036F0008C879D87C2010E9474314B015C018885D3
:1037000099850E9474316B017C010E94B2334A8515
:103710005B856C857D850E94E7330E94B233B501DD
:10372000A4010E94F0330E94B233B701A6010E94A7
:10373000F933C1010E94FE16AE89BF898C9188239E
:1037400009F44AC00E9439412A893B894C895D8924
:10375000621773078407950760F40E9439412A892C
:103760003B894C895D896217730784079507A0F52B
:103770001EC00E9439416B017C012A893B894C891A
:103780005D89C21AD30AE40AF50AF101E05EFD4F31
:103790002081318142815381A8EEB3E00E94514FD4
:1037A0006C157D058E059F0508F4CDC1D6CF0E940E
:1037B00039416B017C01F101E05EFD4F20813181D7
:1037C00042815381A8EEB3E00E94514F6C157D05F4
:1037D0008E059F0508F4B7C1AE8DBF8D8C918823EF
:1037E00009F44AC00E9439412A893B894C895D8984
:1037F000621773078407950760F40E9439412A898C
:103800003B894C895D896217730784079507A0F58A
:103810001EC00E9439416B017C012A893B894C8979
:103820005D89C21AD30AE40AF50AF101E05EFD4F90
:103830002081318142815381A8EEB3E00E94514F33
:103840006C157D058E059F0508F489C1D6CF0E94B1
:1038500039416B017C01F101E05EFD4F2081318136
:1038600042815381A8EEB3E00E94514F6C157D0553
:103870008E059F0508F473C1AAA1BBA18C91882372
:1038800009F44AC00E9439412A893B894C895D89E3
:10389000621773078407950760F40E9439412A89EB
:1038A0003B894C895D896217730784079507A0F5EA
:1038B0001EC00E9439416B017C012A893B894C89D9
:1038C0005D89C21AD30AE40AF50AF101E05EFD4FF0
:1038D0002081318142815381A8EEB3E00E94514F93
:1038E0006C157D058E059F0508F445C1D6CF0E9455
:1038F00039416B017C01F101E05EFD4F2081318196
:1039000042815381A8EEB3E00E94514F6C157D05B2
:103910008E059F0508F42FC18EE99BE00E941B468F
:10392000181619067CF58EE99BE00E9447468F7DAC
:103930008534910539F568EB72E0C10183549E4FDF
:103940000E94E54A65EC74E08EE99BE00E944D44DC
:103950000E94B2330E94B634C3010E94A430C20157
:103960000E94A430888599850E94A430AE89BF89C1
:103970001C92EE8DFF8D1082AAA1BBA11C92B1E01A
:10398000BAA704C0EE85FF853197A9F46DEC72E00B
:10399000C10183549E4F0E94E54AAE89BF891C92A3
:1039A000EE8DFF8D1082AAA1BBA11C92E1E0F0E098
:1039B000FF87EE8702C01F861E86C1010E947A0C17
:1039C000F101E653FE4F80819181019691838083BE
:1039D0008D3291400CF4A3CCD101AF53BE4F8D91E9
:1039E0009C91892B09F09BCCADA5BEA58D919C9196
:1039F000892B09F4CCC093CCC1010E94BF0C69EDA6
:103A000072E08EE99BE00E944D4485E090E0ABA51A
:103A1000BCA58D939C934101BFE28B1ABEEF9B0A1C
:103A2000F401918380835101FDE2AF1AFEEFBF0ADA
:103A3000D5018D939C9345E050E0B301C1010E94F4
:103A4000B90BF40140815181B201C1010E94B90B4F
:103A5000D5014D915C9168857985C1010E94B90BB2
:103A6000C1010E94980FC3010E9474316A8B7B8B45
:103A70008C8B9D8BC2010E9474316B017C01888507
:103A800099850E9474316A8F7B8F8C8F9D8F0E94E5
:103A9000B2334A895B896C897D890E94E7330E9431
:103AA000B233B701A6010E94F0330E94B2334A8DAF
:103AB0005B8D6C8D7D8D0E94F933C1010E94FE16D5
:103AC000C1010E94F616C1010E94FA16C1010E94AE
:103AD000280BEBA5FCA511821082D4011D921C922B
:103AE000F5011182108240E050E0B301C1010E9453
:103AF000B90BD4014D915C91B201C1010E94B90B87
:103B0000F5014081518168857985C1010E94B90B19
:103B1000C1010E94980FFAA5FF2309F489C00E94F1
:103B2000B2330E94903584C041E050E05F874E87F9
:103B3000F4CCA1E0B0E0BF87AE8738CD21E030E023
:103B40003F872E877FCD6AE673E0C10183549E4F85
:103B50000E94E54A41E050E05F874E873DCE6FE727
:103B600073E0C10183549E4F0E94E54A81E090E0DA
:103B70009F878E8781CE64E973E0C10183549E4F95
:103B80000E94E54AA1E0B0E0BF87AE87C5CE1182B2
:103B90001082EEA1FFA180819181009759F469ED17
:103BA00074E07101B3E4EB1ABEEFFB0AC7010E9497
:103BB000E54A18C0019739F50E94B233BC01CE0125
:103BC00001960E945934BE016F5F7F4F7101E3E49B
:103BD000EE1AEEEFFE0AC7010E94DE4ACE01019600
:103BE0000E94154A0E94B233BC01CE0101960E9488
:103BF0007035BE016F5F7F4FC7010E94DE4ACE0164
:103C000001960E94154AAEA1BFA18D919C9111977A
:103C10000196823091051CF48D939C9304C0EEA113
:103C2000FFA111821082ADA5BEA51D921C9277CB7B
:103C300067EE72E08EE99BE00E944D444AE050E05E
:103C40006E857F858EE99BE00E941C4561E475E0EE
:103C50008EE99BE00E944D440E94B2336E857F85C1
:103C60000E9407348E859F85E4960FB6F894DEBFD8
:103C70000FBECDBFDF91CF911F910F91FF90EF90BD
:103C8000DF90CF90BF90AF909F908F907F906F907C
:103C90005F904F903F902F9008952F923F924F92B8
:103CA0005F926F927F928F929F92AF92BF92CF92CC
:103CB000DF92EF92FF920F931F93CF93DF93CDB7D5
:103CC000DEB7A9970FB6F894DEBF0FBECDBF99A798
:103CD00088A77A8369830E94F40F88A599A50E941A
:103CE0009A0D88A599A50E94FE1688A599A50E94FF
:103CF000F61629813A8121303105C9F1223031058A
:103D000009F467C0232B09F096C028A439A430E138
:103D1000230E311C48A559A541595E4F58874F8342
:103D2000E8A5F9A5E65EFD4F50815B8B88A599A5B6
:103D3000845D9D4F9A878987A8A5B9A5AA5ABD4FCA
:103D4000BD8BAC8BE8A5F9A5E859FD4FFB8FEA8F39
:103D500028A539A521533E4F388B2F874DE850E0D9
:103D6000598F488F85E190E09E878D8767C028A492
:103D700039A495E8290E311CA8A5B9A5A757BE4FAF
:103D8000B887AF83E8A5F9A5E55EFD4FB081BB8B91
:103D9000E8A5F9A5E05DFD4FFA87E98728A539A5D3
:103DA000285A3D4F3D8B2C8B48A559A547595D4F4F
:103DB0005B8F4A8F88A599A58F529E4F988B8F87CE
:103DC000AEE8B0E0B98FA88FE6E1F0E0FE87ED87BE
:103DD00035C028A439A4FAEF2F0E311C28A539A527
:103DE0002D553E4F38872F83E8A5F9A5E45EFD4F9A
:103DF00030813B8B48A559A54C5C5D4F5A8749875C
:103E000088A599A5865A9D4F9D8B8C8BA8A5B9A591
:103E1000A659BD4FBB8FAA8FE8A5F9A5ED52FE4F5D
:103E2000F88BEF872FE830E0398F288F47E150E09B
:103E30005E874D8703C069EA73E00CC0C1010E9430
:103E4000AB2F811105C0C1010E94B92F882349F011
:103E500060E774E08EE99BE00E944D4481E090E0D1
:103E600091C467E472E08EE99BE00E944D446CE1EE
:103E700074E08EE99BE00E944D44D1016C918EE983
:103E80009BE00E944F4466EA74E08EE99BE00E944A
:103E90004D4461E475E08EE99BE00E944D4481E071
:103EA00090E0EF85F8899183808328A539A5205F6C
:103EB0003F4F3C872B8708A519A501531E4FD801FA
:103EC0004D915C91B90188A599A50E94B90BC101DA
:103ED0000E94032FC1010E94832F8F8198850E9429
:103EE000C635AB01BC01C1010E947A31E985FA8572
:103EF0001082118212821382E8A5F9A5E45DFD4FBC
:103F00001082118212821382E8A5F9A5E05DFD4FAF
:103F10001082118212821382E8A5F9A5EC5CFD4F94
:103F2000108211821282138286E090E0AF85B889F8
:103F30008D939C93F801408151816B857C8588A588
:103F400099A50E94B90B41E050E06B857C8588A55E
:103F500099A50E94010C412C512C32014394898176
:103F60009A8188599D4F28A539A5280F391F3F8B65
:103F70002E8B89819A8189569F4F880F991F880FB0
:103F8000991F48A559A5480F591F5D8F4C8F8981EE
:103F90009A81880F991F89589D4FA8A5B9A5A80F88
:103FA000B91FB9A3A8A3E981FA81EE0FFF1FEE0F95
:103FB000FF1FFA8BE98BCF01865B9D4F28A539A5A2
:103FC000280F391F3BA32AA30C9748A559A5480FD2
:103FD000591F5DA34CA389819A8185579F4F880FF4
:103FE000991F880F991FA8A5B9A5A80FB91FBFA32E
:103FF000AEA3CF01E8A5F9A58E0F9F1F9C012C5100
:104000003E4F3C832B838E889F88AC8CBD8CC8A090
:10401000D9A0EAA0FBA00CA11DA12EA13FA14F8118
:104020005885B10188A599A50E94D50C8EE99BE021
:104030000E941B461816190624F01E821D8210E0ED
:1040400013C08EE99BE00E9447468F7D8534910521
:10405000A1F768EB72E08EE99BE00E944D4481E09D
:1040600090E09E838D8311E0C1010E94AB2F8111EE
:104070001DC0C1010E94B92F811118C0111116C0B5
:10408000AC89BD896D917C91072E000C880B990B32
:104090000E94D14D9B01AC01E985FA856081718157
:1040A000828193810E94224D87FDA2C26EE474E05A
:1040B0008EE99BE00E944D44C1010E94B92F8111FD
:1040C00094C242E050E06B857C8588A599A50E944A
:1040D000010C67E472E08EE99BE00E944D446CE1C4
:1040E00074E08EE99BE00E944D44D1016C918EE911
:1040F0009BE00E944F4463E274E08EE99BE00E94E3
:104100004D4461E475E08EE99BE00E944D44ED81F1
:10411000FE81EF2B99F566E374E08EE99BE00E9447
:104120004D446DE675E08EE99BE00E944D446DE0E4
:1041300072E08EE99BE00E944D444AE050E06D85BC
:104140007E858EE99BE00E941C456DE675E08EE958
:104150009BE00E944D446FE072E08EE99BE00E947C
:104160004D44FB896F2F70E04AE050E08EE99BE000
:104170000E941C450E94B2330E94B63488A599A5BE
:104180000E94FE1688A599A50E94F61667E472E0C3
:104190008EE99BE00E944D446CE174E08EE99BE067
:1041A0000E944D44D1016C918EE99BE00E944F44E6
:1041B0006AE374E08EE99BE00E944D4461E475E09F
:1041C0008EE99BE00E944D44E985FA8510821182B8
:1041D00012821382C1010E94972F8F8198850E94BD
:1041E000C635AB01BC01C1010E947A31E8A5F9A531
:1041F000E45DFD4F1082118212821382E8A5F9A5B9
:10420000E05DFD4F1082118212821382E8A5F9A5AC
:10421000EC5CFD4F10821182128213828F8198858F
:104220000E94C6356C8F7D8F8E8F9F8F8F81988572
:104230000E94C635412C512C3201439429813A8188
:1042400028593D4F39A328A389819A8189569F4FC8
:10425000880F991F880F991F48A559A5480F591F06
:104260005BA34AA389819A81880F991F89589D4F22
:10427000A8A5B9A5A80FB91FBDA3ACA389819A8130
:1042800085579F4F880F991F880F991FE8A5F9A59B
:10429000E80FF91FFFA3EEA389899A8928A539A5FC
:1042A000820F931FAC014C515E4F5F8B4E8BF2011E
:1042B0003197FE87ED87FC83EB832D813E81232B95
:1042C00009F0BAC0E988FA8856EBE51A5DEFF50AFD
:1042D00088A599A5E80EF91E09891A89025C1D4F67
:1042E000080F191F88A099A0880E991EAAA0BBA02C
:1042F000CCA0DDA02EA13FA14F815885B1010E9425
:10430000D50C8EE99BE00E941B461816190614F086
:1043100010E013C08EE99BE00E9447468F7D8534F4
:104320009105B1F768EB72E08EE99BE00E944D4485
:10433000A1E0B0E0BE83AD8311E0ED85FE853A9744
:1043400038F4A985BA851D921D921D921C9213976F
:10435000BB89C101B11111C20E94B92F811165C081
:10436000112329F0ED85FE85FC83EB835EC0AC89CB
:10437000BD896D917C91072E000C880B990B0E94D2
:10438000D14D9B01AC01E985FA8560817181828103
:1043900093810E94224D87FFE5CFC1010E94F83032
:1043A000AE89BF892D913D914D915C9160E573EC93
:1043B00080E090E00E942A4FC9010E949041EE895E
:1043C000FF892081318142815381A3E0B0E00E94C6
:1043D000514F9B01AC01C301B2010E942A4F672BD0
:1043E000682B692B51F469ED74E08EE99BE00E9423
:1043F0004D440E94B2330E94B634C1010E9416316E
:10440000AE89BF892D913D914D915C9160E573EC32
:1044100080E090E00E942A4FC9010E949041BFEFC6
:104420004B1A5B0A6B0A7B0A42CF6EE474E08EE99A
:104430009BE00E944D4404C041E050E05E834D8308
:1044400067E472E08EE99BE00E944D446CE174E009
:104450008EE99BE00E944D44D1016C918EE99BE076
:104460000E944F4462E674E08EE99BE00E944D4456
:1044700061E475E08EE99BE00E944D448F81988550
:104480000E94C635EA8DFB8DEF2BA9F0DC01CB0134
:104490002C8D3D8D4E8D5F8D821B930BA40BB50B28
:1044A000B7FF07C0B095A095909581959F4FAF4FEE
:1044B000BF4F9C838B834D815E81452B91F566E3D5
:1044C00074E08EE99BE00E944D446DE675E08EE954
:1044D0009BE00E944D446DE072E08EE99BE00E94FB
:1044E0004D444AE050E0688D798D8EE99BE00E9452
:1044F0001C456DE675E08EE99BE00E944D446FE03F
:1045000072E08EE99BE00E944D444AE050E06B81EE
:104510007C818EE99BE00E941C450E94B2330E9480
:10452000B63485E090E0AF85B8898D939C9308A55B
:1045300019A501531E4FF801408151816B857C857F
:1045400088A599A50E94B90BC1010E94182F88A5C2
:1045500099A50E94FE1688A599A50E94F6162981A4
:104560003A812130310581F022303105C1F0232B11
:1045700001F50E94B233AB81BC81AD01BB0F660B6C
:10458000770B0E94E73315C00E94B233EB81FC81A8
:10459000AF01FF0F660B770B0E94F0330AC00E9439
:1045A000B2332B813C81A901330F660B770B0E943C
:1045B000F93388A599A50E94FA16AF85B8891D928E
:1045C0001C92F801408151816B857C8588A599A555
:1045D0000E94B90B40E050E06B857C8588A599A5C9
:1045E0000E94010C8D819E81CDC031E03B8B69CD55
:1045F000C1010E94F830AB81BC812D913D914D915C
:104600005C9160E573EC80E090E00E942A4FC90164
:104610000E9490418201EB81FC81208131814281A5
:104620005381A3E0B0E00E94514F9B01AC01C30154
:10463000B2010E942A4F672B682B692B51F469ED58
:1046400074E08EE99BE00E944D440E94B2330E94C8
:10465000B634AB81BC816D917D918D919C9126E0AA
:1046600030E040E050E00E942A4FC301B2010E94B6
:104670002A4F672B682B692B09F05EC067E472E054
:104680008EE99BE00E944D4468ED73E08EE99BE06B
:104690000E944D444AE050E0B8018EE99BE00E9440
:1046A0001C4565EE73E08EE99BE00E944D44E98570
:1046B000FA85408151816281738122E030E08EE988
:1046C0009BE00E94154664EF73E08EE99BE00E9438
:1046D0004D44AC89BD896D917C914AE050E08EE9F2
:1046E0009BE00E941C4560E074E08EE99BE00E9424
:1046F0004D44C1010E947431AB01BC012AE030E09D
:104700008EE99BE00E94D2446EE074E08EE99BE06B
:104710000E944D448F8198850E94C635AB01BC0133
:104720002AE030E08EE99BE00E94D24461E475E02B
:104730008EE99BE00E944D44C1010E941631EB813D
:10474000FC81208131814281538160E573EC80E0FE
:1047500090E00E942A4FC9010E949041FFEF4F1A3A
:104760005F0A6F0A7F0A2D813E81232B09F44BCC0F
:1047700041E050E05E834D83A4CC0E94AB2F8111B9
:10478000F1CDEECDA9960FB6F894DEBF0FBECDBF2A
:10479000DF91CF911F910F91FF90EF90DF90CF901D
:1047A000BF90AF909F908F907F906F905F904F9051
:1047B0003F902F9008950F931F938091EF09909150
:1047C000F00901969093F0098093EF098091F10927
:1047D000811155C00E9445416093FE097093FF0905
:1047E0008093000A9093010A81E08093F1090E946E
:1047F00094160E948E170E9445416093FA097093A7
:10480000FB098093FC099093FD090091FE0910912A
:10481000FF092091000A3091010A0617170728079F
:10482000390770F4DC01CB01801B910BA20BB30B99
:104830008093F6099093F709A093F809B093F909CA
:104840008091F6099091F709A091F809B091F909C2
:104850004091F2095091F3096091F4097091F509C2
:10486000481759076A077B0740F48093F209909331
:10487000F309A093F409B093F5091092F1091F917F
:104880000F9108958F929F92AF92BF92CF92DF9235
:10489000EF92FF920F931F93CF9361E086E30E9404
:1048A0007B4361E087E30E947B4361E086E20E94F4
:1048B0007B4361E08AE10E947B4361E08CE10E94DE
:1048C0007B4361E088E10E947B4362E083E00E94D9
:1048D0007B4362E082E00E947B4362E080E10E94D1
:1048E0007B4362E081E10E947B4362E08FE10E94B2
:1048F0007B4362E081E20E947B4361E08CE30E94A3
:104900007B4361E08DE30E947B4361E088E30E948A
:104910007B4362E08EE00E947B4362E08FE00E9476
:104920007B4362E087E10E947B4362E089E10E9471
:104930007B4362E083E20E947B4362E085E20E9467
:104940007B4361E08EE20E947B4361E080E30E9452
:104950007B4361E08EE30E947B4362E082E10E9440
:104960007B4362E083E10E947B4362E08BE10E9433
:104970007B4362E08DE10E947B4362E087E20E941C
:104980007B4362E089E20E947B4361E08AE00E940F
:104990007B4361E088E00E947B4361E089E00E9404
:1049A0007B4361E08DE00E947B4362E08FE30E94E5
:1049B0007B4362E08BE30E947B4362E088E20E94DB
:1049C0007B4362E080E40E947B4362E08AE20E94D3
:1049D0007B4362E08CE20E947B4362E081E40E94C0
:1049E0007B4362E082E40E947B4362E084E30E94B6
:1049F0007B4362E085E30E947B4362E080E00E94AB
:104A00007B4362E081E00E947B4362E089E30E9495
:104A10007B4362E08AE30E947B4362E081E30E9481
:104A20007B4362E082E30E947B4362E083E30E9477
:104A30007B4362E08BE20E947B4362E08DE20E9456
:104A40007B4362E08FE20E947B4362E080E20E944F
:104A50007B4361E086E20E94B74361E088E10E9407
:104A6000B74361E088E30E94B74361E08EE30E94B0
:104A7000B74340E052EC61E070E08EE99BE00E94B9
:104A8000BB4864E670E080E090E00E946A410E94CA
:104A900094160E94DE130E9459090E94B3088BED00
:104AA00093E29093E1098093E009C1E0C0936F0025
:104AB00080E18093810010928000C093E20980E041
:104AC00092E09093E4098093E309909387008093A8
:104AD000860081E180938100109281001092850010
:104AE000109284008091E2098061809381000E948D
:104AF00039416093490A70934A0A80934B0A909314
:104B00004C0A0E94FC0764E170E00E94F7030197E1
:104B100009F56DED74E08EE99BE00E944D440E9422
:104B20009416CF931F921F921F921F92812C912C4B
:104B3000A12CB12CC12CD12C760100E010E0980101
:104B400040E050E0BA010E94A3170F900F900F9021
:104B50000F900F900E94FC0763E170E00E94F70342
:104B6000019711F565EF74E08EE99BE00E944D44DA
:104B70000E9494161F9221E02F931F921F921F9262
:104B8000812C912CA12CB12CC12CD12C760100E0D0
:104B900010E0980140E050E0BA010E94A3170F9086
:104BA0000F900F900F900F900E94FC0762E170E051
:104BB0000E94F703019711F56DE075E08EE99BE027
:104BC0000E944D440E9494161F921F9221E02F9341
:104BD0001F921F92812C912CA12CB12CC12CD12C75
:104BE000760100E010E0980140E050E0BA010E9438
:104BF000A3170F900F900F900F900F9065E275E044
:104C00008EE99BE0CF911F910F91FF90EF90DF9085
:104C1000CF90BF90AF909F908F900C944D44CF93C6
:104C2000DF9382E090E00E941746EC010E940C376F
:104C3000D0934E0AC0934D0A63E475E087E39AE08F
:104C4000DF91CF910C94834A87E39AE00C94154A44
:104C5000AF92BF92CF92DF92EF92FF920F931F938A
:104C6000CF93DF93CDB7DEB70DB71EB78EE99BE0CC
:104C70000E941B46892B09F48FC00E943941609322
:104C8000490A70934A0A80934B0A90934C0A8EE922
:104C90009BE00E9447468093360A982F9F7D95346B
:104CA00079F02091020A3091030AF901EC5FF54F87
:104CB00080832F5F3F4F3093030A2093020A04C082
:104CC0000E94B2330E9490358091020A9091030AAB
:104CD0008133910564F02AE02093360AFC01EC5FF1
:104CE000F54F208301969093030A8093020A409126
:104CF000360A8091020A9091030A4A3021F08233E9
:104D000091050CF449C0ADB6BEB69C012F5F3F4F74
:104D10006DB77EB7621B730B0FB6F8947EBF0FBEE4
:104D20006DBF2DB73EB72F5F3F4F690120E030E0E8
:104D3000BC0161507109261737076CF4442341F018
:104D4000F901EC5FF54F5081F601E20FF31F50833C
:104D50002F5F3F4FF0CFF601E80FF91F1082029747
:104D600094F08AE390E00E9417467C01B6010E940D
:104D7000C83CB70180914D0A90914E0A0E949C3721
:104D8000C7010E9491421092030A1092020A0FB6C4
:104D9000F894BEBE0FBEADBE8091400A811106C020
:104DA0000E94B2330E94973581118AC00E94B233AB
:104DB0000E9497358093400AE0903E0AF0903F0AA7
:104DC0000E94FC070E94FF03E816F90681F00E948A
:104DD000FC070E94FF0390933F0A80933E0A0E94C3
:104DE00094160E94DE130E9459090E94B3080E9483
:104DF00039416093450A7093460A8093470A90931D
:104E0000480AC090490AD0904A0AE0904B0AF090B4
:104E10004C0A6C157D058E059F0508F446C0DC0123
:104E2000CB018C199D09AE09BF0989389341A105B1
:104E3000B10508F44EC00E94B2330E949735882312
:104E400019F064E475E002C068E475E08EE99BE067
:104E50000E944D440E94B2330E94B6340E949416C0
:104E60000E94AE160E94B2330E94D0340E94941663
:104E70000E94280B0E94B2330E940C340E94B2336D
:104E80000E941A358091410A9091420AA091430AEA
:104E9000B091440A0196A11DB11D8093410A9093DF
:104EA000420AA093430AB093440A0E943941609396
:104EB000490A70934A0A80934B0A90934C0A09C09E
:104EC0000E9494160E94820F0E94E9090E942F0AF4
:104ED0006DCF0FB6F8941EBF0FBE0DBFDF91CF91FF
:104EE0001F910F91FF90EF90DF90CF90BF90AF9008
:104EF00008954F925F926F927F928F929F92AF929E
:104F0000BF92CF92DF92EF92FF920F931F93CF93B6
:104F1000DF93CDB7DEB728970FB6F894DEBF0FBE8C
:104F2000CDBF5B01CB010E946D3D6B017C01C501D2
:104F30000E94673D2B013C01C5010E94613D9B0120
:104F4000AC01C5012D833E834F8358870E945B3D92
:104F500069837A838B839C83C5010E94553D4B01F5
:104F60005C010E94E909830172012D813E81498122
:104F70005A81B4010E94F50A80E090E028960FB6AD
:104F8000F894DEBF0FBECDBFDF91CF911F910F917F
:104F9000FF90EF90DF90CF90BF90AF909F908F9059
:104FA0007F906F905F904F90089520E535E0FC0171
:104FB000318320830C947B33CF93DF93EC010E94E9
:104FC000D527CE01DF91CF910C941946CF93DF9373
:104FD000EC010E94813380E595E099838883DF911D
:104FE000CF910895CF93DF9380914F0A9091500A0B
:104FF000892B59F482E090E00E941746EC010E9450
:10500000E627D093500AC0934F0A80914F0A90919F
:10501000500ADF91CF910895CF92DF92EF92FF92E5
:10502000CB010E94553D6B017C010E94FC07B6013B
:105030000E94C30680E090E0FF90EF90DF90CF9059
:1050400008952AE535E0FC01318320830C947B33FD
:10505000CF93DF93EC010E942128CE01DF91CF9105
:105060000C941946CF93DF93EC010E9481338AE5BB
:1050700095E099838883DF91CF910895CF93DF9353
:105080008091510A9091520A892B59F482E090E064
:105090000E941746EC010E943228D093520AC09316
:1050A000510A8091510A9091520ADF91CF9108954F
:1050B000FC01118210820895CF92DF92EF92FF924D
:1050C0000F931F93CF93DF931F921F92CDB7DEB73D
:1050D0006C017A01890169837A830E94FC076981E6
:1050E0007A810E94F703F601918380830E94FC0776
:1050F000B7010E94F70331E0019709F030E0F601B3
:1051000032870E94FC07B8010E94F703092E000CA9
:10511000AA0BBB0BF60182839383A483B58316820B
:105120001782108611860F900F90DF91CF911F91FB
:105130000F91FF90EF90DF90CF9008952F923F92C4
:105140004F925F926F927F928F929F92AF92BF9297
:10515000CF92DF92EF92FF920F931F93CF93DF9343
:10516000CDB7DEB728970FB6F894DEBF0FBECDBF20
:105170001B01CB010E944F3D162F072FC1010E943A
:10518000493D4B015C01C1010E94433D69837A8323
:105190008B839C83C1010E943D3D6B017C01C10159
:1051A0000E94373D2B013C01C1010E94313D6D83BE
:1051B0007E838F8398870E9494161C01C701B601D5
:1051C0000E94994D6B017C01C301B2010E94994D6F
:1051D0002B013C016D817E818F8198850E94994DC4
:1051E000AB01BC011F921F921F920F931F93A980C6
:1051F000BA8093018201C1010E94A3170F900F9002
:105200000F900F900F9080E090E028960FB6F894E2
:10521000DEBF0FBECDBFDF91CF911F910F91FF90E9
:10522000EF90DF90CF90BF90AF909F908F907F9046
:105230006F905F904F903F902F90089524E635E057
:10524000FC01318320830C947B33CF93DF93EC01FB
:105250000E941E29CE01DF91CF910C941946CF9365
:10526000DF93EC010E94813384E695E09983888383
:10527000DF91CF910895CF93DF938091530A90915E
:10528000540A892B59F482E090E00E941746EC0101
:105290000E942F29D093540AC093530A8091530A35
:1052A0009091540ADF91CF9108956AE675E08EE9F6
:1052B0009BE00E944D446FE675E08EE99BE00E9402
:1052C0004D440E94B2330E94B63480E090E00895CD
:1052D00021E935E0FC01318320830C947B33CF93AB
:1052E000DF93EC010E946829CE01DF91CF910C94ED
:1052F0001946CF93DF93EC010E94813381E995E059
:1053000099838883DF91CF910895CF93DF93809124
:10531000550A9091560A892B59F482E090E00E9438
:105320001746EC010E947929D093560AC093550A7A
:105330008091550A9091560ADF91CF9108950E946D
:10534000941660E070E00E944D1E80E090E00895A9
:105350002BE935E0FC01318320830C947B33CF9320
:10536000DF93EC010E94A829CE01DF91CF910C942C
:105370001946CF93DF93EC010E9481338BE995E0CE
:1053800099838883DF91CF910895CF93DF938091A4
:10539000570A9091580A892B59F482E090E00E94B4
:1053A0001746EC010E94B929D093580AC093570AB6
:1053B0008091570A9091580ADF91CF9108950E94E9
:1053C000B2330E94943580E090E0089525EA35E0FC
:1053D000FC01318320830C947B33CF93DF93EC016A
:1053E0000E94E629CE01DF91CF910C941946CF930C
:1053F000DF93EC010E94813385EA95E099838883ED
:10540000DF91CF910895CF93DF938091590A9091C6
:105410005A0A892B59F482E090E00E941746EC0169
:105420000E94F729D0935A0AC093590A8091590AC9
:1054300090915A0ADF91CF9108950E94941661E0ED
:1054400070E00E944D1E80E090E008952FEA35E064
:10545000FC01318320830C947B33CF93DF93EC01E9
:105460000E94262ACE01DF91CF910C941946CF934A
:10547000DF93EC010E9481338FEA95E09983888362
:10548000DF91CF910895CF93DF9380915B0A909144
:105490005C0A892B59F482E090E00E941746EC01E7
:1054A0000E94372AD0935C0AC0935B0A80915B0A02
:1054B00090915C0ADF91CF910895889A0895889819
:1054C0000895149A0895149808958E9A08958E98C0
:1054D0000895EBE0F1E08081886080830895EBE03F
:1054E000F1E08081877F8083089561E0FC01858100
:1054F0000C94B74361E0FC0183850C94B74360E0F2
:10550000FC0185810C94B74360E0FC0183850C9419
:10551000B743FC0113821282148216821582108610
:105520001782128611861486138616861586108AAF
:105530001786128A118A148A138ADC01A65ABF4F71
:105540001C9215AA16AA17AA10AE11AE12AE13AE6F
:1055500014AE5D971D921D921D921C921397149686
:105560001C925A961C9211961C9212961C9211969D
:105570001C9211961C9211961C9211961C921196D7
:105580001C9211961C92119685E79AE211969C93B3
:105590008E93129611961C921E9212968AE79AE2A8
:1055A00011969C938E93129611961C921E921296AF
:1055B0008FE79AE211969C938E93129611961C9205
:1055C0001E92129684E89AE28D939C93ED58FF4FB9
:1055D0001182108208952F923F924F925F926F92A4
:1055E0007F928F929F92AF92BF92CF92DF92EF9273
:1055F000FF920F931F93CF93DF93CDB7DEB72A9718
:105600000FB6F894DEBF0FBECDBF1C01FC01E25AFD
:10561000FF4F108231961082805A9F4FDC011C92FE
:1056200011961C923496108226013701441A550AAD
:10563000660A770A49825A826B827C8277FE0CC0A6
:105640007094609450944094411C511C611C711CD6
:1056500049825A826B827C824C155D056E057F05FE
:105660003CF468017901C41AD50AE60AF70A08C0B1
:10567000B901A8014C195D096E097F096A017B0116
:1056800049805A806B807C807594679457944794C6
:105690004F82588669867A8691012D593F4F3E8305
:1056A0002D83F7FC09C049805A806B807C804C14A4
:1056B0005D046E047F0424F4840181E08C9356C061
:1056C0004F80588469847A844C145D046E047F048E
:1056D00008F450C04CA05DA06EA07FA04C145D04E7
:1056E0006E047F045CF408A119A10F5F1F4F21E035
:1056F000DC012C93ED81FE81208397C0C701B601A8
:105700000E94D14D2B013C016CA17DA18EA19FA1D6
:105710000E94D14D9B01AC01C301B2010E94274DF3
:105720002B013C0168A179A18AA19BA16819790983
:105730008A099B090E94D14D9B01AC01C301B201B2
:105740000E94864E2B013C01C501B4010E94D14D3F
:105750009B01AC01C301B2010E94B64C0E94994D5D
:105760008B0181E0F101E25AFF4F8083AD81BE8160
:105770008C935BC089819A81AB81BC814CA05DA078
:105780006EA07FA084199509A609B709C816D90685
:10579000EA06FB064CF408A119A10E5F1F4F81E039
:1057A000F101E05AFF4FE1CF69817A818B819C81C1
:1057B0006C197D098E099F090E94D14D2B013C0176
:1057C0006CA17DA18EA19FA10E94D14D9B01AC0136
:1057D000C301B2010E94274D2B013C0168A179A1B0
:1057E0008AA19BA1681979098A099B090E94D14D58
:1057F0009B01AC01C301B2010E94864E2B013C010A
:10580000C501B4010E94D14D9B01AC01C301B2019D
:105810000E94B64C0E94994D8B0181E0F101E15A42
:10582000FF4F8083ED81FE818083D10114968C919E
:10583000882309F4A6C00E943941F10142805380B7
:10584000052C000C66087708DC01CB01841995094A
:10585000A609B709893E9340A105B10508F491C096
:105860000E943941D10113967C936E93129767E49D
:1058700072E08EE99BE00E944D4461EC75E08EE998
:105880009BE00E944D442AE030E040E050E0BA0145
:105890008EE99BE00E94D24467EC75E08EE99BE0C4
:1058A0000E944D442AE030E0B701A6018EE99BE05A
:1058B0000E94D2446DEC75E08EE99BE00E944D445D
:1058C0002AE030E049815A816B817C818EE99BE03E
:1058D0000E94D24463ED75E08EE99BE00E944D4446
:1058E0002AE030E04F81588569857A858EE99BE012
:1058F0000E9423456AED75E08EE99BE00E944D44CD
:105900002AE030E04CA15DA16EA17FA18EE99BE071
:105910000E94D24460EE75E08EE99BE00E944D4407
:105920002AE030E0B501A4018EE99BE00E94D24458
:1059300066EE75E08EE99BE00E944D442AE030E07F
:1059400048A159A16AA17BA18EE99BE00E94D244A3
:105950006CEE75E08EE99BE00E944D446DE675E0CB
:105960008EE99BE00E944D444AE050E0B8018EE988
:105970009BE00E941C4561E475E08EE99BE00E947B
:105980004D44C8012A960FB6F894DEBF0FBECDBFB6
:10599000DF91CF911F910F91FF90EF90DF90CF900B
:1059A000BF90AF909F908F907F906F905F904F903F
:1059B0003F902F900895AF92BF92CF92DF92EF92D7
:1059C000FF921F93CF93DF93FC01DC01AF5BBF4FCE
:1059D0008C919F01255A3F4FAF01445A5F4F5A01A6
:1059E00041AD52AD63AD74AD882339F087A1D901C3
:1059F0008C9381E0E50188832DC0DF01DD968D91D8
:105A00009D910D90BC91A02D11E0481759076A0790
:105A10007B070CF010E0E90118836A017B0177FF36
:105A200007C0CC24DD247601C41AD50AE60AF70A99
:105A3000B7FF07C0B095A095909581959F4FAF4F48
:105A4000BF4F21E0C816D906EA06FB060CF420E099
:105A5000D5012C93452B462B472B61F4DF01AA5A25
:105A6000BF4F438D548D658D768D4D935D936D93B2
:105A70007C931397DF91CF911F91FF90EF90DF9070
:105A8000CF90BF90AF900895FC01E65AFF4F208160
:105A9000222361F0709780819181A281B381019668
:105AA000A11DB11D80839183A283B38308958F923A
:105AB0009F92AF92BF92CF92DF92EF92FF920F939D
:105AC0001F93CF93DF93EC01FC01E65BFF4F6081F6
:105AD0007181828193810E94CF4D6B017C016BA506
