:100000000C9420020C9451020C9451020C94510255
:100010000C9451020C9451020C9451020C94510214
:100020000C9451020C9451020C9451020C94510204
:100030000C9451020C9451020C9451020C945102F4
:100040000C9451020C94C5320C9451020C94510240
:100050000C94D5060C9451020C9451020C940E355C
:100060000C9451020C94EE3A0C94DE3B0C94510229
:100070000C9451020C9451020C9451020C945102B4
:100080000C94F3320C9451020C9451020C945102D2
:100090000C94223B0C941D3C0C9451020C94510284
:1000A0000C9451020C9451020C9421330C94510283
:1000B0000C9451020C9451020C9451020C944F3345
:1000C0000C9451020C9451020C9451020C94563B26
:1000D0000C945C3C0C9451020C948A3B0C949B3C19
:1000E0000C94510278347D3482348C340535963446
:1000F0009E34A634B034BA34C434D334DD34053538
:10010000E734F134FB345F37623755375937993765
:1001100066376A377037743778377E378237863775
:1001200099378C37903794370C94131F0C945820C0
:100130000C9405350C94CE1E0C94C0310C94802E7A
:100140000C9470280C94E7340C94792E0C940F299D
:100150000C94872E0C9400070C9447290C94863736
:100160000C948C340C949B200C94DF2E0C943B2E1E
:100170000C946A370C94A22B0C94FE1E0C948234BF
:100180000C94732D0C94D42D0C9499370C94F62B5D
:100190000C9449080C9478370C94F1340C94D334B3
:1001A0000C9422210C94411D0C942C1D0C94252D93
:1001B0000C944A3A0C94571C0C9477280C94623D8A
:1001C0000C9412210C9459370C943D280C943A3A13
:1001D0000C94B0340C9442070C94A32D0C94913AD7
:1001E0000C9406280C94A2200C946B1E0C941A1FDD
:1001F0000C94DD340C9494370C949C270C94DB20E5
:100200000C941B210C947C080C944A290C94903774
:100210000C946C2D0C94C71E0C942F380C94A327AF
:100220000C94E62E0C9496340C9470370C94882021
:100230000C94DB2D0C94FB340C94C4340C94D11F1F
:100240000C94863A0C945F370C94D3270C94743733
:100250000C94B0280C94B7280C9482370C94BD3BB6
:100260000C94422E0C948C370C94492E0C94FD2B3C
:100270000C94663A0C943B070C94B72E0C9478348B
:100280000C949E340C9474270C94D2200C94A728C0
:100290000C9416290C94E2200C947E370C9455375C
:1002A0000C942E2C0C94C7310C9466370C94BA34F1
:1002B0000C947D340C9446290C94E7280C949831C6
:1002C0000C94332E0C94A6340C940D280C942D2CE5
:1002D0000C9462370C9483080C9451200000090A96
:1002E00002080B0C0D0706030401000000000000CB
:1002F00000000000000000000000000000000000FE
:10030000000000000000000011100F0000000000BD
:1003100000000000000000000000000000000000DD
:10032000000001021020200808102040102040800A
:1003300002010201080402010102040810204080A9
:100340008040201008040201800402018040201037
:100350000804020108040201010204081020408080
:10036000010204081020408005050505070508085E
:100370000808020202020A0A08080404040401012F
:100380000101010101010303030303030303040744
:1003900007070C0C0C0C0C0C0C0C020202020606DB
:1003A0000606060606060B0B0B0B0B0B0B0B0000D1
:1003B00020002300260029002C002F00320000011D
:1003C00000000301060109010000220025002800A9
:1003D0002B002E003100340002010000050108014D
:1003E0000B0100002100240027002A002D0030000E
:1003F000330001010000040107010A014E414E498A
:100400004E495459494E46CDCCCC3D0AD7233C17D2
:10041000B7D13877CC2B329595E6241FB14F0A001F
:100420000020410000C84200401C4620BCBE4CCA0F
:100430001B0E5AAEC59D74002C1D332E623D411D0E
:1004400011241FBECFEFD1E2DEBFCDBF00E00CBF55
:1004500017E0A0E0B2E0E0E6F9E800E00BBF02C080
:1004600007900D92A83CB107D9F72DE0A8ECB7E0B2
:1004700001C01D92AF37B207E1F712E0CFE1D2E041
:1004800000E006C021970109802FFE010E948342EF
:10049000CC31D10780E00807A9F70E94F93E0C94FF
:1004A0009E440C9400000E9418080C947207FB01F3
:1004B000EE0FFF1FE653F84F808191810895FC01F4
:1004C0008281938108951F93CF93DF93EB01CC0F2B
:1004D000DD1FBE0182E39AE00E94F731182FBE01B2
:1004E0006F5F7F4F82E39AE00E94F731482F50E020
:1004F00060E070E0762F652F542F4427812F90E025
:10050000840F951FDF91CF911F9108950F931F9333
:10051000CF93DF931F92CDB7DEB78B01000F111F72
:10052000B80182E39AE059830E94FA31B8016F5F03
:100530007F4F5981452F82E39AE00E94FA3180E093
:1005400090E00F90DF91CF911F910F910895693442
:10055000710509F4C9C10CF0A4C06032710509F439
:1005600080C10CF04BC06D30710509F45AC10CF517
:100570006230710509F442C16CF46115710509F42A
:1005800036C16130710509F044C21092CD07109256
:10059000CC0708956B30710509F435C10CF03AC1F0
:1005A0006330710509F035C27093D1076093D007AD
:1005B00008956931710509F445C18CF466317105FE
:1005C00009F436C16731710509F437C16531710528
:1005D00009F01FC21092F5071092F40708956B31CD
:1005E000710509F439C10CF432C16F31710509F09C
:1005F00010C210920908109208080895633371051B
:1006000009F44CC13CF56532710509F434C17CF440
:100610006132710509F42AC16432710509F0F9C12A
:1006200081E090E0909313088093120808956A3255
:10063000710509F425C16B32710509F428C16932CD
:10064000710509F0E6C184EF91E090931D08809355
:100650001C0808956E33710509F431C18CF46533BB
:10066000710509F425C10CF41EC16D33710509F043
:10067000D0C182E390E090934508809344080895A8
:100680006734710509F422C10CF027C16F3371057D
:1006900009F0BFC182E390E0909349088093480835
:1006A00008956B37710509F464C10CF04FC06F36C3
:1006B000710509F434C11CF56736710509F420C1D0
:1006C0006CF46536710509F416C16636710509F0DA
:1006D000A0C1109297081092960808956A36710585
:1006E00009F413C16B36710509F414C1693671053B
:1006F00009F08FC110929D0810929C0808956437EC
:10070000710509F421C18CF46137710509F415C133
:100710000CF40CC16337710509F07BC184E690E0ED
:100720009093B1088093B00808956937710509F472
:1007300012C10CF017C16537710509F06AC184E672
:1007400090E09093B5088093B4080895643D7105D6
:1007500009F437C12CF56D3C710509F41FC18CF407
:100760006A3C710509F40CC16B3C710509F40FC1B9
:10077000693C710509F04DC110925D0910925C0948
:1007800008956F3C710509F415C10CF40CC1633D6B
:10079000710509F03EC11092710910927009089517
:1007A000693D710509F420C18CF4673D710509F4B8
:1007B0000FC10CF012C1653D710509F02AC181E03D
:1007C00090E0909375098093740908956E3D7105CA
:1007D00009F411C16F3D710509F414C16D3D710536
:1007E00009F017C11092850910928409089581E0DB
:1007F00090E09093CB078093CA0708951092CF079B
:100800001092CE07089588E790E09093E1078093D7
:10081000E007089588E790E09093E3078093E2076C
:10082000089588E790E09093E5078093E4070895A2
:100830001092F7071092F60708951092F907109298
:10084000F80708951092FD071092FC070895109282
:10085000FF071092FE0708951092010810920008F9
:10086000089510920B0810920A08089510920D082E
:1008700010920C080895109215081092140808950B
:1008800084EF91E090931F0880931E08089584EFF1
:1008900091E09093210880932008089510923108E8
:1008A000109230080895109233081092320808957B
:1008B00081E090E09093350880933408089582E3B6
:1008C00090E09093470880934608089580E293E073
:1008D0009093590880935808089580E293E090938C
:1008E0005B0880935A08089580E293E090935D0836
:1008F00080935C08089510929508109294080895CA
:100900001092990810929808089510929F081092DA
:100910009E0808951092A1081092A00808958AE0F8
:1009200090E09093A9088093A80808958AE090E049
:100930009093AB088093AA0808958AE090E0909382
:10094000AD088093AC08089584E690E09093B308D6
:100950008093B20808958AE090E09093BD08809358
:10096000BC0808958AE090E09093BF088093BE0889
:1009700008958AE090E09093C1088093C00808959C
:100980008CE390E090935F0980935E09089581E085
:1009900090E0909361098093600908951092650931
:1009A0001092640908958CE390E090936709809316
:1009B0006609089581E090E0909369098093680941
:1009C00008958CE390E090937309809372090895E1
:1009D000109279091092780908958CE390E0909331
:1009E0007B0980937A09089581E090E090937D09D6
:1009F00080937C0908958CE390E09093870980931D
:100A00008609089581E090E0909389098093880990
:100A10000895660F771FFB01E653F84F118210828D
:100A200008956A347105E4F5673471050CF06CC003
:100A300062327105FCF46F3171050CF065C06E30E7
:100A400071056CF46B3071050CF05EC061157105B9
:100A500009F45AC077FD56C06250710914C065315F
:100A600071050CF44FC0683171050CF44DC069512B
:100A7000710945C06C32710554F4693271050CF08E
:100A800043C06452710962307105E0F53DC06333C3
:100A90007105C4F166337105BCF16D5371092FC046
:100AA0006C377105ACF46937710574F56C367105F6
:100AB00034F46936710544F56556710920C06F3606
:100AC000710504F162377105FCF06357710917C0B5
:100AD000663D710564F4633D7105B4F4693C7105CC
:100AE0008CF06C3C710584F06D5C710908C0673D49
:100AF000710544F06A3D71053CF06D5D710963302C
:100B0000710510F080E0089581E008950F931F9320
:100B1000CF93DF93EB010E9411058823C1F1FE0101
:100B2000EE0FFF1FE653F84F0081118169E072E07C
:100B300087E39BE00E946C386BE575E087E39BE000
:100B40000E946C386DE072E087E39BE00E946C3895
:100B50004AE050E0BE0187E39BE00E943B396BE531
:100B600075E087E39BE00E946C386FE072E087E3FA
:100B70009BE00E946C384AE050E0B80187E39BE0BC
:100B80000E943B390E9477290E94312A06C061E108
:100B900072E087E39BE00E946C3880E090E0DF9198
:100BA000CF911F910F910895EF92FF920F931F9392
:100BB000CF93DF931F921F92CDB7DEB77C018B01DD
:100BC000FC01828193818F30F7E29F072CF401961C
:100BD000F7019383828303C0F70113821282B80165
:100BE000C70149835A830E94110549815A8188238C
:100BF00061F0F801EE0FFF1FE653F84F5183408379
:100C0000B801C7010E94860206C061E172E087E375
:100C10009BE00E946C38C7010E94530280E090E084
:100C20000F900F90DF91CF911F910F91FF90EF9058
:100C300008950F931F93CF93DF938C01C0E0D0E012
:100C4000BE01C8010E941105882321F0BE01C80120
:100C50000E9486052196C13ED10591F7DF91CF9183
:100C60001F910F910895EF92FF920F931F93CF93CF
:100C7000DF937C010AEC17E0C0E0D0E0BE01C701C1
:100C80000E9411058823A1F0BE01C7010E946302E2
:100C9000F80191838083019659F4BE01C7010E9437
:100CA000A702F80140815181BE01C7010E9486025E
:100CB00021960E5F1F4FC13ED10501F7DF91CF9105
:100CC0001F910F91FF90EF900895EF92FF920F9375
:100CD0001F93CF93DF937C010AEC17E0C0E0D0E0D4
:100CE000BE01C7010E941105882339F0F801408137
:100CF0005181BE01C7010E94860221960E5F1F4FDF
:100D0000C639D10569F7DF91CF911F910F91FF90FF
:100D1000EF9008950F931F93CF93DF938C01C0E062
:100D2000D0E0BE01C8010E941105882321F0BE0158
:100D3000C8010E94A7022196C13ED10591F7DF911B
:100D4000CF911F910F910895CF93DF93EC0160E055
:100D500070E00E9463021816190644F0CE010E944A
:100D60008A06CE01DF91CF910C946506CE01DF910A
:100D7000CF910C943306CF93DF9380918C0990919F
:100D80008D09892B59F484E090E00E94363AEC01F9
:100D90000E94A406D0938D09C0938C0980918C0980
:100DA00090918D09DF91CF9108951F920F920FB608
:100DB0000F9211240BB60F922F933F934F935F9393
:100DC0006F937F938F939F93AF93BF93EF93FF9313
:100DD000E0918E09F0918F091995FF91EF91BF91E4
:100DE000AF919F918F917F916F915F914F913F91C3
:100DF0002F910F900BBE0F900FBE0F901F90189564
:100E00008F929F92AF92BF92CF92DF92EF92FF921A
:100E1000CF93DF9300D01F92CDB7DEB77B01CB011C
:100E20000E948C319B01AC01C70129833A834B831B
:100E30005C830E947A314B015C01C7010E947431CE
:100E40006B017C010E94B30829813A81A401B6019B
:100E50000E94CD0880E090E00F900F900F900F90CF
:100E6000DF91CF91FF90EF90DF90CF90BF90AF9048
:100E70009F908F90089527E332E0FC013183208317
:100E80000C944629CF93DF93EC010E943B07CE01DF
:100E9000DF91CF910C94383ACF93DF93EC010E940D
:100EA0004C2987E392E099838883DF91CF9108955D
:100EB000CF93DF938091930990919409892B59F4F2
:100EC00082E090E00E94363AEC010E944C07D093F9
:100ED0009409C09393098091930990919409DF91AB
:100EE000CF910895CF93DF93EC012AEC30E04BECE7
:100EF00050E069EC70E00E944E1F2EEC30E04FECA9
:100F000050E06DEC70E0CE010C960E944E1F24ED77
:100F100030E045ED50E063ED70E0CE0148960E9470
:100F20004E1F28ED30E049ED50E067ED70E0CE0156
:100F300084960E944E1F2EED30E04FED50E06DED97
:100F400070E0CE01C096DF91CF910C944E1FCF92EE
:100F5000DF92EF92FF920F931F93CF93DF93CDB762
:100F6000DEB72C970FB6F894DEBF0FBECDBF8C0155
:100F70007C016C018CE3C80ED11CC7010E944A1F82
:100F80008CE0E80EF11CEC14FD04B9F7CE010196DB
:100F90000E944A1F8CE0FE013196D80101900D920B
:100FA0008A95E1F7CE0101960E944A1F8CE0FE016E
:100FB0003196D8011C9601900D928A95E1F7CE01E9
:100FC00001960E944A1F8CE0FE013196D801589686
:100FD00001900D928A95E1F7CE0101960E944A1F79
:100FE0008CE0FE013196D801949601900D928A957D
:100FF000E1F7CE0101960E944A1F8CE0FE01319676
:10100000D801D09601900D928A95E1F7C8010E940F
:1010100072072C960FB6F894DEBF0FBECDBFDF91DE
:10102000CF911F910F91FF90EF90DF90CF90089597
:10103000CF93DF938091950990919609892B59F46C
:101040008CE390E00E94363AEC010E94A707D0930F
:101050009609C09395098091950990919609DF9121
:10106000CF910895CF93DF93EC010E94901FCE01A2
:101070000C960E94901FCE0148960E94901FCE01B0
:1010800084960E94901FCE01C096DF91CF910C9460
:10109000901F8F929F92AF92BF92CF92DF92EF926A
:1010A000FF920F931F930E94591121E02F931F92DB
:1010B0001F921F921F92812C912CA12CB12CC12C1C
:1010C000D12C760100E010E0980140E050E0BA0138
:1010D0000E946A120F900F900F900F900F9080E077
:1010E00090E01F910F91FF90EF90DF90CF90BF9015
:1010F000AF909F908F90089521E432E0FC013183FE
:1011000020830C944629CF93DF93EC010E947C0846
:10111000CE01DF91CF910C94383ACF93DF93EC015D
:101120000E944C2981E492E099838883DF91CF91DA
:101130000895CF93DF938091970990919809892B17
:1011400059F482E090E00E94363AEC010E948D084A
:10115000D0939809C0939709809197099091980925
:10116000DF91CF9108958091990990919A09892BE7
:1011700041F481E090E00E94363A90939A0980937E
:1011800099098091990990919A090895862F642F61
:101190000E949A3780E090E00895862F642F2115F1
:1011A000310519F40E94D63706C02130310531F4DB
:1011B000752F0E944F3480E090E0089581E090E028
:1011C0000895EF92FF920F931F93CF93DF93162F03
:1011D000072F7A014115510549F4862F0E940638E0
:1011E000D1E0C0E0019769F0D0E00BC0413051057B
:1011F00031F4862F0E942A34D82FC92F02C0D0E0A4
:10120000C0E082E0E816F104A8F567E472E087E345
:101210009BE00E946C386BE575E087E39BE00E94E1
:101220006C386DE072E087E39BE00E946C384AE026
:1012300050E0612F702F87E39BE00E943B396BE504
:1012400075E087E39BE00E946C386FE072E087E313
:101250009BE00E946C384AE050E06D2F7C2F87E3C2
:101260009BE00E943B390E9477290E94312A80E04E
:1012700090E002C081E090E0DF91CF911F910F914B
:10128000FF90EF9008954F925F926F927F928F92AE
:101290009F92AF92BF92CF92DF92EF92FF920F9305
:1012A0001F93CF93DF93EC015B01490196010E94EC
:1012B000CD08C801B7010E9489359601A401B50186
:1012C000CE010E94CD0880E090E0DF91CF911F9188
:1012D0000F91FF90EF90DF90CF90BF90AF909F90D5
:1012E0008F907F906F905F904F9008950F931F9312
:1012F000CF93DF938B01EA0165E175E087E39BE023
:101300000E946C386BE575E087E39BE00E946C38C7
:10131000F801608187E39BE00E946E384AE050E06C
:10132000BE0187E39BE00E943B390E947729DF9151
:10133000CF911F910F910C94312A0F931F93CF934C
:10134000DF938B01EA0161E175E087E39BE00E9496
:101350006C386BE575E087E39BE00E946C38F80120
:10136000608187E39BE00E946E384AE050E0BE0156
:1013700087E39BE00E943B390E947729DF91CF9160
:101380001F910F910C94312ACF92DF92EF92FF922E
:101390000F931F93CF93DF937C018B016A01CB01E5
:1013A0000E946027882319F0C2E0D0E002C0C0E0AC
:1013B000D0E0C8010E946A27882311F0C3E0D0E082
:1013C000C8010E946527882311F0C4E0D0E0C8015D
:1013D0000E946F27882311F0C6E0D0E0F6018081DB
:1013E00091818C179D0721F091E01C161D060CF0D1
:1013F00090E0F601D183C083992369F0AE01B70173
:10140000C701DF91CF911F910F91FF90EF90DF9077
:10141000CF900C947609DF91CF911F910F91FF909F
:10142000EF90DF90CF9008954F925F926F927F92EE
:10143000AF92BF92CF92DF92EF92FF920F931F93E2
:10144000CF93DF93F6018081882309F4B9C0590155
:101450006A01EB01CB010E944C27882309F4B0C03C
:10146000F501408051806280738020E030E0A90166
:10147000C301B2010E94BB41181674F4F701208128
:10148000318142815381C301B2010E94EF3FF501D6
:101490006083718382839383CE010E945B278111D5
:1014A00006C0CE010E945B27811188C00EC0F801E2
:1014B0004080518062807380CE010E943A27461698
:1014C0005706680679067CF4ECCFF801408051801D
:1014D00062807380CE010E943A27641575058605E7
:1014E00097050CF46BC0FF24F394CE010E943A27B9
:1014F0002B013C01C6010E940D2B461A570A680AAF
:10150000790A14141504160417049CF4CE010E94E1
:101510003A272B013C01C6010E940D2B461A570A9F
:10152000680A790AF3E04F16510461047104ACF4BF
:1015300012C0C6010E940D2B2B013C01CE010E945E
:101540003A27461A570A680A790A83E0481651046E
:101550006104710414F4FF20C1F0C6010E940D2B38
:10156000AB01BC01CE010E94402720E030E040E802
:101570005FE3F50160817181828193810E94F03F78
:10158000F5016083718382839383CE010E943A27A1
:10159000F8016083718382839383CE01DF91CF91C1
:1015A0001F910F91FF90EF90DF90CF90BF90AF9081
:1015B0007F906F905F904F900C945127F12C95CFB6
:1015C000DF91CF911F910F91FF90EF90DF90CF901F
:1015D000BF90AF907F906F905F904F9008952F9243
:1015E0003F924F925F926F927F928F929F92AF92B3
:1015F000BF92CF92DF92EF92FF920F931F93CF9300
:10160000DF93EC011C0186EE281A8EEF380AC10127
:101610000E94582B3E018EEC681A8EEF780AC301A7
:101620000E94582B5E0186EBA81A8EEFB80AC501FE
:101630000E94582BCE010E94F8264E018EE5880E9E
:10164000911CC4010E94F8262E018CEB480E511CFF
:10165000C2010E94F8266E0189E2C81A8EEFD80AEC
:101660007E0185E3E81A8EEFF80A8E0107541E4FBB
:101670009E0123553E4FA101BE01CE010E94140AD6
:101680006E0188E2C81A8EEFD80A7E0181E3E81A5B
:101690008EEFF80A0C5F1F4F9E012F543E4FA3019F
:1016A000B401CE010E94140A6E0187E2C81A8EEFBF
:1016B000D80A7E018DE2E81A8EEFF80A0C5F1F4F00
:1016C0009E012B543E4FA501B201CE010E94140A87
:1016D000DF91CF911F910F91FF90EF90DF90CF900E
:1016E000BF90AF909F908F907F906F905F904F9042
:1016F0003F902F9008952F923F924F925F926F925A
:101700007F928F929F92AF92BF92CF92DF92EF9291
:10171000FF920F931F93CF93DF9300D01F92CDB70B
:10172000DEB79C838B830E94BB0663E370E00E945C
:1017300057026B807C8025E9621A2EEF720A21E045
:10174000892B09F420E0F30120830E94BB0664E3A7
:1017500070E00E9457022B803C80F4E92F1AFEEFC4
:101760003F0A21E0892B09F420E0F10120830E9447
:10177000BB0665E370E00E945702EB81FC81E359F0
:10178000FE4F21E0892B09F420E020830E94BB0654
:1017900067E470E00E945702EB81FC81E259FE4F42
:1017A000092E000CAA0BBB0B80839183A283B38309
:1017B0000E94BB0668E470E00E945702EB81FC8146
:1017C000EE58FE4F092E000CAA0BBB0B80839183B1
:1017D000A283B3830E94BB0669E470E00E945702B3
:1017E000EB81FC81EA58FE4F092E000CAA0BBB0BC3
:1017F00080839183A283B3830E94BB066DE370E074
:101800000E945702EB81FC81E658FE4F092E000C26
:10181000AA0BBB0B80839183A283B3830E94BB0678
:101820006EE370E00E945702EB81FC81E258FE4FAC
:10183000092E000CAA0BBB0B80839183A283B38378
:101840000E94BB066FE370E00E945702EB81FC81AF
:10185000EE57FE4F092E000CAA0BBB0B8083918321
:10186000A283B3830E94BB0669E270E00E94570224
:10187000EB81FC81EA57FE4F092E000CAA0BBB0B33
:1018800080839183A283B3830E94BB066AE270E0E7
:101890000E945702EB81FC81E657FE4F092E000C97
:1018A000AA0BBB0B80839183A283B3830E94BB06E8
:1018B0006BE270E00E945702EB81FC81E257FE4F21
:1018C000092E000CAA0BBB0B80839183A283B383E8
:1018D0000E94BB066FE170E00E945702EB81FC8121
:1018E000EE56FE4F21E0892B09F420E020830E9470
:1018F000BB0660E270E00E945702EB81FC81ED566E
:10190000FE4F21E0892B09F420E020830E94BB06D2
:1019100061E270E00E945702EB81FC81EC56FE4FC1
:1019200021E0892B09F420E020830E94BB0665E1B9
:1019300070E00E945702EB81FC81E556FE4F21E0EA
:10194000892B09F420E020830E94BB0666E170E049
:101950000E945702EB81FC81E456FE4F21E0892B67
:1019600009F420E020830E94BB0667E170E00E943A
:101970005702EB81FC81E356FE4F21E0892B09F4ED
:1019800020E020830E94BB0669E170E00E945702BC
:10199000EB81FC81E256FE4F21E0019709F020E047
:1019A00020830E94BB066AE170E00E945702EB812F
:1019B000FC81E156FE4F21E0019709F020E02083F1
:1019C0000E94BB066BE170E00E945702EB81FC8134
:1019D000E056FE4F21E0019709F020E020830E94AD
:1019E000BB066BE070E00E9457020B811C810F5513
:1019F0001E4F092E000CAA0BBB0BF80180839183AC
:101A0000A283B3830E94BB066BE070E00E94570282
:101A1000EB81FC81EB55FE4F092E000CAA0BBB0B92
:101A200080839183A283B3830E94BB066BE070E046
:101A30000E945702EB81FC81E755FE4F092E000CF6
:101A4000AA0BBB0B80839183A283B3830E94BB0646
:101A500065E270E00E945702EB81FC81EB56FE4F7D
:101A600021E0019709F020E02083EB81FC81EA5618
:101A7000FE4F1082EB81FC81E956FE4F10820E94DE
:101A8000BB0664E270E00E945702A1E0019709F0F2
:101A9000A0E0EB81FC81E856FE4FA0834B805C8088
:101AA000F7E64F1AFEEF5F0AF20110828B819C81EC
:101AB00086569E4F9A838983FC011082F8018080AC
:101AC0009180A280B380EB81FC81EA57FE4FC080F9
:101AD000D180E280F380EB81FC81E658FE4F0081EB
:101AE000118122813381EB81FC81E259FE4F4081DB
:101AF000518162817381EB81FC81E256FE4F8081CE
:101B00008F93EB81FC81EB56FE4F80818F93AF93D7
:101B10001F921F921F92F4E6FF93EB81FC81E55622
:101B2000FE4F80818F93EB81FC81EE56FE4F8081CA
:101B30008F93F30180818F938B819C810E94472436
:101B4000EB81FC81EB55FE4F80809180A280B380B9
:101B5000EB81FC81E657FE4FC080D180E280F380AC
:101B6000EB81FC81E258FE4F00811181228133819B
:101B7000EB81FC81EE58FE4F40815181628173817F
:101B8000EB81FC81E156FE4F80818F93EB81FC81DC
:101B9000EA56FE4F80818F93F20180818F931F92CE
:101BA0001F921F92F4E6FF93EB81FC81E456FE4FF7
:101BB00080818F93EB81FC81ED56FE4F80818F9366
:101BC000F10180818F938B819C81825A9F4F0E946B
:101BD0004724EB81FC81E755FE4F80809180A280F5
:101BE000B380EB81FC81E257FE4FC080D180E28060
:101BF000F380EB81FC81EE57FE4F00811181228141
:101C00003381EB81FC81EA58FE4F40815181628132
:101C10007381EB81FC81E056FE4F80818F93EB81D5
:101C2000FC81E956FE4F80818F93E981FA818081A2
:101C30008F931F921F921F92F4E6FF93EB81FC811A
:101C4000E356FE4F80818F93EB81FC81EC56FE4F73
:101C500080818F93EB81FC81E359FE4F80818F93CC
:101C60008B819C8184549F4F0E9447240FB6F89427
:101C7000DEBF0FBECDBF0F900F900F900F90DF9182
:101C8000CF911F910F91FF90EF90DF90CF90BF9079
:101C9000AF909F908F907F906F905F904F903F900C
:101CA0002F9008952F923F924F925F926F927F9262
:101CB0008F929F92AF92BF92CF92DF92EF92FF925C
:101CC0000F931F93CF93DF93EC010E94BB066FE647
:101CD00070E00E945702FE01EB53FE4F9183808318
:101CE0000E94BB0660E770E00E945702FE01E953C4
:101CF000FE4F918380830E94BB0661E770E00E94E3
:101D00005702FE01E753FE4F918380830E94BB067A
:101D100069E770E00E9457021E0125E3221A2EEFA8
:101D2000320ABC01990F880B990B0E940B41F101FB
:101D300060837183828393830E94BB066AE770E0AD
:101D40000E9457028E0101531E4FBC01990F880B50
:101D5000990B0E940B41F801608371838283938306
:101D60000E94BB066BE770E00E9457023C0120E036
:101D700030E048EC52E4F10160817181828193810D
:101D80000E9461404B015C0120E030E048EC52E4ED
:101D9000F80160817181828193810E9461406B01B1
:101DA0007C01B301770C880B990B0E940B4120E05A
:101DB00030E048EC52E40E9461402B013C012AE0F3
:101DC00037ED43E25CE3C501B4010E94BB41181644
:101DD0008CF420E030E046EC52E4C501B4010E94EE
:101DE0005C4087FD0FC0812C912C46ECA42E42E470
:101DF000B42E08C05AE0852E57ED952E53E2A52E3D
:101E00005CE3B52EF10180829182A282B3822AE046
:101E100037ED43E25CE3C701B6010E94BB411816EF
:101E20008CF420E030E046EC52E4C701B6010E9499
:101E30005C4087FD0FC0C12CD12C26ECE22E22E4A1
:101E4000F22E08C03AE0C32E37EDD32E33E2E32E54
:101E50003CE3F32EF801C082D182E282F3822AE0D1
:101E600037ED43E25CE3C301B2010E94BB411816A7
:101E70008CF420E030E046EC52E4C301B2010E9451
:101E80005C4087FD0FC0412C512C86EC682E82E40B
:101E9000782E08C09AE0492E97ED592E93E2692ECC
:101EA0009CE3792EFE01ED52FE4F40825182628208
:101EB00073820E94BB0669E670E00E945702FE0131
:101EC000E652FE4F918380830E94BB066AE670E073
:101ED0000E945702FE01E452FE4F918380830E94CC
:101EE000BB066BE670E00E945702FE01E252FE4F15
:101EF000918380830E94BB0663E770E00E945702D3
:101F0000FE01E052FE4F918380830E94BB0664E78E
:101F100070E00E945702FE01EE51FE4F91838083D4
:101F20000E94BB0665E770E00E945702FE01EC517B
:101F3000FE4F918380830E94BB0665E670E00E949D
:101F40005702FE01E952FE4F019719F481E08083A8
:101F500001C010820E94BB0666E670E00E94570234
:101F6000FE01E852FE4F019719F481E0808301C021
:101F700010820E94BB0667E670E00E945702C752BB
:101F8000DE4F019719F481E0888301C01882DF9148
:101F9000CF911F910F91FF90EF90DF90CF90BF9066
:101FA000AF909F908F907F906F905F904F903F90F9
:101FB0002F9008958F929F92AF92BF92CF92DF920F
:101FC000EF92FF920F931F93CF93DF93EC0188E181
:101FD000882E912C9CE1A92EB12C2AE1C22ED12C65
:101FE00032E0E32EF12C03E010E026E230E047E39C
:101FF00050E066E370E0CE010E941B24812C912CFE
:10200000A12CB12CC12CD12C4FE0E42EF12C0EE0F0
:1020100010E028E330E04DE350E06CE370E0CE01E7
:10202000825A9F4F0E941B2453E1E52EF12C02E1BE
:1020300010E02EE330E040E350E06EE270E0CE01CD
:1020400084549F4F0E941B24FE01EB59FE4F1182C6
:102050001082329611821082329611821082CE0145
:102060000E947B0BCE010E94520E5E0186EEA81AE2
:102070008EEFB80A01E210E02FE130E041E150E0DC
:1020800060E170E0C5010E94402B6E018EECC81A21
:102090008EEFD80A05E210E023E230E049E150E09B
:1020A00067E170E0C6010E94402B7E0186EBE81AD2
:1020B0008EEFF80A09E210E027E230E04DE150E04F
:1020C0006BE170E0C7010E94402BFE01E052FE4F21
:1020D00040815181369760817181C5010E94012B39
:1020E000FE01EE51FE4F4081518136976081718132
:1020F000C6010E94012BFE01EC51FE4F408151812F
:10210000C252DE4F68817981C701DF91CF911F9163
:102110000F91FF90EF90DF90CF90BF90AF909F9086
:102120008F900C94012B4F925F926F927F928F92BF
:102130009F92AF92BF92CF92DF92EF92FF920F9356
:102140001F93CF93DF93CDB7DEB7CE55D1090FB62E
:10215000F894DEBF0FBECDBF8C010E9452216801F2
:102160008EE5C80ED11CC6010E9452217801ECEB0D
:10217000EE0EF11CC7010E9452212801F6EE4F1A03
:10218000FEEF5F0AC2010E94EB2A38018EEC681A4A
:102190008EEF780AC3010E94EB2A4801E6EB8E1A03
:1021A000EEEF9E0AC4010E94EB2A5801FAE1AF1A31
:1021B000FEEFBF0AF5011082F99710821182128298
:1021C0001382349610821182128213823496108206
:1021D000118212821382CE0101960E9452218EE555
:1021E000FE013196D80101900D928A95E1F7CE015A
:1021F00001960E9452218EE5FE013196D601019092
:102200000D928A95E1F7CE0101960E9452218EE54A
:10221000FE013196D70101900D928A95E1F788E58C
:10222000F801808389E5F60180838AE5F7018083E0
:10223000CE0101960E94EB2A98E1FE013196D2016F
:1022400001900D929A95E1F7CE0101960E94EB2A3A
:1022500098E1FE013196D30101900D929A95E1F734
:10226000CE0101960E94EB2A98E1FE013196D4013D
:1022700001900D929A95E1F7C8010E94DA0FF501DD
:102280001082C25ADF4F0FB6F894DEBF0FBECDBF2B
:10229000DF91CF911F910F91FF90EF90DF90CF9042
:1022A000BF90AF909F908F907F906F905F904F9076
:1022B0000895CF93DF9380919B0990919C09892B7E
:1022C00059F487EE91E00E94363AEC010E94931097
:1022D000D0939C09C0939B0980919B0990919C0984
:1022E000DF91CF910895CF93DF93EC01FC01EA5188
:1022F000FE4F81E08083CE010E94B724CE01825A36
:102300009F4F0E94B724CE0184549F4F0E94B72450
:1023100064E670E080E090E0DF91CF910C94893525
:10232000CF93DF93EC01FC01EA51FE4F10820E9433
:10233000CC24CE01825A9F4F0E94CC2464E670E0E8
:1023400080E090E0DF91CF910C9489350F931F933B
:10235000CF93DF9300D01F92CDB7DEB78C01FC0185
:10236000E952FE4F8081882331F0C801865E9E4F7E
:102370000E940D2B03C0C8010E943A27AB01BC018B
:1023800049835A836B837C830E94772949815A81D0
:102390006B817C810E94AC29F801E852FE4F80815C
:1023A000882331F0C8018E5C9E4F0E940D2B05C022
:1023B000C801825A9F4F0E943A27AB01BC01498352
:1023C0005A836B837C830E94772949815A816B8170
:1023D0007C810E94B529F801E752FE4F8081882355
:1023E00031F0C801865B9E4F0E940D2B05C0C801CD
:1023F00084549F4F0E943A27AB01BC0149835A8302
:102400006B837C830E94772949815A816B817C810F
:102410000F900F900F900F90DF91CF911F910F9120
:102420000C94BE290E9477290C94952A0E94772942
:102430000C944B2A0E9477290C94C729CF92DF92E3
:10244000EF92FF92CF93DF93EC016A017B010E9430
:102450004027B701A601CE01865E9E4FDF91CF9146
:10246000FF90EF90DF90CF900C94072BCF92DF92EC
:10247000EF92FF92CF93DF93EC016A017B01825AC6
:102480009F4F0E944027B701A601CE018E5C9E4F50
:10249000DF91CF91FF90EF90DF90CF900C94072BBE
:1024A000CF92DF92EF92FF92CF93DF93EC016A011C
:1024B0007B0184549F4F0E944027B701A601CE01A3
:1024C000865B9E4FDF91CF91FF90EF90DF90CF9092
:1024D0000C94072B2F923F924F925F926F927F92B4
:1024E0008F929F92AF92BF92CF92DF92EF92FF9224
:1024F0000F931F93CF93DF93CDB7DEB7E4970FB65B
:10250000F894DEBF0FBECDBF1C014D875E876F877D
:10251000788B098B1A8B2B8B3C8BCD8ADE8AEF8ACA
:10252000F88E2C960EAD1FAD2C970E9458352B01BE
:102530003C01C1010E947B0BC1010E94520EA114FB
:10254000B10499F0C501A0E0B0E0F101E259FE4FFD
:10255000408151816281738184179507A607B7076F
:1025600024F480839183A283B3838114910491F036
:10257000A12CB12CF101EE58FE4F80819181A281F6
:10258000B38188169906AA06BB0624F4808291823C
:10259000A282B3820115110591F020E030E0F10133
:1025A000EA58FE4F80819181A281B38108171907F3
:1025B0002A073B0724F40083118322833383F1012C
:1025C000E259FE4F4081518162817381C1010E94B5
:1025D000462741012EE5820E911CF101EE58FE4F77
:1025E0004081518162817381C4010E94462751015B
:1025F0003CEBA30EB11CF101EA58FE4F4081518122
:1026000062817381C5010E9446270E9477290E943A
:1026100091290E9477290E949A290E9477290E9475
:10262000A3290E9477290E94912969837A838B8349
:102630009C830E9477290E949A296D837E838F83D1
:1026400098870E9477290E94A32969877A878B87B8
:102650009C87610183E5C81A8EEFD80AD6011D92C6
:102660001D921D921C921397F101EF54FE4FFA8FA9
:10267000E98F1082118212821382349610821182A5
:1026800012821382349689819A81AB81BC818083C6
:102690009183A283B38334968D819E81AF81B88567
:1026A00080839183A283B383349689859A85AB8591
:1026B000BC8580839183A283B3832D96EFAC2D9745
:1026C0000D851E852F85388949815A816B817C81D2
:1026D000C1010E9487242E96EFAC2E9709891A8992
:1026E0002B893C894D815E816F817885C4010E9470
:1026F00087242F96EFAC2F970D891E892F89388D4F
:1027000049855A856B857C85C5010E948724D10146
:1027100011961C92F101E15AFF4F1082E25AFF4FCD
:102720001082C1010E941A12C1010E941212C1013D
:102730000E941425C4010E941425C5010E9414257D
:10274000F101EB59FE4FFE83ED8381E090E0918330
:1027500080837101F9E9EF1AFEEFFF0AD7018D932B
:102760009C93810107591E4FF8019183808341E0BA
:1027700050E0B101C1010E947609D7014D915C91F1
:10278000B401C1010E947609F80140815181B5016F
:10279000C1010E947609C1010E94731191012E5955
:1027A0003E4F3E872D8781E0D9018C93F101ED5991
:1027B000FE4FFA8BE98B80832E5F3F4F3E8B2D8B34
:1027C000D9018C93C1010E94A425C4010E94A425B3
:1027D000C5010E94A4251A8219821B8E1C8E1D8E93
:1027E0001E8EED85FE85FCA3EBA3FA86E98629897A
:1027F0003A893EA32DA38D899E8998A78FA39D8199
:1028000099ABAE81AAAB0BAB1CABDEA6CDA6F1019A
:10281000EB53FE4FF8ABEFA70F541109ABA1BCA1CE
:102820008C91882309F4A9C249A95AA9B101C1010F
:102830000E94C40949855A85B401C1010E94C40996
:102840004BA95CA9B501C1010E94C40961E070E017
:1028500080E090E00E948935AFA5B8A96D917C9188
:10286000072E000C880B990B0E940B419B01AC01B9
:10287000EDA5FEA560817181828193810E94BB419B
:102880001816C4F5C1010E94AB266BE472E087E321
:102890009BE00E946C386BE872E087E39BE00E944B
:1028A0006C3864E976E087E39BE00E946C38C101F4
:1028B0000E9456278823F1F040E050E0BA01C80199
:1028C0000E94072B40E050E0BA01C1010E9440275E
:1028D0006BE472E087E39BE00E946C3863EB72E08C
:1028E00087E39BE00E946C3864E976E087E39BE035
:1028F0000E946C38F101E953FE4F60817181072E0F
:10290000000C880B990B0E940B419B01AC01A98D17
:10291000BA8D6D917D918D919C910E94BB4118164D
:10292000D4F5C4010E94AB266BE472E087E39BE020
:102930000E946C386FED72E087E39BE00E946C3878
:1029400064E976E087E39BE00E946C38C4010E9452
:102950005627882301F140E050E0BA01C1018E5CA6
:102960009E4F0E94072B40E050E0BA01C4010E9434
:1029700040276BE472E087E39BE00E946C3867E0DD
:1029800073E087E39BE00E946C3864E976E087E3BC
:102990009BE00E946C38F101E753FE4F608171812A
:1029A000072E000C880B990B0E940B419B01AC0178
:1029B000F101EB54FE4F60817181828193810E940D
:1029C000BB411816D4F5C5010E94AB266BE472E03A
:1029D00087E39BE00E946C3863E373E087E39BE04E
:1029E0000E946C3864E976E087E39BE00E946C38D3
:1029F000C5010E945627882301F140E050E0BA014A
:102A0000C101865B9E4F0E94072B40E050E0BA0157
:102A1000C5010E9440276BE472E087E39BE00E94BF
:102A20006C386BE573E087E39BE00E946C3864E9E7
:102A300076E087E39BE00E946C3860E0C1010E9471
:102A40008225882361F040E050E0BA01C1010E9474
:102A5000402740E050E0BA01C8010E94072B60E027
:102A6000C4010E948225882371F040E050E0BA0141
:102A7000C4010E94402740E050E0BA01C1018E5CD1
:102A80009E4F0E94072B60E0C5010E94822588238B
:102A900071F040E050E0BA01C5010E94402740E0DB
:102AA00050E0BA01C101865B9E4F0E94072BC10115
:102AB0000E94A626ED85FE858083C4010E94A6267D
:102AC000ADA1BEA18C93C5010E94A626EFA1F8A5D9
:102AD0008083C1010E943A276B017C01C4010E94DE
:102AE0003A276F8F78A389A39AA3C5010E943A273A
:102AF00069A77AA78BA79CA70E947729B701A6018F
:102B00000E94AC290E9477294F8D58A169A17AA112
:102B10000E94B5290E94772949A55AA56BA57CA5D5
:102B20000E94BE29C1010E941A12AD85BE858C91FA
:102B30008823F1F10E9458356415750586059705BF
:102B400040F40E945835641575058605970580F593
:102B50001AC00E9458356B017C01C418D508E608DC
:102B6000F708F101EF55FE4F2081318142815381F9
:102B7000A8EEB3E00E948B426C157D058E059F0583
:102B800008F49FC1DECF0E9458356B017C01F10132
:102B9000EF55FE4F2081318142815381A8EEB3E091
:102BA0000E948B426C157D058E059F0508F489C136
:102BB000E989FA8980818823F1F10E9458356415EA
:102BC00075058605970540F40E945835641575050E
:102BD0008605970580F51AC00E9458356B017C0167
:102BE000C418D508E608F708F101EF55FE4F20811B
:102BF000318142815381A8EEB3E00E948B426C1573
:102C00007D058E059F0508F467C1DECF0E9458350B
:102C10006B017C01F101EF55FE4F20813181428132
:102C20005381A8EEB3E00E948B426C157D058E05A2
:102C30009F0508F451C1AD89BE898C918823F1F1BB
:102C40000E945835641575058605970540F40E9465
:102C50005835641575058605970580F51AC00E94DC
:102C600058356B017C01C418D508E608F708F10156
:102C7000EF55FE4F2081318142815381A8EEB3E0B0
:102C80000E948B426C157D058E059F0508F42FC1AF
:102C9000DECF0E9458356B017C01F101EF55FE4FEC
:102CA0002081318142815381A8EEB3E00E948B42A2
:102CB0006C157D058E059F0508F419C187E39BE01F
:102CC0000E943A3A18161906C4F487E39BE00E9462
:102CD000663A8F7D8534910581F467E873E087E378
:102CE0009BE00E946C38C1010E94AB26C4010E9487
:102CF000AB26C5010E94AB2604C0E981FA81319759
:102D0000A1F46CE973E087E39BE00E946C38ABA10F
:102D1000BCA11C92E989FA891082AD89BE891C92F6
:102D2000E1E0F0E0FA83E98302C01A8219828B8D18
:102D30009C8DAD8DBE8D0196A11DB11D8B8F9C8F7D
:102D4000AD8FBE8FBC01CD012EEE32E040E050E0F1
:102D50000E944242672B682B692B09F05FCD69E125
:102D600075E087E39BE00E946C380E9477290E94FF
:102D7000312AC1010E94161251CDEDA1FEA1808120
:102D8000811152CDAFA1B8A58C9181114DCD68EACA
:102D900073E087E39BE00E946C3885E090E0ED8172
:102DA000FE8191838083A985BA858D939C9381014F
:102DB00007591E4FF8019183808345E050E0B1012F
:102DC000C1010E947609A985BA854D915C91B40133
:102DD000C1010E947609F80140815181B501C1010C
:102DE0000E947609C1010E949011C1010E943A27F8
:102DF0002B013C01C4010E943A276D877E878F8793
:102E0000988BC5010E943A276B017C010E947729AB
:102E1000B301A2010E94AC290E9477294D855E85ED
:102E20006F8578890E94B5290E947729B701A6018C
:102E30000E94BE29C1010E941A12C1010E941212F1
:102E4000C1010E941612AD81BE811D921C92E985BE
:102E5000FA8511821082D8011D921C9240E050E048
:102E6000B101C1010E947609E985FA85408151814D
:102E7000B401C1010E947609D8014D915C91B50160
:102E8000C1010E947609C1010E94901189819A8135
:102E9000E4960FB6F894DEBF0FBECDBFDF91CF91A1
:102EA0001F910F91FF90EF90DF90CF90BF90AF9068
:102EB0009F908F907F906F905F904F903F902F905A
:102EC000089566EB73E087E39BE00E946C38E1E0D5
:102ED000F0E0FA83E9836CCE6BEC73E087E39BE070
:102EE0000E946C3821E030E03A832983A4CE60EE62
:102EF00073E087E39BE00E946C3881E090E09A8366
:102F00008983DCCE2F923F924F925F926F927F9295
:102F10008F929F92AF92BF92CF92DF92EF92FF92E9
:102F20000F931F93CF93DF93CDB7DEB76B970FB699
:102F3000F894DEBF0FBECDBF9B8F8A8F1B010E940E
:102F40007B0B8A8D9B8D0E94520E8A8D9B8D0E94D9
:102F50001A128A8D9B8D0E94121221E022163104D2
:102F600081F132E02316310409F45CC021143104EC
:102F700009F089C00A8D1B8D680146EEC41A4EEF18
:102F8000D40AF801E556FE4F50815B87C80183558E
:102F90009E4F9C838B83D801AB53BE4FBD87AC87BC
:102FA000FC96FB8BEA8B98012B593E4F3A87298779
:102FB0004DE850E0598B488B85E190E09E838D83EE
:102FC00065C00A8D1B8D025A1F4FCA8CDB8C9EEC8C
:102FD000C91A9EEFD90AEA8DFB8DE456FE4FA081F7
:102FE000AB87EA8DFB8DEF54FE4FFC83EB832A8D7C
:102FF0003B8D29533E4F3D872C874A8D5B8D485230
:103000005E4F5B8B4A8B8A8D9B8D89599E4F9A8729
:103010008987AEE8B0E0B98BA88BE6E1F0E0FE83EB
:10302000ED8334C00A8D1B8D04541F4FCA8CDB8C7A
:10303000F6EBCF1AFEEFDF0AEA8DFB8DE356FE4F6B
:1030400020812B874A8D5B8D4B545E4F5C834B8375
:103050008A8D9B8D87539E4F9D878C87AA8DBB8DB4
:10306000A752BE4FBB8BAA8BEA8DFB8DE759FE4F53
:10307000FA87E9872FE830E0398B288B47E150E069
:103080005E834D8303C065EF73E00CC0C8010E94EE
:103090006625811105C0C8010E947425882349F066
:1030A0006CEB74E087E39BE00E946C3881E090E079
:1030B000E5C36BE472E087E39BE00E946C3868E64E
:1030C00074E087E39BE00E946C38D8016C9187E341
:1030D0009BE00E946E3862EF74E087E39BE00E9401
:1030E0006C3864E976E087E39BE00E946C3881E00D
:1030F00090E0E985FA8591838083EA8CFB8CFBE97B
:10310000EF1AFEEFFF0AD7014D915C916A8D7B8D1E
:10311000CB010E947609C8010E94B724C8010E9411
:103120003E25C6010E940D2BAB01BC01C8010E94C7
:103130004027EB81FC811082118212821382EA8D7A
:10314000FB8DE355FE4F1082118212821382EA8DAD
:10315000FB8DEF54FE4F1082118212821382EA8D92
:10316000FB8DEB54FE4F108211821282138286E097
:1031700090E0A985BA858D939C93F7014081518198
:103180006A8D7B8DCB010E94760941E050E06A8D0B
:103190007B8DCB010E949D09812C912C540183943D
:1031A000C101880F991F880F991F2A8D3B8D820FAF
:1031B000931FAC0146585E4F58874F8330E5432E2E
:1031C00033EC532E612C712C5F874E8787E39BE095
:1031D0000E943A3A1816190624F01A821982F12C24
:1031E00014C087E39BE00E94663A8F7D8534910589
:1031F000A1F767E873E087E39BE00E946C3881E009
:1032000090E09A838983FF24F394C8010E94662585
:1032100081111DC0C8010E947425811118C0F110D0
:1032200016C0AC85BD856D917C91072E000C880B76
:10323000990B0E940B419B01AC01EB81FC816081E9
:103240007181828193810E945C4087FD52C26AE94C
:1032500074E087E39BE00E946C38C8010E947425EB
:10326000811144C242E050E06A8D7B8DCB010E9407
:103270009D096BE472E087E39BE00E946C3868E68E
:1032800074E087E39BE00E946C38D8016C9187E37F
:103290009BE00E946E386FE674E087E39BE00E943B
:1032A0006C3864E976E087E39BE00E946C38E98142
:1032B000FA81EF2BA9F562E874E087E39BE00E94B6
:1032C0006C386BE575E087E39BE00E946C386DE03D
:1032D00072E087E39BE00E946C384AE050E06D8129
:1032E0007E8187E39BE00E943B396BE575E087E3D5
:1032F0009BE00E946C386FE072E087E39BE00E94E5
:103300006C38FB856F2F70E04AE050E087E39BE06C
:103310000E943B3964E976E087E39BE00E946C38C9
:103320008A8D9B8D0E941A128A8D9B8D0E9412128B
:103330006BE472E087E39BE00E946C3868E674E01F
:1033400087E39BE00E946C38D8016C9187E39BE097
:103350000E946E3866E874E087E39BE00E946C3858
:1033600064E976E087E39BE00E946C38EB81FC81A6
:103370001082118212821382C8010E945225C60156
:103380000E940D2BAB01BC01C8010E944027EA8DB1
:10339000FB8DE355FE4F1082118212821382EA8D5B
:1033A000FB8DEF54FE4F1082118212821382EA8D40
:1033B000FB8DEB54FE4F1082118212821382C601E4
:1033C0000E940D2B6C8B7D8B8E8B9F8BC6010E9478
:1033D0000D2B812C912C54018394C101880F991FCE
:1033E000880F991F2A8D3B8D820F931FAC01465881
:1033F0005E4F58874F8360E5462E63EC562E612C56
:10340000712C598F488FF4013197FE83ED837F0132
:1034100029813A81232B09F098C087E39BE00E9421
:103420003A3A1816190614F01E8614C087E39BE07A
:103430000E94663A8F7D85349105B1F767E873E0A5
:1034400087E39BE00E946C3881E090E09A83898357
:1034500021E02E874D815E814A30510538F4AB81E1
:10346000BC811D921D921D921C921397BB85C801B1
:10347000B111FFC10E947425811160C02E852223E5
:1034800019F0ED80FE805AC0AC85BD856D917C91B0
:10349000072E000C880B990B0E940B419B01AC017D
:1034A000EB81FC8160817181828193810E945C400B
:1034B00087FFE7CFC8010E94C426AF81B8852D9150
:1034C0003D914D915C91C301B2010E946442C901DA
:1034D0000E94AF35EF81F88520813181428153818F
:1034E000A3E0B0E00E948B429B01AC01C501B40196
:1034F0000E946442672B682B692B51F469E175E0E7
:1035000087E39BE00E946C380E9477290E94312A51
:10351000C8010E94DF26A88DB98D2D913D914D9156
:103520005C91C301B2010E946442C9010E94AF359F
:10353000BFEF8B1A9B0AAB0ABB0A65CF6AE974E03E
:1035400087E39BE00E946C3804C041E050E05A835E
:1035500049836BE472E087E39BE00E946C3868E685
:1035600074E087E39BE00E946C38D8016C9187E39C
:103570009BE00E946E386EEA74E087E39BE00E9455
:103580006C3864E976E087E39BE00E946C38C60102
:103590000E940D2BEA89FB89EF2BA1F0DC01CB0106
:1035A0002C893D894E895F89821B930BA40BB50B37
:1035B000B7FF07C0B095A095909581959F4FAF4FED
:1035C000BF4F7C0149815A81452B99F562E874E02F
:1035D00087E39BE00E946C386BE575E087E39BE036
:1035E0000E946C386DE072E087E39BE00E946C38CB
:1035F0004AE050E06889798987E39BE00E943B3983
:103600006BE575E087E39BE00E946C386FE072E049
:1036100087E39BE00E946C384AE050E0B70187E303
:103620009BE00E943B3964E976E087E39BE00E94DF
:103630006C3885E090E0A985BA858D939C93CA8CFF
:10364000DB8CBBE9CB1ABEEFDB0AF601408151816E
:103650006A8D7B8DCB010E947609C8010E94CC2423
:103660008A8D9B8D0E941A128A8D9B8D0E94121248
:10367000F1E02F16310479F022E022163104A1F096
:103680002328D1F40E947729A701FF0C660B770B42
:103690000E94AC2911C00E947729A701FF0C660B7C
:1036A000770B0E94B52908C00E947729A701FF0C5B
:1036B000660B770B0E94BE298A8D9B8D0E94161285
:1036C000A985BA851D921C92F601408151816A8DAF
:1036D0007B8DCB010E94760940E050E06A8D7B8DA6
:1036E000CB010E949D0989819A81C8C051E05B8706
:1036F000B9CDC8010E94C426AF81B8852D913D91F6
:103700004D915C91C301B2010E946442C9010E94C3
:10371000AF357401EF81F885208131814281538179
:10372000A3E0B0E00E948B429B01AC01C501B40153
:103730000E946442672B682B692B51F469E175E0A4
:1037400087E39BE00E946C380E9477290E94312A0F
:10375000AE85BF856D917D918D919C9126E030E085
:1037600040E050E00E946442C501B4010E946442FE
:10377000672B682B692B09F05DC06BE472E087E36F
:103780009BE00E946C3864E274E087E39BE00E9457
:103790006C384AE050E0B70187E39BE00E943B3978
:1037A00061E374E087E39BE00E946C38EB81FC816D
:1037B000408151816281738122E030E087E39BE0A8
:1037C0000E94343A60E474E087E39BE00E946C3826
:1037D000AC85BD856D917C914AE050E087E39BE02C
:1037E0000E943B396CE474E087E39BE00E946C38F4
:1037F000C8010E943A27AB01BC012AE030E087E310
:103800009BE00E94F1386AE574E087E39BE00E9448
:103810006C38C6010E940D2BAB01BC012AE030E0E0
:1038200087E39BE00E94F13864E976E087E39BE060
:103830000E946C38C8010E94DF26EE85FF8520813A
:10384000318142815381C301B2010E946442C901A6
:103850000E94AF35FFEF8F1A9F0AAF0ABF0A298176
:103860003A81232B09F4B2CC41E050E05A834983DA
:10387000F9CC0E946625811104CE00CE6B960FB65E
:10388000F894DEBF0FBECDBFDF91CF911F910F9196
:10389000FF90EF90DF90CF90BF90AF909F908F9070
:1038A0007F906F905F904F903F902F900895809100
:1038B0009D0990919E09019690939E0980939D0980
:1038C00080919F09811118C081E080939F090E9417
:1038D00059110E94EF0A80919D0990919E098031B3
:1038E000974244F010929E0910929D090E94180878
:1038F0000E94320810929F09089561E086E30E94B9
:103900009A3761E087E30E949A3761E086E20E947D
:103910009A3761E08AE10E949A3761E08CE10E9467
:103920009A3761E088E10E949A3762E083E00E9462
:103930009A3762E082E00E949A3761E08CE30E944D
:103940009A3761E08DE30E949A3761E088E30E9434
:103950009A3762E08EE00E949A3762E08FE00E9420
:103960009A3761E08EE20E949A3761E080E30E941C
:103970009A3761E08EE30E949A3762E082E10E940A
:103980009A3762E083E10E949A3761E08AE00E9400
:103990009A3761E088E00E949A3761E089E00E94EE
:1039A0009A3761E08DE00E949A3761E086E20E94DA
:1039B000D63761E088E10E94D63761E088E30E9453
:1039C000D63761E08EE30E94D63740E052EC61E0EA
:1039D00070E087E39BE00E94DA3C64E670E080E000
:1039E00090E00E9489350E94BB060E9419060E9441
:1039F00018080E94720787E59CE190938F098093D5
:103A00008E0981E080936F00E1E8F0E090E190831F
:103A1000109280008093900980E293E09093920945
:103A200080939109909387008093860081E1808341
:103A3000108210928500109284008091900980611C
:103A400080830E9458356093E6097093E70980935C
:103A5000E8099093E9090895CF93DF9382E090E01D
:103A60000E94363AEC010E94302CD093EB09C093AF
:103A7000EA0966E976E085ED99E0DF91CF910C9453
:103A8000A23E85ED99E00C94343EAF92BF92CF9266
:103A9000DF92EF92FF920F931F93CF93DF93CDB7F7
:103AA000DEB70DB71EB787E39BE00E943A3A892B39
:103AB00009F47DC00E9458356093E6097093E709C8
:103AC0008093E8099093E90987E39BE00E94663AB6
:103AD0008093D4092091A0093091A109F901EE55F4
:103AE000F64F8083C90101969093A1098093A009A4
:103AF000813391056CF04AE04093D409FC01EE5506
:103B0000F64F40832E5F3F4F3093A1092093A009C9
:103B10002091D4098091A0099091A1092A3021F027
:103B2000823391050CF443C0ADB6BEB69C012F5F45
:103B30003F4F4DB75EB7421B530B0FB6F8945EBFB5
:103B40000FBE4DBF2DB73EB72F5F3F4F6901D90163
:103B5000E2EAF9E09C0121503109AF01425A594093
:103B6000421753071CF441914D93F7CFF601E80F2C
:103B7000F91F1082029794F08AE390E00E94363A8F
:103B80007C01B6010E94E730B7018091EA0990916B
:103B9000EB090E94BA2CC7010E94B0361092A1090D
:103BA0001092A0090FB6F894BEBE0FBEADBEE09055
:103BB000DC09F090DD090E94BB060E945F02E81656
:103BC000F90601F10E94BB060E945F029093DD0995
:103BD0008093DC0962E375E087E39BE00E946C3828
:103BE0006DE175E087E39BE00E946C380E947729C5
:103BF0000E94312A0E9459110E94DA0F0E9418086F
:103C00000E9472070E9458356093E2097093E3099D
:103C10008093E4099093E509C090E609D090E70904
:103C2000E090E809F090E9096C157D058E059F0587
:103C3000C0F1DC01CB018C199D09AE09BF0989389F
:103C40009341A105B105B8F166E375E087E39BE018
:103C50000E946C380E9477290E94312A0E945911D3
:103C60000E94A6110E9477290E944B2A0E94772960
:103C70000E94C7290E9477290E94952A8091DE0917
:103C80009091DF09A091E009B091E1090196A11D91
:103C9000B11D8093DE099093DF09A093E009B093F2
:103CA000E1090E9458356093E6097093E709809313
:103CB000E8099093E9090FB6F8941EBF0FBE0DBF37
:103CC000DF91CF911F910F91FF90EF90DF90CF90F8
:103CD000BF90AF9008954F925F926F927F928F92B4
:103CE0009F92AF92BF92CF92DF92EF92FF920F938B
:103CF0001F93CF93DF93CDB7DEB728970FB6F89415
:103D0000DEBF0FBECDBF5B01CB010E948C316B01CA
:103D10007C01C5010E9486312B013C01C5010E9436
:103D200080319B01AC01C5012D833E834F835887B1
:103D30000E947A3169837A838B839C83C5010E94B8
:103D400074314B015C010E94B308830172012D8123
:103D50003E8149815A81B4010E94430980E090E08C
:103D600028960FB6F894DEBF0FBECDBFDF91CF917E
:103D70001F910F91FF90EF90DF90CF90BF90AF9089
:103D80009F908F907F906F905F904F9008952EE35B
:103D900035E0FC01318320830C944629CF93DF93D7
:103DA000EC010E94C71ECE01DF91CF910C94383AEE
:103DB000CF93DF93EC010E944C298EE395E0998329
:103DC0008883DF91CF910895CF93DF938091EC09A1
:103DD0009091ED09892B59F482E090E00E94363AE7
:103DE000EC010E94D81ED093ED09C093EC0980919C
:103DF000EC099091ED09DF91CF910895CF92DF9278
:103E0000EF92FF92CB010E9474316B017C010E9402
:103E1000BB06B6010E94860580E090E0FF90EF901F
:103E2000DF90CF90089528E435E0FC0131832083B2
:103E30000C944629CF93DF93EC010E94131FCE010F
:103E4000DF91CF910C94383ACF93DF93EC010E942D
:103E50004C2988E495E099838883DF91CF91089578
:103E6000CF93DF938091EE099091EF09892B59F45C
:103E700082E090E00E94363AEC010E94241FD09329
:103E8000EF09C093EE098091EE099091EF09DF915F
:103E9000CF910895FC01118210820895CF92DF9294
:103EA000EF92FF920F931F93CF93DF931F921F9276
:103EB000CDB7DEB76C017A01890169837A830E94EC
:103EC000BB0669817A810E945702F6019183808343
:103ED0000E94BB06B7010E94570231E0019709F02A
:103EE00030E0F60132870E94BB06B8010E945702FB
:103EF000092E000CAA0BBB0BF60182839383A483CB
:103F0000B58316821782108611860F900F90DF916D
:103F1000CF911F910F91FF90EF90DF90CF90089578
:103F20000F931F93CF93DF93FC01208131812115E3
:103F3000310591F1EC01822F0E94063821E0892B96
:103F400009F420E02B876A85261729F01E821F823C
:103F5000188619860BC08E819F81A885B985019628
:103F6000A11DB11D8E839F83A887B9870E811F81F4
:103F7000288539858A819B81AC81BD810817190705
:103F80002A073B074CF081E068278881DF91CF91B9
:103F90001F910F910C94D637DF91CF911F910F9104
:103FA00008952F923F924F925F926F927F928F92DD
:103FB0009F92AF92BF92CF92DF92EF92FF920F93B8
:103FC0001F93CF93DF93CDB7DEB728970FB6F89442
:103FD000DEBF0FBECDBF1B01CB010E946E31162F7D
:103FE000072FC1010E9468314B015C01C1010E9491
:103FF000623169837A838B839C83C1010E945C3127
:104000006B017C01C1010E9456312B013C01C101B1
:104010000E9450316D837E838F8398870E9459114F
:104020001C01C701B6010E94D3406B017C01C30192
:10403000B2010E94D3402B013C016D817E818F81B2
:1040400098850E94D340AB01BC011F921F921F9222
:104050000F931F93A980BA8093018201C1010E942E
:104060006A120F900F900F900F900F9080E090E0E9
:1040700028960FB6F894DEBF0FBECDBFDF91CF916B
:104080001F910F91FF90EF90DF90CF90BF90AF9076
:104090009F908F907F906F905F904F903F902F9068
:1040A000089522E535E0FC01318320830C944629F4
:1040B000CF93DF93EC010E945120CE01DF91CF918D
:1040C0000C94383ACF93DF93EC010E944C2982E59F
:1040D00095E099838883DF91CF910895CF93DF9303
:1040E0008091F0099091F109892B59F482E090E0D8
:1040F0000E94363AEC010E946220D093F109C093ED
:10410000F0098091F0099091F109DF91CF91089524
:1041100068E575E087E39BE00E946C386DE575E02B
:1041200087E39BE00E946C380E9477290E94312A25
:1041300080E090E008952FE735E0FC013183208393
:104140000C944629CF93DF93EC010E949B20CE0173
:10415000DF91CF910C94383ACF93DF93EC010E941A
:104160004C298FE795E099838883DF91CF9108955B
:10417000CF93DF938091F2099091F309892B59F441
:1041800082E090E00E94363AEC010E94AC20D0938D
:10419000F309C093F2098091F2099091F309DF913C
:1041A000CF9108950E94591160E070E00E9482173B
:1041B00080E090E0089529E835E0FC013183208318
:1041C0000C944629CF93DF93EC010E94DB20CE01B3
:1041D000DF91CF910C94383ACF93DF93EC010E949A
:1041E0004C2989E895E099838883DF91CF910895E0
:1041F000CF93DF938091F4099091F509892B59F4BD
:1042000082E090E00E94363AEC010E94EC20D093CC
:10421000F509C093F4098091F4099091F509DF91B3
:10422000CF9108950E94591161E070E00E948217B9
:1042300080E090E0089523E935E0FC01318320839C
:104240000C944629CF93DF93EC010E941B21CE01F1
:10425000DF91CF910C94383ACF93DF93EC010E9419
:104260004C2983E995E099838883DF91CF91089564
:10427000CF93DF938091F6099091F709892B59F438
:1042800082E090E00E94363AEC010E942C21D0930B
:10429000F709C093F6098091F6099091F709DF912B
:1042A000CF910895FC011382128214821682158226
:1042B0001086178212861186148613861686158636
:1042C000108A1786128A118A148A138ADC01AC5A62
:1042D000BF4F1C9217A610AA11AA12AA13AA14AAB9
:1042E00015AA16AA17AA10AE11AE12AE13AE1196E9
:1042F0001C9211961C9212961C9211961C92119669
:104300001C9211961C9211961C92E35AFF4F108238
:1043100008952F923F924F925F926F927F928F9269
:104320009F92AF92BF92CF92DF92EF92FF920F9344
:104330001F93CF93DF93CDB7DEB72C970FB6F894CA
:10434000DEBF0FBECDBF1C0109831A832B833C83C4
:1043500089819A81AB81BC81B7FF0BC0B095A095D4
:10436000909581959F4FAF4FBF4F89839A83AB83C1
:10437000BC83D101A85ABF4F1C9211961C92119672
:104380001C9211961C9212961C92CA01DB01B7FF77
:1043900007C0B095A095909581959F4FAF4FBF4FA7
:1043A0008D839E83AF83B887A601B70177FF07C0CF
:1043B00070956095509541955F4F6F4F7F4F6A01A3
:1043C0007B0184179507A607B70734F04D835E83FA
:1043D0006F8378876C017D01C701B6012D813E8115
:1043E0004F815885621B730B840B950B22E030E0E4
:1043F00040E050E00E9464428D819E81AF81B8858B
:10440000820F931FA41FB51F89879A87AB87BC872C
:1044100029813A814B815C818D819E81AF81B885F4
:10442000281739074A075B072CF0C216D306E406A3
:10443000F5064CF4340181E0F101E55AFF4F808329
:1044400032968083CDC08101035A1F4F29813A8162
:104450004B815C8189859A85AB85BC8582179307E2
:10446000A407B50708F45DC08D819E81AF81B88532
:104470002EA13FA148A559A5820F931FA41FB51FC8
:1044800029813A814B815C8182179307A407B50784
:1044900034F46AA07BA03FEF631A730A5AC06981A3
:1044A0007A818B819C812D813E814F815885621B51
:1044B000730B840B950B0E940B412B013C016EA1E9
:1044C0007FA188A599A50E940B419B01AC01C30166
:1044D000B2010E9461402B013C016AA17BA18CA129
:1044E0009DA1681979098A099B090E940B419B01CA
:1044F000AC01C301B2010E94C0412B013C01C501C6
:10450000B4010E940B419B01AC01C301B2010E94A6
:10451000F03F0E94D3403B0181E0F101E85AFF4F98
:104520005CC0D701C6012EA13FA148A559A5821B99
:10453000930BA40BB50B29813A814B815C81281721
:1045400039074A075B0754F46AA07BA032E0630E88
:10455000711C81E0F101E65AFF4F3FC0C701B6016F
:1045600029813A814B815C81621B730B840B950B13
:104570000E940B412B013C016EA17FA188A599A54A
:104580000E940B419B01AC01C301B2010E9461403A
:104590002B013C016AA17BA18CA19DA1681979091D
:1045A0008A099B090E940B419B01AC01C301B20126
:1045B0000E94C0412B013C01C501B4010E940B4186
:1045C0009B01AC01C301B2010E94F03F0E94D340A5
:1045D0003B0181E0F101E75AFF4F8083D8018C93C2
:1045E000F1018481882309F4A9C00E945835D101C2
:1045F00012960D911C911397012E000C220B330B78
:10460000DC01CB01801B910BA20BB30B893E9340C5
:10461000A105B10508F492C00E945835D101139646
:104620007C936E9312976BE472E087E39BE00E94A9
:104630006C3865EA75E087E39BE00E946C382AE0FD
:1046400030E04D815E816F81788587E39BE00E9439
:10465000F1386BEA75E087E39BE00E946C382AE052
:1046600030E049815A816B817C8187E39BE00E9425
:10467000F13861EB75E087E39BE00E946C382AE03B
:1046800030E0B701A60187E39BE00E94F13867EBB9
:1046900075E087E39BE00E946C382AE030E04985B2
:1046A0005A856B857C8587E39BE00E9442396EEBDF
:1046B00075E087E39BE00E946C382AE030E04EA171
:1046C0005FA168A579A587E39BE00E94F13864ECBF
:1046D00075E087E39BE00E946C382AE030E0B5018A
:1046E000A40187E39BE00E94F1386AEC75E087E360
:1046F0009BE00E946C382AE030E04AA15BA16CA1EB
:104700007DA187E39BE00E94F13860ED75E087E3CF
:104710009BE00E946C386BE575E087E39BE00E94AC
:104720006C384AE050E0B30187E39BE00E943B39DC
:1047300064E976E087E39BE00E946C38C3012C9625
:104740000FB6F894DEBF0FBECDBFDF91CF911F91A2
:104750000F91FF90EF90DF90CF90BF90AF909F9020
:104760008F907F906F905F904F903F902F90089523
:10477000AF92BF92CF92DF92EF92FF921F93CF93AF
:10478000DF93FC0183AD9F012B5A3F4FAF014A5A83
:104790005F4F5A0143A954A965A976A9882339F026
:1047A00087A1D9018C9381E0E50188832AC087A97C
:1047B00090ADA1ADB2AD11E0481759076A077B076C
:1047C0000CF010E0E90118836A017B0177FF07C054
:1047D000CC24DD247601C41AD50AE60AF70AB7FF0D
:1047E00007C0B095A095909581959F4FAF4FBF4F53
:1047F00021E0C816D906EA06FB060CF420E0D50134
:104800002C93452B462B472B61F4DF01A05BBF4F58
:10481000438D548D658D768D4D935D936D937C9313
:104820001397DF91CF911F91FF90EF90DF90CF9082
:10483000BF90AF9008958F929F92AF92BF92CF9208
:10484000DF92EF92FF920F931F93CF93DF93CDB739
:10485000DEB7FC01768365835087478332872187E3
:10486000D486C386B686A586908A8786128B018BEE
:10487000F48AE38ADF91CF911F910F91FF90EF901F
:10488000DF90CF90BF90AF909F908F9008958F92C0
:104890009F92AF92BF92CF92DF92EF92FF920F93CF
:1048A0001F93CF93DF93CDB7DEB7FC01478B508FBB
:1048B000618F728F038F148F258F368FC78ED0A292
:1048C000E1A2F2A283A294A2A5A2B6A2888987A39C
:1048D000898980A78A89858B898D868B8B899C891C
:1048E000AD89BE8983A794A7A5A7B6A78F8981A7FD
:1048F000888D82A7DF91CF911F910F91FF90EF904C
:10490000DF90CF90BF90AF909F908F900895EF92DF
:104910000F931F93FC0147A750AB61AB72AB43AB46
:1049200054AB65AB76AB07AB10AF21AF32AFE3AEA4
:1049300087A1811116C037FF04C017AA10AE11AEAF
:1049400012AEDF01AC5BBF4F1D921D921D921C92F7
:104950001397EC5AFF4F81E080831F910F91EF90E6
:10496000089510161106120613063CF3EACFCF93F2
:10497000DF93EC0160E089850E94D63789A5882302
:1049800021F060E08F850E94D637C45ADF4F81E066
:104990008883DF91CF910895CF93DF93EC0161E09D
:1049A00089850E94D63789A5882321F061E08F850B
:1049B0000E94D637C45ADF4F1882DF91CF910895F5
:1049C000CF93DF93EC0188A5882311F060E001C04C
:1049D00061E08F810E94D63789A5882329F08AA5B6
:1049E000882311F060E001C061E08D85DF91CF91F7
:1049F0000C94D637CF93DF93EC0188A5882311F070
:104A000061E001C060E08F810E94D63789A58823CC
:104A100029F08AA5882311F061E001C060E08D854E
:104A2000DF91CF910C94D637CF92DF92EF92FF9225
:104A3000FC0123AD211110C021E0C3A8D4A8E5A832
:104A4000F6A847A950AD61AD72ADC416D506E6060D
:104A5000F70624F020E002C0FC0127A1FC0130A5EC
:104A6000231731F0FF90EF90DF90CF900C94E0246B
:104A7000FF90EF90DF90CF900C94FA24CF93DF93C8
:104A8000FC0127A1EC01CB5ADF4F222329F00E9421
:104A9000E02481E0888303C00E94FA241882DF9119
:104AA000CF910895CF93DF93FC0127A1EC01CB5A5E
:104AB000DF4F222321F00E94FA24188204C00E94B2
:104AC000E02481E08883DF91CF910895CF93DF9335
:104AD000EC0189890E940638892B11F08E8901C06A
:104AE00080E0DF91CF910895CF93DF93EC018B8924
:104AF0000E940638892B11F08E8901C080E0DF9179
:104B0000CF9108950F931F93CF93DF938C01D62FEE
:104B1000FC01858981110BC0C8010E946625C82F40
:104B2000C8010E947425D1110AC08C2F08C0C80189
:104B30000E947425C82FC8010E946625F4CFDF911A
:104B4000CF911F910F9108954F925F926F927F9234
:104B50008F929F92AF92BF92CF92DF92EF92FF928D
:104B60000F931F93CF93DF93EC010E94B8238FA97B
:104B700098ADA9ADBAAD4FA558A969A97AA98E017A
:104B80000C5A1F4F481759076A077B0754F44BA963
:104B90005CA96DA97EA9481759076A077B0794F09D
:104BA0000EC084179507A607B7074CF44BA95CA95C
:104BB0006DA97EA984179507A607B7071CF08BADD2
:104BC0008823E9F0F80180818823C9F08BAD811139
:104BD00004C08BAD811113C007C060E0CE010E94FC
:104BE00082258111F6CF19C0FE01EA5AFF4F60817C
:104BF00081E06827CE010E948225882371F0F801A8
:104C0000108260E0CE010E948225882309F48DC0C5
:104C10001BAA1CAA1DAA1EAA88C08B8C9C8CAD8CBA
:104C2000BE8CCFA8D8ACE9ACFAAC0BA91CA92DA9B5
:104C30003EA94FA558A969A97AA98AA18F9389A1EC
:104C40008F9388A18F938F8D8F938A8D8F93898D6A
:104C50008F93888D8F938F898F93CE010E948921A6
:104C60006C01E12CF12CFE01E05BFF4FC082D18290
:104C7000E282F3828DB79EB708960FB6F8949EBF76
:104C80000FBE8DBFC114D104E104F10409F4B9CF02
:104C9000FE01EC5BFF4F60817181828193810E94F4
:104CA00009414B015C016BA57CA58DA59EA50E94C9
:104CB0000B419B01AC0160E074E284E799E40E943F
:104CC00061402B013C01C701B6010E9409419B01D3
:104CD000AC01C301B2010E9461406B017C018E01F5
:104CE000085B1F4F20E030E040E05FE30E94C041DE
:104CF0009B01AC01C501B4010E94F03F0E94DA4063
:104D0000F80160837183828393830C5F1F4FA70137
:104D10009601C501B4010E94F03F0E94DA40F801FB
:104D200060837183828393836CCFDF91CF911F91D6
:104D30000F91FF90EF90DF90CF90BF90AF909F903A
:104D40008F907F906F905F904F900895FC01EC5A88
:104D5000FF4F80810895FC01EC5AFF4F10820895A7
:104D6000CF93DF93EC0161E08D810E94D6378F8570
:104D70009889892B31F061E08B85DF91CF910C947C
:104D8000D637DF91CF910895FC01EB5AFF4F208178
:104D9000FC0143A954A965A976A9222329F04F5FF4
:104DA0005F4F6F4F7F4F05C0415051096109710935
:104DB000FC0143AB54AB65AB76AB0C94B026CF9300
:104DC000DF93EC01FC01E95AFF4F81E0808360E052
:104DD0008D810E94D6378F859889892B31F060E0CC
:104DE0008B85DF91CF910C94D637DF91CF910895C9
:104DF0000F931F93CF93DF93FC01EC5AFF4F208159
:104E0000222399F1709740815181628173814F5FB4
:104E10005F4F6F4F7F4F4083518362837383389618
:104E20000081118122813381401751076207730786
:104E300050F0EC010E94DF26CE01DF91CF911F914F
:104E40000F910C94A425FC01E85BFF4F00811181B8
:104E500022813381401751076207730731F4DF91D4
:104E6000CF911F910F910C94C426DF91CF911F9188
:104E70000F910895FC0163A974A985A996A90895C5
:104E8000FC0143AB54AB65AB76AB0895FC01478B9B
:104E9000508F618F728F0895FC01E95AFF4F808116
:104EA0000895FC01E95AFF4F10820895FC01EA5A67
:104EB000FF4F80810895FC01EB5AFF4F80810895D8
:104EC000FC01E85AFF4F80810895FC01E75AFF4F2B
:104ED00080810895FC01E65AFF4F80810895FC010E
:104EE000E55AFF4F808108958F929F92AF92BF92B3
:104EF000CF92DF92EF92FF92CF93DF93EB01CB0142
:104F00000E947A314B015C01CE010E9474316B0129
:104F10007C010E940B2EA401B6010E941E2E80E08F
:104F200090E0DF91CF91FF90EF90DF90CF90BF9016
:104F3000AF909F908F9008952AED35E0FC0131836A
:104F400020830C944629CF93DF93EC010E949C2789
:104F5000CE01DF91CF910C94383ACF93DF93EC01DF
:104F60000E944C298AED95E099838883DF91CF9147
:104F70000895CF93DF938091F8099091F909892BD7
:104F800059F482E090E00E94363AEC010E94AD278D
:104F9000D093F909C093F8098091F8099091F90923
:104FA000DF91CF9108958F929F92AF92BF92CF924F
:104FB000DF92EF92FF920F931F930E9459111F925D
:104FC00021E02F931F921F921F92812C912CA12CD4
:104FD000B12CC12CD12C760100E010E0980140E00A
:104FE00050E0BA010E946A120F900F900F900F903C
:104FF0000F9080E090E01F910F91FF90EF90DF9075
:10500000CF90BF90AF909F908F90089524EE35E0A1
:10501000FC01318320830C944629CF93DF93EC016C
:105020000E940628CE01DF91CF910C94383ACF939D
:10503000DF93EC010E944C2984EE95E099838883EC
:10504000DF91CF910895CF93DF938091FA099091EA
:10505000FB09892B59F482E090E00E94363AEC017A
:105060000E941728D093FB09C093FA098091FA098E
:105070009091FB09DF91CF9108958F929F92AF920B
:10508000BF92CF92DF92EF92FF920F931F930E94F5
:1050900059111F921F9221E02F931F921F92812C72
:1050A000912CA12CB12CC12CD12C760100E010E068
:1050B000980140E050E0BA010E946A120F900F90F0
:1050C0000F900F900F9080E090E01F910F91FF9054
:1050D000EF90DF90CF90BF90AF909F908F9008950A
:1050E0002EEE35E0FC01318320830C944629CF93CA
:1050F000DF93EC010E947028CE01DF91CF910C94D8
:10510000383ACF93DF93EC010E944C298EEE95E064
:1051100099838883DF91CF910895CF93DF93809116
:10512000FC099091FD09892B59F482E090E00E94DE
:10513000363AEC010E948128D093FD09C093FC0906
:105140008091FC099091FD09DF91CF9108950E9413
:10515000591162E070E00E94821780E090E00895AB
:1051600028EF35E0FC01318320830C944629CF934E
:10517000DF93EC010E94B028CE01DF91CF910C9417
:10518000383ACF93DF93EC010E944C2988EF95E0E9
:1051900099838883DF91CF910895CF93DF93809196
:1051A000FE099091FF09892B59F482E090E00E945A
:1051B000363AEC010E94C128D093FF09C093FE0942
:1051C0008091FE099091FF09DF91CF9108958F9210
:1051D0009F92AF92BF92CF92DF92EF92FF92CF93C6
:1051E000DF93EB01CB010E948C314B015C01CE01BE
:1051F0000E9474316B017C010E94B308A401B601C6
:105200000E94E10880E090E0DF91CF91FF90EF9065
:10521000DF90CF90BF90AF909F908F90089522E045
:1052200036E0FC01318320830C944629CF93DF9331
:10523000EC010E940F29CE01DF91CF910C94383AF6
:10524000CF93DF93EC010E944C2982E096E0998392
:105250008883DF91CF910895CF93DF938091000AE7
:105260009091010A892B59F482E090E00E94363A2D
:10527000EC010E942029D093010AC093000A80917A
:10528000000A9091010ADF91CF91089508958FEF60
:105290009FEF08950C94383A2CE036E0FC013183FE
:1052A000208308951092160A1092170A1092180A75
:1052B0001092190A1092120A1092130A1092140AEC
:1052C0001092150A10920E0A10920F0A1092100AEC
:1052D0001092110A10920D0A10920C0A1092020AF2
:1052E0001092030A1092040A1092050A0895CF93AF
:1052F000DF9380911A0A90911B0A892B59F481E05F
:1053000090E00E94363AEC010E945229D0931B0A89
:10531000C0931A0A80911A0A90911B0ADF91CF91CB
:1053200008956091160A7091170A8091180A909159
:10533000190A08956091120A7091130A8091140A53
:105340009091150A089560910E0A70910F0A80914C
:10535000100A9091110A08954093160A5093170A63
:105360006093180A7093190A08954093120A509393
:10537000130A6093140A7093150A089540930E0A55
:1053800050930F0A6093100A7093110A0895CF93F7
:10539000DF9383E00E940638EC010E94772991E0B8
:1053A000CD2B09F490E09093060A82E00E94063823
:1053B000EC010E94772991E0CD2B09F490E09093C5
:1053C000070A8EE00E940638EC010E94772991E0DE
:1053D000CD2B09F490E09093080A8FE00E940638E4
:1053E000EC010E94772991E0CD2B09F490E0909395
:1053F000090A82E10E940638EC010E94772991E0B7
:10540000CD2B09F490E090930A0A83E10E940638BC
:10541000EC010E94772991E0CD2B09F490E0909364
:105420000B0ADF91CF910895662319F060EF76E0C3
:1054300002C069EE76E087E39BE00C946C38409301
:10544000020A5093030A6093040A7093050A0895B0
:105450001092020A1092030A1092040A1092050A8E
:10546000089562E176E087E39BE00E946C3840910A
:10547000020A5091030A6091040A7091050A2AE019
:1054800030E087E39BE00E94F13864E976E087E34F
:105490009BE00C946C38CF93DF93EC0165E176E0F0
:1054A00087E39BE00E946C3862E476E087E39BE050
:1054B0000E946C384091160A5091170A6091180AA0
:1054C0007091190A2AE030E087E39BE00E94F138EE
:1054D00062E576E087E39BE00E946C384091120A17
:1054E0005091130A6091140A7091150A2AE030E075
:1054F00087E39BE00E94F13862E676E087E39BE079
:105500000E946C3840910E0A50910F0A6091100A67
:105510007091110A2AE030E087E39BE00E94F138A5
:10552000CE01DF91CF910C94312A0F931F93CF932B
:10553000DF93EC0169E176E087E39BE00E946C3841
:105540006DE176E087E39BE00E946C3806E01AE0AC
:10555000F8016081CE010E94142A61E276E087E3BF
:105560009BE00E946C38F8016181CE010E94142AF0
:1055700065E276E087E39BE00E946C38F801628187
:10558000CE010E94142A69E276E087E39BE00E9444
:105590006C38F8016381CE010E94142A6DE276E036
:1055A00087E39BE00E946C38F8016481CE010E9481
:1055B000142A61E376E087E39BE00E946C38F801EF
:1055C0006581CE010E94142ACE01DF91CF911F91F7
:1055D0000F910C94312AFC011182108215821482E1
:1055E000108A118A128A138A178A168A84E690E032
:1055F000958B848B128610861486158616861786E0
:105600000895FC01778B668B558B448B0895FC01C4
:10561000408B518B628B738B0895FC01A489B589F3
:105620002089318942895389A436B10559F01A1667
:105630001B0644F40E94964224E630E040E050E02D
:105640000E946442B901CA010895CF93DF93EC012F
:1056500088810E94063821E0892B09F420E02C87FC
:105660008C810E94063821E0892B09F420E02E87E6
:105670001F8A1E8A8C858A872B87DF91CF91089598
:105680000F931F93CF93DF93EC01798368835D833E
:105690004C833B832A831F830E830E94252B8A859C
:1056A00088878B858987DF91CF911F910F9108950E
:1056B000CF93DF93EC018A8588878B858987CE011C
:1056C0000E94252B28859A858985222331F09923EC
:1056D00039F1811127C04B8507C091112BC0882358
:1056E00029F04B8581E0482750E007C040E050E0BA
:1056F0008B85882311F041505109052E000C660B53
:10570000770B88899989AA89BB89480F591F6A1F15
:105710007B1F488B598B6A8B7B8BDF91CF910895D0
:105720008111D9CF40E050E08B858111E6CF4FEF5A
:105730005FEFE3CF8823A9F240E050E08B85882318
:10574000E1F2F5CFCF93DF93EB01CB010E94503113
:1057500020E030E040E85FE30E945C4081110DC032
:1057600065E376E087E39BE00E946C380E94591164
:1057700040E050E0BA010E941E12CE010E94563154
:1057800020E030E040E85FE30E945C4081110DC002
:1057900065E476E087E39BE00E946C380E94591133
:1057A00040E050E0BA010E943612CE010E945C3106
:1057B00020E030E040E85FE30E945C4081110DC0D2
:1057C00065E576E087E39BE00E946C380E94591102
:1057D00040E050E0BA010E9450120E9477290E94D6
:1057E000312A80E090E0DF91CF91089529E636E0FC
:1057F000FC01318320830C944629CF93DF93EC0185
:105800000E94F62BCE01DF91CF910C94383ACF93C2
:10581000DF93EC010E944C2989E696E09983888306
:10582000DF91CF910895CF93DF9380911C0A9091DF
:105830001D0A892B59F482E090E00E94363AEC016F
:105840000E94072CD0931D0AC0931C0A80911C0A49
:1058500090911D0ADF91CF91089508950C94383AE4
:1058600027EA36E0FC01318320830895CF93DF934C
:10587000EB01209719F40E946E201AC06C3171055B
:1058800019F40E94892D14C06F36710519F40E9415
:105890008D2814C06037710519F40E94232814C0A4
:1058A00080E090E06137710519F40E94990818C0F2
:1058B000C237D10519F40E94F82018C0C337D105AA
:1058C00019F40E94382118C0C437D10519F40E9478
:1058D000CD2818C0C837D10519F40E945F2E18C012
:1058E000C937D10519F40E94301F18C0CA37D10535
:1058F00019F40E94DD3118C0CD38D10519F40E9489
:10590000580719C0CE38D10519F40E942C291AC0A5
:10591000CF38D10519F40E94FC2E1BC0C039D10527
:1059200019F40E94E41E1CC0C13AD10521F4DF9194
:10593000CF910C94B927C53BD10521F4DF91CF91CC
:105940000C94F12DC63BD10521F4DF91CF910C943D
:105950009D2EC73BD10521F4DF91CF910C94B82047
:10596000C83BD10521F4DF91CF910C94132CDF912A
:10597000CF910895EF92FF920F931F93CF93DF93F0
:1059800000D01F92CDB7DEB78C017B01CB010E9406
:105990009231AB01BC0149835A836B837C830E94A3
:1059A000772949815A816B817C810E941F2AE114E9
:1059B000F104A9F0C7010E944B31019681F0C701A3
:1059C0000E944B31BC01C8010E94362C8C01892BEE
:1059D00049F461E876E087E39BE00E9489388FEF25
:1059E0009FEF28C06FE976E087E39BE00E946C3868
:1059F0000E9477290E94312AD801ED91FC91048000
:105A0000F581E02DB701C80119958C01892B19F496
:105A10006BE976E002C067E976E087E39BE00E94ED
:105A20006C380E9477290E94312A0E9477290E94AF
:105A3000282AC8010F900F900F900F90DF91CF91FF
:105A40001F910F91FF90EF9008958F929F92AF92C8
:105A5000BF92CF92DF92EF92FF920F931F93CF935B
:105A60000E945911C1E0CF931F921F921F921F9263
:105A7000812C912CA12CB12CC12CD12C760100E0D1
:105A800010E0980140E050E0BA010E946A120E94C2
:105A900059111F92CF93CF931F921F9200E010E0F5
:105AA000980140E050E0BA010E946A128DB79EB79B
:105AB0000A960FB6F8949EBF0FBE8DBF80E090E0AF
:105AC000CF911F910F91FF90EF90DF90CF90BF90FB
:105AD000AF909F908F9008952FEA36E0FC013183BC
