:100000009DC10000CCC10000CAC10000C8C10000F1
:10001000C6C10000C4C10000C2C10000C0C10000D0
:10002000BEC10000BCC10000BAC10000B8C10000E0
:10003000B6C10000B4C10000B2C10000B0C10000F0
:10004000AEC100000C94D145AAC10000A8C10000B7
:100050000C94FF45A4C10000A2C100000C94FD4413
:100060009EC100000C94C7440C949D4498C10000AC
:1000700096C1000094C1000092C1000090C1000030
:100080000C94A3458CC100008AC1000088C1000007
:1000900086C1000084C1000082C1000080C1000050
:1000A0007EC100007CC100000C94754578C1000041
:1000B00076C1000074C1000072C100000C94474575
:1000C0006EC100006CC100006AC1000068C1000080
:1000D00066C1000064C1000062C1000060C1000090
:1000E0005EC100004E414E494E495459494E46CDDD
:1000F000CCCC3D0AD7233C17B7D13877CC2B3295DF
:1001000095E6241FB14F0A000020410000C84200BC
:10011000401C4620BCBE4CCA1B0E5AAEC59D740086
:10012000407A10F35A00A0724E18090010A5D4E8C6
:100130000000E87648170000E40B54020000CA9A59
:100140003B000000E1F505000080969800000040AB
:10015000420F000000A086010000001027000000F0
:1001600000E803000000006400000000000A000036
:100170000000000100000000002C76D888DC674FEA
:100180000823DFC1DFAE59E1B1B796E5E3E453C61A
:100190003AE651997696E8E6C28426EB898C9B6212
:1001A000ED407C6FFCEFBC9C9F40F2BAA56FA5F4BC
:1001B00090055A2AF75C936B6CF9676DC11BFCE0E4
:1001C000E40D47FEF520E6B500D0ED902E03009437
:1001D0003577050080841E080000204E0A000000CC
:1001E000C80C333333330F986E12831141EF8D21D6
:1001F00014893BE65516CFFEE6DB18D1844B381B3D
:10020000F77C1D901DA4BBE424203284725E228101
:1002100000C9F124ECA1E53D2700002100240027BE
:10022000002A002D00300033000101000004010706
:10023000010A0100002200250028002B002E0031B9
:1002400000340002010000050108010B010000203C
:10025000002300260029002C002F0032000001009E
:100260000003010601090105050505070508080841
:1002700008020202020A0A08080404040401010137
:10028000010101010103030303030303030407073F
:10029000070C0C0C0C0C0C0C0C02020202060606DD
:1002A00006060606060B0B0B0B0B0B0B0B010210C5
:1002B0002020080810204010204080020102010880
:1002C0000402010102040810204080804020100830
:1002D0000402018004020180402010080402010889
:1002E00004020101020408102040800102040810E9
:1002F00020408000000A0B02090C0D0E08070304C1
:1003000001000000000000000000000000000000EC
:1003100000000000000000000000000000000012CB
:1003200011100000000000000000000000000000AC
:10033000000000000000000000002A4611241FBE3B
:10034000CFEFD1E2DEBFCDBF00E00CBF18E0A0E0F0
:10035000B2E0E0EFF6EB00E00BBF02C007900D92B9
:10036000A43FB107D9F72EE0A4EFB8E001C01D9279
:10037000AE3DB207E1F711E0CEE9D1E000E006C002
:1003800021970109802FFE010E94615ACD39D107C2
:1003900080E00807A9F70E949B460C94765B30CE5C
:1003A0009C01803E910508F06FC5FC018827E4524E
:1003B000FE4F8F4F0C94615ABC02C902D202DB027D
:1003C000E802F10244074407440744074407FE02D9
:1003D0000B031803440725032E03370344034D037F
:1003E00056035F036803710344077A0383038C0396
:1003F00044074407440795039E03A70344074407A3
:10040000B003BD03440744074407CA03D703E4030A
:10041000F103FE03070410044407440744071904CA
:1004200022042B04440738044504520444074407BB
:1004300044075F046C04790486049304A004AD04AB
:10044000440744074407BA04C704D404E104EE0493
:10045000F70400054407440744074B0558056505A4
:10046000440772057F058C05440744074407990536
:10047000A205AB0544074407440744074407440763
:100480004407B405BD05C6054407CF05D805E105F9
:10049000440744074407EA05F70504064407110624
:1004A0001E062B0644074407440738064506520635
:1004B00044075F06680671064407440744077A0646
:1004C00083068C064407440744074407440744074F
:1004D00044074407440744074407090512051B0560
:1004E00044074407440744074407440744074407B4
:1004F00044074407440744074407240531053E05E3
:100500004407440744074407440744074407440793
:100510004407440744074407440744074407440783
:100520004407440744074407440744074407440773
:100530004407440744074407440744074407440763
:100540004407440744074407440795069E06AB0644
:100550004407B806C106CE06440744074407DB0635
:10056000E406F1064407FE0607071407440744079C
:10057000440721072A07370781E090E0A0E0B0E0B8
:100580008093160A9093170AA093180AB093190A39
:10059000089510921A0A10921B0A10921C0A1092C7
:1005A0001D0A089510921E0A10921F0A1092200A26
:1005B0001092210A089581E090E0A0E0B0E08093DD
:1005C000220A9093230AA093240AB093250A08953F
:1005D0001092260A1092270A1092280A1092290ACD
:1005E000089583E090E0A0E0B0E080932A0A909321
:1005F0002B0AA0932C0AB0932D0A089588E790E067
:10060000A0E0B0E08093420A9093430AA093440A8A
:10061000B093450A089588E790E0A0E0B0E08093A9
:10062000460A9093470AA093480AB093490A08954E
:1006300088E790E0A0E0B0E080934A0A90934B0AEC
:10064000A0934C0AB0934D0A08951092520A10924A
:10065000530A1092540A1092550A08951092560A9D
:100660001092570A1092580A1092590A089581E080
:1006700090E0A0E0B0E080935A0A90935B0AA093C8
:100680005C0AB0935D0A089510925E0A10925F0AA8
:100690001092600A1092610A08951092620A1092F4
:1006A000630A1092640A1092650A08951092660A0D
:1006B0001092670A1092680A1092690A08951092BF
:1006C0006A0A10926B0A10926C0A10926D0A0895D1
:1006D00010926E0A10926F0A1092700A1092710AAC
:1006E00008951092720A1092730A1092740A10926E
:1006F000750A089510927A0A10927B0A10927C0A69
:1007000010927D0A089510927E0A10927F0A10922C
:10071000800A1092810A08951092820A1092830A28
:100720001092840A1092850A08951092920A1092EB
:10073000930A1092940A1092950A08951092960ABC
:100740001092970A1092980A1092990A089510929E
:100750009A0A10929B0A10929C0A10929D0A089580
:1007600081E090E0A0E0B0E08093A60A9093A70A11
:10077000A093A80AB093A90A089581E090E0A0E0B0
:10078000B0E08093AA0A9093AB0AA093AC0AB0930E
:10079000AD0A08958CE291E0A0E0B0E08093BA0A3F
:1007A0009093BB0AA093BC0AB093BD0A08958CE253
:1007B00091E0A0E0B0E08093BE0A9093BF0AA093BE
:1007C000C00AB093C10A08958CE291E0A0E0B0E0C5
:1007D0008093C20A9093C30AA093C40AB093C50A37
:1007E00008958CE291E0A0E0B0E08093C60A909377
:1007F000C70AA093C80AB093C90A08951092CA0AFA
:100800001092CB0A1092CC0A1092CD0A0895109241
:10081000CE0A1092CF0A1092D00A1092D10A0895EF
:100820001092D20A1092D30A1092D40A1092D50ACA
:1008300008951092E20A1092E30A1092E40A1092CC
:10084000E50A08951092E60A1092E70A1092E80A63
:100850001092E90A089581E090E0A0E0B0E0809372
:10086000EA0A9093EB0AA093EC0AB093ED0A08957C
:1008700085E090E0A0E0B0E08093F20A9093F30A64
:10088000A093F40AB093F50A089585E090E0A0E003
:10089000B0E08093F60A9093F70AA093F80AB09319
:1008A000F90A089589E190E0A0E0B0E08093FA0AA7
:1008B0009093FB0AA093FC0AB093FD0A089582E38B
:1008C00090E0A0E0B0E080930A0B90930B0BA09314
:1008D0000C0BB0930D0B089582E390E0A0E0B0E024
:1008E00080930E0B90930F0BA093100BB093110BF2
:1008F000089582E390E0A0E0B0E08093120B909323
:10090000130BA093140BB093150B089582E390E0A2
:10091000A0E0B0E08093160B9093170BA093180BF8
:10092000B093190B089582E390E0A0E0B0E08093CB
:100930001A0B90931B0BA0931C0BB0931D0B0895E7
:1009400082E390E0A0E0B0E080931E0B90931F0B39
:10095000A093200BB093210B089582E390E0A0E0D8
:10096000B0E08093220B9093230BA093240BB093C1
:10097000250B089580E991E0A0E0B0E08093320B70
:100980009093330BA093340BB093350B089580E90B
:1009900091E0A0E0B0E08093360B9093370BA093EA
:1009A000380BB093390B089580E991E0A0E0B0E0F6
:1009B00080933A0B90933B0BA0933C0BB0933D0B71
:1009C000089580E991E0A0E0B0E080933E0B909321
:1009D0003F0BA093400BB093410B08951092420B34
:1009E0001092430B1092440B1092450B08951092F5
:1009F000460B1092470B1092480B1092490B08952A
:100A000010924A0B10924B0B10924C0B10924D0B04
:100A1000089510925A0C10925B0C10925C0C10927C
:100A20005D0C089510925E0C10925F0C1092600C99
:100A30001092610C08951092620C1092630C109247
:100A4000640C1092650C089583E090E0A0E0B0E0A3
:100A500080939A0C90939B0CA0939C0CB0939D0C4C
:100A6000089583E090E0A0E0B0E080939E0C909326
:100A70009F0CA093A00CB093A10C089583E090E08C
:100A8000A0E0B0E08093A20C9093A30CA093A40CE0
:100A9000B093A50C089588E592E0A0E0B0E08093C3
:100AA0005A0B90935B0BA0935C0BB0935D0B089576
:100AB00088E592E0A0E0B0E080935E0B90935F0B3E
:100AC000A093600BB093610B089588E592E0A0E0DD
:100AD000B0E08093620B9093630BA093640BB09390
:100AE000650B08958EE190E0A0E0B0E080936A0B82
:100AF00090936B0BA0936C0BB0936D0B08958EE1EC
:100B000090E0A0E0B0E080936E0B90936F0BA09309
:100B1000700BB093710B08958EE190E0A0E0B0E00F
:100B20008093720B9093730BA093740BB093750B1F
:100B300008951092820B1092830B1092840B1092E6
:100B4000850B08951092860B1092870B1092880BDC
:100B50001092890B089510928A0B10928B0B1092B1
:100B60008C0B10928D0B08951092AA0B1092AB0B68
:100B70001092AC0B1092AD0B08951092AE0B109228
:100B8000AF0B1092B00B1092B10B08951092B20BF4
:100B90001092B30B1092B40B1092B50B08951092F3
:100BA000BA0B1092BB0B1092BC0B1092BD0B0895A8
:100BB0001092BE0B1092BF0B1092C00B1092C10B83
:100BC00008951092C20B1092C30B1092C40B109296
:100BD000C50B089585E090E0A0E0B0E08093D20BD3
:100BE0009093D30BA093D40BB093D50B089585E0CD
:100BF00090E0A0E0B0E08093D60B9093D70BA09349
:100C0000D80BB093D90B089585E090E0A0E0B0E058
:100C10008093DA0B9093DB0BA093DC0BB093DD0B8E
:100C2000089584EB95E1A0E0B0E08093E20B90930F
:100C3000E30BA093E40BB093E50B089584EB95E1EF
:100C4000A0E0B0E08093E60B9093E70BA093E80B55
:100C5000B093E90B089584EB95E1A0E0B0E08093B8
:100C6000EA0B9093EB0BA093EC0BB093ED0B089574
:100C700085E090E0A0E0B0E08093FA0B9093FB0B4E
:100C8000A093FC0BB093FD0B089585E090E0A0E0ED
:100C9000B0E08093FE0B9093FF0BA093000CB093F9
:100CA000010C089585E090E0A0E0B0E08093020C94
:100CB0009093030CA093040CB093050C089510922C
:100CC0000A0C10920B0C10920C0C10920D0C089543
:100CD00010920E0C10920F0C1092100C1092110C1E
:100CE00008951092120C1092130C1092140C109282
:100CF000150C08951092220C1092230C1092240CC3
:100D00001092250C08951092260C1092270C109228
:100D1000280C1092290C089510922A0C10922B0C7A
:100D200010922C0C10922D0C089510923A0D1092E6
:100D30003B0D10923C0D10923D0D08958CE390E018
:100D4000A0E0B0E080933E0D90933F0DA093400D46
:100D5000B093410D089581E090E0A0E0B0E0809371
:100D6000420D9093430DA093440DB093450D08950B
:100D700010924A0D10924B0D10924C0D10924D0D89
:100D800008958CE390E0A0E0B0E080934E0D909346
:100D90004F0DA093500DB093510D089581E090E058
:100DA000A0E0B0E08093520D9093530DA093540DAA
:100DB000B093550D08951092620D1092630D10922C
:100DC000640D1092650D08958CE390E0A0E0B0E012
:100DD0008093660D9093670DA093680DB093690D95
:100DE000089581E090E0A0E0B0E080936A0D9093D8
:100DF0006B0DA0936C0DB0936D0D08951092720D54
:100E00001092730D1092740D1092750D08958CE36D
:100E100090E0A0E0B0E08093760D9093770DA093E2
:100E2000780DB093790D089581E090E0A0E0B0E0F6
:100E300080937A0D90937B0DA0937C0DB0937D0DE4
:100E4000089510928A0D10928B0D10928C0D1092B5
:100E50008D0D08958CE390E0A0E0B0E080938E0DBE
:100E600090938F0DA093900DB093910D089581E014
:100E700090E0A0E0B0E08093920D9093930DA0934A
:100E8000940DB093950D0895220F331F220F331F39
:100E9000F901EA5EF54F10821182128213820895E1
:100EA000883691050CF048C085369105A4F480334E
:100EB000910524F58932910574F4883191058CF4FB
:100EC0008F30910544F4863091053CF482309105D1
:100ED00014F4892B89F481E008950B97039760F44B
:100EE000FACF823291052CF48F319105A4F74997FE
:100EF000F5CF8497029778F380E008958E349105BA
:100F00007CF4873491053CF78A3391052CF48733C0
:100F100091050CF7C397E2CFCD97079768F7DBCF22
:100F20008835910534F485359105ACF681559109E4
:100F3000D5CF8B559109D2CF8039910504F58D38E5
:100F400091054CF6863791056CF4833791051CF6B4
:100F5000893691058CF28C3691050CF4BCCF8F56F6
:100F60009109BCCF803891053CF48D3791050CF088
:100F7000B2CF89579109B2CF83589109AFCF803D45
:100F800091058CF48D3C91050CF0A5CF843A910528
:100F90003CF4813A91050CF09ECF815991099ECF86
:100FA000895C91099BCF8A3D91053CF4873D910571
:100FB0000CF091CF835D910991CF8D5D91098ECF1A
:100FC000AF92BF92CF92DF92EF92FF920F931F9357
:100FD000CF93DF936C017B018B01040F151FEB0195
:100FE0005E01AE18BF08C017D10759F06991D6014C
:100FF000ED91FC910190F081E02DC6011995892BAE
:1010000079F7C501DF91CF911F910F91FF90EF907C
:10101000DF90CF90BF90AF900895FC01538D448D29
:10102000252F30E0842F90E0821B930B541710F093
:10103000CF96089501970895FC01918D828D9817A0
:1010400061F0A28DAE0FBF2FB11D5D968C91928D78
:101050009F5F9F73928F90E008958FEF9FEF0895A9
:10106000FC01918D828D981731F0828DE80FF11D72
:10107000858D90E008958FEF9FEF0895FC01918D8D
:10108000228D892F90E0805C9F4F821B91098F7386
:10109000992708958AE99DE0F1DF21E0892B09F481
:1010A00020E0822F0895FC01A48DA80FB92FB11D57
:1010B000A35ABF4F2C91848D90E001968F7399278E
:1010C000848FA689B7892C93A089B1898C9183706C
:1010D00080648C93938D848D981306C00288F38965
:1010E000E02D80818F7D80830895EF92FF920F9392
:1010F0001F93CF93DF93EC0181E0888F9B8D8C8DC4
:1011000098131AC0E889F989808185FF15C09FB7B7
:10111000F894EE89FF896083E889F989808183707A
:10112000806480839FBF81E090E0DF91CF911F9129
:101130000F91FF90EF900895F62E0B8D10E00F5F4A
:101140001F4F0F731127E02E8C8D8E110BC00FB621
:1011500007FCFACFE889F989808185FFF5CFCE01B8
:10116000A2DFF2CFEB8DEC0FFD2FF11DE35AFF4F05
:10117000F0829FB7F8940B8FEA89FB8980818062A7
:10118000D0CF682F8AE99DE0B0CFCF93DF93EC01F9
:10119000888D8823B1F0AA89BB89E889F9898C9167
:1011A00085FD03C0808186FD0CC00FB607FCF7CF1C
:1011B0008C9185FFF2CF808185FFEDCFCE0173DF6B
:1011C000EACFDF91CF91089580E090E0892B21F064
:1011D00061DF81110E94000080E090E0892B49F0DE
:1011E00080E090E0892B29F00E94000081110E948C
:1011F000000080E090E0892B49F080E090E0892BAE
:1012000029F00E94000081110E94000080E090E01F
:10121000892B49F080E090E0892B29F00E940000A2
:1012200081110C94000008958150823108F05AC059
:10123000E82FF0E08827E05EF64F8F4F0C94615A5C
:1012400040094409320938093C09720947094D0926
:10125000510957095B095F096509690972096D0937
:1012600073097709809180008F77809380000895BB
:10127000809180008F7DF9CF80918000877FF5CFAE
:1012800084B58F7784BD089584B58F7DFBCF809121
:10129000B0008F778093B00008958091B0008F7D6B
:1012A000F9CF809190008F7780939000089580917E
:1012B00090008F7DF9CF80919000877FF5CF80914E
:1012C000A0008F778093A00008958091A0008F7D6B
:1012D000F9CF8091A000877FF5CF809120018F7793
:1012E000809320010895809120018F7DF9CF809116
:1012F0002001877FF5CFCF93DF93282F30E0F901CE
:10130000ED50FD4F8491F901E355FD4FD491F90162
:10131000E959FD4FC491CC2399F0811185DFEC2F61
:10132000F0E0EE0FFF1FE35BFD4FA591B491EC9150
:10133000ED2381E090E009F480E0DF91CF91089502
:1013400080E090E0FACF1F93CF93DF93282F30E017
:10135000F901ED50FD4F8491F901E355FD4FD49112
:10136000F901E959FD4FC491CC23A1F0162F811149
:101370005BDFEC2FF0E0EE0FFF1FED5CFD4FA59162
:10138000B4918FB7F894EC91111108C0D095DE2379
:10139000DC938FBFDF91CF911F910895DE2BF8CFA3
:1013A000CF93DF9390E0FC01E355FD4F24918959E1
:1013B0009D4FFC0184918823C9F090E0880F991F0C
:1013C000FC01E75EFD4FA591B491FC01ED5CFD4F82
:1013D000C591D49161110DC09FB7F8948C9120955F
:1013E00082238C938881282328839FBFDF91CF910C
:1013F0000895623051F49FB7F8943C91822F809504
:1014000083238C93E8812E2BEFCF8FB7F894EC9148
:101410002E2B2C938FBFEACF8230910538F0880FA6
:10142000991F880F991F05970197F1F708953FB706
:10143000F89480910A0990910B09A0910C09B09140
:101440000D0926B5A89B05C02F3F19F00196A11DD7
:10145000B11D3FBFBA2FA92F982F8827BC01CD01FE
:10146000620F711D811D911D42E0660F771F881F5D
:10147000991F4A95D1F708958F929F92AF92BF928C
:10148000CF92DF92EF92FF926B017C01D0DF4B0194
:101490005C01C114D104E104F104B1F0C8DF6819A2
:1014A00079098A099B09683E73408105910588F393
:1014B00021E0C21AD108E108F10888EE880E83E025
:1014C000981EA11CB11CE5CFFF90EF90DF90CF904C
:1014D000BF90AF909F908F9008952FB7F894609130
:1014E00006097091070980910809909109092FBF99
:1014F0000895CF92DF92EF92FF92CF93DF93EC01AA
:10150000603282E07807CCF5653B710514F064EB3E
:1015100070E0898128E830E0281B310987FD339588
:10152000220F331F220F331F6901330FEE08FF080C
:101530008A8128E532E0281B310987FD3395220F87
:10154000331F220F331F032E000C440B550B2C1995
:101550003D094E095F09DB0177FF02C0B0E0A0E062
:101560000E94F65824EB30E040E050E00E94D05852
:10157000C20ED31EE41EF51EB601E881E03370F5FD
:10158000298188E890E0821B910927FD9395880FB7
:10159000991F880F991F681779077CF02A8188E5C1
:1015A00092E0821B910927FD9395880F991F880F60
:1015B000991F681779070CF4CB010297880F991FC0
:1015C0004FB7F8942E2F30E0F901EE0FFF1FE20F16
:1015D000F31FE95CF14F928381834FBFDF91CF917D
:1015E000FF90EF90DF90CF9008951F93CF93DF93FC
:1015F000EC01162F8881803308F04DC061E0812F07
:10160000CFDE8881282F30E0F901EE0FFF1FE20FB7
:10161000F31FE95CF14F1F736081607C612B608375
:1016200019821A822CE0622F0E94425A829FB001D6
:10163000112430E020E0AB01420F531FFA01EE0FFE
:10164000FF1FE40FF51FE95CF14F908196FD16C076
:101650002F5F3F4F2C30310571F7813009F5109223
:10166000800082E0809381001092850010928400B7
:10167000B19A80916F00826080936F00E8818E2F15
:1016800090E0FC01EE0FFF1FE80FF91FE95CF14F3E
:101690008081806480838881DF91CF911F9108953C
:1016A000823061F410929000809391001092950026
:1016B0001092940088BB80937100E0CF833069F46E
:1016C0001092A00082E08093A1001092A5001092D9
:1016D000A40089BB80937200D1CF8111CFCF10922B
:1016E000200182E0809321011092250110922401B3
:1016F0008ABB80937300C2CFAF92BF92CF92DF922A
:10170000EF92FF920F931F93CF93DF936B017A01B8
:10171000EC01CF5FD64F28813CE0389F8001399F94
:10172000100D1124A090C70EB12C27FF1FC0FB0184
:101730001182108288818F5F888388819801280FA9
:10174000311D87FD3A95F6012A153B051CF4888169
:101750008C30BCF180819181049680349C4908F4DE
:1017600071C0F6018081918104966EC088819801D4
:10177000280F311D87FD3A952A153B05DCF6888137
:10178000A801480F511D87FD5A95FA01EE0FFF1F62
:10179000E40FF51FE95CF14F808186FFCBCF888194
:1017A000F801E80FF11D87FDFA95CF01EE0FFF1F3D
:1017B000E80FF91FE95CF14F808160E08F73C3DDB2
:1017C000B9CF808191812881A801420F511D27FD49
:1017D0005A959A01FA01EE0FFF1FE20FF31FE95C21
:1017E000F14F21813281820F931FF7019183808312
:1017F00088819801280F311D87FD3A95F901EE0F78
:10180000FF1FE20FF31FE95CF14F808186FF21C0CB
:101810008881080F111D87FD1A95F801EE0FFF1F33
:10182000E00FF11FE95CF14F808161E08F73DF9180
:10183000CF911F910F91FF90EF90DF90CF90BF90CD
:10184000AF9081CD80E49CE9F701918380838FEF95
:101850008883DF91CF911F910F91FF90EF90DF90E0
:10186000CF90BF90AF9008950F931F93CF93DF93C6
:101870008B01EA01AB01415051094433510508F095
:10188000E9C02230310508F0E5C048E3429FF0018D
:10189000439FF00D1124E80FF91FE60FF71F81E0B9
:1018A00080836C2F232B09F4D2C061E0802F78DD78
:1018B000209749F460E0802F46DDCE01DF91CF9183
:1018C0001F910F910895CF3FD10511F461E0BFC082
:1018D000F801ED50FD4FE491E150E23108F0B2C063
:1018E000F0E08827E958F34F8F4F0C94615A890C28
:1018F000900C950C9F0CA90C220DB30CBB0CC30CC7
:10190000CD0CD70CE10CF00CFA0C220D040D0E0DD1
:10191000180D84B5806884BDC7BDD0E0C0E0CDCFD0
:1019200084B5806284BDC8BDF8CF80918000806896
:1019300080938000D0938900C0938800EECF80917F
:101940008000806280938000D0938B00C0938A00D7
:10195000E4CF80918000886080938000D0938D00D8
:10196000C0938C00DACF8091B00080688093B00083
:10197000C093B300D2CF8091B00080628093B0005A
:10198000C093B400CACF809190008068809390008B
:10199000D0939900C0939800C0CF8091900080624E
:1019A00080939000D0939B00C0939A00B6CF809113
:1019B0009000886080939000D0939D00C0939C001D
:1019C000ACCF8091A00080688093A0008091A0009F
:1019D0008F7B8093A000D093A900C093A8009DCFD7
:1019E0008091A00080628093A000D093AB00C09350
:1019F000AA0093CF8091A00088608093A000D0932C
:101A0000AD00C093AC0089CF8091200180688093A5
:101A10002001D0932901C09328017FCF809120011C
:101A2000806280932001D0932B01C0932A0175CF4F
:101A300080912001886080932001D0932D01C09374
:101A40002C016BCF60E0C038D1050CF03FCF802F68
:101A50007ADC63CFC1E0D0E030CFCF93DF93D0E02A
:101A6000C0E0CE011DDA882319F0CE010E94D0011A
:101A70002196C13ED105A9F7DF91CF910895CF936B
:101A8000DF93EC01888137DC21E0892B09F420E029
:101A90002C878C8130DC21E0892B09F420E02E8713
:101AA0008C8D9D8D0197D1F48A8125DC21E0892BD5
:101AB00009F420E02D878E811EDC21E0892B09F4BA
:101AC00020E02F879C858D85981729F08E85281713
:101AD00011F09A878B87DF91CF9108958C858A8743
:101AE0002B87F9CF0F93FC0192859087838581879F
:101AF000A48DB58D119721F4621721F0401711F0D4
:101B0000628743878385882381F0828591110FC086
:101B1000882359F080899189A289B3890197A10905
:101B2000B109808B918BA28BB38B0F91089581119A
:101B3000FCCF80899189A289B3890196A11DB11D2D
:101B4000F0CF4F925F926F927F928F929F92AF925F
:101B5000BF92CF92DF92EF92FF92CF93DF93EC018F
:101B60006C897D898E899F8988889988AA88BB8895
:101B7000CE8CDF8C0D2C000CEE08FF08603127E2C4
:101B800072078105910529F0161617061806190621
:101B9000ACF0A7019601C501B4010E94335ADF9150
:101BA000CF91FF90EF90DF90CF90BF90AF909F903C
:101BB0008F907F906F905F904F9008950E94A457F0
:101BC00020E030E44CE156E40E9492592B013C01A4
:101BD000488E598E6A8E7B8EC501B4010E94A4572F
:101BE000A30192010E9403584B015C01C701B60199
:101BF0000E94A4579B01AC01C501B4010E94035887
:101C00000E94FA59CCCFFC011182108213821282F9
:101C10001582148217821682108611861286138608
:101C20001486158616861786108A118A128A138AD8
:101C3000108E118E128E138E158E148E178E168E98
:101C400010A211A212A213A214A215A216A217A2E8
:101C500010A611A612A613A614A615A681E090E060
:101C600097A786A780E197E2A0E0B0E0848B958BF0
:101C7000A68BB78B08952F923F924F925F926F92EF
:101C80007F928F929F92AF92BF92CF92DF92EF920C
:101C9000FF920F931F93CF93DF9300D01F92CDB786
:101CA000DEB79C838B834B015A011901FA82E982CA
:101CB000FA01408051806280738020E030E0A90109
:101CC000C301B2010E942B5A181674F4F601208148
:101CD000318142815381C301B2010E942D59F50126
:101CE0006083718382839383F80140805180628096
:101CF0007380F401A68DB78D20893189428953897B
:101D00000E94F6586B017C01EB81FC81EC58FF4F7F
:101D10008081882309F440C0C414D504E604F70484
:101D20000CF440C0F801C082D182E282F3828B8140
:101D30009C81865B9F4F9C838B83FC01808191817A
:101D4000A281B381F10180839183A283B383E9816E
:101D5000FA8180819181892B41F0C401F2DEEB810F
:101D6000FC8160837183828393830F900F900F9027
:101D70000F90DF91CF911F910F91FF90EF90DF9027
:101D8000CF90BF90AF909F908F907F906F905F901B
:101D90004F903F902F9008954C145D046E047F0483
:101DA0000CF0C0CFF501408051806280738020E04C
:101DB00030E04AEF56E4C301B2010E949E5787FF0C
:101DC000B1CF20E030E040E85FE3C301B2010E9400
:101DD0002E59F5016083718382839383A3CF889A00
:101DE0000895889808958E9A08958E980895EBE046
:101DF000F1E08081886080830895EBE0F1E08081EC
:101E0000877F80830895149A08951498089560E058
:101E1000FC01838598CA60E0FC01858194CA61E079
:101E2000FC01838590CA61E0FC0185818CCACF9357
:101E3000DF93EC01FC01E358FF4F1082379781E0FC
:101E4000808360E08D817FDA8F859889892B29F0E6
:101E500060E08B85DF91CF9176CADF91CF910895B5
:101E6000CF93DF93EC018B8946DA2E892817190668
:101E700021F48F89DF91CF91089580E0FBCFCF933C
:101E8000DF93EC01898937DA2E892817190621F4A6
:101E90008F89DF91CF91089580E0FBCFCF93DF93BF
:101EA000EC018F8199AD61E0911101C060E04BDAE6
:101EB0008D859AAD992321F09BAD61E0911101C010
:101EC00060E0DF91CF913FCACF93DF93EC018F8128
:101ED00099AD60E0911101C061E035DA8D859AAD70
:101EE000992321F09BAD60E0911101C061E0DF9189
:101EF000CF9129CACF93DF93EC0161E0898523DA82
:101F00008AAD882319F061E08F851DDAC558DF4F4F
:101F10001882DF91CF910895CF93DF93EC01FC01FC
:101F2000EC58FC4F1082EE58F1098081811103C0FA
:101F3000CE014096DFDFFE01E951FD4F8081811126
:101F400004C0CE0182569F4FD5DFFE01E851FD4F00
:101F50008081811104C0CE01845D9E4FCBDF64E699
:101F600070E080E090E0DF91CF9186CACF93DF935D
:101F7000EC0160E08985E7D98AAD882319F060E03B
:101F80008F85E1D9C558DF4F81E08883DF91CF91FC
:101F90000895CF92DF92EF92FF920F931F93CF930A
:101FA000DF93FC01DC01AA5BBF4F4D935D936D9302
:101FB0007C93139714964D935D936D937C93139735
:101FC00014960D931D932D933C931397EC01CE5AC9
:101FD000DF4FE88262978881882351F090AD91119C
:101FE00050C037FF54C01D921D921D921C92139732
:101FF000EF01CF5BDF4F488159816A817B811416E5
:1020000015061606170644F524969881992321F1A2
:102010000D911D912D913C9113976801790137FF26
:1020200007C0CC24DD247601C01AD10AE20AF30AE3
:102030004C155D056E057F057CF437FF07C0709574
:102040006095509541955F4F6F4F7F4F4D935D93D6
:102050006D937C931397892FDF01A15ABF4F1D9277
:102060001D921D921C921397ED58FF4F91E09083A3
:10207000DF91CF911F910F91FF90EF90DF90CF9064
:10208000089510161106120613060CF4ACCF80E06A
:10209000AFCF0F931F93CF93DF93EC01062F8D8962
:1020A00081110DC0CE01EBDE182FCE01D9DE01115A
:1020B000182F812FDF91CF911F910F910895CE019D
:1020C000CFDE182FCE01DBDEF2CFCF93DF93EC0112
:1020D000FC01E159FF4F80819181A281B38101967A
:1020E000A11DB11D80839183A283B3833E9681E0BD
:1020F0008083AE01465B5F4FFA0180819181A281AE
:10210000B3819E012C583F4FF9012081222309F40D
:1021100040C00196A11DB11DFA0180839183A28365
:10212000B383FE01E058FF4F20813181C9019595AD
:1021300087958C0F9D1F32970190F081E02D20FF35
:1021400008C0DC012D913C91E20FF31F0190F0815A
:10215000E02D19958F859889892BF9F0FE01EC57B0
:10216000FF4F20813181C901959587958C0F9D1F67
:10217000CE57DF4FE881F98120FF08C0DC012D91A7
:102180003C91E20FF31F0190F081E02DDF91CF91A0
:1021900019940197A109B109BFCFDF91CF9108959B
:1021A0008F929F92AF92BF92CF92DF92EF92FF9267
:1021B0000F931F93CF93DF93EC01FC01E15AFF4F84
:1021C00060817181828193810E94A2576B017C01A1
:1021D0006CAD7DAD8EAD9FAD0E94A4579B01AC014F
:1021E00060E074E284E799E40E9492594B015C013B
:1021F000FE01E559FF4F60817181828193810E94C8
:10220000A2579B01AC01C501B4010E9492594B0138
:102210005C018E010D591F4F20E030E040E05FE38C
:102220000E940358A70196010E942E590E94FF594F
:10223000F8016083718382839383C959DF4FA501BD
:102240009401C701B6010E942E590E94FF5968836C
:1022500079838A839B83DF91CF911F910F91FF90A8
:10226000EF90DF90CF90BF90AF909F908F900895A8
:102270000F931F93CF93DF93FC01E358FF4F20810F
:102280002223B9F07E970081118122813381389613
:102290004081518162817381041715072607370732
:1022A00010F1EC01C4DDCE01DF91CF911F910F91B0
:1022B00077CFFC01ED58FF4F20812223A1F07497C6
:1022C0000081118122813381349640815181628164
:1022D0007381041715072607370728F0DF91CF9180
:1022E0001F910F91F2CEDF91CF911F910F91089521
:1022F000FC01ED58FF4F2081222361F0749780810B
:102300009181A281B3810196A11DB11D808391832A
:10231000A283B38308950F931F93FC01EE5AFF4FDE
:102320002081211112C038970081118122813381CF
:102330003496408151816281738104171507260705
:1023400037073CF41F910F91BFCDFC0120AD211147
:10235000F9CF1F910F91A2CDFC011382128214823A
:102360008CE291E0A0E0B0E0808F918FA28FB38FDC
:10237000848F958FA68FB78F42E350E060E070E0C6
:1023800040A351A362A373A344A355A366A377A359
:1023900040A751A762A773A784A795A7A6A7B7A729
:1023A00080AB91ABA2ABB3AB88E790E0A0E0B0E02C
:1023B00084AB95ABA6ABB7AB10AE11AE12AE13AEFD
:1023C00084E690E0A0E0B0E084AF95AFA6AFB7AFF1
:1023D000DF01A05CBF4F1C9211961D921D921D92B1
:1023E0001C92139714961C9211961D921D921D9289
:1023F0001C92139714961D921D921D921C92139776
:1024000014961D921D921D921C92139714961C9265
:1024100011961D921D921D921C92139714961D9257
:102420001D921D921C92139714961D921D921D923F
:102430001C92139714961D921D921D921C92139735
:1024400014961D921D921D921C92139714961D9224
:102450001D921D921C92139714961D921D921D920F
:102460001C92139714961D921D921D921C92139705
:1024700014961C9211961C9211961C9211961C9205
:1024800011961C9211961C9211961C9211961C92F8
:1024900011961C9211961C9211961C92168215820E
:1024A0001086178212861186148613861686158664
:1024B000108A1786128A118A148A138A119683E168
:1024C0009FE011969C938E93129611961C921E92E9
:1024D00012968FE09FE011969C938E931296119620
:1024E0001C921E9212968BE09FE011969C938E9305
:1024F000129611961C921E92129687E09FE08D9381
:102500009C93E457FF4F11821082089508958FEF36
:102510009FEF0895089508950895089508950895E2
:1025200008950895089508950895089508950895C3
:10253000089508950895089508950895089580913F
:10254000FF0890910009892B41F481E090E00E94FE
:102550002552909300098093FF088091FF08909185
:10256000000908950F931F93CF93DF938B01E7DF4B
:10257000F801C2A1D3A1868D978D8530910519F1FF
:102580004CF40497A9F090E080E0DF91CF911F9187
:102590000F91089586309105F9F00B97A1F76BE044
:1025A00070E081ED9EE021D8BE0181ED9EE008C083
:1025B00064E070E088EC9EE018D8BE0188EC9EE0F4
:1025C0000E94790AE0CF65E070E08BEC9EE00DD8C8
:1025D000BE018BEC9EE0F4CF66E070E08EEC9EE0F6
:1025E00004D8BE018EEC9EE0EBCF8091FB08909169
:1025F000FC08892B91F480E790E00E942552FC01B1
:1026000031969C012B5C3F4F119217AAE217F307FA
:10261000D9F79093FC088093FB088091FB08909178
:10262000FC0808954F925F926F927F92AF92BF9293
:10263000CF92DF92EF92FF920F931F93CF93DF938E
:10264000EB01D3DF8C01CAA8DBA84EA45FA468A865
:1026500079A8AEA0BFA0EE8CFF8C4AA15BA1960129
:10266000B70102D9C301B2010E943C0A9601A5013B
:10267000B701C801F9D890E080E0DF91CF911F91B8
:102680000F91FF90EF90DF90CF90BF90AF907F9031
:102690006F905F904F900895CF93DF93EB01A5DF8C
:1026A0006AA98E8D0E94D00990E080E0DF91CF91E1
:1026B0000895CF93DF93EB0198DF2AA93BA94AA1A4
:1026C0005BA16E8D7F8DD0D890E080E0DF91CF91BF
:1026D00008958091F4089091F508892BE1F585E340
:1026E00090E00E942552FC0181E090E0A0E0B0E083
:1026F00080839183A283B38384839583A683B783E6
:1027000080879187A287B3871586148616861786D9
:10271000108A118A128A138A148A158A168A178ACD
:10272000108E118E138E128E12A213A214A215A255
:1027300017A216A210A611A612A613A614A615A6D5
:1027400016A617A610AA11AA12AA13AA14AAF093E1
:10275000F508E093F4088091F4089091F508089545
:10276000CF93DF93B6DFEC0183E00E947B0921E089
:10277000892B09F420E02C8FACDFEC0182E00E9471
:102780007B0921E0892B09F420E02D8FA2DFEC01E9
:102790008EE00E947B0921E0892B09F420E02E8F36
:1027A00098DFEC018FE00E947B0921E0892B09F47E
:1027B00020E02F8F8EDFEC0182E10E947B0921E077
:1027C000892B09F420E028A384DFEC0183E10E9437
:1027D0007B0921E0892B09F420E029A3DF91CF9127
:1027E000089577DFBDCF75DFFC0114AA90E080E08B
:1027F0000895FC0101900020E9F73197AF01481BD3
:10280000590BBC018AE99DE00C94E0078F929F92DE
:10281000AF92BF920F931F93CF93DF93CDB7DEB7E5
:10282000A1970FB6F894DEBF0FBECDBF19A24230FC
:1028300008F44AE08E010F5D1F4F842E912CB12CBD
:10284000A12CA50194010E94FC58E62FB901CA01F0
:10285000EA30ECF4E05DD801EE938D01232B242BBC
:10286000252B79F790E080E0109711F0CD01C1DFC2
:10287000A1960FB6F894DEBF0FBECDBFDF91CF910A
:102880001F910F91BF90AF909F908F900895E95C3A
:10289000E2CFAFCF882319F08DE498E0FACF86E439
:1028A00098E0FCCFFC0180819181009711F00C949D
:1028B000C15208950C94C1520C94C1520C94C1524F
:1028C0000C94C1520C94C1520C94C1520C94C1523C
:1028D0000C94C1520C94C1520C94C1520C94C1522C
:1028E0000C94C1520C94C1520C94C1520C94C1521C
:1028F0000C94C1520C94C1520C94C1520C94C1520C
:102900000C94C1520C94C1520C94C1520C94C152FB
:10291000CF92DF92EF92FF92CF93DF9397FF18C091
:102920006B017C018DE20E94C108EC0166277727CC
:10293000CB016C197D098E099F094AE067DF8C0F76
:102940009D1FDF91CF91FF90EF90DF90CF90089582
:102950004AE0DF91CF91FF90EF90DF90CF9056CF7C
:10296000BC01990F880B990BD3CFCF93DF93EC0168
:1029700082EA93E08EDF6AA17BA18CA19DA1C8DFD2
:1029800087E994E0DF91CF9184CF0F931F93CF938A
:10299000DF938C01EB0184E893E07BDF83E397E036
:1029A00078DFF80180810E94C108CE01D9DF91DE75
:1029B000DF91CF911F910F91D8CFEF92FF920F939C
:1029C0001F93CF93DF93182F092F7B01611571059A
:1029D00069F50E947B0931E020E0019709F030E0C1
:1029E000C32FD22F82E0E816F10408F045C085EA33
:1029F00093E04FDF83E397E04CDF89EA93E049DF20
:102A0000812F902FADDF83E397E043DF82EF98E0E3
:102A100040DFCE01A5DF5DDEA8DF90E080E0DF9142
:102A2000CF911F910F91FF90EF900895D0E0C0E0FB
:102A300061307105B9F6812F163310F08AEC810FE1
:102A400020917B00982F9870277F922B90937B008A
:102A50008770806480937C0080917A00806480938A
:102A60007A0080917A0086FDFCCF80917800C09139
:102A70007900DC2FC82FB6CF81E090E0D0CF0F9344
:102A80001F93CF93DF93FC01208131812115310504
:102A9000C1F1EC01822F0E947B0921E0892B09F40E
:102AA00020E02B876A85261701F11E821F82188677
:102AB00019860E811F81288539858A819B81AC8189
:102AC000BD81081719072A073B07DCF081E068275A
:102AD00088810E94A30989DD70E060E08881998186
:102AE000DF91CF911F910F9168CF8E819F81A88533
:102AF000B9850196A11DB11D8E839F83A887B987D3
:102B0000D8CFDF91CF911F910F910895CF93DF938D
:102B1000EB016BDD6AA97BA98E8D9F8D4EDF90E066
:102B200080E0DF91CF910895CF92DF92EF92FF92F4
:102B3000CF93DF93EB01CB010E945007882351F123
:102B4000FE01EE0FFF1FEE0FFF1FEA5EF54FC08084
:102B5000D180E280F3808BEA93E09BDE83E397E011
:102B600098DE89EA93E095DECE01FADE83E397E012
:102B700090DE82EF98E08DDEC701B601C9DEA9DDE7
:102B8000F4DE90E080E0DF91CF91FF90EF90DF9056
:102B9000CF9008958FEA93E07CDEF3CF0F931F93DD
:102BA000CF93DF938C01D0E0C0E0CE010E945007AC
:102BB000882319F0BE01C801B7DF2196C13ED105B7
:102BC000A1F7DF91CF911F910F91089581ED93E0CF
:102BD00060DE84E392E05DDE88E092E05ADE86ED1E
:102BE00093E057DE76DDC1DE90E080E00895CF937C
:102BF000DF93EC0180EE93E04CDE84EE93E049DE5F
:102C00008C8D48DE88EE93E044DE8D8D43DE8CEEC5
:102C100093E03FDE8E8D3EDE80EF93E03ADE8F8DD7
:102C200039DE84EF93E035DE88A134DE88EF93E06F
:102C300030DE89A12FDECE01DF91CF9196CE49DD26
:102C4000D6CF8CEF93E025DE44DD8ADD42DDCFDF99
:102C5000CCDC70E060E088E090E0AFDEC6DC70E0E5
:102C600060E089E090E0A9DEC0DC70E060E08AE02E
:102C700090E0A3DEBADC70E060E08DE090E09DDEE5
:102C800090E080E008952F923F924F925F926F9272
:102C90007F928F929F92AF92BF92CF92DF92EF92EC
:102CA000FF920F931F93CF93DF9300D000D01F921A
:102CB0001F92CDB7DEB71C01FC01E958FF4F10820F
:102CC0003196108287589F4FFC011082D101A6587F
:102CD000BF4F1C923396108226013701441A550AC1
:102CE000660A770A49825A826B827C8277FE0CC020
:102CF0007094609450944094411C511C611C711C50
:102D000049825A826B827C824C155D056E057F0577
:102D100034F568017901C41AD50AE60AF70A498030
:102D20005A806B807C8075946794579447944D8249
:102D30005E826F827886810104581F4F49805A80D5
:102D40006B807C804C145D046E047F0488F4F10178
:102D500060A471A481E08C93F801808327C0B9013D
:102D6000A8014C195D096E097F096A017B01D7CF63
:102D70004D805E806F8078844C145D046E047F0407
:102D800008F4C6C04AA05BA06CA07DA04C145D04F2
:102D90006E047F040CF083C06E8C7F8C2FEF621A60
:102DA000720A21E0FC012083F8012083F101848173
:102DB000882309F45AC00E946D0AF101028113812F
:102DC000012E000C220B330B601B710B820B930B3B
:102DD000693E73408105910508F447C00E946D0A61
:102DE000F1017383628383E094E053DD87E094E034
:102DF00050DD60E070E0CB018BDD8DE094E049DDDB
:102E0000C701B60185DD83E194E043DD69817A8104
:102E10008B819C817DDD89E194E03BDD4AE06D8121
:102E20007E818F819885F2DC80E294E032DD6AA1B8
:102E30007BA18CA19DA16CDD86E294E02ADDC50119
:102E4000B40166DD8CE294E024DD6E8D7F8D88A177
:102E500099A15EDD82E394E01CDD83E397E019DD58
:102E6000C3017EDD87E994E014DDC30128960FB627
:102E7000F894DEBF0FBECDBFDF91CF911F910F91B0
:102E8000FF90EF90DF90CF90BF90AF909F908F908A
:102E90007F906F905F904F903F902F900895C70163
:102EA000B6010E94A4572B013C016AA17BA18CA111
:102EB0009DA10E94A4579B01AC01C301B2010E94D5
:102EC00092592B013C016E8D7F8D88A199A16819C3
:102ED00079098A099B090E94A4579B01AC01C3018F
:102EE000B2010E9403582B013C01C501B4010E94AC
:102EF000A4579B01AC01C301B2010E942E590E944C
:102F0000FA593B0181E0F101E958FF4F808324CF5A
:102F100089819A81AB81BC814AA05BA06CA07DA015
:102F200084199509A609B709C816D906EA06FB0649
:102F300054F46E8C7F8C22E0620E711C81E0F101F2
:102F4000E758FF4FE3CF69817A818B819C816C19AF
:102F50007D098E099F090E94A4572B013C016AA19B
:102F60007BA18CA19DA10E94A4579B01AC01C30130
:102F7000B2010E9492592B013C016E8D7F8D88A178
:102F800099A1681979098A099B090E94A4579B0194
:102F9000AC01C301B2010E9403582B013C01C501E1
:102FA000B4010E94A4579B01AC01C301B2010E946D
:102FB0002E590E94FA593B0181E0F101E858FF4F78
:102FC000A5CF2F923F924F925F926F927F928F92F6
:102FD0009F92AF92BF92CF92DF92EF92FF920F93A8
:102FE0001F93CF93DF9300D01F92CDB7DEB79C83A2
:102FF0008B83865B9F4F9A838983DC014D915D9122
:103000006D917C910B811C81025B1F4FF8018081C7
:103010009181A281B381CB80DC80F2E5CF0ED11CFF
:10302000F601F0802B813C812C583F4F5901EB81F8
:10303000FC81EB58FF4F3F01FF2009F441C0EB81B9
:10304000FC8120ADF501208321E0F30120834115AF
:10305000510561057105A1F42081EB81FC81E559E1
:10306000FF4F7F01EB81FC81222309F451C084A032
:1030700095A0A6A0B7A0F70180829182A282B38218
:103080008B809C80F6E48F0E911CF40120803180AF
:10309000428053802B813C812D583F4F5901281687
:1030A00039064A065B06CCF5481759076A077B07BD
:1030B000F4F1D6018C9181113AC0D5011C92C9C09E
:1030C00021E0481759076A077B070CF020E0F5015B
:1030D00020831A012B0177FF07C02224332421010A
:1030E000241A350A460A570A4C015D01B7FF07C08A
:1030F000882499245401881A990AAA0ABB0A21E053
:10310000281439044A045B040CF09FCF20E09DCFC3
:1031100080A091A0A2A0B3A0AECF82159305A40574
:10312000B5053CF684179507A607B70714F6F50111
:103130008081882311F2D6018C9181110FC0F60194
:1031400080818111BACFD3016C9181E068278B8196
:103150009C810E9449108111B0CF07C060E08B8133
:103160009C810E9449108111EACFD801CD90DD9059
:10317000ED90FC90E981FA810081118122813381F7
:10318000D4014D915D916D917C91D301EC918B8136
:103190009C8185599F4F3C01E11127C0AB81BC81C7
:1031A00090968D909D90AD90BC9093979F96EC914A
:1031B0009F97EF939E96EC919E97EF939D96EC913F
:1031C0009D97EF939C96EC919C97EF935B96EC9177
:1031D0005B97EF935A96EC915A97EF935996EC912F
:1031E0005997EF935896EC9124C0EB81FC8184A011
:1031F00095A0A6A0B7A0E3A9EF93AB81BC81D2961E
:10320000EC91D297EF93D196EC91D197EF93D09622
:10321000EC91D097EF935F96EC915F97EF935E966A
:10322000EC915E97EF935D96EC915D97EF935C96D2
:10323000EC91EF938B819C8126DDB0E0A0E0F3015F
:1032400080839183A283B3830FB6F894DEBF0FBE51
:10325000CDBF60E08B819C810E944910882331F0B2
:10326000E981FA8110821182128213820F900F90ED
:103270000F900F90DF91CF911F910F91FF90EF90E2
:10328000DF90CF90BF90AF909F908F907F906F9086
:103290005F904F903F902F9008954F925F926F9262
:1032A0007F928F929F92AF92BF92CF92DF92EF92D6
:1032B000FF920F931F93CF936B017C01742EAC018F
:1032C0009B010E942F5A882391F088E394E0CF91CC
:1032D0001F910F91FF90EF90DF90CF90BF90AF9034
:1032E0009F908F907F906F905F904F9082CA460121
:1032F0005701E894B7F82FEF3FEF4FE75FE7C501BD
:10330000B4010E942F5A81110DC02FEF3FEF4FE7FC
:103310005FE7C501B4010E949E5718161CF48CE3A8
:1033200094E0D5CF2FEF3FEF4FE75FE4C701B60141
:103330000E942B5A18161CF480E494E0C8CF2FEF9B
:103340003FEF4FE75FECC701B6010E949E5787FD34
:10335000F3CF20E030E0A901C701B6010E949E57DB
:1033600010E000E087FF08C08DE20E94C1088C01D8
:10337000F7FAF094F7F8F094C0E060E070E080E0D5
:103380009FE37C1641F020E030E040E251E40E94EF
:103390009259CF5FF6CFA70196010E942E592B01BB
:1033A0003C010E94FF594B015C014AE02FDA7C018D
:1033B000E00EF11ECC23A9F1C501B4010E94A25771
:1033C0009B01AC01C301B2010E942D594B015C016C
:1033D0008EE20E94C108E80EF91EC15010F120E0F3
:1033E00030E040E251E4C501B4010E9403582B01D2
:1033F0003C010E94FF594B01B12CA12C4AE0C501B0
:10340000B40104DAE80EF91EC501B4010E94A25706
:103410009B01AC01C301B2010E942D594B015C011B
:10342000DCCFC701CF911F910F91FF90EF90DF90FC
:10343000CF90BF90AF909F908F907F906F905F9054
:103440004F9008958F929F92AF92BF92CF92DF924A
:10345000EF92FF920F931F93CF93DF93EC0180E4E1
:1034600092E017DA89E594E014DA6E0186E4C81A6E
:103470008EEFD80AC6010E94A10D0E94A4574B01ED
:103480005C01FE01E95FFC4F608171818281938163
:103490000E94A4579B01AC01C501B4010E9492593E
:1034A00042E0FBDE89E694E0F4D97E01E6E1EE1A23
:1034B000EEEFFE0AC7010E94A10D0E94A4574B0126
:1034C0005C01FE01E55FFC4F608171818281938127
:1034D0000E94A4579B01AC01C501B4010E949259FE
:1034E00042E0DBDE89E794E0D4D98E01065E1D4F11
:1034F000C8010E94A10D0E94A4574B015C01C15F4D
:10350000DC4F688179818A819B810E94A4579B014D
:10351000AC01C501B4010E94925942E0BEDED9D887
:1035200024DA8CE392E0B5D989E594E0B2D9F601CA
:10353000A68DB78D20893189428953890E94F6581A
:10354000E7D989E694E0A5D9F701A68DB78D208942
:103550003189428953890E94F658DAD989E794E083
:1035600098D9F801A68DB78D208931894289538970
:103570000E94F658CDD9ADD8DF91CF911F910F9110
:10358000FF90EF90DF90CF90BF90AF909F908F9083
:10359000ECC9CF92DF92EF92FF92CF93DF93EC01D1
:1035A00088819981AA81BB81181619061A061B0603
:1035B00044F081E090E0A0E0B0E088839983AA83A2
:1035C000BB838C819D81AE81BF81181619061A06B6
:1035D0001B0644F081E090E0A0E0B0E08C839D8386
:1035E000AE83BF8388859985AA85BB851816190681
:1035F0001A061B0644F081E090E0A0E0B0E0888766
:103600009987AA87BB8784E494E043D989E594E04D
:1036100040D96E857F85888999890E94A4576B015E
:103620007C01688179818A819B810E94A4579B01DA
:10363000AC01C701B6010E94925942E02EDE89E634
:1036400094E027D96A897B898C899D890E94A45737
:103650006B017C016C817D818E819F810E94A457CA
:103660009B01AC01C701B6010E94925942E015DEF0
:1036700089E794E00ED96E897F89888D998D0E94A3
:10368000A4576B017C01688579858A859B850E949A
:10369000A4579B01AC01C701B6010E94925942E0B8
:1036A000FCDDCE01DF91CF91FF90EF90DF90CF90C6
:1036B0005CC90FD86EDF90E080E00895CF92DF9272
:1036C000EF92FF920F931F93CF93DF938C016A01C8
:1036D0007B01EC01CC0FDD1F642FCE010E94C2588C
:1036E0009927F7FC9A958F2D7E2D6D2DCE01019691
:1036F0000E94C2580D5811090330110588F4B70112
:10370000992777FD9095892FCE0144960E94C25843
:103710006F2D772788279927CE0145960E94C2589A
:1037200090E080E0DF91CF911F910F91FF90EF909B
:10373000DF90CF9008954F925F926F927F928F9219
:103740009F92AF92BF92CF92DF92EF92FF920F9330
:103750001F93CF93DF938C01EC01CC0FDD1FCE01C3
:103760000E94BA58882E912CB12CA12CCE01019622
:103770000E94BA58C82ED12CF12CE12C0D581109F9
:103780000330110508F05AC0CE0144960E94BA5881
:10379000482E512C712C612CCE0145960E94BA58AE
:1037A000082F10E030E020E08FEF4816510461044C
:1037B000710429F50F3F11052105310501F58FEF42
:1037C00088169104A104B104C9F58FEFC816D1047D
:1037D000E104F10499F56FEF7FEFCB01DF91CF9119
:1037E0001F910F91FF90EF90DF90CF90BF90AF901F
:1037F0009F908F907F906F905F904F9008950038CA
:103800001105210531053CF7FE2CED2CDC2CCC24D8
:10381000C701B601680D791D8A1D9B1D3201552413
:103820004424640D751D861D971D302F22271127F6
:103830000027600F711F821F931FD0CF00E010E0A0
:103840009801412C512C320180E8C816D104E104C2
:10385000F104D4F2C0CFEF92FF920F931F93CF9356
:10386000DF938091F9089091FA08892B51F586E051
:1038700090E00E9425527C0190E080E05CDF16160B
:10388000170654F1C7010E942D0DD0E0C0E0CE0113
:103890000E945007882369F0FE01EE0FFF1FEE0F14
:1038A000FF1FEA5EF54F4081518162817381CE0135
:1038B00005DF2196C639D10551F7F092FA08E0925A
:1038C000F9088091F9089091FA08DF91CF911F9142
:1038D0000F91FF90EF90089583E090E02CDF61302E
:1038E00071058105910531F506E11AE0D0E0C0E0EF
:1038F000CE010E9450078823B1F0CE011CDFF801F1
:1039000060837183828393836F3F7F4F8F4F9F4F7D
:1039100051F4CE010E94D001F801408151816281B1
:103920007381CE01CBDE21960C5F1F4FC13ED105C6
:10393000F9F6C3CFC7010E942D0DBFCFCF92DF9202
:10394000EF92FF920F931F93CF93DF937C016B0154
:103950008A01E90180DFF601EE0FFF1FEE0FFF1F66
:10396000EA5EF54F80819181F7019183808373DF57
:10397000000F111F000F111FF801EA5EF54F81E0E3
:10398000408151816281738141305105610571052A
:1039900009F080E0F70182875EDFCC0FDD1FCC0FDE
:1039A000DD1FCA5ED54F88819981AA81BB81F7014D
:1039B00082839383A483B58316821782108611862F
:1039C000DF91CF911F910F91FF90EF90DF90CF90FB
:1039D0000895CF93DF93EC012AEC30E04BEC50E0FC
:1039E00069EC70E0ABDF2EEC30E04FEC50E06DECBA
:1039F00070E0CE010C96A2DF24ED30E045ED50E002
:103A000063ED70E0CE01489699DF28ED30E049ED96
:103A100050E067ED70E0CE01849690DF2EED30E04F
:103A20004FED50E06DED70E0CE01C096DF91CF918B
:103A300085CFCF93DF938091FD089091FE08892B6D
:103A4000A1F48CE390E00E942552EC0119821882C7
:103A50001D861C86198E188E1DA21CA219AA18AAD2
:103A6000B8DFD093FE08C093FD088091FD089091C7
:103A7000FE08DF91CF9108952F923F924F925F926F
:103A80006F927F928F929F92AF92BF92CF92DF926E
:103A9000EF92FF920F931F93CF93DF93EC01DBDE46
:103AA000FE01E35CFC4F8091D20B9091D30B91838C
:103AB0008083D1DEFE01E15CFC4F8091D60B9091BA
:103AC000D70B91838083C7DEFE01EF5BFC4F8091B3
:103AD000DA0B9091DB0B91838083BDDE8E010D5B51
:103AE0001C4F6091FA0B7091FB0B8091FC0B909135
:103AF000FD0B0E94A457F801608371838283938336
:103B0000AADE1E01F9EB2F1AFCEF3F0A6091FE0BB3
:103B10007091FF0B8091000C9091010C0E94A457B2
:103B2000F101608371838283938395DE20E030E02E
:103B300048EC52E4F80160817181828193810E9496
:103B400092592B013C0120E030E048EC52E4F101B5
:103B500060817181828193810E9492594B015C0145
:103B60006091020C7091030C8091040C9091050CF3
:103B70000E94A45720E030E048EC52E40E949259A1
:103B80006B017C012AE037ED43E25CE3C301B20143
:103B90000E942B5A18160CF02BC120E030E046ECA6
:103BA00052E4C301B2010E949E5787FD06C0412C1A
:103BB000512C56EC652E52E4752EF801408251824C
:103BC000628273822AE037ED43E25CE3C501B4010F
:103BD0000E942B5A18160CF014C120E030E046EC7D
:103BE00052E4C501B4010E949E5787FD06C0812C96
:103BF000912C36ECA32E32E4B32EF1018082918217
:103C0000A282B3822AE037ED43E25CE3C701B6014A
:103C10000E942B5A18160CF0FDC020E030E046EC54
:103C200052E4C701B6010E949E5787FD06C0C12C11
:103C3000D12C96ECE92E92E4F92EFE01E55BFC4FC7
:103C4000C082D182E282F38206DE8091BA0B90912B
:103C5000BB0BFE01EE5AFC4F91838083FCDD80910B
:103C6000BE0B9091BF0BFE01EC5AFC4F91838083F9
:103C7000F2DD8091C20B9091C30BFE01EA5AFC4F1A
:103C800091838083E8DD8091E20B9091E30BA0911A
:103C9000E40BB091E50BFE01E85AFC4F8083918361
:103CA000A283B383D8DD8091E60B9091E70BA091BE
:103CB000E80BB091E90BFE01E45AFC4F808391833D
:103CC000A283B383C8DD8091EA0B9091EB0BA091A6
:103CD000EC0BB091ED0BFE01E05AFC4F8083918319
:103CE000A283B383B8DD80910A0C90910B0CFE0186
:103CF000EC59FC4F91838083AEDD80910E0C909146
:103D00000F0CFE01EA59FC4F91838083A4DD809162
:103D1000120C9091130CFE01E859FC4F91838083A3
:103D20009ADD8091220C9091230CFE01E659FC4F04
:103D30009183808390DD8091260C9091270CFE0169
:103D4000E459FC4F9183808386DD80912A0C909109
:103D50002B0CFE01E259FC4F918380837CDD809126
:103D6000AA0B9091AB0BA091AC0BB091AD0BFE01E7
:103D7000E15BFC4F0197A105B10509F054C081E05A
:103D8000808369DD8091AE0B9091AF0BA091B00B59
:103D9000B091B10BFE01E05BFC4F0197A105B105AD
:103DA00009F043C081E0808356DD8091B20B909191
:103DB000B30BA091B40BB091B50BCF5ADC4F019768
:103DC000A105B105A1F581E08883DF91CF911F9115
:103DD0000F91FF90EF90DF90CF90BF90AF909F90AA
:103DE0008F907F906F905F904F903F902F900895AD
:103DF0004AE0442E47ED542E43E2642E4CE3742EE9
:103E0000DCCE2AE0822E27ED922E23E2A22E2CE396
:103E1000B22EF3CE8AE0C82E87EDD82E83E2E82EAC
:103E20008CE3F82E0ACF1082ACCF1082BDCF18825F
:103E3000CCCF2F923F924F925F926F927F928F9250
:103E40009F92AF92BF92CF92DF92EF92FF920F9329
:103E50001F93CF93DF93CDB7DEB76F970FB6F8946C
:103E6000DEBF0FBECDBF9B8F8A8FF5DCEA8DFB8D49
:103E7000EB59FD4F81E04091E20A5091E30A6091D5
:103E8000E40A7091E50A452B462B472B09F480E0A4
:103E90008083E1DCEA8DFB8DEA59FD4F81E04091A2
:103EA000E60A5091E70A6091E80A7091E90A452B09
:103EB000462B472B09F480E08083CDDCEA8DFB8D17
:103EC000E959FD4F81E04091EA0A5091EB0A609177
:103ED000EC0A7091ED0A452B462B472B09F480E044
:103EE0008083B9DC8091320B9091330BA091340B1D
:103EF000B091350BEA8DFB8DE859FD4F808391839E
:103F0000A283B383A8DC8091360B9091370BA091EC
:103F1000380BB091390BEA8DFB8DE459FD4F80834E
:103F20009183A283B38397DC80913A0B90913B0BF2
:103F3000A0913C0BB0913D0BEA8DFB8DE059FD4FFC
:103F400080839183A283B38386DC8091320B90912E
:103F5000330BA091340BB091350BEA8DFB8DEC58EF
:103F6000FD4F80839183A283B38375DC8091360BF0
:103F70009091370BA091380BB091390BEA8DFB8DE6
:103F8000E858FD4F80839183A283B38364DC8091E2
:103F90003E0B90913F0BA091400BB091410BEA8DED
:103FA000FB8DE458FD4F80839183A283B38353DC60
:103FB00080910A0B90910B0BA0910C0BB0910D0B03
:103FC000EA8DFB8DE457FD4F80839183A283B383F9
:103FD00042DC80910E0B90910F0BA091100BB091D1
:103FE000110BEA8DFB8DE057FD4F80839183A283F7
:103FF000B38331DC8091120B9091130BA091140BC1
:10400000B091150BEA8DFB8DEC56FD4F80839183AB
:10401000A283B38320DC80910A0B90910B0BA091BB
:104020000C0BB0910D0BEA8DFB8DE856FD4F808394
:104030009183A283B3830FDC80910E0B90910F0BC1
:10404000A091100BB091110BEA8DFB8DE456FD4F42
:1040500080839183A283B383FEDB8091160B9091C2
:10406000170BA091180BB091190BEA8DFB8DE05640
:10407000FD4F80839183A283B383EDDB80911A0B84
:1040800090911B0BA0911C0BB0911D0BEA8DFB8D29
:10409000EC55FD4F80839183A283B383DCDB809159
:1040A0001E0B90911F0BA091200BB091210BEA8D5C
:1040B000FB8DE855FD4F80839183A283B383CBDBD7
:1040C0008091220B9091230BA091240BB091250B92
:1040D000EA8DFB8DE455FD4F80839183A283B383EA
:1040E000BADB8091BA0A9091BB0AA091BC0AB09148
:1040F000BD0AEA8DFB8DE055FD4F80839183A2833D
:10410000B383A9DB8091BE0A9091BF0AA091C00A37
:10411000B091C10AEA8DFB8DEC54FD4F80839183F1
:10412000A283B38398DB8091C20A9091C30AA091C5
:10413000C40AB091C50AEA8DFB8DE854FD4F808317
:104140009183A283B38387DB8091BA0A9091BB0AE3
:10415000A091BC0AB091BD0AEA8DFB8DE454FD4FDD
:1041600080839183A283B38376DB8091BE0A909192
:10417000BF0AA091C00AB091C10AEA8DFB8DE0543C
:10418000FD4F80839183A283B38365DB8091C60A50
:104190009091C70AA091C80AB091C90AEA8DFB8D17
:1041A000EC53FD4F80839183A283B38354DBEA8D6C
:1041B000FB8DE853FD4F81E02091920A3091930AE4
:1041C0002130310509F080E0808345DBEA8DFB8DED
:1041D000E753FD4F81E02091960A3091970A2130F4
:1041E000310509F080E0808336DBEA8DFB8DE653F4
:1041F000FD4F81E020919A0A30919B0A21303105D0
:1042000009F080E0808327DBEA8DFB8DEE50FD4FC7
:1042100081E040916A0A50916B0A60916C0A70913A
:104220006D0A452B462B472B09F480E0808313DB76
:10423000EA8DFB8DED50FD4F81E040916E0A50916B
:104240006F0A6091700A7091710A452B462B472BBB
:1042500009F480E08083FFDAEA8DFB8DEC50FD4F9E
:1042600081E04091720A5091730A6091740A7091D2
:10427000750A452B462B472B09F480E08083EBDA47
:10428000EA8DFB8DEB50FD4F81E04091420B509148
:10429000430B6091440B7091450B452B462B472BEC
:1042A00009F480E08083D7DAEA8DFB8DEA50FD4F78
:1042B00081E04091460B5091470B6091480B709103
:1042C000490B452B462B472B09F480E08083C3DA4A
:1042D000EA8DFB8DE950FD4F81E040914A0B5091F2
:1042E0004B0B60914C0B70914D0B452B462B472B84
:1042F00009F480E08083AFDAEA8DFB8DE850FD4F52
:1043000081E020917A0A30917B0A2130310509F051
:1043100080E08083A0DAEA8DFB8DE750FD4F81E0DD
:1043200020917E0A30917F0A2130310509F080E02A
:10433000808391DAEA8DFB8DE650FD4F81E020917C
:10434000820A3091830A2130310509F080E08083B0
:1043500082DA8091420A9091430AA091440AB09176
:10436000450AEA8DFB8DE550FD4F80839183A28342
:10437000B38371DA8091460A9091470AA091480A66
:10438000B091490AEA8DFB8DE150FD4F8083918306
:10439000A283B38360DA80914A0A90914B0AA0917C
:1043A0004C0AB0914D0AEA8DFB8DED5FFC4F808386
:1043B0009183A283B3834FDAEA8DFB8DEA51FD4FDF
:1043C00081E04091520A5091530A6091540A7091D1
:1043D000550A452B462B472B09F480E080833BDAB6
:1043E000EA8DFB8DE951FD4F81E04091560A5091D5
:1043F000570A6091580A7091590A452B462B472B52
:1044000009F480E0808327DAEA8DFB8DE851FD4FC7
:1044100081E040915A0A50915B0A60915C0A709168
:104420005D0A452B462B472B09F480E0808313DA85
:1044300080914A0C90914B0CA0914C0CB0914D0C7A
:10444000EA8DFB8DE553FD4F80839183A283B38377
:1044500002DA80914E0C90914F0CA091500CB091CB
:10446000510CEA8DFB8DE153FD4F80839183A28334
:10447000B383F1D98091520C9091530CA091540CBC
:10448000B091550CEA8DFB8DED52FD4F80839183E9
:10449000A283B383E0D9EA8DFB8DE751FD4F81E024
:1044A0002091AA0A3091AB0A2130310509F080E051
:1044B0008083EA8DFB8DE651FD4F1082EA8DFB8DE6
:1044C000E551FD4F1082C7D9EA8DFB8DE451FD4FB8
:1044D00081E02091A60A3091A70A2130310509F028
:1044E00080E08083EA8DFB8DE351FD4F1082EA8DE1
:1044F000FB8DE251FD4F1082AED9EA8DFB8DE1516B
:10450000FD4F81E02091CA0A3091CB0A213031055C
:1045100009F080E080839FD9EA8DFB8DE051FD4F4B
:1045200081E02091CE0A3091CF0A2130310509F087
:1045300080E0808390D9EA8DFB8DEF50FD4F81E0C4
:104540002091D20A3091D30A2130310509F080E060
:10455000808381D9EA8DFB8DE952FD4F81E0209166
:104560005A0C30915B0C2130310509F080E08083DA
:1045700072D9EA8DFB8DE852FD4F81E020915E0CEF
:1045800030915F0C2130310509F080E0808363D9E0
:10459000EA8DFB8DE752FD4F81E02091620C309156
:1045A000630C2130310509F080E0808354D980917B
:1045B0009A0C90919B0CA0919C0CB0919D0CEA8D53
:1045C000FB8DE652FD4F80839183A283B38343D951
:1045D00080919E0C90919F0CA091A00CB091A10C89
:1045E000EA8DFB8DE252FD4F80839183A283B383DA
:1045F00032D98091A20C9091A30CA091A40CB091FF
:10460000A50CEA8DFB8DEE51FD4F80839183A28333
:10461000B38321D90A8D1B8D095F1C4F8091F20A4B
:104620009091F30AA091F40AB091F50AF801808301
:104630009183A283B3830FD9EA8CFB8CF5EFEF1A39
:10464000FCEFFF0A8091F60A9091F70AA091F80A10
:10465000B091F90AF70180839183A283B383FBD8D9
:104660008091FA0A9091FB0AA091FC0AB091FD0A90
:10467000CA8CDB8CF1EFCF1AFCEFDF0AF6018083E6
:104680009183A283B383F801408151816281738158
:10469000141615061606170644F041E050E060E0D7
:1046A00070E04083518362837383F70140815181BD
:1046B00062817381141615061606170644F041E050
:1046C00050E060E070E0408351836283738318168A
:1046D00019061A061B064CF081E090E0A0E0B0E05D
:1046E000F60180839183A283B3830E946913FC0146
:1046F000D6018D909D90AD90BC90D7014D915D916C
:104700006D917C91D8010D911D912D913C9100836B
:104710001183228333834483558366837783808622
:104720009186A286B386EA8DFB8D7096FA83E98323
:10473000EA8DFB8DE952FD4F80808B82EA8DFB8DE7
:10474000E553FD4F4081518162817381EA8DFB8D7C
:10475000E151FD4F90809D82EA8DFB8DE850FD4F29
:10476000A080AC82EA8DFB8DE751FD4FB080B98609
:10477000EA8DFB8DE451FD4F20812A87EA8DFB8D68
:10478000EB50FD4F80818E87EA8DFB8DEE50FD4F03
:1047900090819A8BEA8DFB8DE853FD4F2080EA8D46
:1047A000FB8DEB59FD4F3080EA8DFB8DE550FD4FC1
:1047B0000081118122813381EA8DFB8DE055FD4F0F
:1047C00080819181A281B381EA8DFB8DEC55FD4FF3
:1047D000C080D180E280F380EA8DFB8DE457FD4FED
:1047E00080809180A280B380EA8DFB8DE859FD4FD7
:1047F0004080518062807380EA8DFB8D40A651A677
:1048000062A673A680AA91AAA2AAB3AA84AF95AF02
:10481000A6AFB7AF44A655A666A677A684AA95AA62
:10482000A6AAB7AAE05CFF4F80839183A283B383DB
:10483000AA8DBB8DD896CD92DD92ED92FC92DB973E
:10484000FD01EC5BFF4F0083118322833383349699
:10485000308231962082EA899596EC939597FE8571
:104860009696FC9396978C8097968C9280E490E035
:10487000A0E0B0E0EA8DFB8DE45BFF4F8083918385
:10488000A283B383EA8DFB8DE65BFF4F9A8490820F
:10489000EA8DFB8DE55BFF4FA984A082EA8DFB8D3D
:1048A000E05BFF4FBD80B082EA8DFB8DEF5AFF4F7A
:1048B0004083518362837383EA8DFB8DEB5AFF4FF4
:1048C0002B812083AA8DBB8D55968D919C915697F7
:1048D0008633910509F097C28FEE9EE0FD01E25705
:1048E000FF4F9183808332961182108281EF9EE088
:1048F000369691838083329611821082EA8DFB8DE9
:10490000838D948D4A97D1F483E09FE0EE56FF4F5C
:1049100091838083EA8DFB8DEC56FF4F11821082CC
:1049200085E09FE0EA8DFB8DE656FF4F9183808303
:10493000EA8DFB8DE456FF4F118210820A8D1B8D8C
:1049400002561F4FEA8DFB8DE852FD4F80808B820F
:10495000EA8DFB8DE153FD4F80819181A281B3816E
:104960008D839E83AF83B887EA8DFB8DE051FD4F29
:1049700090819C83EA8DFB8DE750FD4FA081A98734
:10498000EA8DFB8DE651FD4FB081BA87EA8DFB8D34
:10499000E351FD4F80808E86EA8DFB8DEA50FD4FFE
:1049A0002080EA8DFB8DED50FD4F3080EA8DFB8D30
:1049B000E753FD4F3081EA8DFB8DEA59FD4F208191
:1049C000EA8DFB8DE150FD4FC080D180E280F38005
:1049D000EA8DFB8DEC54FD4F80819181A281B381E2
:1049E000EA8DFB8DE855FD4F80809180A280B380D9
:1049F000EA8DFB8DE057FD4F4081518162817381CB
:104A0000EA8DFB8DE459FD4F4080518062807380B8
:104A1000F801408E518E628E738E40A351A362A323
:104A200073A384A795A7A6A7B7A7448E558E668EB5
:104A3000778E44A355A366A377A380AB91ABA2ABBB
:104A4000B3AB80A691A6A2A6B3A6C4AAD5AAE6AA8D
:104A5000F7AA20AF31AF358A268A8984878A80E415
:104A600090E0A0E0B0E084AF95AFA6AFB7AF8E8482
:104A700082AE9A8493AEEA8DFB8DE252FF4FAC80FA
:104A8000A082EA8DFB8DE152FF4F8D819E81AF8127
:104A9000B88580839183A283B383EA8DFB8DED512A
:104AA000FF4F9B819083D80115968D919C91863301
:104AB000910509F0DAC18FEE9EE0EA8DFB8DE45E90
:104AC000FE4F91838083EA8DFB8DE25EFE4F118263
:104AD000108281EF9EE0EA8DFB8DEC5DFE4F9183AD
:104AE0008083EA8DFB8DEA5DFE4F11821082F80112
:104AF000838594854A97E1F483E09FE0EA8DFB8DFE
:104B0000E05EFE4F91838083EA8DFB8DEE5DFE4F6C
:104B10001182108285E09FE0EA8DFB8DE85DFE4FFB
:104B200091838083EA8DFB8DE65DFE4F11821082BA
:104B3000EA8CFB8CF4EDEF1AFEEFFF0AEA8DFB8D99
:104B4000E752FD4F80808B82EA8DFB8DED52FD4F49
:104B500080819181A281B3818D839E83AF83B88749
:104B6000EA8DFB8DEF50FD4F90819C83EA8DFB8D8C
:104B7000E650FD4F3080EA8DFB8DE551FD4FA08161
:104B8000A987EA8DFB8DE251FD4F2080EA8DFB8DD8
:104B9000E950FD4FC080EA8DFB8DEC50FD4FD08079
:104BA000EA8DFB8DE653FD4F3081EA8DFB8DE9598F
:104BB000FD4F2081EA8DFB8DED5FFC4F8080918061
:104BC000A280B3808A869B86AC86BD86EA8DFB8DEB
:104BD000EC53FD4F80819181A281B3818E879F87A5
:104BE000A88BB98BEA8DFB8DE854FD4F80809180B6
:104BF000A280B3808C8E9D8EAE8EBF8EEA8DFB8D93
:104C0000E455FD4F80819181A281B3818A8B9B8B7A
:104C1000AC8BBD8BEA8DFB8DE056FD4F8081918181
:104C2000A281B381EA8DFB8DEC56FD4F408051800F
:104C300062807380EA8DFB8DE458FD4F4081518185
:104C400062817381EA8DFB8DE059FD4F80809180F8
:104C5000A280B380F701808E918EA28EB38E40A287
:104C600051A262A273A28C8C9D8CAE8CBF8C84A648
:104C700095A6A6A6B7A6448F558F668F778F84A377
:104C800095A3A6A3B7A38E849F84A888B98880AA79
:104C900091AAA2AAB3AA8A889B88AC88BD8880A65C
:104CA00091A6A2A6B3A68A849B84AC84BD8484AA60
:104CB00095AAA6AAB7AA20AF31AFD58AC68A378AE5
:104CC00080E490E0A0E0B0E084AF95AFA6AFB7AFCE
:104CD00022AE898483AEEA8DFB8DE459FE4F9C8021
:104CE0009082EA8DFB8DE359FE4F8D819E81AF81CD
:104CF000B88580839183A283B383EA8DFB8DEF58BF
:104D0000FE4F9B819083D70115968D919C918633A0
:104D1000910509F0D2C08FEE9EE0EA8DFB8DE6553D
:104D2000FE4F91838083EA8DFB8DE455FE4F118207
:104D3000108281EF9EE0EA8DFB8DEE54FE4F918351
:104D40008083EA8DFB8DEC54FE4F11821082F701B7
:104D5000838594854A97E1F483E09FE0EA8DFB8D9B
:104D6000E255FE4F91838083EA8DFB8DE055FE4F27
:104D70001182108285E09FE0EA8DFB8DEA54FE4FA0
:104D800091838083EA8DFB8DE854FE4F118210825F
:104D9000EA8DFB8DEA51FD4F8081882309F4B5C06F
:104DA00089819A810E94B60FEA8DFB8DE951FD4FF2
:104DB0008081882309F4AEC0C8010E94B60F8A8D95
:104DC0009B8D88519D4FDC018C91882309F4A6C0EE
:104DD000C7016F960FB6F894DEBF0FBECDBFDF914F
:104DE000CF911F910F91FF90EF90DF90CF90BF90E8
:104DF000AF909F908F907F906F905F904F903F907B
:104E00002F900C94B60F8C339105D9F483EF9EE06C
:104E1000EA8DFB8DE257FF4F91838083EA8DFB8DF6
:104E2000E057FF4F1182108285EF9EE0EA8DFB8DE7
:104E3000EA56FF4F91838083EA8DFB8DE856FF4F42
:104E40005BCD8E9709F05ACD87EF9EE0EA8DFB8D02
:104E5000E257FF4F91838083EA8DFB8DE057FF4F30
:104E6000118210828DEF9EE0E1CF8C33910589F4A1
:104E700083EF9EE0EA8DFB8DE45EFE4F918380839D
:104E8000EA8DFB8DE25EFE4F1182108285EF9EE07F
:104E900022CE8E9709F02BCE87EF9EE0EA8DFB8D18
:104EA000E45EFE4F91838083EA8DFB8DE25EFE4FD0
:104EB000118210828DEF9EE00ECE8C33910589F425
:104EC00083EF9EE0EA8DFB8DE655FE4F9183808354
:104ED000EA8DFB8DE455FE4F1182108285EF9EE036
:104EE0002ACF8E9709F033CF87EF9EE0EA8DFB8DB6
:104EF000E655FE4F91838083EA8DFB8DE455FE4F8E
:104F0000118210828DEF9EE016CF89819A810E94D6
:104F10007A0F4ACFC8010E947A0F51CFC7016F960E
:104F20000FB6F894DEBF0FBECDBFDF91CF911F91BA
:104F30000F91FF90EF90DF90CF90BF90AF909F9038
:104F40008F907F906F905F904F903F902F900C9438
:104F50007A0FAF92BF92CF92DF92EF92FF920F93B0
:104F60001F93CF93DF93EC0186E390E09E8B8D8BB4
:104F700087E390E0988F8F8B86E290E09A8F898FFD
:104F80008AE190E09C8F8B8F8CE190E09E8F8D8FDB
:104F900088E190E098A38F8F83E090E09AA389A3A3
:104FA00082E090E09CA38BA3FE01E256FF4F8CE3CE
:104FB00090E0968385838DE390E09087878388E3F4
:104FC00090E0928781871486138616861586108A4C
:104FD00017868EE090E0928B818B8FE090E0948B2F
:104FE000838BE257FF4F8EE290E09683858380E3C8
:104FF00090E0908787838EE390E092878187148684
:10500000138616861586108A178682E190E0928BA9
:10501000818B83E190E0948B838BED5CFE4F11825A
:105020001082329611821082329611821082CE0145
:105030000E94191FCE010E943C1D6E0186E4C81A11
:105040008EEFD80AAA24A394B12CF601B7A6A6A67F
:105050007E01F6E1EF1AFEEFFF0A84E090E0F7012F
:1050600097A786A78E01065E1D4F88E090E0F801A5
:1050700097A786A780E190E0F6019183808381E184
:1050800090E0958384838FE190E09383828381E233
:1050900090E097838683C6010E943F0DF6018285CA
:1050A00080878385818787E190E0F7019183808302
:1050B00089E190E09583848383E290E09383828307
:1050C00085E290E097838683C7010E943F0DF70138
:1050D00082858087838581878BE190E0F8019183C9
:1050E00080838DE190E09583848387E290E09383D1
:1050F000828389E290E097838683C8010E943F0DF6
:10510000F8018285808783858187E05BFE4F8081FF
:10511000918172974081518162817381369720819C
:105120003181F601358F248F448B558B668B778BBD
:10513000019709F044C08FEF9FEF978F868FFE0194
:10514000E459FC4F80819181709740815181628147
:105150007381389720813181F701358F248F448BFB
:10516000558B668B778B019769F58FEF9FEF978F44
:10517000868FFE01E259FC4F808191813E974081EC
:10518000518162817381CA5ADC4F28813981F801CB
:10519000358F248F448B558B668B778B0197A9F4C1
:1051A0008FEF9FEF978F868FDF91CF911F910F9198
:1051B000FF90EF90DF90CF90BF90AF900895B78EA3
:1051C000A68EBDCF81E090E0D2CF81E090E0EACF23
:1051D0008F929F92AF92BF92CF92DF92EF92FF9207
:1051E000CF93DF937B010E942B1CEC01F70182A07F
:1051F00093A0A4A0B5A0C68CD78CE0A0F1A08A8112
:105200009B818F30F7E29F070CF043C001969B8390
:105210008A838C819D818F3027E29207ECF596017D
:105220002B7F215531092330310530F096012B5564
:1052300031092330310518F401969D838C83C60112
:105240000E945007882359F1F601EE0FFF1FEE0F61
:10525000FF1FEA5EF54F80829182A282B382B50180
:10526000A401C6010E945E1BB601CE010E949415E6
:105270000E94191D0E94E91C90E080E0DF91CF910F
:10528000FF90EF90DF90CF90BF90AF909F908F9066
:1052900008951B821A82BDCF1D821C82D0CF8FEA57
:1052A00093E00E944914E4CFCF93DF93EB010E9477
:1052B0002B1C6E8D7F8D0E94941590E080E0DF9115
:1052C000CF9108950E942B1C0E94CE1588E494E093
:1052D0000E9449140E9469130E94B51490E080E076
:1052E00008950F931F93CF93DF93EC0188819981E9
:1052F000009759F02A813B812617370730F081E06B
:10530000DF91CF911F910F9108958B016F5F7F4FB8
:105310000E947D5A009759F0998388831B830A83E2
:105320002C813D81232B59F7FC011082E8CF80E0CE
:10533000E7CF0F931F93CF93DF93EC018B01D1DF66
:1053400028813981811112C02115310519F0C90157
:105350000E94C152198218821D821C821B821A82ED
:10536000CE01DF91CF911F910F9108951D830C8382
:1053700069E974E0C9010E946F5BF2CFCF93DF93BC
:10538000FC01E25BFD4F408151814115510501F166
:10539000EC01CE5ADD4F28813981865B9D4F241761
:1053A0003507E8F4FC01808191810097A1F0820F1C
:1053B000931FFC0180818A3031F08D3069F487E9D8
:1053C00094E00E9449148881998101969983888389
:1053D000DF91CF91089580E00E94C108F4CF70E082
:1053E00060E0A7DF19821882F3CF0F931F93CF934A
:1053F000DF93EC018C01025B1D4FF80180819181EC
:10540000892B19F0CE01BADFF8CFDF91CF911F9130
:105410000F9108952F923F924F925F926F927F92D9
:105420008F929F92AF92BF92CF92DF92EF92FF92B4
:105430000F931F93CF93DF93CDB7DEB7CE58D1092B
:105440000FB6F894DEBF0FBECDBF8C01FC011082F9
:10545000118212821382148215821682178210869C
:1054600011861286138614861586168617864C01B9
:10547000F0E18F0E911CC4010E94AC1168018EE90D
:10548000C80ED11CC6010E94AC117801E4EDEE1AE1
:10549000EEEFFE0AC7010E94AC115801F6E4AF1A04
:1054A000FEEFBF0AC5010E94030E380186E1681AAB
:1054B0008EEF780AC3010E94030E2801E6EE4E1A11
:1054C000EDEF5E0AC2010E94030EF801E65BFD4F9C
:1054D00011821082138212821582148270E060E0C1
:1054E000CF0127DFF801E05BFD4F11821082329679
:1054F00011821082329611821082329611821082AD
:105500003296108211821282138234961082319662
:105510001082319610823196118210823296118259
:105520001082329611821082329610823196108249
:105530003196108231961082118212821382349633
:10554000108211821282138234961082118212828A
:105550001382349610821182128213823496108242
:105560001182128213823496108211821282138267
:105570003496108211821282138234961082118224
:105580001282138234961082118212821382349610
:10559000108211821282138234961082118212823A
:1055A00013823496108211821282138234961082F2
:1055B0001182128213823496108211821282138217
:1055C00034961082118212821382349610821182D4
:1055D00012821382349610821182128213823496C0
:1055E00010821182128213823496108211821282EA
:1055F00013823496108211821282138234961082A2
:1056000011821282138234961082118212821382C6
:105610003496108211821282138234961082118283
:105620001282138234961082319610823196108243
:105630003196108211821282138234961082118266
:10564000128213823496108211821282138234964F
:1056500010823196108231961082D801A652BD4F29
:105660008CE0E7E1F2E001900D928A95E1F7F80114
:10567000EA51FD4F10823196108231961082319698
:1056800010823196108231961082319610823196B6
:1056900010823196108231961082319610823196A6
:1056A0001082319610823196108231961082319696
:1056B0001082319610823196108231961082319686
:1056C00010823196108231961082118212821382DA
:1056D00034961082118212821382349610821182C3
:1056E00012821382D801A95FBC4F8CE0E3E2F2E0A2
:1056F00001900D928A95E1F7F801ED5EFC4F108262
:1057000011821282138234961082118212821382C5
:105710003496108211821282138234961182108282
:105720003296118210823296118210823296108245
:105730001182128213823496108211821282138295
:105740003496108211821282138234961082118252
:10575000128213823496108211821282138234963E
:105760001082118212821382349611821082329634
:10577000118210823296118210823296108211822A
:10578000128213823496108211821282138234960E
:105790001082118212821382349610823196108206
:1057A00031961082319611821082329611821082C7
:1057B00032961182108232961082118212821382E6
:1057C00034961082118212821382349610821182D2
:1057D00012821382349611821082329611821082C4
:1057E0003296118210823296118210823296118284
:1057F0001082329611821082329611821082329675
:10580000118210821801FCE82F1AFCEF3F0AF10107
:105810001082319611821082329611821082CE014E
:1058200001960E94AC118EE8FE013196D4010190E0
:105830000D928A95E1F7CE0101960E94AC118EE897
:10584000FE013196D60101900D928A95E1F7CE01C5
:1058500001960E94AC118EE8FE013196D7010190AD
:105860000D928A95E1F788E5F801808B89E5F601CC
:1058700080838AE5F7018083CE0101960E94030EA2
:1058800080E3FE013196D50101900D928A95E1F7F2
:10589000CE0101960E94030E80E3FE013196D301F2
:1058A00001900D928A95E1F7CE0101960E94030EB8
:1058B00080E3FE013196D20101900D928A95E1F7C5
:1058C000C80147DBF1011082C257DF4F0FB6F894D1
:1058D000DEBF0FBECDBFDF91CF911F910F91FF9023
:1058E000EF90DF90CF90BF90AF909F908F907F9080
:1058F0006F905F904F903F902F900895CF93DF93DC
:105900008091F7089091F808892B51F489E793E08A
:105910000E942552EC017EDDD093F808C093F70871
:105920008091F7089091F808DF91CF9108950F9337
:10593000CF93DF938091F608811159C081E0809365
:10594000F608DCDFEC0106B126B140910001609160
:1059500000010295017026FB222720F9417066950F
:10596000617086549E4F0E94720D06B126B140B1FF
:1059700060B1017022FB222720F943FB442740F944
:1059800066956170CE0186519E4F0E94720D02B3E2
:1059900022B340B160B1017022FB222720F9441FDD
:1059A0004427441F65FB662760F9CE01865E9D4F44
:1059B0000E94720DCE0140960E947811CE0182564F
:1059C0009F4F0E947811CE01845D9E4F0E947811F6
:1059D000C85ADD4F88819981AA81BB810196A11D9A
:1059E000B11D88839983AA83BB831092F608DF9147
:1059F000CF910F910895CF93DF93EB0120E030E03A
:105A000040E85FE36A817B818C819D810E949E5783
:105A1000811113C08CE494E00E9449146FDFFC01F3
:105A2000E65AFF4F108211821282138286549E4FD3
:105A3000FC01108A118A128A138A20E030E040E8C3
:105A40005FE36E817F81888599850E949E578111D1
:105A500013C08CE594E00E94491450DFFC01E8512A
:105A6000FF4F108211821282138286519E4FFC01D9
:105A7000108A118A128A138A20E030E040E85FE33E
:105A80006A857B858C859D850E949E57811113C0F8
:105A90008CE694E00E94491431DFFC01EA58FE4F85
:105AA0001082118212821382865E9D4FFC01108A41
:105AB000118A128A138A0E9469130E94B51490E019
:105AC00080E0DF91CF910895EF92FF920F931F93A3
:105AD000CF93DF936115710541F480E0DF91CF91A1
