:100000009EC10000CDC10000CBC10000C9C10000ED
:10001000C7C10000C5C10000C3C10000C1C10000CC
:10002000BFC10000BDC10000BBC10000B9C10000DC
:10003000B7C10000B5C10000B3C10000B1C10000EC
:10004000AFC100000C94E14BABC10000A9C100009E
:100050000C940F4CA5C10000A3C100000C940D4BE3
:100060009FC100000C94D74A0C94AD4A99C100007E
:1000700097C1000095C1000093C1000091C100002C
:100080000C94B34B8DC100008BC1000089C10000EE
:1000900087C1000085C1000083C1000081C100004C
:1000A0007FC100007DC100000C94854B79C1000028
:1000B00077C1000075C1000073C100000C94574B5C
:1000C0006FC100006DC100006BC1000069C100007C
:1000D00067C1000065C1000063C1000061C100008C
:1000E0005FC100004E414E494E495459494E46CDDC
:1000F000CCCC3D0AD7233C17B7D13877CC2B3295DF
:1001000095E6241FB14F0A000020410000C84200BC
:10011000401C4620BCBE4CCA1B0E5AAEC59D740086
:10012000407A10F35A00A0724E18090010A5D4E8C6
:100130000000E87648170000E40B54020000CA9A59
:100140003B000000E1F505000080969800000040AB
:10015000420F000000A086010000001027000000F0
:1001600000E803000000006400000000000A000036
:100170000000000100000000002C76D888DC674FEA
:100180000823DFC1DFAE59E1B1B796E5E3E453C61A
:100190003AE651997696E8E6C28426EB898C9B6212
:1001A000ED407C6FFCEFBC9C9F40F2BAA56FA5F4BC
:1001B00090055A2AF75C936B6CF9676DC11BFCE0E4
:1001C000E40D47FEF520E6B500D0ED902E03009437
:1001D0003577050080841E080000204E0A000000CC
:1001E000C80C333333330F986E12831141EF8D21D6
:1001F00014893BE65516CFFEE6DB18D1844B381B3D
:10020000F77C1D901DA4BBE424203284725E228101
:1002100000C9F124ECA1E53D2700002200250028BB
:10022000002B002E003100340002010000050108FF
:10023000010B01000020002300260029002C002FC4
:100240000032000001000003010601090100000A5C
:100250000B02090C0D0E080703040100000000004A
:10026000000000000000000000000000000000008E
:10027000000000000000000000121110000000004B
:10028000000000000000000000000000000000006E
:1002900000000000002100240027002A002D00306B
:1002A00000330001010000040107010A01010210EE
:1002B0002020080810204010204080020102010880
:1002C0000402010102040810204080804020100830
:1002D0000402018004020180402010080402010889
:1002E00004020101020408102040800102040810E9
:1002F00020408005050505070508080808020202D8
:10030000020A0A08080404040401010101010101B0
:10031000010303030303030303040707070C0C0C87
:100320000C0C0C0C0C02020202060606060606065F
:10033000060B0B0B0B0B0B0B0B00594CE15911244B
:100340001FBECFEFD1E2DEBFCDBF00E00CBF19E092
:10035000A0E0B2E0E0ECF9EC00E00BBF02C00790D7
:100360000D92A639B107D9F725E1A6E9B9E001C098
:100370001D92A338B207E1F711E0CEE9D1E000E029
:1003800006C021970109802FFE010E94BA63CD3972
:10039000D10780E00807A9F70E944A4E0C94CF6469
:1003A0002FCE9C01803E910508F06FC5FC01882787
:1003B000E352FE4F8F4F0C94BA63BD02CA02D302C0
:1003C000DC02E902F20245074507450745074507F4
:1003D000FF020C031903450726032F0338034503C7
:1003E0004E03570360036903720345077B038403CD
:1003F0008D0345074507450796039F03A803450757
:100400004507B103BE03450745074507CB03D8039E
:10041000E503F203FF0308041104450745074507F8
:100420001A0423042C0445073904460453044507E1
:100430004507450760046D047A0487049404A10409
:10044000AE04450745074507BB04C804D504E204CC
:10045000EF04F80401054507450745074C05590514
:1004600066054507730580058D0545074507450762
:100470009A05A305AC054507450745074507450708
:1004800045074507B505BE05C7054507D005D9058C
:10049000E205450745074507EB05F805050645074D
:1004A00012061F062C06450745074507390646066E
:1004B0005306450760066906720645074507450766
:1004C0007B0684068D064507450745074507450712
:1004D0004507450745074507450745070A0513052D
:1004E0001C054507450745074507450745074507D7
:1004F00045074507450745074507450725053205D3
:100500003F05450745074507450745074507450793
:10051000450745074507450745074507450745077B
:10052000450745074507450745074507450745076B
:10053000450745074507450745074507450745075B
:1005400045074507450745074507450796069F06A2
:10055000AC064507B906C206CF064507450745075D
:10056000DC06E506F2064507FF06080715074507FE
:100570004507450722072B07380781E090E0A0E0F8
:10058000B0E08093BA0A9093BB0AA093BC0AB093E0
:10059000BD0A08951092BE0A1092BF0A1092C00AB6
:1005A0001092C10A08951092C20A1092C30A1092C2
:1005B000C40A1092C50A089581E090E0A0E0B0E07E
:1005C0008093C60A9093C70AA093C80AB093C90A39
:1005D00008951092CA0A1092CB0A1092CC0A109277
:1005E000CD0A089583E090E0A0E0B0E08093CE0AC9
:1005F0009093CF0AA093D00AB093D10A089588E7C8
:1006000090E0A0E0B0E08093E60A9093E70AA09320
:10061000E80AB093E90A089588E790E0A0E0B0E026
:100620008093EA0A9093EB0AA093EC0AB093ED0A48
:10063000089588E790E0A0E0B0E08093EE0A909300
:10064000EF0AA093F00AB093F10A08951092F60A07
:100650001092F70A1092F80A1092F90A089510926F
:10066000FA0A1092FB0A1092FC0A1092FD0A0895F1
:1006700081E090E0A0E0B0E08093FE0A9093FF0A52
:10068000A093000BB093010B08951092020B1092EF
:10069000030B1092040B1092050B08951092060B99
:1006A0001092070B1092080B1092090B08951092EC
:1006B0000A0B10920B0B10920C0B10920D0B08955D
:1006C00010920E0B10920F0B1092100B1092110B38
:1006D00008951092120B1092130B1092140B10929B
:1006E000150B08951092160B1092170B1092180B01
:1006F0001092190B089510921E0B10921F0B10925E
:10070000200B1092210B08951092220B1092230BB4
:100710001092240B1092250B08951092260B109224
:10072000270B1092280B1092290B08951092360B6C
:100730001092370B1092380B1092390B08951092CB
:100740003A0B10923B0B10923C0B10923D0B08950C
:1007500010923E0B10923F0B1092400B1092410BE7
:10076000089581E090E0A0E0B0E080934A0B909380
:100770004B0BA0934C0BB0934D0B089581E090E090
:10078000A0E0B0E080934E0B90934F0BA093500BE2
:10079000B093510B08958CE291E0A0E0B0E080931B
:1007A0005E0B90935F0BA093600BB093610B089569
:1007B0008CE291E0A0E0B0E08093620B9093630B39
:1007C000A093640BB093650B08958CE291E0A0E0D8
:1007D000B0E08093660B9093670BA093680BB09387
:1007E000690B08958CE291E0A0E0B0E080936A0B81
:1007F00090936B0BA0936C0BB0936D0B08951092BC
:100800006E0B10926F0B1092700B1092710B08957B
:100810001092720B1092730B1092740B1092750B56
:1008200008951092760B1092770B1092780B10921D
:10083000790B08951092860B1092870B1092880BFB
:100840001092890B089510928A0B10928B0B1092C4
:100850008C0B10928D0B089581E090E0A0E0B0E049
:1008600080938E0B90938F0BA093900BB093910B72
:10087000089585E090E0A0E0B0E08093960B90931F
:10088000970BA093980BB093990B089585E090E097
:10089000A0E0B0E080939A0B90939B0BA0939C0BED
:1008A000B0939D0B089589E190E0A0E0B0E08093C3
:1008B0009E0B90939F0BA093A00BB093A10B089558
:1008C00082E390E0A0E0B0E08093AE0B9093AF0B9A
:1008D000A093B00BB093B10B089582E390E0A0E039
:1008E000B0E08093B20B9093B30BA093B40BB09392
:1008F000B50B089582E390E0A0E0B0E08093B60BE2
:100900009093B70BA093B80BB093B90B089582E303
:1009100090E0A0E0B0E08093BA0B9093BB0BA09363
:10092000BC0BB093BD0B089582E390E0A0E0B0E073
:100930008093BE0B9093BF0BA093C00BB093C10BE1
:10094000089582E390E0A0E0B0E08093C20B909322
:10095000C30BA093C40BB093C50B089582E390E042
:10096000A0E0B0E08093C60B9093C70BA093C80B98
:10097000B093C90B089580E991E0A0E0B0E08093C6
:10098000D60B9093D70BA093D80BB093D90B0895A7
:1009900080E991E0A0E0B0E08093DA0B9093DB0B6C
:1009A000A093DC0BB093DD0B089580E991E0A0E00B
:1009B000B0E08093DE0B9093DF0BA093E00BB0933D
:1009C000E10B089580E991E0A0E0B0E08093E20BB4
:1009D0009093E30BA093E40BB093E50B0895109272
:1009E000E60B1092E70B1092E80B1092E90B0895BA
:1009F0001092EA0B1092EB0B1092EC0B1092ED0B95
:100A000008951092EE0B1092EF0B1092F00B1092D3
:100A1000F10B08951092FE0C1092FF0C1092000D35
:100A20001092010D08951092020D1092030D109274
:100A3000040D1092050D08951092060D1092070DE9
:100A40001092080D1092090D089583E090E0A0E047
:100A5000B0E080933E0D90933F0DA093400DB09376
:100A6000410D089583E090E0A0E0B0E08093420D56
:100A70009093430DA093440DB093450D089583E0EA
:100A800090E0A0E0B0E08093460D9093470DA093D6
:100A9000480DB093490D089588E592E0A0E0B0E0DC
:100AA0008093FE0B9093FF0BA093000CB093010C6E
:100AB000089588E592E0A0E0B0E08093020C909366
:100AC000030CA093040CB093050C089588E592E004
:100AD000A0E0B0E08093060C9093070CA093080C64
:100AE000B093090C08958EE190E0A0E0B0E080930F
:100AF0000E0C90930F0CA093100CB093110C089552
:100B00008EE190E0A0E0B0E08093120C9093130C83
:100B1000A093140CB093150C08958EE190E0A0E022
:100B2000B0E08093160C9093170CA093180CB09320
:100B3000190C08951092260C1092270C1092280C74
:100B40001092290C089510922A0C10922B0C1092DE
:100B50002C0C10922D0C089510922E0C10922F0C2C
:100B60001092300C1092310C089510924E0C10928D
:100B70004F0C1092500C1092510C08951092520C80
:100B80001092530C1092540C1092550C0895109220
:100B9000560C1092570C1092580C1092590C089544
:100BA00010925E0C10925F0C1092600C1092610C0F
:100BB00008951092620C1092630C1092640C1092C3
:100BC000650C08951092660C1092670C1092680CD8
:100BD0001092690C089585E090E0A0E0B0E0809369
:100BE000760C9093770CA093780CB093790C0895C1
:100BF00085E090E0A0E0B0E080937A0C90937B0CCD
:100C0000A0937C0CB0937D0C089585E090E0A0E06B
:100C1000B0E080937E0C90937F0CA093800CB093F7
:100C2000810C089584EB95E1A0E0B0E08093860C00
:100C30009093870CA093880CB093890C089584EB53
:100C400095E1A0E0B0E080938A0C90938B0CA09388
:100C50008C0CB0938D0C089584EB95E1A0E0B0E08E
:100C600080938E0C90938F0CA093900CB093910C6A
:100C7000089585E090E0A0E0B0E080939E0C909312
:100C80009F0CA093A00CB093A10C089585E090E078
:100C9000A0E0B0E08093A20C9093A30CA093A40CCE
:100CA000B093A50C089585E090E0A0E0B0E08093BB
:100CB000A60C9093A70CA093A80CB093A90C089530
:100CC0001092AE0C1092AF0C1092B00C1092B10CAE
:100CD00008951092B20C1092B30C1092B40C1092B2
:100CE000B50C08951092B60C1092B70C1092B80C77
:100CF0001092B90C08951092C60C1092C70C109265
:100D0000C80C1092C90C08951092CA0C1092CB0C0A
:100D10001092CC0C1092CD0C08951092CE0C109223
:100D2000CF0C1092D00C1092D10C08951092DE0DC1
:100D30001092DF0D1092E00D1092E10D08958CE3FA
:100D400090E0A0E0B0E08093E20D9093E30DA093DB
:100D5000E40DB093E50D089581E090E0A0E0B0E0EF
:100D60008093E60D9093E70DA093E80DB093E90D05
:100D700008951092EE0D1092EF0D1092F00D10925A
:100D8000F10D08958CE390E0A0E0B0E08093F20DC7
:100D90009093F30DA093F40DB093F50D089581E0B9
:100DA00090E0A0E0B0E08093F60D9093F70DA09353
:100DB000F80DB093F90D08951092060E1092070EDB
:100DC0001092080E1092090E08958CE390E0A0E0B6
:100DD000B0E080930A0E90930B0EA0930C0EB0938C
:100DE0000D0E089581E090E0A0E0B0E080930E0E3B
:100DF00090930F0EA093100EB093110E08951092C1
:100E0000160E1092170E1092180E1092190E0895C9
:100E10008CE390E0A0E0B0E080931A0E90931B0E5C
:100E2000A0931C0EB0931D0E089581E090E0A0E009
:100E3000B0E080931E0E90931F0EA093200EB093EF
:100E4000210E089510922E0E10922F0E1092300E39
:100E50001092310E08958CE390E0A0E0B0E0809312
:100E6000320E9093330EA093340EB093350E089546
:100E700081E090E0A0E0B0E08093360E9093370ED2
:100E8000A093380EB093390E0895220F331F220F0E
:100E9000331FF901E654F54F10821182128213823A
:100EA0000895883691050CF048C085369105A4F464
:100EB0008033910524F58932910574F488319105C8
:100EC0008CF48F30910544F4863091053CF48230E7
:100ED000910514F4892B89F481E008950B97039709
:100EE00060F4FACF823291052CF48F319105A4F78A
:100EF0004997F5CF8497029778F380E008958E3470
:100F000091057CF4873491053CF78A3391052CF4E4
:100F1000873391050CF7C397E2CFCD97079768F712
:100F2000DBCF8835910534F485359105ACF68155D4
:100F30009109D5CF8B559109D2CF8039910504F510
:100F40008D3891054CF6863791056CF48337910501
:100F50001CF6893691058CF28C3691050CF4BCCFC9
:100F60008F569109BCCF803891053CF48D3791059F
:100F70000CF0B2CF89579109B2CF83589109AFCF06
:100F8000803D91058CF48D3C91050CF0A5CF843A01
:100F900091053CF4813A91050CF09ECF815991095D
:100FA0009ECF895C91099BCF8A3D91053CF4873D9A
:100FB00091050CF091CF835D910991CF8D5D9109E1
:100FC0008ECFAF92BF92CF92DF92EF92FF920F93AC
:100FD0001F93CF93DF936C017B018B01040F151FCF
:100FE000EB015E01AE18BF08C017D10759F0699137
:100FF000D601ED91FC910190F081E02DC60119958B
:10100000892B79F7C501DF91CF911F910F91FF9047
:10101000EF90DF90CF90BF90AF900895FC01538D7B
:10102000448D252F30E0842F90E0821B930B5417C2
:1010300010F0CF96089501970895FC01918D828D4F
:10104000981761F0A28DAE0FBF2FB11D5D968C91E8
:10105000928D9F5F9F73928F90E008958FEF9FEF27
:101060000895FC01918D828D981731F0828DE80FE3
:10107000F11D858D90E008958FEF9FEF0895FC019D
:10108000918D228D892F90E0805C9F4F821B91096A
:101090008F73992708958FE39EE0F1DF21E0892B7C
:1010A00009F420E0822F0895FC01A48DA80FB92F28
:1010B000B11DA35ABF4F2C91848D90E001968F7380
:1010C0009927848FA689B7892C93A089B1898C919F
:1010D000837080648C93938D848D981306C00288EE
:1010E000F389E02D80818F7D80830895EF92FF92B8
:1010F0000F931F93CF93DF93EC0181E0888F9B8D3B
:101100008C8D98131AC0E889F989808185FF15C0F4
:101110009FB7F894EE89FF896083E889F989808117
:101120008370806480839FBF81E090E0DF91CF91E6
:101130001F910F91FF90EF900895F62E0B8D10E008
:101140000F5F1F4F0F731127E02E8C8D8E110BC078
:101150000FB607FCFACFE889F989808185FFF5CFC2
:10116000CE01A2DFF2CFEB8DEC0FFD2FF11DE35A84
:10117000FF4FF0829FB7F8940B8FEA89FB8980813B
:101180008062D0CF682F8FE39EE0B0CFCF93DF9304
:10119000EC01888D8823B1F0AA89BB89E889F98997
:1011A0008C9185FD03C0808186FD0CC00FB607FCC5
:1011B000F7CF8C9185FFF2CF808185FFEDCFCE01F7
:1011C00073DFEACFDF91CF91089580E090E0892B23
:1011D00021F061DF81110E94000080E090E0892B06
:1011E00049F080E090E0892B29F00E9400008111F5
:1011F0000E94000080E090E0892B49F080E090E0C0
:10120000892B29F00E94000081110E94000080E0DB
:1012100090E0892B49F080E090E0892B29F00E9432
:10122000000081110C94000008958150823108F073
:101230005AC0E82FF0E08827EF5DF64F8F4F0C94EF
:10124000BA6341094509330939093D097309480958
:101250004E09520958095C09600966096A0973094F
:101260006E0974097809809180008F7780938000DF
:101270000895809180008F7DF9CF80918000877FD5
:10128000F5CF84B58F7784BD089584B58F7DFBCF6E
:101290008091B0008F778093B00008958091B00066
:1012A0008F7DF9CF809190008F7780939000089583
:1012B000809190008F7DF9CF80919000877FF5CF4E
:1012C0008091A0008F778093A00008958091A00066
:1012D0008F7DF9CF8091A000877FF5CF809120018D
:1012E0008F77809320010895809120018F7DF9CF21
:1012F00080912001877FF5CFCF93DF93282F30E0B7
:10130000F901E35BFD4F8491F901E355FD4FD49161
:10131000F901ED50FD4FC491CC2399F0811185DF87
:10132000EC2FF0E0EE0FFF1FED5CFD4FA591B491A7
:10133000EC91ED2381E090E009F480E0DF91CF9122
:10134000089580E090E0FACF1F93CF93DF93282F8A
:1013500030E0F901E35BFD4F8491F901E355FD4F66
:10136000D491F901ED50FD4FC491CC23A1F0162F7B
:1013700081115BDFEC2FF0E0EE0FFF1FE75EFD4F0A
:10138000A591B4918FB7F894EC91111108C0D09544
:10139000DE23DC938FBFDF91CF911F910895DE2B69
:1013A000F8CFCF93DF9390E0FC01E355FD4F2491FC
:1013B0008D509D4FFC0184918823C9F090E0880FE7
:1013C000991FFC01ED56FD4FA591B491FC01E75E1C
:1013D000FD4FC591D49161110DC09FB7F8948C91C8
:1013E000209582238C938881282328839FBFDF91B7
:1013F000CF910895623051F49FB7F8943C91822FB9
:10140000809583238C93E8812E2BEFCF8FB7F894B0
:10141000EC912E2B2C938FBFEACFCF938CB58C60A1
:101420008CBD8CB58F7D8CBD8CB58C7F8CBD8DB506
:101430008E7F8DBDCFB7F89480913E0E811123C071
:10144000E8E2F3E08491E2EEF2E09491E82FF0E03C
:10145000EE0FFF1FED56FD4FA591B491EC91E923DE
:1014600019F461E085E370DF61E085E39ADF8CB514
:1014700080618CBD8CB580648CBD61E084E391DFBC
:1014800061E083E38EDF80913E0E8F5F80933E0E9E
:10149000CFBFCF9108958230910538F0880F991F02
:1014A000880F991F05970197F1F708953FB7F894B2
:1014B0008091AC099091AD09A091AE09B091AF09AE
:1014C00026B5A89B05C02F3F19F00196A11DB11D9F
:1014D0003FBFBA2FA92F982F8827BC01CD01620FDB
:1014E000711D811D911D42E0660F771F881F991F96
:1014F0004A95D1F708958F929F92AF92BF92CF9263
:10150000DF92EF92FF926B017C01D0DF4B015C0117
:10151000C114D104E104F104B1F0C8DF68197909FC
:101520008A099B09683E73408105910588F321E093
:10153000C21AD108E108F10888EE880E83E0981EEF
:10154000A11CB11CE5CFFF90EF90DF90CF90BF9032
:10155000AF909F908F9008952FB7F8946091A8094D
:101560007091A9098091AA099091AB092FBF0895A4
:10157000CF92DF92EF92FF92CF93DF93EC01603234
:1015800082E07807CCF5653B710514F064EB70E000
:10159000898128E830E0281B310987FD3395220F27
:1015A000331F220F331F6901330FEE08FF088A81B2
:1015B00028E532E0281B310987FD3395220F331FC0
:1015C000220F331F032E000C440B550B2C193D0921
:1015D0004E095F09DB0177FF02C0B0E0A0E00E9486
:1015E0004F6224EB30E040E050E00E942962C20EDE
:1015F000D31EE41EF51EB601E881E03370F52981A3
:1016000088E890E0821B910927FD9395880F991F28
:10161000880F991F681779077CF02A8188E592E086
:10162000821B910927FD9395880F991F880F991F99
:10163000681779070CF4CB010297880F991F4FB7F1
:10164000F8942E2F30E0F901EE0FFF1FE20FF31F89
:10165000E452F14F928381834FBFDF91CF91FF908E
:10166000EF90DF90CF9008951F93CF93DF93EC011D
:10167000162F8881803308F04DC061E0812F91DE04
:101680008881282F30E0F901EE0FFF1FE20FF31FD2
:10169000E452F14F1F736081607C612B608319827B
:1016A0001A822CE0622F0E949B63829FB00111245A
:1016B00030E020E0AB01420F531FFA01EE0FFF1F95
:1016C000E40FF51FE452F14F908196FD16C02F5F95
:1016D0003F4F2C30310571F7813009F510928000B1
:1016E00082E0809381001092850010928400B19A6C
:1016F00080916F00826080936F00E8818E2F90E070
:10170000FC01EE0FFF1FE80FF91FE452F14F80813B
:10171000806480838881DF91CF911F91089582300A
:1017200061F41092900080939100109295001092B5
:10173000940088BB80937100E0CF833069F41092ED
:10174000A00082E08093A1001092A5001092A40056
:1017500089BB80937200D1CF8111CFCF109220012D
:1017600082E08093210110922501109224018ABB0E
:1017700080937300C2CFAF92BF92CF92DF92EF926D
:10178000FF920F931F93CF93DF936B017A01EC01CC
:10179000CD55D64F28813CE0389F8001399F100DF0
:1017A0001124A0906C0FB12C27FF1FC0FB011182E8
:1017B000108288818F5F888388819801280F311D6E
:1017C00087FD3A95F6012A153B051CF488818C307B
:1017D000BCF180819181049680349C4908F471C0E9
:1017E000F6018081918104966EC088819801280F4E
:1017F000311D87FD3A952A153B05DCF68881A80145
:10180000480F511D87FD5A95FA01EE0FFF1FE40F97
:10181000F51FE452F14F808186FFCBCF8881F8011C
:10182000E80FF11D87FDFA95CF01EE0FFF1FE80FBE
:10183000F91FE452F14F808160E08F7385DDB9CFED
:10184000808191812881A801420F511D27FD5A9561
:101850009A01FA01EE0FFF1FE20FF31FE452F14F5E
:1018600021813281820F931FF701918380838881C8
:101870009801280F311D87FD3A95F901EE0FFF1FE2
:10188000E20FF31FE452F14F808186FF21C088816F
:10189000080F111D87FD1A95F801EE0FFF1FE00FCD
:1018A000F11FE452F14F808161E08F73DF91CF919E
:1018B0001F910F91FF90EF90DF90CF90BF90AF906E
:1018C00043CD80E49CE9F701918380838FEF888387
:1018D000DF91CF911F910F91FF90EF90DF90CF900C
:1018E000BF90AF9008958EBD00000DB407FEFDCFF0
:1018F0008EB50895DF92EF92FF920F931F93CF93CF
:10190000DF93EC01D62E122F032FF42EE52E60E08C
:1019100088851ADD8D2D8068E6DF89878E2DE3DFCF
:101920008F2DE1DF802FDFDF812FDDDF61E0888514
:101930000BDD8985DF91CF911F910F91FF90EF9083
:10194000DF900895FF920F931F93CF93DF93EC01E5
:10195000F62E8A0162DD60E08885F6DC8F2DC3DF1C
:10196000898780E0C0DF80E0BEDF80E0BCDF80E010
:10197000BADF61E08885E8DC60E08885E5DC8F2DF2
:10198000B2DF898780E0AFDF90E0B0E0A0E0BA2F5F
:10199000A92F982F8827F80180839183A283B3838E
:1019A00080E0A1DFF8014081518162817381482B81
:1019B000762F652F542F442740835183628373838E
:1019C00080E091DFF8014081518162817381482B71
:1019D000762F652F542F442740835183628373836E
:1019E00080E081DFF8014081518162817381482B61
:1019F000408351836283738361E08885A5DC898598
:101A0000DF91CF911F910F91FF9008952F923F92F8
:101A10004F925F927F928F929F92AF92BF92CF929E
:101A2000DF92EF92FF920F931F93CF93DF9300D03B
:101A30001F92CDB7DEB76C01762E49015A0117010E
:101A40002801AE014F5F5F4F7DDF89819A81AB81B5
:101A5000BC8188269926AA26BB26A50194012E21A1
:101A6000332140235521282739274A275B27672D13
:101A7000C60140DFF60181850F900F900F900F9007
:101A8000DF91CF911F910F91FF90EF90DF90CF905A
:101A9000BF90AF909F908F907F905F904F903F90BE
:101AA0002F900895CF93DF93EC0161E0888579DC76
:101AB00061E0888549DCB1DC60E0888545DC80E058
:101AC00012DF898780E00FDF80E00DDF80E00BDF31
:101AD00080E009DF61E08885DF91CF9135CC8F927E
:101AE0009F92AF92BF92CF92DF92EF92FF920F93AD
:101AF0001F93CF93DF93EC018B015A016901D2DF71
:101B000085E090E0A0E0B0E008301105C1F1B4F448
:101B100087E090E0A0E0B0E00230110581F186E0BE
:101B200090E0A0E0B0E00430110549F1013011056A
:101B3000A1F488E090E0A0E0B0E021C083E090E074
:101B4000A0E0B0E000321105D1F05CF484E090E058
:101B5000A0E0B0E00031110591F080E090E0DC0100
:101B60000EC082E090E0A0E0B0E00034110539F052
:101B700081E090E0A0E0B0E00038110571F7582F47
:101B8000442733272227E12CF12C00E01FE06CE6EC
:101B9000CE013CDFB50190E080E00E94FB6025EDC6
:101BA00034E045E352E40E945C6120E030E04AE723
:101BB00054E40E94EB6228EB3EE145E05EE30E94C4
:101BC0005C614B015C0126E636E646EA5EE30E9474
:101BD000EB6220E030E040E85FE30E9486620E9412
:101BE0005863603180F42CEE31E548E35EE3C501D3
:101BF000B4010E94EB6220E030E040E85FE30E9425
:101C000086620E945863862F8F71262F30E050E045
:101C100040E0542F432F322F222722273F714427A1
:101C20005527282B60E1CE0165DEE12CF12C8701E0
:101C3000E39421E030E040E050E060E0CE01E6DEF9
:101C40001FE0E12EF12C00E010E023E030E040E066
:101C500050E06CE6CE01DADE10E7E12EF12C00E078
:101C600010E020E430E040E050E06CE6CE01CEDE53
:101C700010E8E12EF12C00E010E020E830E040E038
:101C800050E06CE6CE01C2DEE12C10E8F12E01E05E
:101C900010E020E030E041E050E06CE6CE01B6DE3E
:101CA000E12C10E4F12E00E010E020E030E0A9018A
:101CB0006CE6CE01ABDE1FE0E12EF12C00E010E07F
:101CC00021E030E040E050E06CE6CE019FDEE12C08
:101CD000F12C8701F39420E032E040E050E06CE624
:101CE000CE0194DEE12C10E2F12E00E010E020E0C5
:101CF00030E240E050E06CE6CE0188DE2FEF3FEFAF
:101D0000A90163E1CE01F6DD2FEF3FEF4FE050E098
:101D100064E1CE01EFDD20E137E240E050E065E133
:101D2000CE01E8DDE12CF12C08E010E020E030E00D
:101D300048E050E06CE6CE0169DEE12CF12C04E0D5
:101D400010E020E030E044E050E06CE6CE015EDEE2
:101D50001FE0E12EF12C00E010E028E030E040E050
:101D600050E06CE6CE0152DEE12CF12C8701EA94C2
:101D700024E630E040E050E06EE6CE0147DEE12CA4
:101D8000F12C0FEF13E020E030E048E050E06EE689
:101D9000CE013CDE20E137E240E050E065E1CE01DB
:101DA000A9DD10E2E12EF12C00E010E020E230E0AD
:101DB00040E050E060E0CE0129DEE12C18E0F12E99
:101DC00000E010E020E038E040E050E060E0CE01CC
:101DD0001DDE0D2C000CEE08FF08A601332722277C
:101DE000E12CF12C01E010E06CE6CE010FDE64E6A0
:101DF00070E080E090E0DF91CF911F910F91FF9014
:101E0000EF90DF90CF90BF90AF909F908F9073CB6B
:101E10000F931F93CF93DF938B01EA01AB014150E6
:101E200051094433510508F0E9C02230310508F06A
:101E3000E5C048E3429FF001439FF00D1124E80FF5
:101E4000F91FE60FF71F81E080836C2F232B09F425
:101E5000D2C061E0802FA5DA209749F460E0802F9E
:101E600073DACE01DF91CF911F910F910895CF3F8B
:101E7000D10511F461E0BFC0F801E35BFD4FE491CF
:101E8000E150E23108F0B2C0F0E08827E55BF04FA6
:101E90008F4F0C94BA635D0F640F690F730F7D0F42
:101EA000F60F870F8F0F970FA10FAB0FB50FC40F52
:101EB000CE0FF60FD80FE20FEC0F84B5806884BD0B
:101EC000C7BDD0E0C0E0CDCF84B5806284BDC8BDC1
:101ED000F8CF80918000806880938000D093890043
:101EE000C0938800EECF8091800080628093800054
:101EF000D0938B00C0938A00E4CF809180008860EB
:101F000080938000D0938D00C0938C00DACF8091B5
:101F1000B00080688093B000C093B300D2CF8091AE
:101F2000B00080628093B000C093B400CACF8091AB
:101F30009000806880939000D0939900C09398009F
:101F4000C0CF80919000806280939000D0939B00DE
:101F5000C0939A00B6CF80919000886080939000E3
:101F6000D0939D00C0939C00ACCF8091A00080686E
:101F70008093A0008091A0008F7B8093A000D093DD
:101F8000A900C093A8009DCF8091A000806280939B
:101F9000A000D093AB00C093AA0093CF8091A00083
:101FA00088608093A000D093AD00C093AC0089CF2F
:101FB00080912001806880932001D0932901C093F3
:101FC00028017FCF80912001806280932001D093EF
:101FD0002B01C0932A0175CF8091200188608093E6
:101FE0002001D0932D01C0932C016BCF60E0C0384D
:101FF000D1050CF03FCF802FA7D963CFC1E0D0E04F
:1020000030CFCF93DF93D0E0C0E0CE010E945107E4
:10201000882319F0CE010E94D1012196C13ED1053D
:10202000A1F7DF91CF9108954F925F926F927F92C7
:102030008F929F92AF92BF92CF92DF92EF92FF92D8
:10204000CF93DF93EC016C897D898E899F89888885
:102050009988AA88BB88CE8CDF8C0D2C000CEE08EA
:10206000FF08603127E272078105910529F01616F5
:10207000170618061906ACF0A7019601C501B401B0
:102080000E948C63DF91CF91FF90EF90DF90CF9013
:10209000BF90AF909F908F907F906F905F904F9088
:1020A00008950E94FD6020E030E44CE156E40E9477
:1020B000EB622B013C01488E598E6A8E7B8EC501E6
:1020C000B4010E94FD60A30192010E945C614B017A
:1020D0005C01C701B6010E94FD609B01AC01C50116
:1020E000B4010E945C610E945363CCCFFC01118259
:1020F0001082138212821582148217821682108631
:102100001186128613861486158616861786108AFF
:10211000118A128A138A108E118E128E138E158ECA
:10212000148E178E168E10A211A212A213A214A240
:1021300015A216A217A210A611A612A613A614A6DF
:1021400015A681E090E097A786A780E197E2A0E03E
:10215000B0E0848B958BA68BB78B08954F925F92DE
:102160006F927F928F929F92AF92BF92CF92DF92A7
:10217000EF92FF920F931F93CF93DF93EC014B01EC
:102180008A015901CD88DE88EF88F88C2601370155
:1021900044245524662481E07822FE01ED57FF4F48
:1021A000608171818281938124E630E040E050E0DB
:1021B0000E945562672B682B692BF1F48C859D85F5
:1021C0009F878E878A859B859D878C878885998543
:1021D0009B878A878E819F8199878887F801608194
:1021E0007181828193810E9453637F836E83F801A2
:1021F000108211821282138245284628472859F4FA
:10220000F7FC09C0CC24DD24EE24FEE7FF22CD2814
:10221000CE28CF2881F020E030E040E85FE3F801ED
:1022200060817181828193810E948762F80160835D
:10223000718382839383C25ADF4F88819981AA81F7
:10224000BB81F50180839183A283B38388819981C7
:10225000AA81BB81F401808B918BA28BB38BDF9120
:10226000CF911F910F91FF90EF90DF90CF90BF9093
:10227000AF909F908F907F906F905F904F90089558
:10228000889A0895889808958E9A08958E9808954A
:10229000EBE0F1E08081886080830895EBE0F1E07D
:1022A0008081877F80830895149A089514980895F3
:1022B00060E0FC01878D48C860E0FC01818D44C866
:1022C00061E0FC01878D40C861E0FC01818D3CC864
:1022D000CF93DF93EC01FC01EF56FF4F108237974D
:1022E00081E0808360E0898D2FD88BA19CA1892B10
:1022F00029F060E08F8DDF91CF9126C8DF91CF91DB
:102300000895CF93DF93EC018FA10E947C092AA549
:102310002817190621F48BA5DF91CF91089580E04D
:10232000FBCFCF93DF93EC018DA10E947C092AA5FE
:102330002817190621F48BA5DF91CF91089580E02D
:10234000FBCFCF93DF93EC018B8DFE01E35BFF4F5F
:10235000908161E0911101C060E00E94A40989A10F
:10236000FE01E25BFF4F9081992331F0C15BDF4FAB
:10237000988161E0911101C060E0DF91CF910C94F0
:10238000A409CF93DF93EC018B8DFE01E35BFF4F3C
:10239000908160E0911101C061E00E94A40989A1CF
:1023A000FE01E25BFF4F9081992331F0C15BDF4F6B
:1023B000988160E0911101C061E0DF91CF910C94B0
:1023C000A409CF93DF93EC0161E08D8D0E94A409F5
:1023D000FE01E25BFF4F8081882321F061E08BA149
:1023E0000E94A409C157DF4F1882DF91CF91089551
:1023F000CF93DF93EC01FC01E055FC4F1082EE58C7
:10240000F1098081811103C0CE014096DADFFE011F
:10241000ED5DFC4F8081811104C0CE018E549F4F31
:10242000D0DFFE01EC5DFC4F8081811104C0CE0144
:102430008C5A9E4FC6DF64E670E080E090E0DF914A
:10244000CF9159C8CF93DF93EC0160E08D8D0E944E
:10245000A409FE01E25BFF4F8081882321F060E048
:102460008BA10E94A409C157DF4F81E08883DF91CF
:10247000CF9108958F929F92AF92BF92CF92DF92A9
:10248000EF92FF920F931F93CF93FC01E65AFF4FF9
:102490004083518362837383349640835183628384
:1024A000738334960083118322833383DC01AA591A
:1024B000BF4FEC925297CC91CC2351F018974C918E
:1024C000411152C037FF56C010821182128213820E
:1024D000DC01AB5ABF4F4D915D916D917C9113978B
:1024E000141615061606170634F514963C91332378
:1024F00011F1C080D180E280F38046015701F7FEE0
:1025000007C08824992454018C189D08AE08BF0880
:10251000481559056A057B0574F4F7FE07C07095E8
:102520006095509541955F4F6F4F7F4F408351832A
:1025300062837383C32FFC01ED58FF4F1082118219
:102540001282138289579F4F31E0FC0130838C2F18
:10255000CF911F910F91FF90EF90DF90CF90BF90A0
:10256000AF909F908F9008951016110612061306D3
:102570000CF4AACFC0E0ACCF0F931F93CF93DF939F
:10258000EC01062F89A581110DC0CE01CADE182FDE
:10259000CE01B7DE0111182F812FDF91CF911F914E
:1025A0000F910895CE01ADDE182FCE01BADEF2CF25
:1025B000CF93DF93EC01FC01ED57FF4F80819181B8
:1025C000A281B3810196A11DB11D80839183A28355
:1025D000B3833E9681E08083AE01425A5F4FFA0199
:1025E00080819181A281B3819E0128573F4FF901DB
:1025F0002081222309F440C00196A11DB11DFA01DA
:1026000080839183A283B383FE01EC56FF4F208128
:102610003181C901959587958C0F9D1F3297019047
:10262000F081E02D20FF08C0DC012D913C91E20FEC
:10263000F31F0190F081E02D19958BA19CA1892BAE
:10264000F9F0FE01E856FF4F20813181C9019595CF
:1026500087958C0F9D1FCA56DF4FE881F98120FFB7
:1026600008C0DC012D913C91E20FF31F0190F08135
:10267000E02DDF91CF9119940197A109B109BFCF46
:10268000DF91CF9108958F929F92AF92BF92CF9298
:10269000DF92EF92FF920F931F93CF93DF93EC01A2
:1026A000FC01ED58FF4F60817181828193810E940E
:1026B000FB606B017C01FE01E05BFF4F608171817B
:1026C000828193810E94FD609B01AC0160E074E215
:1026D00084E799E40E94EB624B015C01FE01E15842
:1026E000FF4F60817181828193810E94FB609B0119
:1026F000AC01C501B4010E94EB624B015C018E018B
:1027000009581F4F20E030E040E05FE30E945C6129
:10271000A70196010E9487620E945863F8016083B6
:10272000718382839383C558DF4FA5019401C7014C
:10273000B6010E9487620E945863688379838A8306
:102740009B83DF91CF911F910F91FF90EF90DF90CE
:10275000CF90BF90AF909F908F9008950F931F934D
:10276000CF93DF93FC01EF56FF4F20812223B9F076
:102770007E97008111812281338138964081518179
:1027800062817381041715072607370710F1EC01E2
:102790009FDDCE01DF91CF911F910F9174CFFC018E
:1027A000E957FF4F20812223A1F074970081118106
:1027B0002281338134964081518162817381041773
:1027C00015072607370728F0DF91CF911F910F914A
:1027D000EFCEDF91CF911F910F910895FC01E95742
:1027E000FF4F2081222361F0749780819181A28123
:1027F000B3810196A11DB11D80839183A283B38310
:1028000008950F931F93FC01EA59FF4F2081211176
:1028100012C0389700811181228133813496408122
:1028200051816281738104171507260737074CF41D
:102830001F910F91A6CDFC01E45BFF4F2081211178
:10284000F7CF1F910F917DCDAC014B5E5F4F6FE6CF
:10285000FC018081918176C8CF92DF92EF92FF9246
:102860000F931F93CF93DF93EC017B016A018901E2
:102870009A01AB01B8018881998131D98C81883561
:1028800071F49601A701B8018A819B81DF91CF91F4
:102890001F910F91FF90EF90DF90CF9020C9DF91B3
:1028A000CF911F910F91FF90EF90DF90CF900895FF
:1028B000CF93DF93EC018C818835A9F58BE394E10C
:1028C000998388838BE694E19B838A8384E691E1F4
:1028D000FE01EE56FF4F9183808332961182108263
:1028E00080E691E132969183808332961182108244
:1028F0008CE591E132969183808332961182108229
:1029000088E591E13296918380833296118210821C
:1029100088819981C7D88C81883589F48A819B8187
:10292000DF91CF91BFC8893529F48BE494E1998375
:102930008883CCCF8A3551F68BE594E1F8CFDF91CF
:10294000CF910895CF93DF93FC01DC0116968AE0C6
:10295000ED0119928A95E9F781E0808B818B138ACA
:10296000128A148A158A168A178A108E8CE291E0D0
:10297000A0E0B0E084A795A7A6A7B7A780AB91ABCE
:10298000A2ABB3AB42E350E060E070E044AB55ABC8
:1029900066AB77AB40AF51AF62AF73AF44AF55AFEB
:1029A00066AF77AFEF01C05CDF4F88839983AA835E
:1029B000BB83249688839983AA83BB83DF01A85BAA
:1029C000BF4F48E750E060E070E04D935D936D933A
:1029D0007C93139714961C9211961C9211961C923C
:1029E00011961C92119644E650E060E070E04D9321
:1029F0005D936D937C93139714961C9211961D9280
:102A00001D921D921C92139714961C9211961D9262
:102A10001D921D921C92139714961D921D921D9249
:102A20001C92139714961D921D921D921C9213973F
:102A300014961C9211961D921D921D921C92139732
:102A400014961D921D921D921C92139714961D921E
:102A50001D921D921C92139714961D921D921D9209
:102A60001C92139714961D921D921D921C921397FF
:102A700014961D921D921D921C92139714961D92EE
:102A80001D921D921C92139714961D921D921D92D9
:102A90001C92139714961C9211961C9211961C92DC
:102AA00011961C9211961C9211961C9211961C92D2
:102AB00011961C9211961C9211961C9211961C92C2
:102AC000128E118E148E138E168E158E10A2178EE6
:102AD00012A211A214A213A216A215A210A617A246
:102AE000119684E691E111969C938E93129611961D
:102AF0001C921E92129680E691E111969C938E9301
:102B0000129611961C921E9212968CE591E11196E6
:102B10009C938E93129611961C921E92129688E5A3
:102B200091E18D939C93E056FF4F11821082DF91CB
:102B3000CF91089508958FEF9FEF08950895089518
:102B4000089508950895089508950895089508959D
:102B5000089508950895089508950895089508958D
:102B60000895089508958091A1099091A209892B53
:102B700041F481E090E00E947E5B9093A2098093F3
:102B8000A1098091A1099091A20908950F931F9323
:102B9000CF93DF938B01E7DFF801C2A1D3A1868D2C
:102BA000978D8530910529F14CF40497B1F090E0B0
:102BB00080E0DF91CF911F910F91089586309105AC
:102BC00011F10B97A1F76BE070E086E79FE00E94A0
:102BD000340BBE0186E79FE009C064E070E08DE63B
:102BE0009FE00E94340BBE018DE69FE00E94B80A70
:102BF000DECF65E070E080E79FE00E94340BBE010D
:102C000080E79FE0F3CF66E070E083E79FE00E94FB
:102C1000340BBE0183E79FE0E9CF80919D0990913D
:102C20009E09892B91F480E790E00E947E5BFC0175
:102C300031969C012B5C3F4F119217AAE217F307C4
:102C4000D9F790939E0980939D0980919D09909159
:102C50009E0908954F925F926F927F92AF92BF92BA
:102C6000CF92DF92EF92FF920F931F93CF93DF9358
:102C7000EB01D3DF8C01CAA8DBA84EA45FA468A82F
:102C800079A8AEA0BFA0EE8CFF8C4AA15BA19601F3
:102C9000B701BED8C301B2010E947B0A9601A5010B
:102CA000B701C801B5D890E080E0DF91CF911F91C6
:102CB0000F91FF90EF90DF90CF90BF90AF907F90FB
:102CC0006F905F904F900895CF93DF93EB01A5DF56
:102CD0006AA98E8D0E94D10990E080E0DF91CF91AA
:102CE0000895CF93DF93EB0198DF2AA93BA94AA16E
:102CF0005BA16E8D7F8D8CD890E080E0DF91CF91CD
:102D000008958091960990919709892BE1F585E3C3
:102D100090E00E947E5BFC0181E090E0A0E0B0E0EA
:102D200080839183A283B38384839583A683B783AF
:102D300080879187A287B3871586148616861786A3
:102D4000108A118A128A138A148A158A168A178A97
:102D5000108E118E138E128E12A213A214A215A21F
:102D600017A216A210A611A612A613A614A615A69F
:102D700016A617A610AA11AA12AA13AA14AAF093AB
:102D80009709E09396098091960990919709089583
:102D9000CF93DF93B6DFEC0185E40E947C0921E04C
:102DA000892B09F420E02C8FACDFEC0184E40E9435
:102DB0007C0921E0892B09F420E02D8FA2DFEC01B2
:102DC00083E40E947C0921E0892B09F420E02E8F06
:102DD00098DFEC0182E40E947C0921E0892B09F450
:102DE00020E02F8F8EDFEC0181E40E947C0921E03E
:102DF000892B09F420E028A384DFEC0180E40E9401
:102E00007C0921E0892B09F420E029A3DF91CF91EF
:102E1000089577DFBDCF75DFFC0114AA90E080E054
:102E20000895FC0101900020E9F73197AF01481B9C
:102E3000590BBC018FE39EE00C94E1078F929F92A7
:102E4000AF92BF920F931F93CF93DF93CDB7DEB7AF
:102E5000A1970FB6F894DEBF0FBECDBF19A24230C6
:102E600008F44AE08E010F5D1F4F842E912CB12C87
:102E7000A12CA50194010E945562E62FB901CA0157
:102E8000EA30ECF4E05DD801EE938D01232B242B86
:102E9000252B79F790E080E0109711F0CD01C1DF8C
:102EA000A1960FB6F894DEBF0FBECDBFDF91CF91D4
:102EB0001F910F91BF90AF909F908F900895E95C04
:102EC000E2CFCF92DF92EF92FF92CF93DF9397FF03
:102ED00018C06B017C018DE20E94C208EC016627DC
:102EE0007727CB016C197D098E099F094AE0A6DF7F
:102EF0008C0F9D1FDF91CF91FF90EF90DF90CF90CF
:102F000008954AE0DF91CF91FF90EF90DF90CF904E
:102F100095CFBC01990F880B990BD3CF82CF882313
:102F200019F081EF98E0FACF8AEE98E0FCCF2F926B
:102F30003F924F925F926F927F928F929F92AF9249
:102F4000BF92CF92DF92EF92FF920F931F93CF9396
:102F5000DF9300D000D01F921F92CDB7DEB71C01C7
:102F6000FC01E557FF4F10823196108283579F4F27
:102F7000FC011082D101A257BF4F1C9233961082E0
:102F800026013701441A550A660A770A49825A828D
:102F90006B827C8277FE0CC0709460945094409455
:102FA000411C511C611C711C49825A826B827C82BB
:102FB0004C155D056E057F0534F568017901C41A6D
:102FC000D50AE60AF70A49805A806B807C8075949E
:102FD0006794579447944D825E826F827886810110
:102FE00000571F4F49805A806B807C804C145D04D1
:102FF0006E047F0488F4F10164AC75AC81E08C93BD
:10300000F801808327C0B901A8014C195D096E0938
:103010007F096A017B01D7CF4D805E806F80788405
:103020004C145D046E047F0408F4C6C04AA05BA083
:103030006CA07DA04C145D046E047F040CF083C072
:103040006E8C7F8C2FEF621A720A21E0FC012083C4
:10305000F8012083F1018489882309F45AC00E9471
:10306000AC0AF10102891389012E000C220B330BEB
:10307000601B710B820B930B693E734081059105B8
:1030800008F447C00E94AC0AF101738B628B82EA9C
:1030900093E044DF86EA93E041DF60E070E0CB013B
:1030A00010DF8CEA93E03ADFC701B6010ADF82EB5A
:1030B00093E034DF69817A818B819C8102DF88EB28
:1030C00093E02CDF4AE06D817E818F819885B6DEAA
:1030D0008FEB93E023DF6AA17BA18CA19DA1F1DEA0
:1030E00085EC93E01BDFC501B401EBDE8BEC93E0D4
:1030F00015DF6E8D7F8D88A199A1E3DE81ED93E0D0
:103100000DDF89E897E00ADFC30103DF87E994E078
:1031100005DFC30128960FB6F894DEBF0FBECDBF02
:10312000DF91CF911F910F91FF90EF90DF90CF90A3
:10313000BF90AF909F908F907F906F905F904F90D7
:103140003F902F900895C701B6010E94FD602B01AA
:103150003C016AA17BA18CA19DA10E94FD609B0105
:10316000AC01C301B2010E94EB622B013C016E8DE8
:103170007F8D88A199A1681979098A099B090E9404
:10318000FD609B01AC01C301B2010E945C612B0197
:103190003C01C501B4010E94FD609B01AC01C3016B
:1031A000B2010E9487620E9453633B0181E0F101FA
:1031B000E557FF4F808324CF89819A81AB81BC8101
:1031C0004AA05BA06CA07DA084199509A609B70947
:1031D000C816D906EA06FB0654F46E8C7F8C22E0F2
:1031E000620E711C81E0F101E357FF4FE3CF69816B
:1031F0007A818B819C816C197D098E099F090E94BF
:10320000FD602B013C016AA17BA18CA19DA10E94C4
:10321000FD609B01AC01C301B2010E94EB622B0176
:103220003C016E8D7F8D88A199A1681979098A0961
:103230009B090E94FD609B01AC01C301B2010E9489
:103240005C612B013C01C501B4010E94FD609B0142
:10325000AC01C301B2010E9487620E9453633B012B
:1032600081E0F101E457FF4FA5CF2F923F924F929B
:103270005F926F927F928F929F92AF92BF92CF9206
:10328000DF92EF92FF920F931F93CF93DF93EC01A6
:103290003C012EE5620E711CD3014D915D916D9143
:1032A0007C918C010E591F4FF80180819181A28180
:1032B000B3812E01F6E64F0E511CF201F0809E0103
:1032C00028573F4F5901B3961F01FF20D1F12C53CE
:1032D0003109F9012081F501208321E0F1012083EA
:1032E000411551056105710579F42081FE01E15810
:1032F000FF4F222309F44DC088AC99ACAAACBBACFB
:1033000080829182A282B3825E01FAE5AF0EB11C87
:10331000F501C080D180E280F380C816D906EA06A4
:10332000FB06E4F5481759076A077B070CF441C010
:10333000D2018C9181113DC0FE01E957FF4F1082EF
:10334000BFC021E0481759076A077B070CF020E04F
:10335000F50120836A017B0177FF07C0CC24DD24BF
:103360007601C41AD50AE60AF70A4C015D01B7FFD7
:1033700007C0882499245401881A990AAA0ABB0A0A
:1033800021E0C814D904EA04FB040CF0A7CF20E024
:10339000A5CF8CA89DA8AEA8BFA8B2CF8C159D05BF
:1033A000AE05BF052CF684179507A607B7070CF0E6
:1033B000BFCFFE01E957FF4F8081882309F4BCCFBE
:1033C000F201808181110DC0D2018C918111B4CFA5
:1033D000D1016C9181E06827CE01CED88111ACCFAC
:1033E00005C060E0CE01C8D88111EECFF801C080E1
:1033F000D180E280F380D3010D911D912D913C91FC
:10340000F5014081518162817381D101EC91CE013E
:1034100081589F4F2C01E1112AC08CA89DA8AEA80D
:10342000BFA8FE01E05CFF4F83818F9382818F9361
:1034300081818F93E081EF93EFA5EF93EEA5EF935A
:10344000EDA5EF93ECA5EF93CE0171DDB0E0A0E028
:10345000F20180839183A283B3832DB73EB7285FA7
:103460003F4F0FB6F8943EBF0FBE2DBF29C088ACAA
:1034700099ACAAACBBACFE01EC5BFF4F83818F9390
:1034800082818F9381818F93E081EF93EBA9EF93FA
:10349000EAA9EF93E9A9EF93E8A9EF93CE0147DDFD
:1034A000B0E0A0E0F20180839183A283B3832DB7C3
:1034B0003EB7285F3F4F0FB6F8943EBF0FBE2DBFFB
:1034C00060E0CE0159D8882331F0D3011D921D92BE
:1034D0001D921C921397DF91CF911F910F91FF9036
:1034E000EF90DF90CF90BF90AF909F908F907F90A4
:1034F0006F905F904F903F902F900895CF93DF9300
:10350000EC0187ED93E00ADD6AA17BA18CA19DA16E
:10351000D8DC87E994E0DF91CF9100CD0F931F9322
:10352000CF93DF938C01EB0184E893E0F7DC89E82B
:1035300097E0F4DCF80184810E94C208CE01E9DC46
:10354000E0DBDF91CF911F910F91D8CFEF92FF92E7
:103550000F931F93CF93DF93182F092F7B016115D2
:10356000710569F50E947C0931E020E0019709F0BE
:1035700030E0C32FD22F82E0E816F10408F045C0F6
:103580008AED93E0CBDC89E897E0C8DC8EED93E030
:10359000C5DC812F902FBDDC89E897E0BFDC84E19A
:1035A00097E0BCDCCE01B5DCACDBA8DF90E080E0CE
:1035B000DF91CF911F910F91FF90EF900895D0E090
:1035C000C0E061307105B9F6812F163310F08AEC36
:1035D000810F20917B00982F9870277F922B9093DA
:1035E0007B008770806480937C0080917A00806487
:1035F00080937A0080917A0086FDFCCF80917800DC
:10360000C0917900DC2FC82FB6CF81E090E0D0CFF9
:103610000F931F93CF93DF93FC01208131812115FC
:103620003105C1F1EC01822F0E947C0921E0892B38
:1036300009F420E02B876A85261701F11E821F827C
:10364000188619860E811F81288539858A819B817C
:10365000AC81BD81081719072A073B07DCF081E020
:10366000682788810E94A409D8DA70E060E0888128
:103670009981DF91CF911F910F9168CF8E819F81AA
:10368000A885B9850196A11DB11D8E839F83A8874A
:10369000B987D8CFDF91CF911F910F910895CF9324
:1036A000DF93EB01BADA6AA97BA98E8D9F8D4EDF7D
:1036B00090E080E0DF91CF910895CF92DF92EF927A
:1036C000FF92CF93DF93EB01CB010E945107882338
:1036D00051F1FE01EE0FFF1FEE0FFF1FE654F54FF5
:1036E000C080D180E280F38080EE93E017DC89E82F
:1036F00097E014DC8EED93E011DCCE010ADC89E862
:1037000097E00CDC84E197E009DCC701B601D9DB66
:10371000F8DAF4DE90E080E0DF91CF91FF90EF9057
:10372000DF90CF90089584EE93E0F8DBF3CF0F9312
:103730001F93CF93DF938C01D0E0C0E0CE010E94B5
:103740005107882319F0BE01C801B7DF2196C13E99
:10375000D105A1F7DF91CF911F910F91089586E0D8
:1037600094E0DCDB84E392E0D9DB88E092E0D6DB16
:103770008BE094E0D3DBC5DAC1DE90E080E0089511
:10378000CF93DF93EC0185E194E0C8DB89E194E01D
:10379000C5DB8C8DC4DB8DE194E0C0DB8D8DBFDBA0
:1037A00081E294E0BBDB8E8DBADB85E294E0B6DB90
:1037B0008F8DB5DB89E294E0B1DB88A1B0DB8DE2CF
:1037C00094E0ACDB89A1ABDBCE01DF91CF9196CE4B
:1037D00098DAD6CF81E394E0A1DB93DAD9DA91DAF3
:1037E000CFDF1BDA70E060E088E090E0AFDE15DA52
:1037F00070E060E089E090E0A9DE0FDA70E060E060
:103800008AE090E0A3DE09DA70E060E08DE090E00D
:103810009DDE90E080E008954F925F926F927F92DC
:103820008F929F92AF92BF92CF92DF92EF92FF92D0
:103830000F931F93CF936B017C01742EAC019B01FE
:103840000E948863882391F088E394E0CF911F91D0
:103850000F91FF90EF90DF90CF90BF90AF909F902F
:103860008F907F906F905F904F90DBCA4601570119
:10387000E894B7F82FEF3FEF4FE75FE7C501B401DA
:103880000E94886381110DC02FEF3FEF4FE75FE784
:10389000C501B4010E94F76018161CF48CE394E093
:1038A000D5CF2FEF3FEF4FE75FE4C701B6010E948E
:1038B000846318161CF480E494E0C8CF2FEF3FEF28
:1038C0004FE75FECC701B6010E94F76087FDF3CFB9
:1038D00020E030E0A901C701B6010E94F76010E0C6
:1038E00000E087FF08C08DE20E94C2088C01F7FA51
:1038F000F094F7F8F094C0E060E070E080E09FE3BF
:103900007C1641F020E030E040E251E40E94EB629E
:10391000CF5FF6CFA70196010E9487622B013C0181
:103920000E9458634B015C014AE088DA7C01E00E9A
:10393000F11ECC23A9F1C501B4010E94FB609B01DB
:10394000AC01C301B2010E9486624B015C018EE2B0
:103950000E94C208E80EF91EC15010F120E030E0CC
:1039600040E251E4C501B4010E945C612B013C01BD
:103970000E9458634B01B12CA12C4AE0C501B4014F
:103980005DDAE80EF91EC501B4010E94FB609B01DF
:10399000AC01C301B2010E9486624B015C01DCCF25
:1039A000C701CF911F910F91FF90EF90DF90CF90C3
:1039B000BF90AF909F908F907F906F905F904F904F
:1039C00008958F929F92AF92BF92CF92DF92EF9223
:1039D000FF920F931F93CF93DF93EC0180E492E06B
:1039E0009DDA89E594E09ADA6E018AE0C81A8EEFD2
:1039F000D80AC6010E9414100E94FD604B015C01B0
:103A0000FE01ED5BFC4F60817181828193810E9498
:103A1000FD609B01AC01C501B4010E94EB6242E074
:103A2000FBDE89E694E07ADA7E01EAEDEE1AEDEF4C
:103A3000FE0AC7010E9414100E94FD604B015C0148
:103A4000FE01E95BFC4F60817181828193810E945C
:103A5000FD609B01AC01C501B4010E94EB6242E034
:103A6000DBDE89E794E05ADA8E010A5A1D4FC8015D
:103A70000E9414100E94FD604B015C01C55BDC4F8D
:103A8000688179818A819B810E94FD609B01AC01E4
:103A9000C501B4010E94EB6242E0BEDE32D92EDDE8
:103AA0008CE392E03BDA89E594E038DAF601A68D02
:103AB000B78D20893189428953890E944F6201DA8A
:103AC00089E694E02BDAF701A68DB78D208931893C
:103AD000428953890E944F62F4D989E794E01EDA43
:103AE000F801A68DB78D20893189428953890E94BA
:103AF0004F62E7D906D9DF91CF911F910F91FF90C7
:103B0000EF90DF90CF90BF90AF909F908F90F6CCCA
:103B1000CF92DF92EF92FF92CF93DF93EC018881F7
:103B20009981AA81BB81181619061A061B0644F052
:103B300081E090E0A0E0B0E088839983AA83BB8312
:103B40008C819D81AE81BF81181619061A061B064D
:103B500044F081E090E0A0E0B0E08C839D83AE83F0
:103B6000BF8388859985AA85BB85181619061A060C
:103B70001B0644F081E090E0A0E0B0E088879987E0
:103B8000AA87BB8784E494E0C9D989E594E0C6D9C3
:103B90006E857F85888999890E94FD606B017C0113
:103BA000688179818A819B810E94FD609B01AC01C3
:103BB000C701B6010E94EB6242E02EDE89E694E086
:103BC000ADD96A897B898C899D890E94FD606B01D2
:103BD0007C016C817D818E819F810E94FD609B01B3
:103BE000AC01C701B6010E94EB6242E015DE89E735
:103BF00094E094D96E897F89888D998D0E94FD60AB
:103C00006B017C01688579858A859B850E94FD60B2
:103C10009B01AC01C701B6010E94EB6242E0FCDDF2
:103C2000CE01DF91CF91FF90EF90DF90CF9066CCE7
:103C300068D86EDF90E080E00895FC01808191817A
:103C4000009711F00C941A5C08950C941A5C0C9473
:103C50001A5C0C941A5C0C941A5C0C941A5C0C940C
:103C60001A5C0C941A5C0C941A5C0C941A5C0C94FC
:103C70001A5C0C941A5C0C941A5C0C941A5C0C94EC
:103C80001A5C0C941A5C0C941A5C0C941A5C0C94DC
:103C90001A5C0C941A5C0C941A5C0C941A5C0C94CC
:103CA0001A5C0C941A5CCF92DF92EF92FF920F9302
:103CB0001F93CF93DF938C016A017B01EC01CC0F42
:103CC000DD1F642FCE010E941B629927F7FC9A9595
:103CD0008F2D7E2D6D2DCE0101960E941B620D58F9
:103CE00011090330110588F4B701992777FD9095E4
:103CF000892FCE0144960E941B626F2D772788275B
:103D00009927CE0145960E941B6290E080E0DF91EA
:103D1000CF911F910F91FF90EF90DF90CF9008957A
:103D20004F925F926F927F928F929F92AF92BF92CB
:103D3000CF92DF92EF92FF920F931F93CF93DF9377
:103D40008C01EC01CC0FDD1FCE010E941362882E86
:103D5000912CB12CA12CCE0101960E941362C82E89
:103D6000D12CF12CE12C0D5811090330110508F06C
:103D70005AC0CE0144960E941362482E512C712CD9
:103D8000612CCE0145960E941362082F10E030E0AE
:103D900020E08FEF481651046104710429F50F3FAC
:103DA00011052105310501F58FEF88169104A10455
:103DB000B104C9F58FEFC816D104E104F10499F5F7
:103DC0006FEF7FEFCB01DF91CF911F910F91FF90AC
:103DD000EF90DF90CF90BF90AF909F908F907F90AB
:103DE0006F905F904F9008950038110521053105BF
:103DF0003CF7FE2CED2CDC2CCC24C701B601680D61
:103E0000791D8A1D9B1D320155244424640D751DA6
:103E1000861D971D302F222711270027600F711F45
:103E2000821F931FD0CF00E010E09801412C512C4D
:103E3000320180E8C816D104E104F104D4F2C0CF05
:103E4000EF92FF920F931F93CF93DF9380919B0983
:103E500090919C09892B51F586E090E00E947E5B51
:103E60007C0190E080E05CDF1616170654F1C70174
:103E70000E940110D0E0C0E0CE010E9451078823CB
:103E800069F0FE01EE0FFF1FEE0FFF1FE654F54F26
:103E90004081518162817381CE0105DF2196C6394F
:103EA000D10551F7F0929C09E0929B0980919B0902
:103EB00090919C09DF91CF911F910F91FF90EF900E
:103EC000089583E090E02CDF613071058105910554
:103ED00031F50AEB1AE0D0E0C0E0CE010E945107B4
:103EE0008823B1F0CE011CDFF801608371838283E7
:103EF00093836F3F7F4F8F4F9F4F51F4CE010E94AE
:103F0000D101F8014081518162817381CE01CBDE04
:103F100021960C5F1F4FC13ED105F9F6C3CFC701F3
:103F20000E940110BFCFCF92DF92EF92FF920F93CA
:103F30001F93CF93DF937C016B018A01E90180DF3E
:103F4000F601EE0FFF1FEE0FFF1FE654F54F8081C5
:103F50009181F7019183808373DF000F111F000FA0
:103F6000111FF801E654F54F81E0408151816281D3
:103F70007381413051056105710509F080E0F70159
:103F800082875EDFCC0FDD1FCC0FDD1FC654D54FFF
:103F900088819981AA81BB81F70182839383A4835D
:103FA000B5831682178210861186DF91CF911F91FB
:103FB0000F91FF90EF90DF90CF900895CF93DF9314
:103FC000EC012AEC30E04BEC50E069EC70E0ABDF48
:103FD0002EEC30E04FEC50E06DEC70E0CE010C9632
:103FE000A2DF24ED30E045ED50E063ED70E0CE015E
:103FF000489699DF28ED30E049ED50E067ED70E03C
:10400000CE01849690DF2EED30E04FED50E06DED67
:1040100070E0CE01C096DF91CF9185CFCF93DF9333
:1040200080919F099091A009892BA1F48CE390E0E5
:104030000E947E5BEC01198218821D861C86198EF7
:10404000188E1DA21CA219AA18AAB8DFD093A00925
:10405000C0939F0980919F099091A009DF91CF9112
:1040600008950F931F93CF93DF93EC01E9DEFE01D8
:10407000E758FC4F8091760C9091770C9183808368
:10408000DFDEFE01E558FC4F80917A0C90917B0CAD
:1040900091838083D5DEFE01E358FC4F80917E0C36
:1040A00090917F0C91838083CBDE8E0101581C4F51
:1040B00060919E0C70919F0C8091A00C9091A10C2E
:1040C0000E94FD60F8016083718382839383B8DE70
:1040D0000C5F1F4F6091A20C7091A30C8091A40CF7
:1040E0009091A50C0E94FD60F8016083718382832A
:1040F0009383A6DE0C5F1F4F6091A60C7091A70CF6
:104100008091A80C9091A90C0E94FD60F801608339
:1041100071838283938394DEFE01E257FC4F80918A
:104120005E0C90915F0C918380838ADEFE01E057E4
:10413000FC4F8091620C9091630C9183808380DEB0
:10414000FE01EE56FC4F8091660C9091670C9183B6
:10415000808376DEFE01EC56FC4F8091860C9091B8
:10416000870CA091880CB091890C80839183A283E5
:10417000B38366DEFE01E856FC4F80918A0C909175
:104180008B0CA0918C0CB0918D0C80839183A283B9
:10419000B38356DEFE01E456FC4F80918E0C909165
:1041A0008F0CA091900CB091910C80839183A2838D
:1041B000B38346DEFE01E056FC4F8091AE0C909139
:1041C000AF0C918380833CDEFE01EE55FC4F809165
:1041D000B20C9091B30C9183808332DEFE01EC55DA
:1041E000FC4F8091B60C9091B70C9183808328DEB0
:1041F000FE01EA55FC4F8091C60C9091C70C91834B
:1042000080831EDEFE01E855FC4F8091CA0C909120
:10421000CB0C9183808314DEFE01E655FC4F809128
:10422000CE0C9091CF0C918380830ADE80914E0C4E
:1042300090914F0CA091500CB091510CFE01E5579C
:10424000FC4F0197A105B10551F581E08083F8DDB0
:104250008091520C9091530CA091540CB091550C3C
:10426000FE01E457FC4F0197A105B105D1F481E0AF
:104270008083E6DD8091560C9091570CA091580CEC
:10428000B091590CC357DC4F0197A105B10559F402
:1042900081E08883DF91CF911F910F910895108263
:1042A000D6CF1082E6CF1882F5CF2F923F924F9251
:1042B0005F926F927F928F929F92AF92BF92CF92B6
:1042C000DF92EF92FF920F931F93CF93DF93CDB7BF
:1042D000DEB76F970FB6F894DEBF0FBECDBF9B8FD2
:1042E0008A8FAEDDEA8DFB8DEF55FD4F81E0409169
:1042F000860B5091870B6091880B7091890B452B31
:10430000462B472B09F480E080839ADDEA8DFB8DF4
:10431000EE55FD4F81E040918A0B50918B0B6091DF
:104320008C0B70918D0B452B462B472B09F480E0AD
:10433000808386DDEA8DFB8DED55FD4F81E0409158
:104340008E0B50918F0B6091900B7091910B452BC0
:10435000462B472B09F480E0808372DD8091D60BD9
:104360009091D70BA091D80BB091D90BEA8DFB8D12
:10437000EC55FD4F80839183A283B38361DD8091EF
:10438000DA0B9091DB0BA091DC0BB091DD0BEA8D89
:10439000FB8DE855FD4F80839183A283B38350DD6D
:1043A0008091DE0B9091DF0BA091E00BB091E10BBF
:1043B000EA8DFB8DE455FD4F80839183A283B38307
:1043C0003FDD8091D60B9091D70BA091D80BB09187
:1043D000D90BEA8DFB8DE055FD4F80839183A2833D
:1043E000B3832EDD8091DA0B9091DB0BA091DC0B77
:1043F000B091DD0BEA8DFB8DEC54FD4F80839183F2
:10440000A283B3831DDD8091E20B9091E30BA09119
:10441000E40BB091E50BEA8DFB8DE854FD4F8083F2
:104420009183A283B3830CDD8091AE0B9091AF0B8F
:10443000A091B00BB091B10BEA8DFB8DE853FD4F0D
:1044400080839183A283B383FBDC8091B20B909134
:10445000B30BA091B40BB091B50BEA8DFB8DE45377
:10446000FD4F80839183A283B383EADC8091B60BF6
:104470009091B70BA091B80BB091B90BEA8DFB8D61
:10448000E053FD4F80839183A283B383D9DC809175
:10449000AE0B9091AF0BA091B00BB091B10BEA8D28
:1044A000FB8DEC52FD4F80839183A283B383C8DCE4
:1044B0008091B20B9091B30BA091B40BB091B50B5E
:1044C000EA8DFB8DE852FD4F80839183A283B383F5
:1044D000B7DC8091BA0B9091BB0BA091BC0BB09153
:1044E000BD0BEA8DFB8DE452FD4F80839183A28347
:1044F000B383A6DC8091BE0B9091BF0BA091C00B43
:10450000B091C10BEA8DFB8DE052FD4F808391830A
:10451000A283B38395DC8091C20B9091C30BA091D1
:10452000C40BB091C50BEA8DFB8DEC51FD4F808320
:104530009183A283B38384DC8091C60B9091C70BD7
:10454000A091C80BB091C90BEA8DFB8DE851FD4FCE
:1045500080839183A283B38373DC80915E0B9091FF
:104560005F0BA091600BB091610BEA8DFB8DE45164
:10457000FD4F80839183A283B38362DC8091620BC1
:104580009091630BA091640BB091650BEA8DFB8D4C
:10459000E051FD4F80839183A283B38351DC8091EE
:1045A000660B9091670BA091680BB091690BEA8D37
:1045B000FB8DEC50FD4F80839183A283B38340DC5D
:1045C00080915E0B90915F0BA091600BB091610B9D
:1045D000EA8DFB8DE850FD4F80839183A283B383E6
:1045E0002FDC8091620B9091630BA091640BB091D2
:1045F000650BEA8DFB8DE450FD4F80839183A28390
:10460000B3831EDC80916A0B90916B0BA0916C0BB5
:10461000B0916D0BEA8DFB8DFD5F80839183A2834A
:10462000B3830EDCEA8DFB8DEC5FFC4F81E02091C3
:10463000360B3091370B2130310509F080E0808353
:10464000FFDBEA8DFB8DEB5FFC4F81E020913A0BA5
:1046500030913B0B2130310509F080E08083F0DBA5
:10466000EA8DFB8DEA5FFC4F81E020913E0B30919B
:104670003F0B2130310509F080E08083E1DBEA8DDA
:10468000FB8DE25DFC4F81E040910E0B50910F0BD2
:104690006091100B7091110B452B462B472B09F4A1
:1046A00080E08083CDDBEA8DFB8DE15DFC4F81E016
:1046B0004091120B5091130B6091140B7091150BDC
:1046C000452B462B472B09F480E08083B9DBEA8D2C
:1046D000FB8DE05DFC4F81E04091160B5091170B74
:1046E0006091180B7091190B452B462B472B09F441
:1046F00080E08083A5DBEA8DFB8DEF5CFC4F81E0E1
:104700004091E60B5091E70B6091E80B7091E90B3B
:10471000452B462B472B09F480E0808391DBEA8D03
:10472000FB8DEE5CFC4F81E04091EA0B5091EB0B6E
:104730006091EC0B7091ED0B452B462B472B09F448
:1047400080E080837DDBEA8DFB8DED5CFC4F81E0BA
:104750004091EE0B5091EF0B6091F00B7091F10BCB
:10476000452B462B472B09F480E0808369DBEA8DDB
:10477000FB8DEC5CFC4F81E020911E0B30911F0BF8
:104780002130310509F080E080835ADBEA8DFB8D12
:10479000EB5CFC4F81E02091220B3091230B213008
:1047A000310509F080E080834BDBEA8DFB8DEA5C0C
:1047B000FC4F81E02091260B3091270B21303105F1
:1047C00009F080E080833CDB8091E60A9091E70A63
:1047D000A091E80AB091E90AEA8DFB8DE95CFC4FF3
:1047E00080839183A283B3832BDB8091EA0A90912B
:1047F000EB0AA091EC0AB091ED0AEA8DFB8DE55C25
:10480000FC4F80839183A283B3831ADB8091EE0AED
:104810009091EF0AA091F00AB091F10AEA8DFB8D18
:10482000E15CFC4F80839183A283B38309DBEA8D33
:10483000FB8DEE5DFC4F81E04091F60A5091F70A46
:104840006091F80A7091F90A452B462B472B09F421
:1048500080E08083F5DAEA8DFB8DED5DFC4F81E031
:104860004091FA0A5091FB0A6091FC0A7091FD0A8E
:10487000452B462B472B09F480E08083E1DAEA8D53
:10488000FB8DEC5DFC4F81E04091FE0A5091FF0AE8
:104890006091000B7091010B452B462B472B09F4BF
:1048A00080E08083CDDA8091EE0C9091EF0CA091A6
:1048B000F00CB091F10CEA8DFB8DE95FFC4F808329
:1048C0009183A283B383BCDA8091F20C9091F30CB4
:1048D000A091F40CB091F50CEA8DFB8DE55FFC4FD7
:1048E00080839183A283B383ABDA8091F60C90919D
:1048F000F70CA091F80CB091F90CEA8DFB8DE15FFB
:10490000FC4F80839183A283B3839ADAEA8DFB8D77
:10491000EB5DFC4F81E020914E0B30914F0B21302D
:10492000310509F080E08083EA8DFB8DEA5DFC4F64
:104930001082EA8DFB8DE95DFC4F108281DAEA8DF1
:10494000FB8DE85DFC4F81E020914A0B30914B0BD1
:104950002130310509F080E08083EA8DFB8DE75D31
:10496000FC4F1082EA8DFB8DE65DFC4F108268DA09
:10497000EA8DFB8DE55DFC4F81E020916E0B30915F
:104980006F0B2130310509F080E0808359DAEA8D20
:10499000FB8DE45DFC4F81E02091720B3091730B35
:1049A0002130310509F080E080834ADAEA8DFB8D01
:1049B000E35DFC4F81E02091760B3091770B213045
:1049C000310509F080E080833BDAEA8DFB8DED5EF6
:1049D000FC4F81E02091FE0C3091FF0C213031051D
:1049E00009F080E080832CDAEA8DFB8DEC5EFC4FD1
:1049F00081E02091020D3091030D2130310509F045
:104A000080E080831DDAEA8DFB8DEB5EFC4F81E058
:104A10002091060D3091070D2130310509F080E01D
:104A200080830EDA80913E0D90913F0DA091400D54
:104A3000B091410DEA8DFB8DEA5EFC4F808391833E
:104A4000A283B383FDD98091420D9091430DA09133
:104A5000440DB091450DEA8DFB8DE65EFC4F8083E1
:104A60009183A283B383ECD98091460D9091470D39
:104A7000A091480DB091490DEA8DFB8DE25EFC4F8F
:104A800080839183A283B383DBD90A8D1B8D0D5B59
:104A90001C4F8091960B9091970BA091980BB09121
:104AA000990BF80180839183A283B383C9D9EA8CDF
:104AB000FB8CF9EBEF1AFCEFFF0A80919A0B9091B7
:104AC0009B0BA0919C0BB0919D0BF7018083918370
:104AD000A283B383B5D980919E0B90919F0BA09137
:104AE000A00BB091A10BCA8CDB8CF5EBCF1AFCEFBD
:104AF000DF0AF60180839183A283B383F8014081AA
:104B0000518162817381141615061606170644F04A
:104B100041E050E060E070E0408351836283738342
:104B2000F7014081518162817381141615061606C2
:104B3000170644F041E050E060E070E040835183AC
:104B400062837383181619061A061B064CF081E05F
:104B500090E0A0E0B0E0F60180839183A283B3836C
:104B60000E948116FC01D6018D909D90AD90BC9065
:104B7000D7014D915D916D917C91D8010D911D9161
:104B80002D913C9100831183228333834483558389
:104B90006683778380869186A286B386EA8DFB8DB5
:104BA0007096FA83E983EA8DFB8DED5EFC4F808081
:104BB0008B82EA8DFB8DE95FFC4F408051806280E3
:104BC0007380EA8DFB8DE55DFC4F90809A86EA8DBF
:104BD000FB8DEC5CFC4FA080AC82EA8DFB8DEB5D25
:104BE000FC4FB080BD82EA8DFB8DE85DFC4F2081DB
:104BF0002E83EA8DFB8DEF5CFC4F80818E87EA8DE2
:104C0000FB8DE25DFC4F90819A8BEA8DFB8DEC5F12
:104C1000FC4F2080EA8DFB8DEF55FD4F3080EA8DF3
:104C2000FB8DE95CFC4F80809180A280B380EA8D8F
:104C3000FB8DE451FD4F80819181A281B381EA8D8A
:104C4000FB8DE052FD4FC080D180E280F380EA8D81
:104C5000FB8DE853FD4F4081518162817381EA8D64
:104C6000FB8DEC55FD4F0081118122813381EA8D4E
:104C7000FB8D04AF15AF26AF37AFEC5BFF4F408322
:104C8000518362837383EA8DFB8DE05BFF4F8083EA
:104C90009183A283B383EA8DFB8DE05CFF4F008399
:104CA000118322833383EA8DFB8DE85BFF4F4083C2
:104CB000518362837383EA8DFB8DEC5AFF4F8083AF
:104CC0009183A283B383EA8DFB8DE45BFF4FC082A7
:104CD000D182E282F382EA8DFB8DE85AFF4F808217
:104CE0009182A282B382EA8DFB8DE45AFF4F30821B
:104CF000EA8DFB8DE35AFF4F2082EA89AA8DBB8D96
:104D0000D996EC93D997FE85DA96FC93DA978C8046
:104D1000DB968C9280E490E0A0E0B0E0EA8DFB8D21
:104D2000E05AFF4F80839183A283B383EA8DFB8D8A
:104D3000E25AFF4F9E809082EA8DFB8DE15AFF4F31
:104D4000AD80A082EA8DFB8DEC59FF4FBA84B08212
:104D5000EA8DFB8DEB59FF4F408251826282738254
:104D6000EA8DFB8DE759FF4F2B812083AA8DBB8DE8
:104D700099968D919C919A978633910509F0E6C298
:104D800080E491E1FD01EE55FF4F918380833296DF
:104D90001182108282E491E136969183808332966B
:104DA00011821082EA8DFB8D87A590A94A97D1F4D4
:104DB00084E591E1EA55FF4F91838083EA8DFB8D75
:104DC000E855FF4F1182108286E591E1EA8DFB8D57
:104DD000E255FF4F91838083EA8DFB8DE055FF4FB5
:104DE000118210820A8D1B8D0E541F4FEA8DFB8D90
:104DF000EC5EFC4F80808B82EA8DFB8DE55FFC4F83
:104E000080819181A281B3818A879B87AC87BD878E
:104E1000EA8DFB8DE45DFC4F90819C83EA8DFB8DD8
:104E2000EB5CFC4FA081AD83EA8DFB8DEA5DFC4F0E
:104E3000B081BE83EA8DFB8DE75DFC4F80808E865E
:104E4000EA8DFB8DEE5CFC4F2080EA8DFB8DE15DF1
:104E5000FC4F3080EA8DFB8DEB5FFC4F3081EA8D9B
:104E6000FB8DEE55FD4F2081EA8DFB8DE55CFC4FFF
:104E70004081518162817381EA8DFB8DE051FD4F4C
:104E800080819181A281B381EA8DFB8DEC51FD4F30
:104E9000C080D180E280F380EA8DFB8DE453FD4F2A
:104EA00080809180A280B380EA8DFB8DE855FD4F14
:104EB0004080518062807380F80144A655A666A6A2
:104EC00077A684AA95AAA6AAB7AAEA8DFB8DEE506A
:104ED000FF4F80839183A283B383F80140AA51AA34
:104EE00062AA73AA80AE91AEA2AEB3AEEA8DFB8D7C
:104EF000EA50FF4F80839183A283B383D801DC966D
:104F0000CD92DD92ED92FC92DF97EA8DFB8DE6501B
:104F1000FF4F4083518362837383EA8DFB8DE250A0
:104F2000FF4F2083EA8DFB8DE150FF4F3083999630
:104F30003C9299979A962C929A97ED819B96EC9336
:104F400080E490E0A0E0B0E0EA8DFB8DEE5FFE4FE4
:104F500080839183A283B383EA8DFB8DF3958E8446
:104F60008082EA8DFB8DEF5FFE4F9E809082EA8DFE
:104F7000FB8DEA5FFE4FAC80A082EA8DFB8DE95F7E
:104F8000FE4F8A859B85AC85BD8580839183A283F6
:104F9000B383EA8DFB8DE55FFE4F9B819083D80143
:104FA00059968D919C918633910509F001C280E458
:104FB00091E1EA8DFB8DEC5BFE4F91838083EA8D5E
:104FC000FB8DEA5BFE4F1182108282E491E1EA8D53
:104FD000FB8DE45BFE4F91838083EA8DFB8DE25B6A
:104FE000FE4F11821082F801878D90A14A97E1F45B
:104FF00084E591E1EA8DFB8DE85BFE4F9183808330
:10500000EA8DFB8DE65BFE4F1182108286E591E111
:10501000EA8DFB8DE05BFE4F91838083EA8DFB8DF3
:10502000EE5AFE4F11821082EA8CFB8CFCEAEF1ADA
:10503000FEEFFF0AEA8DFB8DEB5EFC4F80808B82DA
:10504000EA8DFB8DE15FFC4F80819181A281B3816C
:105050008A879B87AC87BD87EA8DFB8DE35DFC4F1C
:1050600090819C83EA8DFB8DEA5CFC4F3080EA8D59
:10507000FB8DE95DFC4FA081AD83EA8DFB8DE65D84
:10508000FC4F2080EA8DFB8DED5CFC4FC080EA8DEB
:10509000FB8DE05DFC4FD080EA8DFB8DEA5FFC4F1D
:1050A0003081EA8DFB8DED55FD4F2081EA8DFB8D22
:1050B000E15CFC4F80809180A280B3808E829F82D1
:1050C000A886B986EA8DFB8DFD5F80819181A281E2
:1050D000B3818E879F87A88BB98BEA8DFB8DEC50AF
:1050E000FD4F80809180A280B3808C8E9D8EAE8E8D
:1050F000BF8EEA8DFB8DE851FD4F80819181A281A9
:10510000B3818A8B9B8BAC8BBD8BEA8DFB8DE4527C
:10511000FD4F80819181A281B381EA8DFB8DE053A7
:10512000FD4F4080518062807380EA8DFB8DE85492
:10513000FD4F4081518162817381EA8DFB8DE45581
:10514000FD4F80809180A280B380F70184A695A650
:10515000A6A6B7A644AA55AA66AA77AAEA8DFB8D89
:10516000EC56FE4F8C8C9D8CAE8CBF8C80829182D5
:10517000A282B382F70140AB51AB62AB73AB80AF9D
:1051800091AFA2AFB3AFEA8DFB8DE856FE4F8E8490
:105190009F84A888B98880829182A282B3828A89FA
:1051A0009B89AC89BD89F70184AF95AFA6AFB7AF36
:1051B000EA8DFB8DE456FE4F8E809F80A884B984D3
:1051C00080829182A282B382EA8DFB8DE056FE4FEF
:1051D0002083EA8DFB8DEF55FE4F3083D7019996E2
:1051E000DC9299979A96CC929A979B963C9280E4FF
:1051F00090E0A0E0B0E0EA8DFB8DEC55FE4F80839F
:105200009183A283B383EA8DFB8DEE55FE4F2082FE
:10521000EA8DFB8DED55FE4FBD81B083EA8DFB8D90
:10522000E855FE4F8C808082EA8DFB8DE755FE4F5E
:105230008A859B85AC85BD8580839183A283B3835A
:10524000EA8DFB8DE355FE4F9B819083D7015996E4
:105250008D919C918633910509F0D2C080E491E153
:10526000EA8DFB8DEA51FE4F91838083EA8DFB8DA1
:10527000E851FE4F1182108282E491E1EA8DFB8DAC
:10528000E251FE4F91838083EA8DFB8DE051FE4F0A
:1052900011821082F701878D90A14A97E1F484E58D
:1052A00091E1EA8DFB8DE651FE4F91838083EA8D7B
:1052B000FB8DE451FE4F1182108286E591E1EA8D6B
:1052C000FB8DEE50FE4F91838083EA8DFB8DEC5079
:1052D000FE4F11821082EA8DFB8DEE5DFC4F8081C6
:1052E000882309F4B5C089819A810E942212EA8D2F
:1052F000FB8DED5DFC4F8081882309F4AEC0C801B1
:105300000E9422128A8D9B8D8C5D9C4FDC018C91BA
:10531000882309F4A6C0C7016F960FB6F894DEBFC4
:105320000FBECDBFDF91CF911F910F91FF90EF90F6
:10533000DF90CF90BF90AF909F908F907F906F90B5
:105340005F904F903F902F900C9422128C339105D8
:10535000D9F484E491E1EA8DFB8DEE55FF4F918302
:105360008083EA8DFB8DEC55FF4F1182108286E41D
:1053700091E1EA8DFB8DE655FF4F91838083EA8DA5
:10538000FB8DE455FF4F0CCD8E9709F00BCD88E4D3
:1053900091E1EA8DFB8DEE55FF4F91838083EA8D7D
:1053A000FB8DEC55FF4F118210828EE491E1E1CF2D
:1053B0008C33910589F484E491E1EA8DFB8DEC5BFB
:1053C000FE4F91838083EA8DFB8DEA5BFE4F118255
:1053D000108286E491E1FBCD8E9709F004CE88E43B
:1053E00091E1EA8DFB8DEC5BFE4F91838083EA8D2A
:1053F000FB8DEA5BFE4F118210828EE491E1E7CDD6
:105400008C33910589F484E491E1EA8DFB8DEA51B6
:10541000FE4F91838083EA8DFB8DE851FE4F118210
:10542000108286E491E12ACF8E9709F033CF88E489
:1054300091E1EA8DFB8DEA51FE4F91838083EA8DE5
:10544000FB8DE851FE4F118210828EE491E116CF60
:1054500089819A810E94E1114ACFC8010E94E1111D
:1054600051CFC7016F960FB6F894DEBF0FBECDBF08
:10547000DF91CF911F910F91FF90EF90DF90CF9030
:10548000BF90AF909F908F907F906F905F904F9064
:105490003F902F900C94E111AF92BF92CF92DF9288
:1054A000EF92FF920F931F93CF93DF93EC018AE16A
:1054B00090E09AA789A78BE190E09CA78BA789E150
:1054C00090E09EA78DA78FE090E098AB8FA78EE12C
:1054D00090E09AAB89AB8EE090E09CAB8BAB85E41F
:1054E00090E09EAB8DAB84E490E098AF8FABFE0173
:1054F000EE54FF4F80E290E0928F818F81E290E046
:10550000948F838F8FE190E0968F858F10A2178EF6
:1055100012A211A214A213A283E490E096A385A381
:1055200082E490E090A787A3EE55FF4F83E290E0DE
:10553000928F818F84E290E0948F838F82E290E05B
:10554000968F858F10A2178E12A211A214A213A2F9
:1055500081E490E096A385A380E490E090A787A3E0
:10556000E95BFE4F118210823296118210823296D0
:1055700011821082CE010E945521CE010E9431205D
:10558000CE018A509E4F41E050E0FC0157A746A74C
:10559000DE01AA5DBD4F24E030E09F963C932E9340
:1055A0009E975E01FAEAAF1AFDEFBF0A28E030E0ED
:1055B000F50137A726A720E130E0FC0131832083E5
:1055C00021E130E0358324832FEF3FEF33832283C3
:1055D00037832683628560876385618767E170E032
:1055E00011967C936E9368E170E015967C936E93B0
:1055F000149713963C932E93129717963C932E93E1
:1056000016971A966C911A9718966C9318971B9682
:105610006C911B9719966C9319976DE170E0F501E9
:10562000718360836CE170E07583648333832283CC
:10563000378326836285608763856187BE016A55EB
:105640007C4FFB01608171818E010C561C4FF8016B
:10565000C080D180E280F38006501109F8010081FA
:105660001181FC01158F048FC48AD58AE68AF78AD6
:105670006130710509F04EC0378F268FCE018855F5
:105680009C4FFC01808191819E0128563C4FF9017D
:10569000408151816281738128503109F901208153
:1056A00031815D963C932E935C9754964D935D9318
:1056B0006D937C935797019781F58FEF9FEF5F96DE
:1056C0009C938E935E97DE01A655BC4F8D919C9165
:1056D00011971E974D915D916D917C91CE56DC4F47
:1056E00028813981F501358F248F448B558B668B4A
:1056F000778B0197A9F48FEF9FEF978F868FDF91BC
:10570000CF911F910F91FF90EF90DF90CF90BF90BE
:10571000AF900895578F468FB1CF81E090E0CFCF03
:1057200081E090E0EACFEF92FF920F931F93CF9327
:10573000DF93EC010E94201F0091060C1091070CD2
:105740000E94201FE090160CF090170C0E94201F62
:1057500020912E0C30912F0C1216130614F021E01C
:1057600030E0A701B801CE018C5A9E4FDF91CF9156
:105770001F910F91FF90EF900C942C14EF92FF92D9
:105780000F931F93CF93DF93EC010E94201F009192
:10579000020C1091030C0E94201FE090120CF0905C
:1057A000130C0E94201F20912A0C30912B0C1216F2
:1057B000130614F021E030E0A701B801CE018E54A9
:1057C0009F4FDF91CF911F910F91FF90EF900C941D
:1057D0002C14EF92FF920F931F93CF93DF93EC0162
:1057E0000E94201F0091FE0B1091FF0B0E94201FB2
:1057F000E0900E0CF0900F0C0E94201F2091260CC0
:105800003091270C1216130614F021E030E0A701A6
:10581000B801CE014096DF91CF911F910F91FF907B
:10582000EF900C942C148F929F92AF92BF92CF92D4
:10583000DF92EF92FF92CF93DF937B010E94201FB4
:10584000EC01F70182A093A0A4A0B5A0C68CD78CD0
:10585000E0A0F1A08A819B818F30F7E29F070CF0D6
:1058600043C001969B838A838C819D818F3027E280
:105870009207ECF596012B7F215531092330310534
:1058800030F096012B5531092330310518F401967B
:105890009D838C83C6010E945107882359F1F6012C
:1058A000EE0FFF1FEE0FFF1FE654F54F808291822F
:1058B000A282B382B501A401C6010E94531EB601A3
:1058C000CE010E945D1B0E940E200E94DE1F90E010
:1058D00080E0DF91CF91FF90EF90DF90CF90BF906D
:1058E000AF909F908F9008951B821A82BDCF1D822A
:1058F0001C82D0CF84EE93E00E948E17E4CFCF932A
:10590000DF93EB010E94201F6E8D7F8D0E945D1B37
:1059100090E080E0DF91CF9108950E94201F0E94C7
:10592000971B88E494E00E948E170E9481160E94C3
:105930007E1A90E080E008950F931F93CF93DF933A
:10594000EC0188819981009759F02A813B812617C3
:10595000370730F081E0DF91CF911F910F910895CB
:105960008B016F5F7F4F0E94D663009759F0998338
:1059700088831B830A832C813D81232B59F7FC01EB
:105980001082E8CF80E0E7CF0F931F93CF93DF9390
:10599000EC018B01D1DF28813981811112C02115E1
:1059A000310519F0C9010E941A5C198218821D8202
:1059B0001C821B821A82CE01DF91CF911F910F9121
:1059C00008951D830C8369E974E0C9010E94C864CD
:1059D000F2CF70E060E0D8CF2F923F924F925F926B
:1059E0006F927F928F929F92AF92BF92CF92DF92EF
:1059F000EF92FF920F931F93CF93DF93CDB7DEB754
:105A0000C25AD1090FB6F894DEBF0FBECDBF8C01CC
:105A1000FC01108211821282138214821582168276
:105A200017821086118612861386148615861686AE
:105A300017864C01F0E18F0E911CC4010E94A21444
:105A4000580182EBA80EB11CC5010E94A214680186
:105A5000ECEACE1AEEEFDE0AC6010E94A21478012B
:105A6000FAE0EF1AFEEFFF0AC7010E947610380134
:105A70008AED681A8DEF780AC3010E94761028011A
:105A8000EAEA4E1AEDEF5E0AC2010E947610F801B2
:105A9000EA57FD4F118210821382128215821482FE
:105AA000CF0197DFF801E457FD4F11821082329643
:105AB00011821082329611821082329611821082E7
:105AC000329610821182128213823496108231969D
:105AD0001082319610823196118210823296118294
