:100000009DC10000CCC10000CAC10000C8C10000F1
:10001000C6C10000C4C10000C2C10000C0C10000D0
:10002000BEC10000BCC10000BAC10000B8C10000E0
:10003000B6C10000B4C10000B2C10000B0C10000F0
:10004000AEC100000C94D94CAAC10000A8C10000A8
:100050000C94074DA4C10000A2C100000C94054CF3
:100060009EC100000C94CF4B0C94A54B98C100008E
:1000700096C1000094C1000092C1000090C1000030
:100080000C94AB4C8CC100008AC1000088C10000F8
:1000900086C1000084C1000082C1000080C1000050
:1000A0007EC100007CC100000C947D4C78C1000032
:1000B00076C1000074C1000072C100000C944F4C66
:1000C0006EC100006CC100006AC1000068C1000080
:1000D00066C1000064C1000062C1000060C1000090
:1000E0005EC100004E414E494E495459494E46CDDD
:1000F000CCCC3D0AD7233C17B7D13877CC2B3295DF
:1001000095E6241FB14F0A000020410000C84200BC
:10011000401C4620BCBE4CCA1B0E5AAEC59D740086
:10012000407A10F35A00A0724E18090010A5D4E8C6
:100130000000E87648170000E40B54020000CA9A59
:100140003B000000E1F505000080969800000040AB
:10015000420F000000A086010000001027000000F0
:1001600000E803000000006400000000000A000036
:100170000000000100000000002C76D888DC674FEA
:100180000823DFC1DFAE59E1B1B796E5E3E453C61A
:100190003AE651997696E8E6C28426EB898C9B6212
:1001A000ED407C6FFCEFBC9C9F40F2BAA56FA5F4BC
:1001B00090055A2AF75C936B6CF9676DC11BFCE0E4
:1001C000E40D47FEF520E6B500D0ED902E03009437
:1001D0003577050080841E080000204E0A000000CC
:1001E000C80C333333330F986E12831141EF8D21D6
:1001F00014893BE65516CFFEE6DB18D1844B381B3D
:10020000F77C1D901DA4BBE424203284725E228101
:1002100000C9F124ECA1E53D2700002100240027BE
:10022000002A002D00300033000101000004010706
:10023000010A0100002200250028002B002E0031B9
:1002400000340002010000050108010B010000203C
:10025000002300260029002C002F0032000001009E
:100260000003010601090105050505070508080841
:1002700008020202020A0A08080404040401010137
:10028000010101010103030303030303030407073F
:10029000070C0C0C0C0C0C0C0C02020202060606DD
:1002A00006060606060B0B0B0B0B0B0B0B010210C5
:1002B0002020080810204010204080020102010880
:1002C0000402010102040810204080804020100830
:1002D0000402018004020180402010080402010889
:1002E00004020101020408102040800102040810E9
:1002F00020408000000A0B02090C0D0E08070304C1
:1003000001000000000000000000000000000000EC
:1003100000000000000000000000000000000012CB
:1003200011100000000000000000000000000000AC
:1003300000000000000000000000324D11241FBE2C
:10034000CFEFD1E2DEBFCDBF00E00CBF1AE0A0E0EE
:10035000B2E0E4E0FAEC00E00BBF02C007900D92BF
:10036000A032B107D9F724E1A0E2BAE001C01D92A2
:10037000AC32B207E1F711E0CEE9D1E000E006C00F
:1003800021970109802FFE010E94EB63CD39D1072F
:1003900080E00807A9F70E9408500C94006530CE51
:1003A0008CBD9DBD08959C01803E910508F0ADC5B2
:1003B000FC018827E152FE4F8F4F0C94EB63BF0284
:1003C000CC02D502DE02E702F00285078507850729
:1003D00085078507FD020A031703850724032D03FC
:1003E000360343034C0355035E036703700385071D
:1003F000790382038B0385078507850794039D0393
:10040000A60385078507AF03BC0385078507850716
:10041000C903D603E303F003FD0306040F048507B5
:1004200085078507180421042A0485073704440436
:1004300051048507850785075E046B0478048504ED
:1004400092049F04AC04850785078507B904C60498
:10045000D304E004ED04F604FF048507850785074F
:100460008C059905A6058507B305C005CD0585074B
:1004700085078507DA05E305EC0585078507850708
:100480008507850785078507F505FE0507068507A6
:100490001006190622068507850785072B063806EC
:1004A0004506850752065F066C06850785078507A2
:1004B0007906860693068507A006A906B206850773
:1004C00085078507BB06C406CD0685078507850712
:1004D00085078507850785078507850785078507BC
:1004E000080511051A05850785078507850785070E
:1004F000850785078507850785078507850785079C
:10050000230530053D05850771057A0583058507B7
:10051000850785074A05570564058507850785070B
:10052000850785078507850785078507850785076B
:10053000850785078507850785078507850785075B
:10054000850785078507850785078507850785074B
:10055000D606DF06EC068507F90602070F078507B2
:10056000850785071C072507320785073F074807CA
:10057000550785078507850762076B07780781E0C0
:1005800090E0A0E0B0E08093440B9093450BA093E3
:10059000460BB093470B08951092480B1092490BED
:1005A00010924A0B10924B0B089510924C0B109224
:1005B0004D0B10924E0B10924F0B08951092500B52
:1005C0001092510B1092520B1092530B08951092EF
:1005D000540B1092550B1092560B1092570B089516
:1005E00083E090E0A0E0B0E08093580B9093590B2B
:1005F000A0935A0BB0935B0B089588E790E0A0E0BE
:10060000B0E08093700B9093710BA093720BB0933A
:10061000730B089588E790E0A0E0B0E08093740B3E
:100620009093750BA093760BB093770B089588E7A2
:1006300090E0A0E0B0E08093780B9093790BA093CA
:100640007A0BB0937B0B08951092800B1092810B64
:100650001092820B1092830B08951092840B1092CB
:10066000850B1092860B1092870B089581E090E025
:10067000A0E0B0E08093880B9093890BA0938A0B45
:10068000B0938B0B089510928C0B10928D0B1092DF
:100690008E0B10928F0B08951092900B1092910B6D
:1006A0001092920B1092930B08951092940B10924B
:1006B000950B1092960B1092970B08951092980B31
:1006C0001092990B10929A0B10929B0B0895109216
:1006D0009C0B10929D0B10929E0B10929F0B0895F5
:1006E0001092A00B1092A10B1092A20B1092A30BD0
:1006F00008951092A80B1092A90B1092AA0B1092B9
:10070000AB0B08951092AC0B1092AD0B1092AE0B88
:100710001092AF0B08951092B00B1092B10B109283
:10072000B20B1092B30B08951092C00B1092C10B34
:100730001092C20B1092C30B08951092C40B10922A
:10074000C50B1092C60B1092C70B08951092C80BE0
:100750001092C90B1092CA0B1092CB0B089581E036
:1007600090E0A0E0B0E08093D40B9093D50BA093E1
:10077000D60BB093D70B089581E090E0A0E0B0E0F5
:100780008093D80B9093D90BA093DA0BB093DB0B2B
:1007900008958CE291E0A0E0B0E08093E80B9093A4
:1007A000E90BA093EA0BB093EB0B08958CE291E078
:1007B000A0E0B0E08093EC0B9093ED0BA093EE0BD8
:1007C000B093EF0B08958CE291E0A0E0B0E080934D
:1007D000F00B9093F10BA093F20BB093F30B0895F1
:1007E0008CE291E0A0E0B0E08093F40B9093F50BE5
:1007F000A093F60BB093F70B08951092F80B10929C
:10080000F90B1092FA0B1092FB0B08951092FC0B4F
:100810001092FD0B1092FE0B1092FF0B0895109298
:10082000000C1092010C1092020C1092030C08950F
:100830001092100C1092110C1092120C1092130CBA
:1008400008951092140C1092150C1092160C109220
:10085000170C089581E090E0A0E0B0E08093180CC0
:100860009093190CA0931A0CB0931B0C089585E07B
:1008700090E0A0E0B0E08093200C9093210CA09336
:10088000220CB093230C089585E090E0A0E0B0E046
:100890008093240C9093250CA093260CB093270CE6
:1008A000089589E190E0A0E0B0E08093280C909357
:1008B000290CA0932A0CB0932B0C089582E390E0AE
:1008C000A0E0B0E08093380C9093390CA0933A0CE0
:1008D000B0933B0C089582E390E0A0E0B0E08093F9
:1008E0003C0C90933D0CA0933E0CB0933F0C0895AC
:1008F00082E390E0A0E0B0E08093400C9093410C44
:10090000A093420CB093430C089582E390E0A0E0E2
:10091000B0E08093440C9093450CA093460CB093A8
:10092000470C089582E390E0A0E0B0E08093480C8B
:100930009093490CA0934A0CB0934B0C089582E31A
:1009400090E0A0E0B0E080934C0C90934D0CA0930D
:100950004E0CB0934F0C089582E390E0A0E0B0E01D
:100960008093500C9093510CA093520CB093530C65
:10097000089580E991E0A0E0B0E08093600C90934E
:10098000610CA093620CB093630C089580E991E030
:10099000A0E0B0E08093640C9093650CA093660C8B
:1009A000B093670C089580E991E0A0E0B0E08093F7
:1009B000680C9093690CA0936A0CB0936B0C08952B
:1009C00080E991E0A0E0B0E080936C0C90936D0C16
:1009D000A0936E0CB0936F0C08951092700C10924F
:1009E000710C1092720C1092730C08951092740C8A
:1009F0001092750C1092760C1092770C089510924C
:100A0000780C1092790C10927A0C10927B0C08954D
:100A10001092880D1092890D10928A0D10928B0DF4
:100A2000089510928C0D10928D0D10928E0D1092D3
:100A30008F0D08951092900D1092910D1092920DBD
:100A40001092930D089583E090E0A0E0B0E08093D1
:100A5000C80D9093C90DA093CA0DB093CB0D089506
:100A600083E090E0A0E0B0E08093CC0D9093CD0DBA
:100A7000A093CE0DB093CF0D089583E090E0A0E059
:100A8000B0E08093D00D9093D10DA093D20DB09390
:100A9000D30D08958AE090E0A0E0B0E08093F00DDF
:100AA0009093F10DA093F20DB093F30D08958AE0A9
:100AB00090E0A0E0B0E08093F40D9093F50DA0934A
:100AC000F60DB093F70D08958AE090E0A0E0B0E055
:100AD0008093F80D9093F90DA093FA0DB093FB0D50
:100AE00008951092D80D1092D90D1092DA0D10922F
:100AF000DB0D08951092DC0D1092DD0D1092DE0DCD
:100B00001092DF0D08951092E00D1092E10D1092F9
:100B1000E20D1092E30D089588E592E0A0E0B0E0C8
:100B20008093880C9093890CA0938A0CB0938B0CC3
:100B3000089588E592E0A0E0B0E080938C0C90935B
:100B40008D0CA0938E0CB0938F0C089588E592E0E5
:100B5000A0E0B0E08093900C9093910CA093920C45
:100B6000B093930C08958EE190E0A0E0B0E0809304
:100B7000980C9093990CA0939A0CB0939B0C0895A9
:100B80008EE190E0A0E0B0E080939C0C90939D0CEF
:100B9000A0939E0CB0939F0C08958EE190E0A0E08E
:100BA000B0E08093A00C9093A10CA093A20CB09302
:100BB000A30C08951092B00C1092B10C1092B20CCC
:100BC0001092B30C08951092B40C1092B50C1092C0
:100BD000B60C1092B70C08951092B80C1092B90C84
:100BE0001092BA0C1092BB0C08951092D80C10926F
:100BF000D90C1092DA0C1092DB0C08951092DC0CD8
:100C00001092DD0C1092DE0C1092DF0C0895109201
:100C1000E00C1092E10C1092E20C1092E30C08959B
:100C20001092E80C1092E90C1092EA0C1092EB0C66
:100C300008951092EC0C1092ED0C1092EE0C1092A4
:100C4000EF0C08951092F00C1092F10C1092F20C2F
:100C50001092F30C089585E090E0A0E0B0E080935E
:100C6000000D9093010DA093020DB093030D089514
:100C700085E090E0A0E0B0E08093040D9093050D36
:100C8000A093060DB093070D089585E090E0A0E0D5
:100C9000B0E08093080D9093090DA0930A0DB093D6
:100CA0000B0D089584EB95E1A0E0B0E08093100D6A
:100CB0009093110DA093120DB093130D089584EB32
:100CC00095E1A0E0B0E08093140D9093150DA093F2
:100CD000160DB093170D089584EB95E1A0E0B0E0F8
:100CE0008093180D9093190DA0931A0DB0931B0DBE
:100CF000089585E090E0A0E0B0E08093280D909307
:100D0000290DA0932A0DB0932B0D089585E090E056
:100D1000A0E0B0E080932C0D90932D0DA0932E0DAC
:100D2000B0932F0D089585E090E0A0E0B0E08093AF
:100D3000300D9093310DA093320DB093330D089583
:100D40001092380D1092390D10923A0D10923B0D01
:100D5000089510923C0D10923D0D10923E0D109290
:100D60003F0D08951092400D1092410D1092420DCA
:100D70001092430D08951092500D1092510D109243
:100D8000520D1092530D08951092540D1092550D5E
:100D90001092560D1092570D08951092580D109202
:100DA000590D10925A0D10925B0D08951092680E15
:100DB0001092690E10926A0E10926B0E08958CE3D9
:100DC00090E0A0E0B0E080936C0E90936D0EA09345
:100DD0006E0EB0936F0E089581E090E0A0E0B0E059
:100DE0008093700E9093710EA093720EB093730E59
:100DF00008951092780E1092790E10927A0E109239
:100E00007B0E08958CE390E0A0E0B0E080937C0E30
:100E100090937D0EA0937E0EB0937F0E089581E097
:100E200090E0A0E0B0E08093800E9093810EA093BC
:100E3000820EB093830E08951092900E1092910E30
:100E40001092920E1092930E08958CE390E0A0E021
:100E5000B0E08093940E9093950EA093960EB0936D
:100E6000970E089581E090E0A0E0B0E08093980EA6
:100E70009093990EA0939A0EB0939B0E08951092A2
:100E8000A00E1092A10E1092A20E1092A30E089521
:100E90008CE390E0A0E0B0E08093A40E9093A50EC8
:100EA000A093A60EB093A70E089581E090E0A0E075
:100EB000B0E08093A80E9093A90EA093AA0EB093D1
:100EC000AB0E08951092B80E1092B90E1092BA0E91
:100ED0001092BB0E08958CE390E0A0E0B0E0809308
:100EE000BC0E9093BD0EA093BE0EB093BF0E08959E
:100EF00081E090E0A0E0B0E08093C00E9093C10E3E
:100F0000A093C20EB093C30E0895220F331F220F79
:100F1000331FF901EC5BF44F1082118212821382AD
:100F200008958C3691050CF04EC089369105CCF4AD
:100F3000863391055CF5833391059CF48C319105E2
:100F4000BCF4893191056CF48E30910564F48B30DA
:100F500091053CF4009729F097FD08C0029704978B
:100F600028F481E008950F970997D8F380E0089559
:100F7000863291053CF4843291059CF74F97039794
:100F8000A8F7EFCF8997079788F7EBCF84359105BE
:100F900074F4813591052CF7843491052CF48D334C
:100FA0009105FCF6C797EBCF87549109ECCF8E35AE
:100FB000910534F48B359105A4F685559109DFCF61
:100FC00085569109DCCF843A91051CF5813A91054B
:100FD00044F68038910584F48D37910514F68637F0
:100FE00091053CF4833791050CF0BBCF8F569109E6
:100FF000C6CF89579109C3CF803991053CF48D380C
:1010000091050CF0AECF83589109B9CF8159910960
:10101000B6CF803D91058CF48D3C91050CF0A1CFAD
:101020008E3A91053CF48B3A91050CF09ACF855A93
:101030009109A5CF895C9109A2CF8A3D91053CF425
:10104000873D91050CF08DCF835D910998CF8D5D23
:10105000910995CFAF92BF92CF92DF92EF92FF921C
:101060000F931F93CF93DF936C017B018B01040FD0
:10107000151FEB015E01AE18BF08C017D10759F06C
:101080006991D601ED91FC910190F081E02DC601AE
:101090001995892B79F7C501DF91CF911F910F9198
:1010A000FF90EF90DF90CF90BF90AF900895FC013C
:1010B000538D448D252F30E0842F90E0821B930BBD
:1010C000541710F0CF96089501970895FC01918D63
:1010D000828D981761F0A28DAE0FBF2FB11D5D9666
:1010E0008C91928D9F5F9F73928F90E008958FEF08
:1010F0009FEF0895FC01918D828D981731F0828DBC
:10110000E80FF11D858D90E008958FEF9FEF089512
:10111000FC01918D228D892F90E0805C9F4F821B76
:1011200091098F739927089588EC9EE0F1DF21E003
:10113000892B09F420E0822F0895FC01A48DA80FCB
:10114000B92FB11DA35ABF4F2C91848D90E0019609
:101150008F739927848FA689B7892C93A089B18929
:101160008C91837080648C93938D848D981306C0CA
:101170000288F389E02D80818F7D80830895EF922E
:10118000FF920F931F93CF93DF93EC0181E0888F41
:101190009B8D8C8D98131AC0E889F989808185FF11
:1011A00015C09FB7F894EE89FF896083E889F989B3
:1011B00080818370806480839FBF81E090E0DF91B5
:1011C000CF911F910F91FF90EF900895F62E0B8D08
:1011D00010E00F5F1F4F0F731127E02E8C8D8E11C3
:1011E0000BC00FB607FCFACFE889F989808185FF2B
:1011F000F5CFCE01A2DFF2CFEB8DEC0FFD2FF11D6D
:10120000E35AFF4FF0829FB7F8940B8FEA89FB896E
:1012100080818062D0CF682F88EC9EE0B0CFCF93E2
:10122000DF93EC01888D8823B1F0AA89BB89E88916
:10123000F9898C9185FD03C0808186FD0CC00FB6B5
:1012400007FCF7CF8C9185FFF2CF808185FFEDCF32
:10125000CE0173DFEACFDF91CF91089580E090E077
:10126000892B21F061DF81110E94000080E090E075
:10127000892B49F080E090E0892B29F00E94000042
:1012800081110E94000080E090E0892B49F080E00D
:1012900090E0892B29F00E94000081110E9400003B
:1012A00080E090E0892B49F080E090E0892B29F0E4
:1012B0000E94000081110C94000008958150823139
:1012C00008F05AC0E82FF0E08827E659F64F8F4F14
:1012D0000C94EB638A098E097C0982098609BC0992
:1012E000910997099B09A109A509A909AF09B309A2
:1012F000BC09B709BD09C109809180008F7780932F
:1013000080000895809180008F7DF9CF80918000CA
:10131000877FF5CF84B58F7784BD089584B58F7DA1
:10132000FBCF8091B0008F778093B00008958091BB
:10133000B0008F7DF9CF809190008F7780939000DF
:101340000895809190008F7DF9CF80919000877FE4
:10135000F5CF8091A0008F778093A00008958091B1
:10136000A0008F7DF9CF8091A000877FF5CF80917D
:1013700020018F77809320010895809120018F7D37
:10138000F9CF80912001877FF5CFCF93DF93282F6E
:1013900030E0F901ED50FD4F8491F901E355FD4F27
:1013A000D491F901E959FD4FC491CC2399F08111F1
:1013B00085DFEC2FF0E0EE0FFF1FE35BFD4FA59103
:1013C000B491EC91ED2381E090E009F480E0DF91AD
:1013D000CF91089580E090E0FACF1F93CF93DF93F1
:1013E000282F30E0F901ED50FD4F8491F901E355CC
:1013F000FD4FD491F901E959FD4FC491CC23A1F0DF
:10140000162F81115BDFEC2FF0E0EE0FFF1FED5C7C
:10141000FD4FA591B4918FB7F894EC91111108C0CC
:10142000D095DE23DC938FBFDF91CF911F9108957C
:10143000DE2BF8CFCF93DF9390E0FC01E355FD4F17
:10144000249189599D4FFC0184918823C9F090E033
:10145000880F991FFC01E75EFD4FA591B491FC0137
:10146000ED5CFD4FC591D49161110DC09FB7F8940B
:101470008C91209582238C938881282328839FBF79
:10148000DF91CF910895623051F49FB7F8943C9169
:10149000822F809583238C93E8812E2BEFCF8FB7FB
:1014A000F894EC912E2B2C938FBFEACF82309105CC
:1014B00038F0880F991F880F991F05970197F1F74A
:1014C00008953FB7F8948091360A9091370AA09119
:1014D000380AB091390A26B5A89B05C02F3F19F0EC
:1014E0000196A11DB11D3FBFBA2FA92F982F8827A4
:1014F000BC01CD01620F711D811D911D42E0660F7F
:10150000771F881F991F4A95D1F708958F929F9250
:10151000AF92BF92CF92DF92EF92FF926B017C016C
:10152000D0DF4B015C01C114D104E104F104B1F03E
:10153000C8DF681979098A099B09683E73408105EB
:10154000910588F321E0C21AD108E108F10888EE7C
:10155000880E83E0981EA11CB11CE5CFFF90EF9090
:10156000DF90CF90BF90AF909F908F9008952FB74E
:10157000F8946091320A7091330A8091340A909104
:10158000350A2FBF0895CF92DF92EF92FF92CF934B
:10159000DF93EC01603282E07807CCF5653B7105A2
:1015A00014F064EB70E0898128E830E0281B3109F1
:1015B00087FD3395220F331F220F331F6901330F2D
:1015C000EE08FF088A8128E532E0281B310987FDF3
:1015D0003395220F331F220F331F032E000C440BB1
:1015E000550B2C193D094E095F09DB0177FF02C03D
:1015F000B0E0A0E00E94806224EB30E040E050E0E8
:101600000E945A62C20ED31EE41EF51EB601E88186
:10161000E03370F5298188E890E0821B910927FD6D
:101620009395880F991F880F991F681779077CF089
:101630002A8188E592E0821B910927FD9395880F06
:10164000991F880F991F681779070CF4CB0102972F
:10165000880F991F4FB7F8942E2F30E0F901EE0F45
:10166000FF1FE20FF31FE354F04F928381834FBFBC
:10167000DF91CF91FF90EF90DF90CF9008951F936F
:10168000CF93DF93EC01162F8881803308F04DC093
:1016900061E0812FCFDE8881282F30E0F901EE0F45
:1016A000FF1FE20FF31FE354F04F1F736081607C54
:1016B000612B608319821A822CE0622F0E94CC6316
:1016C000829FB001112430E020E0AB01420F531F94
:1016D000FA01EE0FFF1FE40FF51FE354F04F908166
:1016E00096FD16C02F5F3F4F2C30310571F78130CA
:1016F00009F51092800082E08093810010928500AD
:1017000010928400B19A80916F00826080936F0084
:10171000E8818E2F90E0FC01EE0FFF1FE80FF91F0C
:10172000E354F04F8081806480838881DF91CF9182
:101730001F910895823061F410929000809391007F
:10174000109295001092940088BB80937100E0CFB6
:10175000833069F41092A00082E08093A10010927F
:10176000A5001092A40089BB80937200D1CF811193
:10177000CFCF1092200182E08093210110922501A9
:10178000109224018ABB80937300C2CFAF92BF92A4
:10179000CF92DF92EF92FF920F931F93CF93DF933D
:1017A0006B017A01EC01C35DD54F28813CE0389F85
:1017B0008001399F100D1124A0904D10B12C27FFEE
:1017C0001FC0FB011182108288818F5F888388810E
:1017D0009801280F311D87FD3A95F6012A153B0522
:1017E0001CF488818C30BCF1808191810496803416
:1017F0009C4908F471C0F6018081918104966EC005
:1018000088819801280F311D87FD3A952A153B05DF
:10181000DCF68881A801480F511D87FD5A95FA0111
:10182000EE0FFF1FE40FF51FE354F04F808186FF9A
:10183000CBCF8881F801E80FF11D87FDFA95CF0124
:10184000EE0FFF1FE80FF91FE354F04F808160E0B7
:101850008F73C3DDB9CF808191812881A801420FA8
:10186000511D27FD5A959A01FA01EE0FFF1FE20F55
:10187000F31FE354F04F21813281820F931FF70150
:101880009183808388819801280F311D87FD3A95C7
:10189000F901EE0FFF1FE20FF31FE354F04F8081B9
:1018A00086FF21C08881080F111D87FD1A95F80158
:1018B000EE0FFF1FE00FF11FE354F04F808161E056
:1018C0008F73DF91CF911F910F91FF90EF90DF9079
:1018D000CF90BF90AF9081CD80E49CE9F7019183D8
:1018E00080838FEF8883DF91CF911F910F91FF90BD
:1018F000EF90DF90CF90BF90AF90089508958EBD88
:1019000000000DB407FEFDCF8EB50895DF92EF9273
:10191000FF920F931F93CF93DF93EC01D62E122FDC
:10192000032FF42EE52E8FE590E00E94D00160E0B9
:10193000888553DD8D2D8068E2DF89878E2DDFDF7E
:101940008F2DDDDF802FDBDF812FD9DF61E0888500
:1019500044DD8985DF91CF911F910F91FF90EF902A
:10196000DF900895FF920F931F93CF93DF93EC01C5
:10197000F62E8A018FE590E00E94D00160E0888514
:101980002CDD8F2DBCDF898780E0B9DF80E0B7DFF9
:1019900080E0B5DF80E0B3DF61E088851EDD60E0D8
:1019A00088851BDD8F2DABDF898780E0A8DF90E085
:1019B000B0E0A0E0BA2FA92F982F8827F8018083E4
:1019C0009183A283B38380E09ADFF8014081518143
:1019D00062817381482B762F652F542F44274083D3
:1019E00051836283738380E08ADFF80140815181F3
:1019F00062817381482B762F652F542F44274083B3
:101A000051836283738380E07ADFF80140815181E2
:101A100062817381482B408351836283738361E0C9
:101A20008885DBDC8985DF91CF911F910F91FF9035
:101A300008952F923F924F925F927F928F929F9242
:101A4000AF92BF92CF92DF92EF92FF920F931F93CC
:101A5000CF93DF9300D01F92CDB7DEB76C01762E07
:101A600049015A0117012801AE014F5F5F4F7ADF2C
:101A700089819A81AB81BC8188269926AA26BB26BA
:101A8000A50194012E2133214023552128273927F0
:101A90004A275B27672DC60139DFF60181850F9044
:101AA0000F900F900F90DF91CF911F910F91FF90AA
:101AB000EF90DF90CF90BF90AF909F908F907F90EE
:101AC0005F904F903F902F900895EF92FF920F9369
:101AD0001F93CF93DF93EC0184E0689FF001112402
:101AE000E158FD4FE080F18002811381062E04C091
:101AF000EE0CFF1C001F111F0A94D2F7242F30E0B8
:101B000050E040E004C0220F331F441F551F6A9568
:101B1000D2F76CE6CE018DDF8985DF91CF911F91E1
:101B20000F91FF90EF900895EF92FF920F931F9304
:101B3000CF93DF93EC01E12CF12C8701E394062E87
:101B400004C0EE0CFF1C001F111F0A94D2F7242FB3
:101B500030E050E040E004C0220F331F441F551F07
:101B60006A95D2F760E0CE0164DF8985DF91CF917D
:101B70001F910F91FF90EF900895CF93DF93EC01A9
:101B800061E0888557DC61E0888527DC8FE590E09F
:101B90000E94D00160E0888520DC80E0B0DE89878B
:101BA00080E0ADDE80E0ABDE80E0A9DE80E0A7DE95
:101BB00061E08885DF91CF9110CC8F929F92AF9298
:101BC000BF92DF92EF92FF920F931F93CF93DF9319
:101BD000EC017B015A01D22ED0DF45E088E0E81607
:101BE000F10439F17CF447E082E0E816F10409F1F0
:101BF00046E084E0E816F104E1F0EA94EF2869F4A5
:101C000048E017C043E080E2E816F10491F03CF4AC
:101C100044E080E1E816F10461F040E00AC042E0EF
:101C200080E4E816F10429F041E080E8E816F104C8
:101C3000A1F768E1CE0149DFB50190E080E00E94A4
:101C40002C6125ED34E045E352E40E948D6120E0F3
:101C500030E04AE754E40E941C6328EB3EE145E093
:101C60005EE30E948D614B015C0126E636E646EAA2
:101C70005EE30E941C6320E030E040E85FE30E94E6
:101C8000B7620E948963603180F42CEE31E548E34D
:101C90005EE3C501B4010E941C6320E030E040E82F
:101CA0005FE30E94B7620E948963862F8F71262F9F
:101CB00030E050E040E0542F432F322F22272227DC
:101CC0003F7144275527282B60E1CE011FDE01110B
:101CD0007DC041E060E0CE0127DF43E060E0CE015F
:101CE000F4DE44E064E0CE01F0DE41E067E0CE01E6
:101CF000ECDE42E06FE0CE01E8DE40E06EE0CE01D7
:101D0000E4DE41E060E0CE01E0DE42E068E0CE01EA
:101D1000DCDE41E06DE0CE01D8DE2FEF3FEFA90120
:101D200063E1CE01F3DD2FEF3FEF4FE050E064E1E0
:101D3000CE01ECDD20E137E240E050E065E1CE018C
:101D4000E5DD41E063E1CE01C0DE41E062E1CE01CC
:101D5000BCDE48E060E0CE01B8DEE12CF12C87016A
:101D6000EA9424E630E040E050E06EE6CE0161DE29
:101D7000E12CF12C0FEF13E020E030E048E050E0E0
:101D80006EE6CE0156DE20E137E240E050E065E14C
:101D9000CE01BCDD41E065E0CE01C6DE41E06BE096
:101DA000CE01C2DE4D2D60E1CE018FDE64E670E033
:101DB00080E090E0DF91CF911F910F91FF90EF9025
:101DC000DF90BF90AF909F908F90A0CB43E060E0FA
:101DD000CE017BDE41E06FE0CE0177DE40E064E0E3
:101DE000CE0173DE40E067E0CE016FDE41E06CE1E2
:101DF000CE016BDE40E06EE0CE0167DE40E060E0E9
:101E0000CE0192DE40E063E1CE015FDE40E062E1C0
:101E1000CE015BDEE12CF12C870120E030E044E0D4
:101E200050E060E7CE0105DE20E030E0A90160E788
:101E3000CE01FFDDE12CFF24FA940FEF1FEF20E02D
:101E400031E040E050E060E7CE01F3DDE12CF12C21
:101E50008701EA9420E830E040E050E060E7CE01FE
:101E6000E8DD41E062E0CE015FDE40E065E0CE010A
:101E70005BDE40E06BE0CE0157DE40E094CF0F9395
:101E80001F93CF93DF938B01EA01AB0141505109BE
:101E90004534510508F0E9C02230310508F0E5C0AD
:101EA00046E4429FF001439FF00D1124E80FF91F13
:101EB000E60FF71F81E080836C2F232B09F4D2C03B
:101EC00061E0802FB7DA209749F460E0802F85DA4F
:101ED000CE01DF91CF911F910F910895CF3FD10592
:101EE00011F461E0BFC0F801ED50FD4FE491E15005
:101EF000E23108F0B2C0F0E08827EE57F04F8F4F84
:101F00000C94EB63940F9B0FA00FAA0FB40F2D102E
:101F1000BE0FC60FCE0FD80FE20FEC0FFB0F051050
:101F20002D100F101910231084B5806884BDC7BD13
:101F3000D0E0C0E0CDCF84B5806284BDC8BDF8CF0D
:101F400080918000806880938000D0938900C09346
:101F50008800EECF80918000806280938000D093D3
:101F60008B00C0938A00E4CF8091800088608093CA
:101F70008000D0938D00C0938C00DACF8091B000A8
:101F800080688093B000C093B300D2CF8091B0003E
:101F900080628093B000C093B400CACF809190005B
:101FA000806880939000D0939900C0939800C0CF30
:101FB00080919000806280939000D0939B00C093AA
:101FC0009A00B6CF80919000886080939000D09363
:101FD0009D00C0939C00ACCF8091A000806880934E
:101FE000A0008091A0008F7B8093A000D093A900D7
:101FF000C093A8009DCF8091A00080628093A00034
:10200000D093AB00C093AA0093CF8091A0008860CA
:102010008093A000D093AD00C093AC0089CF809195
:102020002001806880932001D0932901C09328016A
:102030007FCF80912001806280932001D0932B017B
:10204000C0932A0175CF8091200188608093200180
:10205000D0932D01C0932C016BCF60E0C038D10527
:102060000CF03FCF802FB9D963CFC1E0D0E030CFA3
:10207000CF93DF93D0E0C0E0CE010E949107882388
:1020800019F0CE010E94D3012196C13ED105A1F7DE
:10209000DF91CF9108954F925F926F927F928F92CE
:1020A0009F92AF92BF92CF92DF92EF92FF92CF9327
:1020B000DF93EC016C897D898E899F898888998856
:1020C000AA88BB88CE8CDF8C0D2C000CEE08FF0894
:1020D000603127E272078105910529F0161617066F
:1020E00018061906ACF0A7019601C501B4010E94BB
:1020F000BD63DF91CF91FF90EF90DF90CF90BF90C5
:10210000AF909F908F907F906F905F904F900895C9
:102110000E942E6120E030E44CE156E40E941C63F2
:102120002B013C01488E598E6A8E7B8EC501B4010D
:102130000E942E61A30192010E948D614B015C01FE
:10214000C701B6010E942E619B01AC01C501B4011B
:102150000E948D610E948463CCCFFC0111821082A9
:1021600013821282158214821782168210861186BB
:10217000128613861486158616861786108A118A8B
:10218000128A138A108E118E128E138E158E148E53
:10219000178E168E10A211A212A213A214A215A2BB
:1021A00016A217A210A611A612A613A614A615A66B
:1021B00081E090E097A786A780E197E2A0E0B0E0F9
:1021C000848B958BA68BB78B08954F925F926F92FD
:1021D0007F928F929F92AF92BF92CF92DF92EF92B7
:1021E000FF920F931F93CF93DF93EC014B018A0172
:1021F0005901CD88DE88EF88F88C26013701442408
:102200005524662481E07822FE01ED57FF4F60815E
:1022100071818281938124E630E040E050E00E94A9
:102220008662672B682B692BF1F48C859D859F87CF
:102230008E878A859B859D878C87888599859B87D6
:102240008A878E819F8199878887F8016081718153
:10225000828193810E9484637F836E83F801108260
:1022600011821282138245284628472859F4F7FC28
:1022700009C0CC24DD24EE24FEE7FF22CD28CE28A1
:10228000CF2881F020E030E040E85FE3F801608192
:102290007181828193810E94B862F80160837183A9
:1022A00082839383C25ADF4F88819981AA81BB813F
:1022B000F50180839183A283B38388819981AA8168
:1022C000BB81F401808B918BA28BB38BDF91CF917B
:1022D0001F910F91FF90EF90DF90CF90BF90AF9044
:1022E0009F908F907F906F905F904F900895889A05
:1022F0000895889808958E9A08958E980895EBE031
:10230000F1E08081886080830895EBE0F1E08081D6
:10231000877F80830895149A08951498089560E043
:10232000FC01878D5AC860E0FC01818D56C861E0D0
:10233000FC01878D52C861E0FC01818D4EC8CF93AE
:10234000DF93EC01FC01EF56FF4F1082379781E0DD
:10235000808360E0898D41D88BA19CA1892B29F0D5
:1023600060E08F8DDF91CF9138C8DF91CF910895D4
:10237000CF93DF93EC018FA108D82AA5281719065F
:1023800021F48BA5DF91CF91089580E0FBCFCF930F
:10239000DF93EC018DA10E94C5092AA52817190613
:1023A00021F48BA5DF91CF91089580E0FBCFCF93EF
:1023B000DF93EC018B8DFE01E35BFF4F908161E0C9
:1023C000911101C060E009D889A1FE01E25BFF4FD5
:1023D0009081992331F0C15BDF4F988161E09111C9
:1023E00001C060E0DF91CF910C94ED09CF93DF93B2
:1023F000EC018B8DFE01E35BFF4F908160E091115A
:1024000001C061E00E94ED0989A1FE01E25BFF4F7E
:102410009081992331F0C15BDF4F988160E0911189
:1024200001C061E0DF91CF910C94ED09CF93DF9370
:10243000EC0161E08D8D0E94ED09FE01E25BFF4F32
:102440008081882321F061E08BA10E94ED09C157B2
:10245000DF4F1882DF91CF910895CF93DF93EC0186
:10246000FC01E454FC4F1082EE58F1098081811187
:1024700003C0CE014096DADFFE01E15DFC4F8081B2
:10248000811104C0CE018E549F4FD0DFFE01E05D6C
:10249000FC4F8081811104C0CE018C5A9E4FC6DF53
:1024A00064E670E080E090E0DF91CF912FC8CF9399
:1024B000DF93EC0160E08D8D0E94ED09FE01E25B8F
:1024C000FF4F8081882321F060E08BA10E94ED09FD
:1024D000C157DF4F81E08883DF91CF9108958F92BC
:1024E0009F92AF92BF92CF92DF92EF92FF920F93A3
:1024F0001F93CF93FC01E65AFF4F408351836283C1
:10250000738334964083518362837383349600834C
:10251000118322833383DC01AA59BF4FEC92529777
:10252000CC91CC2351F018974C91411152C037FFF8
:1025300056C01082118212821382DC01AB5ABF4F47
:102540004D915D916D917C911397141615061606A9
:10255000170634F514963C91332311F1C080D180D5
:10256000E280F38046015701F7FE07C088249924D2
:1025700054018C189D08AE08BF08481559056A0516
:102580007B0574F4F7FE07C07095609550954195F2
:102590005F4F6F4F7F4F4083518362837383C32F9D
:1025A000FC01ED58FF4F108211821282138289576D
:1025B0009F4F31E0FC0130838C2FCF911F910F9101
:1025C000FF90EF90DF90CF90BF90AF909F908F9053
:1025D000089510161106120613060CF4AACFC0E0D7
:1025E000ACCF0F931F93CF93DF93EC01062F89A5F8
:1025F00081110DC0CE01CBDE182FCE01B9DE011145
:10260000182F812FDF91CF911F910F910895CE0147
:10261000AFDE182FCE01BBDEF2CFCF93DF93EC01FC
:10262000FC01ED57FF4F80819181A281B38101961A
:10263000A11DB11D80839183A283B3833E9681E067
:102640008083AE01425A5F4FFA0180819181A2815D
:10265000B3819E0128573F4FF9012081222309F4BD
:1026600040C00196A11DB11DFA0180839183A28310
:10267000B383FE01EC56FF4F20813181C90195954E
:1026800087958C0F9D1F32970190F081E02D20FFE0
:1026900008C0DC012D913C91E20FF31F0190F08105
:1026A000E02D19958BA19CA1892BF9F0FE01E8562C
:1026B000FF4F20813181C901959587958C0F9D1F12
:1026C000CA56DF4FE881F98120FF08C0DC012D9157
:1026D0003C91E20FF31F0190F081E02DDF91CF914B
:1026E00019940197A109B109BFCFDF91CF91089546
:1026F0008F929F92AF92BF92CF92DF92EF92FF9212
:102700000F931F93CF93DF93EC01FC01ED58FF4F24
:1027100060817181828193810E942C616B017C01B7
:10272000FE01E05BFF4F60817181828193810E9495
:102730002E619B01AC0160E074E284E799E40E94A1
:102740001C634B015C01FE01E158FF4F6081718108
:10275000828193810E942C619B01AC01C501B4016F
:102760000E941C634B015C018E0109581F4F20E041
:1027700030E040E05FE30E948D61A70196010E9476
:10278000B8620E948963F8016083718382839383B6
:10279000C558DF4FA5019401C701B6010E94B86278
:1027A0000E948963688379838A839B83DF91CF91B9
:1027B0001F910F91FF90EF90DF90CF90BF90AF905F
:1027C0009F908F9008950F931F93CF93DF93FC01F9
:1027D000EF56FF4F20812223B9F07E9700811181AF
:1027E000228133813896408151816281738104173F
:1027F00015072607370710F1EC01A1DDCE01DF91A7
:10280000CF911F910F9174CFFC01E957FF4F2081A9
:102810002223A1F0749700811181228133813496A3
:10282000408151816281738104171507260737079C
:1028300028F0DF91CF911F910F91EFCEDF91CF91D3
:102840001F910F910895FC01E957FF4F208122232A
:1028500061F0749780819181A281B3810196A11D5D
:10286000B11D80839183A283B38308950F931F9337
:10287000FC01EA59FF4F2081211112C038970081D5
:10288000118122813381349640815181628173812B
:1028900004171507260737074CF41F910F91A6CD93
:1028A000FC01E45BFF4F20812111F7CF1F910F91B5
:1028B0007ECDAC014B5E5F4F6FE6FC018081918164
:1028C00051C8AF92BF92CF92DF92EF92FF920F93D7
:1028D0001F93CF93DF93EC016B015A0179019A01A9
:1028E000AB01B7018881998168D98C81883531F431
:1028F0009501A601B7018A819B815FD9DF91CF91B4
:102900001F910F91FF90EF90DF90CF90BF90AF900D
:102910000895CF93DF93EC018C818835A9F583ED81
:1029200090E19983888382EB90E19B838A838BE992
:1029300091E1FE01EE56FF4F918380833296118222
:10294000108287E991E132969183808332961182D9
:10295000108283E991E132969183808332961182CD
:1029600010828FE891E132969183808332961182B2
:1029700010828881998101D98C81883589F48A8176
:102980009B81DF91CF91F9C8893529F488EC90E1DA
:1029900099838883CCCF8A3551F68DEB90E1F8CFBF
:1029A000DF91CF910895CF93DF93FC01DC01169660
:1029B0008AE0ED0119928A95E9F781E0808B818B9D
:1029C000138A128A148A158A168A178A108E8CE244
:1029D00091E0A0E0B0E084A795A7A6A7B7A780AB39
:1029E00091ABA2ABB3AB42E350E060E070E044AB2C
:1029F00055AB66AB77AB40AF51AF62AF73AF44AF8F
:102A000055AF66AF77AFEF01C05CDF4F8883998326
:102A1000AA83BB83249688839983AA83BB83DF011F
:102A2000A85BBF4F48E750E060E070E04D935D93D6
:102A30006D937C93139714961C9211961C92119689
:102A40001C9211961C92119644E650E060E070E0F2
:102A50004D935D936D937C93139714961C921196EE
:102A60001D921D921D921C92139714961C92119602
:102A70001D921D921D921C92139714961D921D92E9
:102A80001D921C92139714961D921D921D921C92DA
:102A9000139714961C9211961D921D921D921C92D2
:102AA000139714961D921D921D921C9213971496C3
:102AB0001D921D921D921C92139714961D921D92A9
:102AC0001D921C92139714961D921D921D921C929A
:102AD000139714961D921D921D921C921397149693
:102AE0001D921D921D921C92139714961D921D9279
:102AF0001D921C92139714961C9211961C9211967B
:102B00001C9211961C9211961C9211961C92119671
:102B10001C9211961C9211961C9211961C92119661
:102B20001C92128E118E148E138E168E158E10A27C
:102B3000178E12A211A214A213A216A215A210A6F9
:102B400017A211968BE991E111969C938E931296A0
:102B500011961C921E92129687E991E111969C9310
:102B60008E93129611961C921E92129683E991E111
:102B700011969C938E93129611961C921E92129609
:102B80008FE891E18D939C93E056FF4F1182108264
:102B9000DF91CF91089508958FEF9FEF08950895E5
:102BA000089508950895089508950895089508953D
:102BB000089508950895089508950895089508952D
:102BC00008950895089508958091200A9091210A0A
:102BD000892BE1F585E390E00E94AF5BFC0181E089
:102BE00090E0A0E0B0E080839183A283B3838483EC
:102BF0009583A683B78380879187A287B38715863D
:102C0000148616861786108A118A128A138A148AE5
:102C1000158A168A178A108E118E138E128E12A2A2
:102C200013A214A215A217A216A210A611A612A6EC
:102C300013A614A615A616A617A610AA11AA12AABC
:102C400013AA14AAF093210AE093200A8091200A83
:102C50009091210A0895CF93DF93B6DFEC0185E4CC
:102C60000E94C50921E0892B09F420E02C8FACDFFC
:102C7000EC0184E40E94C50921E0892B09F420E0DD
:102C80002D8FA2DFEC0183E40E94C50921E0892B8E
:102C900009F420E02E8F98DFEC0182E40E94C50940
:102CA00021E0892B09F420E02F8F8EDFEC0181E4F5
:102CB0000E94C50921E0892B09F420E028A384DFC4
:102CC000EC0180E40E94C50921E0892B09F420E091
:102CD00029A3DF91CF91089577DFBDCF75DFFC0188
:102CE00014AA90E080E0089580912B0A90912C0A1C
:102CF000892B41F481E090E00E94AF5B90932C0A15
:102D000080932B0A80912B0A90912C0A08950F939F
:102D10001F93CF93DF938B01E7DFF801C2A1D3A10B
:102D2000868D978D8530910529F14CF40497B1F08B
:102D300090E080E0DF91CF911F910F910895863050
:102D4000910511F10B97A1F76BE070E087E590E139
:102D50000E943F0BBE0187E590E109C064E070E08E
:102D60008EE490E10E943F0BBE018EE490E10E9450
:102D7000C30ADECF65E070E081E590E10E943F0B81
:102D8000BE0181E590E1F3CF66E070E084E590E17B
:102D90000E943F0BBE0184E590E1E9CF8091270AB4
:102DA0009091280A892BA9F48CE890E00E94AF5BEF
:102DB000FC0131969C012A5B3F4F1192DF01AB5B16
:102DC000BF4F1C92E217F307C1F79093280A809334
:102DD000270A8091270A9091280A08954F925F92BE
:102DE0006F927F92AF92BF92CF92DF92EF92FF925B
:102DF0000F931F93CF93DF93EB01D0DF8C01CAA811
:102E0000DBA84EA45FA468A879A8AEA0BFA0EE8CF2
:102E1000FF8C4AA15BA19601B70131D8C301B20171
:102E20000E94860A9601A501B701C80128D890E042
:102E300080E0DF91CF911F910F91FF90EF90DF9095
:102E4000CF90BF90AF907F906F905F904F9008951C
:102E5000CF93DF93EB01A2DF6AA98E8D0E941A0A3D
:102E600090E080E0DF91CF910895CF93DF93EB0165
:102E700095DF2AA93BA94AA15BA16E8D7F8D0E9497
:102E80003F0F90E080E0DF91CF910895FC01019029
:102E90000020E9F73197AF01481B590BBC0188ECC2
:102EA0009EE00C942A088F929F92AF92BF920F934C
:102EB0001F93CF93DF93CDB7DEB7A1970FB6F894EA
:102EC000DEBF0FBECDBF19A2423008F44AE08E012A
:102ED0000F5D1F4F842E912CB12CA12CA5019401C4
:102EE0000E948662E62FB901CA01EA30ECF4E05D87
:102EF000D801EE938D01232B242B252B79F790E01D
:102F000080E0109711F0CD01C1DFA1960FB6F894C3
:102F1000DEBF0FBECDBFDF91CF911F910F91BF904C
:102F2000AF909F908F900895E95CE2CFAFCF882358
:102F300019F08CE799E0FACF85E799E0FCCFFC0126
:102F400080819181009711F00C944B5C08950C9452
:102F50004B5C0C944B5C0C944B5C0C944B5C0C9455
:102F60004B5C0C944B5C0C944B5C0C944B5C0C9445
:102F70004B5C0C944B5C0C944B5C0C944B5C0C9435
:102F80004B5C0C944B5C0C944B5C0C944B5C0C9425
:102F90004B5C0C944B5C0C944B5C0C944B5C0C9415
:102FA0004B5C0C944B5C0C944B5CCF92DF92EF9299
:102FB000FF92CF93DF9397FF18C06B017C018DE2E6
:102FC0000E940B09EC0166277727CB016C197D095C
:102FD0008E099F094AE067DF8C0F9D1FDF91CF911B
:102FE000FF90EF90DF90CF9008954AE0DF91CF916E
:102FF000FF90EF90DF90CF9056CFBC01990F880BD8
:10300000990BD3CFCF93DF93EC018DE294E08EDF69
:103010006AA17BA18CA19DA1C8DF82E295E0DF912E
:10302000CF9184CF0F931F93CF93DF938C01EB014C
:103030008FE094E07BDF84E198E078DFF801848121
:103040000E940B09CE01D9DFBFDDDF91CF911F9127
:103050000F91D8CFEF92FF920F931F93CF93DF93EF
:10306000182F092F7B016115710569F50E94C509AB
:1030700031E020E0019709F030E0C32FD22F82E049
:10308000E816F10408F045C080E394E04FDF84E1E6
:1030900098E04CDF84E394E049DF812F902FADDF8F
:1030A00084E198E043DF8FE997E040DFCE01A5DFC0
:1030B0008BDDA8DF90E080E0DF91CF911F910F9131
:1030C000FF90EF900895D0E0C0E061307105B9F64F
:1030D000812F163310F08AEC810F20917B00982FFE
:1030E0009870277F922B90937B00877080648093E9
:1030F0007C0080917A00806480937A0080917A00CD
:1031000086FDFCCF80917800C0917900DC2FC82F1C
:10311000B6CF81E090E0D0CF0F931F93CF93DF9392
:10312000FC012081318121153105C1F1EC01822F93
:103130000E94C50921E0892B09F420E02B876A85CC
:10314000261701F11E821F82188619860E811F81A3
:10315000288539858A819B81AC81BD810817190733
:103160002A073B07DCF081E0682788810E94ED098F
:1031700015DE70E060E088819981DF91CF911F9129
:103180000F9168CF8E819F81A885B9850196A11D79
:10319000B11D8E839F83A887B987D8CFDF91CF9148
:1031A0001F910F910895CF93DF93EB01F7DD6AA98B
:1031B0007BA98E8D9F8D4EDF90E080E0DF91CF91D7
:1031C0000895CF92DF92EF92FF92CF93DF93EB01BE
:1031D000CB010E949107882351F1FE01EE0FFF1FE2
:1031E000EE0FFF1FEC5BF44FC080D180E280F380D4
:1031F00086E394E09BDE84E198E098DE84E394E04B
:1032000095DECE01FADE84E198E090DE8FE997E06A
:103210008DDEC701B601C9DED7DCF4DE90E080E0C8
:10322000DF91CF91FF90EF90DF90CF9008958AE3E8
:1032300094E07CDEF3CF0F931F93CF93DF938C0149
:10324000D0E0C0E0CE010E949107882319F0BE01B2
:10325000C801B7DF2196C13ED105A1F7DF91CF911B
:103260001F910F9108958CE594E060DE80E492E078
:103270005DDE88E092E05ADE81E694E057DEA4DC71
:10328000C1DE90E080E00895CF93DF93EC018BE600
:1032900094E04CDE8FE694E049DE8C8D48DE83E7D7
:1032A00094E044DE8D8D43DE87E794E03FDE8E8D33
:1032B0003EDE8BE794E03ADE8F8D39DE8FE794E0D7
:1032C00035DE88A134DE83E894E030DE89A12FDE8C
:1032D000CE01DF91CF9196CE77DCD6CF87E894E010
:1032E00025DE72DCB8DC70DCCFDF58DD70E060E03A
:1032F00088E090E0AFDE52DD70E060E089E090E0D1
:10330000A9DE4CDD70E060E08AE090E0A3DE46DDFF
:1033100070E060E08DE090E09DDE90E080E0089558
:103320004F925F926F927F928F929F92AF92BF92D5
:10333000CF92DF92EF92FF920F931F93CF936B0187
:103340007C01742EAC019B010E94B963882391F02B
:103350008EE894E0CF911F910F91FF90EF90DF9056
:10336000CF90BF90AF909F908F907F906F905F9025
:103370004F908CCD46015701E894B7F82FEF3FEFFF
:103380004FE75FE7C501B4010E94B96381110DC029
:103390002FEF3FEF4FE75FE7C501B4010E942861BF
:1033A00018161CF482E994E0D5CF2FEF3FEF4FE7DA
:1033B0005FE4C701B6010E94B56318161CF486E9E4
:1033C00094E0C8CF2FEF3FEF4FE75FECC701B601A6
:1033D0000E94286187FDF3CF20E030E0A901C701FA
:1033E000B6010E94286110E000E087FF08C08DE26E
:1033F0000E940B098C01F7FAF094F7F8F094C0E002
:1034000060E070E080E09FE37C1641F020E030E077
:1034100040E251E40E941C63CF5FF6CFA701960102
:103420000E94B8622B013C010E9489634B015C0140
:103430004AE039DD7C01E00EF11ECC23A9F1C50183
:10344000B4010E942C619B01AC01C301B2010E9436
:10345000B7624B015C018EE20E940B09E80EF91E77
:10346000C15010F120E030E040E251E4C501B40168
:103470000E948D612B013C010E9489634B01B12C9C
:10348000A12C4AE0C501B4010EDDE80EF91EC5010C
:10349000B4010E942C619B01AC01C301B2010E94E6
:1034A000B7624B015C01DCCFC701CF911F910F9137
:1034B000FF90EF90DF90CF90BF90AF909F908F9054
:1034C0007F906F905F904F9008958F929F92AF92F0
:1034D000BF92CF92DF92EF92FF920F931F93CF9301
:1034E000DF93EC018BE492E021DD84EE94E01EDDBD
:1034F0006E018AE0C81A8EEFD80AC6010E944B10EE
:103500000E942E614B015C01FE01E15BFC4F60817A
:103510007181828193810E942E619B01AC01C50162
:10352000B4010E941C6342E0FBDE84EF94E0FEDC09
:103530007E01EAEDEE1AEDEFFE0AC7010E944B1084
:103540000E942E614B015C01FE01ED5AFC4F60812F
:103550007181828193810E942E619B01AC01C50122
:10356000B4010E941C6342E0DBDE84E095E0DEDC17
:103570008E010A5A1D4FC8010E944B100E942E61F5
:103580004B015C01C95ADC4F688179818A819B813A
:103590000E942E619B01AC01C501B4010E941C6315
:1035A00042E0BEDE11DB2EDD87E492E0BFDC84EE7C
:1035B00094E0BCDCF601A68DB78D20893189428963
:1035C00053890E948062F1DC84EF94E0AFDCF70164
:1035D000A68DB78D20893189428953890E948062E6
:1035E000E4DC84E095E0A2DCF801A68DB78D2089AB
:1035F0003189428953890E948062D7DCE5DADF9104
:10360000CF911F910F91FF90EF90DF90CF90BF90DF
:10361000AF909F908F90F6CCCF92DF92EF92FF9277
:10362000CF93DF93EC0188819981AA81BB81181621
:1036300019061A061B0644F081E090E0A0E0B0E015
:1036400088839983AA83BB838C819D81AE81BF814E
:10365000181619061A061B0644F081E090E0A0E057
:10366000B0E08C839D83AE83BF8388859985AA85CE
:10367000BB85181619061A061B0644F081E090E077
:10368000A0E0B0E088879987AA87BB878AE994E0A1
:103690004DDC84EE94E04ADC6E857F8588899989CB
:1036A0000E942E616B017C01688179818A819B81F6
:1036B0000E942E619B01AC01C701B6010E941C63F0
:1036C00042E02EDE84EF94E031DC6A897B898C89CC
:1036D0009D890E942E616B017C016C817D818E81B0
:1036E0009F810E942E619B01AC01C701B6010E941F
:1036F0001C6342E015DE84E095E018DC6E897F896A
:10370000888D998D0E942E616B017C016885798579
:103710008A859B850E942E619B01AC01C701B60181
:103720000E941C6342E0FCDDCE01DF91CF91FF904F
:10373000EF90DF90CF9066CC47DA6EDF90E080E0CC
:1037400008952F923F924F925F926F927F928F9245
:103750009F92AF92BF92CF92DF92EF92FF920F9320
:103760001F93CF93DF93CDB7DEB762970FB6F89470
:10377000DEBF0FBECDBF1C017C012EE5E20EF11CA9
:10378000D7014D915D916D917C91FC01EE59FF4FF8
:10379000FE87ED8780819181A281B3814101F6E6A8
:1037A0008F0E911CF4012081B2965F0181010757B1
:1037B0001F4F222309F440C06101FCE4CF0ED11C4D
:1037C000F6012081F501208321E0F80120834115D5
:1037D00051056105710591F42081F101E158FF4F18
:1037E0006F01F101222309F44FC040AC51AC62AC2F
:1037F00073ACF60140825182628273829101265A33
:103800003F4F3A8B298BF901408051806280738051
:10381000235D3F4F5901481659066A067B06CCF5D1
:10382000481759076A077B07F4F1D4018C9181117D
:103830003AC0D5011C9242C121E0481759076A07D6
:103840007B070CF020E0F50120835A016B0177FF24
:1038500007C0AA24BB246501A41AB50AC60AD70A60
:103860002C013D01B7FF07C0442455243201481AFA
:10387000590A6A0A7B0A21E0A414B504C604D704D5
:103880000CF0A3CF20E0A1CF44A855A866A877A844
:10389000B0CF84159505A605B7053CF684179507A6
:1038A000A607B70714F6F5018081882311F2D40129
:1038B0008C9181110EC0F40180818111BACFD801A1
:1038C0006C9181E06827C1010E94F1128111B1CF92
:1038D00006C060E0C1010E94F1128111ECCFD1015C
:1038E0009C962D913D914D915C919F9729833A83B0
:1038F0004B835C83F8018081811106C1F101E05C9A
:10390000FF4F80819181A281B3818D839E83AF839C
:10391000B887D101D4962D913D914D915C91D79767
:1039200029873A874B875C87ED85FE858081918169
:10393000A281B381F701C080D180E280F380E98960
:10394000FA894081518162817381F101E557FF4F0E
:103950001082319610823101FDE86F0E711CF30167
:103960001082910122573F4FF90110823296108246
:103970004C015D01841A950AA60AB70AB7FE08C071
:10398000B094A09490948094811C911CA11CB11CB3
:10399000481759076A077B070CF0CAC0C41AD50A32
:1039A000E60AF70AD501C401B595A79597958795BD
:1039B0008D879E87AF87B88B810100571F4F8C146E
:1039C0009D04AE04BF0408F0B8C0D101DC960D9090
:1039D000BC91A02DBA8BA98B81E0F9018083D8011D
:1039E0008C93F1018489882309F45CC00E94B70A92
:1039F000D10152960D911C91012E000C220B330B1C
:103A0000601B710B820B930B693E7340810591051E
:103A100008F448C00E94B70AF101738B628B8EE9EB
:103A200094E084DA82EA94E081DA60E070E0CB012D
:103A3000BCDA88EA94E07ADAC701B601B6DA8EEA2F
:103A400094E074DAC501B401B0DA84EB94E06EDA84
:103A50004AE06D857E858F85988925DA8BEB94E029
:103A600065DA6D817E818F8198859FDA81EC94E0A3
:103A70005DDA69857A858B859C8597DA87EC94E099
:103A800055DA69817A818B819C818FDA8DEC94E0A3
:103A90004DDA84E198E04ADA89899A89AEDA82E2DD
:103AA00095E044DAF101E158FF4F29893A89C901CB
:103AB000B0E0A0E080839183A283B38360E0C10182
:103AC0000E94F112882339F0F101E25AFF4F10826F
:103AD00011821282138262960FB6F894DEBF0FBE77
:103AE000CDBFDF91CF911F910F91FF90EF90DF90AD
:103AF000CF90BF90AF909F908F907F906F905F908E
:103B00004F903F902F900895F10180A991A9A2A90B
:103B1000B3A929813A814B815C8182179307A4075D
:103B2000B5070CF0EBCE89839A83AB83BC83E6CEDA
:103B3000C81AD90AEA0AFB0A35CF2D853E854F857A
:103B400058892C153D054E055F0508F450C08D8140
:103B50009E81AF81B8858C159D05AE05BF0544F4E7
:103B6000A981BA811196BA8BA98B81E0F30136CF76
:103B7000C701B6010E942E612B013C016D817E813F
:103B80008F8198850E942E619B01AC01C301B20117
:103B90000E941C632B013C0169817A818B819C818D
:103BA00029853A854B855C85621B730B840B950BCD
:103BB0000E942E619B01AC01C301B2010E948D6184
:103BC0002B013C0169857A858B859C850E942E613D
:103BD0009B01AC01C301B2010E94B8620E948463E0
:103BE0007A8B698B81E0F101E557FF4FF7CED50164
:103BF000C4012D813E814F815885821B930BA40BFC
:103C0000B50BC816D906EA06FB065CF449815A8151
:103C10004E5F5F4F5A8B498B81E0F101E357FF4FB5
:103C2000DDCEC501B4016C197D098E099F090E9482
:103C30002E612B013C016D817E818F8198850E94D0
:103C40002E619B01AC01C301B2010E941C632B01D8
:103C50003C0169817A818B819C8129853A854B85DC
:103C60005C85621B730B840B950B0E942E619B017C
:103C7000AC01C301B2010E948D612B013C01698539
:103C80007A858B859C850E942E619B01AC01C301C6
:103C9000B2010E94B8620E9484637A8B698B81E0D2
:103CA000F101E457FF4F9ACECF92DF92EF92FF924D
:103CB0000F931F93CF93DF938C016A017B01EC017B
:103CC000CC0FDD1F642FCE010E944C629927F7FCB8
:103CD0009A958F2D7E2D6D2DCE0101960E944C62FE
:103CE0000D5811090330110588F4B701992777FDA4
:103CF0009095892FCE0144960E944C626F2D7727B4
:103D000088279927CE0145960E944C6290E080E07A
:103D1000DF91CF911F910F91FF90EF90DF90CF90A7
:103D200008954F925F926F927F928F929F92AF927F
:103D3000BF92CF92DF92EF92FF920F931F93CF9398
:103D4000DF938C01EC01CC0FDD1FCE010E94446299
:103D5000882E912CB12CA12CCE0101960E94446298
:103D6000C82ED12CF12CE12C0D581109033011056E
:103D700008F05AC0CE0144960E944462482E512C4D
:103D8000712C612CCE0145960E944462082F10E0F0
:103D900030E020E08FEF481651046104710429F5EA
:103DA0000F3F11052105310501F58FEF88169104AC
:103DB000A104B104C9F58FEFC816D104E104F104E0
:103DC00099F56FEF7FEFCB01DF91CF911F910F91AD
:103DD000FF90EF90DF90CF90BF90AF909F908F902B
:103DE0007F906F905F904F900895003811052105E6
:103DF00031053CF7FE2CED2CDC2CCC24C701B601A0
:103E0000680D791D8A1D9B1D320155244424640DC3
:103E1000751D861D971D302F222711270027600F43
:103E2000711F821F931FD0CF00E010E09801412C3A
:103E3000512C320180E8C816D104E104F104D4F217
:103E4000C0CFEF92FF920F931F93CF93DF93809198
:103E5000250A9091260A892B51F586E090E00E9470
:103E6000AF5B7C0190E080E05CDF1616170654F132
:103E7000C7010E943810D0E0C0E0CE010E94910737
:103E8000882369F0FE01EE0FFF1FEE0FFF1FEC5BB2
:103E9000F44F4081518162817381CE0105DF21960B
:103EA000C639D10551F7F092260AE092250A809191
:103EB000250A9091260ADF91CF911F910F91FF90D3
:103EC000EF90089583E090E02CDF6130710581056B
:103ED000910531F504E41BE0D0E0C0E0CE010E9482
:103EE00091078823B1F0CE011CDFF8016083718354
:103EF000828393836F3F7F4F8F4F9F4F51F4CE014B
:103F00000E94D301F8014081518162817381CE0109
:103F1000CBDE21960C5F1F4FC13ED105F9F6C3CF12
:103F2000C7010E943810BFCFCF92DF92EF92FF926D
:103F30000F931F93CF93DF937C016B018A01E901FB
:103F400080DFF601EE0FFF1FEE0FFF1FEC5BF44F5B
:103F500080819181F7019183808373DF000F111FAE
:103F6000000F111FF801EC5BF44F81E0408151819B
:103F700062817381413051056105710509F080E06E
:103F8000F70182875EDFCC0FDD1FCC0FDD1FCC5B1E
:103F9000D44F88819981AA81BB81F7018283938361
:103FA000A483B5831682178210861186DF91CF9184
:103FB0001F910F91FF90EF90DF90CF900895CF93D6
:103FC000DF93EC012AEC30E04BEC50E069EC70E060
:103FD000ABDF2EEC30E04FEC50E06DEC70E0CE014A
:103FE0000C96A2DF24ED30E045ED50E063ED70E08B
:103FF000CE01489699DF28ED30E049ED50E067EDBD
:1040000070E0CE01849690DF2EED30E04FED50E071
:104010006DED70E0CE01C096DF91CF9185CFCF934B
:10402000DF938091290A90912A0A892BA1F48CE3CD
:1040300090E00E94AF5BEC01198218821D861C86FD
:10404000198E188E1DA21CA219AA18AAB8DFD09327
:104050002A0AC093290A8091290A90912A0ADF919D
:10406000CF9108950F931F93CF93DF93EC01E9DE77
:10407000FE01EB57FC4F8091000D9091010D918353
:104080008083DFDEFE01E957FC4F8091040D9091A3
:10409000050D91838083D5DEFE01E757FC4F8091AB
:1040A000080D9091090D91838083CBDE8E01055719
:1040B0001C4F6091280D7091290D80912A0D9091CF
:1040C0002B0D0E942E61F80160837183828393839C
:1040D000B8DE0C5F1F4F60912C0D70912D0D8091FB
:1040E0002E0D90912F0D0E942E61F8016083718337
:1040F00082839383A6DE0C5F1F4F6091300D709119
:10410000310D8091320D9091330D0E942E61F80196
:10411000608371838283938394DEFE01E656FC4FB5
:104120008091E80C9091E90C918380838ADEFE01F6
:10413000E456FC4F8091EC0C9091ED0C91838083C0
:1041400080DEFE01E256FC4F8091F00C9091F10C64
:104150009183808376DEFE01E056FC4F8091100D46
:104160009091110DA091120DB091130D8083918348
:10417000A283B38366DEFE01EC55FC4F8091140DE3
:104180009091150DA091160DB091170D808391831C
:10419000A283B38356DEFE01E855FC4F8091180DD3
:1041A0009091190DA0911A0DB0911B0D80839183F0
:1041B000A283B38346DEFE01E455FC4F8091380DA7
:1041C0009091390D918380833CDEFE01E255FC4FD6
:1041D00080913C0D90913D0D9183808332DEFE01F4
:1041E000E055FC4F8091400D9091410D918380836B
:1041F00028DEFE01EE54FC4F8091500D9091510D40
:10420000918380831EDEFE01EC54FC4F8091540D9F
:104210009091550D9183808314DEFE01EA54FC4F8A
:104220008091580D9091590D918380830ADE809181
:10423000D80C9091D90CA091DA0CB091DB0CFE0156
:10424000E956FC4F0197A105B10551F581E0808346
:10425000F8DD8091DC0C9091DD0CA091DE0CB0912A
:10426000DF0CFE01E856FC4F0197A105B105D1F422
:1042700081E08083E6DD8091E00C9091E10CA091DB
:10428000E20CB091E30CC756DC4F0197A105B105D4
:1042900059F481E08883DF91CF911F910F910895A8
:1042A0001082D6CF1082E6CF1882F5CF2F923F92A0
:1042B0004F925F926F927F928F929F92AF92BF9236
:1042C000CF92DF92EF92FF920F931F93CF93DF93E2
:1042D000CDB7DEB76F970FB6F894DEBF0FBECDBF78
:1042E0009B8F8A8FAEDDEA8DFB8DEF55FD4F81E010
:1042F0004091100C5091110C6091120C7091130CA4
:10430000452B462B472B09F480E080839ADDEA8D0C
:10431000FB8DEE55FD4F81E04091140C5091150C32
:104320006091160C7091170C452B462B472B09F406
:1043300080E0808386DDEA8DFB8DED55FD4F81E0C9
:104340004091180C5091190C60911A0C70911B0C33
:10435000452B462B472B09F480E0808372DD80914A
:10436000600C9091610CA091620CB091630CEA8D8D
:10437000FB8DEC55FD4F80839183A283B38361DD78
:104380008091640C9091650CA091660CB091670CC3
:10439000EA8DFB8DE855FD4F80839183A283B38323
:1043A00050DD8091680C9091690CA0916A0CB091DD
:1043B0006B0CEA8DFB8DE455FD4F80839183A283C6
:1043C000B3833FDD8091600C9091610CA091620CF1
:1043D000B091630CEA8DFB8DE055FD4F8083918396
:1043E000A283B3832EDD8091640C9091650CA09123
:1043F000660CB091670CEA8DFB8DEC54FD4F808309
:104400009183A283B3831DDD80916C0C90916D0C20
:10441000A0916E0CB0916F0CEA8DFB8DE854FD4FAE
:1044200080839183A283B3830CDD8091380C9091BB
:10443000390CA0913A0CB0913B0CEA8DFB8DE853FE
:10444000FD4F80839183A283B383FBDC80913C0C7E
:1044500090913D0CA0913E0CB0913F0CEA8DFB8DEC
:10446000E453FD4F80839183A283B383EADC809180
:10447000400C9091410CA091420CB091430CEA8DFC
:10448000FB8DE053FD4F80839183A283B383D9DCFE
:104490008091380C9091390CA0913A0CB0913B0C62
:1044A000EA8DFB8DEC52FD4F80839183A283B38311
:1044B000C8DC80913C0C90913D0CA0913E0CB091D9
:1044C0003F0CEA8DFB8DE852FD4F80839183A283E0
:1044D000B383B7DC8091440C9091450CA091460CBD
:1044E000B091470CEA8DFB8DE452FD4F80839183A0
:1044F000A283B383A6DC8091480C9091490CA091D3
:104500004A0CB0914B0CEA8DFB8DE052FD4F80833D
:104510009183A283B38395DC80914C0C90914D0CD8
:10452000A0914E0CB0914F0CEA8DFB8DEC51FD4FDC
:1045300080839183A283B38384DC8091500C90911B
:10454000510CA091520CB091530CEA8DFB8DE851A7
:10455000FD4F80839183A283B38373DC8091E80B4A
:104560009091E90BA091EA0BB091EB0BEA8DFB8DDA
:10457000E451FD4F80839183A283B38362DC8091F9
:10458000EC0B9091ED0BA091EE0BB091EF0BEA8D3F
:10459000FB8DE051FD4F80839183A283B38351DC77
:1045A0008091F00B9091F10BA091F20BB091F30B75
:1045B000EA8DFB8DEC50FD4F80839183A283B38302
:1045C00040DC8091E80B9091E90BA091EA0BB0914F
:1045D000EB0BEA8DFB8DE850FD4F80839183A28326
:1045E000B3832FDC8091EC0B9091ED0BA091EE0B3F
:1045F000B091EF0BEA8DFB8DE450FD4F80839183EA
:10460000A283B3831EDC8091F40B9091F50BA091F3
:10461000F60BB091F70BEA8DFB8DFD5F80839183E4
:10462000A283B3830EDCEA8DFB8DEC5FFC4F81E04F
:104630002091C00B3091C10B2130310509F080E091
:104640008083FFDBEA8DFB8DEB5FFC4F81E02091E7
:10465000C40B3091C50B2130310509F080E0808317
:10466000F0DBEA8DFB8DEA5FFC4F81E02091C80B07
:104670003091C90B2130310509F080E08083E1DB06
:10468000EA8DFB8DE65CFC4F81E04091980B5091E8
:10469000990B60919A0B70919B0B452B462B472BE6
:1046A00009F480E08083CDDBEA8DFB8DE55CFC4F77
:1046B00081E040919C0B50919D0B60919E0B7091FD
:1046C0009F0B452B462B472B09F480E08083B9DBF9
:1046D000EA8DFB8DE45CFC4F81E04091A00B509192
:1046E000A10B6091A20B7091A30B452B462B472B7E
:1046F00009F480E08083A5DBEA8DFB8DE35CFC4F51
:1047000081E04091700C5091710C6091720C70912D
:10471000730C452B462B472B09F480E0808391DBFB
:10472000EA8DFB8DE25CFC4F81E04091740C50916E
:10473000750C6091760C7091770C452B462B472BAE
:1047400009F480E080837DDBEA8DFB8DE15CFC4F2A
:1047500081E04091780C5091790C60917A0C7091C5
:104760007B0C452B462B472B09F480E0808369DBCB
:10477000EA8DFB8DE05CFC4F81E02091A80B30912D
:10478000A90B2130310509F080E080835ADBEA8DE6
:10479000FB8DEF5BFC4F81E02091AC0B3091AD0BBA
:1047A0002130310509F080E080834BDBEA8DFB8D01
:1047B000EE5BFC4F81E02091B00B3091B10B2130CA
:1047C000310509F080E080833CDB8091700B909193
:1047D000710BA091720BB091730BEA8DFB8DED5BA9
:1047E000FC4F80839183A283B3832BDB8091740B76
:1047F0009091750BA091760BB091770BEA8DFB8DA4
:10480000E95BFC4F80839183A283B3831ADB8091A1
:10481000780B9091790BA0917A0BB0917B0BEA8D7C
:10482000FB8DE55BFC4F80839183A283B38309DB1F
:10483000EA8DFB8DE25DFC4F81E04091800B509151
:10484000810B6091820B7091830B452B462B472B7C
:1048500009F480E08083F5DAEA8DFB8DE15DFC4FA1
:1048600081E04091840B5091850B6091860B709193
:10487000870B452B462B472B09F480E08083E1DA38
:10488000EA8DFB8DE05DFC4F81E04091880B5091FB
:10489000890B60918A0B70918B0B452B462B472B14
:1048A00009F480E08083CDDA8091780D9091790DC4
:1048B000A0917A0DB0917B0DEA8DFB8DE95FFC4FE5
:1048C00080839183A283B383BCDA80917C0D909125
:1048D0007D0DA0917E0DB0917F0DEA8DFB8DE55F82
:1048E000FC4F80839183A283B383ABDA8091800DE8
:1048F0009091810DA091820DB091830DEA8DFB8D79
:10490000E15FFC4F80839183A283B3839ADAEA8DBF
:10491000FB8DEF5CFC4F81E02091D80B3091D90BDF
:104920002130310509F080E08083EA8DFB8DEE5C5B
:10493000FC4F1082EA8DFB8DED5CFC4F108281DA1A
:10494000EA8DFB8DEC5CFC4F81E02091D40B309123
:10495000D50B2130310509F080E08083EA8DFB8D95
:10496000EB5CFC4F1082EA8DFB8DEA5CFC4F108201
:1049700068DAEA8DFB8DE95CFC4F81E02091F80B51
:104980003091F90B2130310509F080E0808359DA4C
:10499000EA8DFB8DE85CFC4F81E02091FC0B3091AF
:1049A000FD0B2130310509F080E080834ADAEA8D81
:1049B000FB8DE75CFC4F81E02091000C3091010CF5
:1049C0002130310509F080E080833BDAEA8DFB8DF0
:1049D000ED5EFC4F81E02091880D3091890D2130F2
:1049E000310509F080E080832CDAEA8DFB8DEC5EE6
:1049F000FC4F81E020918C0D30918D0D21303105DF
:104A000009F080E080831DDAEA8DFB8DEB5EFC4FC0
:104A100081E02091900D3091910D2130310509F008
:104A200080E080830EDA8091C80D9091C90DA0912D
:104A3000CA0DB091CB0DEA8DFB8DEA5EFC4F8083F1
:104A40009183A283B383FDD98091CC0D9091CD0D3C
:104A5000A091CE0DB091CF0DEA8DFB8DE65EFC4F9F
:104A600080839183A283B383ECD98091D00D909100
:104A7000D10DA091D20DB091D30DEA8DFB8DE25EE8
:104A8000FC4F80839183A283B383DBD98091F80D9F
:104A90009091F90DA091FA0DB091FB0DEA8DFB8D6F
:104AA000EE5DFC4F80839183A283B383CAD980914A
:104AB000F80D9091F90DA091FA0DB091FB0DEA8DD2
:104AC000FB8DEA5DFC4F80839183A283B383B9D9C8
:104AD0008091F80D9091F90DA091FA0DB091FB0D18
:104AE000EA8DFB8DE65DFC4F80839183A283B383C7
:104AF000A8D90A8D1B8D015B1C4F8091200C9091D1
:104B0000210CA091220CB091230CF8018083918399
:104B1000A283B38396D9EA8CFB8CFDEAEF1AFCEFF3
:104B2000FF0A8091240C9091250CA091260CB09145
:104B3000270CF70180839183A283B38382D980916C
:104B4000280C9091290CA0912A0CB0912B0CCA8CA6
:104B5000DB8CF9EACF1AFCEFDF0AF6018083918340
:104B6000A283B383F801408151816281738114165D
:104B700015061606170644F041E050E060E070E0CC
:104B80004083518362837383F70140815181628145
:104B90007381141615061606170644F041E050E01E
:104BA00060E070E0408351836283738318161906B6
:104BB0001A061B064CF081E090E0A0E0B0E0F601A0
:104BC00080839183A283B3830E94E415FC01D60104
:104BD0008D909D90AD90BC90D7014D915D916D9160
:104BE0007C91D8010D911D912D913C9100831183F1
:104BF00022833383448355836683778380869186BB
:104C0000A286B386EA8DFB8D7096FA83E983EA8DDE
:104C1000FB8DED5EFC4F80808B82EA8DFB8DE95F22
:104C2000FC4F4080518062807380EA8DFB8DE95C8F
:104C3000FC4F90809A86EA8DFB8DE05CFC4FA08053
:104C4000AC82EA8DFB8DEF5CFC4FB080BD82EA8DBB
:104C5000FB8DEC5CFC4F20812E83EA8DFB8DE35CA9
:104C6000FC4F80818E87EA8DFB8DE65CFC4F908146
:104C70009A8BEA8DFB8DEC5FFC4F2080EA8DFB8DDB
:104C8000EF55FD4F3080EA8DFB8DED5BFC4F808052
:104C90009180A280B380EA8DFB8DE451FD4F80812D
:104CA0009181A281B381EA8DFB8DE052FD4FC080DE
:104CB000D180E280F380EA8DFB8DE853FD4F408187
:104CC000518162817381EA8DFB8DEC55FD4F00812E
:104CD000118122813381EA8DFB8D04AF15AF26AFA0
:104CE00037AFEC5BFF4F4083518362837383EA8D60
:104CF000FB8DE05BFF4F80839183A283B383EA8DBA
:104D0000FB8DE05CFF4F0083118322833383EA8DA8
:104D1000FB8DE85BFF4F4083518362837383EA8D91
:104D2000FB8DEC5AFF4F80839183A283B383EA8D7E
:104D3000FB8DE45BFF4FC082D182E282F382EA8D79
:104D4000FB8DE85AFF4F80829182A282B382EA8D66
:104D5000FB8DE45AFF4F3082EA8DFB8DE35AFF4F03
:104D60002082EA89AA8DBB8DD996EC93D997FE85CE
:104D7000DA96FC93DA978C80DB968C9280E490E054
:104D8000A0E0B0E0EA8DFB8DE05AFF4F8083918375
:104D9000A283B383EA8DFB8DE25AFF4F9E809082FF
:104DA000EA8DFB8DE15AFF4FAD80A082EA8DFB8D2D
:104DB000EC59FF4FBA84B082EA8DFB8DEB59FF4F5F
:104DC0004082518262827382EA8DFB8DE759FF4FE8
:104DD0002B812083AA8DBB8D99968D919C919A975A
:104DE0008633910509F0E6C287E791E1FD01EE55B2
:104DF000FF4F9183808332961182108289E791E17F
:104E0000369691838083329611821082EA8DFB8DD3
:104E100087A590A94A97D1F48BE891E1EA55FF4F15
:104E200091838083EA8DFB8DE855FF4F11821082BC
:104E30008DE891E1EA8DFB8DE255FF4F91838083F0
:104E4000EA8DFB8DE055FF4F118210820A8D1B8D7C
:104E50000E541F4FEA8DFB8DEC5EFC4F80808B82E1
:104E6000EA8DFB8DE55FFC4F80819181A281B3814A
:104E70008A879B87AC87BD87EA8DFB8DE85CFC4FFA
:104E800090819C83EA8DFB8DEF5BFC4FA081AD830D
:104E9000EA8DFB8DEE5CFC4FB081BE83EA8DFB8D0D
:104EA000EB5CFC4F80808E86EA8DFB8DE25CFC4FD4
:104EB0002080EA8DFB8DE55CFC4F3080EA8DFB8D18
:104EC000EB5FFC4F3081EA8DFB8DEE55FD4F20816D
:104ED000EA8DFB8DE95BFC4F4081518162817381DA
:104EE000EA8DFB8DE051FD4F80819181A281B381DC
:104EF000EA8DFB8DEC51FD4FC080D180E280F380C4
:104F0000EA8DFB8DE453FD4F80809180A280B380B9
:104F1000EA8DFB8DE855FD4F4080518062807380A3
:104F2000F80144A655A666A677A684AA95AAA6AABD
:104F3000B7AAEA8DFB8DEE50FF4F80839183A28349
:104F4000B383F80140AA51AA62AA73AA80AE91AEB7
:104F5000A2AEB3AEEA8DFB8DEA50FF4F8083918302
:104F6000A283B383D801DC96CD92DD92ED92FC92C0
:104F7000DF97EA8DFB8DE650FF4F408351836283BC
:104F80007383EA8DFB8DE250FF4F2083EA8DFB8D0A
:104F9000E150FF4F308399963C9299979A962C92C4
:104FA0009A97ED819B96EC9380E490E0A0E0B0E0CE
:104FB000EA8DFB8DEE5FFE4F80839183A283B383E6
:104FC000EA8DFB8DF3958E848082EA8DFB8DEF5FF9
:104FD000FE4F9E809082EA8DFB8DEA5FFE4FAC8093
:104FE000A082EA8DFB8DE95FFE4F8A859B85AC85AB
:104FF000BD8580839183A283B383EA8DFB8DE55FBA
:10500000FE4F9B819083D80159968D919C91863358
:10501000910509F001C287E791E1EA8DFB8DEC5B18
:10502000FE4F91838083EA8DFB8DEA5BFE4F1182F8
:10503000108289E791E1EA8DFB8DE45BFE4F91835D
:105040008083EA8DFB8DE25BFE4F11821082F801B6
:10505000878D90A14A97E1F48BE891E1EA8DFB8D71
:10506000E85BFE4F91838083EA8DFB8DE65BFE4F0C
:10507000118210828DE891E1EA8DFB8DE05BFE4F9D
:1050800091838083EA8DFB8DEE5AFE4F1182108250
:10509000EA8CFB8CFCEAEF1AFEEFFF0AEA8DFB8D2F
:1050A000EB5EFC4F80808B82EA8DFB8DE15FFC4FD5
:1050B00080819181A281B3818A879B87AC87BD87DC
:1050C000EA8DFB8DE75CFC4F90819C83EA8DFB8D24
:1050D000EE5BFC4F3080EA8DFB8DED5CFC4FA081D8
:1050E000AD83EA8DFB8DEA5CFC4F2080EA8DFB8D61
:1050F000E15CFC4FC080EA8DFB8DE45CFC4FD0800E
:10510000EA8DFB8DEA5FFC4F3081EA8DFB8DED551A
:10511000FD4F2081EA8DFB8DE55BFC4F8080918007
:10512000A280B3808E829F82A886B986EA8DFB8D8D
:10513000FD5F80819181A281B3818E879F87A88B3B
:10514000B98BEA8DFB8DEC50FD4F80809180A28061
:10515000B3808C8E9D8EAE8EBF8EEA8DFB8DE85116
:10516000FD4F80819181A281B3818A8B9B8BAC8B17
:10517000BD8BEA8DFB8DE452FD4F80819181A28130
:10518000B381EA8DFB8DE053FD4F408051806280FA
:105190007380EA8DFB8DE854FD4F4081518162811F
:1051A0007381EA8DFB8DE455FD4F80809180A28054
:1051B000B380F70184A695A6A6A6B7A644AA55AAC9
:1051C00066AA77AAEA8DFB8DEC56FE4F8C8C9D8CDF
:1051D000AE8CBF8C80829182A282B382F70140ABF9
:1051E00051AB62AB73AB80AF91AFA2AFB3AFEA8DFF
:1051F000FB8DE856FE4F8E849F84A888B9888082F4
:105200009182A282B3828A899B89AC89BD89F70188
:1052100084AF95AFA6AFB7AFEA8DFB8DE456FE4FD6
:105220008E809F80A884B98480829182A282B3827A
:10523000EA8DFB8DE056FE4F2083EA8DFB8DEF5506
:10524000FE4F3083D7019996DC9299979A96CC922B
:105250009A979B963C9280E490E0A0E0B0E0EA8DC3
:10526000FB8DEC55FE4F80839183A283B383EA8D3F
:10527000FB8DEE55FE4F2082EA8DFB8DED55FE4FE6
:10528000BD81B083EA8DFB8DE855FE4F8C80808216
:10529000EA8DFB8DE755FE4F8A859B85AC85BD85E4
:1052A00080839183A283B383EA8DFB8DE355FE4F08
:1052B0009B819083D70159968D919C91863391055E
:1052C00009F0D2C087E791E1EA8DFB8DEA51FE4FEC
:1052D00091838083EA8DFB8DE851FE4F118210820D
:1052E00089E791E1EA8DFB8DE251FE4F9183808346
:1052F000EA8DFB8DE051FE4F11821082F701878D00
:1053000090A14A97E1F48BE891E1EA8DFB8DE6519B
:10531000FE4F91838083EA8DFB8DE451FE4F118215
:1053200010828DE891E1EA8DFB8DEE50FE4F918366
:105330008083EA8DFB8DEC50FE4F11821082EA8D46
:10534000FB8DE25DFC4F8081882309F4B5C0898123
:105350009A810E945712EA8DFB8DE15DFC4F80819E
:10536000882309F4AEC0C8010E9457128A8D9B8D14
:10537000805D9C4FDC018C91882309F4A6C0C70195
:105380006F960FB6F894DEBF0FBECDBFDF91CF9101
:105390001F910F91FF90EF90DF90CF90BF90AF9053
:1053A0009F908F907F906F905F904F903F902F9045
:1053B0000C9457128C339105D9F48BE791E1EA8D67
:1053C000FB8DEE55FF4F91838083EA8DFB8DEC556D
:1053D000FF4F118210828DE791E1EA8DFB8DE6553A
:1053E000FF4F91838083EA8DFB8DE455FF4F0CCDF9
:1053F0008E9709F00BCD8FE791E1EA8DFB8DEE558D
:10540000FF4F91838083EA8DFB8DEC55FF4F118216
:10541000108285E891E1E1CF8C33910589F48BE727
:1054200091E1EA8DFB8DEC5BFE4F91838083EA8DE9
:10543000FB8DEA5BFE4F118210828DE791E1FBCD7F
:105440008E9709F004CE8FE791E1EA8DFB8DEC5B3E
:10545000FE4F91838083EA8DFB8DEA5BFE4F1182C4
:10546000108285E891E1E7CD8C33910589F48BE7D3
:1054700091E1EA8DFB8DEA51FE4F91838083EA8DA5
:10548000FB8DE851FE4F118210828DE791E12ACF0A
:105490008E9709F033CF8FE791E1EA8DFB8DEA51CA
:1054A000FE4F91838083EA8DFB8DE851FE4F118280
:1054B000108285E891E116CF89819A810E941612A7
:1054C0004ACFC8010E94161251CFC7016F960FB67E
:1054D000F894DEBF0FBECDBFDF91CF911F910F912A
:1054E000FF90EF90DF90CF90BF90AF909F908F9004
:1054F0007F906F905F904F903F902F900C9416127A
:10550000AF92BF92CF92DF92EF92FF920F931F93D1
:10551000CF93DF93EC018AE190E09AA789A78BE112
:1055200090E09CA78BA789E190E09EA78DA78FE0D4
:1055300090E098AB8FA78EE190E09AAB89AB8EE0BC
:1055400090E09CAB8BAB85E490E09EAB8DAB84E4AC
:1055500090E098AF8FABFE01EE54FF4F80E290E0F9
:10556000928F818F81E290E0948F838F8FE190E022
:10557000968F858F10A2178E12A211A214A213A2C9
:1055800083E490E096A385A382E490E090A787A3AC
:10559000EE55FF4F83E290E0928F818F84E290E09E
:1055A000948F838F82E290E0968F858F10A2178E62
:1055B00012A211A214A213A281E490E096A385A3E3
:1055C00080E490E090A787A3E95BFE4F11821082F0
:1055D000329611821082329611821082CE010E9480
:1055E0005621CE010E943220CE018A509E4F41E0CA
:1055F00050E0FC0157A746A7DE01AA5DBD4F24E09D
:1056000030E09F963C932E939E975E01FAEAAF1A84
:10561000FDEFBF0A28E030E0F50137A726A72FEFFE
:105620003FEFFC013183208335832483338322833E
:1056300037832683628560876385618711963C93F3
:105640002E9315963C932E93149713963C932E937A
:10565000129717963C932E9316971A966C911A9759
:1056600018966C9318971B966C911B9719966C93D0
:105670001997F50131832083358324833383228373
:10568000378326836285608763856187BE016E5498
:105690007C4FFB01608171818E0100561C4FF80127
:1056A000C080D180E280F38006501109F8010081AA
:1056B0001181FC01158F048FC48AD58AE68AF78A86
:1056C0006130710509F04EC0378F268FCE018C54A2
:1056D0009C4FFC01808191819E012C553C4FF9012A
:1056E000408151816281738128503109F901208103
:1056F00031815D963C932E935C9754964D935D93C8
:105700006D937C935797019781F58FEF9FEF5F968D
:105710009C938E935E97DE01AA54BC4F8D919C9111
:1057200011971E974D915D916D917C91C256DC4F02
:1057300028813981F501358F248F448B558B668BF9
:10574000778B0197A9F48FEF9FEF978F868FDF916B
:10575000CF911F910F91FF90EF90DF90CF90BF906E
:10576000AF900895578F468FB1CF81E090E0CFCFB3
:1057700081E090E0EACFBF92CF92DF92EF92FF926A
:105780000F931F93CF93DF93EC010E94211FE090B2
:10579000900CF090910C0E94211FC090A00CD09012
:1057A000A10C0E94211FB090B80C1091B90C0E945E
:1057B000211F01E08091E00D9091E10D019709F02A
:1057C00000E02B2D312F1216130614F021E030E0EB
:1057D000A601B701CE018C5A9E4F0E946114DF9141
:1057E000CF911F910F91FF90EF90DF90CF90BF90DE
:1057F0000895BF92CF92DF92EF92FF920F931F9383
:10580000CF93DF93EC010E94211FE0908C0CF0906D
:105810008D0C0E94211FC0909C0CD0909D0C0E946A
:10582000211FB090B40C1091B50C0E94211F01E013
:105830008091DC0D9091DD0D019709F000E02B2D9A
:10584000312F1216130614F021E030E0A601B70143
:10585000CE018E549F4F0E946114DF91CF911F9112
:105860000F91FF90EF90DF90CF90BF900895BF927F
:10587000CF92DF92EF92FF920F931F93CF93DF931C
:10588000EC010E94211FE090880CF090890C0E948E
:10589000211FC090980CD090990C0E94211FB090AD
:1058A000B00C1091B10C0E94211F01E08091D80D25
:1058B0009091D90D019709F000E02B2D312F121690
:1058C000130614F021E030E0A601B701CE014096A6
:1058D0000E946114DF91CF911F910F91FF90EF9083
:1058E000DF90CF90BF9008958F929F92AF92BF921A
:1058F000CF92DF92EF92FF92CF93DF937B010E94D2
:10590000211FEC01F70182A093A0A4A0B5A0C68C32
:10591000D78CE0A0F1A08A819B818F30F7E29F07AE
:105920000CF049C001969B838A838C819D818F30C6
:1059300027E292070CF042C096012B7F21553109D6
:105940002330310558F096012B55310923303105AC
:1059500028F02A5431092330310518F401969D832B
:105960008C83C6010E949107882359F1F601EE0F3E
:10597000FF1FEE0FFF1FEC5BF44F80829182A2822B
:10598000B382B501A401C6010E94541EB601CE0126
:105990000E94E1180E940F200E94DF1F90E080E02B
:1059A000DF91CF91FF90EF90DF90CF90BF90AF90BD
:1059B0009F908F9008951B821A82B7CF1D821C8200
:1059C000D0CF8AE394E00E949617E4CFCF93DF9381
:1059D000EB010E94211F6E8D7F8D0E94E11890E0E7
:1059E00080E0DF91CF9108950E94211F0E941B1932
:1059F00083ED94E00E9496170E94E4150E9402181D
:105A000090E080E008950F931F93CF93DF93EC0114
:105A100088819981009759F02A813B8126173707A1
:105A200030F081E0DF91CF911F910F9108958B01AC
:105A30006F5F7F4F0E940764009759F099838883B6
:105A40001B830A832C813D81232B59F7FC01108293
:105A5000E8CF80E0E7CF0F931F93CF93DF93EC0164
:105A60008B01D1DF28813981811112C021153105C7
:105A700019F0C9010E944B5C198218821D821C8298
:105A80001B821A82CE01DF91CF911F910F91089551
:105A90001D830C8364E275E0C9010E94F964F2CFB2
:105AA000CF93DF93FC01E657FD4F408151814115B3
:105AB000510501F1EC01C257DD4F288139818A5728
:105AC0009D4F24173507E8F4FC01808191810097F0
:105AD000A1F0820F931FFC0180818A3031F08D305C
