:10000000A2C20000D1C20000CFC20000CDC20000D9
:10001000CBC20000C9C20000C7C20000C5C20000B8
:10002000C3C20000C1C20000BFC20000BDC20000C8
:10003000BBC20000B9C20000B7C20000B5C20000D8
:10004000B3C200000C94B124AFC20000ADC20000E6
:100050000C94DE24A9C20000A7C200000C94A43CAA
:10006000A3C200000C94E9220C94C0229DC200009F
:100070009BC2000099C2000097C2000095C2000018
:100080000C94842491C200008FC200008DC2000035
:100090008BC2000089C2000087C2000085C2000038
:1000A00083C2000081C200000C9457247DC200006E
:1000B0007BC2000079C2000077C200000C942A24A1
:1000C00073C2000071C200006FC200006DC2000068
:1000D0006BC2000069C2000067C2000065C2000078
:1000E00063C20000C010CD10D610DF10EC10F51068
:1000F0009114911491149114911402110F111C1167
:100100009114291132113B11481151115A116311E7
:100110006C11751191147E11871190119114911425
:1001200091149911A211AB1191149114B411C11130
:10013000911491149114CE11DB11E8119114F51161
:10014000FE11071291149114911410121912221217
:1001500091142F123C1249129114911491145612B9
:100160006312701291147D128A12971291149114D5
:100170009114A412B112BE129114CB12D412DD123A
:100180009114911491149114911491149114911447
:100190009114911491149114911491149114911437
:1001A00091149114911491149114911491140113B8
:1001B0000A13131391141C1325132E139114911465
:1001C000911437134413511391145E136B13781366
:1001D000911491149114851392139F139114AC13DD
:1001E000B513BE13911491149114C713D013D913DE
:1001F00091149114911491149114911491149114D7
:10020000911491149114E612EF12F81291149114B2
:1002100091149114911491149114911491149114B6
:1002200091149114911491149114911491149114A6
:100230009114911491149114911491149114911496
:100240009114911491149114911491149114911486
:100250009114911491149114911491149114911476
:100260009114911491149114911491149114911466
:10027000911491149114E213EB13F81391140514D3
:100280000E141B14911491149114281431143E145B
:1002900091144B14541461149114911491146E140C
:1002A00077148414121E171E1C1E261E301EA91E33
:1002B0003A1E421E4A1E541E5E1E681E771E811E76
:1002C000A91E8B1E951E9F1ED939DC39CB39CF391B
:1002D000D539133AE039E439EA39EE39F239F839E7
:1002E000FC39003A133A063A0A3A0E3A4E414E4960
:1002F0004E495459494E46CDCCCC3D0AD7233C17E4
:10030000B7D13877CC2B329595E6241FB14F0A0030
:100310000020410000C84200401C4620BCBE4CCA20
:100320001B0E5AAEC59D7400407A10F35A00A0729D
:100330004E18090010A5D4E80000E8764817000020
:10034000E40B54020000CA9A3B000000E1F50500EE
:100350000080969800000040420F000000A0860137
:10036000000000102700000000E803000000006407
:1003700000000000000A0000000000010000000072
:10038000002C76D888DC674F0823DFC1DFAE59E147
:10039000B1B796E5E3E453C63AE651997696E8E6B6
:1003A000C28426EB898C9B62ED407C6FFCEFBC9C89
:1003B0009F40F2BAA56FA5F490055A2AF75C936B9B
:1003C0006CF9676DC11BFCE0E40D47FEF520E6B556
:1003D00000D0ED902E0300943577050080841E0830
:1003E0000000204E0A000000C80C333333330F984E
:1003F0006E12831141EF8D2114893BE65516CFFE15
:10040000E6DB18D1844B381BF77C1D901DA4BBE4A0
:1004100024203284725E228100C9F124ECA1E53DE2
:100420002700002100240027002A002D003000337F
:100430000001010000040107010A0100002200255B
:100440000028002B002E00310034000201000005BE
:100450000108010B01000020002300260029002CC8
:10046000002F003200000100000301060109010510
:10047000050505070508080808020202020A0A081D
:100480000804040404010101010101010103030343
:100490000303030303040707070C0C0C0C0C0C0CE0
:1004A0000C0202020206060606060606060B0B0BE7
:1004B0000B0B0B0B0B010210202008081020401022
:1004C0002040800201020108040201010204081018
:1004D0002040808040201008040201800402018036
:1004E000402010080402010804020101020408105F
:1004F000204080010204081020408000000A0B0206
:10050000090C0D0E080703040100000000000000A4
:1005100000000000000000000000000000000000DB
:100520000000000000000012111000000000000098
:1005300000000000000000000000000000000000BB
:1005400000003E473A4711241FBECFEFD1E2DEBF85
:10055000CDBF00E00CBF17E0A0E0B2E0E6EFF1EAAB
:1005600000E00BBF02C007900D92A434B107D9F789
:100570002DE0A4E4B7E001C01D92AD34B207E1F76D
:1005800012E0C2EAD2E000E006C021970109802F04
:10059000FE010E94E24FC13AD10780E00807A9F7A7
:1005A0000E94EE3C0C94EA502BCD2F923F924F923A
:1005B0005F926F927F928F929F92AF92BF92CF92F3
:1005C000DF92EF92FF920F931F93CF93DF93CDB7FC
:1005D000DEB7E6970FB6F894DEBF0FBECDBF1C01A5
:1005E0002A013B010F83188729873A872E960EAD83
:1005F0001FAD2E97FC01E359FD4F6081718182810F
:1006000093810E94474DA30192010E94A64D0E9432
:100610009D4F6B8F7C8F8D8F9E8FF101EF58FD4F1B
:1006200060817181828193810E94474D2F8138853D
:1006300049855A850E94A64D0E949D4F6BA37CA3BD
:100640008DA39EA3F101EB58FD4F608171818281E2
:1006500093810E94474DA70196010E94A64D0E94DA
:100660009D4F6FA378A789A79AA70E94983C6D8B8E
:100670007E8B8F8B988FF101E251FE4F1182108299
:100680003296118210823E96A114B10461F0C50128
:10069000A0E0B0E0408151816281738184179507A9
:1006A000A607B70714F0A080B180F101EE5FFD4FFF
:1006B0008114910461F0C401A0E0B0E04081518157
:1006C0006281738184179507A607B70714F08080AD
:1006D0009180F101EA5FFD4F0115110561F0C8013C
:1006E000A0E0B0E040815181628173818417950759
:1006F000A607B70714F000811181310120E1620ED5
:10070000711CC501A0E0B0E0F10180A791A7A2A7EC
:10071000B3A7910126573F4F3C8B2B8BA12CB12CBB
:10072000D90158968D929D92AD92BC925B97210112
:10073000BCEF4B1ABEEF5B0A20E030E0F201008F05
:10074000118F228F338F0E94D10F0E94D10F0E94F0
:10075000D10F0E94D10F20914C0730914D0740914D
:100760004E0750914F072F87388B498B5A8B0E9429
:10077000D10F8090500790905107A0905207B090F1
:1007800053070E94D10F8091540790915507A09173
:100790005607B09157078F839887A987BA87F101C9
:1007A000E758FD4F10821182128213823496108214
:1007B0001182128213823496108211821282138265
:1007C00034961182108232961182108232961182F2
:1007D000108232962F85388949895A89208331833E
:1007E00042835383349680829182A282B38234966C
:1007F00080839183A283B3832F96EFAC2F970B8DC9
:100800001C8D2D8D3E8D4F85588969897A89C3014C
:100810000E9458268823F9F08FE393E00E944B3A18
:1008200082EF95E00E944B3AF101EE5AFF4F608152
:10083000718182819381E55EFD4F2081318142810A
:1008400053810E94734ECA01B9010E94BA3A0E94B4
:10085000D10F0E94DB0E6096EFAC60970BA11CA13C
:100860002DA13EA1B501A4018B899C890E94582627
:100870008823F9F08BE393E00E944B3A82E096E004
:100880000E944B3AF101E453FF4F608171818281F4
:100890009381EB55FE4F20813181428153810E942B
:1008A000734ECA01B9010E94BA3A0E94D10F0E9448
:1008B000DB0E6196EFAC61970FA118A529A53AA5AB
:1008C0004F81588569857A85C2010E945826882300
:1008D000F9F087E393E00E944B3A82E196E00E94B0
:1008E0004B3AF101EA5BFE4F608171818281938115
:1008F000E15DFE4F20813181428153810E94734E20
:10090000CA01B9010E94BA3A0E94D10F0E94DB0EBF
:10091000D10151961C92F101E557FF4F1082E65824
:10092000FF4F1082C1010E947532C1010E947932CD
:10093000C3010E940D318B899C890E940D31C20137
:100940000E940D3181E090E0F101EB50FE4F918368
:1009500080837101B9E0EB1ABEEFFB0AF7019183C6
:100960008083810107501E4FD8018D939C9341E0F5
:1009700050E0B301C1010E941C1FF7014081518169
:100980006B897C89C1010E941C1FD8014D915C912B
:10099000B201C1010E941C1F11E0F101E652FD4F9E
:1009A0001083C3010E9443268B899C890E944326A1
:1009B000C2010E94432664E670E080E090E00E945D
:1009C000603CC1018E509E4FFC011083D101AD509F
:1009D000BE4F1C93A1014C505E4FFA0110832F961D
:1009E000FFAD2F97F1110FC060962FAD60972111C9
:1009F00005C061963FAD6197332339F191012159CB
:100A00003F4FF90110826096FFAD6097F11105C06C
:100A1000910127513F4FF90110826196FFAD619717
:100A2000F11105C091012D593E4FF90110822F9609
:100A30002FAD2F97FC01208360963FAD60973C93CC
:100A40006196EFAD6197DA01EC93C3010E94662EC7
:100A50008B899C890E94662EC2010E94662EC3016A
:100A60000E9457278B899C890E945727C2010E94A8
:100A700057270E94D10FDC011C968C918F87188616
:100A80001F82F101EE50FE4FFC8FEB8F91012D5034
:100A90003E4F3CA32BA3A1014C505E4F58A74FA340
:100AA000C1018B509E4F98AB8FA7D101A950BE4F6B
:100AB000BAABA9ABE856F140FCA7EBA72F5E310912
:100AC0003EA72DA7FE96FCABEBAB225C3F4F3EABA7
:100AD0002DABAB8DBC8D8C9181110AC0EBA1FCA11B
:100AE0008081811105C0AFA1B8A58C91882319F030
:100AF000BF85BB2321F0810108511E4F58C3C1019E
:100B00000E9453324FA558A9B301C1010E946E1F24
:100B100049A95AA96B897C89C1010E946E1FA10154
:100B200047505E4FB201C1010E946E1FC3010E9477
:100B3000BF278B899C890E94BF27C2010E94BF27C3
:100B4000F101EE58FF4F8081882331F1C3010E94EB
:100B5000662EF101EB54FD4F80818823C9F06101BD
:100B6000E7E5CE1AEDEFDE0A7101F6E3EF1AFDEFCD
:100B7000FF0A810109561D4F910125573D4FA101E3
:100B800047585D4FB10162587E4FC3010E949531B5
:100B9000F101EE58FF4F1082F101E451FF4F8081C7
:100BA000882341F18B899C890E94662EF101EA54C9
:100BB000FD4F80818823D1F0610123E5C21A2DEF1A
:100BC000D20A710134E3E31A3DEFF30A81010556BD
:100BD0001D4F910121573D4FA10143585D4FB10178
:100BE00060567E4F8B899C890E949531F101E451BA
:100BF000FF4F1082F101EA59FE4F8081882331F1C5
:100C0000C2010E94662EF101E954FD4F80818823C4
:100C1000C9F061014FE4C41A4DEFD40A710152E3E7
:100C2000E51A5DEFF50A810101561D4F91012D5620
:100C30003D4FA1014F575D4FB1016E537E4FC20131
:100C40000E949531F101EA59FE4F1082810101594C
:100C50001F4FD8018C91882309F43EC0F101ED5556
:100C6000FD4F60817181072E000C880B990B0E944B
:100C7000474D9B01AC01F101E758FD4F6081718147
:100C8000828193810E94CE4F181634F5D8011C92B0
:100C900066E274E081010C511E4FC8010E94A72238
:100CA0006DED74E0C8010E94A7226EE973E0C801EF
:100CB0000E94A7222F96BFAD2F97BB2309F470C3C4
:100CC000C10182589E4F0E94053CF101E25BFF4F3B
:100CD0001082118212821382810107511F4FF80185
:100CE00080818823E9F1E454FE4F60817181072EF1
:100CF000000C880B990B0E94474D9B01AC01F10140
:100D0000E358FD4F60817181828193810E94CE4FB3
:100D1000181634F5D8011C9266E274E081010C517A
:100D20001E4FC8010E94A72265E075E0C8010E941D
:100D3000A7226EE973E0C8010E94A7226096BFADAA
:100D40006097BB2309F431C3C10180569E4F0E94B6
:100D5000053CEBA5FCA5FE9610821182128213823F
:100D600081010D591E4FD8018C91882309F43EC092
:100D7000F101E955FD4F60817181072E000C880B50
:100D8000990B0E94474D9B01AC01F101EF57FD4FBC
:100D900060817181828193810E94CE4F181634F553
:100DA000D8011C9266E274E081010C511E4FC8010B
:100DB0000E94A7226DE275E0C8010E94A7226EE999
:100DC00073E0C8010E94A7226196BFAD6197BB2363
:100DD00009F4F0C2C1018E539E4F0E94053CEDA55F
:100DE000FEA5FE96108211821282138260E0C3017A
:100DF0000E94D026882361F0F101E25BFF4F108250
:100E0000118212821382C10182589E4F0E94053CBA
:100E100060E08B899C890E94D026882359F0EBA939
:100E2000FCA91082118212821382C10180569E4F4A
:100E30000E94053C60E0C2010E94D026882361F038
:100E4000ADA9BEA91D921D921D921C921397C101BE
:100E50008E539E4F0E94053CF101E159FF4F808166
:100E6000EB8DFC8D8083F101E751FF4F8081ABA1B9
:100E7000BCA18C93E658FF4F8081EFA1F8A5808339
:100E8000F101E25BFF4F20813181428153812B8749
:100E90003C874D875E87EBA5FCA5FE968080918000
:100EA000A280B380EDA5FEA5FE96C080D180E28031
:100EB000F3800E94D10F8B859C85AD85BE85809384
:100EC0004C0790934D07A0934E07B0934F070E9495
:100ED000D10F8092500790925107A0925207B09282
:100EE00053070E94D10FC0925407D0925507E09249
:100EF0005607F0925707C1010E947532AB8DBC8D29
:100F00008C91882309F44AC00E94983C2D893E891F
:100F10004F89588D621773078407950760F40E9404
:100F2000983C2D893E894F89588D62177307840735
:100F30009507A0F51EC00E94983C6B017C012D898D
:100F40003E894F89588DC21AD30AE40AF50AF10185
:100F5000EF59FD4F2081318142815381A8EEB3E0EA
:100F60000E948F4E6C157D058E059F0508F427C2E3
:100F7000D6CF0E94983C6B017C01F101EF59FD4FE7
:100F80002081318142815381A8EEB3E00E948F4ECF
:100F90006C157D058E059F0508F411C2ABA1BCA19F
:100FA0008C91882309F44AC00E94983C2D893E897F
:100FB0004F89588D621773078407950760F40E9464
:100FC000983C2D893E894F89588D62177307840795
:100FD0009507A0F51EC00E94983C6B017C012D89ED
:100FE0003E894F89588DC21AD30AE40AF50AF101E5
:100FF000EB59FD4F2081318142815381A8EEB3E04E
:101000000E948F4E6C157D058E059F0508F4EEC17C
:10101000D6CF0E94983C6B017C01F101EB59FD4F4A
:101020002081318142815381A8EEB3E00E948F4E2E
:101030006C157D058E059F0508F4D8C1AFA1B8A534
:101040008C91882309F44AC00E94983C2D893E89DE
:101050004F89588D621773078407950760F40E94C3
:10106000983C2D893E894F89588D621773078407F4
:101070009507A0F51EC00E94983C6B017C012D894C
:101080003E894F89588DC21AD30AE40AF50AF10144
:10109000E759FD4F2081318142815381A8EEB3E0B1
:1010A0000E948F4E6C157D058E059F0508F4B5C115
:1010B000D6CF0E94983C6B017C01F101E759FD4FAE
:1010C0002081318142815381A8EEB3E00E948F4E8E
:1010D0006C157D058E059F0508F49FC18AEF9BE086
:1010E0000E940520181619067CF58AEF9BE00E94E5
:1010F000E31F8F7D8534910539F56FE974E0C101F7
:101100008C519E4F0E94A72284E693E00E944B3AA6
:1011100048D751D6F101E159FF4F1082E658FF4FF1
:101120001082E658FF4F1082AB8DBC8D1C92EBA154
:10113000FCA11082AFA1B8A51C92B1E0BF87E1E08D
:10114000F0E0F887EF8304C02F813885232B81F0EE
:1011500064EB74E0C1018C519E4F0E94A722AB8DBD
:10116000BC8D1C92EBA1FCA11082AFA1B8A51C9272
:10117000C1010E946639F101E051FE4F80819181E9
:101180000196918380838D3291400CF4A2CCD101E1
:10119000A851BE4F8D919C911197892B09F099CC44
:1011A00014968D919C91892B09F44EC192CCD80153
:1011B0008D919C91892B21F0C1010E946639F7CF56
:1011C00084EC94E00E944B3A2F96BFAD2F97BB233F
:1011D000F9F0EF81F885EF2B41F5FF85F1113DC066
:1011E00087E293E00E944B3ADCD6E5D560962FADBE
:1011F0006097222309F4F1C283E293E00E944B3A04
:10120000D0D6D9D561963FAD6197332359F11EC031
:1012100060964FAD6097442369F08F819885892B44
:1012200009F59F8591111EC0E7CF60969FAD60972D
:10123000911118C06196AFAD6197AA2399F0EF8123
:10124000F885EF2B79F4FF85F1110CC08FE193E065
:101250000E944B3AA6D6AFD505C06096AFAD609759
:10126000AA2341F391012B503E4F3A8F298F85E0FD
:1012700090E0D9018D939C93810109501E4FF80194
:10128000918380832C5F3F4F3E8B2D8BD9018D93B3
:101290009C9345E050E0B301C1010E941C1FF8017E
:1012A000408151816B897C89C1010E941C1FAD89DD
:1012B000BE894D915C91B201C1010E941C1FC10108
:1012C0000E947D32F101E25BFF4F80809180A2801D
:1012D000B380E658FF4F20813181428153812F8FA7
:1012E00038A349A35AA3E658FF4FC080D180E280BB
:1012F000F38057D680924C0790924D07A0924E07EC
:10130000B0924F074ED68F8D98A1A9A1BAA1809314
:10131000500790935107A0935207B093530741D6BB
:10132000C0925407D0925507E0925607F0925707A3
:10133000C1010E947532C1010E94793232D68ED528
:10134000C1010E94221CA98DBA8D1D921C92F80128
:1013500011821082AD89BE891D921C9240E050E03E
:10136000B301C1010E941C1FF801408151816B89AA
:101370007C89C1010E941C1FAD89BE894D915C9181
:10138000B201C1010E941C1FC1010E947D32BF85B4
:10139000BB2309F428C205D621E0FC01248723C21F
:1013A000E1E0F0E0F887EF8397CCE1E0F0E0F88748
:1013B000EF83D6CCE1E0F0E0F887EF8317CD63E36D
:1013C00073E081010C511E4FC8010E94A7226EE9F3
:1013D00073E0C8010E94A72265E575E0C8010E947C
:1013E000A72222E030E038872F83D8CD6FE273E068
:1013F00081010C511E4FC8010E94A7226EE973E0C3
:10140000C8010E94A7226AE675E0C8010E94A722CF
:1014100042E050E058874F8311CE6BE273E08101C8
:101420000C511E4FC8010E94A7226EE973E0C8014B
:101430000E94A7226FE775E0C8010E94A72282E000
:1014400090E098878F834ACE11821082F101E25199
:10145000FE4F80819181009749F460E673E081013D
:101460000C511E4FC8010E94A72294C1019709F098
:10147000A0C197D58C01FC0180819181A281B381AB
:10148000181619061A061B0644F081E090E0A0E049
:10149000B0E080839183A283B383F8018481958136
:1014A000A681B781181619061A061B0644F081E0BA
:1014B00090E0A0E0B0E084839583A683B783F80131
:1014C00080859185A285B385181619061A061B0614
:1014D00044F081E090E0A0E0B0E080879187A287AF
:1014E000B387CE0101960E944C3A60EC74E0CE01C5
:1014F00001960E94A72262EF75E0CE0101960E943C
:10150000A72260914C0770914D0780914E079091F2
:101510004F070E94474D6B017C01D8016D917D9171
:101520008D919C910E94474D9B01AC01C701B60172
:101530000E94354FAB01BC01CE0101960E944722AB
:1015400062E076E0CE0101960E94A72260915007EA
:101550007091510780915207909153070E94474D17
:101560006B017C01F80164817581868197810E94FD
:10157000474D9B01AC01C701B6010E94354FAB013D
:10158000BC01CE0101960E94472262E176E0CE01C5
:1015900001960E94A722609154077091550780918F
:1015A0005607909157070E94474D6B017C01D80167
:1015B00018966D917D918D919C911B970E94474D3E
:1015C0009B01AC01C701B6010E94354FAB01BC01C4
:1015D000CE0101960E944722BE016F5F7F4F8101BD
:1015E0000C511E4FC8010E94B522CE0101960E94E7
:1015F000BB22D7D4BC01CE010196BFD3BE016F5F21
:101600007F4FC8010E94B522CE0101960E94BB22E5
:101610006BE173E0C8010E94A72262EF75E0C80188
:101620000E94A722F101E258FE4FFC87EB87CF0111
:101630000E9409250E94474D6B017C01F101E3598D
:10164000FD4F60817181828193810E94474D9B0192
:10165000AC01C701B6010E94354FAB01BC01C80106
:101660000E94472262E076E0C8010E94A722610141
:10167000F0E6CF1AFEEFDF0AC6010E9409250E949C
:10168000474D4B015C01F101EF58FD4F60817181C5
:10169000828193810E94474D9B01AC01C501B40139
:1016A0000E94354FAB01BC01C8010E94472262E194
:1016B00076E0C8010E94A72271012EE3E21A2EEF04
:1016C000F20AC7010E9409250E94474D4B015C01A7
:1016D000F101EB58FD4F60817181828193810E94FD
:1016E000474D9B01AC01C501B4010E94354FAB01D0
:1016F000BC01C8010E94472254D4BC01CE0101960E
:101700003CD3BE016F5F7F4FC8010E94B522CE015E
:1017100001960E94BB2267E173E0C8010E94A722E4
:1017200062EF75E0C8010E94A722EB85FC85A68DBB
:10173000B78D20893189428953890E94994EAB0126
:10174000BC01C8010E94772262E076E0C8010E94D5
:10175000A722F601A68DB78D208931894289538948
:101760000E94994EAB01BC01C8010E94772262E140
:1017700076E0C8010E94A722F701A68DB78D2089C7
:101780003189428953890E94994EAB01BC01C8013D
:101790000E94772206D4BC01CE010196EED2BE0192
:1017A0006F5F7F4FC8010E94B522CE0101960E9453
:1017B000BB22F101E251FE4F80819181019682307E
:1017C00091051CF49183808302C011821082F10183
:1017D000E451FE4F118210827CC96196BFAD6197C2
:1017E000B11134CD3FCD82ED94E00E944B3A8F8110
:1017F00098850E94AA3B8EE993E00E944B3AD1D390
:101800002F8138853093470720934607C901E69614
:101810000FB6F894DEBF0FBECDBFDF91CF911F9101
:101820000F91FF90EF90DF90CF90BF90AF909F907F
:101830008F907F906F905F904F903F902F90089582
:10184000662319F08FEA93E002C088EA93E00C94D3
:101850004B3A0C9468480C9468480C9468480C9473
:1018600068480C9468480C9468480C9468480C9438
:1018700068480C9468480C9468480C9468480C9428
:1018800068480C9468480C9468480C9468480C9418
:1018900068480C9468480F931F93CF93DF93FB0124
:1018A00002A913A9C68DD78D0E94B61EA801BE013C
:1018B0000E94631D80E090E0DF91CF911F910F9116
:1018C00008950F931F93CF93DF93FB0102A113A100
:1018D000C68DD78D0E94F41CC530D105E1F064F4AB
:1018E000249771F564E070E080E39DE00E94A223FC
:1018F000B80180E39DE022C0C630D105B1F02B973E
:10190000F9F46BE070E089E39DE00E94A223B80146
:1019100089E39DE013C065E070E083E39DE00E94F1
:10192000A223B80183E39DE009C066E070E086E38E
:101930009DE00E94A223B80186E39DE00E941F2340
:1019400080E090E0DF91CF911F910F910895EF9289
:10195000FF920F931F93CF93DF93FB01E2A8F3A8AD
:1019600002A113A1C68DD78D0E94B61E9701A801B2
:10197000BE010E94CF1D80E090E0DF91CF911F91CA
:101980000F91FF90EF9008954F925F926F927F9228
:10199000AF92BF92CF92DF92EF92FF920F931F937D
:1019A000CF93DF93FB01E2A8F3A846A457A460A855
:1019B00071A8C6A0D7A0A2A0B3A0068D178D0E94C3
:1019C000B61EEC019701A501B8010E94CF1DC3010D
:1019D000B2010E94603C9701A601B801CE010E94AD
:1019E000CF1D80E090E0DF91CF911F910F91FF908C
:1019F000EF90DF90CF90BF90AF907F906F905F900F
:101A00004F900895CF93DF93FB01D2A9C68D0E941A
:101A1000B61E6D2F8C2F0E94193C80E090E0DF9164
:101A2000CF910895CF93DF93FB01C68DD78D0E9490
:101A30002317BE010E94E21680E090E0DF91CF9173
:101A40000895CF92DF92EF92FF920F931F93CF935F
:101A5000DF93FB01C2A0D3A0E4A0F5A0068D178DF3
:101A60000E942317EC018A819B818F30F7E29F0748
:101A700024F401969B838A8302C01B821A82B801D8
:101A8000CE010E94F4158823B1F0F801EE0FFF1F7C
:101A9000EE0FFF1FE85AF84FC082D182E282F38234
:101AA000A7019601B801CE010E94A516B801CE018A
:101AB0000E94E21604C084E995E00E944B3A0E941D
:101AC000371D0E94071D80E090E0DF91CF911F91AC
:101AD0000F91FF90EF90DF90CF9008958F929F929B
:101AE000AF92BF92CF92DF92EF92FF920F931F932C
:101AF0000E94DB1C62E070E00E949834892BD1F4D4
:101B00000E94DB1C21E02F931F921F921F921F92B5
:101B1000812C912CA12CB12CC12CD12C76019701B8
:101B20008601B701A6010E94D5020F900F900F9079
:101B30000F900F9080E090E01F910F91FF90EF9039
:101B4000DF90CF90BF90AF909F908F9008958F922D
:101B50009F92AF92BF92CF92DF92EF92FF920F933C
:101B60001F930E94DB1C61E070E00E949834892B77
:101B7000D1F40E94DB1C1F9221E02F931F921F9231
:101B80001F92812C912CA12CB12CC12CD12C76012F
:101B900097018601B701A6010E94D5020F900F9010
:101BA0000F900F900F9080E090E01F910F91FF90A9
:101BB000EF90DF90CF90BF90AF909F908F9008955F
:101BC0008F929F92AF92BF92CF92DF92EF92FF924D
:101BD0000F931F930E94DB1C60E070E00E9498341A
:101BE000892BD1F40E94DB1C1F921F9221E02F93BE
:101BF0001F921F92812C912CA12CB12CC12CD12C85
:101C0000760197018601B701A6010E94D5020F90C7
:101C10000F900F900F900F9080E090E01F910F9128
:101C2000FF90EF90DF90CF90BF90AF909F908F90FC
:101C300008958F929F92AF92BF92CF92DF92EF92D0
:101C4000FF920F931F930E94DB1C21E02F931F92A2
:101C50001F921F921F92812C912CA12CB12CC12C70
:101C6000D12C760197018601B701A6010E94D50209
:101C70000F900F900F900F900F9080E090E01F91C9
:101C80000F91FF90EF90DF90CF90BF90AF909F901B
:101C90008F9008958F929F92AF92BF92CF92DF92D2
:101CA000EF92FF920F931F930E94DB1C1F9221E083
:101CB0002F931F921F921F92812C912CA12CB12C3B
:101CC000C12CD12C760197018601B701A6010E9493
:101CD000D5020F900F900F900F900F9080E090E042
:101CE0001F910F91FF90EF90DF90CF90BF90AF903A
:101CF0009F908F9008958F929F92AF92BF92CF92B4
:101D0000DF92EF92FF920F931F930E94DB1C1F92B2
:101D10001F9221E02F931F921F92812C912CA12CB6
:101D2000B12CC12CD12C760197018601B701A601F7
:101D30000E94D5020F900F900F900F900F9080E0AF
:101D400090E01F910F91FF90EF90DF90CF90BF90A8
:101D5000AF909F908F9008950895089508950895E5
:101D6000089508950895089508950895089508958B
:101D700008950895089508950895CF93DF93EC0191
:101D80000E944C3A66EB75E0CE010E94A72240917A
:101D900048075091490760914A0770914B07CE015F
:101DA0000E9477226EE973E0CE010E94A722CE0145
:101DB000DF91CF91089586EB95E00E944B3A6091B8
:101DC00048077091490780914A0790914B070E94FC
:101DD000BA3A8EE993E00C944B3A0F931F93CF934A
:101DE000DF93EC0189EB95E00E944B3A8DEB95E097
:101DF0000E944B3A05EE1BE0F8016081CE0120DD28
:101E000081EC95E00E944B3AF8016181CE0118DD2A
:101E100085EC95E00E944B3AF8016281CE0110DD1D
:101E200089EC95E00E944B3AF8016381CE0108DD10
:101E30008DEC95E00E944B3AF8016481CE0100DD03
:101E400081ED95E00E944B3AF8016581CE01F8DC06
:101E5000CE01DF91CF911F910F91ADCFCF92DF9245
:101E6000EF92FF92CF93DF93EC0188819981AA8151
:101E7000BB81181619061A061B0644F081E090E093
:101E8000A0E0B0E088839983AA83BB838C819D8185
:101E9000AE81BF81181619061A061B0644F081E0B0
:101EA00090E0A0E0B0E08C839D83AE83BF83888503
:101EB0009985AA85BB85181619061A061B0644F0D3
:101EC00081E090E0A0E0B0E088879987AA87BB878F
:101ED00080EC94E00E944B3A82EF95E00E944B3AEE
:101EE00060914C0770914D0780914E0790914F077C
:101EF0000E94474D6B017C01688179818A819B81B9
:101F00000E94474D9B01AC01C701B6010E94354FAD
:101F100042E00E94E13A82E096E00E944B3A6091F2
:101F200050077091510780915207909153070E947A
:101F3000474D6B017C016C817D818E819F810E9468
:101F4000474D9B01AC01C701B6010E94354F42E0ED
:101F50000E94E13A82E196E00E944B3A6091540778
:101F60007091550780915607909157070E94474DF1
:101F70006B017C01688579858A859B850E94474D28
:101F80009B01AC01C701B6010E94354F42E00E949F
:101F9000E13ACE01DF91CF91FF90EF90DF90CF90AB
:101FA0000ACF8091E30B9091E40B892B71F58DE0C2
:101FB00090E00E94D047FC01148610924C071092CA
:101FC0004D0710924E0710924F0710925007109233
:101FD0005107109252071092530710925407109213
:101FE0005507109256071092570710924807109203
:101FF000490710924A0710924B0710924707109218
:1020000046079093E40B8093E30B8091E30B909150
:10201000E40B089585ED95E00E944B3A83E493E04C
:102020000E944B3ABEDFC7DE80E090E00895B9DF42
:1020300015DF80E090E008950F931F93CF93DF9317
:1020400002D78C01C0E0D0E0BE01C801CDD5882305
:1020500019F0BE01C801B6D62196C13ED105A1F73F
:102060008AED95E00E944B3A9CDFA5DE80E090E08F
:10207000DF91CF911F910F91089593DFFC0114869A
:1020800080E090E00895CF93DF9385E40E94AF3B1A
:10209000EC0187DF81E0CD2B09F480E08093E50B34
:1020A00084E40E94AF3BEC017CDF81E0CD2B09F49E
:1020B00080E08093E60B83E40E94AF3BEC0171DF8C
:1020C00081E0CD2B09F480E08093E70B82E40E944D
:1020D000AF3BEC0166DF81E0CD2B09F480E080931B
:1020E000E80B81E40E94AF3BEC015BDF81E0CD2B8C
:1020F00009F480E08093E90B80E40E94AF3BEC019F
:1021000050DF81E0CD2B09F480E08093EA0BDF9172
:10211000CF9108958EED95E00E944B3A42DFB3DFF8
:1021200040DF5BDE0E94B61E40E050E068E070E0F9
:102130000E94631D0E94B61E40E050E069E070E01E
:102140000E94631D0E94B61E40E050E06AE070E00D
:102150000E94631D0E94B61E40E050E06DE070E0FA
:102160000E94631D80E090E00895603E710508F0D4
:10217000D8C3FB018827EE58FF4F8F4F0C94E24FD6
:1021800081E090E0A0E0B0E0809358079093590779
:10219000A0935A07B0935B07089510925C071092C2
:1021A0005D0710925E0710925F0708951092600716
:1021B000109261071092620710926307089581E000
:1021C00090E0A0E0B0E08093640790936507A0934F
:1021D0006607B09367070895109268071092690721
:1021E00010926A0710926B07089583E090E0A0E0D8
:1021F000B0E080936C0790936D07A0936E07B09347
:102200006F07089588E790E0A0E0B0E0809384072E
:1022100090938507A0938607B0938707089588E772
:1022200090E0A0E0B0E08093880790938907A093A6
:102230008A07B0938B07089588E790E0A0E0B0E0AC
:1022400080938C0790938D07A0938E07B0938F0790
:102250000895109294071092950710929607109285
:1022600097070895109298071092990710929A076D
:1022700010929B07089581E090E0A0E0B0E0809389
:102280009C0790939D07A0939E07B0939F07089586
:102290001092A0071092A1071092A2071092A30714
:1022A00008951092A4071092A5071092A607109205
:1022B000A70708951092A8071092A9071092AA07DD
:1022C0001092AB0708951092AC071092AD071092D0
:1022D000AE071092AF0708951092B0071092B107A1
:1022E0001092B2071092B30708951092B40710929B
:1022F000B5071092B6071092B70708951092BC0761
:102300001092BD071092BE071092BF070895109259
:10231000C0071092C1071092C2071092C307089518
:102320001092C4071092C5071092C6071092C707F3
:1023300008951092D4071092D5071092D6071092E4
:10234000D70708951092D8071092D9071092DA078C
:102350001092DB0708951092DC071092DD071092AF
:10236000DE071092DF07089581E090E0A0E0B0E082
:102370008093E8079093E907A093EA07B093EB07EF
:10238000089581E090E0A0E0B0E08093EC079093A6
:10239000ED07A093EE07B093EF0708958CE291E06C
:1023A000A0E0B0E08093FC079093FD07A093FE07A8
:1023B000B093FF0708958CE291E0A0E0B0E0809335
:1023C000000890930108A0930208B09303080895B1
:1023D0008CE291E0A0E0B0E08093040890930508BF
:1023E000A0930608B0930708089510920C08109265
:1023F0000D0810920E0810920F0808951092100800
:102400001092110810921208109213080895109259
:1024100014081092150810921608109217080895C3
:10242000109224081092250810922608109227086E
:102430000895109228081092290810922A081092E4
:102440002B08089581E090E0A0E0B0E080932C0894
:1024500090932D08A0932E08B0932F08089585E03F
:1024600090E0A0E0B0E08093340890933508A0930A
:102470003608B0933708089585E090E0A0E0B0E01A
:102480008093380890933908A0933A08B0933B089A
:10249000089589E190E0A0E0B0E080933C0890933B
:1024A0003D08A0933E08B0933F08089582E390E072
:1024B000A0E0B0E080934C0890934D08A0934E08A4
:1024C000B0934F08089582E390E0A0E0B0E08093DD
:1024D000500890935108A0935208B0935308089560
:1024E00082E390E0A0E0B0E0809354089093550818
:1024F000A0935608B0935708089582E390E0A0E0B7
:10250000B0E080935C0890935D08A0935E08B09360
:102510005F08089582E390E0A0E0B0E08093600857
:1025200090936108A0936208B0936308089582E3D2
:1025300090E0A0E0B0E08093640890936508A093D9
:102540006608B0936708089580E991E0A0E0B0E0E4
:102550008093740890937508A0937608B0937708D9
:10256000089580E991E0A0E0B0E08093780890932E
:102570007908A0937A08B0937B08089580E991E0E8
:10258000A0E0B0E080937C0890937D08A0937E0843
:10259000B0937F08089510928408109285081092D5
:1025A000860810928708089510928808109289086A
:1025B00010928A0810928B08089510928C0810923D
:1025C0008D0810928E0810928F08089510929C0921
:1025D00010929D0910929E0910929F0908951092E1
:1025E000A0091092A1091092A2091092A3090895BE
:1025F0001092A4091092A5091092A6091092A70999
:1026000008951092EC081092ED081092EE081092C6
:10261000EF0808951092F0081092F1081092F20855
:102620001092F30808951092F4081092F508109291
:10263000F6081092F70808951092FC081092FD0811
:102640001092FE081092FF0808951092000910924F
:1026500001091092020910920309089510920409C9
:10266000109205091092060910920709089585E055
:1026700090E0A0E0B0E08093140990931509A09336
:102680001609B0931709089585E090E0A0E0B0E046
:102690008093180990931909A0931A09B0931B0904
:1026A000089585E090E0A0E0B0E080931C0990934D
:1026B0001D09A0931E09B0931F09089584EB95E1AD
:1026C000A0E0B0E08093240990932509A093260907
:1026D000B0932709089584EB95E1A0E0B0E08093E2
:1026E000280990932909A0932A09B0932B090895EA
:1026F00084EB95E1A0E0B0E080932C0990932D0944
:10270000A0932E09B0932F09089585E090E0A0E0F2
:10271000B0E080933C0990933D09A0933E09B093AB
:102720003F09089585E090E0A0E0B0E08093400983
:1027300090934109A0934209B0934309089585E01D
:1027400090E0A0E0B0E08093440990934509A09305
:102750004609B0934709089510924C0910924D090B
:1027600010924E0910924F0908951092500910923C
:102770005109109252091092530908951092540968
:102780001092550910925609109257090895109207
:1027900064091092650910926609109267090895FC
:1027A000109268091092690910926A0910926B09D7
:1027B000089510926C0910926D0910926E09109292
:1027C0006F09089510927C0A10927D0A10927E0A79
:1027D00010927F0A08958CE390E0A0E0B0E080932F
:1027E000800A9093810AA093820AB093830A089585
:1027F00081E090E0A0E0B0E08093840A9093850AA5
:10280000A093860AB093870A089510928C0A1092BA
:102810008D0A10928E0A10928F0A08958CE390E030
:10282000A0E0B0E08093900A9093910AA093920A5E
:10283000B093930A089581E090E0A0E0B0E0809327
:10284000940A9093950AA093960AB093970A0895D4
:102850001092A40A1092A50A1092A60A1092A70A32
:1028600008958CE390E0A0E0B0E08093A80A9093F4
:10287000A90AA093AA0AB093AB0A089581E090E058
:10288000A0E0B0E08093AC0A9093AD0AA093AE0AAA
:10289000B093AF0A08951092B40A1092B50A10923C
:1028A000B60A1092B70A08958CE390E0A0E0B0E079
:1028B0008093B80A9093B90AA093BA0AB093BB0A5E
:1028C000089581E090E0A0E0B0E08093BC0A90938E
:1028D000BD0AA093BE0AB093BF0A08951092CC0A15
:1028E0001092CD0A1092CE0A1092CF0A08958CE36E
:1028F00090E0A0E0B0E08093D00A9093D10AA0933A
:10290000D20AB093D30A089581E090E0A0E0B0E04D
:102910008093D40A9093D50AA093D60AB093D70A8D
:102920000895660F771F660F771FFB01E85AF84F6F
:10293000108211821282138208958FEF9FEF089503
:102940004F925F926F927F928F929F92AF92BF92BF
:10295000CF92DF92EF92FF920F931F93CF93DF936B
:102960008B01EB01CC0FDD1FCE010E945D4E882E46
:10297000912CA12CB12CCE0101960E945D4EC82E47
:10298000D12CE12CF12C0D5811090330110588F5DB
:10299000CE0144960E945D4E482E512C612C712C24
:1029A000CE0145960E945D4E482F50E060E070E0F9
:1029B0008FEF4816510461047104A9F44F3F51058B
:1029C0006105710581F48FEF88169104A104B104AB
:1029D00081F48FEFC816D104E104F10451F46FEFD4
:1029E0007FEFCB012BC040385105610571056CF0BC
:1029F000F6CF80E8C816D104E104F10484F740E082
:102A000050E0BA01412C512C3201FE2CED2CDC2C73
:102A1000CC248C0C9D1CAE1CBF1C320155244424BC
:102A2000840C951CA61CB71C742F662755274427B9
:102A3000CB01BA01680D791D8A1D9B1DDF91CF91D5
:102A40001F910F91FF90EF90DF90CF90BF90AF90CC
:102A50009F908F907F906F905F904F9008950C940F
:102A600068480C9468480C9468480C9468480C9426
:102A700068480C9468484F925F926F927F928F9251
:102A80009F92AF92BF92CF92DF92EF92FF920F93FD
:102A90001F93CF93DF9300D000D0CDB7DEB7FB01FB
:102AA00026892D8387898E8382889388A684B7841C
:102AB000C284D384E484F584468057806084718422
:102AC00082819381A481B58189839A83AB83BC83FE
:102AD00072D71F921F921F92AE81AF93BD81BF9399
:102AE0009301820149815A816B817C810E94D502C8
:102AF0000F900F900F900F900F9080E090E026962F
:102B00000FB6F894DEBF0FBECDBFDF91CF911F91FE
:102B10000F91FF90EF90DF90CF90BF90AF909F907C
:102B20008F907F906F905F904F900895CF93DF9339
:102B3000EB0120E030E040E85FE36A817B818C813B
:102B40009D810E94414D811110C085EE95E00E944B
:102B50004B3A31D7FC01E25BFF4F108211821282A7
:102B6000138282589E4F0E94053C20E030E040E8EE
:102B70005FE36E817F81888599850E94414D811137
:102B800010C085EF95E00E944B3A15D7FC01E85341
:102B9000FF4F108211821282138280569E4F0E9434
:102BA000053C20E030E040E85FE36A857B858C856A
:102BB0009D850E94414D811110C085E096E00E94E4
:102BC0004B3AF9D6FC01EE5BFE4F10821182128265
:102BD00013828E539E4F0E94053CE3D9ECD880E0CF
:102BE00090E0DF91CF9108956E3471050CF050C0E4
:102BF0006B3471050CF08FC06C32710554F569327D
:102C000071050CF088C06831710594F46F3071055E
:102C10000CF081C06630710544F4623071050CF02F
:102C20007AC0672B09F075C076C06B5071096EC011
:102C3000623271053CF46F3171050CF06CC0695162
:102C4000710964C0645271096230710508F061C095
:102C500062C06A3371057CF4673371050CF05BC0A8
:102C60006D3271050CF455C0603371050CF453C01E
:102C7000635371094BC0643471053CF461347105D0
:102C80000CF049C06D53710941C0675471093EC0D1
:102C900066387105F4F463387105ECF56237710537
:102CA00064F46F367105BCF56536710594F16836CC
:102CB00071058CF16956710929C06C37710534F4BE
:102CC0006937710544F56357710920C06D57710963
:102CD0001DC0603D71057CF46D3C7105E4F4643900
:102CE000710534F461397105B4F46D5871090EC081
:102CF000695C71090BC06A3D710534F4673D71056B
:102D000054F4635D710902C06D5D71096330710532
:102D100010F080E0089581E008950F931F93CF9302
:102D2000DF938C01C0E0D0E0BE01C8015DDF8823E5
:102D300019F0BE01C80119DA2196C13ED105A1F7EB
:102D4000DF91CF911F910F910895CF92DF92EF9273
:102D5000FF920F931F93CF93DF938B0169017A0149
:102D6000EB01CC0FDD1F6C2DCE010E94654E992723
:102D7000F7FC9A958F2D7E2D6D2DCE0101960E9428
:102D8000654E0D5811090330110588F4B7019927D4
:102D900077FD9095892FCE0144960E94654E6F2D48
:102DA000772788279927CE0145960E94654E80E0B7
:102DB00090E0DF91CF911F910F91FF90EF90DF9006
:102DC000CF900895CF92DF92EF92FF92CF93DF934F
:102DD000EB010ADF882351F1FE01EE0FFF1FEE0F1A
:102DE000FF1FE85AF84FC080D180E280F38085E170
:102DF00096E00E944B3A88ED95E00E944B3A89E1BB
:102E000096E00E944B3ACE010E94AA3B88ED95E0E5
:102E10000E944B3A8BE196E00E944B3AC701B60103
:102E20000E94BA3ABED80E94DB0E04C084E995E045
:102E30000E944B3A80E090E0DF91CF91FF90EF90BD
:102E4000DF90CF900895EF92FF920F931F93CF934F
:102E5000DF938091EB0B9091EC0B892B09F064C010
:102E600084E090E00E94D047EC0160E070E068DD13
:102E700016161706F4F0CE0150DF98E5E92E97E01C
:102E8000F92E00E010E0B801CE01AEDE882341F05B
:102E9000F7012081318142815381B801CE0155DF94
:102EA0000F5F1F4FF4E0EF0EF11C0639110559F7C3
:102EB00037C063E070E0CE0143DD6130710581050C
:102EC000910561F588E5E82E87E0F82E00E010E036
:102ED000B801CE0189DE8823C1F0B801CE0130DD12
:102EE000F70160837183828393836F3F7F4F8F4F9E
:102EF0009F4F59F4B801CE0138D9F70120813181B3
:102F000042815381B801CE0120DF0F5F1F4FF4E0F3
:102F1000EF0EF11C013E1105D9F602C0CE01FDDE17
:102F2000D093EC0BC093EB0B8091EB0B9091EC0BDF
:102F3000DF91CF911F910F91FF90EF9008954F92E5
:102F40005F926F927F928F929F92AF92BF92CF9239
:102F5000DF92EF92FF920F931F93CF93DF9300D0F6
:102F60001F92CDB7DEB76FDF409034085090350820
:102F7000609036087090370866DF8090380890902F
:102F80003908A0903A08B0903B080BD8C0904C0785
:102F9000D0904D07E0904E07F0904F0702D8C70140
:102FA000B6010E94474D6B017C01C301B2010E9432
:102FB000474D9B01AC01C701B6010E94354F2B0163
:102FC0003C01609150077091510780915207909198
:102FD00053070E94474D6B017C01C501B4010E945B
:102FE000474D9B01AC01C701B6010E94354F698373
:102FF0007A838B839C83DFD41F921F921F921F9230
:103000001F92812C912CA12CB12CC12CD12C76019A
:1030100009811A812B813C81B301A2010E94D50252
:10302000CAD41F921F921F921F921F92970186016E
:10303000B301A2010E94D502BED41F921F921F921B
:103040001F921F9297018601B701A6010E94D50227
:103050000FB6F894DEBF0FBECDBF80E090E00F90BA
:103060000F900F900F90DF91CF911F910F91FF90D4
:10307000EF90DF90CF90BF90AF909F908F907F9018
:103080006F905F904F900895089508950895089562
:1030900008950895CF92DF92EF92FF920F931F93BE
:1030A000CF93DF937C016B018A01E901CCDEF6014D
:1030B000EE0FFF1FEE0FFF1FE85AF84F808191813E
:1030C000F70191838083BFDE000F111F000F111FD6
:1030D000F801E85AF84F81E04081518162817381A3
:1030E000413051056105710509F080E0F7018287E3
:1030F000AADECC0FDD1FCC0FDD1FC85AD84F888148
:103100009981AA81BB81F70182839383A483B583CC
:103110001682178210861186DF91CF911F910F9131
:10312000FF90EF90DF90CF900895AF92BF92CF9233
:10313000DF92EF92FF920F931F93CF93DF93EC01F7
:103140008AE190E09E8B8D8B8BE190E0988F8F8B46
:1031500089E190E09A8F898F8FE090E09C8F8B8F30
:103160008EE190E09E8F8D8F8EE090E098A38F8F00
:1031700085E490E09AA389A384E490E09CA38BA3C8
:10318000FE01E657FF4F80E290E09683858381E25F
:1031900090E0908787838FE190E092878187148603
:1031A000138616861586108A178683E490E0928B24
:1031B000818B82E490E0948B838BE658FF4F83E20F
:1031C00090E09683858384E290E09087878382E213
:1031D00090E0928781871486138616861586108A5A
:1031E000178681E490E0928B818B80E490E0948B51
:1031F000838BEF50FF4F1182108232961182108222
:10320000329611821082CE010E94FF27CE010E94C9
:10321000AB32CE0182589E4F41E050E0FC0151A3F9
:1032200040A3DE01A056BE4F24E030E091963C93CF
:103230002E9390975E01FEE3AF1AFEEFBF0A28E0DF
:1032400030E0F50131A320A320E130E0FC0131831F
:10325000208321E130E0358324832FEF3FEF338358
:10326000228337832683628560876385618767E170
:1032700070E011967C936E9368E170E015967C93F4
:103280006E93149713963C932E93129717963C9334
:103290002E9316971A966C911A9718966C93189706
:1032A0001B966C911B9719966C9319976DE170E0C2
:1032B000F501718360836CE170E07583648333830F
:1032C0002283378326836285608763856187BE0199
:1032D00060537D4FFB01608171818E0102541D4F4F
:1032E000F801C080D180E280F38006501109F80116
:1032F00000811181FC01158F048FC48AD58AE68A6A
:10330000F78A6130710519F4378F268F03C0FC01ED
:10331000578F468FCE018E529D4FFC018081918147
:103320009E012E533D4FF90140815181628173818D
:1033300028503109F901208131815D963C932E930B
:103340005C9754964D935D936D937C93579701973B
:1033500019F48FEF9FEF02C081E090E05F969C939D
:103360008E935E97DE01AC52BD4F8D919C9111976B
:103370001E974D915D916D917C91C454DD4F2881D4
:103380003981F501358F248F448B558B668B778B74
:10339000019719F48FEF9FEF03C081E090E0F501F2
:1033A000978F868FDF91CF911F910F91FF90EF90B4
:1033B000DF90CF90BF90AF9008952F923F924F92A1
:1033C0005F926F927F928F929F92AF92BF92CF92B5
:1033D000DF92EF92FF920F931F93CF93DF93CDB7BE
:1033E000DEB7CA57D1090FB6F894DEBF0FBECDBF06
:1033F0008C01FC01108211821282138214821582C8
:1034000016821782108611861286138614861586F8
:10341000168617864C01F0E18F0E911CC4010E94A4
:10342000313168018AE8C80ED11CC6010E943131D1
:103430007801ECEFEE1AEEEFFE0AC7010E9431317F
:103440005801F2E8AF1AFEEFBF0AC5010E945E25DF
:10345000380180E6681A8EEF780AC3010E945E2563
:103460002801EEE34E1AEEEF5E0AC2010E945E25CD
:10347000C8018C519E4F0E944C3AF801E651FE4F14
:10348000118210823296118210823296118210823D
:1034900032961182108232961082319610823196C5
:1034A00010823196118210823296118210823296E9
:1034B00011821082329610823196108231961082DB
:1034C00031961082118212821382349610821182F8
:1034D00012821382349610821182128213823496E1
:1034E000108211821282138234961082118212820B
:1034F00013823496108211821282138234961082C3
:1035000011821282138234961082118212821382E7
:1035100034961082118212821382349610821182A4
:103520001282138234961082118212821382349690
:1035300010821182128213823496108211821282BA
:103540001382349610821182128213823496108272
:103550001182128213823496108231961082319633
:103560001082319610821182128213823496108258
:103570001182128213823496108211821282138277
:1035800034961082319610823196108231961082D4
:1035900031961082319610823196108231961082C7
:1035A00031961082319610823196108231961082B7
:1035B00031961082319610823196108231961082A7
:1035C0003196108231961082319610823196108297
:1035D0003196108231961082319610823196108287
:1035E00031961082118212821382349610821182D7
:1035F0001282138234961082118212821382D801B1
:10360000A359BD4F8CE0ECE4F3E001900D928A9554
:10361000E1F7F801E758FD4F108211821282138200
:103620003496108211821282138234961082118293
:103630001282138234961182108232961182108285
:103640003296118210823296108211821282138277
:103650003496108211821282138234961082118263
:10366000128213823496108211821282138234964F
:103670001082118212821382349610821182128279
:103680001382349611821082329611821082329601
:103690001182108232961082118212821382349625
:1036A0001082118212821382349610821182128249
:1036B00013823496108231961082319610823196A0
:1036C00011821082329611821082329611821082FB
:1036D00032961082118212821382349610821182E5
:1036E00012821382349610821182128213823496CF
:1036F00011821082329611821082329611821082CB
:103700003296118210823296118210823296118284
:103710001082329611821082329611821082180124
:10372000F6E22F1AFDEF3F0AF1011082CE01019659
:103730000E9431318AE7FE013196D40101900D9249
:103740008A95E1F7CE0101960E9431318AE7FE01A8
:103750003196D60101900D928A95E1F7CE0101963E
:103760000E9431318AE7FE013196D70101900D9216
:103770008A95E1F788E5F801808B89E5F601808379
:103780008AE5F7018083CE0101960E945E2582E2E0
:10379000FE013196D50101900D928A95E1F7CE0197
:1037A00001960E945E2582E2FE013196D3010190CE
:1037B0000D928A95E1F7CE0101960E945E2582E284
:1037C000FE013196D20101900D928A95E1F7C80170
:1037D000ACDCF1011082C658DF4F0FB6F894DEBFA3
:1037E0000FBECDBFDF91CF911F910F91FF90EF9052
:1037F000DF90CF90BF90AF909F908F907F906F9011
:103800005F904F903F902F9008950F931F93CF9309
:10381000DF938B01EA018CE593E00E944B3A88ED3F
:1038200095E00E944B3AF80180810E94B53ACE01A2
:103830000E94AA3B0E94D10FDF91CF911F910F915F
:103840000C94DB0E8F929F92AF92BF92CF92DF9239
:10385000EF92FF920F931F93CF93DF93EC018BE1D5
:1038600093E00E944B3A82EF95E00E944B3A6E0142
:1038700082E8C81A8EEFD80AC6010E9409250E9464
:10388000474D4B015C01FE01E359FD4F60817181A1
:10389000828193810E94474D9B01AC01C501B40117
:1038A0000E94354F42E00E94E13A82E096E00E9499
:1038B0004B3A7E01E0E6EE1AEEEFFE0AC7010E94E7
:1038C00009250E94474D4B015C01FE01EF58FD4F59
:1038D00060817181828193810E94474D9B01AC017F
:1038E000C501B4010E94354F42E00E94E13A82E1F5
:1038F00096E00E944B3A8E010E531E4FC8010E9463
:1039000009250E94474D4B015C01CB58DD4F688172
:1039100079818A819B810E94474D9B01AC01C50141
:10392000B4010E94354F42E00E94E13A0E94D10F5B
:103930000E94DB0E87E193E00E944B3A82EF95E014
:103940000E944B3AF601A68DB78D208931894289B4
:1039500053890E94994E0E94BA3A82E096E00E94F2
:103960004B3AF701A68DB78D208931894289538959
:103970000E94994E0E94BA3A82E196E00E944B3A28
:10398000F801A68DB78D20893189428953890E941B
:10399000994E0E94BA3A0E94D10FDF91CF911F91A8
:1039A0000F91FF90EF90DF90CF90BF90AF909F90DE
:1039B0008F900C94DB0ECF93DF938091F30B90915B
:1039C000F40B892B51F48BED92E00E94D047EC016F
:1039D000F4DCD093F40BC093F30B8091F30B909134
:1039E000F40BDF91CF9108958091F10B9091F20B40
:1039F000892B41F481E090E00E94D0479093F20B34
:103A00008093F10B8091F10B9091F20B0895CF937D
:103A1000DF93EC012AEC30E04BEC50E069EC70E015
:103A200039DB2EEC30E04FEC50E06DEC70E0CE0175
:103A30000C9630DB24ED30E045ED50E063ED70E0B6
:103A4000CE01489627DB28ED30E049ED50E067EDE8
:103A500070E0CE0184961EDB2EED30E04FED50E09D
:103A60006DED70E0CE01C096DF91CF9113CBCF9377
:103A7000DF938091EF0B9091F00B892BE9F48CE3AD
:103A800090E00E94D047EC01FC01CC96118210829C
:103A90003C96E817F907D1F7198218821D861C8613
:103AA000198E188E1DA21CA219AA18AACE01AFDF6A
:103AB000D093F00BC093EF0B8091EF0B9091F00B34
:103AC000DF91CF910895EF92FF920F931F93CF93C1
:103AD000DF93162F072F7A014115510559F4862FD0
:103AE0000E94AF3B31E020E0019709F030E0C32FA6
:103AF000D22F26C04130510509F5862F663310F0CC
:103B00008AEC860F90917B00282F2870977F922B4C
:103B100090937B008770806480937C0080917A0012
:103B2000806480937A0080917A0086FDFCCFC091FA
:103B3000780080917900D0E0D82B02C0C0E0D0E0BE
:103B400082E0E816F10410F58DE196E00E944B3A10
:103B500088ED95E00E944B3A89E196E00E944B3A4D
:103B6000812F902F0E94AA3B88ED95E00E944B3A4E
:103B70008BE196E00E944B3ACE010E94AA3B0E9444
:103B8000D10F0E94DB0E80E090E002C081E090E067
:103B9000DF91CF911F910F91FF90EF9008950F93B8
:103BA0001F93CF93DF93FB013197F49708F0D7C0B1
:103BB0002230310508F0D3C0EA018B01FC0188E313
:103BC000829FA001839F500D1124E40FF51FE60F83
:103BD000F71F81E08083232B11F46C2F07C061E075
:103BE000802F0E94193C209739F460E0802F0E94BA
:103BF000D73B80E090E0B5C0CF3FD10509F4ADC020
:103C0000F801E550FB4FE4918E2F90E0FC013197D5
:103C1000E231F10508F09DC08827EE5AFE4F8F4F24
:103C20000C94E24F84B5806884BDC7BDE2CF84B5F3
:103C3000806284BDC8BDDDCF8091800080688093A4
:103C40008000D0938900C0938800D3CF80918000FA
:103C5000806280938000D0938B00C0938A00C9CF8C
:103C600080918000886080938000D0938D00C09305
:103C70008C00BFCF8091B00080688093B000C0936B
:103C8000B300B7CF8091B00080628093B000C09342
:103C9000B400AFCF80919000806880939000D09363
:103CA0009900C0939800A5CF809190008062809386
:103CB0009000D0939B00C0939A009BCF809190007E
:103CC000886080939000D0939D00C0939C0091CF1A
:103CD0008091A00080688093A0008091A0008F7BDD
:103CE0008093A000D093A900C093A80082CF8091B8
:103CF000A00080628093A000D093AB00C093AA0084
:103D000078CF8091A00088608093A000D093AD0010
:103D1000C093AC006ECF8091200180688093200119
:103D2000D0932901C093280164CF80912001806243
:103D300080932001D0932B01C0932A015ACF809108
:103D40002001886080932001D0932D01C0932C0125
:103D500050CFC038D1050CF448CF61E047CF81E0A7
:103D600090E0DF91CF911F910F9108958091ED0B1D
:103D70009091EE0B892B91F480E790E00E94D04760
:103D8000FC0131969C012B5C3F4F119217AAE21760
:103D9000F307D9F79093EE0B8093ED0B8091ED0B29
:103DA0009091EE0B08950F931F93CF93DF93FC0137
:103DB0002081318121153105D1F1EC01822F0E9442
:103DC000AF3B21E0892B09F420E02B876A85261779
:103DD00029F01E821F82188619860BC08E819F8152
:103DE000A885B9850196A11DB11D8E839F83A887E3
:103DF000B9870E811F81288539858A819B81AC8195
:103E0000BD81081719072A073B078CF081E0682756
:103E100088810E94D73B0990D881C02DA7DF40E060
:103E200050E0BE01DF91CF911F910F914CCEDF91F9
:103E3000CF911F910F910895CF92DF92EF92FF9251
:103E40000F931F93CF93DF93CDB7DEB728970FB6AD
:103E5000F894DEBF0FBECDBF8B016A018C519E4F1F
:103E60007C0168E573E073D368ED75E0C7016FD33B
:103E7000F801808189831A8241E050E08E010F5F52
:103E80001F4FB801C701D6D24AE0B801C6010E944F
:103E90001E49F80101900020E9F73197AF01401B5E
:103EA000510BB801C701C6D20E94D10FBC01C80195
:103EB0000E94BD0EB801C70158D3C8015CD3289633
:103EC0000FB6F894DEBF0FBECDBFDF91CF911F912B
:103ED0000F91FF90EF90DF90CF900895FC01DB01F0
:103EE000AD59BF4F8C91882319F022E030E002C019
:103EF00020E030E0DB01AB59BF4F8C91882311F0FB
:103F000023E030E0DB01AC59BF4F8C91882311F0E6
:103F100024E030E0DB01AA59BF4F8C91882311F0D7
:103F200026E030E0DA018D919C912817390721F0C5
:103F300091E0121613060CF090E0DA012D933C93F9
:103F4000992319F0A901CF0177CF0895CF92DF927D
:103F5000EF92FF920F931F93CF93DF936C017A013F
:103F60008B01C0E0D0E0CE15DF0581F0D8016D9166
:103F70008D01D601ED91FC910190F081E02DC601FB
:103F80001995892B11F02196EECF7E01C701DF91A3
:103F9000CF911F910F91FF90EF90DF90CF900895F8
:103FA000089580E090E00895FC01538D448D252F05
:103FB00030E0842F90E0821B930B541710F0CF96C3
:103FC000089501970895FC01918D828D981761F0F5
:103FD000828DDF01A80FB11D5D968C91928D9F5F40
:103FE0009F73928F90E008958FEF9FEF0895FC01EB
:103FF000918D828D981731F0828DE80FF11D858D9E
:1040000090E008958FEF9FEF0895FC01918D228D30
:10401000892F90E0805C9F4F821B91098F739927B5
:1040200008958AEF9BE0F1DF21E0892B09F420E07D
:10403000822F0895FC01848DDF01A80FB11DA35AC2
:10404000BF4F2C91848D90E001968F739927848FB8
:10405000A689B7892C93A089B1898C9183708064DB
:104060008C93938D848D981306C00288F389E02D7C
:1040700080818F7D80830895EF92FF920F931F932D
:10408000CF93DF93EC0181E0888F9B8D8C8D98130B
:1040900005C0E889F989808185FD25C0F62E0B8D44
:1040A00010E00F5F1F4F0F731127E02E8C8DE81269
:1040B0000BC00FB607FCFACFE889F989808185FF2C
:1040C000F5CFCE01B7DFF2CF8B8DFE01E80FF11DEA
:1040D000E35AFF4FF0829FB7F8940B8FEA89FB8970
:1040E000808180620AC09FB7F894EE89FF8960835F
:1040F000E889F98980818370806480839FBF81E033
:1041000090E0DF91CF911F910F91FF90EF90089574
:10411000CF93DF93EC01888D8823C1F0EA89FB8976
:10412000808185FD05C0A889B9898C9186FD0EC066
:104130000FB607FCF5CF808185FFF2CFA889B9893A
:104140008C9185FFEDCFCE0175DFE8CFDF91CF9168
:10415000089580E090E0892B19F063DF811125C07C
:1041600080E090E0892B41F080E090E0892B21F005
:104170000E94000081111CC080E090E0892B41F07A
:1041800080E090E0892B21F00E940000811113C093
:1041900080E090E0892BA1F080E090E0892B81F015
:1041A0000E94000081110AC008950E940000D8CF2B
:1041B0000E940000E1CF0E940000EACF0C940000B2
:1041C0000895EBE0F1E08081877F80830895EBE044
:1041D000F1E080818860808308958E9808958E9A9A
:1041E000089514980895149A089588980895889ABF
:1041F00008950E94CD50CF92DF92EF92FF920F93DD
:104200001F93CF93DF936C018B017A01EC01CA50AD
:10421000D44F888187FF04C0FB011182108224C023
:104220002CE02C9DC0012D9D900D11242881AC0106
:10423000420F511D27FD5A9520912F0D30E0421756
:10424000530794F42881AC01420F511D27FD5A9564
:104250009A01FA01EE0FFF1F2E0F3F1FF901E156E1
:10426000F34F208126FD19C088818F5F88832CE061
:104270002C9DC0012D9D900D11242881AC01420F71
:10428000511D27FD5A9520912F0D30E042175307FD
:10429000BCF428812C3044F113C02881820F911D79
:1042A00027FD9A95FC01EE0FFF1F8E0F9F1FFC014B
:1042B000E156F34F808160E08F730E94D73BD4CFEB
:1042C000F80180819181049680349C4918F480E43F
:1042D0009CE904C0F801808191810496F7019183E3
:1042E00080838FEF888345C0F80140815181288108
:1042F000BC01620F711D27FD7A959B01FB01EE0F3A
:10430000FF1F2E0F3F1FF901E156F34F218132812C
:10431000240F351FF701318320832881AC01420F20
:10432000511D27FD5A959A01FA01EE0FFF1F2E0F1E
:104330003F1FF901E156F34F208126FF1AC0288163
:10434000820F911D27FD9A95FC01EE0FFF1F8E0F26
:104350009F1FFC01E156F34F808161E08F73DF9175
:10436000CF911F910F91FF90EF90DF90CF900C9421
:10437000D73BDF91CF911F910F91FF90EF90DF908E
:10438000CF90089560E0FC0183850C94D73B60E0FA
:10439000FC0185810C94D73B61E0FC0183850C9482
:1043A000D73B61E0FC0185810C94D73BCF93DF9331
:1043B0008091F50B811114C081E08093F50BFBDA3D
:1043C000EC0140960E94532ECE0186579F4F0E94CB
:1043D000532ECE018C5F9E4F0E94532E1092F50BF0
:1043E000DF91CF9108950F931F93CF93DF93EC014B
:1043F00088819981009729F02A813B812617370708
:1044000088F48B016F5F7F4F0E94EA4F009761F045
:10441000998388831B830A832C813D81232B11F48C
:10442000FC01108281E001C080E0DF91CF911F91FB
:104430000F910895EF92FF920F931F93CF93DF9305
:104440006115710511F480E01BC041155105B9F0EB
:104450007B01EC018C819D818A01080F191FB80135
:10446000CE01C1DF882379F3288139818C819D8138
:10447000B701820F931F0E94E3501D830C8381E0DC
:10448000DF91CF911F910F91FF90EF900895EF92E0
:10449000FF920F931F93CF93DF93CDB7DEB764974F
:1044A0000FB6F894DEBF0FBECDBF7C01CB01BA01C1
:1044B0008E010F5F1F4F22E044E00E94B147FC01D4
:1044C00001900020E9F73197AF01481B590BBC015F
:1044D000C701B0DF64960FB6F894DEBF0FBECDBF44
:1044E000DF91CF911F910F91FF90EF900895EF9280
:1044F000FF920F931F93CF93DF93CDB7DEB72E9725
:104500000FB6F894DEBF0FBECDBF7C01CB01BA0160
:104510002AE08E010F5F1F4FA8010E942849F80171
:1045200001900020E9F73197AF01401B510BB80112
:10453000C70180DF2E960FB6F894DEBF0FBECDBF49
:10454000DF91CF911F910F91FF90EF90089561152A
:10455000710549F0FB0101900020E9F73197AF01A7
:10456000461B570B67CF80E00895FB0144815581BE
:10457000608171815FCFFC01808191810C946848DA
:104580001F920F920FB60F9211240BB60F922F931A
:104590003F934F935F936F937F938F939F93AF93CB
:1045A000BF93EF93FF938AEF9BE044DDFF91EF9180
:1045B000BF91AF919F918F917F916F915F914F913B
:1045C0003F912F910F900BBE0F900FBE0F901F9039
:1045D00018951F920F920FB60F9211240BB60F92DF
:1045E0002F938F939F93EF93FF93E0910A0CF09199
:1045F0000B0C8081E091100CF091110C82FD12C027
:1046000090818091130C8F5F8F732091140C82170F
:1046100051F0E091130CF0E0E650F44F958F809349
:10462000130C01C08081FF91EF919F918F912F9189
:104630000F900BBE0F900FBE0F901F901895CF924A
:10464000DF92EF92FF92CF93DF93EC01603282E032
:1046500078070CF03DC077FD06C0653B71052CF076
:1046600064EB70E002C060E070E0898128E830E02F
:104670006901C81AD10887FDD394CC0CDD1CCC0C81
:10468000DD1C0D2C000CEE08FF088A8128E532E0C5
:10469000281B310987FD3395220F331F220F331F4B
:1046A000C901330FAA0BBB0B9C01AD012C193D09AD
:1046B0004E095F09DB010E94994E24EB30E040E097
:1046C00050E00E94734EC20ED31EE41EF51EB601CA
:1046D0003881303380F5298188E890E0821B910988
:1046E00027FD9395880F991F880F991F68177907E1
:1046F00084F08A8148E552E0481B510987FD5395B3
:10470000440F551F440F551FCB01461757070CF494
:10471000CA010297880F991F4FB7F894232F30E0F2
:10472000F901EE0FFF1F2E0F3F1FF901E156F34F66
:10473000928381834FBFDF91CF91FF90EF90DF9005
:10474000CF9008951F93CF93DF93EC01162F8881AC
:10475000803308F04EC061E0812F0E94193C8881AF
:10476000E82FF0E09F01220F331FE20FF31FE15605
:10477000F34F1F739081907C192B108319821A823A
:104780006CE00E94D64F9CE0899FB001112440E06C
:1047900050E09B01240F351FF901EE0FFF1F2E0F74
:1047A0003F1FF901E156F34F908196FD16C04F5F10
:1047B0005F4F4C30510569F7813001F51092800050
:1047C00082E0809381001092850010928400B19A5B
:1047D00080916F00826080936F00E881F0E0CF01EC
:1047E000880F991FE80FF91FE156F34F808180640D
:1047F00080838881DF91CF911F910895823061F489
:104800001092900080939100109295001092940065
:1048100088BB80937100E1CF833069F41092A000CF
:1048200082E08093A1001092A5001092A40089BBA1
:1048300080937200D2CF8111D0CF1092200182E0FC
:104840008093210110922501109224018ABB80934C
:104850007300C3CF1F920F920FB60F9211240BB6A5
:104860000F922F933F934F935F936F937F938F9309
:104870009F93AF93BF93EF93FF9348E251E064E2BD
:1048800071E080E090E0B7DCFF91EF91BF91AF91D4
:104890009F918F917F916F915F914F913F912F9158
:1048A0000F900BBE0F900FBE0F901F9018951F9288
:1048B0000F920FB60F9211240BB60F922F933F93C6
:1048C0004F935F936F937F938F939F93AF93BF9318
:1048D000EF93FF9348EA50E064EA70E083E090E0F1
:1048E0008ADCFF91EF91BF91AF919F918F917F9162
:1048F0006F915F914F913F912F910F900BBE0F9051
:104900000FBE0F901F9018951F920F920FB60F9227
:1049100011240BB60F922F933F934F935F936F9396
:104920007F938F939F93AF93BF93EF93FF9348E948
:1049300050E064E970E082E090E05DDCFF91EF918F
:10494000BF91AF919F918F917F916F915F914F91A7
:104950003F912F910F900BBE0F900FBE0F901F90A5
:1049600018951F920F920FB60F9211240BB60F924B
:104970002F933F934F935F936F937F938F939F9367
:10498000AF93BF93EF93FF9348E850E064E870E083
:1049900081E090E030DCFF91EF91BF91AF919F916A
:1049A0008F917F916F915F914F913F912F910F90D8
:1049B0000BBE0F900FBE0F901F9018951F920F9275
:1049C0000FB60F9211240BB60F922F933F934F9374
:1049D0005F936F937F938F939F93AF93BF93EF9367
:1049E000FF93E0914407F09145071995FF91EF91EE
:1049F000BF91AF919F918F917F916F915F914F91F7
:104A00003F912F910F900BBE0F900FBE0F901F90F4
:104A10001895CF92DF92EF92FF920F931F93CF934F
:104A2000DF93FC016489758986899789C68DD78D46
:104A3000603127E272078105910529F016161706E5
:104A40001806190644F02089318942895389DE010C
:104A50000E94994E2AC08F010E94474D20E030E409
:104A60004CE157E40E94354F6B017C01F801608FE7
:104A7000718F828F938F60897189828993890E9457
:104A8000474DA70196010E94A64D6B017C01BE0116
:104A9000DD0F880B990B0E94474D9B01AC01C701AC
:104AA000B6010E94A64D0E949D4FDF91CF911F91AC
:104AB0000F91FF90EF90DF90CF900895FC0181E07F
:104AC00090E091A380A31182108215821482108A33
:104AD000118A128A138A158E148E80E197E2A0E063
:104AE000B0E0848B958BA68BB78B128610861486CC
:104AF00015861686178608958EBD00000DB407FE34
:104B0000FDCF8EB50895CF92DF92EF92FF920F9373
:104B10001F93CF93DF938C0160E086E10E94D73B27
:104B2000F80180A191A124E0880F991F2A95E1F74F
:104B30008F60E2DF83E290E00197F1F7C4E0D0E01C
:104B4000C12CD12C7601FE2CED2CDC2CCC2481E068
:104B5000D3DFC82A2197B9F761E086E10E94D73BED
:104B6000F801C08AD18AE28AF38ADF91CF911F913E
:104B70000F91FF90EF90DF90CF900895CF93DF9348
:104B8000EC01FC01E759FF4F1082379781E08083E9
:104B900060E08D810E94D73B8F859889892B31F009
:104BA00060E08B85DF91CF910C94D73BDF91CF9163
:104BB0000895CF93DF93EC018B890E94AF3B2E8940
:104BC00030E08217930711F48F8901C080E0DF91F4
:104BD000CF910895CF93DF93EC0189890E94AF3B79
:104BE0002E8930E08217930711F48F8901C080E08D
:104BF000DF91CF910895CF93DF93EC018DA58823AA
:104C000011F061E001C060E08F810E94D73B8EA56A
:104C1000882329F08FA5882311F061E001C060E0AE
:104C20008D85DF91CF910C94D73BCF93DF93EC012F
:104C30008DA5882311F060E001C061E08F810E94A2
:104C4000D73B8EA5882329F08FA5882311F060E03B
:104C500001C061E08D85DF91CF910C94D73BCF935C
:104C6000DF93EC0161E089850E94D73B8EA5882304
:104C700021F061E08F850E94D73BC959DF4F188230
:104C8000DF91CF910895CF93DF93EC0160E08985A8
:104C90000E94D73B8EA5882321F060E08F850E947B
:104CA000D73BC959DF4F81E08883DF91CF910895C9
:104CB000CF92DF92EF92FF920F931F93CF93DF93E8
:104CC000FC0142AF53AF64AF75AFDC01DE964D938C
:104CD0005D936D937C93139714960D931D932D9371
:104CE0003C931397EC01CA5BDF4FE88284A98823C9
:104CF00089F084A5811109C037FF0CC01D921D9257
:104D00001D921C92139781E006C010161106120620
:104D10001306A4F380E045A956A967A970AD14163F
:104D20001506160617063CF591AD992321F10D9154
:104D30001D912D913C9113976801790137FF07C0B0
:104D4000CC24DD247601C01AD10AE20AF30A4C15FC
:104D50005D056E057F057CF437FF07C07095609593
:104D6000509541955F4F6F4F7F4F4D935D936D937E
:104D70007C93139781E0DF01A15BBF4F1D921D92D1
:104D80001D921C921397E15AFF4F91E09083DF919F
:104D9000CF911F910F91FF90EF90DF90CF900895EA
:104DA0000F931F93CF93DF938C01D62FFC0185893E
:104DB000811109C0C8010EDFC82FC801FADED11168
:104DC00008C08C2F06C0C801F4DEC82FC80102DF5E
:104DD000F6CFDF91CF911F910F910895CF93DF937D
:104DE000EC01FC01E759FF4F81E080833997808116
:104DF000B297882341F080819181A281B38101968D
:104E0000A11DB11D07C080819181A281B38101974D
:104E1000A109B10980839183A283B383FE01E45980
:104E2000FF4F20813181DE01A659BF4FC901959501
:104E3000879520FD03C0ED91FC910DC0FE01E80FA8
:104E4000F91F0190F081E02D2D913C91E20FF31FAD
:104E50000190F081E02D8C0F9D1F19958F85988909
:104E6000892B11F1FE01E059FF4F20813181DE01D4
:104E7000A259BF4FC9019595879520FD03C0ED91BB
:104E8000FC910DC0FE01E80FF91F0190F081E02DAB
:104E90002D913C91E20FF31F0190F081E02D8C0FDA
:104EA0009D1FDF91CF911994DF91CF9108958F923B
:104EB0009F92AF92BF92CF92DF92EF92FF920F93A9
:104EC0001F93CF93DF93EC01FC01E15BFF4F608107
:104ED0007181828193810E94454D6B017C0168A99B
:104EE00079A98AA99BA90E94474D9B01AC0160E06A
:104EF00074E284E799E40E94354F4B015C01FE01A6
:104F0000E55AFF4F60817181828193810E94454DF6
:104F10009B01AC01C501B4010E94354F4B015C01FE
:104F20008E010D5A1F4F20E030E040E05FE30E9409
:104F3000A64DA70196010E94D14E0E94A24FF801F2
:104F40006083718382839383C95ADF4FA5019401E3
:104F5000C701B6010E94D14E0E94A24F6883798397
:104F60008A839B83DF91CF911F910F91FF90EF90E8
:104F7000DF90CF90BF90AF909F908F9008950F9348
:104F80001F93CF93DF93FC01E759FF4F208122232A
:104F9000B9F07A970081118122813381389640815E
:104FA000518162817381041715072607370710F1B5
:104FB000EC01E4DDCE01DF91CF911F910F9177CF0E
:104FC000FC01E15AFF4F20812223A1F0709700815C
:104FD00011812281338134964081518162817381B4
:104FE000041715072607370728F0DF91CF911F9187
:104FF0000F91F4CEDF91CF911F910F9108952F92D1
:105000003F924F925F926F927F928F929F92AF9258
:10501000BF92CF92DF92EF92FF920F931F93CF93A5
:10502000DF93CDB7DEB766970FB6F894DEBF0FBE3D
:10503000CDBF8C010E942317F801E550FE4F81E09F
:105040004091240850912508609126087091270806
:10505000452B462B472B09F480E080830E942317C1
:10506000F801E450FE4F81E0409128085091290852
:1050700060912A0870912B08452B462B472B09F489
:1050800080E080830E942317F801E350FE4F81E007
:1050900040912C0850912D0860912E0870912F0896
:1050A000452B462B472B09F480E080830E94231771
:1050B0008091740890917508A0917608B091770856
:1050C000F801E250FE4F80839183A283B3830E9454
:1050D00023178091780890917908A0917A08B0916F
:1050E0007B08F801EE5FFD4F80839183A283B38339
:1050F0000E94231780917C0890917D08A0917E08E2
:10510000B0917F08F801EA5FFD4F80839183A2830D
:10511000B3830E94231780914C0890914D08A09171
:105120004E08B0914F08F801EA5EFD4F80839183ED
:10513000A283B3830E942317809150089091510855
:10514000A0915208B0915308F801E65EFD4F8083AC
:105150009183A283B3830E94231780915408909176
:105160005508A0915608B0915708F801E25EFD4F2E
:1051700080839183A283B3830E94231780915C086C
:1051800090915D08A0915E08B0915F08F801EE5D16
:10519000FD4F80839183A283B3830E942317809164
:1051A000600890916108A0916208B0916308F801CD
:1051B000EA5DFD4F80839183A283B3830E9423170E
:1051C0008091640890916508A0916608B091670885
:1051D000F801E65DFD4F80839183A283B3830E9433
:1051E00023178091FC079091FD07A091FE07B091D5
:1051F000FF07F801E25DFD4F80839183A283B383B3
:105200000E9423178091000890910108A091020844
:10521000B0910308F801EE5CFD4F80839183A28377
:10522000B3830E9423178091040890910508A091F0
:105230000608B0910708F801EA5CFD4F808391836E
:10524000A283B3830E942317F801E65CFD4F81E03F
:105250002091D4073091D5072130310509F080E045
:1052600080830E942317F801E55CFD4F81E02091C7
:10527000D8073091D9072130310509F080E08083CB
:105280000E942317F801E45CFD4F81E02091DC07C8
:105290003091DD072130310509F080E080830E94E4
:1052A0002317F801E85AFD4F81E04091AC07509177
:1052B000AD076091AE077091AF07452B462B472B8A
:1052C00009F480E080830E942317F801E75AFD4F1C
:1052D00081E04091B0075091B1076091B2077091A1
:1052E000B307452B462B472B09F480E080830E94AF
:1052F0002317F801E65AFD4F81E04091B407509121
:10530000B5076091B6077091B707452B462B472B21
:1053100009F480E080830E942317F801E55AFD4FCD
:1053200081E04091840850918508609186087091D1
:105330008708452B462B472B09F480E080830E9489
:105340002317F801E45AFD4F81E0409188085091FD
:10535000890860918A0870918B08452B462B472B52
:1053600009F480E080830E942317F801E35AFD4F7F
:1053700081E040918C0850918D0860918E08709169
:105380008F08452B462B472B09F480E080830E9431
:105390002317F801E25AFD4F81E02091BC073091BC
:1053A000BD072130310509F080E080830E9423177A
:1053B000F801E15AFD4F81E02091C0073091C1070B
:1053C0002130310509F080E080830E942317F80125
:1053D000E05AFD4F81E02091C4073091C50721308C
:1053E000310509F080E080830E94231780918407B3
:1053F00090918507A0918607B0918707F801EF5932
:10540000FD4F80839183A283B3830E9423178091F1
:10541000880790918907A0918A07B0918B07F801BE
:10542000EB59FD4F80839183A283B3830E9423179E
:1054300080918C0790918D07A0918E07B0918F0776
:10544000F801E759FD4F80839183A283B3830E94C3
:105450002317F801E45BFD4F81E0409194075091E0
:1054600095076091960770919707452B462B472B20
:1054700009F480E080830E942317F801E35BFD4F6D
:1054800081E0409198075091990760919A07709137
:105490009B07452B462B472B09F480E080830E9415
:1054A0002317F801E25BFD4F81E040919C0750918A
:1054B0009D0760919E0770919F07452B462B472BB8
:1054C00009F480E080830E94231780918C099091D9
:1054D0008D09A0918E09B0918F09F801E35CFD4F11
:1054E00080839183A283B3830E94231780919009C4
:1054F00090919109A0919209B0919309F801EF5B05
:10550000FD4F80839183A283B3830E9423178091F0
:10551000940990919509A0919609B0919709F80185
:10552000EB5BFD4F80839183A283B3830E9423179B
:10553000F801E15BFD4F81E02091EC073091ED0730
:105540002130310509F080E08083F801E05BFD4FF8
:105550001082319610820E942317F801EE5AFD4FF7
:1055600081E02091E8073091E9072130310509F009
:1055700080E08083F801ED5AFD4F10823196108251
:105580000E942317F801EB5AFD4F81E020910C088F
:1055900030910D082130310509F080E080830E94B0
:1055A0002317F801EA5AFD4F81E02091100830914D
:1055B00011082130310509F080E080830E94231713
:1055C000F801E95AFD4F81E0209114083091150847
:1055D0002130310509F080E080830E942317F80113
:1055E000E75BFD4F81E020919C0930919D092130BE
:1055F000310509F080E080830E942317F801E65B03
:10560000FD4F81E02091A0093091A10921303105A1
:1056100009F080E080830E942317F801E55BFD4FCD
:1056200081E02091A4093091A5092130310509F0CC
:1056300080E080830E942317380123E9621A2DEF4E
:10564000720A8091340890913508A0913608B09183
:105650003708F30180839183A283B3830E942317C9
:105660005801FFE8AF1AFDEFBF0A8091380890910A
:105670003908A0913A08B0913B08F50180839183E5
:10568000A283B3830E94231780913C0890913D0828
:10569000A0913E08B0913F0898012B583D4FF90169
:1056A00080839183A283B383F3014081518162811E
:1056B0007381141615061606170644F041E050E0F3
:1056C00060E070E04083518362837383F501408121
:1056D000518162817381141615061606170644F06F
:1056E00041E050E060E070E0408351836283738367
:1056F000181619061A061B064CF081E090E0A0E08F
:10570000B0E0F90180839183A283B383D901CD9066
:10571000DD90ED90FC90F50180809180A280B380B7
:10572000D3014D905D906D907C900E94D10FFC0153
:10573000408251826282738284829582A682B7827D
:10574000C086D186E286F386F801E75BFD4FB08123
:10575000B9833C9720813181428153812F87388BD7
:10576000498B5A8B789630813E83399630803F97AB
:1057700040814A8733962080399650815C873397E1
:1057800080818B877E973081FF972081EA59FF4F78
:105790004081518162817381F397C080D180E28022
:1057A000F3803C9780809180A280B3803C974080BA
:1057B000518062807380789780819181A281B381CA
:1057C000F80180A791A7A2A7B3A7D80144A655A620
:1057D00066A677A680AA91AAA2AAB3AAC4AAD5AAA5
:1057E000E6AAF7AA40AF51AF62AF73AF24AF35AFAF
:1057F0002B8525A33C8536A337A240E450E060E02A
:1058000070E0E05CFF4F4083518362837383DE96D8
:105810002C92DE97EA85DF96EC93F801EC5BFF4F64
:105820002E81208331968F859889A989BA898083B2
:105830009183A283B383349699819083D80155963E
:105840008D919C9156978633910559F487EF90E29C
:10585000F1969183808332961182108285EF90E2D7
:105860001EC08C33910569F48FEE90E2F801E65882
:10587000FF4F918380833296118210828DEE90E2E9
:105880000EC08E9791F487EE90E2F801E658FF4F34
:105890009183808332961182108281EE90E2369657
:1058A00091838083329611821082F801838D948DCA
:1058B0004A9789F483EF90E2E258FF4F9183808307
:1058C00032961182108281EF90E236969183808326
:1058D000329611821082F801E65BFD4F2081298308
:1058E000399780819181A281B3818E839F83A8871C
:1058F000B987759690819A87399690813F97A08154
:10590000AB873396B081BC8739962080339730803F
:105910007E978081FF9720812F87E759FF4F208155
:105920003181428153812B8B3C8B4D8B5E8BF39766
:1059300040815181628173813C97C080D180E28037
:10594000F3803C9780809180A280B380E059F14041
:10595000380132E0630E731ED3014D905D906D905F
:105960007C90408E518E628E738E848E958EA68E24
:10597000B78EC0A2D1A2E2A2F3A244A355A366A30C
:1059800077A32B893C894D895E8920A731A742A73F
:1059900053A73F8534A785A7358A268A978B80E44D
:1059A00090E0A0E0B0E080AB91ABA2ABB3AB4C8594
:1059B00046A75B8557A78A8584AB2E813F814885A2
:1059C000598525AB36AB47AB50AF398131AF8581B7
:1059D00096818633910579F487EF90E2D801AC5037
:1059E000BF4F11969C938E93129611961C921E9205
:1059F00085EF90E222C08C33910579F48FEE90E22E
:105A0000D801AC50BF4F11969C938E93129611966D
:105A10001C921E928DEE90E210C08E97A9F487EE34
:105A200090E2D801AC50BF4F11969C938E93129682
:105A300011961C921E9281EE90E2169611969C93FE
:105A40008E9312961D921C92838594854A9791F4A9
:105A500083EF90E2F801E850FF4F91838083329604
:105A60001182108281EF90E2369691838083329684
:105A700011821082F801E55BFD4F40814983369722
:105A800080819181A281B3818E839F83A887B9870A
:105A9000729690819A873996A081AA833F97B081A8
:105AA000BB87339620812C873996208033973080AE
:105AB0007E973081FF972081E459FF4F808191814B
:105AC000A281B381F39740815181628173813C97B8
:105AD000C080D180E280F3803C9780809180A2805A
