:10000000A2C20000D1C20000CFC20000CDC20000D9
:10001000CBC20000C9C20000C7C20000C5C20000B8
:10002000C3C20000C1C20000BFC20000BDC20000C8
:10003000BBC20000B9C20000B7C200000C948C180B
:10004000B3C200000C94E12DAFC20000ADC20000AD
:100050000C94E509A9C20000A7C200000C948D2CE5
:10006000A3C200000C94B02A0C94872A9DC2000001
:100070009BC2000099C2000097C2000095C2000018
:100080000C94B42D91C200008FC200008DC20000FC
:100090008BC2000089C2000087C2000085C2000038
:1000A00083C2000081C200000C94872D7DC2000035
:1000B0007BC2000079C2000077C200000C945A2D68
:1000C00073C2000071C200006FC200006DC2000068
:1000D0006BC2000069C2000067C2000065C2000078
:1000E00063C200005D106A1073107C1089109210BA
:1000F000971497149714971497149F10AC10B91075
:100100009714C610CF10D810E510EE10F71000119C
:100110000911121197141B1124112D119714971402
:10012000971436113F1148119714971451115E110D
:100130009714971497146B117811851197149211D5
:100140009B11A411971497149714AD11B611BF11F8
:100150009714CC11D911E611971497149714F31131
:1001600000120D1297141A122712341297149714B2
:10017000971441124E125B129714681271127A1280
:100180009714971497149E12AB12B8129714C512B5
:10019000D212DF12971497149714EC12F512FE1274
:1001A0009714971497149714971497149714071388
:1001B00010131913971422132B1334139714971435
:1001C00097143D134A1357139714641371137E1336
:1001D0009714971497148B139813A5139714B213AD
:1001E000BB13C413971497149714CD13D613DF13AE
:1001F00097149714971497149714971497149714A7
:1002000097149714971483128C12951297149714BD
:100210009714971497149714971497149714971486
:100220009714971497149714971497149714971476
:100230009714971497149714971497149714971466
:100240009714971497149714971497149714971456
:100250009714971497149714971497149714971446
:100260009714971497149714971497149714971436
:10027000971497149714E813F113FE1397140B14A3
:10028000141421149714971497142E14371444142B
:10029000971451145A1467149714971497147414DC
:1002A0007D148A145E286328682872287C28F52823
:1002B00086288E289628A028AA28B428C328CD28C6
:1002C000F528D728E128EB28272A2A2A192A1D2AC7
:1002D000232A612A2E2A322A382A3C2A402A462AF0
:1002E0004A2A4E2A612A542A582A5C2A4E414E49EB
:1002F0004E495459494E46CDCCCC3D0AD7233C17E4
:10030000B7D13877CC2B329595E6241FB14F0A0030
:100310000020410000C84200401C4620BCBE4CCA20
:100320001B0E5AAEC59D7400407A10F35A00A0729D
:100330004E18090010A5D4E80000E8764817000020
:10034000E40B54020000CA9A3B000000E1F50500EE
:100350000080969800000040420F000000A0860137
:10036000000000102700000000E803000000006407
:1003700000000000000A0000000000010000000072
:10038000002C76D888DC674F0823DFC1DFAE59E147
:10039000B1B796E5E3E453C63AE651997696E8E6B6
:1003A000C28426EB898C9B62ED407C6FFCEFBC9C89
:1003B0009F40F2BAA56FA5F490055A2AF75C936B9B
:1003C0006CF9676DC11BFCE0E40D47FEF520E6B556
:1003D00000D0ED902E0300943577050080841E0830
:1003E0000000204E0A000000C80C333333330F984E
:1003F0006E12831141EF8D2114893BE65516CFFE15
:10040000E6DB18D1844B381BF77C1D901DA4BBE4A0
:1004100024203284725E228100C9F124ECA1E53DE2
:100420002700000A0B02090C0D0E08070304010047
:1004300000000000000000000000000000000000BC
:100440000000000000000000000000000012111079
:10045000000000000000000000000000000000009C
:100460000000000000000000002100240027002AF6
:10047000002D003000330001010000040107010AD3
:100480000100002200250028002B002E003100343E
:100490000002010000050108010B010000200023FB
:1004A00000260029002C002F00320000010000036C
:1004B00001060109010505050507050808080802E8
:1004C0000202020A0A0808040404040101010101ED
:1004D0000101010303030303030303040707070CDC
:1004E0000C0C0C0C0C0C0C02020202060606060692
:1004F0000606060B0B0B0B0B0B0B0B01021020203F
:100500000808102040102040800201020108040267
:1005100001010204081020408080402010080402DD
:100520000180040201804020100804020108040236
:10053000010102040810204080010204081020403C
:1005400080000D4C084C11241FBECFEFD1E2DEBF5E
:10055000CDBF00E00CBF17E0A0E0B2E0EEE9FCEA9E
:1005600000E00BBF02C007900D92A634B107D9F787
:100570002EE0A6E4B7E001C01D92AF3DB207E1F75F
:1005800012E0C2EAD2E000E006C021970109802F04
:10059000FE010E943155C13AD10780E00807A9F752
:1005A0000E9464420C943E562BCD0C947B4D0C94CF
:1005B0007B4D0C947B4D0C947B4D0C947B4D0C949B
:1005C0007B4D0C947B4D0C947B4D0C947B4D0C948B
:1005D0007B4D0C947B4D0C947B4D0C947B4D0C947B
:1005E0007B4D0C947B4D0C947B4D0C947B4D0F9369
:1005F0001F93CF93DF93FB0102A913A9C68DD78D5B
:100600000E94FA15A801BE010E94692780E090E0CF
:10061000DF91CF911F910F910895662319F08DEA14
:1006200093E002C086EA93E00C94E5360F931F93A3
:10063000CF93DF93FB01C2A1D3A1068D178D8091CB
:100640008F0B9091900B892B41F481E090E00E94F8
:10065000E64C9093900B80938F0B0430110539F08A
:100660000530110549F4BE018CEC9EE003C0BE01CB
:1006700089EC9EE00E94D72C80E090E0DF91CF9142
:100680001F910F910895EF92FF920F931F93CF93B5
:10069000DF93FB01E2A8F3A802A113A1C68DD78DB9
:1006A0000E94FA159701A801BE010E941C2880E053
:1006B00090E0DF91CF911F910F91FF90EF900895FF
:1006C0006F927F928F929F92AF92BF92CF92DF9262
:1006D000EF92FF920F931F93CF93DF93FB01E2A85A
:1006E000F3A886A497A4A0A8B1A8C6A0D7A062A08A
:1006F00073A0068D178D0E94FA15EC019701A301D6
:10070000B8010E941C28C501B4010E94492C970120
:10071000A601B801CE010E941C2880E090E0DF9184
:10072000CF911F910F91FF90EF90DF90CF90BF90EE
:10073000AF909F908F907F906F9008951F93CF936D
:10074000DF931F92CDB7DEB7FB0162A9168D6983D7
:100750000E94FA156981812F0E94022C80E090E0AE
:100760000F90DF91CF911F910895CF93DF93FB01FD
:10077000C68DD78D0E946117BE010E941F1780E0B1
:1007800090E0DF91CF910895EF92FF920F931F9326
:10079000CF93DF9300D01F92CDB7DEB7FB0122A12C
:1007A00033A144A155A1068D178D29833A834B832C
:1007B0005C830E9461177C01FC0182819381298105
:1007C0003A814B815C818F30F7E29F072CF40196D0
:1007D000F7019383828303C0F70113821282B80169
:1007E000C70129833A834B835C830E9419162981B0
:1007F0003A814B815C818823A1F0F801EE0FFF1F45
:10080000EE0FFF1FE85AF84F208331834283538352
:10081000B801C7010E94D016B801C7010E941F1776
:1008200004C08DE994E00E94E5360E943D270E94B5
:100830000D2780E090E00F900F900F900F90DF91C8
:10084000CF911F910F91FF90EF9008958F929F92FB
:10085000AF92BF92CF92DF92EF92FF920F931F93CE
:100860000E94F42662E070E00E943D3A892BD1F4A8
:100870000E94F42621E02F931F921F921F921F9235
:10088000812C912CA12CB12CC12CD12C760197015B
:100890008601B701A6010E94F7180F900F900F90E4
:1008A0000F900F9080E090E01F910F91FF90EF90DC
:1008B000DF90CF90BF90AF909F908F9008958F92D0
:1008C0009F92AF92BF92CF92DF92EF92FF920F93DF
:1008D0001F930E94F42661E070E00E943D3A892B4C
:1008E000D1F40E94F4261F9221E02F931F921F92B1
:1008F0001F92812C912CA12CB12CC12CD12C7601D2
:1009000097018601B701A6010E94F7180F900F907A
:100910000F900F900F9080E090E01F910F91FF904B
:10092000EF90DF90CF90BF90AF909F908F90089501
:100930008F929F92AF92BF92CF92DF92EF92FF92EF
:100940000F931F930E94F42660E070E00E943D3AEE
:10095000892BD1F40E94F4261F921F9221E02F933D
:100960001F921F92812C912CA12CB12CC12CD12C27
:10097000760197018601B701A6010E94F7180F9032
:100980000F900F900F900F9080E090E01F910F91CB
:10099000FF90EF90DF90CF90BF90AF909F908F909F
:1009A00008958F929F92AF92BF92CF92DF92EF9273
:1009B000FF920F931F930E94F42621E02F931F9222
:1009C0001F921F921F92812C912CA12CB12CC12C13
:1009D000D12C760197018601B701A6010E94F71874
:1009E0000F900F900F900F900F9080E090E01F916C
:1009F0000F91FF90EF90DF90CF90BF90AF909F90BE
:100A00008F9008958F929F92AF92BF92CF92DF9274
:100A1000EF92FF920F931F930E94F4261F9221E002
:100A20002F931F921F921F92812C912CA12CB12CDD
:100A3000C12CD12C760197018601B701A6010E9435
:100A4000F7180F900F900F900F900F9080E090E0AC
:100A50001F910F91FF90EF90DF90CF90BF90AF90DC
:100A60009F908F9008958F929F92AF92BF92CF9256
:100A7000DF92EF92FF920F931F930E94F4261F9232
:100A80001F9221E02F931F921F92812C912CA12C59
:100A9000B12CC12CD12C760197018601B701A6019A
:100AA0000E94F7180F900F900F900F900F9080E01A
:100AB00090E01F910F91FF90EF90DF90CF90BF904B
:100AC000AF909F908F900895089508950895089588
:100AD000089508950895089508950895089508952E
:100AE00008950895089508950895EF92FF920F9341
:100AF0001F93CF93DF93CDB7DEB72E970FB6F89441
:100B0000DEBF0FBECDBF8C016EE973E00E944F4285
:100B10006FEB74E0C8010E94FF3960914807709143
:100B2000490780914A0790914B072AE0AE014F5F39
:100B30005F4F7A010E944A4EF70101900020E9F7C9
:100B40003197AF014E195F09B701C8010E9473398F
:100B50006CE973E0C8010E94FF39C8012E960FB6F8
:100B6000F894DEBF0FBECDBFDF91CF911F910F91E3
:100B7000FF90EF9008958FEB94E00E94E53660912E
:100B800048077091490780914A0790914B070E944E
:100B900031378CE993E00C94E5360F931F93CF9394
:100BA000DF93EC0182EC94E00E94E53686EC94E061
:100BB0000E94E53609E81BE0F8016081CE012DDDD9
:100BC0008AEC94E00E94E536F8016181CE0125DDD2
:100BD0008EEC94E00E94E536F8016281CE011DDDC5
:100BE00082ED94E00E94E536F8016381CE0115DDC7
:100BF00086ED94E00E94E536F8016481CE010DDDBA
:100C00008AED94E00E94E536F8016581CE0105DDAC
:100C1000CE01DF91CF911F910F91ADCFCF92DF9297
:100C2000EF92FF92CF93DF93EC0188819981AA81A3
:100C3000BB81181619061A061B0644F081E090E0E5
:100C4000A0E0B0E088839983AA83BB838C819D81D7
:100C5000AE81BF81181619061A061B0644F081E002
:100C600090E0A0E0B0E08C839D83AE83BF83888555
:100C70009985AA85BB85181619061A061B0644F025
:100C800081E090E0A0E0B0E088879987AA87BB87E1
:100C90008EED94E00E94E53680E395E00E94E53613
:100CA00060914C0770914D0780914E0790914F07CE
:100CB0000E9493526B017C01688179818A819B81BA
:100CC0000E9493529B01AC01C701B6010E9481545E
:100CD00042E00E94583780E495E00E94E53660913A
:100CE00050077091510780915207909153070E94CD
:100CF00093526B017C016C817D818E819F810E946A
:100D000093529B01AC01C701B6010E94815442E09D
:100D10000E94583780E595E00E94E53660915407BF
:100D20007091550780915607909157070E949352F2
:100D30006B017C01688579858A859B850E94935229
:100D40009B01AC01C701B6010E94815442E00E94A0
:100D50005837CE01DF91CF91FF90EF90DF90CF9089
:100D60000ACF8091870B9091880B892B91F58DE0AC
:100D700090E00E94E64CFC01148610924C07109201
:100D80004D0710924E0710924F0710925007109285
:100D90005107109252071092530710925407109265
:100DA000550710925607109257071092860B109213
:100DB000850B109248071092490710924A0710922B
:100DC0004B0710924707109246079093880B809329
:100DD000870B8091870B9091880B0895C2DF1EDFEF
:100DE00080E090E008950F931F93CF93DF930E94CC
:100DF00061178C01C0E0D0E0BE01C8010E94191645
:100E0000882321F0BE01C8010E941F172196C13E10
:100E1000D10591F782EE94E00E94E536A2DFABDEC9
:100E200080E090E0DF91CF911F910F91089599DFBD
:100E3000FC01148680E090E00895CF93DF9385E471
:100E40000E94E62AEC018DDF91E0CD2B09F490E0C1
:100E50009093890B84E40E94E62AEC0182DF91E002
:100E6000CD2B09F490E090938A0B83E40E94E62A4C
:100E7000EC0177DF91E0CD2B09F490E090938B0BA0
:100E800082E40E94E62AEC016CDF91E0CD2B09F4AC
:100E900090E090938C0B81E40E94E62AEC0161DFE4
:100EA00091E0CD2B09F490E090938D0B80E40E94AB
:100EB000E62AEC0156DF91E0CD2B09F490E0909307
:100EC0008E0BDF91CF91089586EE94E00E94E53677
:100ED00048DFB3DF46DF61DE0E94FA1540E050E0F4
:100EE00068E070E00E9469270E94FA1540E050E037
:100EF00069E070E00E9469270E94FA1540E050E026
:100F00006AE070E00E9469270E94FA1540E050E014
:100F10006DE070E00E94692780E090E008950895F8
:100F20000895EBE0F1E08081877F80830895EBE016
:100F3000F1E080818860808308958E9808958E9A6C
:100F4000089514980895149A089588980895889A91
:100F50000895CF93DF93EC018F81882331F061E016
:100F600089890E940E2B1F8206C060E089890E9439
:100F70000E2B81E08F83DF91CF910895CF93DF9384
:100F8000EC018E81882331F061E08B850E940E2B6D
:100F90001E8206C060E08B850E940E2B81E08E834E
:100FA000DF91CF91089560E0FC0181890C940E2BB4
:100FB00060E0FC0183850C940E2B61E0FC018189CB
:100FC0000C940E2B61E0FC0183850C940E2B0F9387
:100FD0001F93CF93DF93EC0168EC70E080E090E02A
:100FE0000E94492C8E819F818F3F2FEF920739F00D
:100FF00061E00E94022C61E08E810E940E2B8C85A4
:101000009D858F3FEFEF9E0719F061E00E94022C53
:10101000888599858F3FFFEF9F0739F061E00E9437
:10102000022C60E088850E940E2B61E08A850E9478
:10103000022C61E08A850E940E2BFE01E858FF4FCA
:101040008081882309F45AC061E08091A80B0E9436
:10105000022C61E08091AC0B0E94022C62E0809136
:10106000AA0B0E94022C4091A80B5091A90BFA01E7
:10107000E550FB4FE491E093AE0B2091AA0B309129
:10108000AB0BF901E550FB4FE491E093AF0B80917E
:10109000AC0B9091AD0BFC01E550FB4FE491E0935C
:1010A000B00BFA01EB54FB4FE491F0E0EE0FFF1FA1
:1010B000EF57FB4F459154915093B20B4093B10BB6
:1010C000F901EB54FB4FE491F0E0EE0FFF1FE55602
:1010D000FB4F259134913093B40B2093B30BFC015B
:1010E000EB54FB4FE491F0E0EE0FFF1FEF57FB4F87
:1010F000859194919093B60B8093B50BAE01425FAE
:101100005F4F60E8CE010E940E2EAE014E5E5F4F33
:1011100060E9CE010E940E2EAE014A595F4FFA01DE
:1011200080819181A281B3819927AA27BB278083DF
:101130009183A283B38361E9CE010E940E2EAE019A
:10114000465E5F4F63E9CE010E940E2EAE01425E05
:101150005F4F64E9CE010E940E2EAE014E5D5F4FDF
:1011600065E9CE010E940E2EAE014A5D5F4F6DEA29
:10117000CE010E940E2EAE01465D5F4F63EBCE01A5
:101180000E940E2E8E010E5A1F4FA8016CEECE014A
:101190000E940E2EAE014A5A5F4F6DEECE010E94A4
:1011A0000E2EAE01425A5F4F60EFCE010E940E2E0E
:1011B000AE0146595F4FFA0180819181A281B381CE
:1011C0009927AA27BB2780839183A283B38362EFE9
:1011D000CE010E940E2EF80180819181A281B381FF
:1011E000807F886080839183A283B383A8016CEEA3
:1011F000CE010E940E2EF80180819181A281B381DF
:101200009F77AE7F906880839183A283B383A80188
:101210006CEECE01DF91CF911F910F910C940E2EA9
:101220000F931F93FC018EEA97E4A1EEBDE3808348
:101230009183A283B3831582778366833187208766
:10124000138702875587448716861786108A118A66
:10125000128A138A148A158A168A178A108E118E9A
:10126000128E138E148E158E168E178E10A211A24A
:1012700012A213A214A215A216A217A210A611A6BA
:1012800012A613A614A615A684E595EBAAEABAEA57
:1012900086A797A7A0ABB1AB8AEA94E5A5E9BAE423
:1012A00082AB93ABA4ABB5AB89E299E2A9E4B4E21B
:1012B00086AB97ABA0AFB1AF82E292E4A0E1B0E120
:1012C00082AF93AFA4AFB5AFDF01DE964FEF5FEF14
:1012D0006FEF7BEF4D935D936D937C931397149613
:1012E0004DE757E76BEB75EB4D935D936D937C93F7
:1012F0001397149646E555E569E279E44D935D93BD
:101300006D937C931397149642E252E460E470E08C
:101310004D935D936D937C931397149646E550E837
:101320006FEF7FEF4D935D936D937C9313971496BE
:101330001D921D921D921C92139714961D921D9240
:101340001D921C92139714961D921D921D921C9231
:101350001397149640E854E065E070E04D935D9378
:101360006D937C93139714961D921D921D921C925F
:10137000139714961D921D921D921C92139714960A
:101380001D921D921D921C92139714961D921D92F0
:101390001D921C921397149640E050E067EF70E0A6
:1013A0004D935D936D937C93139714961D921C92AD
:1013B000E858FF4F10821F910F9108958EBD0000D5
:1013C0000DB407FEFDCF8EB508951F920F920FB694
:1013D0000F9211240BB60F922F933F934F935F936D
:1013E0006F937F938F939F93AF93BF93EF93FF93ED
:1013F000E0E0F0E01995FF91EF91BF91AF919F91DF
:101400008F917F916F915F914F913F912F910F90AD
:101410000BBE0F900FBE0F901F901895CF93DF93C8
:10142000FC01A489B589C08DD18D2089318942897B
:101430005389A03187E2B80759F01A161B0644F405
:101440000E94E55320E137E240E050E00E94BF53A4
:10145000DE010E94E553DF91CF910895FC0181E008
:1014600090E0938F828F1182108215821482108AED
:10147000118A128A138A178A168A80E197E2958B5D
:10148000848B128610861486158616861786089514
:10149000CF93DF93EC01FC01E159FF4F10823797A6
:1014A00081E0808360E08B850E940E2B8D899E8970
:1014B000892B31F060E08989DF91CF910C940E2B5C
:1014C000DF91CF910895CF93DF93EC01898D0E9436
:1014D000E62A2C8D30E08217930711F48D8D01C020
:1014E00080E0DF91CF910895CF93DF93EC018F8956
:1014F0000E94E62A2C8D30E08217930711F48D8D1F
:1015000001C080E0DF91CF910895CF93DF93EC018C
:101510002BA988819981222311F061E001C060E04C
:101520000E94232F2CA98A819B81222329F02DA997
:10153000222311F061E001C060E0DF91CF910C94B3
:10154000232FCF93DF93EC012BA98881998122234C
:1015500011F060E001C061E00E94232F2CA98A8174
:101560009B81222329F02DA9222311F060E001C0E4
:1015700061E0DF91CF910C94232FCF93DF93EC01A7
:1015800061E08F850E940E2B8CA9882321F061E0F9
:101590008D890E940E2BC359DF4F1882DF91CF91A6
:1015A0000895CF93DF93EC0160E08F850E940E2BAE
:1015B0008CA9882321F060E08D890E940E2BC359ED
:1015C000DF4F81E08883DF91CF910895CF92DF9242
:1015D000EF92FF920F931F93CF93DF93FC01DC01F7
:1015E000A05CBF4F4D935D936D937C9313971496BE
:1015F0004D935D936D937C93139714960D931D9368
:101600002D933C931397EC01C45BDF4FE88282ADCE
:10161000882389F082A9811109C037FF0CC01D926F
:101620001D921D921C92139781E006C010161106A0
:1016300012061306A4F380E043AD54AD65AD76AD5C
:1016400014161506160617063CF597AD992321F1D9
:101650000D911D912D913C9113976801790137FFF0
:1016600007C0CC24DD247601C01AD10AE20AF30AAD
:101670004C155D056E057F057CF437FF07C070953E
:101680006095509541955F4F6F4F7F4F4D935D93A0
:101690006D937C93139781E0DF01AB5ABF4F1D928E
:1016A0001D921D921C921397EB59FF4F91E090836E
:1016B000DF91CF911F910F91FF90EF90DF90CF902E
:1016C00008950F931F93CF93DF938C01D62FFC01C6
:1016D000838D811109C0C80107DFC82FC801F3DE5F
:1016E000D11108C08C2F06C0C801EDDEC82FC8017B
:1016F000FBDEF6CFDF91CF911F910F910895CF932D
:10170000DF93EC01FC01E159FF4F81E080833997C1
:101710008081B297882341F080819181A281B38139
:101720000196A11DB11D07C080819181A281B38165
:101730000197A109B10980839183A283B383FE013C
:10174000EE58FF4F20813181DE01A059BF4FC90102
:101750009595879520FD03C0ED91FC910DC0FE018C
:10176000E80FF91F0190F081E02D2D913C91E20FDF
:10177000F31F0190F081E02D8C0F9D1F19958D892D
:101780009E89892B11F1FE01EA58FF4F208131819A
:10179000DE01AC58BF4FC9019595879520FD03C068
:1017A000ED91FC910DC0FE01E80FF91F0190F08151
:1017B000E02D2D913C91E20FF31F0190F081E02D7F
:1017C0008C0F9D1FDF91CF911994DF91CF910895D8
:1017D0008F929F92AF92BF92CF92DF92EF92FF9241
:1017E0000F931F93CF93DF93EC01FC01EB5AFF4F54
:1017F00060817181828193810E9491526B017C0191
:101800006EA97FA988AD99AD0E9493529B01AC014E
:1018100060E074E284E799E40E9481544B015C012A
:10182000FE01EF59FF4F60817181828193810E9497
:1018300091529B01AC01C501B4010E9481544B013E
:101840005C018E01075A1F4F20E030E040E05FE36B
:101850000E94F2529B01AC01C701B6010E941D54C7
:101860000E94EE54F8016083718382839383C35A8C
:10187000DF4FA5019401C701B6010E941D540E94CB
:10188000EE54688379838A839B83DF91CF911F9184
:101890000F91FF90EF90DF90CF90BF90AF909F900F
:1018A0008F9008950F931F93CF93DF93FC01E1591D
:1018B000FF4F20812223B9F07A9700811181228184
:1018C00033813896408151816281738104171507F5
:1018D0002607370710F1EC01DBDDCE01DF91CF9158
:1018E0001F910F9175CFFC01EB59FF4F20812223EF
:1018F000A1F070970081118122813381349640815B
:10190000518162817381041715072607370728F074
:10191000DF91CF911F910F91F2CEDF91CF911F9167
:101920000F9108952F923F924F925F926F927F9204
:101930008F929F92AF92BF92CF92DF92EF92FF92DF
:101940000F931F93CF93DF93CDB7DEB762970FB698
:10195000F894DEBF0FBECDBF1C016C012CE4C20E9B
:10196000D11CD6018C91F101EA59FF4F7F01910101
:1019700029593F4F4901A1014C5B5F4F5E874D875D
:101980008101085B1F4F882341F0D101D2968C91D1
:10199000808381E0F90180832FC0AD85BE854D91A4
:1019A0005D916D917C91F80180819181A281B381DB
:1019B00021E0481759076A077B070CF020E0F70180
:1019C000208377FF07C070956095509541955F4FD4
:1019D0006F4F7F4FB7FF07C0B095A0959095819549
:1019E0009F4FAF4FBF4F21E0481759076A077B074A
:1019F0000CF420E0D4012C93ED85FE8540815181CB
:101A000062817381411551056105710559F4F10138
:101A100082A193A1A4A1B5A1EF59FF4F8083918327
:101A2000A283B383F80180819181A281B381710186
:101A3000F0E4EF0EF11CF70140805180628073806A
:101A400091012B593F4F5901481659066A067B06EA
:101A500034F4481759076A077B077CF00AC08415DD
:101A60009505A605B7052CF484179507A607B707B3
:101A700024F0D6018C918823D9F0F5018081882348
:101A8000B9F0D6018C91811105C0F60180818111D8
:101A90000FC006C060E0C10114DE8111F6CF18C08E
:101AA000D4016C9181E06827C1010BDE882381F0AD
:101AB000D5011C9260E0C10104DE882309F4CDC188
:101AC000F101EC5BFF4F1082118212821382C5C1BB
:101AD000D1019A962D913D914D915C919D972983CD
:101AE0003A834B835C835E962D913D914D915C9141
:101AF00091972D833E834F83588792962D913D91E8
:101B00004D915C91959729873A874B875C87F801BF
:101B100080819181A281B381ED85FE850081118153
:101B200022813381F7014081518162817381F1010A
:101B3000E759FF4F1082319610822101FBE64F0ECC
:101B4000511CF20110823101FCE66F0E711CF30191
:101B50001082329610824C015D01841A950AA60A01
:101B6000B70AB7FE08C0B094A09490948094811CEA
:101B7000911CA11CB11C481759076A077B073CF44C
:101B800068017901C41AD50AE60AF70A06C0680195
:101B90007901C81AD90AEA0AFB0AA50194015595E8
:101BA0004795379527952D873E874F87588B81011D
:101BB00002591F4FF7FC05C08C149D04AE04BF04EE
:101BC00054F4D10196960D90BC91A02DBA8BA98B9F
:101BD00081E0F301BAC02D853E854F8558892C15CB
:101BE0003D054E055F0508F454C089819A81AB819B
:101BF000BC818C159D05AE05BF0564F42D813E8129
:101C00002F5F3F4F3A8B298B81E0D2018C93F801F3
:101C100080839EC0C701B6010E9493522B013C01F4
:101C200069817A818B819C810E9493529B01AC01D6
:101C3000C301B2010E9481542B013C016D817E8160
:101C40008F81988529853A854B855C85621B730B4E
:101C5000840B950B0E9493529B01AC01C301B2010E
:101C60000E94F2522B013C0169857A858B859C8507
:101C70000E9493529B01AC01C301B2010E941D540A
:101C80000E94E9547A8B698B81E0F101E759FF4F9B
:101C90005CC0D501C40129813A814B815C81821BE2
:101CA000930BA40BB50BC816D906EA06FB065CF429
:101CB0002D813E812E5F3F4F3A8B298B81E0F101D0
:101CC000E559FF4F42C0C501B4016C197D098E0969
:101CD0009F090E9493522B013C0169817A818B817B
:101CE0009C810E9493529B01AC01C301B2010E94EE
:101CF00081542B013C016D817E818F8198852985DE
:101D00003A854B855C85621B730B840B950B0E9497
:101D100093529B01AC01C301B2010E94F2522B010C
:101D20003C0169857A858B859C850E9493529B0135
:101D3000AC01C301B2010E941D540E94E9547A8B88
:101D4000698B81E0F101E659FF4F8083D8018C93C4
:101D5000F10182858823B1F00E94812CD10118966F
:101D60000D911C911997012E000C220B330BDC01F5
:101D7000CB01801B910BA20BB30B893E9340A105B5
:101D8000B10568F4F101EF59FF4F29893A89C9017A
:101D9000A0E0B0E080839183A283B3838BCE0E94C6
:101DA000812CD10119967C936E93189784E294E06C
:101DB0000E94E5368DEE94E00E94E53660E070E02A
:101DC000CB010E94313783EF94E00E94E536C701D2
:101DD000B6010E94313789EF94E00E94E536C501D3
:101DE000B4010E9431378FEF94E00E94E5364AE05B
:101DF0006D857E858F8598890E94E63686E095E020
:101E00000E94E53669817A818B819C810E943137FD
:101E10008CE095E00E94E53669857A858B859C8506
:101E20000E94313782E195E00E94E5366D817E8126
:101E30008F8198850E94313788E195E00E94E536D0
:101E400081E295E00E94E53689899A890E942738C7
:101E50008CE993E00E94E53695CF62960FB6F89430
:101E6000DEBF0FBECDBFDF91CF911F910F91FF90CD
:101E7000EF90DF90CF90BF90AF909F908F907F902A
:101E80006F905F904F903F902F9008950F931F9306
:101E9000FC01E45BFF4F2081211110C038970081C5
:101EA0001181228133813496408151816281738115
:101EB000041715072607370744F404C0FC0122A9BC
:101EC000222319F01F910F913CCB1F910F911DCB35
:101ED000CF93DF93FC0180819181EC01CE59DF4FDC
:101EE000188219821A821B82AE016FE60E940E2EA2
:101EF000888199819370DF91CF9108954F925F927D
:101F00006F927F92AF92BF92CF92DF92EF92FF9249
:101F10000F931F93CF93DF93EC015B01C42E8901D4
:101F2000888199810E949D38B801888199810E9499
:101F3000762F88819981AC014E5A5F4FFA0140801B
:101F4000518062807380689456F840825182628228
:101F500073826CEE0E940E2E88819981FC01468569
:101F6000578560897189516046875787608B718B6F
:101F7000AC01425F5F4F60E80E940E2E888199811C
:101F80000C2C000CDD08EE08FF087601DD24CC24C3
:101F9000CC24DD24E894E7F8FF24AC014A5A5F4FD3
:101FA000FA014080518062807380F0E86F224C28F3
:101FB0005D286E287F28FA014082518262827382F6
:101FC0006DEE0E940E2E60E0888199810E94232F81
:101FD0008C81883509F057C0B5018A819B810E94A8
:101FE0009D38B8018A819B810E94762F8A819B81CE
:101FF000AC014E5A5F4FFA01008111812281338179
:10200000106400831183228333836CEE0E940E2EB2
:102010008A819B81FC014685578560897189516061
:1020200046875787608B718BAC01425F5F4F60E8DA
:102030000E940E2E8A819B81AC014A5A5F4FFA01A1
:1020400000811181228133812078C02AD12AE22A9D
:10205000F32AC082D182E282F3826DEE0E940E2EBC
:1020600060E08A819B81DF91CF911F910F91FF905A
:10207000EF90DF90CF90BF90AF907F906F905F9088
:102080004F900C94232FDF91CF911F910F91FF90D0
:10209000EF90DF90CF90BF90AF907F906F905F9068
:1020A0004F900895603E710508F041C4FB018827F8
:1020B000EE58FF4F8F4F0C94315581E090E0A0E037
:1020C000B0E08093580790935907A0935A07B093B4
:1020D0005B07089510925C0710925D0710925E07EF
:1020E00010925F0708951092600710926107109296
:1020F000620710926307089581E090E0A0E0B0E0ED
:102100008093640790936507A0936607B093670771
:102110000895109268071092690710926A0710924A
:102120006B07089583E090E0A0E0B0E080936C0737
:1021300090936D07A0936E07B0936F07089588E79B
:1021400090E0A0E0B0E08093840790938507A0938F
:102150008607B0938707089588E790E0A0E0B0E095
:102160008093880790938907A0938A07B0938B0781
:10217000089588E790E0A0E0B0E080938C0790930A
:102180008D07A0938E07B0938F0708951092940740
:102190001092950710929607109297070895109243
:1021A00098071092990710929A0710929B0708952A
:1021B00081E090E0A0E0B0E080939C0790939D07C1
:1021C000A0939E07B0939F0708951092A0071092C6
:1021D000A1071092A2071092A30708951092A407D6
:1021E0001092A5071092A6071092A70708951092C3
:1021F000A8071092A9071092AA071092AB0708959A
:102200001092AC071092AD071092AE071092AF0774
:1022100008951092B0071092B1071092B207109271
:10222000B30708951092B4071092B5071092B6073D
:102230001092B70708951092BC071092BD07109234
:10224000BE071092BF0708951092C0071092C107F1
:102250001092C2071092C30708951092C4071092FB
:10226000C5071092C6071092C70708951092D407A9
:102270001092D5071092D6071092D70708951092A2
:10228000D8071092D9071092DA071092DB07089549
:102290001092DC071092DD071092DE071092DF0724
:1022A000089581E090E0A0E0B0E08093E80790938B
:1022B000E907A093EA07B093EB07089581E090E067
:1022C000A0E0B0E08093EC079093ED07A093EE07B9
:1022D000B093EF0708958CE291E0A0E0B0E0809326
:1022E000FC079093FD07A093FE07B093FF070895A6
:1022F0008CE291E0A0E0B0E08093000890930108A8
:10230000A0930208B093030808958CE291E0A0E046
:10231000B0E08093040890930508A0930608B0935A
:102320000708089510920C0810920D0810920E08DC
:1023300010920F0808951092100810921108109230
:10234000120810921308089510921408109215089C
:1023500010921608109217080895109224081092EF
:102360002508109226081092270808951092280830
:102370001092290810922A0810922B08089581E0E3
:1023800090E0A0E0B0E080932C0890932D08A093FB
:102390002E08B0932F08089585E090E0A0E0B0E00B
:1023A0008093340890933508A0933608B09337088B
:1023B000089585E090E0A0E0B0E080933808909325
:1023C0003908A0933A08B0933B08089589E190E05A
:1023D000A0E0B0E080933C0890933D08A0933E08B5
:1023E000B0933F08089582E390E0A0E0B0E08093CE
:1023F0004C0890934D08A0934E08B0934F08089551
:1024000082E390E0A0E0B0E0809350089093510800
:10241000A0935208B0935308089582E390E0A0E09F
:10242000B0E08093540890935508A0935608B09359
:102430005708089582E390E0A0E0B0E080935C0844
:1024400090935D08A0935E08B0935F08089582E3BF
:1024500090E0A0E0B0E08093600890936108A093C2
:102460006208B0936308089582E390E0A0E0B0E0D2
:102470008093640890936508A0936608B0936708FA
:10248000089580E991E0A0E0B0E080937408909313
:102490007508A0937608B0937708089580E991E0D5
:1024A000A0E0B0E08093780890937908A0937A0830
:1024B000B0937B08089580E991E0A0E0B0E08093BC
:1024C0007C0890937D08A0937E08B0937F080895C0
:1024D000109284081092850810928608109287083E
:1024E0000895109288081092890810928A08109214
:1024F0008B08089510928C0810928D0810928E0807
:1025000010928F08089510929C0910929D091092C4
:102510009E0910929F0908951092A0091092A10996
:102520001092A2091092A30908951092A409109282
:10253000A5091092A6091092A709089588E592E0CE
:10254000A0E0B0E080939C0890939D08A0939E0823
:10255000B0939F08089588E592E0A0E0B0E08093F2
:10256000A0089093A108A093A208B093A30808958F
:1025700088E592E0A0E0B0E08093A4089093A508DD
:10258000A093A608B093A70808958EE190E0A0E07C
:10259000B0E08093AC089093AD08A093AE08B093E0
:1025A000AF0808958EE190E0A0E0B0E08093B0081D
:1025B0009093B108A093B208B093B30808958EE148
:1025C00090E0A0E0B0E08093B4089093B508A093A9
:1025D000B608B093B70808951092C4081092C508C1
:1025E0001092C6081092C70808951092C808109259
:1025F000C9081092CA081092CB0808951092CC080E
:102600001092CD081092CE081092CF080895109223
:10261000EC081092ED081092EE081092EF08089561
:102620001092F0081092F1081092F2081092F3083C
:1026300008951092F4081092F5081092F60810927E
:10264000F70808951092FC081092FD081092FE08F9
:102650001092FF080895109200091092010910923B
:1026600002091092030908951092040910920509B5
:102670001092060910920709089585E090E0A0E005
:10268000B0E08093140990931509A0931609B093B4
:102690001709089585E090E0A0E0B0E08093180964
:1026A00090931909A0931A09B0931B09089585E026
:1026B00090E0A0E0B0E080931C0990931D09A093E6
:1026C0001E09B0931F09089584EB95E1A0E0B0E0E6
:1026D0008093240990932509A0932609B093270994
:1026E000089584EB95E1A0E0B0E0809328099093F1
:1026F0002909A0932A09B0932B09089584EB95E149
:10270000A0E0B0E080932C0990932D09A0932E09AE
:10271000B0932F09089585E090E0A0E0B0E08093A9
:102720003C0990933D09A0933E09B0933F09089559
:1027300085E090E0A0E0B0E08093400990934109EB
:10274000A0934209B0934309089585E090E0A0E08A
:10275000B0E08093440990934509A0934609B09353
:102760004709089510924C0910924D0910924E0994
:1027700010924F0908951092500910925109109229
:102780005209109253090895109254091092550954
:1027900010925609109257090895109264091092E8
:1027A00065091092660910926709089510926809E8
:1027B0001092690910926A0910926B09089510929B
:1027C0006C0910926D0910926E0910926F090895AC
:1027D00010927C0A10927D0A10927E0A10927F0A53
:1027E00008958CE390E0A0E0B0E08093800A90939D
:1027F000810AA093820AB093830A089581E090E051
:10280000A0E0B0E08093840A9093850AA093860AA2
:10281000B093870A089510928C0A10928D0A109234
:102820008E0A10928F0A08958CE390E0A0E0B0E049
:102830008093900A9093910AA093920AB093930A7E
:10284000089581E090E0A0E0B0E08093940A909336
:10285000950AA093960AB093970A08951092A40A35
:102860001092A50A1092A60A1092A70A08958CE366
:1028700090E0A0E0B0E08093A80A9093A90AA0930A
:10288000AA0AB093AB0A089581E090E0A0E0B0E01E
:102890008093AC0A9093AD0AA093AE0AB093AF0AAE
:1028A00008951092B40A1092B50A1092B60A1092C6
:1028B000B70A08958CE390E0A0E0B0E08093B80AF6
:1028C0009093B90AA093BA0AB093BB0A089581E025
:1028D00090E0A0E0B0E08093BC0A9093BD0AA09382
:1028E000BE0AB093BF0A08951092CC0A1092CD0A86
:1028F0001092CE0A1092CF0A08958CE390E0A0E0E7
:10290000B0E08093D00A9093D10AA093D20AB093FA
:10291000D30A089581E090E0A0E0B0E08093D40A6B
:102920009093D50AA093D60AB093D70A0895660F5C
:10293000771F660F771FFB01E85AF84F108211824C
:102940001282138208958FEF9FEF08954F925F9246
:102950006F927F928F929F92AF92BF92CF92DF92AF
:10296000EF92FF92CF93DF935B01EB01CC0FDD1F62
:10297000CE010E94A953482E512C612C712CCE01FE
:1029800001960E94A953C82ED12CE12CF12C8DE880
:10299000A81AB10883E0A816B10488F5CE014496C0
:1029A0000E94A953882E912CA12CB12CCE014596C2
:1029B0000E94A953482F50E060E070E08FEF881626
:1029C0009104A104B104A9F44F3F510561057105BB
:1029D00081F48FEF481651046104710481F48FEF84
:1029E000C816D104E104F10451F46FEF7FEFCB017D
:1029F0002BC040385105610571056CF0F6CF80E8B9
:102A0000C816D104E104F10484F740E050E0BA01B3
:102A1000812C912C5401FE2CED2CDC2CCC24C40CEC
:102A2000D51CE61CF71C540199248824C80CD91C19
:102A3000EA1CFB1C742F662755274427CB01BA01DB
:102A40006C0D7D1D8E1D9F1DDF91CF91FF90EF902E
:102A5000DF90CF90BF90AF909F908F907F906F90BE
:102A60005F904F9008958EE195E00E94E53685E1F4
:102A700093E00E94E5360E94B1060E94BB0580E00B
:102A800090E008950C947B4D0C947B4D0C947B4D01
:102A90000C947B4D0C947B4D0C947B4D4F925F922C
:102AA0006F927F928F929F92AF92BF92CF92DF925E
:102AB000EF92FF920F931F93CF93DF9300D01F925B
:102AC000CDB7DEB7FB011689078982889388A68473
:102AD000B784C284D384E484F584468057806084BC
:102AE0007184428153816481758149835A836B83E8
:102AF0007C830E94F4261F921F921F920F931F93B4
:102B00009301820149815A816B817C8170D30F903E
:102B10000F900F900F900F9080E090E00F900F902B
:102B20000F900F90DF91CF911F910F91FF90EF9039
:102B3000DF90CF90BF90AF909F908F907F906F90DD
:102B40005F904F900895CF93DF93EB0120E030E04A
:102B500040E85FE36A817B818C819D810E948D5278
:102B600081110DC083E295E00E94E5360E94F426B3
:102B7000FC01EC5AFF4F108211821282138220E076
:102B800030E040E85FE36E817F81888599850E940F
:102B90008D5281110DC083E395E00E94E5360E94BD
:102BA000F426FC01EC52FF4F108211821282138234
:102BB00020E030E040E85FE36A857B858C859D8579
:102BC0000E948D5281110DC083E495E00E94E5368C
:102BD0000E94F426FC01EC5AFE4F108211821282F0
:102BE00013820E94B1060E94BB0580E090E0DF9155
:102BF000CF9108958091940B9091950B892BA1F41E
:102C000080E790E00E94E64CFC01F9969C01235974
:102C10003F4FDF01D8971C921192E217F307C9F7D3
:102C20009093950B8093940B8091940B9091950BBE
:102C30000895683571050CF052C0653571050CF0CA
:102C400095C06C32710554F5693271050CF08EC077
:102C50006831710594F46F3071050CF087C06630EF
:102C6000710544F4623071050CF080C0672B09F0E7
:102C70007BC07CC06B50710974C0623271053CF43A
:102C80006F3171050CF072C0695171096AC06452EC
:102C900071096230710508F067C068C06034710561
:102CA0008CF46D3371050CF061C0663371053CF432
:102CB000633371050CF05AC06D52710952C06753ED
:102CC00071094FC06A3471053CF4673471050CF02A
:102CD0004DC06154710945C06155710942C06638E3
:102CE000710514F5633871050CF040C06237710549
:102CF0007CF46F367105D4F56836710534F46536A9
:102D00007105A4F56B5571092CC06956710929C06C
:102D10006C37710534F46937710544F563577109EF
:102D200020C06D5771091DC0603D71057CF46D3C7C
:102D30007105E4F46439710534F461397105B4F452
:102D40006D5871090EC0695C71090BC06A3D71054F
:102D500034F4673D710554F4635D710902C06D5D23
:102D600071096330710510F080E0089581E00895E5
:102D70000F931F93CF93DF938C01C0E0D0E0BE018F
:102D8000C80157DF882319F0BE01C8018BD92196ED
:102D9000C13ED105A1F7DF91CF911F910F91089509
:102DA000EF92FF920F931F93CF93DF9300D01F9268
:102DB000CDB7DEB78B017B01EE0CFF1C622FC70184
:102DC00029833A834B835C830E94B15329813A81E2
:102DD0004B815C81992757FD9A95852F742F632F1E
:102DE000C70101960E94B1530D58110929813A81FA
:102DF0004B815C8103301105A8F4BA01992777FD56
:102E00009095892FC70144960E94B15329813A8138
:102E10004B815C81652F772788279927C7014596C5
:102E20000E94B15380E090E00F900F900F900F90B0
:102E3000DF91CF911F910F91FF90EF900895CF9266
:102E4000DF92EF92FF92CF93DF93EB01F2DE8823C4
:102E500059F1FE01EE0FFF1FEE0FFF1FE85AF84F6A
:102E6000C080D180E280F38083E595E00E94E53662
:102E700081E295E00E94E53687E595E00E94E5361F
:102E8000CE010E94273881E295E00E94E53689E56F
:102E900095E00E94E536C701B6010E9431370E94D5
:102EA000B1060E94BB0504C08DE994E00E94E5369E
:102EB00080E090E0DF91CF91FF90EF90DF90CF9096
:102EC0000895EF92FF920F931F93CF93DF9380911A
:102ED000920B9091930B892B09F064C084E090E0F1
:102EE0000E94E64CEC0160E070E030DD161617063B
:102EF000F4F0CE013DDF98E5E92E97E0F92E00E0F1
:102F000010E0B801CE0195DE882341F0F701208161
:102F1000318142815381B801CE0142DF0F5F1F4FE3
:102F2000F4E0EF0EF11C0639110559F737C063E0E4
:102F300070E0CE010BDD613071058105910561F511
:102F400088E5E82E87E0F82E00E010E0B801CE0119
:102F500070DE8823C1F0B801CE01F8DCF701608390
:102F60007183828393836F3F7F4F8F4F9F4F59F4BD
:102F7000B801CE0197D8F701208131814281538178
:102F8000B801CE010DDF0F5F1F4FF4E0EF0EF11C13
:102F9000013E1105D9F602C0CE01EADED093930BB3
:102FA000C093920B8091920B9091930BDF91CF91F4
:102FB0001F910F91FF90EF9008954F925F926F9243
:102FC0007F928F929F92AF92BF92CF92DF92EF92B9
:102FD000FF920F931F93CF93DF9300D01F92CDB733
:102FE000DEB76FDF409034085090350860903608A7
:102FF0007090370866DF8090380890903908A0906C
:103000003A08B0903B080E94B106C0904C07D0909F
:103010004D07E0904E07F0904F070E94B106C701A0
:10302000B6010E9493526B017C01C301B2010E9460
:1030300093529B01AC01C701B6010E9481542B0140
:103040003C01609150077091510780915207909117
:1030500053070E9493526B017C01C501B4010E9489
:1030600093529B01AC01C701B6010E948154AB0190
:10307000BC0149835A836B837C830E94F4261F9290
:103080001F921F921F921F92812C912CA12CB12C68
:10309000C12CD12C760149815A816B817C818A01B6
:1030A0009B01B301A201A3D00E94F4261F921F929C
:1030B0001F921F921F9297018601B301A20197D020
:1030C0000E94F4261F921F921F921F921F92970137
:1030D0008601B701A6018BD00FB6F894DEBF0FBEF4
:1030E000CDBF80E090E00F900F900F900F90DF9198
:1030F000CF911F910F91FF90EF90DF90CF90BF90F5
:10310000AF909F908F907F906F905F904F900895B9
:1031100008950895089508951F920F920FB60F9283
:1031200011240BB60F922F933F934F935F936F939E
:103130007F938F939F93AF93BF93EF93FF93809170
:10314000910B81113FC081E08093910B0E94F42686
:10315000FC01EB58FF4F2081222369F070974081DA
:103160005181628173814F5F5F4F6F4F7F4F40830B
:10317000518362837383FC01EB50FF4F2081222334
:1031800069F0709740815181628173814F5F5F4F19
:103190006F4F7F4F4083518362837383FC01EB58F1
:1031A000FE4F2081222361F0709780819181A2815E
:1031B000B3810196A11DB11D80839183A283B38346
:1031C0001092910BFF91EF91BF91AF919F918F91D1
:1031D0007F916F915F914F913F912F910F900BBE17
:1031E0000F900FBE0F901F901895089508952F927D
:1031F0003F924F925F926F927F928F929F92AF9287
:10320000BF92CF92DF92EF92FF920F931F93CF93D3
:10321000DF93CDB7DEB7E8970FB6F894DEBF0FBEE9
:10322000CDBF1C012A013B010F83188729873A87EC
:1032300060960EAD1FAD6097FC01E359FD4F6081B4
:103240007181828193810E9493529B01AC01C301E1
:10325000B2010E94F2520E94E9546B8B7C8B8D8BE1
:103260009E8BF101EF58FD4F6081718182819381C6
:103270000E9493529B01AC016F81788589859A8564
:103280000E94F2520E94E9546F8B788F898F9A8F37
:10329000F101EB58FD4F60817181828193810E9421
:1032A00093529B01AC01C701B6010E94F2520E94E9
:1032B000E9546B8F7C8F8D8F9E8F0E94812C6F873E
:1032C000788B898B9A8BF101E251FE4F118210822B
:1032D0003296118210823E96A114B10461F0C501AC
:1032E000A0E0B0E04081518162817381841795072D
:1032F000A607B70714F0A080B180F101EE5FFD4F83
:103300008114910461F0C401A0E0B0E040815181DA
:103310006281738184179507A607B70714F0808030
:103320009180F101EA5FFD4F0115110561F0C801BF
:10333000A0E0B0E0408151816281738184179507DC
:10334000A607B70714F0008111819101205F3F4F5C
:103350003E872D87C501A0E0B0E0F10186A797A7C1
:10336000A0ABB1AB2101F0E94F0E511CA12CB12C47
:10337000D2015E968D929D92AD92BC929197310151
:10338000B0EF6B1ABEEF7B0A20E030E0F301068F4E
:10339000178F20A331A30E94B1060E94B1060E949C
:1033A000B1060E94B10640914C0750914D076091C3
:1033B0004E0770914F074DAB5EAB6FAB78AF0E947D
:1033C000B1068091500790915107A0915207B0919A
:1033D00053078F839887A987BA870E94B106809088
:1033E000540790905507A0905607B0905707F101E9
:1033F000E758FD4F10821182128213823496108298
:1034000011821282138234961082118212821382E8
:103410003496118210823296118210823296118275
:10342000108232964DA95EA96FA978AD4083518371
:103430006283738334968F819885A985BA8580834A
:103440009183A283B383349680829182A282B382D5
:103450006196EFAC61970B891C892D893E898D851A
:103460009E850E94E60A8823F9F08EE393E00E948D
:10347000E53680E395E00E94E536F101E85AFF4F1A
:103480006081718182819381EB5EFD4F208131816A
:10349000428153810E94BF53CA01B9010E94313752
:1034A0000E94B1060E94BB056296EFAC62970F893D
:1034B000188D298D3A8D4F81588569857A85C2018D
:1034C0000E94E60A8823F9F08AE393E00E94E53639
:1034D00080E495E00E94E536F101E852FF4F6081FB
:1034E000718182819381E756FE4F20813181428133
:1034F00053810E94BF53CA01B9010E9431370E9413
:10350000B1060E94BB056396EFAC63970B8D1C8DD3
:103510002D8D3E8DB501A401C3010E94E60A8823CA
:10352000F9F086E393E00E94E53680E595E00E949D
:10353000E536F101E85AFE4F608171818281938105
:10354000E35EFE4F20813181428153810E94BF534F
:10355000CA01B9010E9431370E94B1060E94BB0521
:10356000D10155961C92F101EB56FF4F1082E058A5
:10357000FF4F1082C1010E941340C1010E941740F9
:103580008D859E850E94460FC2010E94460FC30191
:103590000E94460FF101EB50FE4FFAA3E9A381E030
:1035A00090E0918380837101F9E0EF1AFEEFFF0A4A
:1035B000D7018D939C93810107501E4FF801918391
:1035C000808341E050E06D857E85C1010E94AA257F
:1035D000D7014D915C91B201C1010E94AA25F80169
:1035E00040815181B301C1010E94AA2511E0F1017E
:1035F000EC52FD4F10838D859E850E94D10AC20139
:103600000E94D10AC3010E94D10A64E670E080E002
:1036100090E00E94492CC1018E509E4FDC011C930A
:1036200011961C93A1014C505E4FFA0110836196D4
:10363000FFAD6197F1110FC062962FAD6297211116
:1036400005C063963FAD6397332339F191012B5841
:103650003F4FF90110826296FFAD6297F11105C0EC
:1036600091012B503F4FF90110826396FFAD639794
:10367000F11105C091012B583E4FF901108261965E
:103680002FAD6197FC01208362963FAD62973C931A
:103690006396EFAD6397DA01EC938D859E850E946A
:1036A000920CC2010E94920CC3010E94920C8D8563
:1036B0009E850E94E80BC2010E94E80BC3010E9494
:1036C000E80B0E94B106DC011C968C918B8B18864E
:1036D0001F82F101EE50FE4FF88FEF8B91012D50BC
:1036E0003E4F3C8F2B8FA1014C505E4F58A34F8F04
:1036F000C1018B509E4F9EA38DA3D101A950BE4FF7
:10370000B8A7AFA33796FAA7E9A72B5731403CA338
:103710002BA34F535F4F5CA74BA78C549F4F9EA783
:103720008DA7A353BF4FB8ABAFA7E256FF4FFAAB7D
:10373000E9AB2D5E3D4F3CAB2BABEF89F88D808123
:1037400081110BC0AB8DBC8D8C91811106C0EF8DAA
:10375000F8A18081882309F430C3FB89F1112DC3BE
:103760004DA15EA16D857E85C1010E9403264FA1FA
:1037700058A5B201C1010E94032649A55AA5B3016B
:10378000C1010E9403268D859E850E94520CC201B4
:103790000E94520CC3010E94520CABA1BCA18C919F
:1037A0008823E1F08D859E850E94920C8BA49CA4B9
:1037B000ADA4BEA4CFA4D8A8E9A8FAA80BA91CA9B7
:1037C000910127583D4FA10140575E4F6D857E8581
:1037D000C1010E942936EBA1FCA110829101285061
:1037E0003F4F3C872B87D9018C91882339F1C20147
:1037F0000E94920C4101BAE48B1ABDEF9B0A510161
:10380000E3E5AE1AEDEFBE0A6101FAE3CF1AFDEF70
:10381000DF0A710125E6E21A2DEFF20A8101015754
:103820001D4F910123583D4FA10144555E4FB201F8
:10383000C1010E942936AB85BC851C92F101E85874
:10384000FE4FFC87EB878081882339F1C3010E94FA
:10385000920C4101F9E48F1AFDEF9F0A51012FE408
:10386000A21A2DEFB20A610138E3C31A3DEFD30A61
:10387000710141E6E41A4DEFF40A81010D561D4F26
:1038800091012F573D4FA10148535E4FB301C10134
:103890000E942936AB85BC851C9281010B581F4FB5
:1038A000F80180818823C1F1E25DFD4F6081718163
:1038B000072E000C880B990B0E9493529B01AC01C0
:1038C000F101E758FD4F60817181828193810E94EF
:1038D0001A5518160CF5D8011C9264E274E08101A7
:1038E0000C511E4FC8010E94FF3969E975E0C801FB
:1038F0000E94FF396CE973E0C8010E94FF396196AC
:10390000BFAD6197BB2309F450C3F101EC5AFF4FDF
:10391000108211821282138281010B501F4FD80135
:103920008C918823C9F1F101EB55FD4F60817181C4
:10393000072E000C880B990B0E9493529B01AC013F
:10394000F101E358FD4F60817181828193810E9472
:103950001A5518160CF5D8011C9264E274E0810126
:103960000C511E4FC8010E94FF3961EC75E0C8017F
:103970000E94FF396CE973E0C8010E94FF3962962A
:10398000BFAD6297BB2309F415C3F101EC52FF4FA1
:10399000108211821282138281010B581E4FF8018E
:1039A00080818823C1F1EE5CFE4F60817181072E1A
:1039B000000C880B990B0E9493529B01AC01F10102
:1039C000EF57FD4F60817181828193810E941A556A
:1039D00018160CF5D8011C9264E274E081010C51B8
:1039E0001E4FC8010E94FF3969EE75E0C8010E94B0
:1039F000FF396CE973E0C8010E94FF396396BFADDF
:103A00006397BB2309F4DBC2F101EC5AFE4F10822D
:103A100011821282138260E08D859E850E94610B67
:103A2000882339F0F101EC5AFF4F10821182128283
:103A3000138260E0C2010E94610B882339F0F1011A
:103A4000EC52FF4F108211821282138260E0C30198
:103A50000E94610B882339F0F101EC5AFE4F10826D
:103A6000118212821382F101EB58FF4F8081AF89DE
:103A7000B88D8C93E058FF4F8081EB8DFC8D808357
:103A8000F101EB58FE4F8081AF8DB8A18C93E152CC
:103A9000F1404081518162817381E058FF4F808005
:103AA0009180A280B380E058FF4FC080D180E28037
:103AB000F3804DAB5EAB6FAB78AF0E94B1064DA902
:103AC0005EA96FA978AD40934C0750934D07609362
:103AD0004E0770934F070E94B10680925007909254
:103AE0005107A0925207B09253070E94B106C092AC
:103AF0005407D0925507E0925607F0925707C1013C
:103B00000E941340EF89F88D8081882309F44AC010
:103B10000E94812C2F85388949895A896217730739
:103B20008407950760F40E94812C2F853889498984
:103B30005A896217730784079507A0F51EC00E9473
:103B4000812C6B017C012F85388949895A89C21AD9
:103B5000D30AE40AF50AF101EF59FD4F20813181C2
:103B600042815381A8EEB3E00E94DB536C157D05C2
:103B70008E059F0508F428C2D6CF0E94812C6B01C8
:103B80007C01F101EF59FD4F208131814281538148
:103B9000A8EEB3E00E94DB536C157D058E059F05F2
:103BA00008F412C2AB8DBC8D8C91882309F44AC0F5
:103BB0000E94812C2F85388949895A896217730799
:103BC0008407950760F40E94812C2F8538894989E4
:103BD0005A896217730784079507A0F51EC00E94D3
:103BE000812C6B017C012F85388949895A89C21A39
:103BF000D30AE40AF50AF101EB59FD4F2081318126
:103C000042815381A8EEB3E00E94DB536C157D0521
:103C10008E059F0508F4EFC1D6CF0E94812C6B0161
:103C20007C01F101EB59FD4F2081318142815381AB
:103C3000A8EEB3E00E94DB536C157D058E059F0551
:103C400008F4D9C1AF8DB8A18C91882309F44AC07A
:103C50000E94812C2F85388949895A8962177307F8
:103C60008407950760F40E94812C2F853889498943
:103C70005A896217730784079507A0F51EC00E9432
:103C8000812C6B017C012F85388949895A89C21A98
:103C9000D30AE40AF50AF101E759FD4F2081318189
:103CA00042815381A8EEB3E00E94DB536C157D0581
:103CB0008E059F0508F4B6C1D6CF0E94812C6B01FA
:103CC0007C01F101E759FD4F20813181428153810F
:103CD000A8EEB3E00E94DB536C157D058E059F05B1
:103CE00008F4A0C187EB9BE00E943729181619063B
:103CF0008CF587EB9BE00E9415298F7D853491051B
:103D000049F56BE575E0C1018C519E4F0E94FF396A
:103D10008CE793E00E94E5360E94B1060E94BB0545
:103D2000F101EB58FF4F1082E058FF4F1082E0582E
:103D3000FF4F1082AF89B88D1C92EB8DFC8D1082E5
:103D4000AF8DB8A11C92B1E0BB8BE1E0F0E0F88749
:103D5000EF8304C02F813885232B81F060E775E065
:103D6000C1018C519E4F0E94FF39AF89B88D1C92C2
:103D7000EB8DFC8D1082AF8DB8A11C92C1010E9409
:103D8000263FF101E051FE4F8081918101969183A0
:103D900080838D3291400CF4D0CCD101A851BE4F1C
:103DA0008D919C911197892B09F0C7CC14968D9118
:103DB0009C91892B09F44DC1C0CC810108511E4F43
:103DC000D8018D919C91892B21F0C1010E94263F41
:103DD000F7CF80E895E00E94E5366196BFAD619728
:103DE000BB2311F1EF81F885EF2BF1F4FB89F11181
:103DF00042C086E293E00E94E5360E94B1060E942E
:103E0000BB0562962FAD6297222381F182E293E097
:103E10000E94E5360E94B1060E94BB0563963FAD45
:103E2000639731111AC027C062964FAD6297442341
:103E300041F08F819885892B21F49B8991111BC0BA
:103E4000E5CF6396AFAD6397AA23A9F0EF81F8851C
:103E5000EF2B89F4FB89F1110EC08EE193E00E94F3
:103E6000E5360E94B1060E94BB0505C063969FAD72
:103E700063979111F2CF85E090E0A9A1BAA18D934B
:103E80009C93910129503E4F388B2F87D9018D93F8
:103E90009C93810107501E4FF8019183808345E078
:103EA00050E06D857E85C10155D6AF85B8894D91AD
:103EB0005C91B201C1014ED6F80140815181B3013C
:103EC000C10148D6C1010E941B40F101EC5AFF4FCD
:103ED0004081518162817381E058FF4FC080D18061
:103EE000E280F380E058FF4F80809180A280B38011
:103EF0004DAB5EAB6FAB78AF0E94B1064DA95EA92A
:103F00006FA978AD40934C0750934D0760934E07CF
:103F100070934F070E94B106C0925007D09251078C
:103F2000E0925207F09253070E94B1068092540724
:103F300090925507A0925607B0925707C1010E9470
:103F40001340C1010E9417400E94B1060E940E0654
:103F5000C10191D6A9A1BAA11D921C92EF85F88941
:103F600011821082D8011D921C9240E050E06D85B4
:103F70007E85C101EFD5EF85F88940815181B2017D
:103F8000C101E8D5D8014D915C91B301C101E2D5E1
:103F9000C1010E941B40BB89BB2309F489C10E9457
:103FA000B10621E0FC01248783C1E1E0F0E0F8875D
:103FB000EF83B2CCE1E0F0E0F887EF83EDCCE1E015
:103FC000F0E0F887EF8327CD62E373E081010C51C5
:103FD0001E4FC8010E94FF396CE973E0C8010E94BE
:103FE000FF3961E176E0C8010E94FF3922E030E04C
:103FF00038872F83D7CD6EE273E081010C511E4FBD
:10400000C8010E94FF396CE973E0C8010E94FF39C2
:1040100066E276E0C8010E94FF3942E050E058872E
:104020004F8310CE6AE273E081010C511E4FC8012C
:104030000E94FF396CE973E0C8010E94FF396BE30D
:1040400076E0C8010E94FF3982E090E098878F8374
:1040500049CE11821082F101E251FE4F808191819F
:104060008130910509F0F3C00E94B1068C01FC017A
:1040700080819181A281B381181619061A061B0648
:1040800044F081E090E0A0E0B0E080839183A283DF
:10409000B383F80184819581A681B781181619062A
:1040A0001A061B0644F081E090E0A0E0B0E08483B3
:1040B0009583A683B783F80180859185A285B38512
:1040C000181619061A061B0644F081E090E0A0E0DD
:1040D000B0E080879187A287B3876EE973E0CE0155
:1040E00001960E944F426EED74E0CE0101960E944F
:1040F000FF3960E375E0CE0101960E94FF396091BF
:104100004C0770914D0780914E0790914F070E9488
:1041100093526B017C01D8016D917D918D919C91A1
:104120000E9493529B01AC01C701B6010E948154C9
:10413000AB01BC01CE0101960E94A03960E475E09C
:10414000CE0101960E94FF3960915007709151078E
:1041500080915207909153070E9493526B017C010A
:10416000F80164817581868197810E9493529B0139
:10417000AC01C701B6010E948154AB01BC01CE0164
:1041800001960E94A03960E575E0CE0101960E947B
:10419000FF396091540770915507809156079091AF
:1041A00057070E9493526B017C01D80118966D91BC
:1041B0007D918D919C911B970E9493529B01AC0124
:1041C000C701B6010E948154AB01BC01CE0101962A
:1041D0000E94A039BE016F5F7F4F81010C511E4FBD
:1041E000C8010E940D3A89819A810E947B4D0AC0C4
:1041F000892BC9F468E773E081010C511E4FC80197
:104200000E94FF390E94B106BC01CE0101960E94B6
:104210007505BE016F5F7F4FC8010E940D3A89810D
:104220009A810E947B4DF101E251FE4F8081918184
:104230000196833091051CF49183808302C0118222
:104240001082F101E451FE4F1182108276CA823051
:10425000910571F66CE775E081010C511E4FC801A4
:104260000E94FF3960E375E0C8010E94FF398D8527
:104270009E850E94680FBC01C8010E94D03960E48D
:1042800075E0C8010E94FF39C2010E94680FBC019D
:10429000C8010E94D03960E575E0C8010E94FF396D
:1042A000C3010E94680FBC01C8010E94D039AACF87
:1042B0008EE895E00E94E5368F8198850E94273828
:1042C0008CE993E00E94E5360E94B1062F81388583
:1042D0003093470720934607C901E8960FB6F89434
:1042E000DEBF0FBECDBFDF91CF911F910F91FF9029
:1042F000EF90DF90CF90BF90AF909F908F907F9086
:104300006F905F904F903F902F900895CF92DF92E3
:10431000EF92FF920F931F93CF93DF937C016B017A
:104320008A01E9010E946117F601EE0FFF1FEE0FEF
:10433000FF1FE85AF84F80819181F70191838083B4
:104340000E946117000F111F000F111FF801E85A9A
:10435000F84F81E040815181628173814130510584
:104360006105710509F080E0F70182870E946117FD
:10437000CC0FDD1FCC0FDD1FC85AD84F8881998123
:10438000AA81BB81F70182839383A483B5831682BC
:10439000178210861186DF91CF911F910F91FF90A8
:1043A000EF90DF90CF900895EF92FF920F931F93BD
:1043B000CF93DF93EC010E94611700919C0810914C
:1043C0009D080E946117E090AC08F090AD080E9433
:1043D00061172091C4083091C508A701B801CE012A
:1043E00040960E947E0F0E9461170091A0081091D4
:1043F000A1080E946117E090B008F090B1080E94F7
:1044000061172091C8083091C908A701B801CE01F1
:1044100080579F4F0E947E0F0E9461170091A40851
:104420001091A5080E946117E090B408F090B508BB
:104430000E9461172091CC083091CD08A701B801E6
:10444000CE01805F9E4FDF91CF911F910F91FF9022
:10445000EF900C947E0FCF92DF92EF92FF920F932A
:104460001F93CF93DF93EC018AE190E09C8F8B8FB9
:104470008BE190E09E8F8D8F89E190E098A38F8FE4
:104480008FE090E09AA389A38EE190E09CA38BA398
:104490008EE090E09EA38DA385E490E098A78FA383
:1044A00084E490E09AA789A7FE01E057FF4F80E2DD
:1044B00090E09487838781E290E0968785878FE1FB
:1044C00090E0908B8787128A118A148A138A168A41
:1044D000158A83E490E0908F878B82E490E0928F3E
:1044E000818FE058FF4F83E290E09487838784E2D6
:1044F00090E09687858782E290E0908B8787128A8A
:10450000118A148A138A168A158A81E490E0908FA2
:10451000878B80E490E0928F818FEB51FF4F118267
:104520001082329611821082329611821082CE0150
:104530000E94A92FCE010E944940CE0180579E4F74
:1045400041E050E0FC01538F428FDE01A455BE4F85
:1045500024E030E05B963C932E935A976E01F8E38B
:10456000CF1AFEEFDF0A28E030E0F601338F228F0A
:1045700020E130E0FC013183208321E130E035830C
:1045800024832FEF3FEF3383228337832683628593
:1045900060876385618767E170E011967C936E9315
:1045A00068E170E015967C936E93149713963C9394
:1045B0002E93129717963C932E9316971A966C91FA
:1045C0001A9718966C9318971B966C911B971996CF
:1045D0006C9319976DE170E0F601718360836CE173
:1045E00070E07583648333832283378326836285F7
:1045F000608763856187BE0166537D4FFB016081E3
:1046000071818E0102541D4FF801008111817E01DC
:10461000F8E4EF1AFDEFFF0AF701E080F180FC01FA
:10462000F78AE68A158B048B6130710519F4318F96
:10463000208F03C0FC01518F408FCE0184539D4FCA
:10464000FC01808191819E0120543D4FF901208120
:104650003181AE0146545D4FFA0140815181579638
:104660005C934E93569755963C932E93549701978F
:1046700019F48FEF9FEF02C081E090E059969C9370
:104680008E935897DE01A253BD4F8D919C91119747
:104690001C972D913C91C454DD4F48815981F601FE
:1046A000578B468B358B248B019719F48FEF9FEF37
:1046B00003C081E090E0F601918F808FDF91CF9170
:1046C0001F910F91FF90EF90DF90CF9008952F9260
:1046D0003F924F925F926F927F928F929F92AF9292
:1046E000BF92CF92DF92EF92FF920F931F93CF93DF
:1046F000DF93CDB7DEB7C058D1090FB6F894DEBF4F
:104700000FBECDBF8C01FC01108211821282138278
:1047100014821582168217821086118612861386DD
:1047200014861586168617862C01F0E14F0E511C53
:10473000C2010E94AA3F380180E9680E711CC301C2
:104740000E94AA3F4801E0EF8E1AEEEF9E0AC401D4
:104750000E94AA3F5801F0E7AF1AFEEFBF0AC50159
:104760000E942E0A680184E5C81A8EEFD80AC60195
:104770000E942E0A7801E8E3EE1AEEEFFE0AC70166
:104780000E942E0A6EE973E0C8018C519E4F0E9470
:104790004F42F801E651FE4F11821082329611828B
:1047A00010823296118210823296118210823296D5
:1047B00010823196108231961082319611821082C9
:1047C00032961182108232961182108232961082B5
:1047D00031961082319610823196108211821282A7
:1047E00013823496108211821282138234961082C0
:1047F00011821282138234961082118212821382E5
:1048000034961082118212821382349610821182A1
:10481000128213823496108211821282138234968D
:1048200010821182128213823496108211821282B7
:10483000138234961082118212821382349610826F
:104840001182128213823496108211821282138294
:104850003496108211821282138234961082118251
:10486000128213823496108211821282138234963D
:104870001082319610823196108231961082118208
:10488000128213823496108211821282138234961D
:104890001082118212821382349610823196108215
:1048A00031961082319610823196108231961082A4
:1048B0003196108231961082319610823196108294
:1048C0003196108231961082319610823196108284
:1048D0003196108231961082319610823196108274
:1048E0003196108231961082319610823196108264
:1048F0003196108231961082319610821182128286
:10490000138234961082118212821382349610829E
:10491000118212821382D801A359BD4F8CE0E2E4C8
:10492000F3E001900D928A95E1F7F801E758FD4F09
:1049300010821182128213823496108211821282A6
:10494000138234961082118212821382349611825D
:104950001082329611821082329611821082329623
:104960001082118212821382349610821182128276
:10497000138234961082118212821382349610822E
:104980001182128213823496108211821282138253
:104990003496108211821282138234961182108210
:1049A00032961182108232961182108232961082D3
:1049B0001182128213823496108211821282138223
:1049C00034961082118212821382349610823196AC
:1049D00010823196108231961182108232961182A5
:1049E0001082329611821082329611821082329693
:1049F00011821082329611821082329611821082B8
:104A00003296118210823296118210823296118271
:104A10001082329611821082329611821082329662
:104A2000118210823296118210821801FCE22F1A34
:104A3000FDEF3F0AF1011082CE0101960E94AA3FCC
:104A400080E8FE013196D20101900D928A95E1F73E
:104A5000CE0101960E94AA3F80E8FE013196D30163
:104A600001900D928A95E1F7CE0101960E94AA3F2E
:104A700080E8FE013196D40101900D928A95E1F70C
:104A800088E5F801848BEC56FF4F89E58083E05878
:104A9000FF4F8AE58083CE0101960E942E0A8CE1A9
:104AA000FE013196D50101900D928A95E1F7CE0174
:104AB00001960E942E0A8CE1FE013196D6010190EA
:104AC0000D928A95E1F7CE0101960E942E0A8CE1A3
:104AD000FE013196D70101900D928A95E1F7C80148
:104AE000BADCF1011082C058DF4F0FB6F894DEBF78
:104AF0000FBECDBFDF91CF911F910F91FF90EF902F
:104B0000DF90CF90BF90AF909F908F907F906F90ED
:104B10005F904F903F902F9008950F931F93CF93E6
:104B2000DF938B01EA018AE593E00E94E53681E29A
:104B300095E00E94E536F80184810E942637CE0177
:104B40000E9427380E94B106DF91CF911F910F91EB
:104B50000C94BB05CF92DF92EF92FF920F931F93BD
:104B6000CF93DF93CDB7DEB728970FB6F894DEBFAB
:104B70000FBECDBF8B016A018C519E4F7C0166E553
:104B800073E00E94FF3961E275E0C7010E94FF39BE
:104B9000F801848189831A8241E050E08E010F5F21
:104BA0001F4FB801C7010E9473394AE0B801C6011E
:104BB0000E94404EF80101900020E9F73197AF01C3
:104BC000401B510BB801C7010E9473390E94B10606
:104BD000BC01C8010E947505B801C7010E940D3AC9
:104BE00089819A810E947B4D28960FB6F894DEBF8A
:104BF0000FBECDBFDF91CF911F910F91FF90EF902E
:104C0000DF90CF900895FC01DB01A759BF4F8C9135
:104C1000882319F022E030E002C020E030E0DB0120
:104C2000A559BF4F8C91882311F023E030E0DB01C0
:104C3000A659BF4F8C91882311F024E030E0DB01AE
:104C4000A459BF4F8C91882311F026E030E0DA019F
:104C50008D919C918217930721F091E01216130613
:104C60000CF090E0DA012D933C93992319F0A901FF
:104C7000CF0170CF08958F929F92AF92BF92CF9243
:104C8000DF92EF92FF920F931F93CF93DF93EC018C
:104C900082E593E00E94E53680E395E00E94E536E8
:104CA0006E0180E7C81A8EEFD80AC6010E940E0A6C
:104CB0000E9493524B015C01FE01E359FD4F60815C
:104CC0007181828193810E9493529B01AC01C50145
:104CD000B4010E94815442E00E94583780E495E07C
:104CE0000E94E5367E01E4E5EE1AEEEFFE0AC7010A
:104CF0000E940E0A0E9493524B015C01FE01EF5884
:104D0000FD4F60817181828193810E9493529B014A
:104D1000AC01C501B4010E94815442E00E945837A1
:104D200080E595E00E94E5368E0108531E4FC801CC
:104D30000E940E0A0E9493524B015C01CB58DD4F3A
:104D4000688179818A819B810E9493529B01AC0189
:104D5000C501B4010E94815442E00E9458370E946C
:104D6000B1060E94BB058EE493E00E94E53680E325
:104D700095E00E94E536F601A08DB18D208931893C
:104D8000428953890E94E5530E94313780E495E0BF
:104D90000E94E536F701A08DB18D208931894289C5
:104DA00053890E94E5530E94313780E595E00E94C7
:104DB000E536F801A08DB18D20893189428953896A
:104DC0000E94E5530E9431370E94B106DF91CF91D6
:104DD0001F910F91FF90EF90DF90CF90BF90AF9019
:104DE0009F908F900C94BB05CF93DF938091980B8D
:104DF0009091990B892B51F485ED92E00E94E64C3D
:104E0000EC0165DCD093990BC093980B8091980BC3
:104E10009091990BDF91CF910895CF93DF93EC019F
:104E20002AEC30E04BEC50E069EC70E06FDA2EECED
:104E300030E04FEC50E06DEC70E0CE010C9666DA9D
:104E400024ED30E045ED50E063ED70E0CE01489692
:104E50005DDA28ED30E049ED50E067ED70E0CE011D
:104E6000849654DA2EED30E04FED50E06DED70E0B9
:104E7000CE01C096DF91CF9149CACF93DF93809145
:104E8000960B9091970B892BE9F48CE390E00E94AC
:104E9000E64CEC01FC01CC96118210823C96E8179E
:104EA000F907D1F7198218821D861C86198E188E73
:104EB0001DA21CA219AA18AACE01AFDFD093970B8E
:104EC000C093960B8091960B9091970BDF91CF91A9
:104ED0000895EF92FF920F931F93CF93DF93162FB6
:104EE000072F7A014115510551F4862F6FD331E018
:104EF00020E0019709F030E0C32FD22F26C04130C7
:104F0000510509F5262F663310F02AEC260F809103
:104F10007B00922F9870877F892B80937B0027706E
:104F2000206420937C0080917A00806480937A00D2
:104F300080917A0086FDFCCFC09178008091790045
:104F4000D0E0D82B02C0C0E0D0E082E0E816F10447
:104F500010F580E596E00E94E53681E295E00E943A
:104F6000E53687E595E00E94E536812F902F0E9477
:104F7000273881E295E00E94E53689E595E00E94B8
:104F8000E536CE010E9427380E94B1060E94BB057B
:104F900080E090E002C081E090E0DF91CF911F912E
:104FA0000F91FF90EF9008950F931F93CF93DF938E
:104FB000FC012081318121153105C9F1EC01822FDD
:104FC00005D321E0892B09F420E02B876A85261779
:104FD00029F01E821F82188619860BC08E819F8140
:104FE000A885B9850196A11DB11D8E839F83A887D1
:104FF000B9870E811F81288539858A819B81AC8183
:10500000BD81081719072A073B078CF081E0682744
:10501000888104D30990D881C02D0E94FA1540E000
:1050200050E0BE01DF91CF911F910F9152CFDF91E0
:10503000CF911F910F9108950F931F93CF93DF93FB
:105040008B01EA01AB01415051094433510508F08D
:10505000D2C02230310508F0CEC048E3429FF001B3
:10506000439FF00D1124E60FF71FE80FF91F81E0B1
:105070008083232B11F46C2F06C061E0802FC2D3F4
:10508000209731F460E0802FC9D280E090E0B5C075
:10509000CF3FD10509F4ADC0F801EF5DFB4FE491BE
:1050A0008E2F90E0FC013197E231F10508F09DC0B0
:1050B0008827EE5AFE4F8F4F0C94315584B5806887
:1050C00084BDC7BDE2CF84B5806284BDC8BDDDCFDD
:1050D00080918000806880938000D0938900C09385
:1050E0008800D3CF80918000806280938000D0932D
:1050F0008B00C0938A00C9CF809180008860809324
:105100008000D0938D00C0938C00BFCF8091B00001
:1051100080688093B000C093B300B7CF8091B00097
:1051200080628093B000C093B400AFCF80919000B4
:10513000806880939000D0939900C0939800A5CF89
:1051400080919000806280939000D0939B00C093E8
:105150009A009BCF80919000886080939000D093BC
:105160009D00C0939C0091CF8091A00080688093A7
:10517000A0008091A0008F7B8093A000D093A90015
:10518000C093A80082CF8091A00080628093A0008D
:10519000D093AB00C093AA0078CF8091A000886024
:1051A0008093A000D093AD00C093AC006ECF8091EF
:1051B0002001806880932001D0932901C0932801A9
:1051C00064CF80912001806280932001D0932B01D5
:1051D000C0932A015ACF80912001886080932001DA
:1051E000D0932D01C0932C0150CFC038D1050CF4C1
:1051F00049CF61E048CF81E090E0DF91CF911F91EE
:105200000F910895089580E090E00895FC01538D7A
:10521000448D252F30E0842F90E0821B930B541790
:1052200010F0CF96089501970895FC01918D828D1D
:10523000981761F0828DDF01A80FB11D5D968C91EA
:10524000928D9F5F9F73928F90E008958FEF9FEFF5
:105250000895FC01918D828D981731F0828DE80FB1
:10526000F11D858D90E008958FEF9FEF0895FC016B
:10527000918D228D892F90E0805C9F4F821B910938
:105280008F739927089587EB9BE0F1DF21E0892B4D
:1052900009F420E0822F0895FC01848DDF01A80F1E
:1052A000B11DA35ABF4F2C91848D90E001968F734E
:1052B0009927848FA689B7892C93A089B1898C916D
:1052C00080648C93938D848D981306C00288F38933
:1052D000E02D80818F7D80830895EF92FF920F9360
:1052E0001F93CF93DF93EC0181E0888F9B8D8C8D92
:1052F000981305C0E889F989808185FD23C0F62EC1
:105300000B8D10E00F5F1F4F0F731127E02E8C8D58
:10531000E8120BC00FB607FCFACFE889F989808143
:1053200085FFF5CFCE01B8DFF2CF8B8DFE01E80F00
:10533000F11DE35AFF4FF0820B8FEA89FB898081D0
:10534000806207C0EE89FF896083E889F9898081DE
:105350008064808381E090E0DF91CF911F910F9175
:10536000FF90EF900895CF93DF93EC01888D882311
:10537000C1F0EA89FB89808185FD05C0A889B989CA
:105380008C9186FD0EC00FB607FCF5CF808185FF9E
:10539000F2CFA889B9898C9185FFEDCFCE017CDF52
:1053A000E8CFDF91CF91089580E090E0892B19F04C
:1053B0006ADF811125C080E090E0892B41F080E018
:1053C00090E0892B21F00E94000081111CC080E038
:1053D00090E0892B41F080E090E0892B21F00E9441
:1053E0000000811113C080E090E0892BA1F080E0E3
:1053F00090E0892B81F00E94000081110AC008957D
:105400000E940000D8CF0E940000E1CF0E9400005F
:10541000EACF0C940000089590E0FC013197E2314E
:10542000F10508F04EC08827EC59FE4F8F4F0C94C1
:105430003155809180008F7703C0809180008F7DEF
:1054400080938000089580918000877FF9CF84B594
:105450008F7702C084B58F7D84BD08958091B000A0
:105460008F7703C08091B0008F7D8093B000089546
:10547000809190008F7707C0809190008F7D03C04E
:1054800080919000877F8093900008958091A00084
:105490008F7707C08091A0008F7D03C08091A0000E
:1054A000877F8093A0000895809120018F7707C0A7
:1054B000809120018F7D03C080912001877F8093A0
:1054C000200108953FB7F8948091A40B9091A50B0B
:1054D000A091A60BB091A70B26B5A89B05C02F3FA6
:1054E00019F00196A11DB11D3FBFBA2FA92F982F0A
:1054F0008827820F911DA11DB11DBC01CD0142E085
:10550000660F771F881F991F4A95D1F708951F923C
:105510000F920FB60F9211240BB60F922F933F9359
:105520004F935F936F937F938F939F93AF93BF93AB
:10553000EF93FF9387EB9BE0AFDEFF91EF91BF917D
:10554000AF919F918F917F916F915F914F913F911B
:105550002F910F900BBE0F900FBE0F901F901895BC
:105560001F920F920FB60F9211240BB60F922F932A
:105570008F939F93EF93FF93E091C70BF091C80B2C
:105580008081E091CD0BF091CE0B82FD12C0908115
:105590008091D00B8F5F8F732091D10B821751F0C8
:1055A000E091D00BF0E0E954F44F958F8093D00B4D
:1055B00001C08081FF91EF919F918F912F910F906A
:1055C0000BBE0F900FBE0F901F901895CF93DF93D7
:1055D000282F30E0F901EF5DFB4F8491F901E55090
:1055E000FB4FD491F901EB54FB4FC491CC2389F0CC
:1055F000811112DFEC2FF0E0EE0FFF1FE556FB4F9D
:10560000A591B491EC91ED2381E090E021F480E04C
:1056100002C080E090E0DF91CF9108951F93CF9377
:10562000DF93282F30E0F901EF5DFB4F8491F90102
:10563000E550FB4FD491F901EB54FB4FC491CC23BF
:10564000C1F0162F8111E8DEEC2FF0E0EE0FFF1F06
:10565000EF57FB4FA591B4918FB7F894111105C086
:105660009C91ED2FE095E92302C0EC91ED2BEC939A
:105670008FBFDF91CF911F910895CF92DF92EF926C
:10568000FF920F931F93CF93DF936C018B017A01ED
:10569000EC01C556D44F888187FF04C0FB011182FD
:1056A000108224C08CE08C9D90018D9D300D1124C2
:1056B0008881A901480F511D87FD5A958091C80E18
:1056C00090E04817590794F48881A901480F511DAB
:1056D00087FD5A95CA01FA01EE0FFF1F8E0F9F1F1B
:1056E000FC01E85CF14F808186FD19C088818F5FE5
:1056F00088838CE08C9D90018D9D300D11248881D4
:10570000A901480F511D87FD5A958091C80E90E060
:1057100048175907B4F488818C303CF112C0888155
:10572000280F311D87FD3A95F901EE0FFF1F2E0F4F
:105730003F1FF901E85CF14F808160E08F736EDFFD
:10574000D5CFF80180819181049680349C4918F46A
:1057500080E49CE904C0F801808191810496F701FE
:10576000918380838FEF888344C0F8014081518109
:105770008881B901680F711D87FD7A95CB01FB0106
:10578000EE0FFF1F8E0F9F1FFC01E85CF14F818120
:105790009281840F951FF701918380838881A901ED
:1057A000480F511D87FD5A95CA01FA01EE0FFF1FE0
:1057B0008E0F9F1FFC01E85CF14F808186FF19C0AE
:1057C0008881280F311D87FD3A95F901EE0FFF1FE3
:1057D0002E0F3F1FF901E85CF14F808161E08F736C
:1057E000DF91CF911F910F91FF90EF90DF90CF90BD
:1057F00015CFDF91CF911F910F91FF90EF90DF9028
:10580000CF900895CF93DF9390E0FC01E550FB4FDC
:105810002491FC01EB54FB4F8491882361F190E0CB
:10582000880F991FFC01E959FB4FC591D491FC01E8
:10583000EF57FB4FA591B491611109C09FB7F89440
:105840008881209582238883EC912E230BC06230BF
:1058500061F49FB7F8943881822F809583238883E1
:10586000EC912E2B2C939FBF06C08FB7F894E88144
:105870002E2B28838FBFDF91CF9108958230910521
:1058800038F0880F991F880F991F05970197F1F736
:1058900008958F929F92AF92BF92CF92DF92EF9234
:1058A000FF926B017C010EDE4B015C01C114D1043F
:1058B000E104F104E9F006DEDC01CB018819990965
:1058C000AA09BB09883E9340A105B10578F321E000
:1058D000C21AD108E108F10888EE880E83E0981E0C
:1058E000A11CB11CC114D104E104F10421F7DECFE5
:1058F000FF90EF90DF90CF90BF90AF909F908F90F0
:1059000008952FB7F8946091A00B7091A10B80912E
:10591000A20B9091A30B2FBF08951F920F920FB669
:105920000F9211242F933F938F939F93AF93BF9325
:105930008091A00B9091A10BA091A20BB091A30B11
:1059400030919F0B23E0230F2D3720F40196A11DEA
:10595000B11D05C026E8230F0296A11DB11D20939D
:105960009F0B8093A00B9093A10BA093A20BB093DD
:10597000A30B8091A40B9091A50BA091A60BB091C5
:10598000A70B0196A11DB11D8093A40B9093A50BAD
:10599000A093A60BB093A70BBF91AF919F918F914E
:1059A0003F912F910F900FBE0F901F901895CF929F
:1059B000DF92EF92FF92CF93DF93EC01603282E0AF
:1059C00078070CF03DC077FD06C0653B71052CF0F3
:1059D00064EB70E002C060E070E0898128E830E0AC
:1059E0006901C81AD10887FDD394CC0CDD1CCC0CFE
:1059F000DD1C0D2C000CEE08FF088A8128E532E042
:105A0000281B310987FD3395220F331F220F331FC7
:105A1000C901330FAA0BBB0B9C01AD012C193D0929
:105A20004E095F09DB010E94E55324EB30E040E0C2
:105A300050E00E94BF53C20ED31EE41EF51EB601F5
:105A40008881803380F5998148E850E0491B5109ED
:105A500097FD5395440F551F440F551F6417750745
:105A600084F09A8128E532E0291B310997FD3395AE
:105A7000220F331F220F331FAB01261737070CF4F9
:105A8000A90142505109440F551F2FB7F89490E0D7
:105A9000FC01EE0FFF1F8E0F9F1FFC01E85CF14F12
:105AA000528341832FBFDF91CF91FF90EF90DF9022
:105AB000CF9008951F920F920FB60F9211240BB63C
:105AC0000F922F933F934F935F936F937F938F9397
:105AD0009F93AF93BF93EF93FF9348E251E064E24B
