:100000009EC10000CDC10000CBC10000C9C10000ED
:10001000C7C10000C5C10000C3C10000C1C10000CC
:10002000BFC10000BDC10000BBC10000B9C10000DC
:10003000B7C10000B5C10000B3C10000B1C10000EC
:10004000AFC100000C948D40ABC10000A9C10000FD
:100050000C94BB40A5C10000A3C100000C94B93FA3
:100060009FC100000C94833F0C94593F99C100003C
:1000700097C1000095C1000093C1000091C100002C
:100080000C945F408DC100008BC1000089C100004D
:1000900087C1000085C1000083C1000081C100004C
:1000A0007FC100007DC100000C94314079C1000087
:1000B00077C1000075C1000073C100000C940340BB
:1000C0006FC100006DC100006BC1000069C100007C
:1000D00067C1000065C1000063C1000061C100008C
:1000E0005FC100004E414E494E495459494E46CDDC
:1000F000CCCC3D0AD7233C17B7D13877CC2B3295DF
:1001000095E6241FB14F0A000020410000C84200BC
:10011000401C4620BCBE4CCA1B0E5AAEC59D740086
:10012000407A10F35A00A0724E18090010A5D4E8C6
:100130000000E87648170000E40B54020000CA9A59
:100140003B000000E1F505000080969800000040AB
:10015000420F000000A086010000001027000000F0
:1001600000E803000000006400000000000A000036
:100170000000000100000000002C76D888DC674FEA
:100180000823DFC1DFAE59E1B1B796E5E3E453C61A
:100190003AE651997696E8E6C28426EB898C9B6212
:1001A000ED407C6FFCEFBC9C9F40F2BAA56FA5F4BC
:1001B00090055A2AF75C936B6CF9676DC11BFCE0E4
:1001C000E40D47FEF520E6B500D0ED902E03009437
:1001D0003577050080841E080000204E0A000000CC
:1001E000C80C333333330F986E12831141EF8D21D6
:1001F00014893BE65516CFFEE6DB18D1844B381B3D
:10020000F77C1D901DA4BBE424203284725E228101
:1002100000C9F124ECA1E53D2700002200250028BB
:10022000002B002E003100340002010000050108FF
:10023000010B01000020002300260029002C002FC4
:100240000032000001000003010601090100000A5C
:100250000B02090C0D0E080703040100000000004A
:10026000000000000000000000000000000000008E
:10027000000000000000000000121110000000004B
:10028000000000000000000000000000000000006E
:1002900000000000002100240027002A002D00306B
:1002A00000330001010000040107010A01010210EE
:1002B0002020080810204010204080020102010880
:1002C0000402010102040810204080804020100830
:1002D0000402018004020180402010080402010889
:1002E00004020101020408102040800102040810E9
:1002F00020408005050505070508080808020202D8
:10030000020A0A08080404040401010101010101B0
:10031000010303030303030303040707070C0C0C87
:100320000C0C0C0C0C02020202060606060606065F
:10033000060B0B0B0B0B0B0B0B000541504E112446
:100340001FBECFEFD1E2DEBFCDBF00E00CBF18E093
:10035000A0E0B2E0EEE4F2EB00E00BBF02C00790D9
:100360000D92A831B107D9F724E1A8E1B8E001C0A6
:100370001D92AB31B207E1F711E0CEE9D1E000E028
:1003800006C021970109802FFE010E941658CD3921
:10039000D10780E00807A9F70E94F6420C9416598D
:1003A0002FCE9C01803E910508F021C5FC018827D5
:1003B000E352FE4F8F4F0C941658BD02CA02D3026F
:1003C000DC02E902F202F706F706F706F706F7067F
:1003D000FF020C031903F70626032F033803450316
:1003E0004E035703600369037203F7067B0384031C
:1003F0008D03F706F706F70696039F03A803F70693
:10040000F706B103BE03F706F706F706CB03D803DA
:10041000E503F706F203FB030404F706F706F70605
:100420000D0416041F04F7062C0439044604F706CD
:10043000F706F706530460046D04F7067A04870490
:100440009404F706F706F706A104AE04BB04F7060A
:10045000C804D104DA04F706F706F706FE040B0514
:100460001805F706250532053F05F706F706F706D6
:100470004C0555055E05F706F706F706F706F7067D
:10048000F706F706670570057905F70682058B05FF
:100490009405F706F706F7069D05AA05B705F706C2
:1004A000C405D105DE05F706F706F706EB05F805E6
:1004B0000506F70612061B062406F706F706F706DA
:1004C0002D0636063F06F706F706F706F706F70687
:1004D000F706F706F706F706F706F706E304EC0457
:1004E000F504F706F706F706F706F706F706F70628
:1004F000F706F706F706F706F706F706F706F70614
:10050000F706F706F706F706F706F706F706F70603
:10051000F706F706F706F706F706F706F706F706F3
:10052000F706F706F706F706F706F706F706F706E3
:10053000F706F706F706F706F706F706F706F706D3
:10054000F706F706F706F706F706F7064806510618
:100550005E06F7066B0674068106F706F706F706D1
:100560008E069706A406F706B106BA06C706F70672
:10057000F706F706D406DD06EA0681E090E0A0E083
:10058000B0E08093530990935409A0935509B09318
:100590005609089510925709109258091092590956
:1005A00010925A09089510925B0910925C091092FA
:1005B0005D0910925E09089581E090E0A0E0B0E04E
:1005C00080935F0990936009A0936109B0936209D9
:1005D00008951092630910926409109265091092AF
:1005E0006609089583E090E0A0E0B0E08093670999
:1005F00090936809A0936909B0936A09089588E700
:1006000090E0A0E0B0E080937F0990938009A093F0
:100610008109B0938209089588E790E0A0E0B0E0F6
:100620008093830990938409A0938509B0938609E8
:10063000089588E790E0A0E0B0E080938709909368
:100640008809A0938909B0938A09089510928F09A7
:1006500010929009109291091092920908951092A7
:100660009309109294091092950910929609089591
:1006700081E090E0A0E0B0E0809397099093980922
:10068000A0939909B0939A09089510929B0910922A
:100690009C0910929D0910929E09089510929F093D
:1006A0001092A0091092A1091092A2090895109227
:1006B000A3091092A4091092A5091092A609089501
:1006C0001092A7091092A8091092A9091092AA09DC
:1006D00008951092AB091092AC091092AD091092D6
:1006E000AE0908951092AF091092B0091092B109A5
:1006F0001092B20908951092B7091092B809109299
:10070000B9091092BA0908951092BB091092BC0958
:100710001092BD091092BE0908951092BF0910925F
:10072000C0091092C1091092C20908951092CF0910
:100730001092D0091092D1091092D2090895109206
:10074000D3091092D4091092D5091092D6090895B0
:100750001092D7091092D8091092D9091092DA098B
:10076000089581E090E0A0E0B0E08093E3099093E9
:10077000E409A093E509B093E609089581E090E0CB
:10078000A0E0B0E08093E7099093E809A093E9091D
:10079000B093EA0908958CE291E0A0E0B0E0809384
:1007A000F7099093F809A093F909B093FA0908950D
:1007B0008CE291E0A0E0B0E08093FB099093FC090B
:1007C000A093FD09B093FE0908958CE291E0A0E0AA
:1007D000B0E08093FF099093000AA093010AB093C0
:1007E000020A08951092070A1092080A1092090A44
:1007F00010920A0A089510920B0A10920C0A109295
:100800000D0A10920E0A089510920F0A1092100A03
:100810001092110A1092120A089510921F0A109253
:10082000200A1092210A1092220A08951092230A97
:100830001092240A1092250A1092260A089581E047
:1008400090E0A0E0B0E08093270A9093280AA0935C
:10085000290AB0932A0A089585E090E0A0E0B0E06C
:1008600080932F0A9093300AA093310AB093320AF2
:10087000089585E090E0A0E0B0E08093330A909383
:10088000340AA093350AB093360A089589E190E0BE
:10089000A0E0B0E08093370A9093380AA093390A19
:1008A000B0933A0A089582E390E0A0E0B0E080932C
:1008B000470A9093480AA093490AB0934A0A0895B8
:1008C00082E390E0A0E0B0E080934B0A90934C0A62
:1008D000A0934D0AB0934E0A089582E390E0A0E001
:1008E000B0E080934F0A9093500AA093510AB093BE
:1008F000520A089582E390E0A0E0B0E08093570AA6
:100900009093580AA093590AB0935A0A089582E323
:1009100090E0A0E0B0E080935B0A90935C0AA09323
:100920005D0AB0935E0A089582E390E0A0E0B0E033
:1009300080935F0A9093600AA093610AB093620A61
:10094000089580E991E0A0E0B0E080936F0A909371
:10095000700AA093710AB093720A089580E991E039
:10096000A0E0B0E08093730A9093740AA093750A94
:10097000B093760A089580E991E0A0E0B0E080931A
:10098000770A9093780AA093790AB0937A0A089527
:1009900010927F0A1092800A1092810A1092820AA5
:1009A00008951092830A1092840A1092850A109278
:1009B000860A08951092870A1092880A1092890A6E
:1009C00010928A0A08951092970B1092980B109229
:1009D000990B10929A0B089510929B0B10929C0BFE
:1009E00010929D0B10929E0B089510929F0B1092E7
:1009F000A00B1092A10B1092A20B089588E592E033
:100A0000A0E0B0E08093970A9093980AA093990A87
:100A1000B0939A0A089588E592E0A0E0B0E0809350
:100A20009B0A90939C0AA0939D0AB0939E0A0895F6
:100A300088E592E0A0E0B0E080939F0A9093A00A3E
:100A4000A093A10AB093A20A08958EE190E0A0E0DD
:100A5000B0E08093A70A9093A80AA093A90AB09344
:100A6000AA0A08958EE190E0A0E0B0E08093AB0A7E
:100A70009093AC0AA093AD0AB093AE0A08958EE1AC
:100A800090E0A0E0B0E08093AF0A9093B00AA0930A
:100A9000B10AB093B20A08951092BF0A1092C00A28
:100AA0001092C10A1092C20A08951092C30A1092BD
:100AB000C40A1092C50A1092C60A08951092C70A75
:100AC0001092C80A1092C90A1092CA0A0895109288
:100AD000E70A1092E80A1092E90A1092EA0A0895C9
:100AE0001092EB0A1092EC0A1092ED0A1092EE0AA4
:100AF00008951092EF0A1092F00A1092F10A1092E3
:100B0000F20A08951092F70A1092F80A1092F90A60
:100B10001092FA0A08951092FB0A1092FC0A1092A1
:100B2000FD0A1092FE0A08951092FF0A1092000B1F
:100B30001092010B1092020B089585E090E0A0E066
:100B4000B0E080930F0B9093100BA093110BB09318
:100B5000120B089585E090E0A0E0B0E08093130BC5
:100B60009093140BA093150BB093160B089585E08A
:100B700090E0A0E0B0E08093170B9093180BA09347
:100B8000190BB0931A0B089584EB95E1A0E0B0E047
:100B900080931F0B9093200BA093210BB093220BFB
:100BA000089584EB95E1A0E0B0E08093230B90934F
:100BB000240BA093250BB093260B089584EB95E1AD
:100BC000A0E0B0E08093270B9093280BA093290B13
:100BD000B0932A0B089585E090E0A0E0B0E0809308
:100BE000370B9093380BA093390BB0933A0B0895C1
:100BF00085E090E0A0E0B0E080933B0B90933C0B4D
:100C0000A0933D0BB0933E0B089585E090E0A0E0EB
:100C1000B0E080933F0B9093400BA093410BB093B7
:100C2000420B08951092470B1092480B1092490BFB
:100C300010924A0B089510924B0B10924C0B10928D
:100C40004D0B10924E0B089510924F0B1092500BBB
:100C50001092510B1092520B089510925F0B10924C
:100C6000600B1092610B1092620B08951092630B4F
:100C70001092640B1092650B1092660B08951092FF
:100C8000670B1092680B1092690B10926A0B089513
:100C90001092770C1092780C1092790C10927A0CBA
:100CA00008958CE390E0A0E0B0E080937B0C9093FB
:100CB0007C0CA0937D0CB0937E0C089581E090E0B5
:100CC000A0E0B0E080937F0C9093800CA093810C07
:100CD000B093820C08951092870C1092880C109299
:100CE000890C10928A0C08958CE390E0A0E0B0E0AB
:100CF00080938B0C90938C0CA0938D0CB0938E0CE6
:100D0000089581E090E0A0E0B0E080938F0C909394
:100D1000900CA093910CB093920C089510929F0C9C
:100D20001092A00C1092A10C1092A20C08958CE3CA
:100D300090E0A0E0B0E08093A30C9093A40CA0936B
:100D4000A50CB093A60C089581E090E0A0E0B0E07F
:100D50008093A70C9093A80CA093A90CB093AA0C15
:100D600008951092AF0C1092B00C1092B10C10922A
:100D7000B20C08958CE390E0A0E0B0E08093B30C57
:100D80009093B40CA093B50CB093B60C089581E089
:100D900090E0A0E0B0E08093B70C9093B80CA093E3
:100DA000B90CB093BA0C08951092C70C1092C80CED
:100DB0001092C90C1092CA0C08958CE390E0A0E048
:100DC000B0E08093CB0C9093CC0CA093CD0CB0935F
:100DD000CE0C089581E090E0A0E0B0E08093CF0CCD
:100DE0009093D00CA093D10CB093D20C0895220F05
:100DF000331F220F331FF901ED5AF64F1082118273
:100E0000128213820895883591050CF04BC0853508
:100E10009105CCF4803391054CF58D3291059CF40D
:100E20008C319105BCF4893191056CF48E309105BB
:100E300064F48B3091053CF4009729F097FD08C0CD
:100E40000297049728F481E008950F970997D8F343
:100E500080E00895863291053CF4843291059CF738
:100E60004F970397A8F7EFCF8997FBCF843491056D
:100E70006CF4813491053CF78A3391052CF4873367
:100E800091050CF7C397EDCFCD97EBCF8E3491053D
:100E900034F48B349105BCF687549109E2CF815527
:100EA0009109DFCF863891051CF5833891055CF6F2
:100EB0008237910584F48F3691052CF6883691059A
:100EC0003CF4853691050CF0BECF8B559109C9CF06
:100ED00089569109C6CF8C3791053CF48937910525
:100EE0000CF0B1CF83579109BCCF8D579109B9CF81
:100EF000803D91058CF48D3C91050CF0A4CF843994
:100F000091053CF4813991050CF09DCF8D589109E4
:100F1000A8CF895C9109A5CF8A3D91053CF4873D16
:100F200091050CF090CF835D91099BCF8D5D910968
:100F300098CFAF92BF92CF92DF92EF92FF920F9332
:100F40001F93CF93DF936C017B018B01040F151F5F
:100F5000EB015E01AE18BF08C017D10759F06991C7
:100F6000D601ED91FC910190F081E02DC60119951B
:100F7000892B79F7C501DF91CF911F910F91FF90D8
:100F8000EF90DF90CF90BF90AF900895FC01538D0C
:100F9000448D252F30E0842F90E0821B930B541753
:100FA00010F0CF96089501970895FC01918D828DE0
:100FB000981761F0A28DAE0FBF2FB11D5D968C9179
:100FC000928D9F5F9F73928F90E008958FEF9FEFB8
:100FD0000895FC01918D828D981731F0828DE80F74
:100FE000F11D858D90E008958FEF9FEF0895FC012E
:100FF000918D228D892F90E0805C9F4F821B9109FB
:101000008F739927089587ED9CE0F1DF21E0892B0C
:1010100009F420E0822F0895FC01A48DA80FB92FB8
:10102000B11DA35ABF4F2C91848D90E001968F7310
:101030009927848FA689B7892C93A089B1898C912F
:10104000837080648C93938D848D981306C002887E
:10105000F389E02D80818F7D80830895EF92FF9248
:101060000F931F93CF93DF93EC0181E0888F9B8DCB
:101070008C8D98131AC0E889F989808185FF15C085
:101080009FB7F894EE89FF896083E889F9898081A8
:101090008370806480839FBF81E090E0DF91CF9177
:1010A0001F910F91FF90EF900895F62E0B8D10E099
:1010B0000F5F1F4F0F731127E02E8C8D8E110BC009
:1010C0000FB607FCFACFE889F989808185FFF5CF53
:1010D000CE01A2DFF2CFEB8DEC0FFD2FF11DE35A15
:1010E000FF4FF0829FB7F8940B8FEA89FB898081CC
:1010F0008062D0CF682F87ED9CE0B0CFCF93DF9395
:10110000EC01888D8823B1F0AA89BB89E889F98927
:101110008C9185FD03C0808186FD0CC00FB607FC55
:10112000F7CF8C9185FFF2CF808185FFEDCFCE0187
:1011300073DFEACFDF91CF91089580E090E0892BB3
:1011400021F061DF81110E94000080E090E0892B96
:1011500049F080E090E0892B29F00E940000811185
:101160000E94000080E090E0892B49F080E090E050
:10117000892B29F00E94000081110E94000080E06C
:1011800090E0892B49F080E090E0892B29F00E94C3
:10119000000081110C94000008958150823108F004
:1011A0005AC0E82FF0E08827E752F74F8F4F0C9492
:1011B0001658F908FD08EB08F108F5082B09000995
:1011C00006090A091009140918091E0922092B0920
:1011D00026092C093009809180008F778093800048
:1011E0000895809180008F7DF9CF80918000877F66
:1011F000F5CF84B58F7784BD089584B58F7DFBCFFF
:101200008091B0008F778093B00008958091B000F6
:101210008F7DF9CF809190008F7780939000089513
:10122000809190008F7DF9CF80919000877FF5CFDE
:101230008091A0008F778093A00008958091A000F6
:101240008F7DF9CF8091A000877FF5CF809120011D
:101250008F77809320010895809120018F7DF9CFB1
:1012600080912001877FF5CFCF93DF93282F30E047
:10127000F901E35BFD4F8491F901E355FD4FD491F2
:10128000F901ED50FD4FC491CC2399F0811185DF18
:10129000EC2FF0E0EE0FFF1FED5CFD4FA591B49138
:1012A000EC91ED2381E090E009F480E0DF91CF91B3
:1012B000089580E090E0FACF1F93CF93DF93282F1B
:1012C00030E0F901E35BFD4F8491F901E355FD4FF7
:1012D000D491F901ED50FD4FC491CC23A1F0162F0C
:1012E00081115BDFEC2FF0E0EE0FFF1FE75EFD4F9B
:1012F000A591B4918FB7F894EC91111108C0D095D5
:10130000DE23DC938FBFDF91CF911F910895DE2BF9
:10131000F8CFCF93DF9390E0FC01E355FD4F24918C
:101320008D509D4FFC0184918823C9F090E0880F77
:10133000991FFC01ED56FD4FA591B491FC01E75EAC
:10134000FD4FC591D49161110DC09FB7F8948C9158
:10135000209582238C938881282328839FBFDF9147
:10136000CF910895623051F49FB7F8943C91822F49
:10137000809583238C93E8812E2BEFCF8FB7F89441
:10138000EC912E2B2C938FBFEACFCF938CB58C6032
:101390008CBD8CB58F7D8CBD8CB58C7F8CBD8DB597
:1013A0008E7F8DBDCFB7F89480914809811123C0FD
:1013B000E8E2F3E08491E2EEF2E09491E82FF0E0CD
:1013C000EE0FFF1FED56FD4FA591B491EC91E9236F
:1013D00019F461E085E370DF61E085E39ADF8CB5A5
:1013E00080618CBD8CB580648CBD61E084E391DF4D
:1013F00061E083E38EDF809148098F5F8093480925
:10140000CFBFCF9108958230910538F0880F991F92
:10141000880F991F05970197F1F708953FB7F89442
:1014200080912E0890912F08A0913008B09131083A
:1014300026B5A89B05C02F3F19F00196A11DB11D2F
:101440003FBFBA2FA92F982F8827BC01CD01620F6B
:10145000711D811D911D42E0660F771F881F991F26
:101460004A95D1F708958F929F92AF92BF92CF92F3
:10147000DF92EF92FF926B017C01D0DF4B015C01A8
:10148000C114D104E104F104B1F0C8DF681979098D
:101490008A099B09683E73408105910588F321E024
:1014A000C21AD108E108F10888EE880E83E0981E80
:1014B000A11CB11CE5CFFF90EF90DF90CF90BF90C3
:1014C000AF909F908F9008952FB7F89460912A085D
:1014D00070912B0880912C0890912D082FBF0895B2
:1014E000CF92DF92EF92FF92CF93DF93EC016032C5
:1014F00082E07807CCF5653B710514F064EB70E091
:10150000898128E830E0281B310987FD3395220FB7
:10151000331F220F331F6901330FEE08FF088A8142
:1015200028E532E0281B310987FD3395220F331F50
:10153000220F331F032E000C440B550B2C193D09B1
:101540004E095F09DB0177FF02C0B0E0A0E00E9416
:10155000BE5624EB30E040E050E00E949856C20EA8
:10156000D31EE41EF51EB601E881E03370F5298133
:1015700088E890E0821B910927FD9395880F991FB9
:10158000880F991F681779077CF02A8188E592E017
:10159000821B910927FD9395880F991F880F991F2A
:1015A000681779070CF4CB010297880F991F4FB782
:1015B000F8942E2F30E0F901EE0FFF1FE20FF31F1A
:1015C000EA58F24F928381834FBFDF91CF91FF9012
:1015D000EF90DF90CF9008951F93CF93DF93EC01AE
:1015E000162F8881803308F04DC061E0812F91DE95
:1015F0008881282F30E0F901EE0FFF1FE20FF31F63
:10160000EA58F24F1F736081607C612B60831982FE
:101610001A822CE0622F0E940A58829FB001112486
:1016200030E020E0AB01420F531FFA01EE0FFF1F25
:10163000E40FF51FEA58F24F908196FD16C02F5F18
:101640003F4F2C30310571F7813009F51092800041
:1016500082E0809381001092850010928400B19AFC
:1016600080916F00826080936F00E8818E2F90E000
:10167000FC01EE0FFF1FE80FF91FEA58F24F8081BF
:10168000806480838881DF91CF911F91089582309B
:1016900061F4109290008093910010929500109246
:1016A000940088BB80937100E0CF833069F410927E
:1016B000A00082E08093A1001092A5001092A400E7
:1016C00089BB80937200D1CF8111CFCF10922001BE
:1016D00082E08093210110922501109224018ABB9F
:1016E00080937300C2CFAF92BF92CF92DF92EF92FE
:1016F000FF920F931F93CF93DF936B017A01EC015D
:10170000CB5DD74F28813CE0389F8001399F100D79
:101710001124A090060EB12C27FF1FC0FB011182DF
:10172000108288818F5F888388819801280F311DFE
:1017300087FD3A95F6012A153B051CF488818C300B
:10174000BCF180819181049680349C4908F471C079
:10175000F6018081918104966EC088819801280FDE
:10176000311D87FD3A952A153B05DCF68881A801D5
:10177000480F511D87FD5A95FA01EE0FFF1FE40F28
:10178000F51FEA58F24F808186FFCBCF8881F801A0
:10179000E80FF11D87FDFA95CF01EE0FFF1FE80F4F
:1017A000F91FEA58F24F808160E08F7385DDB9CF71
:1017B000808191812881A801420F511D27FD5A95F2
:1017C0009A01FA01EE0FFF1FE20FF31FEA58F24FE2
:1017D00021813281820F931FF70191838083888159
:1017E0009801280F311D87FD3A95F901EE0FFF1F73
:1017F000E20FF31FEA58F24F808186FF21C08881F3
:10180000080F111D87FD1A95F801EE0FFF1FE00F5D
:10181000F11FEA58F24F808161E08F73DF91CF9121
:101820001F910F91FF90EF90DF90CF90BF90AF90FE
:1018300043CD80E49CE9F701918380838FEF888317
:10184000DF91CF911F910F91FF90EF90DF90CF909C
:10185000BF90AF9008950895089508958EBD00003B
:101860000DB407FEFDCF8EB50895DF92EF92FF9283
:101870000F931F93CF93DF93EC01D62E122F032FDC
:10188000F42EE52E60E0888517DD8D2D8068E6DF7B
:1018900089878E2DE3DF8F2DE1DF802FDFDF812F22
:1018A000DDDF61E0888508DD8985DF91CF911F91BB
:1018B0000F91FF90EF90DF9008953F924F925F92CB
:1018C0006F927F928F929F92AF92BF92CF92DF9250
:1018D000EF92FF920F931F93CF93DF9300D000D02E
:1018E000CDB7DEB79E838D83362E49015A0127017D
:1018F00038014BDD60E0ED81FE818085DDDC832DEC
:10190000ADDFED81FE81818780E0A8DF80E0A6DF8A
:1019100080E0A4DF80E0A2DF61E0ED81FE818085D0
:10192000CBDC60E0ED81FE818085C6DC832D96DF17
:10193000ED81FE81818780E091DFF82E80E08EDFEF
:10194000082F80E08BDF182F80E088DF202F30E029
:1019500050E040E03F2969017A01FE2CED2CDC2C9F
:10196000CC24C12AFE2CED2CDC2CCC24C82A61E02E
:10197000ED81FE818085A0DC8C249D24AE24BF24D3
:10198000482059206A207B20A30192012C253D2567
:101990004E255F25632D8D819E8167DFED81FE8160
:1019A000818526960FB6F894DEBF0FBECDBFDF91BE
:1019B000CF911F910F91FF90EF90DF90CF90BF904C
:1019C000AF909F908F907F906F905F904F903F90DF
:1019D0000895CF93DF93EC0160E088856DDC80E0B3
:1019E0003DDF898780E03ADF80E038DF80E036DF66
:1019F00080E034DF61E088855FDC8985DF91CF910D
:101A000008954F925F926F927F92AF92BF92CF9262
:101A1000DF92EF92FF920F931F93CF93DF93D70143
:101A2000EC91EE2399F169017A015B01EC01888167
:101A30009981CFDF482F50E0CA01959587959595FC
:101A40008795CC5BDF4F80FD07C083E055954795B8
:101A50008A95E1F740FF29C020E030E040E85FE3ED
:101A6000F70160817181828193810E94F656D701CE
:101A70006D937D938D939C931397F6018081918153
:101A8000A281B38188839983AA83BB83DF91CF919D
:101A90001F910F91FF90EF90DF90CF90BF90AF908C
:101AA0007F906F905F904F900895D7014D905D901B
:101AB0006D907C9020E030E0A901C301B2010E944A
:101AC000F35718167CF4F80120813181428153814B
:101AD000C301B2010E94F556D7016D937D938D939A
:101AE0009C93139788819981AA81BB81F601808399
:101AF0009183A283B38388819981AA81BB81F501F7
:101B0000808B918BA28BB38BC1CFCF93DF93EC01F2
:101B100061E08885FEDB61E08885CEDB36DCCE01C6
:101B2000DF91CF9156CF0895EBE0F1E08081877F80
:101B300080830895EBE0F1E08081886080830895E0
:101B40008E9808958E9A089514980895149A089579
:101B500088980895889A089560E0FC018189ACCB4B
:101B600060E0FC018385A8CB61E0FC018189A4CB06
:101B700061E0FC018385A0CBCF93DF93EC01FC01F6
:101B8000ED58FF4F1082379781E0808360E08B85AE
:101B900093DB8D899E89892B29F060E08989DF910B
:101BA000CF918ACBDF91CF910895CF93DF93EC0152
:101BB000898D5ADB2C8D2817190621F48D8DDF9124
:101BC000CF91089580E0FBCFCF93DF93EC018F8915
:101BD0004BDB2C8D2817190621F48D8DDF91CF91C9
:101BE000089580E0FBCFCF93DF93EC018D859BA917
:101BF00061E0911101C060E05FDB8B899CA99923B2
:101C000021F09DA961E0911101C060E0DF91CF91C9
:101C100053CBCF93DF93EC018D859BA960E09111AD
:101C200001C061E049DB8B899CA9992321F09DA922
:101C300060E0911101C061E0DF91CF913DCBCF9386
:101C4000DF93EC0161E08F8537DB8CA9882319F0E5
:101C500061E08D8931DBCF58DF4F1882DF91CF9162
:101C60000895CF93DF93EC0160E08F8525DB8CA98D
:101C7000882319F060E08D891FDBCF58DF4F81E0AA
:101C80008883DF91CF910895CF92DF92EF92FF92F8
:101C90000F931F93CF93DF93FC01DC01A05CBF4F38
:101CA0004D935D936D937C93139714964D935D9331
:101CB0006D937C93139714960D931D932D933C93E2
:101CC0001397EC01C45BDF4FE88282AD882351F0AB
:101CD00092A991114CC037FF50C01D921D921D92C8
:101CE0001C92139743AD54AD65AD76AD1416150631
:101CF000160617063CF597AD992321F10D911D911C
:101D00002D913C9113976801790137FF07C0CC24CE
:101D1000DD247601C01AD10AE20AF30A4C155D05EA
:101D20006E057F057CF437FF07C070956095509570
:101D300041955F4F6F4F7F4F4D935D936D937C93B4
:101D40001397892FDF01A75ABF4F1D921D921D9235
:101D50001C921397E759FF4F91E09083DF91CF9149
:101D60001F910F91FF90EF90DF90CF900895101684
:101D70001106120613060CF4B0CF80E0B3CF0F9318
:101D80001F93CF93DF93EC01062F8B8D81110DC034
:101D9000CE011ADF182FCE0108DF0111182F812F75
:101DA000DF91CF911F910F910895CE01FEDE182F84
:101DB000CE010ADFF2CFCF93DF93EC01FC01ED58A7
:101DC000FF4F81E08083AE014C5B5F4FFA01808161
:101DD0009181A281B3819E0126593F4FF901208153
:101DE000222309F440C00196A11DB11DFA01808390
:101DF0009183A283B383FE01EA58FF4F2081318192
:101E0000C901959587958C0F9D1F32970190F081A0
:101E1000E02D20FF08C0DC012D913C91E20FF31F63
:101E20000190F081E02D19958D899E89892BF9F01B
:101E3000FE01E658FF4F20813181C90195958795B4
:101E40008C0F9D1FC858DF4FE881F98120FF08C023
:101E5000DC012D913C91E20FF31F0190F081E02D08
:101E6000DF91CF9119940197A109B109BFCFDF91FB
:101E7000CF9108958F929F92AF92BF92CF92DF92AF
:101E8000EF92FF920F931F93CF93DF93EC01FC012E
:101E9000E75AFF4F60817181828193810E946A5568
:101EA0006B017C016EA97FA988AD99AD0E946C552C
:101EB0009B01AC0160E074E284E799E40E945A5708
:101EC0004B015C01FE01EB59FF4F60817181828102
:101ED00093810E946A559B01AC01C501B4010E9427
:101EE0005A574B015C018E01035A1F4F20E030E02E
:101EF00040E05FE30E94CB55A70196010E94F65691
:101F00000E94C757F8016083718382839383CF59FE
:101F1000DF4FA5019401C701B6010E94F6560E9449
:101F2000C757688379838A839B83DF91CF911F9101
:101F30000F91FF90EF90DF90CF90BF90AF909F9068
:101F40008F9008950F931F93CF93DF93FC01ED586B
:101F5000FF4F20812223B9F07A97008111812281DD
:101F6000338138964081518162817381041715074E
:101F70002607370710F1EC01FFDDCE01DF91CF918D
:101F80001F910F9177CFFC01E759FF4F208122234A
:101F9000A1F07097008111812281338134964081B4
:101FA000518162817381041715072607370728F0CE
:101FB000DF91CF911F910F91FECEDF91CF911F91B5
:101FC0000F910895FC01E759FF4F2081222361F012
:101FD000709780819181A281B3810196A11DB11D6D
:101FE00080839183A283B38308950F931F93FC0191
:101FF000E45BFF4F2081211112C0389700811181CD
:10200000228133813496408151816281738104172A
:102010001507260737073CF41F910F91FACDFC01F5
:1020200022A92111F9CF1F910F91DDCDCF93DF931D
:10203000EC018C818835A9F583E593E19983888348
:1020400083E893E19B838A8388EB9DE0FE01EC5853
:10205000FF4F9183808332961182108284EB9DE042
:1020600032969183808332961182108280EB9DE0BC
:102070003296918380833296118210828CEA9DE0A1
:102080003296918380833296118210828881998161
:102090003CDD8C81883589F48A819B81DF91CF91E9
:1020A00034CD893529F483E693E199838883CCCFB5
:1020B0008A3551F683E793E1F8CFDF91CF91089508
:1020C000FC0181E0868387831186108612868CE26C
:1020D00091E0A0E0B0E0868F978FA0A3B1A342E388
:1020E00050E060E070E042A353A364A375A346A34D
:1020F00057A360A771A782A793A7A4A7B5A788E74E
:1021000090E0A0E0B0E086A797A7A0ABB1AB12AA81
:1021100013AA14AA15AA84E690E0A0E0B0E086AB6A
:1021200097ABA0AFB1AF12AE13AE14AE15AE16AEF4
:1021300017AEDF01A05CBF4F1D921D921D921C9235
:10214000139714961D921D921D921C92139714962C
:102150001D921D921D921C92139714961C9211961B
:102160001D921D921D921C92139714961D921D9202
:102170001D921C92139714961D921D921D921C92F3
:10218000139714961D921D921D921C9213971496EC
:102190001D921D921D921C92139714961D921D92D2
:1021A0001D921C92139714961D921D921D921C92C3
:1021B000139714961C9211961C9211961C921196CC
:1021C0001C9211961C9211961C9211961C921196BB
:1021D0001C9211961C9211961C9211961C921486B8
:1021E000138616861586108A1786128A118A148A13
:1021F000138A168A158A108E178A128E118E1196DE
:1022000088EB9DE011969C938E93129611961C92EA
:102210001E92129684EB9DE011969C938E931296DB
:1022200011961C921E92129680EB9DE011969C9343
:102230008E93129611961C921E9212968CEA9DE035
:102240008D939C93EE57FF4F11821082089508954D
:102250000895089508950895089508950F931F937C
:10226000CF93DF938B01EA01AB0141505109443315
:10227000510508F0EAC02230310508F0E6C048E315
:10228000429FF001439FF00D1124E80FF91FE60F64
:10229000F71F81E080836C2F232B09F4D2C061E00B
:1022A000802F37D8209749F460E0802F05D8CE01E1
:1022B000DF91CF911F910F910895CF3FD10511F478
:1022C00061E0BFC0F801E35BFD4FE491E150E23112
:1022D00008F0B2C0F0E08827EF58FE4E8F4F0C9404
:1022E000165883118A118F119911A3111C12AD1167
:1022F000B511BD11C711D111DB11EA11F4111C1276
:10230000FE110812121284B5806884BDC7BDD0E0EA
:10231000C0E0CDCF84B5806284BDC8BDF8CF8091C8
:102320008000806880938000D0938900C0938800EB
:10233000EECF80918000806280938000D0938B00EC
:10234000C0938A00E4CF80918000886080938000F1
:10235000D0938D00C0938C00DACF8091B00080685C
:102360008093B000C093B300D2CF8091B000806260
:102370008093B000C093B400CACF80919000806871
:1023800080939000D0939900C0939800C0CF809123
:102390009000806280939000D0939B00C0939A003D
:1023A000B6CF80919000886080939000D0939D007C
:1023B000C0939C00ACCF8091A00080688093A00067
:1023C0008091A0008F7B8093A000D093A900C09340
:1023D000A8009DCF8091A00080628093A000D09340
:1023E000AB00C093AA0093CF8091A0008860809337
:1023F000A000D093AD00C093AC0089CF80912001A4
:10240000806880932001D0932901C09328017FCF59
:1024100080912001806280932001D0932B01C09392
:102420002A0175CF80912001886080932001D0938C
:102430002D01C0932C016BCF60E0C038D1050CF0AA
:102440003FCF802F0E945C0962CFC1E0D0E02FCF48
:102450000895CF93DF93D0E0C0E0CE010E94030740
:10246000882319F0CE010E94D1012196C13ED105E9
:10247000A1F7DF91CF910895089508950895CF931E
:10248000DF93EC01FC01EE5DFC4F1082EE58F10988
:102490008081811103C0CE014096D1DBFE01EB5655
:1024A000FD4F8081811104C0CE018C569F4FC7DB48
:1024B000FE01EA56FD4F8081811104C0CE01885E85
:1024C0009E4FBDDB64E670E080E090E0DF91CF914D
:1024D0000C94330A8FEF9FEF0895089508954F925B
:1024E0005F926F927F928F929F92AF92BF92CF92A4
:1024F000DF92EF92FF92CF93DF93EC016C897D899D
:102500008E899F8988889988AA88BB88CE8CDF8C21
:102510000D2C000CEE08FF08603127E272078105E0
:10252000910529F01616170618061906ACF0A70132
:102530009601C501B4010E94FB57DF91CF91FF9036
:10254000EF90DF90CF90BF90AF909F908F907F9053
:102550006F905F904F9008950E946C5520E030E49A
:102560004CE156E40E945A572B013C01488E598E8B
:102570006A8E7B8EC501B4010E946C55A301920145
:102580000E94CB554B015C01C701B6010E946C55FE
:102590009B01AC01C501B4010E94CB550E94C257FA
:1025A000CCCFFC0111821082138212821582148218
:1025B0001782168210861186128613861486158657
:1025C00016861786108A118A128A138A108E118E27
:1025D000128E138E158E148E178E168E10A211A2C7
:1025E00012A213A214A215A216A217A210A611A637
:1025F00012A613A614A615A681E090E097A786A7B9
:1026000080E197E2A0E0B0E0848B958BA68BB78B3E
:10261000089508958F929F92AF92BF92CF92DF92CA
:10262000EF92FF920F931F93CF93DF93EC018B01F7
:102630005A0169016ADA85E090E0A0E0B0E0083074
:102640001105C1F1B4F487E090E0A0E0B0E0023001
:10265000110581F186E090E0A0E0B0E004301105C2
:1026600049F101301105A1F488E090E0A0E0B0E06C
:1026700021C083E090E0A0E0B0E000321105D1F08D
:102680005CF484E090E0A0E0B0E00031110591F04E
:1026900080E090E0DC010EC082E090E0A0E0B0E0DD
:1026A0000034110539F081E090E0A0E0B0E000389E
:1026B000110571F7582F442733272227E12CF12CDD
:1026C00000E01FE06CE6CE01F8D8B50190E080E0B4
:1026D0000E946A5525ED34E045E352E40E94CB5553
:1026E00020E030E04AE754E40E945A5728EB3EE1EC
:1026F00045E05EE30E94CB554B015C0126E636E6E1
:1027000046EA5EE30E945A5720E030E040E85FE38B
:102710000E94F5560E94C757603180F42CEE31E5D7
:1027200048E35EE3C501B4010E945A5720E030E05F
:1027300040E85FE30E94F5560E94C757862F8F71CD
:10274000262F30E050E040E0542F432F322F222735
:1027500022273F7144275527282B60E1CE0185D8D9
:102760000D2C000CEE08FF08A60133272227E12CD0
:10277000F12C01E010E06CE6CE019FD8E12CF12CA9
:102780008701E39421E030E040E050E060E0CE01DA
:1027900094D81FE0E12EF12C00E010E023E030E0BF
:1027A00040E050E06CE6CE0188D8E12C10E8F12E34
:1027B00001E010E020E030E840E050E06CE6CE01BF
:1027C0007CD8E12CF12C8701F39420E031E040E04B
:1027D00050E060E0CE0171D8E12C14E0F12E00E071
:1027E00010E020E034E040E050E060E0CE0165D849
:1027F0002FEF3FEF4FE050E064E1CE0136D820E00C
:1028000030E0A90165E1CE0130D81FE0E12EF12CC6
:1028100000E010E025E030E040E050E06CE6CE0162
:102820004CD8E12CF12C8701F39420E032E040E019
:1028300050E06CE6CE0141D8E12C10E2F12E00E030
:1028400010E020E030E240E050E06CE6CE0135D808
:1028500064E670E080E090E0DF91CF911F910F91EE
:10286000FF90EF90DF90CF90BF90AF909F908F90B0
:102870000C94330ACF92DF92EF92FF920F931F9343
:10288000CF93DF93EC017B016A0189019A01AB01CF
:10289000B80188819981BEDE8C81883571F49601FA
:1028A000A701B8018A819B81DF91CF911F910F9180
:1028B000FF90EF90DF90CF90ADCEDF91CF911F9141
:1028C0000F91FF90EF90DF90CF90089508950895B5
:1028D000089508958091210890912208892B91F400
:1028E00080E790E00E94ED4FFC0131969C012B5C4B
:1028F0003F4F119217AAE217F307D9F790932208D6
:102900008093210880912108909122080895CF9307
:10291000DF93EB01DFDF6AA98E8D0E94890990E0C9
:1029200080E0DF91CF9108954F925F926F927F92F6
:10293000AF92BF92CF92DF92EF92FF920F931F93CD
:10294000CF93DF93EB01C6DF8C01CAA8DBA84EA4AE
:102950005FA468A879A8AEA0BFA0EE8CFF8C4AA1A6
:102960005BA19601B7017ADCC301B2010E94330A70
:102970009601A501B701C80171DC90E080E0DF910C
:10298000CF911F910F91FF90EF90DF90CF90BF906C
:10299000AF907F906F905F904F900895CF93DF93AB
:1029A000EB0198DF2AA93BA94AA15BA16E8D7F8D1F
:1029B00055DC90E080E0DF91CF91089580911C0874
:1029C00090911D08892B41F481E090E00E94ED4F29
:1029D00090931D0880931C0880911C0890911D08FD
:1029E00008950F931F93CF93DF938B01E7DFF801D7
:1029F000C2A1D3A1868D978D8530910529F14CF424
:102A00000497B1F090E080E0DF91CF911F910F919A
:102A100008958630910511F10B97A1F76BE070E0F6
:102A200080E19EE00E94EC0ABE0180E19EE009C0C8
:102A300064E070E087E09EE00E94EC0ABE0187E05F
:102A40009EE00E94700ADECF65E070E08AE09EE0C2
:102A50000E94EC0ABE018AE09EE0F3CF66E070E0DF
:102A60008DE09EE00E94EC0ABE018DE09EE0E9CF81
:102A70008091180890911908892B09F040C08FE0C7
:102A800090E00E94ED4FFC0181E090E0A0E0B0E01A
:102A900080839183A283B38384839583A683B78342
:102AA00080879187A287B387158614861686109231
:102AB0003409109235091092360910923709109294
:102AC00038091092390910923A0910923B09109274
:102AD0003C0910923D0910923E0910923F09109254
:102AE0004F091092500910925109109252091092F8
:102AF000640810926308F0931908E0931808809115
:102B00001808909119080895B3DF85E40E943409EC
:102B100021E0892B09F420E020934909A9DF84E40E
:102B20000E94340921E0892B09F420E020934A090E
:102B30009FDF83E40E94340921E0892B09F420E01F
:102B400020934B0995DF82E40E94340921E0892B10
:102B500009F420E020934C098BDF81E40E943409C2
:102B600021E0892B09F420E020934D0981DF80E4E6
:102B70000E94340921E0892B09F420E020934E09BA
:102B8000089576DFC1CF74DFFC01168690E080E007
:102B90000895CF92DF92EF92FF920F931F93CF93FE
:102BA000DF938C016A017B01EC01CC0FDD1F642FE8
:102BB000CE010E948A569927F7FC9A958F2D7E2D7B
:102BC0006D2DCE0101960E948A560D5811090330D1
:102BD000110588F4B701992777FD9095892FCE01CB
:102BE00044960E948A566F2D772788279927CE0111
:102BF00045960E948A5690E080E0DF91CF911F9128
:102C00000F91FF90EF90DF90CF9008954F925F92D9
:102C10006F927F928F929F92AF92BF92CF92DF92EC
:102C2000EF92FF920F931F93CF93DF938C01EC01F0
:102C3000CC0FDD1FCE010E948256882E912CB12C24
:102C4000A12CCE0101960E948256C82ED12CF12CC7
:102C5000E12C0D5811090330110508F05AC0CE01BE
:102C600044960E948256482E512C712C612CCE0124
:102C700045960E948256082F10E030E020E08FEF4A
:102C8000481651046104710429F50F3F110521050F
:102C9000310501F58FEF88169104A104B104C9F53F
:102CA0008FEFC816D104E104F10499F56FEF7FEFBF
:102CB000CB01DF91CF911F910F91FF90EF90DF90AB
:102CC000CF90BF90AF909F908F907F906F905F90CC
:102CD0004F90089500381105210531053CF7FE2C71
:102CE000ED2CDC2CCC24C701B601680D791D8A1DA2
:102CF0009B1D320155244424640D751D861D971DAE
:102D0000302F222711270027600F711F821F931F6A
:102D1000D0CF00E010E09801412C512C320180E826
:102D2000C816D104E104F104D4F2C0CFEF92FF92AF
:102D30000F931F93CF93DF9380911E0890911F08EC
:102D4000892B49F584E090E00E94ED4F7C0190E0F2
:102D500080E05CDF161617064CF1C7017ADBD0E085
:102D6000C0E0CE010E940307882369F0FE01EE0F48
:102D7000FF1FEE0FFF1FED5AF64F40815181628118
:102D80007381CE0106DF2196C639D10551F7F09245
:102D90001F08E0921E0880911E0890911F08DF9185
:102DA000CF911F910F91FF90EF90089583E090E0F5
:102DB0002DDF613071058105910531F503E519E0DD
:102DC000D0E0C0E0CE010E9403078823B1F0CE011D
:102DD0001DDFF80160837183828393836F3F7F4F90
:102DE0008F4F9F4F51F4CE010E94D101F8014081D5
:102DF000518162817381CE01CCDE21960C5F1F4F21
:102E0000C13ED105F9F6C3CFC70123DBC0CFCF92B6
:102E1000DF92EF92FF920F931F93CF93DF937C018A
:102E20006B018A01E90182DFF601EE0FFF1FEE0F51
:102E3000FF1FED5AF64F80819181F70191838083C6
:102E400075DF000F111F000F111FF801ED5AF64F2B
:102E500081E040815181628173814130510561057A
:102E6000710509F080E0F701828760DFCC0FDD1F7C
:102E7000CC0FDD1FCD5AD64F88819981AA81BB81A5
:102E8000F70182839383A483B58316821782108609
:102E90001186DF91CF911F910F91FF90EF90DF90FE
:102EA000CF900895CF93DF93EC012AEC30E04BEC08
:102EB00050E069EC70E0ABDF2EEC30E04FEC50E01E
:102EC0006DEC70E0CE010C96A2DF24ED30E045ED14
:102ED00050E063ED70E0CE01489699DF28ED30E0D8
:102EE00049ED50E067ED70E0CE01849690DF2EED65
:102EF00030E04FED50E06DED70E0CE01C096DF9117
:102F0000CF9185CFCF93DF938091230890912408B0
:102F1000892BA1F48CE390E00E94ED4FEC01198223
:102F200018821D861C86198E188E1DA21CA219AA35
:102F300018AAB8DFD0932408C093230880912308EF
:102F400090912408DF91CF9108952F923F924F9254
:102F50005F926F927F928F929F92AF92BF92CF9229
:102F6000DF92EF92FF920F931F93CF93DF93EC01C9
:102F7000DDDEFE01E551FD4F80910F0B9091100BAE
:102F800091838083D3DEFE01E351FD4F8091130BCB
:102F90009091140B91838083C9DEFE01E151FD4FB6
:102FA0008091170B9091180B91838083BFDE8E0167
:102FB0000F501D4F6091370B7091380B8091390B7A
:102FC00090913A0B0E946C55F80160837183828363
:102FD0009383ACDE1E01FBE02F1AFDEF3F0A6091E8
:102FE0003B0B70913C0B80913D0B90913E0B0E94EE
:102FF0006C55F101608371838283938397DE20E0B7
:1030000030E048EC52E4F801608171818281938163
:103010000E945A572B013C0120E030E048EC52E47A
:10302000F10160817181828193810E945A574B0125
:103030005C0160913F0B7091400B8091410B90912E
:10304000420B0E946C5520E030E048EC52E40E94B4
:103050005A576B017C012AE037ED43E25CE3C30180
:10306000B2010E94F35718160CF02AC120E030E09C
:1030700046EC52E4C301B2010E94665587FD06C0CA
:10308000412C512C56EC652E52E4752EF8014082ED
:103090005182628273822AE037ED43E25CE3C5012C
:1030A000B4010E94F35718160CF013C120E030E071
:1030B00046EC52E4C501B4010E94665587FD06C086
:1030C000812C912C36ECA32E32E4B32EF1018082B8
:1030D0009182A282B3822AE037ED43E25CE3C7012A
:1030E000B6010E94F35718160CF0FCC020E030E047
:1030F00046EC52E4C701B6010E94665587FD06C042
:10310000C12CD12C96ECE92E92E4F92EFE01E75069
:10311000FD4FC082D182E282F38208DE8091F70AFD
:103120009091F80AFE01FD5F91838083FFDD80911D
:10313000FB0A9091FC0AFE01EE5FFC4F91838083B5
:10314000F5DD8091FF0A9091000BFE01EC5FFC4FD2
:1031500091838083EBDD80911F0B9091200BA091D8
:10316000210BB091220BFE01EA5FFC4F808391831B
:10317000A283B383DBDD8091230B9091240BA0917C
:10318000250BB091260BFE01E65FFC4F80839183F7
:10319000A283B383CBDD8091270B9091280BA09164
:1031A000290BB0912A0BFE01E25FFC4F80839183D3
:1031B000A283B383BBDD8091470B9091480BFE0146
:1031C000EE5EFC4F91838083B1DD80914B0B90913B
:1031D0004C0BFE01EC5EFC4F91838083A7DD809158
:1031E0004F0B9091500BFE01EA5EFC4F9183808360
:1031F0009DDD80915F0B9091600BFE01E85EFC4FBE
:103200009183808393DD8091630B9091640BFE0129
:10321000E65EFC4F9183808389DD8091670B9091FE
:10322000680BFE01E45EFC4F918380837FDD80911B
:10323000E70A9091E80AA091E90AB091EA0AFE0132
:10324000E350FD4F0197A105B10509F054C081E09D
:1032500080836CDD8091EB0A9091EC0AA091ED0ADD
:10326000B091EE0AFE01E250FD4F0197A105B105B4
:1032700009F043C081E0808359DD8091EF0A90918D
:10328000F00AA091F10AB091F20AC150DD4F019706
:10329000A105B105A1F581E08883DF91CF911F9150
:1032A0000F91FF90EF90DF90CF90BF90AF909F90E5
:1032B0008F907F906F905F904F903F902F900895E8
:1032C0004AE0442E47ED542E43E2642E4CE3742E24
:1032D000DDCE2AE0822E27ED922E23E2A22E2CE3D1
:1032E000B22EF4CE8AE0C82E87EDD82E83E2E82EE7
:1032F0008CE3F82E0BCF1082ACCF1082BDCF18829A
:10330000CCCF2F923F924F925F926F927F928F928B
:103310009F92AF92BF92CF92DF92EF92FF920F9364
:103320001F93CF93DF93CDB7DEB765970FB6F894B1
:10333000DEBF0FBECDBF998B888BF8DCE889F98999
:10334000ED5BFD4F81E040911F0A5091200A609192
:10335000210A7091220A452B462B472B09F480E065
:103360008083E4DCE889F989EC5BFD4F81E04091E2
:10337000230A5091240A6091250A7091260A452B50
:10338000462B472B09F480E08083D0DCE889F9895B
:10339000EB5BFD4F81E04091270A5091280A609134
:1033A000290A70912A0A452B462B472B09F480E005
:1033B0008083BCDC80916F0A9091700AA091710AA1
:1033C000B091720AE889F989EA5BFD4F80839183A5
:1033D000A283B383ABDC8091730A9091740AA091AD
:1033E000750AB091760AE889F989E65BFD4F80831A
:1033F0009183A283B3839ADC8091770A9091780AB3
:10340000A091790AB0917A0AE889F989E25BFD4FC7
:1034100080839183A283B38389DC8091470A909152
:10342000480AA091490AB0914A0AE889F989E25A02
:10343000FD4F80839183A283B38378DC80914B0A14
:1034400090914C0AA0914D0AB0914E0AE889F989F1
:10345000EE59FD4F80839183A283B38367DC809113
:103460004F0A9091500AA091510AB091520AE889EE
:10347000F989EA59FD4F80839183A283B38356DC97
:103480008091570A9091580AA091590AB0915A0A0E
:10349000E889F989E659FD4F80839183A283B3833C
:1034A00045DC80915B0A90915C0AA0915D0AB09125
:1034B0005E0AE889F989E259FD4F80839183A283EE
:1034C000B38334DC80915F0A9091600AA091610A15
:1034D000B091620AE889F989EE58FD4F80839183A3
:1034E000A283B38323DC8091F7099091F809A0911E
:1034F000F909B091FA09E889F989EA58FD4F808302
:103500009183A283B38312DC8091FB099091FC0923
:10351000A091FD09B091FE09E889F989E658FD4FAF
:1035200080839183A283B38301DC8091FF09909112
:10353000000AA091010AB091020AE889F989E258CB
:10354000FD4F80839183A283B383F0DBE889F989FF
:10355000EE57FD4F81E02091CF093091D009213005
:10356000310509F080E08083E1DBE889F989ED57D6
:10357000FD4F81E02091D3093091D40921303105EC
:1035800009F080E08083D2DBE889F989EC57FD4FB0
:1035900081E02091D7093091D8092130310509F017
:1035A00080E08083C3DBE889F989E056FD4F81E044
:1035B0004091A7095091A8096091A9097091AA09A1
:1035C000452B462B472B09F480E08083AFDBE8894D
:1035D000F989EF55FD4F81E04091AB095091AC095D
:1035E0006091AD097091AE09452B462B472B09F42C
:1035F00080E080839BDBE889F989EE55FD4F81E00F
:103600004091AF095091B0096091B1097091B20930
:10361000452B462B472B09F480E0808387DBE88924
:10362000F989ED55FD4F81E040917F0A5091800A64
:103630006091810A7091820A452B462B472B09F431
:1036400080E0808373DBE889F989EC55FD4F81E0E8
:103650004091830A5091840A6091850A7091860A8C
:10366000452B462B472B09F480E080835FDBE889FC
:10367000F989EB55FD4F81E04091870A5091880A06
:103680006091890A70918A0A452B462B472B09F4D1
:1036900080E080834BDBE889F989EA55FD4F81E0C2
:1036A0002091B7093091B8092130310509F080E047
:1036B00080833CDBE889F989E955FD4F81E0209161
:1036C000BB093091BC092130310509F080E08083CD
:1036D0002DDBE889F989E855FD4F81E02091BF098C
:1036E0003091C0092130310509F080E080831EDB74
:1036F00080917F0990918009A0918109B091820900
:10370000E889F989E755FD4F80839183A283B383CC
:103710000DDB8091830990918409A0918509B09176
:103720008609E889F989E355FD4F80839183A28357
:10373000B383FCDA8091870990918809A091890967
:10374000B0918A09E889F989EF54FD4F808391830C
:10375000A283B383EBDAE889F989EC56FD4F81E067
:1037600040918F095091900960919109709192094F
:10377000452B462B472B09F480E08083D7DAE88974
:10378000F989EB56FD4F81E04091930950919409DE
:103790006091950970919609452B462B472B09F4AA
:1037A00080E08083C3DAE889F989EA56FD4F81E039
:1037B00040919709509198096091990970919A09DF
:1037C000452B462B472B09F480E08083AFDA8091AC
:1037D000870B9091880BA091890BB0918A0BE88997
:1037E000F989EB57FD4F80839183A283B3839EDADF
:1037F00080918B0B90918C0BA0918D0BB0918E0BC7
:10380000E889F989E757FD4F80839183A283B383C9
:103810008DDA80918F0B9091900BA091910BB091CC
:10382000920BE889F989E357FD4F80839183A28346
:10383000B3837CDAE889F989E956FD4F81E020916C
:10384000E7093091E8092130310509F080E08083F3
:10385000E889F989E856FD4F1082E889F989E75629
:10386000FD4F108263DAE889F989E656FD4F81E061
:103870002091E3093091E4092130310509F080E01D
:103880008083E889F989E556FD4F1082E889F98936
:10389000E456FD4F10824ADAE889F989E356FD4F74
:1038A00081E02091070A3091080A2130310509F0A2
:1038B00080E080833BDAE889F989E256FD4F81E0B8
:1038C00020910B0A30910C0A2130310509F080E07B
:1038D00080832CDAE889F989E156FD4F81E0209157
:1038E0000F0A3091100A2130310509F080E0808301
:1038F0001DDAE889F989EF56FD4F81E02091970B99
:103900003091980B2130310509F080E080830EDA88
:10391000E889F989EE56FD4F81E020919B0B3091AB
:103920009C0B2130310509F080E08083FFD9E889C4
:10393000F989ED56FD4F81E020919F0B3091A00B4E
:103940002130310509F080E08083F0D90889198998
:103950000B541D4F80912F0A9091300AA091310A8B
:10396000B091320AF80180839183A283B383DED9B8
:10397000E888F988F7E4EF1AFDEFFF0A8091330A2F
:103980009091340AA091350AB091360AF7018083EC
:103990009183A283B383CAD98091370A9091380A60
:1039A000A091390AB0913A0AC888D988F3E4CF1AAD
:1039B000FDEFDF0AF60180839183A283B383F801D0
:1039C000408151816281738114161506160617060F
:1039D00044F041E050E060E070E040835183628356
:1039E0007383F7014081518162817381141615063A
:1039F0001606170644F041E050E060E070E04083B6
:103A0000518362837383181619061A061B064CF03D
:103A100081E090E0A0E0B0E0F60180839183A28392
:103A2000B38326D8FC01D6018D909D90AD90BC90BB
:103A3000D7014D915D916D917C91D8010D911D91B2
:103A40002D913C91008311832283338344835583DA
:103A50006683778380869186A286B386E889F98912
:103A60007096FB83EA83E889F989EF56FD4F208140
:103A70002983E889F989EB57FD4F80819181A281E3
:103A8000B381E889F989E356FD4F20812D83E889C8
:103A9000F989EA55FD4F20812C83E889F989E95697
:103AA000FD4F20812987E889F989E656FD4F20815D
:103AB0002A87E889F989ED55FD4F20812E87E8890D
:103AC000F989E056FD4F20812F87E889F989EE5763
:103AD000FD4F2080E889F989ED5BFD4F3080E88952
:103AE000F989E755FD4F4081518162817381E889F1
:103AF000F989EA58FD4F0081118122813381E889DB
:103B0000F989E659FD4FC080D180E280F380E889D1
:103B1000F989E25AFD4F80809180A280B380E889C4
:103B2000F989EA5BFD4F4080518062807380E889AB
:103B3000F98946A657A660AA71AA82AA93AAA4AA3E
:103B4000B5AAC6AAD7AAE0AEF1AE02AF13AF24AFB2
:103B500035AFFE964083518362837383E889F98988
:103B6000EE5BFF4F3082E889F989ED5BFF4F2082E1
:103B70002F85E889F98923A72E8524A72C8125A7DD
:103B800040E450E060E070E0EA5BFF4F4083518327
:103B900062837383E889F989EC5BFF4F2A85208370
:103BA000E889F989EB5BFF4F29852083E889F9894A
:103BB000E65BFF4F2D812083E889F989E55BFF4FA4
:103BC00080839183A283B383E889F989E15BFF4F06
:103BD00089818083A889B9895B968D919C915C9736
:103BE0008633910509F034C28AEA9DE0FD01EC5765
:103BF000FF4F9183808332961182108288EA9DE084
:103C0000369691838083329611821082E889F989F1
:103C100081A192A14A97D1F486EA9DE0E857FF4F2F
:103C200091838083E889F989E657FF4F11821082DA
:103C300084EA9DE0E889F989E057FF4F918380830A
:103C4000E889F989EE56FF4F118210820889198997
:103C50000C561F4FE889F989EE56FD4F20812983C4
:103C6000E889F989E757FD4F80819181A281B3816D
:103C70008D839E83AF83B887E889F989E256FD4F2B
:103C800090819C83E889F989E955FD4FA081A98736
:103C9000E889F989E856FD4FB081BA87E889F98942
:103CA000E556FD4F20812E87E889F989EC55FD4FB7
:103CB0002080E889F989EF55FD4F3080E889F9893E
:103CC000ED57FD4F3081E889F989EC5BFD4F20818C
:103CD000E889F989E355FD4F80819181A281B38103
:103CE000E889F989E658FD4F4081518162817381ED
:103CF000E889F989E259FD4FC080D180E280F380E4
:103D0000E889F989EE59FD4F80809180A280B380C7
:103D1000E889F989E65BFD4F4080518062807380BD
:103D2000F801468E578E60A271A282A293A2A4A22D
:103D3000B5A2C6A2D7A2E0A6F1A642A753A764A740
:103D400075A786A797A7A0ABB1AB22AB33AB338ED9
:103D5000248E2985258F80E490E0A0E0B0E086AB3A
:103D600097ABA0AFB1AF2E8524AB8A8585AB9C8184
:103D700092AF8D819E81AF81B88583AF94AFA5AF9F
:103D8000B6AF298127AF838594858633910509F0E5
:103D900091C18AEA9DE0E889F989E85FFE4F918345
:103DA0008083E889F989E65FFE4F1182108288EAF4
:103DB0009DE0E889F989E05FFE4F91838083E8897F
:103DC000F989EE5EFE4F11821082D80151968D91D5
:103DD0009C914A97E1F486EA9DE0E889F989E45FDD
:103DE000FE4F91838083E889F989E25FFE4F11825B
:103DF000108284EA9DE0E889F989EC5EFE4F9183A8
:103E00008083E889F989EA5EFE4F11821082E88892
:103E1000F988B8EEEB1ABEEFFB0AE889F989ED568E
:103E2000FD4F20812983E889F989E357FD4F80817F
:103E30009181A281B3818D839E83AF83B887E88906
:103E4000F989E156FD4F90819C83E889F989E8550D
:103E5000FD4F3080E889F989E756FD4FA081A98799
:103E6000E889F989E456FD4F2080E889F989EB5506
:103E7000FD4FC080E889F989EE55FD4FD080E88973
:103E8000F989EC57FD4F3081E889F989EB5BFD4FEB
:103E90002081E889F989EF54FD4F80819181A281C9
:103EA000B3818A8B9B8BAC8BBD8BE889F989E258F7
:103EB000FD4F4081518162817381E889F989EE5813
:103EC000FD4F80809180A280B380E889F989EA590A
:103ED000FD4F4080518062807380E889F989E25B00
:103EE000FD4F80819181A281B381F701868F978FE9
:103EF000A0A3B1A342A253A264A275A286A297A2D4
:103F0000A0A6B1A642A753A764A775A78A899B89D3
:103F1000AC89BD8986A797A7A0ABB1AB22AB33AB69
:103F2000D38EC48E358E80E490E0A0E0B0E086AB06
:103F300097ABA0AFB1AF24AA298525AB8C8182AF06
:103F40008D819E81AF81B88583AF94AFA5AFB6AFA9
:103F5000298127AF838594858633910509F0D2C0E6
:103F60008AEA9DE0E889F989E457FE4F91838083CE
:103F7000E889F989E257FE4F1182108288EA9DE0B4
:103F8000E889F989EC56FE4F91838083E889F989A5
:103F9000EA56FE4F11821082D70151968D919C9165
:103FA0004A97E1F486EA9DE0E889F989E057FE4FF7
:103FB00091838083E889F989EE56FE4F1182108241
:103FC00084EA9DE0E889F989E856FE4F9183808371
:103FD000E889F989E656FE4F11821082E889F9894D
:103FE000EC56FD4F8081882309F4B4C08A819B81FF
:103FF0000E94310EE889F989EB56FD4F80818823B4
:1040000009F4ADC0C8010E94310EE889F989EA5669
:10401000FD4F8081882309F4A6C0C70165960FB6BD
:10402000F894DEBF0FBECDBFDF91CF911F910F91EE
:10403000FF90EF90DF90CF90BF90AF909F908F90C8
:104040007F906F905F904F903F902F900C94310E27
:104050008C339105D9F482EA9DE0E889F989EC571F
:10406000FF4F91838083E889F989EA57FF4F1182D6
:10407000108280EA9DE0E889F989E457FF4F918337
:104080008083E889F989E257FF4FBECD8E9709F00A
:10409000BDCD8AE99DE0E889F989EC57FF4F91830E
:1040A0008083E889F989EA57FF4F1182108284E9F9
:1040B0009DE0E1CF8C33910589F482EA9DE0E889A7
:1040C000F989E85FFE4F91838083E889F989E65F8B
:1040D000FE4F1182108280EA9DE06BCE8E9709F030
:1040E00074CE8AE99DE0E889F989E85FFE4F918303
:1040F0008083E889F989E65FFE4F1182108284E9A6
:104100009DE057CE8C33910589F482EA9DE0E889E1
:10411000F989E457FE4F91838083E889F989E25752
:10412000FE4F1182108280EA9DE02ACF8E9709F01F
:1041300033CF8AE99DE0E889F989E457FE4F9183FE
:104140008083E889F989E257FE4F1182108284E961
:104150009DE016CF8A819B810E941F0E4BCFC80124
:104160000E941F0E52CFC70165960FB6F894DEBFAE
:104170000FBECDBFDF91CF911F910F91FF90EF90B8
:10418000DF90CF90BF90AF909F908F907F906F9077
:104190005F904F903F902F900C941F0EAF92BF9264
:1041A000CF92DF92EF92FF920F931F93CF93DF9303
:1041B000EC018AE190E09C8F8B8F8BE190E09E8FE9
:1041C0008D8F89E190E098A38F8F8FE090E09AA384
:1041D00089A38EE190E09CA38BA38EE090E09EA348
:1041E0008DA385E490E098A78FA384E490E09AA73C
:1041F00089A7FE01EC56FF4F80E290E09487838709
:1042000081E290E0968785878FE190E0908B8787A9
:10421000128A118A148A138A168A158A83E490E016
:10422000908F878B82E490E0928F818FEC57FF4FC5
:1042300083E290E09487838784E290E09687858785
:1042400082E290E0908B8787128A118A148A138AFF
:10425000168A158A81E490E0908F878B80E490E045
:10426000928F818FEB5DFE4F118210823296118208
:104270001082329611821082CE0143D8CE010E9464
:10428000A517CE0184569E4F41E050E0FC0157A790
:1042900046A7DE01A453BE4F24E030E09F963C9336
:1042A0002E939E975E01F4E0AF1AFEEFBF0A28E05E
:1042B00030E0F50137A726A720E130E0FC0131838B
:1042C000208321E130E0358324832FEF3FEF3383D8
:1042D000228337832683628560876385618767E1F0
:1042E00070E011967C936E9368E170E015967C9374
:1042F0006E93149713963C932E93129717963C93B4
:104300002E9316971A966C911A9718966C93189785
:104310001B966C911B9719966C9319976DE170E041
:10432000F501718360836CE170E07583648333838E
:104330002283378326836285608763856187BE0118
:10434000685E7C4FFB01608171818E010A5F1C4FAA
:10435000F801C080D180E280F38006501109F80195
:1043600000811181FC01158F048FC48AD58AE68AE9
:10437000F78A6130710509F04EC0378F268FCE0164
:10438000865E9C4FFC01808191819E01265F3C4F9F
:10439000F901408151816281738128503109F9010D
:1043A000208131815D963C932E935C9754964D937A
:1043B0005D936D937C935797019781F58FEF9FEFF6
:1043C0005F969C938E935E97DE01A45EBC4F8D91A9
:1043D0009C9111971E974D915D916D917C91CC5F51
:1043E000DC4F28813981F501358F248F448B558B23
:1043F000668B778B0197A9F48FEF9FEF978F868F4E
:10440000DF91CF911F910F91FF90EF90DF90CF90B0
:10441000BF90AF900895578F468FB1CF81E090E065
:10442000CFCF81E090E0EACF2F923F924F925F9200
:104430006F927F928F929F92AF92BF92CF92DF92B4
:10444000EF92FF920F931F93CF93DF9300D01F92B1
:10445000CDB7DEB79C838B830E9496166090970A37
:104460007090980A0E9496168090A70A9090A80AC9
:104470000E9496162090BF0A3090C00A0E9496169D
:10448000C0909B0AD0909C0A0E949616A090AB0AFE
:10449000B090AC0A0E9496164090C30A5090C40A8D
:1044A0000E94961600919F0A1091A00A0E949616EB
:1044B000E090AF0AF090B00A0E9496168091C70A69
:1044C00089838091C80A8A8391011216130614F019
:1044D00021E030E0A401B3018B819C8140960E94D1
:1044E0003A1492011414150414F021E030E0A501EF
:1044F000B6018B819C818C569F4F0E943A14298172
:104500003A811216130614F021E030E0A701B80139
:104510008B819C81885E9E4F0F900F900F900F9023
:10452000DF91CF911F910F91FF90EF90DF90CF908F
:10453000BF90AF909F908F907F906F905F904F90C3
:104540003F902F900C943A14FC0180819181009748
:1045500011F00C94895008950C9489500C94895052
:104560000C9489500C9489500C9489500C94895067
:104570000C9489500C9489500C9489500C94895057
:104580000C9489500C9489500C9489500C94895047
:104590000C9489500C9489500C9489500C94895037
:1045A0000C9489500C9489500C9489500C94895027
:1045B0000C948950FC0101900020E9F73197AF017C
:1045C000481B590BBC0187ED9CE00C9499078F9216
:1045D0009F92AF92BF920F931F93CF93DF93CDB76C
:1045E000DEB7A1970FB6F894DEBF0FBECDBF19A2FC
:1045F000423008F44AE08E010F5D1F4F842E912C4B
:10460000B12CA12CA50194010E94C456E62FB9013A
:10461000CA01EA30ECF4E05DD801EE938D01232B62
:10462000242B252B79F790E080E0109711F0CD0135
:10463000C1DFA1960FB6F894DEBF0FBECDBFDF91EC
:10464000CF911F910F91BF90AF909F908F90089541
:10465000E95CE2CFCF92DF92EF92FF92CF93DF93AC
:1046600097FF18C06B017C018DE20E947A08EC0173
:1046700066277727CB016C197D098E099F094AE0CF
:10468000A6DF8C0F9D1FDF91CF91FF90EF90DF9001
:10469000CF9008954AE0DF91CF91FF90EF90DF90A7
:1046A000CF9095CFBC01990F880B990BD3CF82CFB8
:1046B00085E993E0FCDF60914F097091500980918A
:1046C000510990915209C6DF85EE97E0F0CF88231B
:1046D00019F081E797E0EBCF8AE697E0FCCF0F93E4
:1046E0001F93CF93DF938C01EB0187E793E0DFDF2C
:1046F00083E294E0DCDFF80184810E947A08CE0135
:10470000D1DF0E943815DF91CF911F910F91D0CF4B
:10471000EF92FF920F931F93CF93DF93182F092FE0
:104720007B016115710571F50E94340931E020E0CB
:10473000019709F030E0C32FD22F82E0E816F10490
:1047400008F046C088E993E0B2DF83E294E0AFDF8F
:104750008CE993E0ACDF812F902FA4DF83E294E01B
:10476000A6DF86E198E0A3DFCE019CDF0E9438152A
:104770009FDF90E080E0DF91CF911F910F91FF903C
:10478000EF900895D0E0C0E061307105B1F6812F5F
:10479000163310F08AEC810F20917B00982F9870CF
:1047A000277F922B90937B008770806480937C009E
:1047B00080917A00806480937A0080917A0086FDEF
:1047C000FCCF80917800C0917900DC2FC82FB5CF45
:1047D00081E090E0D0CFCF93DF93EB010E946A1489
:1047E0006AA97BA98E8D9F8D93DF90E080E0DF9199
:1047F000CF9108950F931F93CF93DF93FC012081F6
:10480000318121153105C9F1EC01822F0E94340953
:1048100021E0892B09F420E02B876A85261709F10E
:104820001E821F82188619860E811F812885398570
:104830008A819B81AC81BD81081719072A073B0734
:10484000E4F081E0682788810E945C090E946A1474
:1048500070E060E088819981DF91CF911F910F9185
:1048600057CF8E819F81A885B9850196A11DB11D65
:104870008E839F83A887B987D7CFDF91CF911F9170
:104880000F9108952F923F924F925F926F927F9275
:104890008F929F92AF92BF92CF92DF92EF92FF9250
:1048A0000F931F93CF93DF93CDB7DEB762970FB609
:1048B000F894DEBF0FBECDBF1C018C010C5B1F4FF7
:1048C0001E870D87D8014D915D916D917C917C0182
:1048D000B8E4EB0EF11CF70180819181A281B381D4
:1048E0006101FCE4CF0ED11CF60120810A5D1F4F4F
:1048F00058017F964F012223A1F1F10122A9F8016D
:10490000208321E0F40120834115510561057105E3
:1049100059F4F10102A113A124A135A1EB59FF4FD4
:1049200000831183228333838101005C1F4FF801D0
:104930004080518062807380910127593F4F590117
:10494000481659066A067B06B4F5481759076A07E0
:104950007B07DCF1D6018C91811137C0D5011C9207
:104960003CC121E0481759076A077B070CF020E09B
:10497000F50120832A013B0177FF07C04424552419
:104980003201441A550A660A770A8C019D01B7FF65
:1049900007C0002711279801081B190B2A0B3B0B96
:1049A000BB24B39440165106620673060CF4B12C76
:1049B000F401B082A9CF84159505A605B70554F674
:1049C00084179507A607B7072CF6F5018081882381
:1049D00029F2D6018C9181110EC0F60180818111DE
:1049E000BDCFD4016C9181E06827C1010E94BF0E48
:1049F0008111B4CF06C060E0C1010E94BF0E8111D9
:104A0000ECCFD1019A962D913D914D915C919D975E
:104A100029833A834B835C835E962D913D914D9122
:104A20005C9191972D833E834F83588792962D9169
:104A30003D914D915C91959729873A874B875C878B
:104A4000F70180819181A281B381ED85FE85C080CF
:104A5000D180E280F380F8014081518162817381CD
:104A6000F101E359FF4F1082319610823101FFE6C8
:104A70006F0E711CF3011082910120593F4FF90113
:104A80001082329610824C015D01841A950AA60AA2
:104A9000B70AB7FE08C0B094A09490948094811C8B
:104AA000911CA11CB11C481759076A077B072CF001
:104AB000C81AD90AEA0AFB0A04C0C41AD50AE60AC7
:104AC000F70AD501C401B595A795979587958D8768
:104AD0009E87AF87B88B81010E581F4F8C149D04A1
:104AE000AE04BF0408F09FC0D10196960D90BC9112
:104AF000A02DBA8BA98B81E0F9018083D8018C931A
:104B0000F1018285882309F45CC00E94640AD10106
:104B100018960D911C91012E000C220B330B601B7B
:104B2000710B820B930B693E73408105910508F46C
:104B300048C00E94640AF101718760878EE993E0A2
:104B4000B6DD82EA93E0B3DD60E070E0CB0182DDA8
:104B500088EA93E0ACDDC701B6017CDD8EEA93E024
:104B6000A6DDC501B40176DD84EB93E0A0DD4AE06B
:104B70006D857E858F8598892ADD8BEB93E097DDA7
:104B800069817A818B819C8165DD81EC93E08FDD89
:104B900069857A858B859C855DDD87EC93E087DD73
:104BA0006D817E818F81988555DD8DEC93E07FDD71
:104BB00083E294E07CDD89899A8974DD85EE97E053
:104BC00076DDF101EB59FF4F09891A89C801B0E080
:104BD000A0E080839183A283B38360E0C1010E943F
:104BE000BF0E882339F0F101EC5BFF4F1082118278
:104BF0001282138262960FB6F894DEBF0FBECDBF4D
:104C0000DF91CF911F910F91FF90EF90DF90CF90A8
:104C1000BF90AF909F908F907F906F905F904F90DC
:104C20003F902F9008952D853E854F8558892C15EE
:104C30003D054E055F0508F450C089819A81AB811E
:104C4000BC818C159D05AE05BF0544F4AD81BE81C8
:104C50001196BA8BA98B81E0F3014FCFC701B60142
:104C60000E946C552B013C0169817A818B819C816A
:104C70000E946C559B01AC01C301B2010E945A57BE
:104C80002B013C016D817E818F81988529853A8534
:104C90004B855C85621B730B840B950B0E946C55D6
:104CA0009B01AC01C301B2010E94CB552B013C0119
:104CB00069857A858B859C850E946C559B01AC012A
:104CC000C301B2010E94F6560E94C2577A8B698BCB
:104CD00081E0F101E359FF4F10CFD501C4012981D3
:104CE0003A814B815C81821B930BA40BB50BC816D8
:104CF000D906EA06FB065CF44D815E814E5F5F4F8C
:104D00005A8B498B81E0F101E159FF4FF6CEC50185
:104D1000B4016C197D098E099F090E946C552B0105
:104D20003C0169817A818B819C810E946C559B0139
:104D3000AC01C301B2010E945A572B013C016D81A5
:104D40007E818F81988529853A854B855C85621B9C
:104D5000730B840B950B0E946C559B01AC01C30136
:104D6000B2010E94CB552B013C0169857A858B8568
:104D70009C850E946C559B01AC01C301B2010E944D
:104D8000F6560E94C2577A8B698B81E0F101E25995
:104D9000FF4FB3CECF92DF92EF92FF92CF93DF938C
:104DA000EB01CB010E940307882359F1FE01EE0FAE
:104DB000FF1FEE0FFF1FED5AF64FC080D180E2803B
:104DC000F38083ED93E073DC83E294E070DC8CE9A4
:104DD00093E06DDCCE0166DC83E294E068DC86E182
:104DE00098E065DCC701B60135DC0E94381560DC4F
:104DF00090E080E0DF91CF91FF90EF90DF90CF9037
:104E0000089587ED93E053DCF3CF0F931F93CF9377
:104E1000DF938C01D0E0C0E0CE010E94030788231D
:104E200019F0BE01C801B6DF2196C13ED105A1F738
:104E3000DF91CF911F910F9108950E949616E5DFA3
:104E400089EF93E034DC0E94381532DC90E080E09A
:104E50000895CF93DF93EB010E9496166E8D7F8DA0
:104E600099DF90E080E0DF91CF910895CF92DF92BB
:104E7000EF92FF920F931F93CF93DF938B010E94CA
:104E80009616EC01F801C2A0D3A0E4A0F5A0068D0F
:104E9000178D8A819B818F30F7E29F0754F5019629
:104EA0009B838A83C8010E940307882329F1F801A4
:104EB000EE0FFF1FEE0FFF1FED5AF64FC082D1829B
:104EC000E282F382B701A601C8010E94C915B801A8
:104ED000CE0160DF0E9482170E94521790E080E0AE
:104EE000DF91CF911F910F91FF90EF90DF90CF90C6
:104EF00008951B821A82D6CF87ED93E0D8DBEACFE4
:104F0000CF93DF938DEF93E0D2DB81E094E0CFDBB2
:104F1000C9E4D9E08881DBDB85E094E0C8DB8981E6
:104F2000D6DB89E094E0C3DB8A81D1DB8DE094E0BD
:104F3000BEDB8B81CCDB81E194E0B9DB8C81C7DB0C
:104F400085E194E0B4DB8D81C2DBDF91CF91B0CB02
:104F50000E943815D5CF89E194E0A9DB0E9438156D
:104F60000E9484150E943815CBDF0E946A1470E0FD
:104F700060E088E090E0CCDB0E946A1470E060E0C2
:104F800089E090E0C5DB0E946A1470E060E08AE08E
:104F900090E0BEDB0E946A1470E060E08DE090E07B
:104FA000B7DB90E080E0089580E294E080DB88E267
:104FB00092E07DDB88E092E07ADB85E294E077DBCB
:104FC0000E94381575DB90E080E008954F925F9263
:104FD0006F927F928F929F92AF92BF92CF92DF9209
:104FE000EF92FF920F931F93CF936B017C01742E6E
:104FF000AC019B010E94F757882391F08FE294E067
:10500000CF911F910F91FF90EF90DF90CF90BF90C5
:10501000AF909F908F907F906F905F904F90CACA93
:1050200046015701E894B7F82FEF3FEF4FE75FE7EE
:10503000C501B4010E94F75781110DC02FEF3FEF5A
:105040004FE75FE7C501B4010E94665518161CF4CE
:1050500083E394E0D5CF2FEF3FEF4FE75FE4C70145
:10506000B6010E94F35718161CF487E394E0C8CFEA
:105070002FEF3FEF4FE75FECC701B6010E94665587
:1050800087FDF3CF20E030E0A901C701B6010E94FF
:10509000665510E000E087FF08C08DE20E947A08A4
:1050A0008C01F7FAF094F7F8F094C0E060E070E05B
:1050B00080E09FE37C1641F020E030E040E251E4E4
:1050C0000E945A57CF5FF6CFA70196010E94F6566D
:1050D0002B013C010E94C7574B015C014AE077DA83
:1050E0007C01E00EF11ECC23A9F1C501B4010E94A0
:1050F0006A559B01AC01C301B2010E94F5564B01F8
:105100005C018EE20E947A08E80EF91EC15010F18F
:1051100020E030E040E251E4C501B4010E94CB55EB
:105120002B013C010E94C7574B01B12CA12C4AE036
:10513000C501B4014CDAE80EF91EC501B4010E94A4
:105140006A559B01AC01C301B2010E94F5564B01A7
:105150005C01DCCFC701CF911F910F91FF90EF90C1
:10516000DF90CF90BF90AF909F908F907F906F9087
:105170005F904F9008958F929F92AF92BF92CF927F
:10518000DF92EF92FF920F931F93CF93DF93EC0187
:1051900083E392E08CDA8CE494E089DA6E0184E6B1
:1051A000C81A8EEFD80AC6010E946F120E946C5571
:1051B0004B015C01FE01EB54FD4F608171818281E6
:1051C00093810E946C559B01AC01C501B4010E9402
:1051D0005A5742E0FBDE8CE594E069DA7E01E4E3B5
:1051E000EE1AEEEFFE0AC7010E946F120E946C5584
:1051F0004B015C01FE01E754FD4F608171818281AA
:1052000093810E946C559B01AC01C501B4010E94C1
:105210005A5742E0DBDE8CE694E049DA8E01045016
:105220001E4FC8010E946F120E946C554B015C0119
:10523000C354DD4F688179818A819B810E946C55BE
:105240009B01AC01C501B4010E945A5742E0BEDE89
:105250000E9438152DDA8FE292E029DA8CE494E08E
:1052600026DAF601A68DB78D2089318942895389C6
:105270000E94BE56EFD98CE594E019DAF701A68DAD
:10528000B78D20893189428953890E94BE56E2D95F
:105290008CE694E00CDAF801A68DB78D208931896F
:1052A000428953890E94BE56D5D90E943815DF9194
:1052B000CF911F910F91FF90EF90DF90CF90BF9013
:1052C000AF909F908F90F4C9CF92DF92EF92FF92B0
:1052D000CF93DF93EC0188819981AA81BB81181655
:1052E00019061A061B0644F081E090E0A0E0B0E049
:1052F00088839983AA83BB838C819D81AE81BF8182
:10530000181619061A061B0644F081E090E0A0E08A
:10531000B0E08C839D83AE83BF8388859985AA8501
:10532000BB85181619061A061B0644F081E090E0AA
:10533000A0E0B0E088879987AA87BB878BE394E0D9
:10534000B6D98CE494E0B3D96091340970913509F1
:1053500080913609909137090E946C556B017C0150
:10536000688179818A819B810E946C559B01AC0187
:10537000C701B6010E945A5742E028DE8CE594E04E
:1053800096D9609138097091390980913A099091C4
:105390003B090E946C556B017C016C817D818E8183
:1053A0009F810E946C559B01AC01C701B6010E9410
:1053B0005A5742E00BDE8CE694E079D960913C09C3
:1053C00070913D0980913E0990913F090E946C5572
:1053D0006B017C01688579858A859B850E946C5567
:1053E0009B01AC01C701B6010E945A5742E0EEDDB5
:1053F000DF91CF91FF90EF90DF90CF9059C90E943D
:10540000381562DF90E080E008950F931F93CF93EB
:10541000DF93EC0188819981009759F02A813B81C3
:105420002617370730F081E0DF91CF911F910F9160
:1054300008958B016F5F7F4F0E941E58009759F0AF
:10544000998388831B830A832C813D81232B59F701
:10545000FC011082E8CF80E0E7CF0F931F93CF933A
:10546000DF93EC018B01D1DF28813981811112C0DA
:105470002115310519F0C9010E948950198218823D
:105480001D821C821B821A82CE01DF91CF911F9157
:105490000F9108951D830C8367EE77E0C9010E9488
:1054A0000F59F2CF70E060E0D8CF2F923F924F9229
:1054B0005F926F927F928F929F92AF92BF92CF92A4
:1054C000DF92EF92FF920F931F93CF93DF93CDB7AD
:1054D000DEB7C458D1090FB6F894DEBF0FBECDBFFA
:1054E0008C01FC01108211821282138214821582B7
:1054F00016821782108611861286138614861586E8
:10550000168617864C01F0E18F0E911CC4010E9493
:105510006010580184E9A80EB11CC5010E946010FA
:105520006801E8EECE1AEEEFDE0AC6010E946010B6
:105530007801F4E6EF1AFEEFFF0AC7010E94D112CC
:10554000380184E3681A8EEF780AC3010E94D112F1
:105550002801E4E04E1AEEEF5E0AC2010E94D11269
:10556000F801E45DFD4F11821082138212821582D0
:105570001482CF0197DFF801EE5CFD4F118210829B
:1055800032961182108232961182108232961182E6
:1055900010823296108231961082319610823196A6
:1055A00011821082329611821082329611821082FC
:1055B0003296108231961082319610823196108286
:1055C0001182128213823496108211821282138207
:1055D00034961082118212821382349610821182C4
:1055E00012821382349610821182128213823496B0
:1055F00010821182128213823496108211821282DA
:105600001382349610821182128213823496108291
:1056100011821282138234961082118212821382B6
:105620003496108211821282138234961082118273
:10563000128213823496108211821282138234965F
:105640001082118212821382349610821182128289
:1056500013823496108231961082319610823196E0
:105660001082118212821382349610821182128269
:105670001382349610821182128213823496108221
:1056800031961082319610823196108231961082B6
:1056900031961082319610823196108231961082A6
:1056A0003196108231961082319610823196108296
:1056B0003196108231961082319610823196108286
:1056C0003196108231961082319610823196108276
:1056D0003196108231961082319610823196108266
:1056E00011821282138234961082118212821382E6
:1056F00034961082118212821382D801AB54BD4FAE
:105700008CE0E7E1F2E001900D928A95E1F7F80173
:10571000EF53FD4F10821182128213823496108251
:1057200011821282138234961082118212821382A5
:105730003496118210823296118210823296118232
:105740001082329610821182128213823496108255
:105750001182128213823496108211821282138275
:105760003496108211821282138234961082118232
:10577000128213823496108211821282138234961E
:10578000118210823296118210823296118210821A
:105790003296108211821282138234961082118204
:1057A00012821382349610821182128213823496EE
:1057B00010823196108231961082319611821082B9
:1057C00032961182108232961182108232961082A5
:1057D00011821282138234961082118212821382F5
:1057E00034961082118212821382349611821082B2
:1057F0003296118210823296118210823296118274
:105800001082329611821082329611821082329664
:10581000118210823296118210821801FEED2F1A29
:10582000FCEF3F0AF101108231961182108232960C
:1058300011821082CE0101960E94601084E8FE0160
:105840003196D40101900D928A95E1F7CE0101962F
:105850000E94601084E8FE013196D50101900D92FE
:105860008A95E1F7CE0101960E94601084E8FE015E
:105870003196D60101900D928A95E1F788E5F801FD
:10588000848BE856FF4F89E58083EC57FF4F8AE50C
:105890008083CE0101960E94D11280E3FE013196F1
:1058A000D70101900D928A95E1F7CE0101960E94F1
:1058B000D11280E3FE013196D30101900D928A95B9
:1058C000E1F7CE0101960E94D11280E3FE013196EC
:1058D000D20101900D928A95E1F7C8010E94CE2075
:1058E000F1011082CC57DF4F0FB6F894DEBF0FBE28
:1058F000CDBFDF91CF911F910F91FF90EF90DF907F
:10590000CF90BF90AF909F908F907F906F905F905F
:105910004F903F902F900895CF93DF9380911A0876
:1059200090911B08892B51F487E293E00E94ED4F80
:10593000EC01BBDDD0931B08C0931A0880911A08B4
:1059400090911B08DF91CF910895CF93DF93EB01E6
:1059500020E030E040E85FE36A817B818C819D81BB
:105960000E946655811113C08FE394E00E94572373
:10597000D3DFFC01EC5AFF4F108211821282138296
:1059800084569E4FFC01108A118A128A138A20E0E5
:1059900030E040E85FE36E817F81888599850E94D1
:1059A0006655811113C08FE494E00E945723B4DF41
:1059B000FC01E852FF4F108211821282138284533D
:1059C0009E4FFC01108A118A128A138A20E030E06F
:1059D00040E85FE36A857B858C859D850E946655DE
:1059E000811113C08FE594E00E94572395DFFC01DD
:1059F000E45AFE4F108211821282138284509E4F0D
:105A0000FC01108A118A128A138A0E9438150E949A
:105A1000582390E080E0DF91CF910895CF93DF93FA
:105A200080912008811114C081E08093200874DFE8
:105A3000EC0140960E94E20FCE018C569F4F0E94CF
:105A4000E20FCE01885E9E4F0E94E20F1092200866
:105A5000DF91CF910895CF93DF93FC01E05DFD4F7F
:105A6000408151814115510501F1EC01CC5CDD4FC4
:105A700028813981845D9D4F24173507E8F4FC01A6
:105A8000808191810097A1F0820F931FFC0180819A
:105A90008A3031F08D3069F485EE97E00E9457230B
:105AA00088819981019699838883DF91CF910895A8
:105AB00080E00E947A08F4CF70E060E0CEDC1982CA
:105AC0001882F3CFEF92FF920F931F93CF93DF9340
:105AD0006115710541F480E0DF91CF911F910F9125
