:10000000A2C20000D1C20000CFC20000CDC20000D9
:10001000CBC20000C9C20000C7C20000C5C20000B8
:10002000C3C20000C1C20000BFC20000BDC20000C8
:10003000BBC20000B9C20000B7C200000C940C2C77
:10004000B3C200000C94DF2BAFC20000ADC20000B1
:100050000C94752CA9C20000A7C200000C948B2A36
:10006000A3C200000C94AE280C9485289DC2000009
:100070009BC2000099C2000097C2000095C2000018
:100080000C94B22B91C200008FC200008DC2000000
:100090008BC2000089C2000087C2000085C2000038
:1000A00083C2000081C200000C94852B7DC2000039
:1000B0007BC2000079C2000077C200000C94582B6C
:1000C00073C2000071C200006FC200006DC2000068
:1000D0006BC2000069C2000067C2000065C2000078
:1000E00063C2000068096D0972097C098609FF096D
:1000F00090099809A009AA09B409BE09CD09D70930
:10010000FF09E109EB09F5097F0A8C0A950A9E0AA5
:10011000AB0AB40AB90EB90EB90EB90EB90EC10ABE
:10012000CE0ADB0AB90EE80AF10AFA0A070B100B2D
:10013000190B220B2B0B340BB90E3D0B460B4F0B3F
:10014000B90EB90EB90E580B610B6A0BB90EB90E88
:10015000730B800BB90EB90EB90E8D0B9A0BA70B52
:10016000B90EB40BBD0BC60BB90EB90EB90ECF0B41
:10017000D80BE10BB90EEE0BFB0B080CB90EB90E48
:10018000B90E150C220C2F0CB90E3C0C490C560C58
:10019000B90EB90EB90E630C700C7D0CB90E8A0C39
:1001A000930C9C0CB90EB90EB90EC00CCD0CDA0C28
:1001B000B90EE70CF40C010DB90EB90EB90E0E0D07
:1001C000170D200DB90EB90EB90EB90EB90EB90E34
:1001D000B90E290D320D3B0DB90E440D4D0D560DC6
:1001E000B90EB90EB90E5F0D6C0D790DB90E860DF5
:1001F000930DA00DB90EB90EB90EAD0DBA0DC70D08
:10020000B90ED40DDD0DE60DB90EB90EB90EEF0D18
:10021000F80D010EB90EB90EB90EB90EB90EB90E20
:10022000B90EB90EB90EB90EB90EA50CAE0CB70CBD
:10023000B90EB90EB90EB90EB90EB90EB90EB90E86
:10024000B90EB90EB90EB90EB90EB90EB90EB90E76
:10025000B90EB90EB90EB90EB90EB90EB90EB90E66
:10026000B90EB90EB90EB90EB90EB90EB90EB90E56
:10027000B90EB90EB90EB90EB90EB90EB90EB90E46
:10028000B90EB90EB90EB90EB90EB90EB90EB90E36
:10029000B90EB90EB90EB90EB90E0A0E130E200E14
:1002A000B90E2D0E360E430EB90EB90EB90E500E04
:1002B000590E660EB90E730E7C0E890EB90EB90E6C
:1002C000B90E960E9F0EAC0E1E272127102714275D
:1002D0001A275827252729272F27332737273D2750
:1002E0004127452758274B274F2753274E414E4933
:1002F0004E495459494E46CDCCCC3D0AD7233C17E4
:10030000B7D13877CC2B329595E6241FB14F0A0030
:100310000020410000C84200401C4620BCBE4CCA20
:100320001B0E5AAEC59D7400407A10F35A00A0729D
:100330004E18090010A5D4E80000E8764817000020
:10034000E40B54020000CA9A3B000000E1F50500EE
:100350000080969800000040420F000000A0860137
:10036000000000102700000000E803000000006407
:1003700000000000000A0000000000010000000072
:10038000002C76D888DC674F0823DFC1DFAE59E147
:10039000B1B796E5E3E453C63AE651997696E8E6B6
:1003A000C28426EB898C9B62ED407C6FFCEFBC9C89
:1003B0009F40F2BAA56FA5F490055A2AF75C936B9B
:1003C0006CF9676DC11BFCE0E40D47FEF520E6B556
:1003D00000D0ED902E0300943577050080841E0830
:1003E0000000204E0A000000C80C333333330F984E
:1003F0006E12831141EF8D2114893BE65516CFFE15
:10040000E6DB18D1844B381BF77C1D901DA4BBE4A0
:1004100024203284725E228100C9F124ECA1E53DE2
:100420002700000A0B02090C0D0E08070304010047
:1004300000000000000000000000000000000000BC
:100440000000000000000000000000000012111079
:10045000000000000000000000000000000000009C
:100460000000000000000000002100240027002AF6
:10047000002D003000330001010000040107010AD3
:100480000100002200250028002B002E003100343E
:100490000002010000050108010B010000200023FB
:1004A00000260029002C002F00320000010000036C
:1004B00001060109010505050507050808080802E8
:1004C0000202020A0A0808040404040101010101ED
:1004D0000101010303030303030303040707070CDC
:1004E0000C0C0C0C0C0C0C02020202060606060692
:1004F0000606060B0B0B0B0B0B0B0B01021020203F
:100500000808102040102040800201020108040267
:1005100001010204081020408080402010080402DD
:100520000180040201804020100804020108040236
:10053000010102040810204080010204081020403C
:100540008000E64BE14B11241FBECFEFD1E2DEBFAE
:10055000CDBF00E00CBF17E0A0E0B2E0E2E5FCEAAE
:1005600000E00BBF02C007900D92A634B107D9F787
:100570002EE0A6E4B7E001C01D92AF3DB207E1F75F
:1005800012E0C2EAD2E000E006C021970109802F04
:10059000FE010E940B55C13AD10780E00807A9F778
:1005A0000E9441420C9418562BCDCF92DF92EF92CD
:1005B000FF920F931F93CF93DF937C016B018A010E
:1005C000E9010E949211F601EE0FFF1FEE0FFF1FCF
:1005D000E85AF84F80819181F701918380830E94CE
:1005E0009211000F111F000F111FF801E85AF84F68
:1005F00081E0408151816281738141305105610503
:10060000710509F080E0F70182870E949211CC0FFA
:10061000DD1FCC0FDD1FC85AD84F88819981AA8170
:10062000BB81F70182839383A483B58316821782EB
:1006300010861186DF91CF911F910F91FF90EF905F
:10064000DF90CF900895EF92FF920F931F93CF9377
:10065000DF93EC010E94921100919C0810919D087B
:100660000E949211E090AC08F090AD080E949211A7
:100670002091C4083091C508A701B801CE01409669
:100680000E94E5360E9492110091A0081091A108E5
:100690000E949211E090B008F090B1080E9492116F
:1006A0002091C8083091C908A701B801CE01805730
:1006B0009F4F0E94E5360E9492110091A40810916C
:1006C000A5080E949211E090B408F090B5080E942D
:1006D00092112091CC083091CD08A701B801CE012C
:1006E000805F9E4FDF91CF911F910F91FF90EF9010
:1006F0000C94E536CF92DF92EF92FF920F931F9307
:10070000CF93DF93EC018AE190E09C8F8B8F8BE19C
:1007100090E09E8F8D8F89E190E098A38F8F8FE07E
:1007200090E09AA389A38EE190E09CA38BA38EE036
:1007300090E09EA38DA385E490E098A78FA384E426
:1007400090E09AA789A7FE01E057FF4F80E290E072
:100750009487838781E290E0968785878FE190E098
:10076000908B8787128A118A148A138A168A158AAF
:1007700083E490E0908F878B82E490E0928F818F6A
:10078000E058FF4F83E290E09487838784E290E013
:100790009687858782E290E0908B8787128A118AFC
:1007A000148A138A168A158A81E490E0908F878BC9
:1007B00080E490E0928F818FEB51FF4F1182108285
:1007C000329611821082329611821082CE010E94DE
:1007D000F32CCE010E94A338CE0180579E4F41E0FA
:1007E00050E0FC01538F428FDE01A455BE4F24E040
:1007F00030E05B963C932E935A976E01F8E3CF1A44
:10080000FEEFDF0A28E030E0F601338F228F20E18F
:1008100030E0FC013183208321E130E03583248303
:100820002FEF3FEF338322833783268362856087F0
:100830006385618767E170E011967C936E9368E150
:1008400070E015967C936E93149713963C932E93B9
:10085000129717963C932E9316971A966C911A97A7
:1008600018966C9318971B966C911B9719966C931E
:1008700019976DE170E0F601718360836CE170E0BF
:1008800075836483338322833783268362856087FD
:1008900063856187BE0166537D4FFB016081718175
:1008A0008E0102541D4FF801008111817E01F8E490
:1008B000EF1AFDEFFF0AF701E080F180FC01F78AF3
:1008C000E68A158B048B6130710519F4318F208F06
:1008D00003C0FC01518F408FCE0184539D4FFC011A
:1008E000808191819E0120543D4FF9012081318109
:1008F000AE0146545D4FFA014081518157965C9399
:100900004E93569755963C932E935497019719F40E
:100910008FEF9FEF02C081E090E059969C938E93F9
:100920005897DE01A253BD4F8D919C9111971C9752
:100930002D913C91C454DD4F48815981F601578B6C
:10094000468B358B248B019719F48FEF9FEF03C0F3
:1009500081E090E0F601918F808FDF91CF911F9120
:100960000F91FF90EF90DF90CF9008952F923F92DC
:100970004F925F926F927F928F929F92AF92BF92AF
:10098000CF92DF92EF92FF920F931F93CF93DF935B
:10099000CDB7DEB7C058D1090FB6F894DEBF0FBE91
:1009A000CDBF8C01FC01108211821282138214824D
:1009B0001582168217821086118612861386148677
:1009C0001586168617862C01F0E14F0E511CC201C8
:1009D0000E940438380180E9680E711CC3010E942E
:1009E00004384801E0EF8E1AEEEF9E0AC4010E941F
:1009F00004385801F0E7AF1AFEEFBF0AC5010E94A4
:100A00007223680184E5C81A8EEFD80AC6010E94D5
:100A100072237801E8E3EE1AEEEFFE0AC7010E94A6
:100A200072236EE973E0C8018C519E4F0E947128B9
:100A3000F801E651FE4F1182108232961182108227
:100A40003296118210823296118210823296108272
:100A50003196108231961082319611821082329630
:100A60001182108232961182108232961082319653
:100A70001082319610823196108211821282138276
:100A8000349610821182128213823496108211825F
:100A9000128213823496108211821282138234964B
:100AA0001082118212821382349610821182128275
:100AB000138234961082118212821382349610822D
:100AC0001182128213823496108211821282138252
:100AD000349610821182128213823496108211820F
:100AE00012821382349610821182128213823496FB
:100AF0001082118212821382349610821182128225
:100B000013823496108211821282138234961082DC
:100B100031961082319610823196108211821282A3
:100B200013823496108211821282138234961082BC
:100B3000118212821382349610823196108231967D
:100B40001082319610823196108231961082319641
:100B50001082319610823196108231961082319631
:100B60001082319610823196108231961082319621
:100B70001082319610823196108231961082319611
:100B80001082319610823196108231961082319601
:100B90001082319610823196108211821282138255
:100BA000349610821182128213823496108211823E
:100BB00012821382D801A359BD4F8CE0E5E1F3E026
:100BC00001900D928A95E1F7F801E758FD4F1082E8
:100BD0001182128213823496108211821282138241
:100BE00034961082118212821382349611821082FE
:100BF00032961182108232961182108232961082C1
:100C00001182128213823496108211821282138210
:100C100034961082118212821382349610821182CD
:100C200012821382349610821182128213823496B9
:100C300010821182128213823496118210823296AF
:100C400011821082329611821082329610821182A5
:100C50001282138234961082118212821382349689
:100C60001082118212821382349610823196108281
:100C70003196108231961182108232961182108242
:100C8000329611821082329611821082329611822F
:100C90001082329611821082329611821082329620
:100CA0001182108232961182108232961182108245
:100CB00032961182108232961182108232961182FF
:100CC00010823296118210821801FCE22F1AFDEF79
:100CD0003F0AF1011082CE0101960E94043880E89B
:100CE000FE013196D20101900D928A95E1F7CE0175
:100CF00001960E94043880E8FE013196D3010190EC
:100D00000D928A95E1F7CE0101960E94043880E8A1
:100D1000FE013196D40101900D928A95E1F788E5A4
:100D2000F801848BEC56FF4F89E58083E058FF4F34
:100D30008AE58083CE0101960E9472238CE1FE0138
:100D40003196D50101900D928A95E1F7CE01019679
:100D50000E9472238CE1FE013196D60101900D9222
:100D60008A95E1F7CE0101960E9472238CE1FE0183
:100D70003196D70101900D928A95E1F7C801BADC4E
:100D8000F1011082C058DF4F0FB6F894DEBF0FBEDE
:100D9000CDBFDF91CF911F910F91FF90EF90DF902A
:100DA000CF90BF90AF909F908F907F906F905F900B
:100DB0004F903F902F9008950F931F93CF93DF9301
:100DC0008B01EA018DE293E00E94B33F88EA94E050
:100DD0000E94B33FF80184810E94F43FCE010E943B
:100DE000F5400E94181FDF91CF911F910F910C9435
:100DF000221ECF92DF92EF92FF920F931F93CF9319
:100E0000DF93CDB7DEB728970FB6F894DEBF0FBEDD
:100E1000CDBF8B016A018C519E4F7C0169E273E06A
:100E20000E94332868EA74E0C7010E943328F80161
:100E3000848189831A8241E050E08E010F5F1F4F49
:100E4000B801C7010E94A7274AE0B801C6010E9465
:100E50001A4EF80101900020E9F73197AF01401BCD
:100E6000510BB801C7010E94A7270E94181FBC019F
:100E7000C8010E94DC1DB801C7010E944128898178
:100E80009A810E94554D28960FB6F894DEBF0FBE8A
:100E9000CDBFDF91CF911F910F91FF90EF90DF9029
:100EA000CF900895FC01DB01A759BF4F8C91882397
:100EB00019F022E030E002C020E030E0DB01A5596B
:100EC000BF4F8C91882311F023E030E0DB01A6595D
:100ED000BF4F8C91882311F024E030E0DB01A4594E
:100EE000BF4F8C91882311F026E030E0DA018D911C
:100EF0009C918217930721F091E0121613060CF0D3
:100F000090E0DA012D933C93992319F0A901CF01C8
:100F100070CF08958F929F92AF92BF92CF92DF923F
:100F2000EF92FF920F931F93CF93DF93EC0185E233
:100F300093E00E94B33F87EB94E00E94B33F6E01C1
:100F400080E7C81A8EEFD80AC6010E9452230E9479
:100F50006D524B015C01FE01E359FD4F60817181CF
:100F6000828193810E946D529B01AC01C501B40145
:100F70000E945B5442E00E94264087EC94E00E946D
:100F8000B33F7E01E4E5EE1AEEEFFE0AC7010E94D0
:100F900052230E946D524B015C01FE01EF58FD4F40
:100FA00060817181828193810E946D529B01AC01AD
:100FB000C501B4010E945B5442E00E94264087EDC7
:100FC00094E00E94B33F8E0108531E4FC8010E9457
:100FD00052230E946D524B015C01CB58DD4F68815A
:100FE00079818A819B810E946D529B01AC01C50170
:100FF000B4010E945B5442E00E9426400E94181FE8
:101000000E94221E81E293E00E94B33F87EB94E0AE
:101010000E94B33FF601A08DB18D208931894289AC
:1010200053890E94BF530E94FF3F87EC94E00E94C7
:10103000B33FF701A08DB18D208931894289538951
:101040000E94BF530E94FF3F87ED94E00E94B33F90
:10105000F801A08DB18D20893189428953890E9480
:10106000BF530E94FF3F0E94181FDF91CF911F9135
:101070000F91FF90EF90DF90CF90BF90AF909F9037
:101080008F900C94221ECF93DF938091890B9091C7
:101090008A0B892B51F485ED92E00E94C04CEC0143
:1010A00065DCD0938A0BC093890B8091890B90915A
:1010B0008A0BDF91CF910895CF93DF93EC012AEC57
:1010C00030E04BEC50E069EC70E06FDA2EEC30E091
:1010D0004FEC50E06DEC70E0CE010C9666DA24ED3A
:1010E00030E045ED50E063ED70E0CE0148965DDA0A
:1010F00028ED30E049ED50E067ED70E0CE018496D8
:1011000054DA2EED30E04FED50E06DED70E0CE01A1
:10111000C096DF91CF9149CACF93DF938091870B1F
:101120009091880B892BE9F48CE390E00E94C04CED
:10113000EC01FC01CC96118210823C96E817F9076D
:10114000D1F7198218821D861C86198E188E1DA251
:101150001CA219AA18AACE01AFDFD093880BC093A6
:10116000870B8091870B9091880BDF91CF91089529
:10117000EF92FF920F931F93CF93DF93162F072FBA
:101180007A014115510559F4862F0E94E42831E077
:1011900020E0019709F030E0C32FD22F26C0413064
:1011A000510509F5262F663310F02AEC260F8091A1
:1011B0007B00922F9870877F892B80937B0027700C
:1011C000206420937C0080917A00806480937A0070
:1011D00080917A0086FDFCCFC091780080917900E3
:1011E000D0E0D82B02C0C0E0D0E082E0E816F104E5
:1011F00010F58DE994E00E94B33F88EA94E00E94E4
:10120000B33F81EA94E00E94B33F812F902F0E9468
:10121000F54088EA94E00E94B33F83EA94E00E949C
:10122000B33FCE010E94F5400E94181F0E94221E6B
:1012300080E090E002C081E090E0DF91CF911F91CB
:101240000F91FF90EF9008950F931F93CF93DF932B
:101250008B01EA01AB01415051094433510508F0BB
:10126000D4C02230310508F0D0C048E3429FF001DD
:10127000439FF00D1124E60FF71FE80FF91F81E0DF
:101280008083232B11F46C2F07C061E0802F0E9414
:10129000002A209739F460E0802F0E940C2980E01A
:1012A00090E0B5C0CF3FD10509F4ADC0F801EF5DC6
:1012B000FB4FE4918E2F90E0FC013197E231F10574
:1012C00008F09DC08827EE58FF4F8F4F0C940B55A8
:1012D00084B5806884BDC7BDE2CF84B5806284BD1B
:1012E000C8BDDDCF80918000806880938000D0935E
:1012F0008900C0938800D3CF809180008062809362
:101300008000D0938B00C0938A00C9CF8091800069
:10131000886080938000D0938D00C0938C00BFCFF5
:101320008091B00080688093B000C093B300B7CFC5
:101330008091B00080628093B000C093B400AFCFC2
:1013400080919000806880939000D0939900C09322
:101350009800A5CF80919000806280939000D093F8
:101360009B00C0939A009BCF8091900088608093EF
:101370009000D0939D00C0939C0091CF8091A000DD
:1013800080688093A0008091A0008F7B8093A00054
:10139000D093A900C093A80082CF8091A000806262
:1013A0008093A000D093AB00C093AA0078CF809127
:1013B000A00088608093A000D093AD00C093AC00E3
:1013C0006ECF80912001806880932001D093290105
:1013D000C093280164CF8091200180628093200116
:1013E000D0932B01C0932A015ACF809120018860AD
:1013F00080932001D0932D01C0932C0150CFC03891
:10140000D1050CF448CF61E047CF81E090E0DF9157
:10141000CF911F910F9108958091850B9091860B2C
:10142000892BA1F480E790E00E94C04CFC01F99662
:101430009C0123593F4FDF01D8971C921192E2176C
:10144000F307C9F79093860B8093850B8091850BEA
:101450009091860B08950F931F93CF93DF93FC0118
:101460002081318121153105D1F1EC01822F0E94BB
:10147000E42821E0892B09F420E02B876A852617D0
:1014800029F01E821F82188619860BC08E819F81CB
:10149000A885B9850196A11DB11D8E839F83A8875C
:1014A000B9870E811F81288539858A819B81AC810E
:1014B000BD81081719072A073B078CF081E06827D0
:1014C00088810E940C290990D881C02DA5DF40E0B9
:1014D00050E0BE01DF91CF911F910F9149CEDF9176
:1014E000CF911F910F910895603E710508F041C49E
:1014F000FB018827EC57FF4F8F4F0C940B5581E071
:1015000090E0A0E0B0E08093580790935907A09333
:101510005A07B0935B07089510925C0710925D071D
:1015200010925E0710925F07089510926007109264
:1015300061071092620710926307089581E090E0BE
:10154000A0E0B0E08093640790936507A0936607DE
:10155000B093670708951092680710926907109278
:101560006A0710926B07089583E090E0A0E0B0E076
:1015700080936C0790936D07A0936E07B0936F07ED
:10158000089588E790E0A0E0B0E08093840790930E
:101590008507A0938607B0938707089588E790E0B2
:1015A000A0E0B0E08093880790938907A0938A0712
:1015B000B0938B07089588E790E0A0E0B0E08093B7
:1015C0008C0790938D07A0938E07B0938F07089593
:1015D0001092940710929507109296071092970711
:1015E0000895109298071092990710929A071092F6
:1015F0009B07089581E090E0A0E0B0E080939C0715
:1016000090939D07A0939E07B0939F070895109213
:10161000A0071092A1071092A2071092A3070895A5
:101620001092A4071092A5071092A6071092A70780
:1016300008951092A8071092A9071092AA07109275
:10164000AB0708951092AC071092AD071092AE0749
:101650001092AF0708951092B0071092B107109240
:10166000B2071092B30708951092B4071092B5070D
:101670001092B6071092B70708951092BC07109207
:10168000BD071092BE071092BF0708951092C007C1
:101690001092C1071092C2071092C30708951092CA
:1016A000C4071092C5071092C6071092C707089585
:1016B0001092D4071092D5071092D6071092D70730
:1016C00008951092D8071092D9071092DA07109255
:1016D000DB0708951092DC071092DD071092DE07F9
:1016E0001092DF07089581E090E0A0E0B0E08093E1
:1016F000E8079093E907A093EA07B093EB070895F2
:1017000081E090E0A0E0B0E08093EC079093ED07DB
:10171000A093EE07B093EF0708958CE291E0A0E06C
:10172000B0E08093FC079093FD07A093FE07B09371
:10173000FF0708958CE291E0A0E0B0E080930008FC
:1017400090930108A0930208B093030808958CE2D7
:1017500091E0A0E0B0E08093040890930508A09386
:101760000608B0930708089510920C0810920D080F
:1017700010920E0810920F080895109210081092FF
:10178000110810921208109213080895109214086C
:1017900010921508109216081092170808951092CA
:1017A0002408109225081092260810922708089500
:1017B000109228081092290810922A0810922B08DB
:1017C000089581E090E0A0E0B0E080932C08909331
:1017D0002D08A0932E08B0932F08089585E090E07F
:1017E000A0E0B0E08093340890933508A0933608C9
:1017F000B0933708089585E090E0A0E0B0E08093D2
:10180000380890933908A0933A08B0933B0808959C
:1018100089E190E0A0E0B0E080933C0890933D081F
:10182000A0933E08B0933F08089582E390E0A0E0C3
:10183000B0E080934C0890934D08A0934E08B0936D
:101840004F08089582E390E0A0E0B0E08093500854
:1018500090935108A0935208B0935308089582E3DF
:1018600090E0A0E0B0E08093540890935508A093D6
:101870005608B0935708089582E390E0A0E0B0E0E6
:1018800080935C0890935D08A0935E08B0935F0816
:10189000089582E390E0A0E0B0E080936008909328
:1018A0006108A0936208B0936308089582E390E012
:1018B000A0E0B0E08093640890936508A093660868
:1018C000B0936708089580E991E0A0E0B0E08093CC
:1018D000740890937508A0937608B09377080895DC
:1018E00080E991E0A0E0B0E08093780890937908D7
:1018F000A0937A08B0937B08089580E991E0A0E076
:10190000B0E080937C0890937D08A0937E08B0930C
:101910007F08089510928408109285081092860816
:1019200010928708089510928808109289081092E2
:101930008A0810928B08089510928C0810928D08D6
:1019400010928E0810928F08089510929C091092A0
:101950009D0910929E0910929F0908951092A00966
:101960001092A1091092A2091092A3090895109251
:10197000A4091092A5091092A6091092A70908952A
:1019800088E592E0A0E0B0E080939C0890939D08E9
:10199000A0939E08B0939F08089588E592E0A0E088
:1019A000B0E08093A0089093A108A093A208B09300
:1019B000A308089588E592E0A0E0B0E08093A40831
:1019C0009093A508A093A608B093A70808958EE168
:1019D00090E0A0E0B0E08093AC089093AD08A093B5
:1019E000AE08B093AF0808958EE190E0A0E0B0E0BB
:1019F0008093B0089093B108A093B208B093B30855
:101A000008958EE190E0A0E0B0E08093B408909358
:101A1000B508A093B608B093B70808951092C4080B
:101A20001092C5081092C6081092C7080895109227
:101A3000C8081092C9081092CA081092CB080895DD
:101A40001092CC081092CD081092CE081092CF08B8
:101A500008951092EC081092ED081092EE08109282
:101A6000EF0808951092F0081092F1081092F20811
:101A70001092F30808951092F4081092F50810924D
:101A8000F6081092F70808951092FC081092FD08CD
:101A90001092FE081092FF0808951092000910920B
:101AA0000109109202091092030908951092040985
:101AB000109205091092060910920709089585E011
:101AC00090E0A0E0B0E08093140990931509A093F2
:101AD0001609B0931709089585E090E0A0E0B0E002
:101AE0008093180990931909A0931A09B0931B09C0
:101AF000089585E090E0A0E0B0E080931C09909309
:101B00001D09A0931E09B0931F09089584EB95E168
:101B1000A0E0B0E08093240990932509A0932609C2
:101B2000B0932709089584EB95E1A0E0B0E080939D
:101B3000280990932909A0932A09B0932B090895A5
:101B400084EB95E1A0E0B0E080932C0990932D09FF
:101B5000A0932E09B0932F09089585E090E0A0E0AE
:101B6000B0E080933C0990933D09A0933E09B09367
:101B70003F09089585E090E0A0E0B0E0809340093F
:101B800090934109A0934209B0934309089585E0D9
:101B900090E0A0E0B0E08093440990934509A093C1
:101BA0004609B0934709089510924C0910924D09C7
:101BB00010924E0910924F090895109250091092F8
:101BC0005109109252091092530908951092540924
:101BD00010925509109256091092570908951092C3
:101BE00064091092650910926609109267090895B8
:101BF000109268091092690910926A0910926B0993
:101C0000089510926C0910926D0910926E0910924D
:101C10006F09089510927C0A10927D0A10927E0A34
:101C200010927F0A08958CE390E0A0E0B0E08093EA
:101C3000800A9093810AA093820AB093830A089540
:101C400081E090E0A0E0B0E08093840A9093850A60
:101C5000A093860AB093870A089510928C0A109276
:101C60008D0A10928E0A10928F0A08958CE390E0EC
:101C7000A0E0B0E08093900A9093910AA093920A1A
:101C8000B093930A089581E090E0A0E0B0E08093E3
:101C9000940A9093950AA093960AB093970A089590
:101CA0001092A40A1092A50A1092A60A1092A70AEE
:101CB00008958CE390E0A0E0B0E08093A80A9093B0
:101CC000A90AA093AA0AB093AB0A089581E090E014
:101CD000A0E0B0E08093AC0A9093AD0AA093AE0A66
:101CE000B093AF0A08951092B40A1092B50A1092F8
:101CF000B60A1092B70A08958CE390E0A0E0B0E035
:101D00008093B80A9093B90AA093BA0AB093BB0A19
:101D1000089581E090E0A0E0B0E08093BC0A909349
:101D2000BD0AA093BE0AB093BF0A08951092CC0AD0
:101D30001092CD0A1092CE0A1092CF0A08958CE329
:101D400090E0A0E0B0E08093D00A9093D10AA093F5
:101D5000D20AB093D30A089581E090E0A0E0B0E009
:101D60008093D40A9093D50AA093D60AB093D70A49
:101D70000895660F771F660F771FFB01E85AF84F2B
:101D8000108211821282138208958FEF9FEF0895BF
:101D90004F925F926F927F928F929F92AF92BF927B
:101DA000CF92DF92EF92FF92CF93DF935B01EB0133
:101DB000CC0FDD1FCE010E948353482E512C612C85
:101DC000712CCE0101960E948353C82ED12CE12C98
:101DD000F12C8DE8A81AB10883E0A816B10488F5A3
:101DE000CE0144960E948353882E912CA12CB12CB5
:101DF000CE0145960E948353482F50E060E070E08A
:101E00008FEF88169104A104B104A9F44F3F510546
:101E10006105710581F48FEF481651046104710466
:101E200081F48FEFC816D104E104F10451F46FEF8F
:101E30007FEFCB012BC040385105610571056CF077
:101E4000F6CF80E8C816D104E104F10484F740E03D
:101E500050E0BA01812C912C5401FE2CED2CDC2C8D
:101E6000CC24C40CD51CE61CF71C540199248824EE
:101E7000C80CD91CEA1CFB1C742F66275527442765
:101E8000CB01BA016C0D7D1D8E1D9F1DDF91CF9181
:101E9000FF90EF90DF90CF90BF90AF909F908F908A
:101EA0007F906F905F904F90089585EA94E00E9434
:101EB000B33F81E393E00E94B33F0E94181F0E944A
:101EC000221E80E090E008950C94554D0C94554DE1
:101ED0000C94554D0C94554D0C94554D0C94554DFA
:101EE0000C94554D0C94554D4F925F926F927F928A
:101EF0008F929F92AF92BF92CF92DF92EF92FF921A
:101F00000F931F93CF93DF9300D01F92CDB7DEB70F
:101F1000FB011689078982889388A684B784C284C6
:101F2000D384E484F5844680578060847184428140
:101F300053816481758149835A836B837C83A3D8E1
:101F40001F921F921F920F931F9393018201498149
:101F50005A816B817C8115D30F900F900F900F9059
:101F60000F9080E090E00F900F900F900F90DF9116
:101F7000CF911F910F91FF90EF90DF90CF90BF9086
:101F8000AF909F908F907F906F905F904F9008954B
:101F9000CF93DF93EB0120E030E040E85FE36A811C
:101FA0007B818C819D810E94675281110CC08AEADD
:101FB00094E00E94B33F67D8FC01EC5AFF4F1082B7
:101FC00011821282138220E030E040E85FE36E81EC
:101FD0007F81888599850E94675281110CC08AEBA8
:101FE00094E00E94B33F4FD8FC01EC52FF4F1082A7
:101FF00011821282138220E030E040E85FE36A85BC
:102000007B858C859D850E94675281110CC08AEC6E
:1020100094E00E94B33F37D8FC01EC5AFE4F108287
:102020001182128213820E94181F0E94221E80E0D9
:1020300090E0DF91CF9108950E94181F0E94751EB5
:1020400080E090E008958AED94E00E94B33F0E9402
:10205000181F0E947F1F0E94181F0E94341EDCD987
:1020600040E050E068E070E083D8D6D940E050E02E
:1020700069E070E07DD8D0D940E050E06AE070E0DF
:1020800077D8CAD940E050E06DE070E071D880E0C8
:1020900090E00895683571050CF052C06535710502
:1020A0000CF095C06C32710554F5693271050CF075
:1020B0008EC06831710594F46F3071050CF087C0E3
:1020C0006630710544F4623071050CF080C0672BF6
:1020D00009F07BC07CC06B50710974C0623271051D
:1020E0003CF46F3171050CF072C0695171096AC01E
:1020F000645271096230710508F067C068C06034CD
:1021000071058CF46D3371050CF061C06633710597
:102110003CF4633371050CF05AC06D52710952C022
:10212000675371094FC06A3471053CF46734710517
:102130000CF04DC06154710945C06155710942C030
:102140006638710514F5633871050CF040C06237CC
:1021500071057CF46F367105D4F56836710534F479
:1021600065367105A4F56B5571092CC06956710966
:1021700029C06C37710534F46937710544F563572C
:10218000710920C06D5771091DC0603D71057CF457
:102190006D3C7105E4F46439710534F461397105FD
:1021A000B4F46D5871090EC0695C71090BC06A3DC9
:1021B000710534F4673D710554F4635D710902C023
:1021C0006D5D71096330710510F080E0089581E064
:1021D00008950F931F93CF93DF938C01C0E0D0E05D
:1021E000BE01C80157DF882319F0BE01C8017CD9A0
:1021F0002196C13ED105A1F7DF91CF911F910F919B
:102200000895EF92FF920F931F93CF93DF9300D027
:102210001F92CDB7DEB78B017B01EE0CFF1C622F46
:10222000C70129833A834B835C830E948B532981A6
:102230003A814B815C81992757FD9A95852F742FA0
:10224000632FC70101960E948B530D5811092981F4
:102250003A814B815C8103301105A8F4BA019927BA
:1022600077FD9095892FC70144960E948B53298151
:102270003A814B815C81652F772788279927C70191
:1022800045960E948B5380E090E00F900F900F9046
:102290000F90DF91CF911F910F91FF90EF900895D4
:1022A000CF92DF92EF92FF92CF93DF93EB01F2DEBA
:1022B000882359F1FE01EE0FFF1FEE0FFF1FE85AB2
:1022C000F84FC080D180E280F38081EE94E00E94DC
:1022D000B33F88EA94E00E94B33F81EA94E00E9411
:1022E000B33FCE010E94F54088EA94E00E94B33FDC
:1022F00083EA94E00E94B33FC701B6010E94FF3F0A
:102300000E94181F0E94221E04C085EE94E00E94C5
:10231000B33F80E090E0DF91CF91FF90EF90DF90AE
:10232000CF900895EF92FF920F931F93CF93DF9377
:1023300080918B0B90918C0B892B09F064C084E009
:1023400090E00E94C04CEC0160E070E021DD1616C8
:102350001706F4F0CE013DDF98E5E92E97E0F92E5F
:1023600000E010E0B801CE0195DE882341F0F701CE
:102370002081318142815381B801CE0142DF0F5F5C
:102380001F4FF4E0EF0EF11C0639110559F737C065
:1023900063E070E0CE01FCDC6130710581059105E0
:1023A00061F588E5E82E87E0F82E00E010E0B8013E
:1023B000CE0170DE8823C1F0B801CE01E9DCF7015F
:1023C00060837183828393836F3F7F4F8F4F9F4FD3
:1023D00059F4B801CE0188D8F701208131814281BA
:1023E0005381B801CE010DDF0F5F1F4FF4E0EF0EF8
:1023F000F11C013E1105D9F602C0CE01EADED093F0
:102400008C0BC0938B0B80918B0B90918C0BDF917D
:10241000CF911F910F91FF90EF9008954F925F928F
:102420006F927F928F929F92AF92BF92CF92DF92E4
:10243000EF92FF920F931F93CF93DF9300D01F92E1
:10244000CDB7DEB76FDF409034085090350860900C
:1024500036087090370866DF809038089090390809
:10246000A0903A08B0903B080E94181FC0904C07FB
:10247000D0904D07E0904E07F0904F070E94181F34
:10248000C701B6010E946D526B017C01C301B2010C
:102490000E946D529B01AC01C701B6010E945B54C2
:1024A0002B013C01609150077091510780915207B8
:1024B000909153070E946D526B017C01C501B401DC
:1024C0000E946D529B01AC01C701B6010E945B5492
:1024D000AB01BC0149835A836B837C830E94430810
:1024E0001F921F921F921F921F92812C912CA12C40
:1024F000B12CC12CD12C760149815A816B817C8110
:102500008A019B01B301A2013CD00E9443081F92A3
:102510001F921F921F921F9297018601B301A20181
:1025200030D00E9443081F921F921F921F921F9249
:1025300097018601B701A60124D00FB6F894DEBF3B
:102540000FBECDBF80E090E00F900F900F900F90E6
:10255000DF91CF911F910F91FF90EF90DF90CF907F
:10256000BF90AF909F908F907F906F905F904F90B3
:102570000895089508950895089508950895089573
:1025800008952F923F924F925F926F927F928F9217
:102590009F92AF92BF92CF92DF92EF92FF920F93F2
:1025A0001F93CF93DF93CDB7DEB7E8970FB6F894BC
:1025B000DEBF0FBECDBF1C012A013B010F83188770
:1025C00029873A8760960EAD1FAD6097FC01E359ED
:1025D000FD4F60817181828193810E946D529B01C8
:1025E000AC01C301B2010E94CC520E94C3546B8B58
:1025F0007C8B8D8B9E8BF101EF58FD4F608171813B
:10260000828193810E946D529B01AC016F8178851C
:1026100089859A850E94CC520E94C3546F8B788F13
:10262000898F9A8FF101EB58FD4F60817181828112
:1026300093810E946D529B01AC01C701B6010E94BB
:10264000CC520E94C3546B8F7C8F8D8F9E8F0E94C3
:102650007F2A6F87788B898B9A8BF101E251FE4F2D
:10266000118210823296118210823E96A114B1041A
:1026700061F0C501A0E0B0E04081518162817381C9
:1026800084179507A607B70714F0A080B180F10161
:10269000EE5FFD4F8114910461F0C401A0E0B0E051
:1026A000408151816281738184179507A607B7071E
:1026B00014F080809180F101EA5FFD4F0115110552
:1026C00061F0C801A0E0B0E0408151816281738176
:1026D00084179507A607B70714F0008111819101AF
:1026E000205F3F4F3E872D87C501A0E0B0E0F1019C
:1026F00086A797A7A0ABB1AB2101F0E94F0E511C03
:10270000A12CB12CD2015E968D929D92AD92BC927D
:1027100091973101B0EF6B1ABEEF7B0A20E030E0F9
:10272000F301068F178F20A331A30E94181F0E9468
:10273000181F0E94181F0E94181F40914C075091AB
:102740004D0760914E0770914F074DAB5EAB6FAB7D
:1027500078AF0E94181F8091500790915107A09167
:102760005207B09153078F839887A987BA870E9431
:10277000181F8090540790905507A0905607B0906E
:102780005707F101E758FD4F108211821282138220
:102790003496108211821282138234961082118232
:1027A0001282138234961182108232961182108224
:1027B00032961182108232964DA95EA96FA978AD2A
:1027C000408351836283738334968F819885A98572
:1027D000BA8580839183A283B38334968082918269
:1027E000A282B3826196EFAC61970B891C892D8917
:1027F0003E898D859E850E9422248823F9F08AE5F2
:1028000093E00E94B33F87EB94E00E94B33FF10155
:10281000E85AFF4F6081718182819381EB5EFD4FA9
:1028200020813181428153810E949953CA01B901AB
:102830000E94FF3F0E94181F0E94221E6296EFAC6A
:1028400062970F89188D298D3A8D4F81588569853A
:102850007A85C2010E9422248823F9F086E593E05C
:102860000E94B33F87EC94E00E94B33FF101E8522D
:10287000FF4F6081718182819381E756FE4F2081F5
:102880003181428153810E949953CA01B9010E944A
:10289000FF3F0E94181F0E94221E6396EFAC6397B1
:1028A0000B8D1C8D2D8D3E8DB501A401C3010E94A1
:1028B00022248823F9F082E593E00E94B33F87ED5C
:1028C00094E00E94B33FF101E85AFE4F60817181AC
:1028D00082819381E35EFE4F208131814281538169
:1028E0000E949953CA01B9010E94FF3F0E94181F1C
:1028F0000E94221ED10155961C92F101EB56FF4F0A
:102900001082E058FF4F1082C1010E946D38C10152
:102910000E9471388D859E850E94AB36C2010E944F
:10292000AB36C3010E94AB36F101EB50FE4FFAA368
:10293000E9A381E090E0918380837101F9E0EF1ACF
:10294000FEEFFF0AD7018D939C93810107501E4F24
:10295000F8019183808341E050E06D857E85C1015F
:102960000E94F906D7014D915C91B201C1010E940C
:10297000F906F80140815181B301C1010E94F906B5
:1029800011E0F101EC52FD4F10838D859E850E9470
:102990000F24C2010E940F24C3010E940F2464E689
:1029A00070E080E090E00E94472AC1018E509E4F67
:1029B000DC011C9311961C93A1014C505E4FFA014F
:1029C00010836196FFAD6197F1110FC062962FAD34
:1029D0006297211105C063963FAD6397332339F1A8
:1029E00091012B583F4FF90110826296FFAD62971B
:1029F000F11105C091012B503F4FF90110826396F0
:102A0000FFAD6397F11105C091012B583E4FF901BD
:102A1000108261962FAD6197FC01208362963FADD5
:102A200062973C936396EFAD6397DA01EC938D85E3
:102A30009E850E94F433C2010E94F433C3010E94B8
:102A4000F4338D859E850E942425C2010E94242591
:102A5000C3010E9424250E94181FDC011C968C9142
:102A60008B8B18861F82F101EE50FE4FF88FEF8B93
:102A700091012D503E4F3C8F2B8FA1014C505E4F4A
:102A800058A34F8FC1018B509E4F9EA38DA3D101A0
:102A9000A950BE4FB8A7AFA33796FAA7E9A72B57FF
:102AA00031403CA32BA34F535F4F5CA74BA78C54E3
:102AB0009F4F9EA78DA7A353BF4FB8ABAFA7E256BA
:102AC000FF4FFAABE9AB2D5E3D4F3CAB2BABEF8933
:102AD000F88D808181110BC0AB8DBC8D8C918111E3
:102AE00006C0EF8DF8A18081882309F42BC3FB89F0
:102AF000F11128C34DA15EA16D857E85C1010E94A3
:102B000052074FA158A5B201C1010E94520749A521
:102B10005AA5B301C1010E9452078D859E850E946E
:102B20008E25C2010E948E25C3010E948E25ABA175
:102B3000BCA18C918823E1F08D859E850E94F433A1
:102B40008BA49CA4ADA4BEA4CFA4D8A8E9A8FAA83D
:102B50000BA91CA9910127583D4FA10140575E4F79
:102B60006D857E85C1010E947333EBA1FCA11082AB
:102B7000910128503F4F3C872B87D9018C918823A6
:102B800039F1C2010E94F4334101BAE48B1ABDEF5E
:102B90009B0A5101E3E5AE1AEDEFBE0A6101FAE3CB
:102BA000CF1AFDEFDF0A710125E6E21A2DEFF20AD6
:102BB000810101571D4F910123583D4FA1014455FB
:102BC0005E4FB201C1010E947333AB85BC851C927C
:102BD000F101E858FE4FFC87EB878081882339F1AB
:102BE000C3010E94F4334101F9E48F1AFDEF9F0AFB
:102BF00051012FE4A21A2DEFB20A610138E3C31A82
:102C00003DEFD30A710141E6E41A4DEFF40A810168
:102C10000D561D4F91012F573D4FA10148535E4F57
:102C2000B301C1010E947333AB85BC851C92810145
:102C30000B581F4FF80180818823C1F1E25DFD4FE1
:102C400060817181072E000C880B990B0E946D52D8
:102C50009B01AC01F101E758FD4F608171818281D8
:102C600093810E94F45418160CF5D8011C9264E26A
:102C700074E081010C511E4FC8010E94332869E4A1
:102C800075E0C8010E9433286CE973E0C8010E9416
:102C900033286196BFAD6197BB2309F446C3F101A8
:102CA000EC5AFF4F108211821282138281010B5065
:102CB0001F4FD8018C918823C9F1F101EB55FD4FCD
:102CC00060817181072E000C880B990B0E946D5258
:102CD0009B01AC01F101E358FD4F6081718182815C
:102CE00093810E94F45418160CF5D8011C9264E2EA
:102CF00074E081010C511E4FC8010E94332861E726
:102D000075E0C8010E9433286CE973E0C8010E9495
:102D100033286296BFAD6297BB2309F40BC3F10160
:102D2000EC52FF4F108211821282138281010B58E4
:102D30001E4FF80180818823C1F1EE5CFE4F608157
:102D40007181072E000C880B990B0E946D529B011C
:102D5000AC01F101EF57FD4F608171818281938158
:102D60000E94F45418160CF5D8011C9264E274E029
:102D700081010C511E4FC8010E94332869E975E09A
:102D8000C8010E9433286CE973E0C8010E9433280F
:102D90006396BFAD6397BB2309F4D1C2F101EC5A2E
:102DA000FE4F108211821282138260E08D859E8513
:102DB0000E949D24882339F0F101EC5AFF4F1082C4
:102DC00011821282138260E0C2010E949D24882336
:102DD00039F0F101EC52FF4F1082118212821382FE
:102DE00060E0C3010E949D24882339F0F101EC5A70
:102DF000FE4F1082118212821382F101EB58FF4FB5
:102E00008081AF89B88D8C93E058FF4F8081EB8D26
:102E1000FC8D8083F101EB58FE4F8081AF8DB8A10E
:102E20008C93E152F1404081518162817381E0587D
:102E3000FF4F80809180A280B380E058FF4FC08018
:102E4000D180E280F3804DAB5EAB6FAB78AFF0D753
:102E50004DA95EA96FA978AD40934C0750934D07DB
:102E600060934E0770934F07E3D78092500790927C
:102E70005107A0925207B0925307DAD7C092540775
:102E8000D0925507E0925607F0925707C1010E9471
:102E90006D38EF89F88D8081882309F44AC00E943B
:102EA0007F2A2F85388949895A89621773078407D1
:102EB000950760F40E947F2A2F85388949895A89AD
:102EC0006217730784079507A0F51EC00E947F2A2A
:102ED0006B017C012F85388949895A89C21AD30A26
:102EE000E40AF50AF101EF59FD4F20813181428159
:102EF0005381A8EEB3E00E94B5536C157D058E0595
:102F00009F0508F421C2D6CF0E947F2A6B017C0165
:102F1000F101EF59FD4F2081318142815381A8EEAB
:102F2000B3E00E94B5536C157D058E059F0508F42E
:102F30000BC2AB8DBC8D8C91882309F44AC00E94D2
:102F40007F2A2F85388949895A8962177307840730
:102F5000950760F40E947F2A2F85388949895A890C
:102F60006217730784079507A0F51EC00E947F2A89
:102F70006B017C012F85388949895A89C21AD30A85
:102F8000E40AF50AF101EB59FD4F208131814281BC
:102F90005381A8EEB3E00E94B5536C157D058E05F4
:102FA0009F0508F4E8C1D6CF0E947F2A6B017C01FF
:102FB000F101EB59FD4F2081318142815381A8EE0F
:102FC000B3E00E94B5536C157D058E059F0508F48E
:102FD000D2C1AF8DB8A18C91882309F44AC00E9458
:102FE0007F2A2F85388949895A8962177307840790
:102FF000950760F40E947F2A2F85388949895A896C
:103000006217730784079507A0F51EC00E947F2AE8
:103010006B017C012F85388949895A89C21AD30AE4
:10302000E40AF50AF101E759FD4F2081318142811F
:103030005381A8EEB3E00E94B5536C157D058E0553
:103040009F0508F4AFC1D6CF0E947F2A6B017C0197
:10305000F101E759FD4F2081318142815381A8EE72
:10306000B3E00E94B5536C157D058E059F0508F4ED
:1030700099C187EB9BE00E942E26181619067CF555
:1030800087EB9BE00E940C268F7D8534910539F5F6
:1030900067E075E0C1018C519E4F0E94332882E6A3
:1030A00093E00E94B33FC4D6CDD5F101EB58FF4F5A
:1030B0001082E058FF4F1082E058FF4F1082AF8916
:1030C000B88D1C92EB8DFC8D1082AF8DB8A11C9237
:1030D000B1E0BB8BE1E0F0E0F887EF8304C02F8123
:1030E0003885232B81F06CE175E0C1018C519E4F36
:1030F0000E943328AF89B88D1C92EB8DFC8D108215
:10310000AF8DB8A11C92C1010E94693FF101E0514D
:10311000FE4F808191810196918380838D32914011
:103120000CF4D5CCD101A851BE4F8D919C91119733
:10313000892B09F0CCCC14968D919C91892B09F4A4
:1031400048C1C5CC810108511E4FD8018D919C9179
:10315000892B21F0C1010E94693FF7CF80E395E000
:103160000E94B33F6196BFAD6197BB23F1F0EF8141
:10317000F885EF2BD1F4FB89F1113CC082E493E098
:103180000E94B33F55D65ED562962FAD629722233B
:1031900061F18EE393E00E94B33F4AD653D5639624
:1031A0003FAD639731111AC025C062964FAD62974B
:1031B000442341F08F819885892B21F49B899111BB
:1031C00019C0E7CF6396AFAD6397AA2399F0EF815B
:1031D000F885EF2B79F4FB89F1110CC08AE393E0B9
:1031E0000E94B33F25D62ED505C063969FAD639749
:1031F0009111F4CF85E090E0A9A1BAA18D939C93A1
:10320000910129503E4F388B2F87D9018D939C9384
:10321000810107501E4FF8019183808345E050E003
:103220006D857E85C1010E94F906AF85B8894D91F3
:103230005C91B201C1010E94F906F80140815181FF
:10324000B301C1010E94F906C1010E947538F10164
:10325000EC5AFF4F4081518162817381E058FF4FEA
:10326000C080D180E280F380E058FF4F8080918061
:10327000A280B3804DAB5EAB6FAB78AFD9D54DA913
:103280005EA96FA978AD40934C0750934D076093AA
:103290004E0770934F07CCD5C0925007D09251077C
:1032A000E0925207F0925307C3D580925407909250
:1032B0005507A0925607B0925707C1010E946D387A
:1032C000C1010E947138B4D510D5C1010E948A078E
:1032D000A9A1BAA11D921C92EF85F88911821082D2
:1032E000D8011D921C9240E050E06D857E85C101A1
:1032F0000E94F906EF85F88940815181B201C10130
:103300000E94F906D8014D915C91B301C1010E9460
:10331000F906C1010E947538BB89BB2309F485C138
:1033200087D521E0FC01248780C1E1E0F0E0F88747
:10333000EF83BCCCE1E0F0E0F887EF83F7CCE1E08D
:10334000F0E0F887EF8331CD6EE473E081010C513A
:103350001E4FC8010E9433286CE973E0C8010E9427
:10336000332861EC75E0C8010E94332822E030E088
:1033700038872F83DECD6AE473E081010C511E4F44
:10338000C8010E9433286CE973E0C8010E94332809
:1033900066ED75E0C8010E94332842E050E058878E
:1033A0004F8317CE66E473E081010C511E4FC801B4
:1033B0000E9433286CE973E0C8010E9433286BEE49
:1033C00075E0C8010E94332882E090E098878F83DF
:1033D00050CE11821082F101E251FE4F8081918125
:1033E0008130910509F0F0C023D58C01FC0180816A
:1033F0009181A281B381181619061A061B0644F0A2
:1034000081E090E0A0E0B0E080839183A283B38369
:10341000F80184819581A681B781181619061A06CC
:103420001B0644F081E090E0A0E0B0E08483958347
:10343000A683B783F80180859185A285B385181688
:1034400019061A061B0644F081E090E0A0E0B0E007
:1034500080879187A287B3876EE973E0CE010196DA
:103460000E94712868E275E0CE0101960E9433281F
:1034700067EB74E0CE0101960E94332860914C07FF
:1034800070914D0780914E0790914F070E946D52A9
:103490006B017C01D8016D917D918D919C910E9471
:1034A0006D529B01AC01C701B6010E945B54AB0198
:1034B000BC01CE0101960E94D42767EC74E0CE01D6
:1034C00001960E94332860915007709151078091B6
:1034D0005207909153070E946D526B017C01F801D5
:1034E00064817581868197810E946D529B01AC0138
:1034F000C701B6010E945B54AB01BC01CE0101962D
:103500000E94D42767ED74E0CE0101960E94332813
:103510006091540770915507809156079091570715
:103520000E946D526B017C01D80118966D917D91BE
:103530008D919C911B970E946D529B01AC01C7011C
:10354000B6010E945B54AB01BC01CE0101960E9402
:10355000D427BE016F5F7F4F81010C511E4FC80100
:103560000E94412889819A810E94554D0AC0892B69
:10357000B9F46EE573E081010C511E4FC8010E9441
:10358000332856D4BC01CE01019616D3BE016F5F1D
:103590007F4FC8010E94412889819A810E94554D20
:1035A000F101E251FE4F80819181019683309105B6
:1035B0001CF49183808302C011821082F101E451D6
:1035C000FE4F1182108283CA8230910581F66CE22F
:1035D00075E081010C511E4FC8010E94332867EB32
:1035E00074E0C8010E9433288D859E850E94CF36E5
:1035F000BC01C8010E94042867EC74E0C8010E9465
:103600003328C2010E94CF36BC01C8010E940428A1
:1036100067ED74E0C8010E943328C3010E94CF36D1
:10362000BC01C8010E940428ACCF8EE395E00E9443
:10363000B33F8F8198850E94F5408CE993E00E940A
:10364000B33FF6D32F813885309347072093460741
:10365000C901E8960FB6F894DEBF0FBECDBFDF916B
:10366000CF911F910F91FF90EF90DF90CF90BF907F
:10367000AF909F908F907F906F905F904F903F9012
:103680002F9008950C94554D0C94554D0C94554D18
:103690000C94554D0C94554D0C94554D0C94554D22
:1036A0000C94554D0C94554D0C94554D0C94554D12
:1036B0000C94554D0C94554D0C94554D0C94554D02
:1036C0000F931F93CF93DF93FB01C2A1D3A1068D6C
:1036D000178D8091970B9091980B892B41F481E085
:1036E00090E00E94C04C9093980B8093970B04300D
:1036F000110539F00530110549F4BE0184ED9EE055
:1037000003C0BE0181ED9EE00E94D52A80E090E0DA
:10371000DF91CF911F910F910895EF92FF920F9338
:103720001F93CF93DF93FB01E2A8F3A802A113A19B
:10373000C68DD78D0E940C0A9701A801BE010E9478
:10374000240980E090E0DF91CF911F910F91FF90CD
:10375000EF9008956F927F928F929F92AF92BF9257
:10376000CF92DF92EF92FF920F931F93CF93DF934D
:10377000FB01E2A8F3A886A497A4A0A8B1A8C6A0BC
:10378000D7A062A073A0068D178D0E940C0AEC01D1
:103790009701A301B8010E942409C501B4010E9448
:1037A000472A9701A601B801CE010E94240980E0B2
:1037B00090E0DF91CF911F910F91FF90EF90DF90FC
:1037C000CF90BF90AF909F908F907F906F90089513
:1037D0001F93CF93DF931F92CDB7DEB7FB0162A992
:1037E000168D69830E940C0A6981812F0E94002A2C
:1037F00080E090E00F90DF91CF911F9108950F939B
:103800001F93CF93DF93FB0102A913A9C68DD78D18
:103810000E940C0AA801BE010E94B80880E090E056
:10382000DF91CF911F910F910895662319F08DEAD2
:1038300093E002C086EA93E00C94B33FCF93DF930A
:10384000FB01C68DD78D0E949211BE010E945011BE
:1038500080E090E0DF91CF910895EF92FF920F9377
:103860001F93CF93DF9300D01F92CDB7DEB7FB013C
:1038700022A133A144A155A1068D178D29833A8336
:103880004B835C830E9492117C01FC0182819381B5
:1038900029813A814B815C818F30F7E29F072CF4BC
:1038A0000196F7019383828303C0F701138212828A
:1038B000B801C70129833A834B835C830E944A1075
:1038C00029813A814B815C818823A1F0F801EE0FB8
:1038D000FF1FEE0FFF1FE85AF84F2083318342830A
:1038E0005383B801C7010E940111B801C7010E94AA
:1038F000501104C085EE94E00E94B33F0E948C08F2
:103900000E945C0880E090E00F900F900F900F9065
:10391000DF91CF911F910F91FF90EF9008958F92BB
:103920009F92AF92BF92CF92DF92EF92FF920F934E
:103930001F930E94430862E070E00E947E3A892B48
:10394000D1F40E94430821E02F931F921F921F92EF
:103950001F92812C912CA12CB12CC12CD12C760141
:1039600097018601B701A6010E94C1120F900F9026
:103970000F900F900F9080E090E01F910F91FF90BB
:10398000EF90DF90CF90BF90AF909F908F90089571
:103990008F929F92AF92BF92CF92DF92EF92FF925F
:1039A0000F931F930E94430861E070E00E947E3AEB
:1039B000892BD1F40E9443081F9221E02F931F927C
:1039C0001F921F92812C912CA12CB12CC12CD12C97
:1039D000760197018601B701A6010E94C1120F90DE
:1039E0000F900F900F900F9080E090E01F910F913B
:1039F000FF90EF90DF90CF90BF90AF909F908F900F
:103A000008958F929F92AF92BF92CF92DF92EF92E2
:103A1000FF920F931F930E94430860E070E00E94A2
:103A20007E3A892BD1F40E9443081F921F9221E015
:103A30002F931F921F92812C912CA12CB12CC12C61
:103A4000D12C760197018601B701A6010E94C1120F
:103A50000F900F900F900F900F9080E090E01F91CB
:103A60000F91FF90EF90DF90CF90BF90AF909F901D
:103A70008F9008958F929F92AF92BF92CF92DF92D4
:103A8000EF92FF920F931F930E94430821E02F9320
:103A90001F921F921F921F92812C912CA12CB12C4E
:103AA000C12CD12C760197018601B701A6010E9495
:103AB000C1120F900F900F900F900F9080E090E048
:103AC0001F910F91FF90EF90DF90CF90BF90AF903C
:103AD0009F908F9008958F929F92AF92BF92CF92B6
:103AE000DF92EF92FF920F931F930E9443081F9261
:103AF00021E02F931F921F921F92812C912CA12CB9
:103B0000B12CC12CD12C760197018601B701A601F9
:103B10000E94C1120F900F900F900F900F9080E0B5
:103B200090E01F910F91FF90EF90DF90CF90BF90AA
:103B3000AF909F908F9008958F929F92AF92BF9277
:103B4000CF92DF92EF92FF920F931F930E94430850
:103B50001F921F9221E02F931F921F92812C912C74
:103B6000A12CB12CC12CD12C760197018601B70173
:103B7000A6010E94C1120F900F900F900F900F900E
:103B800080E090E01F910F91FF90EF90DF90CF9039
:103B9000BF90AF909F908F900895089508950895D5
:103BA000089508950895089508950895089508952D
:103BB0000895089508950895EF92FF920F931F932B
:103BC000CF93DF93CDB7DEB72E970FB6F894DEBF55
:103BD0000FBECDBF8C016EE973E00E94712860E0DA
:103BE00076E0C8010E943328609148077091490728
:103BF00080914A0790914B072AE0AE014F5F5F4FDB
:103C00007A010E94244EF70101900020E9F73197D4
:103C1000AF014E195F09B701C8010E94A7276CE9DF
:103C200073E0C8010E943328C8012E960FB6F8949D
:103C3000DEBF0FBECDBFDF91CF911F910F91FF90DF
:103C4000EF90089580E096E00E94B33F60914807AE
:103C50007091490780914A0790914B070E94FF3F5E
:103C60008CE993E00C94B33F0F931F93CF93DF93B2
:103C7000EC0183E096E00E94B33F87E096E00E946B
:103C8000B33F01E91BE0F8016081CE01CEDD8BE09E
:103C900096E00E94B33FF8016181CE01C6DD8FE05E
:103CA00096E00E94B33FF8016281CE01BEDD83E160
:103CB00096E00E94B33FF8016381CE01B6DD87E153
:103CC00096E00E94B33FF8016481CE01AEDD8BE146
:103CD00096E00E94B33FF8016581CE01A6DDCE01DA
:103CE000DF91CF911F910F91ADCFCF92DF92EF92E5
:103CF000FF92CF93DF93EC0188819981AA81BB81E8
:103D0000181619061A061B0644F081E090E0A0E0A0
:103D1000B0E088839983AA83BB838C819D81AE8127
:103D2000BF81181619061A061B0644F081E090E0C0
:103D3000A0E0B0E08C839D83AE83BF8388859985A6
:103D4000AA85BB85181619061A061B0644F081E0E1
:103D500090E0A0E0B0E088879987AA87BB8788E2D7
:103D600095E00E94B33F87EB94E00E94B33F6091DF
:103D70004C0770914D0780914E0790914F070E941C
:103D80006D526B017C01688179818A819B810E94DF
:103D90006D529B01AC01C701B6010E945B5442E029
:103DA0000E94264087EC94E00E94B33F6091500748
:103DB0007091510780915207909153070E946D5264
:103DC0006B017C016C817D818E819F810E946D528F
:103DD0009B01AC01C701B6010E945B5442E00E9406
:103DE000264087ED94E00E94B33F609154077091A4
:103DF000550780915607909157070E946D526B01AD
:103E00007C01688579858A859B850E946D529B011E
:103E1000AC01C701B6010E945B5442E00E942640FB
:103E2000CE01DF91CF91FF90EF90DF90CF900ACF3E
:103E300080918F0B9091900B892B91F58DE090E004
:103E40000E94C04CFC01148610924C0710924D0742
:103E500010924E0710924F07109250071092510780
:103E60001092520710925307109254071092550760
:103E7000109256071092570710928E0B10928D0BCE
:103E8000109248071092490710924A0710924B0768
:103E900010924707109246079093900B80938F0BD8
:103EA00080918F0B9091900B08950F931F93CF9358
:103EB000DF930E9492118C01C0E0D0E0BE01C801E6
:103EC0000E944A10882321F0BE01C8010E945011AF
:103ED0002196C13ED10591F78FE196E00E94B33F54
:103EE000A7DFB0DE80E090E0DF91CF911F910F91CE
:103EF00008959EDFFC01148680E090E00895CF9342
:103F0000DF9385E40E94E428EC0192DF91E0CD2B61
:103F100009F490E09093910B84E40E94E428EC0172
:103F200087DF91E0CD2B09F490E09093920B83E42E
:103F30000E94E428EC017CDF91E0CD2B09F490E0B5
:103F40009093930B82E40E94E428EC0171DF91E0EE
:103F5000CD2B09F490E09093940B81E40E94E42827
:103F6000EC0166DF91E0CD2B09F490E09093950B86
:103F700080E40E94E428EC015BDF91E0CD2B09F4A2
:103F800090E09093960BDF91CF9108958EBD000045
:103F90000DB407FEFDCF8EB5089508950895EBE0AA
:103FA000F1E08081877F80830895EBE0F1E08081FC
:103FB0008860808308958E9808958E9A0895149845
:103FC0000895149A089588980895889A0895CF932B
:103FD000DF93EC018F81882331F061E089890E94B1
:103FE0000C291F8206C060E089890E940C2981E0AB
:103FF0008F83DF91CF910895CF93DF93EC018E8172
:10400000882331F061E08B850E940C291E8206C056
:1040100060E08B850E940C2981E08E83DF91CF9137
:10402000089560E0FC0181890C940C2960E0FC019A
:1040300083850C940C2961E0FC0181890C940C2986
:1040400061E0FC0183850C940C296031710529F134
:1040500070F46230710539F118F4672B31F108956D
:1040600064307105F1F068307105C9F0089560346D
:10407000710579F020F46032710569F008956038B7
:10408000710529F06115714099F460E00FC061E09D
:104090000DC062E00BC063E009C064E007C065E0EA
:1040A00005C066E003C067E001C068E00C94C52C61
:1040B0000895CF92DF92EF92FF920F931F93CF93C9
:1040C000DF938C01D62EEA01FC01E858FF4F808176
:1040D000E62EF12C882309F460C060E0F8018285A7
:1040E0000E940C298D2D0E941741F8018483EE0C4B
:1040F000EF2CEE1CFF08EF2869F08B810E9417411E
:104100008A810E94174189810E94174188810E94FB
:104110001741D6C00E945C410E945C4161E0F801F9
:1041200082850E940C2960E0F80182850E940C299A
:104130008D2D0E94174180E00E94174190E0A0E081
:10414000B0E0BA2FA92F982F882788839983AA8354
:10415000BB8380E00E941741488159816A817B813D
:10416000482B762F652F542F4427488359836A8321
:104170007B8380E00E941741488159816A817B815D
:10418000482B762F652F542F4427488359836A8301
:104190007B8380E00E9417418AC0CFB6F89480915B
:1041A000990B811127C0EAEEF4E08491E0E3F5E099
:1041B0009491E82FF0E0EE0FFF1FE959FB4FA59116
:1041C000B491EC91E92321F461E085E30E940C298C
:1041D00061E085E30E94002A8CB580618CBD8CB5BE
:1041E00080648CBD61E084E30E94002A61E083E387
:1041F0000E94002A8091990B8F5F8093990BCFBE0C
:104200008DE58CBD81E08DBD60E0F80182850E9466
:104210000C298D2DBBDEF8018483EE0CEF2CEE1CF7
:10422000FF08EF2849F08B81B1DE8A81AFDE8981FA
:10423000ADDE8881ABDE44C00E94FA400E94FA40A5
:1042400061E0F8018285E8D760E0F8018285E4D773
:104250008D2D9CDE80E09ADE90E0A0E0B0E0BA2FE9
:10426000A92F982F882788839983AA83BB8380E00E
:104270008DDE488159816A817B81482B762F652F9D
:10428000542F4427488359836A837B8380E07EDEF2
:10429000488159816A817B81482B762F652F542F65
:1042A0004427488359836A837B8380E06FDE48819B
:1042B00059816A817B81482B488359836A837B8338
:1042C00061E0F8018285DF91CF911F910F91FF90FE
:1042D000EF90DF90CF90A0C70F931F93CF93DF9302
:1042E000EC0168EC70E080E090E00E94472A8E814B
:1042F0009F818F3F2FEF920731F061E00E94002AEB
:1043000061E08E8189D78C859D858F3FEFEF9E0779
:1043100019F061E00E94002A888599858F3FFFEFA0
:104320009F0731F061E00E94002A60E0888574D721
:1043300061E08A850E94002A61E08A856DD7FE01CE
:10434000E858FF4F8081882309F45AC061E08091CA
:10435000A80B0E94002A61E08091AC0B0E94002A09
:1043600062E08091AA0B0E94002A4091A80B509114
:10437000A90BFA01E550FB4FE491E093AE0B2091BD
:10438000AA0B3091AB0BF901E550FB4FE491E093A0
:10439000AF0B8091AC0B9091AD0BFC01E550FB4F46
:1043A000E491E093B00BFA01EB54FB4FE491F0E0A1
:1043B000EE0FFF1FEF57FB4F459154915093B20BF7
:1043C0004093B10BF901EB54FB4FE491F0E0EE0F99
:1043D000FF1FE556FB4F259134913093B40B20938A
:1043E000B30BFC01EB54FB4FE491F0E0EE0FFF1F29
:1043F000EF57FB4F859194919093B60B8093B50B3B
:10440000AE01425F5F4F60E8CE0153DEAE014E5E0B
:104410005F4F60E9CE014DDEAE014A595F4FFA01B0
:1044200080819181A281B3819927AA27BB278083AC
:104430009183A283B38361E9CE013BDEAE01465E88
:104440005F4F63E9CE0135DEAE01425E5F4F64E946
:10445000CE012FDEAE014E5D5F4F65E9CE0129DE54
:10446000AE014A5D5F4F6DEACE0123DEAE01465DCF
:104470005F4F63EBCE011DDE8E010E5A1F4FA80168
:104480006CEECE0116DEAE014A5A5F4F6DEECE01E4
:1044900010DEAE01425A5F4F60EFCE010ADEAE0180
:1044A00046595F4FFA0180819181A281B38199279A
:1044B000AA27BB2780839183A283B38362EFCE01B7
:1044C000F8DDF80180819181A281B381807F8860CD
:1044D00080839183A283B383A8016CEECE01E9DDD2
:1044E000F80180819181A281B3819F77AE7F90682E
:1044F00080839183A283B383A8016CEECE01DF9108
:10450000CF911F910F91D5CD0F931F93FC018EEA90
:1045100097E4A1EEBDE380839183A283B3831582E8
:10452000778366833187208713870287558744877F
:1045300016861786108A118A128A138A148A158A97
:10454000168A178A108E118E128E138E148E158E67
:10455000168E178E10A211A212A213A214A215A2D7
:1045600016A217A210A611A612A613A614A615A687
:1045700084E595EBAAEABAEA86A797A7A0ABB1AB08
:104580008AEA94E5A5E9BAE482AB93ABA4ABB5ABF8
:1045900089E299E2A9E4B4E286AB97ABA0AFB1AFF0
:1045A00082E292E4A0E1B0E182AF93AFA4AFB5AFF5
:1045B000DF01DE964FEF5FEF6FEF7BEF4D935D9383
:1045C0006D937C93139714964DE757E76BEB75EB60
:1045D0004D935D936D937C931397149646E555E543
:1045E00069E279E44D935D936D937C9313971496F0
:1045F00042E252E460E470E04D935D936D937C93EE
:104600001397149646E550E86FEF7FEF4D935D9357
:104610006D937C93139714961D921D921D921C927C
:10462000139714961D921D921D921C921397149627
:104630001D921D921D921C921397149640E854E00F
:1046400065E070E04D935D936D937C9313971496A2
:104650001D921D921D921C92139714961D921D92ED
:104660001D921C92139714961D921D921D921C92DE
:10467000139714961D921D921D921C9213971496D7
:1046800040E050E067EF70E04D935D936D937C9355
:10469000139714961D921C92E858FF4F10821F9199
:1046A0000F910895CF93DF93FC01A489B589C08D44
:1046B000D18D2089318942895389A03187E2B80799
:1046C00059F01A161B0644F40E94BF5320E137E24A
:1046D00040E050E00E949953DE010E94BF53DF91F9
:1046E000CF910895FC0181E090E0938F828F118239
:1046F000108215821482108A118A128A138A178AEC
:10470000168A80E197E2958B848B12861086148638
:104710001586168617860895CF93DF93EC01FC016A
:10472000E159FF4F1082379781E0808360E08B85ED
:1047300073D58D899E89892B29F060E08989DF9165
:10474000CF916AC5DF91CF910895CF93DF93EC01AC
:10475000898D3AD52C8D30E08217930711F48D8D19
:1047600001C080E0DF91CF910895CF93DF93EC01FA
:104770008F892AD52C8D30E08217930711F48D8D07
:1047800001C080E0DF91CF910895CF93DF93EC01DA
:104790002BA988819981222311F061E001C060E09A
:1047A0000E949E2C2CA98A819B81222329F02DA96D
:1047B000222311F061E001C060E0DF91CF910C9401
:1047C0009E2CCF93DF93EC012BA988819981222322
:1047D00011F060E001C061E00E949E2C2CA98A814A
:1047E0009B81222329F02DA9222311F060E001C032
:1047F00061E0DF91CF910C949E2CCF93DF93EC017D
:1048000061E08F8509D58CA9882319F061E08D8935
:1048100003D5C359DF4F1882DF91CF910895CF930D
:10482000DF93EC0160E08F85F7D48CA9882319F021
:1048300060E08D89F1D4C359DF4F81E08883DF9137
:10484000CF910895CF92DF92EF92FF920F931F9333
:10485000CF93DF93FC01DC01A05CBF4F4D935D93D0
:104860006D937C93139714964D935D936D937C9306
:10487000139714960D931D932D933C931397EC016E
:10488000C45BDF4FE88282AD882389F082A9811161
:1048900009C037FF0CC01D921D921D921C921397E8
:1048A00081E006C01016110612061306A4F380E07C
:1048B00043AD54AD65AD76AD141615061606170654
:1048C0003CF597AD992321F10D911D912D913C91CE
:1048D00013976801790137FF07C0CC24DD247601E6
:1048E000C01AD10AE20AF30A4C155D056E057F0570
:1048F0007CF437FF07C070956095509541955F4FE8
:104900006F4F7F4F4D935D936D937C93139781E031
:10491000DF01AB5ABF4F1D921D921D921C9213973F
:10492000EB59FF4F91E09083DF91CF911F910F9151
:10493000FF90EF90DF90CF9008950F931F93CF9348
:10494000DF938C01D62FFC01838D811109C0C80132
:104950000CDFC82FC801F9DED11108C08C2F06C0AA
:10496000C801F3DEC82FC80100DFF6CFDF91CF9179
:104970001F910F910895CF93DF93EC01FC01E15952
:10498000FF4F81E0808339978081B297882341F07F
:1049900080819181A281B3810196A11DB11D07C0C3
:1049A00080819181A281B3810197A109B10980839E
:1049B0009183A283B383FE01EE58FF4F20813181A2
:1049C000DE01A059BF4FC9019595879520FD03C011
:1049D000ED91FC910DC0FE01E80FF91F0190F081EF
:1049E000E02D2D913C91E20FF31F0190F081E02D1D
:1049F0008C0F9D1F19958D899E89892B11F1FE01C0
:104A0000EA58FF4F20813181DE01AC58BF4FC90108
:104A10009595879520FD03C0ED91FC910DC0FE0199
:104A2000E80FF91F0190F081E02D2D913C91E20FEC
:104A3000F31F0190F081E02D8C0F9D1FDF91CF912E
:104A40001994DF91CF9108958F929F92AF92BF9268
:104A5000CF92DF92EF92FF920F931F93CF93DF934A
:104A6000EC01FC01EB5AFF4F6081718182819381DF
:104A70000E946B526B017C016EA97FA988AD99AD34
:104A80000E946D529B01AC0160E074E284E799E4FE
:104A90000E945B544B015C01FE01EF59FF4F6081A6
:104AA0007181828193810E946B529B01AC01C5018F
:104AB000B4010E945B544B015C018E01075A1F4FE9
:104AC00020E030E040E05FE30E94CC529B01AC016B
:104AD000C701B6010E94F7530E94C854F8016083D1
:104AE000718382839383C35ADF4FA5019401C70169
:104AF000B6010E94F7530E94C854688379838A8361
:104B00009B83DF91CF911F910F91FF90EF90DF90EA
:104B1000CF90BF90AF909F908F9008950F931F9369
:104B2000CF93DF93FC01E159FF4F20812223B9F09D
:104B30007A97008111812281338138964081518199
:104B400062817381041715072607370710F1EC01FE
:104B5000E3DDCE01DF91CF911F910F9175CFFC0165
:104B6000EB59FF4F20812223A1F070970081118122
:104B7000228133813496408151816281738104178F
:104B800015072607370728F0DF91CF911F910F9166
:104B9000F2CEDF91CF911F910F910895CF92DF92C6
:104BA000EF92FF920F931F93CF93DF936C017A01E3
:104BB0008B01C0E0D0E0CE15DF0589F0D8016D9102
:104BC0008D01D601ED91FC910190F081E02DC6019F
:104BD0001995892B11F47E0102C02196ECCFC701F3
:104BE000DF91CF911F910F91FF90EF90DF90CF90C9
:104BF0000895089580E090E00895FC01538D448D60
:104C0000252F30E0842F90E0821B930B541710F077
:104C1000CF96089501970895FC01918D828D981784
:104C200061F0828DDF01A80FB11D5D968C91928D90
:104C30009F5F9F73928F90E008958FEF9FEF08958D
:104C4000FC01918D828D981731F0828DE80FF11D56
:104C5000858D90E008958FEF9FEF0895FC01918D71
:104C6000228D892F90E0805C9F4F821B91098F736A
:104C70009927089587EB9BE0F1DF21E0892B09F468
:104C800020E0822F0895FC01848DDF01A80FB11D63
:104C9000A35ABF4F2C91848D90E001968F73992772
:104CA000848FA689B7892C93A089B1898C9180645F
:104CB0008C93938D848D981306C00288F389E02D20
:104CC00080818F7D80830895EF92FF920F931F93D1
:104CD000CF93DF93EC0181E0888F9B8D8C8D9813AF
:104CE00005C0E889F989808185FD23C0F62E0B8DEA
:104CF00010E00F5F1F4F0F731127E02E8C8DE8120D
:104D00000BC00FB607FCFACFE889F989808185FFCF
:104D1000F5CFCE01B8DFF2CF8B8DFE01E80FF11D8C
:104D2000E35AFF4FF0820B8FEA89FB898081806212
:104D300007C0EE89FF896083E889F98980818064F2
:104D4000808381E090E0DF91CF911F910F91FF90E0
:104D5000EF900895CF93DF93EC01888D8823C1F005
:104D6000EA89FB89808185FD05C0A889B9898C9174
:104D700086FD0EC00FB607FCF5CF808185FFF2CF10
:104D8000A889B9898C9185FFEDCFCE017CDFE8CF72
:104D9000DF91CF91089580E090E0892B19F06ADFD0
:104DA000811125C080E090E0892B41F080E090E007
:104DB000892B21F00E94000081111CC080E090E04E
:104DC000892B41F080E090E0892B21F00E940000C7
:104DD000811113C080E090E0892BA1F080E090E089
:104DE000892B81F00E94000081110AC008950E9461
:104DF0000000D8CF0E940000E1CF0E940000EACF5F
:104E00000C940000089590E0FC013197E231F10527
:104E100008F04EC08827EC59FE4F8F4F0C940B556D
:104E2000809180008F7703C0809180008F7D809378
:104E30008000089580918000877FF9CF84B58F77B7
:104E400002C084B58F7D84BD08958091B0008F77B6
:104E500003C08091B0008F7D8093B0000895809151
:104E600090008F7707C0809190008F7D03C0809164
:104E70009000877F8093900008958091A0008F77A5
:104E800007C08091A0008F7D03C08091A000877F24
:104E90008093A0000895809120018F7707C08091B2
:104EA00020018F7D03C080912001877F80932001A6
:104EB00008953FB7F8948091A40B9091A50BA09111
:104EC000A60BB091A70B26B5A89B05C02F3F19F0E4
:104ED0000196A11DB11D3FBFBA2FA92F982F88277A
:104EE000820F911DA11DB11DBC01CD0142E0660FD5
:104EF000771F881F991F4A95D1F708950E94FB5587
:104F00000F931F93CF93DF93EC01888199810097D2
:104F100029F02A813B812617370788F48B016F5FC0
:104F20007F4F0E941355009761F0998388831B83FC
:104F30000A832C813D81232B11F4FC01108281E036
:104F400001C080E0DF91CF911F910F910895EF9202
:104F5000FF920F931F93CF93DF93FC012481358140
:104F60006115710511F480E018C041155105A1F0DB
:104F70007B01EC018A01020F131FB801C1DF8823F6
:104F800091F3288139818C819D81B701820F931F14
:104F90000E9411561D830C8381E0DF91CF911F91F8
:104FA0000F91FF90EF900895EF92FF920F931F9350
:104FB000CF93DF93CDB7DEB764970FB6F894DEBF1B
:104FC0000FBECDBF7C01CB01BA018E010F5F1F4F19
:104FD00022E044E00E94A14CBC01FC0101900020B1
:104FE000E9F73197AF01481B590BC701B0DF649651
:104FF0000FB6F894DEBF0FBECDBFDF91CF911F91EA
:105000000F91FF90EF900895EF92FF920F931F93EF
:10501000CF93DF93CDB7DEB727970FB6F894DEBFF7
:105020000FBECDBF7C01CB014AE08E010F5F1F4F49
:10503000B8010E94534EF80101900020E9F7319722
:10504000AF01401B510BB801C70181DF27960FB696
:10505000F894DEBF0FBECDBFDF91CF911F910F91AE
:10506000FF90EF9008956115710549F0FB010190E3
:105070000020E9F73197AF01461B570B68CF80E05E
:105080000895FB01448155816081718160CFEF9269
:10509000FF920F931F93CF93DF93EC017B018A0163
:1050A000BA012EDF2881398181110DC0211531050A
:1050B00019F0C9010E94554D198218821D821C8267
:1050C0001B821A8206C01D830C83B701C9010E948E
:1050D0001156CE01DF91CF911F910F91FF90EF906C
:1050E0000895FC01118210821382128215821482AB
:1050F0006115710549F0FB0101900020E9F7319736
:10510000AF01461B570BC3CF08951F920F920FB6E6
:105110000F9211240BB60F922F933F934F935F93EF
:105120006F937F938F939F93AF93BF93EF93FF936F
:1051300087EB9BE0A8DDFF91EF91BF91AF919F912D
:105140008F917F916F915F914F913F912F910F9030
:105150000BBE0F900FBE0F901F9018951F920F92CD
:105160000FB60F9211240BB60F922F938F939F932C
:10517000EF93FF93E091C70BF091C80B8081E09112
:10518000CD0BF091CE0B82FD12C090818091D00B9F
:105190008F5F8F732091D10B821751F0E091D00B6C
:1051A000F0E0E954F44F958F8093D00B01C08081DB
:1051B000FF91EF919F918F912F910F900BBE0F90C8
:1051C0000FBE0F901F901895CF93DF93282F30E0DC
:1051D000F901EF5DFB4F8491F901E550FB4FD4914C
:1051E000F901EB54FB4FC491CC2389F081110BDE04
:1051F000EC2FF0E0EE0FFF1FE556FB4FA591B491A9
:10520000EC91ED2381E090E021F480E002C080E0A9
:1052100090E0DF91CF9108951F93CF93DF93282FD4
:1052200030E0F901EF5DFB4F8491F901E550FB4F50
:10523000D491F901EB54FB4FC491CC23C1F0162F4C
:105240008111E1DDEC2FF0E0EE0FFF1FEF57FB4F78
:10525000A591B4918FB7F894111105C09C91ED2FD1
:10526000E095E92302C0EC91ED2BEC938FBFDF9129
:10527000CF911F910895CF92DF92EF92FF920F93FB
:105280001F93CF93DF936C018B017A01EC01C5561C
:10529000D44F888187FF04C0FB011182108224C093
:1052A0008CE08C9D90018D9D300D11248881A90189
:1052B000480F511D87FD5A958091D00E90E04817F8
:1052C000590794F48881A901480F511D87FD5A950B
:1052D000CA01FA01EE0FFF1F8E0F9F1FFC01E05C59
:1052E000F14F808186FD19C088818F5F88838CE0B3
:1052F0008C9D90018D9D300D11248881A901480F4E
:10530000511D87FD5A958091D00E90E0481759079E
:10531000B4F488818C303CF112C08881280F311D93
:1053200087FD3A95F901EE0FFF1F2E0F3F1FF90180
:10533000E05CF14F808160E08F736EDFD5CFF801C4
:1053400080819181049680349C4918F480E49CE922
:1053500004C0F801808191810496F70191838083D4
:105360008FEF888344C0F801408151818881B90161
:10537000680F711D87FD7A95CB01FB01EE0FFF1FB2
:105380008E0F9F1FFC01E05CF14F81819281840FA1
:10539000951FF701918380838881A901480F511DD2
:1053A00087FD5A95CA01FA01EE0FFF1F8E0F9F1F4E
:1053B000FC01E05CF14F808186FF19C08881280FD5
:1053C000311D87FD3A95F901EE0FFF1F2E0F3F1F8C
:1053D000F901E05CF14F808161E08F73DF91CF9143
:1053E0001F910F91FF90EF90DF90CF9015CFDF913D
:1053F000CF911F910F91FF90EF90DF90CF90089584
:10540000CF93DF9390E0FC01E550FB4F2491FC012A
:10541000EB54FB4F8491882361F190E0880F991F32
:10542000FC01E959FB4FC591D491FC01EF57FB4FAB
:10543000A591B491611109C09FB7F8948881209516
:1054400082238883EC912E230BC0623061F49FB7D6
:10545000F8943881822F809583238883EC912E2BBA
:105460002C939FBF06C08FB7F894E8812E2B28831A
:105470008FBFDF91CF9108958230910538F0880F6A
:10548000991F880F991F05970197F1F708958F923B
:105490009F92AF92BF92CF92DF92EF92FF926B01F9
:1054A0007C0107DD4B015C01C114D104E104F1046E
:1054B000E9F0FFDCDC01CB0188199909AA09BB09D5
:1054C000883E9340A105B10578F321E0C21AD108C6
:1054D000E108F10888EE880E83E0981EA11CB11C3B
:1054E000C114D104E104F10421F7DECFFF90EF9065
:1054F000DF90CF90BF90AF909F908F9008952FB77F
:10550000F8946091A00B7091A10B8091A20B9091E7
:10551000A30B2FBF08951F920F920FB60F92112465
:105520002F933F938F939F93AF93BF938091A00B43
:105530009091A10BA091A20BB091A30B30919F0B66
:1055400023E0230F2D3720F40196A11DB11D05C0C6
:1055500026E8230F0296A11DB11D20939F0B809377
:10556000A00B9093A10BA093A20BB093A30B8091DF
:10557000A40B9091A50BA091A60BB091A70B01963F
:10558000A11DB11D8093A40B9093A50BA093A60B16
:10559000B093A70BBF91AF919F918F913F912F91A6
:1055A0000F900FBE0F901F901895CF92DF92EF9241
:1055B000FF92CF93DF93EC01603282E078070CF02A
:1055C0003DC077FD06C0653B71052CF064EB70E0D3
:1055D00002C060E070E0898128E830E06901C81A03
:1055E000D10887FDD394CC0CDD1CCC0CDD1C0D2C1C
:1055F000000CEE08FF088A8128E532E0281B3109FB
:1056000087FD3395220F331F220F331FC901330F3C
:10561000AA0BBB0B9C01AD012C193D094E095F097A
:10562000DB010E94BF5324EB30E040E050E00E94D9
:105630009953C20ED31EE41EF51EB6018881803335
:1056400080F5998148E850E0491B510997FD539531
:10565000440F551F440F551F6417750784F09A8136
:1056600028E532E0291B310997FD3395220F331FBE
:10567000220F331FAB01261737070CF4A901425044
:105680005109440F551F2FB7F89490E0FC01EE0F1D
:10569000FF1F8E0F9F1FFC01E05CF14F528341837F
:1056A0002FBFDF91CF91FF90EF90DF90CF900895C3
:1056B0001F920F920FB60F9211240BB60F922F93D9
:1056C0003F934F935F936F937F938F939F93AF938A
:1056D000BF93EF93FF9348E251E064E271E080E012
:1056E00090E0C9DDFF91EF91BF91AF919F918F91B4
:1056F0007F916F915F914F913F912F910F900BBED2
:105700000F900FBE0F901F9018951F920F920FB61B
:105710000F9211240BB60F922F933F934F935F93E9
:105720006F937F938F939F93AF93BF93EF93FF9369
:1057300048EA50E064EA70E083E090E09CDDFF918D
:10574000EF91BF91AF919F918F917F916F915F91F9
:105750004F913F912F910F900BBE0F900FBE0F9066
:105760001F9018951F920F920FB60F9211240BB62F
:105770000F922F933F934F935F936F937F938F93EA
:105780009F93AF93BF93EF93FF9348E950E064E991
:1057900070E082E090E06FDDFF91EF91BF91AF91FB
:1057A0009F918F917F916F915F914F913F912F9139
:1057B0000F900BBE0F900FBE0F901F9018951F9269
:1057C0000F920FB60F9211240BB60F922F933F93A7
:1057D0004F935F936F937F938F939F93AF93BF93F9
:1057E000EF93FF9348E850E064E870E081E090E0D8
:1057F00042DDFF91EF91BF91AF919F918F917F918A
:105800006F915F914F913F912F910F900BBE0F9031
:105810000FBE0F901F9018951F920F920FB60F9208
:1058200011240BB60F922F933F934F935F936F9377
:105830007F938F939F93AF93BF93EF93FF93809149
:105840009A0B81113FC081E080939A0B0E9443081C
:10585000FC01EB58FF4F2081222369F070974081B3
:105860005181628173814F5F5F4F6F4F7F4F4083E4
:10587000518362837383FC01EB50FF4F208122230D
:1058800069F0709740815181628173814F5F5F4FF2
:105890006F4F7F4F4083518362837383FC01EB58CA
:1058A000FE4F2081222361F0709780819181A28137
:1058B000B3810196A11DB11D80839183A283B3831F
:1058C00010929A0BFF91EF91BF91AF919F918F91A1
:1058D0007F916F915F914F913F912F910F900BBEF0
:1058E0000F900FBE0F901F9018951F920F920FB63A
:1058F0000F9211240BB60F922F933F934F935F9308
:105900006F937F938F939F93AF93BF93EF93FF9387
:10591000E0E0F0E01995FF91EF91BF91AF919F9179
:105920008F917F916F915F914F913F912F910F9048
:105930000BBE0F900FBE0F901F9018950F931F93E3
:10594000462F50E060E070E024E0440F551F661FD2
:10595000771F2A95D1F74071552766277727FC01D5
:1059600006851785208931890F7E402B512B622BAC
:10597000732B46875787608B718BAC01425F5F4FFB
:1059800060E81F910F910C945920CF92DF92EF9213
:10599000FF920F931F93AC014E5A5F4F062F10E0FA
:1059A00020E030E0302F2227112700270027112781
:1059B00022273F70FA01C080D180E280F380F0EFAF
:1059C000FF220C291D292E293F29FA01008311836A
:1059D000228333836CEE1F910F91FF90EF90DF9045
:1059E000CF900C9459202F923F924F925F926F92DA
:1059F0007F928F929F92AF92BF92CF92DF92EF925F
:105A0000FF920F931F93CF93DF93CDB7DEB76397CA
:105A10000FB6F894DEBF0FBECDBF8C010E9492116D
:105A2000F801E550FE4F81E040912408509125088F
:105A30006091260870912708452B462B472B09F4C7
:105A400080E080830E949211F801E450FE4F81E0D3
:105A5000409128085091290860912A0870912B08DC
:105A6000452B462B472B09F480E080830E9492113E
:105A7000F801E350FE4F81E040912C0850912D0831
:105A800060912E0870912F08452B462B472B09F467
:105A900080E080830E949211809174089091750833
:105AA000A0917608B0917708F801E250FE4F80830C
:105AB0009183A283B3830E94921180917808909180
:105AC0007908A0917A08B0917B08F801EE5FFD4F4C
:105AD00080839183A283B3830E94921180917C087A
