:100000009EC10000CDC10000CBC10000C9C10000ED
:10001000C7C10000C5C10000C3C10000C1C10000CC
:10002000BFC10000BDC10000BBC10000B9C10000DC
:10003000B7C10000B5C10000B3C10000B1C10000EC
:10004000AFC100000C940D46ABC10000A9C1000077
:100050000C943B46A5C10000A3C100000C94394597
:100060009FC100000C9403450C94D94499C1000031
:1000700097C1000095C1000093C1000091C100002C
:100080000C94DF458DC100008BC1000089C10000C8
:1000900087C1000085C1000083C1000081C100004C
:1000A0007FC100007DC100000C94B14579C1000002
:1000B00077C1000075C1000073C100000C94834536
:1000C0006FC100006DC100006BC1000069C100007C
:1000D00067C1000065C1000063C1000061C100008C
:1000E0005FC100004E414E494E495459494E46CDDC
:1000F000CCCC3D0AD7233C17B7D13877CC2B3295DF
:1001000095E6241FB14F0A000020410000C84200BC
:10011000401C4620BCBE4CCA1B0E5AAEC59D740086
:10012000407A10F35A00A0724E18090010A5D4E8C6
:100130000000E87648170000E40B54020000CA9A59
:100140003B000000E1F505000080969800000040AB
:10015000420F000000A086010000001027000000F0
:1001600000E803000000006400000000000A000036
:100170000000000100000000002C76D888DC674FEA
:100180000823DFC1DFAE59E1B1B796E5E3E453C61A
:100190003AE651997696E8E6C28426EB898C9B6212
:1001A000ED407C6FFCEFBC9C9F40F2BAA56FA5F4BC
:1001B00090055A2AF75C936B6CF9676DC11BFCE0E4
:1001C000E40D47FEF520E6B500D0ED902E03009437
:1001D0003577050080841E080000204E0A000000CC
:1001E000C80C333333330F986E12831141EF8D21D6
:1001F00014893BE65516CFFEE6DB18D1844B381B3D
:10020000F77C1D901DA4BBE424203284725E228101
:1002100000C9F124ECA1E53D2700002100240027BE
:10022000002A002D00300033000101000004010706
:10023000010A0100002200250028002B002E0031B9
:1002400000340002010000050108010B010000203C
:10025000002300260029002C002F0032000001009E
:100260000003010601090105050505070508080841
:1002700008020202020A0A08080404040401010137
:10028000010101010103030303030303030407073F
:10029000070C0C0C0C0C0C0C0C02020202060606DD
:1002A00006060606060B0B0B0B0B0B0B0B010210C5
:1002B0002020080810204010204080020102010880
:1002C0000402010102040810204080804020100830
:1002D0000402018004020180402010080402010889
:1002E00004020101020408102040800102040810E9
:1002F00020408000000A0B02090C0D0E08070304C1
:1003000001000000000000000000000000000000EC
:1003100000000000000000000000000000000012CB
:1003200011100000000000000000000000000000AC
:100330000000000000000000000085465754112412
:100340001FBECFEFD1E2DEBFCDBF00E00CBF18E093
:10035000A0E0B2E0ECE5FEEB00E00BBF02C00790CE
:100360000D92AC31B107D9F724E1ACE1B8E001C09E
:100370001D92AA30B207E1F711E0CEE9D1E000E02A
:1003800006C021970109802FFE010E941D5ECD3914
:10039000D10780E00807A9F70E9476480C941D5FFA
:1003A0002FCE883591050CF04BC085359105CCF4E6
:1003B000803391054CF58D3291059CF48C3191057B
:1003C000BCF4893191056CF48E30910564F48B3066
:1003D00091053CF4009729F097FD08C00297049717
:1003E00028F481E008950F970997D8F380E00895E5
:1003F000863291053CF4843291059CF74F97039720
:10040000A8F7EFCF8997FBCF843491056CF4813442
:1004100091053CF78A3391052CF4873391050CF74D
:10042000C397EDCFCD97EBCF8E34910534F48B3459
:100430009105BCF687549109E2CF81559109DFCF30
:10044000863891051CF5833891055CF68237910555
:1004500084F48F3691052CF6883691053CF4853668
:1004600091050CF0BECF8B559109C9CF89569109E2
:10047000C6CF8C3791053CF4893791050CF0B1CF8C
:1004800083579109BCCF8D579109B9CF803D910514
:100490008CF48D3C91050CF0A4CF843991053CF48B
:1004A000813991050CF09DCF8D589109A8CF895CB9
:1004B0009109A5CF8A3D91053CF4873D91050CF04B
:1004C00090CF835D91099BCF8D5D910998CF9C0161
:1004D000803E910508F021C5FC018827ED58FD4FAD
:1004E0008F4F0C941D5E53036003690372037F03F7
:1004F00088038D078D078D078D078D079503A20350
:10050000AF038D07BC03C503CE03DB03E403ED0398
:10051000F603FF0308048D0711041A0423048D0752
:100520008D078D072C0435043E048D078D07470485
:1005300054048D078D078D0761046E047B048D07BD
:10054000880491049A048D078D078D07A304AC04D9
:10055000B5048D07C204CF04DC048D078D078D0719
:10056000E904F60403058D0710051D052A058D070E
:100570008D078D073705440551058D075E05670515
:1005800070058D078D078D079405A105AE058D07B4
:10059000BB05C805D5058D078D078D07E205EB0561
:1005A000F4058D078D078D078D078D078D078D0746
:1005B000FD0506060F068D07180621062A068D077B
:1005C0008D078D07330640064D068D075A066706D0
:1005D00074068D078D078D0781068E069B068D0795
:1005E000A806B106BA068D078D078D07C306CC068F
:1005F000D5068D078D078D078D078D078D078D0714
:100600008D078D078D078D07790582058B058D0771
:100610008D078D078D078D078D078D078D078D073A
:100620008D078D078D078D078D078D078D078D072A
:100630008D078D078D078D078D078D078D078D071A
:100640008D078D078D078D078D078D078D078D070A
:100650008D078D078D078D078D078D078D078D07FA
:100660008D078D078D078D078D078D078D078D07EA
:100670008D078D078D078D07DE06E706F4068D07CB
:1006800001070A0717078D078D078D0724072D0718
:100690003A078D07470750075D078D078D078D07C0
:1006A0006A077307800781E090E0A0E0B0E08093E4
:1006B000420990934309A0934409B09345090895D2
:1006C0001092460910924709109248091092490960
:1006D000089510924A0910924B0910924C091092F9
:1006E0004D09089581E090E0A0E0B0E080934E09CC
:1006F00090934F09A0935009B09351090895109217
:1007000052091092530910925409109255090895F4
:1007100083E090E0A0E0B0E0809356099093570901
:10072000A0935809B0935909089588E790E0A0E094
:10073000B0E080936E0990936F09A0937009B09315
:100740007109089588E790E0A0E0B0E08093720915
:1007500090937309A0937409B0937509089588E77D
:1007600090E0A0E0B0E08093760990937709A093A1
:100770007809B0937909089510927E0910927F0943
:1007800010928009109281090895109282091092A6
:1007900083091092840910928509089581E090E000
:1007A000A0E0B0E08093860990938709A093880920
:1007B000B0938909089510928A0910928B091092BA
:1007C0008C0910928D09089510928E0910928F094C
:1007D0001092900910929109089510929209109226
:1007E0009309109294091092950908951092960910
:1007F00010929709109298091092990908951092F1
:100800009A0910929B0910929C0910929D090895D3
:1008100010929E0910929F091092A0091092A109AE
:1008200008951092A6091092A7091092A809109293
:10083000A90908951092AA091092AB091092AC0967
:100840001092AD0908951092AE091092AF0910925E
:10085000B0091092B10908951092BE091092BF0913
:100860001092C0091092C10908951092C209109205
:10087000C3091092C4091092C50908951092C609BF
:100880001092C7091092C8091092C909089581E011
:1008900090E0A0E0B0E08093D2099093D309A093B8
:1008A000D409B093D509089581E090E0A0E0B0E0CC
:1008B0008093D6099093D709A093D809B093D9090A
:1008C00008958CE291E0A0E0B0E08093E609909377
:1008D000E709A093E809B093E90908958CE291E053
:1008E000A0E0B0E08093EA099093EB09A093EC09B3
:1008F000B093ED0908958CE291E0A0E0B0E0809320
:10090000EE099093EF09A093F009B093F1090895CF
:100910001092F6091092F7091092F8091092F9094D
:1009200008951092FA091092FB091092FC09109296
:10093000FD0908951092FE091092FF091092000A15
:100940001092010A089510920E0A10920F0A109246
:10095000100A1092110A08951092120A1092130AA6
:100960001092140A1092150A089581E090E0A0E018
:10097000B0E08093160A9093170AA093180AB093D8
:10098000190A089585E090E0A0E0B0E080931E0A87
:1009900090931F0AA093200AB093210A089585E03E
:1009A00090E0A0E0B0E08093220A9093230AA09305
:1009B000240AB093250A089589E190E0A0E0B0E010
:1009C0008093260A9093270AA093280AB093290AB5
:1009D000089582E390E0A0E0B0E08093360A90931F
:1009E000370AA093380AB093390A089582E390E059
:1009F000A0E0B0E080933A0A90933B0AA0933C0AAF
:100A0000B0933D0A089582E390E0A0E0B0E08093C7
:100A10003E0A90933F0AA093400AB093410A08957A
:100A200082E390E0A0E0B0E08093460A9093470A0A
:100A3000A093480AB093490A089582E390E0A0E0A9
:100A4000B0E080934A0A90934B0AA0934C0AB0936B
:100A50004D0A089582E390E0A0E0B0E080934E0A52
:100A600090934F0AA093500AB093510A089580E9D9
:100A700091E0A0E0B0E080935E0A90935F0AA093BB
:100A8000600AB093610A089580E991E0A0E0B0E0C7
:100A90008093620A9093630AA093640AB093650AF4
:100AA000089580E991E0A0E0B0E08093660A909319
:100AB000670AA093680AB093690A089510926E0AB3
:100AC00010926F0A1092700A1092710A0895109293
:100AD000720A1092730A1092740A1092750A08959D
:100AE0001092760A1092770A1092780A1092790A78
:100AF00008951092860B1092870B1092880B10921B
:100B0000890B089510928A0B10928B0B10928C0B0C
:100B100010928D0B089510928E0B10928F0B1092E5
:100B2000900B1092910B089588E592E0A0E0B0E060
:100B30008093860A9093870AA093880AB093890AC3
:100B4000089588E592E0A0E0B0E080938A0A90934F
:100B50008B0AA0938C0AB0938D0A089588E592E0E1
:100B6000A0E0B0E080938E0A90938F0AA093900A41
:100B7000B093910A08958EE190E0A0E0B0E08093F8
:100B8000960A9093970AA093980AB093990A0895A9
:100B90008EE190E0A0E0B0E080939A0A90939B0AE7
:100BA000A0939C0AB0939D0A08958EE190E0A0E086
:100BB000B0E080939E0A90939F0AA093A00AB093FE
:100BC000A10A08951092AE0A1092AF0A1092B00ACC
:100BD0001092B10A08951092B20A1092B30A1092BC
:100BE000B40A1092B50A08951092B60A1092B70A84
:100BF0001092B80A1092B90A08951092D60A10926B
:100C0000D70A1092D80A1092D90A08951092DA0AD7
:100C10001092DB0A1092DC0A1092DD0A08951092FD
:100C2000DE0A1092DF0A1092E00A1092E10A08959B
:100C30001092E60A1092E70A1092E80A1092E90A66
:100C400008951092EA0A1092EB0A1092EC0A1092A0
:100C5000ED0A08951092EE0A1092EF0A1092F00A2F
:100C60001092F10A089585E090E0A0E0B0E0809352
:100C7000FE0A9093FF0AA093000BB093010B089516
:100C800085E090E0A0E0B0E08093020B9093030B2E
:100C9000A093040BB093050B089585E090E0A0E0CD
:100CA000B0E08093060B9093070BA093080BB093D2
:100CB000090B089584EB95E1A0E0B0E080930E0B62
:100CC00090930F0BA093100BB093110B089584EB2E
:100CD00095E1A0E0B0E08093120B9093130BA093EA
:100CE000140BB093150B089584EB95E1A0E0B0E0F0
:100CF0008093160B9093170BA093180BB093190BBE
:100D0000089585E090E0A0E0B0E08093260B9093FA
:100D1000270BA093280BB093290B089585E090E052
:100D2000A0E0B0E080932A0B90932B0BA0932C0BA8
:100D3000B0932D0B089585E090E0A0E0B0E08093A3
:100D40002E0B90932F0BA093300BB093310B089583
:100D50001092360B1092370B1092380B1092390B01
:100D6000089510923A0B10923B0B10923C0B10928C
:100D70003D0B089510923E0B10923F0B1092400BCA
:100D80001092410B089510924E0B10924F0B10923F
:100D9000500B1092510B08951092520B1092530B5E
:100DA0001092540B1092550B08951092560B1092FE
:100DB000570B1092580B1092590B08951092660C15
:100DC0001092670C1092680C1092690C08958CE3D5
:100DD00090E0A0E0B0E080936A0C90936B0CA0933D
:100DE0006C0CB0936D0C089581E090E0A0E0B0E051
:100DF00080936E0C90936F0CA093700CB093710C59
:100E000008951092760C1092770C1092780C109234
:100E1000790C08958CE390E0A0E0B0E080937A0C28
:100E200090937B0CA0937C0CB0937D0C089581E093
:100E300090E0A0E0B0E080937E0C90937F0CA093B4
:100E4000800CB093810C089510928E0C10928F0C30
:100E50001092900C1092910C08958CE390E0A0E019
:100E6000B0E08093920C9093930CA093940CB09369
:100E7000950C089581E090E0A0E0B0E08093960C9E
:100E80009093970CA093980CB093990C089510929E
:100E90009E0C10929F0C1092A00C1092A10C089521
:100EA0008CE390E0A0E0B0E08093A20C9093A30CC0
:100EB000A093A40CB093A50C089581E090E0A0E06D
:100EC000B0E08093A60C9093A70CA093A80CB093CD
:100ED000A90C08951092B60C1092B70C1092B80C91
:100EE0001092B90C08958CE390E0A0E0B0E08093FC
:100EF000BA0C9093BB0CA093BC0CB093BD0C08959E
:100F000081E090E0A0E0B0E08093BE0C9093BF0C35
:100F1000A093C00CB093C10C0895220F331F220F71
:100F2000331FF901EE5BF64F108211821282138299
:100F300008958CBD9DBD08958CB58C7F8CBD8DB5FD
:100F40008E7F8DBD0895AF92BF92CF92DF92EF92C8
:100F5000FF920F931F93CF93DF936C017B018B0163
:100F6000040F151FEB015E01AE18BF08C017D107B3
:100F700059F06991D601ED91FC910190F081E02D3D
:100F8000C6011995892B79F7C501DF91CF911F9182
:100F90000F91FF90EF90DF90CF90BF90AF900895AA
:100FA000FC01538D448D252F30E0842F90E0821B6F
:100FB000930B541710F0CF96089501970895FC01F4
:100FC000918D828D981761F0A28DAE0FBF2FB11D4C
:100FD0005D968C91928D9F5F9F73928F90E00895A4
:100FE0008FEF9FEF0895FC01918D828D981731F05E
:100FF000828DE80FF11D858D90E008958FEF9FEFB2
:101000000895FC01918D228D892F90E0805C9F4F87
:10101000821B91098F739927089586EC9CE0F1DF7C
:1010200021E0892B09F420E0822F0895FC01A48D92
:10103000A80FB92FB11DA35ABF4F2C91848D90E0FA
:1010400001968F739927848FA689B7892C93A089DD
:10105000B1898C91837080648C93938D848D981367
:1010600006C00288F389E02D80818F7D80830895FA
:10107000EF92FF920F931F93CF93DF93EC0181E0E8
:10108000888F9B8D8C8D98131AC0E889F98980818F
:1010900085FF15C09FB7F894EE89FF896083E889C2
:1010A000F98980818370806480839FBF81E090E0B4
:1010B000DF91CF911F910F91FF90EF900895F62E41
:1010C0000B8D10E00F5F1F4F0F731127E02E8C8DDB
:1010D0008E110BC00FB607FCFACFE889F989808121
:1010E00085FFF5CFCE01A2DFF2CFEB8DEC0FFD2F08
:1010F000F11DE35AFF4FF0829FB7F8940B8FEA89F6
:10110000FB8980818062D0CF682F86EC9CE0B0CFD5
:10111000CF93DF93EC01888D8823B1F0AA89BB8936
:10112000E889F9898C9185FD03C0808186FD0CC01A
:101130000FB607FCF7CF8C9185FFF2CF808185FF3A
:10114000EDCFCE0173DFEACFDF91CF91089580E03C
:1011500090E0892B21F061DF81110E94000080E086
:1011600090E0892B49F080E090E0892B29F00E94E3
:10117000000081110E94000080E090E0892B49F07E
:1011800080E090E0892B29F00E94000081110E94EC
:10119000000080E090E0892B49F080E090E0892B0E
:1011A00029F00E94000081110C94000008958150E4
:1011B000823108F05AC0E82FF0E08827ED51F74F50
:1011C0008F4F0C941D5E03090709F508FB08FF0803
:1011D00035090A09100914091A091E0922092809E2
:1011E0002C093509300936093A09809180008F773A
:1011F000809380000895809180008F7DF9CF809149
:101200008000877FF5CF84B58F7784BD089584B53E
:101210008F7DFBCF8091B0008F778093B0000895D1
:101220008091B0008F7DF9CF809190008F7780936F
:1012300090000895809190008F7DF9CF809190006B
:10124000877FF5CF8091A0008F778093A0000895CD
:101250008091A0008F7DF9CF8091A000877FF5CF8E
:10126000809120018F778093200108958091200143
:101270008F7DF9CF80912001877FF5CFCF93DF93CA
:10128000282F30E0F901ED50FD4F8491F901E3552D
:10129000FD4FD491F901E959FD4FC491CC2399F048
:1012A000811185DFEC2FF0E0EE0FFF1FE35BFD4FB8
:1012B000A591B491EC91ED2381E090E009F480E0F8
:1012C000DF91CF91089580E090E0FACF1F93CF9304
:1012D000DF93282F30E0F901ED50FD4F8491F901A3
:1012E000E355FD4FD491F901E959FD4FC491CC2349
:1012F000A1F0162F81115BDFEC2FF0E0EE0FFF1F46
:10130000ED5CFD4FA591B4918FB7F894EC9111115C
:1013100008C0D095DE23DC938FBFDF91CF911F9162
:101320000895DE2BF8CFCF93DF9390E0FC01E355D7
:10133000FD4F249189599D4FFC0184918823C9F068
:1013400090E0880F991FFC01E75EFD4FA591B491D5
:10135000FC01ED5CFD4FC591D49161110DC09FB7AB
:10136000F8948C91209582238C938881282328835C
:101370009FBFDF91CF910895623051F49FB7F894E9
:101380003C91822F809583238C93E8812E2BEFCF85
:101390008FB7F894EC912E2B2C938FBFEACF82302D
:1013A000910538F0880F991F880F991F05970197AD
:1013B000F1F708953FB7F89480913308909134087D
:1013C000A0913508B091360826B5A89B05C02F3FDF
:1013D00019F00196A11DB11D3FBFBA2FA92F982F5B
:1013E0008827BC01CD01620F711D811D911D42E056
:1013F000660F771F881F991F4A95D1F708958F921E
:101400009F92AF92BF92CF92DF92EF92FF926B01C9
:101410007C01D0DF4B015C01C114D104E104F10473
:10142000B1F0C8DF681979098A099B09683E7340E1
:101430008105910588F321E0C21AD108E108F1087D
:1014400088EE880E83E0981EA11CB11CE5CFFF90AA
:10145000EF90DF90CF90BF90AF909F908F900895C6
:101460002FB7F89460912F0870913008809131085F
:10147000909132082FBF0895CF92DF92EF92FF92A2
:10148000CF93DF93EC01603282E07807CCF5653BC7
:10149000710514F064EB70E0898128E830E0281BC6
:1014A000310987FD3395220F331F220F331F690146
:1014B000330FEE08FF088A8128E532E0281B310946
:1014C00087FD3395220F331F220F331F032E000C8D
:1014D000440B550B2C193D094E095F09DB0177FFC1
:1014E00002C0B0E0A0E00E94C55C24EB30E040E028
:1014F00050E00E949F5CC20ED31EE41EF51EB60192
:10150000E881E03370F5298188E890E0821B910939
:1015100027FD9395880F991F880F991F68177907E2
:101520007CF02A8188E592E0821B910927FD939542
:10153000880F991F880F991F681779070CF4CB0142
:101540000297880F991F4FB7F8942E2F30E0F901BA
:10155000EE0FFF1FE20FF31FED59F24F92838183CD
:101560004FBFDF91CF91FF90EF90DF90CF90089524
:101570001F93CF93DF93EC01162F8881803308F0FF
:101580004DC061E0812FCFDE8881282F30E0F90146
:10159000EE0FFF1FE20FF31FED59F24F1F73608133
:1015A000607C612B608319821A822CE0622F0E947A
:1015B000115E829FB001112430E020E0AB01420FA8
:1015C000531FFA01EE0FFF1FE40FF51FED59F24F05
:1015D000908196FD16C02F5F3F4F2C30310571F77B
:1015E000813009F51092800082E080938100109292
:1015F000850010928400B19A80916F008260809380
:101600006F00E8818E2F90E0FC01EE0FFF1FE80FC6
:10161000F91FED59F24F8081806480838881DF91CA
:10162000CF911F910895823061F4109290008093C1
:101630009100109295001092940088BB80937100E5
:10164000E0CF833069F41092A00082E08093A10083
:101650001092A5001092A40089BB80937200D1CF94
:101660008111CFCF1092200182E08093210110924E
:101670002501109224018ABB80937300C2CFAF92E0
:10168000BF92CF92DF92EF92FF920F931F93CF936F
:10169000DF936B017A01EC01C65DD74F28813CE0F6
:1016A000389F8001399F100D1124A090F30DB12CAB
:1016B00027FF1FC0FB011182108288818F5F888302
:1016C00088819801280F311D87FD3A95F6012A156A
:1016D0003B051CF488818C30BCF18081918104969B
:1016E00080349C4908F471C0F60180819181049690
:1016F0006EC088819801280F311D87FD3A952A1503
:101700003B05DCF68881A801480F511D87FD5A95DD
:10171000FA01EE0FFF1FE40FF51FED59F24F808124
:1017200086FFCBCF8881F801E80FF11D87FDFA9580
:10173000CF01EE0FFF1FE80FF91FED59F24F808127
:1017400060E08F73C3DDB9CF808191812881A801CA
:10175000420F511D27FD5A959A01FA01EE0FFF1F06
:10176000E20FF31FED59F24F21813281820F931F57
:10177000F7019183808388819801280F311D87FDAF
:101780003A95F901EE0FFF1FE20FF31FED59F24FEB
:10179000808186FF21C08881080F111D87FD1A9561
:1017A000F801EE0FFF1FE00FF11FED59F24F80819E
:1017B00061E08F73DF91CF911F910F91FF90EF90B8
:1017C000DF90CF90BF90AF9081CD80E49CE9F7018E
:1017D000918380838FEF8883DF91CF911F910F9149
:1017E000FF90EF90DF90CF90BF90AF900895CF9390
:1017F000CFB7F89480912908811123C0ECE9F2E079
:101800008491E2EEF2E09491E82FF0E0EE0FFF1FFA
:10181000E75EFD4FA591B491EC91E92319F461E0E5
:1018200085E354DD61E085E37EDD8CB580618CBDB0
:101830008CB580648CBD61E084E375DD61E083E399
:1018400072DD809129088F5F80932908CFBFCF91E7
:1018500008958CB58C608CBD8CB58F7D8CBD6CDB98
:10186000C6CF089508950895EBE0F1E08081877F69
:1018700080830895EBE0F1E08081886080830895A3
:101880008E9808958E9A089514980895149A08953C
:1018900088980895889A089560E0FC01818916CDA2
:1018A00060E0FC01838512CD61E0FC0181890ECDF1
:1018B00061E0FC0183850ACDCF93DF93EC01FC014D
:1018C000ED58FF4F1082379781E0808360E08B8571
:1018D000FDDC8D899E89892B29F060E08989DF9163
:1018E000CF91F4CCDF91CF910895CF93DF93EC01AA
:1018F000898DC4DC2C8D2817190621F48D8DDF917C
:10190000CF91089580E0FBCFCF93DF93EC018F89D7
:10191000B5DC2C8D2817190621F48D8DDF91CF9120
:10192000089580E0FBCFCF93DF93EC018D859BA9D9
:1019300061E0911101C060E0C9DC8B899CA9992309
:1019400021F09DA961E0911101C060E0DF91CF918C
:10195000BDCCCF93DF93EC018D859BA960E0911105
:1019600001C061E0B3DC8B899CA9992321F09DA97A
:1019700060E0911101C061E0DF91CF91A7CCCF93DE
:10198000DF93EC0161E08F85A1DC8CA9882319F03D
:1019900061E08D899BDCCF58DF4F1882DF91CF91BA
:1019A0000895CF93DF93EC0160E08F858FDC8CA9E5
:1019B000882319F060E08D8989DCCF58DF4F81E002
:1019C0008883DF91CF910895CF92DF92EF92FF92BB
:1019D0000F931F93CF93DF93FC01DC01A05CBF4FFB
:1019E0004D935D936D937C93139714964D935D93F4
:1019F0006D937C93139714960D931D932D933C93A5
:101A00001397EC01C45BDF4FE88282AD882351F06D
:101A100092A991114CC037FF50C01D921D921D928A
:101A20001C92139743AD54AD65AD76AD14161506F3
:101A3000160617063CF597AD992321F10D911D91DE
:101A40002D913C9113976801790137FF07C0CC2491
:101A5000DD247601C01AD10AE20AF30A4C155D05AD
:101A60006E057F057CF437FF07C070956095509533
:101A700041955F4F6F4F7F4F4D935D936D937C9377
:101A80001397892FDF01A75ABF4F1D921D921D92F8
:101A90001C921397E759FF4F91E09083DF91CF910C
:101AA0001F910F91FF90EF90DF90CF900895101647
:101AB0001106120613060CF4B0CF80E0B3CF0F93DB
:101AC0001F93CF93DF93EC01062F8B8D81110DC0F7
:101AD000CE011ADF182FCE0108DF0111182F812F38
:101AE000DF91CF911F910F910895CE01FEDE182F47
:101AF000CE010ADFF2CFCF93DF93EC01FC01ED586A
:101B0000FF4F81E08083AE014C5B5F4FFA01808123
:101B10009181A281B3819E0126593F4FF901208115
:101B2000222309F440C00196A11DB11DFA01808352
:101B30009183A283B383FE01EA58FF4F2081318154
:101B4000C901959587958C0F9D1F32970190F08163
:101B5000E02D20FF08C0DC012D913C91E20FF31F26
:101B60000190F081E02D19958D899E89892BF9F0DE
:101B7000FE01E658FF4F20813181C9019595879577
:101B80008C0F9D1FC858DF4FE881F98120FF08C0E6
:101B9000DC012D913C91E20FF31F0190F081E02DCB
:101BA000DF91CF9119940197A109B109BFCFDF91BE
:101BB000CF9108958F929F92AF92BF92CF92DF9272
:101BC000EF92FF920F931F93CF93DF93EC01FC01F1
:101BD000E75AFF4F60817181828193810E94715B1E
:101BE0006B017C016EA97FA988AD99AD0E94735BE2
:101BF0009B01AC0160E074E284E799E40E94615DBE
:101C00004B015C01FE01EB59FF4F608171818281C4
:101C100093810E94715B9B01AC01C501B4010E94DC
:101C2000615D4B015C018E01035A1F4F20E030E0E3
:101C300040E05FE30E94D25BA70196010E94FD5C39
:101C40000E94CE5DF8016083718382839383CF59B4
:101C5000DF4FA5019401C701B6010E94FD5C0E94FF
:101C6000CE5D688379838A839B83DF91CF911F91B7
:101C70000F91FF90EF90DF90CF90BF90AF909F902B
:101C80008F9008950F931F93CF93DF93FC01ED582E
:101C9000FF4F20812223B9F07A97008111812281A0
:101CA0003381389640815181628173810417150711
:101CB0002607370710F1EC01FFDDCE01DF91CF9150
:101CC0001F910F9177CFFC01E759FF4F208122230D
:101CD000A1F0709700811181228133813496408177
:101CE000518162817381041715072607370728F091
:101CF000DF91CF911F910F91FECEDF91CF911F9178
:101D00000F910895FC01E759FF4F2081222361F0D4
:101D1000709780819181A281B3810196A11DB11D2F
:101D200080839183A283B38308950F931F93FC0153
:101D3000E45BFF4F2081211112C03897008111818F
:101D400022813381349640815181628173810417ED
:101D50001507260737073CF41F910F91FACDFC01B8
:101D600022A92111F9CF1F910F91DDCDFC0181E056
:101D7000868387831186108612868CE291E0A0E02C
:101D8000B0E0868F978FA0A3B1A342E350E060E05C
:101D900070E042A353A364A375A346A357A360A70F
:101DA00071A782A793A7A4A7B5A788E790E0A0E0B2
:101DB000B0E086A797A7A0ABB1AB12AA13AA14AA4A
:101DC00015AA84E690E0A0E0B0E086AB97ABA0AFA8
:101DD000B1AF12AE13AE14AE15AE16AE17AEDF0134
:101DE000A05CBF4F1D921D921D921C9213971496DA
:101DF0001D921D921D921C92139714961D921D9276
:101E00001D921C92139714961C9211961D921D926E
:101E10001D921C92139714961D921D921D921C9256
:101E2000139714961D921D921D921C92139714964F
:101E30001D921D921D921C92139714961D921D9235
:101E40001D921C92139714961D921D921D921C9226
:101E5000139714961D921D921D921C92139714961F
:101E60001C9211961C9211961C9211961C9211961E
:101E70001C9211961C9211961C9211961C9211960E
:101E80001C9211961C9211961C921486138616862B
:101E90001586108A1786128A118A148A138A168A5E
:101EA000158A108E178A128E118E119688E59CE085
:101EB00011969C938E93129611961C921E921296D6
:101EC00084E59CE011969C938E93129611961C9239
:101ED0001E92129680E59CE011969C938E9312962A
:101EE00011961C921E9212968CE49CE08D939C930A
:101EF000EE57FF4F118210820895089508950895B6
:101F000008958FEF9FEF0895089508950895CF9352
:101F1000DF93D0E0C0E0CE010E94D101882319F008
:101F2000CE010E9467022196C13ED105A1F7DF9143
:101F3000CF91089508950F931F93CF93DF938B0153
:101F4000EA01AB01415051094433510508F0E9C0A1
:101F50002230310508F0E5C048E3429FF001439F7D
:101F6000F00D1124E80FF91FE60FF71F81E08083C1
:101F70006C2F232B09F4D2C061E0802FD4D9209795
:101F800049F460E0802FA2D9CE01DF91CF911F915B
:101F90000F910895CF3FD10511F461E0BFC0F80162
:101FA000ED50FD4FE491E150E23108F0B2C0F0E0B5
:101FB0008827E252F04F8F4F0C941D5EF00FF70F01
:101FC000FC0F0610101089101A1022102A1034105D
:101FD0003E1048105710611089106B1075107F105B
:101FE00084B5806884BDC7BDD0E0C0E0CDCF84B5E6
:101FF000806284BDC8BDF8CF8091800080688093E6
:102000008000D0938900C0938800EECF809180003B
:10201000806280938000D0938B00C0938A00E4CFCD
:1020200080918000886080938000D0938D00C09361
:102030008C00DACF8091B00080688093B000C093AC
:10204000B300D2CF8091B00080628093B000C09383
:10205000B400CACF80919000806880939000D093A4
:102060009900C0939800C0CF8091900080628093C7
:102070009000D0939B00C0939A00B6CF80919000BF
:10208000886080939000D0939D00C0939C00ACCF5B
:102090008091A00080688093A0008091A0008F7B39
:1020A0008093A000D093A900C093A8009DCF8091F9
:1020B000A00080628093A000D093AB00C093AA00E0
:1020C00093CF8091A00088608093A000D093AD0052
:1020D000C093AC0089CF809120018068809320015B
:1020E000D0932901C09328017FCF80912001806285
:1020F00080932001D0932B01C0932A0175CF80914A
:102100002001886080932001D0932D01C0932C0181
:102110006BCF60E0C038D1050CF03FCF802FD6D810
:1021200063CFC1E0D0E030CF0895CF93DF93EC01CF
:10213000FC01EE5DFC4F1082EE58F10980818111A7
:1021400003C0CE0140961BDCFE01EB56FD4F8081A3
:10215000811104C0CE018C569F4F11DCFE01EA565E
:10216000FD4F8081811104C0CE01885E9E4F07DC47
:1021700064E670E080E090E0DF91CF9140C908957F
:1021800008950895089508958FB7F89480914109AE
:102190008FBF08954F925F926F927F928F929F921E
:1021A000AF92BF92CF92DF92EF92FF92CF93DF93E5
:1021B000EC016C897D898E899F8988889988AA8895
:1021C000BB88CE8CDF8C0D2C000CEE08FF08603134
:1021D00027E272078105910529F0161617061806E1
:1021E0001906ACF0A7019601C501B4010E94025E78
:1021F000DF91CF91FF90EF90DF90CF90BF90AF90A5
:102200009F908F907F906F905F904F9008950E9465
:10221000735B20E030E44CE157E40E94615D2B01E8
:102220003C01488E598E6A8E7B8EC501B4010E9496
:10223000735BA30192010E94D25B4B015C01C70159
:10224000B6010E94735B9B01AC01C501B4010E9401
:10225000D25B0E94C95DCCCF2F923F924F925F928A
:102260006F927F928F929F92AF92BF92CF92DF92A6
:10227000EF92FF920F931F93CF93DF9300D01F92A3
:10228000CDB7DEB79C838B834B015A011901FA82CB
:10229000E982FA01408051806280738020E030E062
:1022A000A901C301B2010E94FA5D181674F4F60187
:1022B0002081318142815381C301B2010E94FC5CC3
:1022C000F5016083718382839383F801408051809C
:1022D00062807380F401A68DB78D2089318942898F
:1022E00053890E94C55C6B017C01EB81FC81E6593E
:1022F000FF4F8081882309F440C0C414D504E6044C
:10230000F7040CF440C0F801C082D182E282F3826B
:102310008B819C818C5B9F4F9C838B83FC01808194
:102320009181A281B381F10180839183A283B383E0
:10233000E981FA8180819181892B41F0C4012ADFF2
:10234000EB81FC8160837183828393830F900F9074
:102350000F900F90DF91CF911F910F91FF90EF9011
:10236000DF90CF90BF90AF909F908F907F906F90B5
:102370005F904F903F902F9008954C145D046E0431
:102380007F040CF0C0CFF5014080518062807380E3
:1023900020E030E04AEF56E4C301B2010E946D5BD9
:1023A00087FFB1CF20E030E040E85FE3C301B20136
:1023B0000E94FD5CF5016083718382839383A3CFC8
:1023C000FC011182108213821282158214821782FC
:1023D0001682108611861286138614861586168636
:1023E0001786108A118A128A138A108E118E128E05
:1023F000138E158E148E178E168E10A211A212A295
:1024000013A214A215A216A217A210A611A612A614
:1024100013A614A615A681E090E097A786A780E1F1
:1024200097E2A0E0B0E0848B958BA68BB78B0895E4
:102430008EBD00000DB407FEFDCF8EB50895DF926E
:10244000EF92FF920F931F93CF93DF93EC01D62E61
:10245000122F032FF42EE52E60E088850E94660976
:102460008D2D8068E5DF89878E2DE2DF8F2DE0DFFF
:10247000802FDEDF812FDCDF61E088850E94660926
:102480008985DF91CF911F910F91FF90EF90DF90A1
:1024900008953F924F925F926F927F928F929F9298
:1024A000AF92BF92CF92DF92EF92FF920F931F9362
:1024B000CF93DF9300D000D0CDB7DEB79E838D835E
:1024C000362E49015A0127013801C3D960E0ED8158
:1024D000FE8180850E946609832DAADFED81FE8141
:1024E000818780E0A5DF80E0A3DF80E0A1DF80E0DE
:1024F0009FDF61E0ED81FE8180850E94660960E0DA
:10250000ED81FE8180850E946609832D91DFED813A
:10251000FE81818780E08CDFF82E80E089DF082F44
:1025200080E086DF182F80E083DF202F30E050E04E
:1025300040E03F2969017A01FE2CED2CDC2CCC24F3
:10254000C12AFE2CED2CDC2CCC24C82A61E0ED81C4
:10255000FE8180850E9466098C249D24AE24BF24C0
:10256000482059206A207B20A30192012C253D257B
:102570004E255F25632D8D819E8161DFED81FE817A
:10258000818526960FB6F894DEBF0FBECDBFDF91D2
:10259000CF911F910F91FF90EF90DF90CF90BF9060
:1025A000AF909F908F907F906F905F904F903F90F3
:1025B0000895CF93DF93EC0161E088850E94930931
:1025C00061E088850E94660944D960E088850E94A0
:1025D000660980E02DDF898780E02ADF80E028DF40
:1025E00080E026DF80E024DF61E08885DF91CF9105
:1025F0000C946609CF93DF93EC018C818835A9F5A3
:1026000082E493E19983888382E793E19B838A83C1
:1026100088E59CE0FE01EC58FF4F91838083329661
:102620001182108284E59CE03296918380833296F9
:102630001182108280E59CE03296918380833296ED
:10264000118210828CE49CE03296918380833296D2
:102650001182108288819981ACDF8C81883589F460
:102660008A819B81DF91CF91A4CF893529F482E5BE
:1026700093E199838883CCCF8A3551F682E693E142
:10268000F8CFDF91CF9108958F929F92AF92BF9232
:10269000CF92DF92EF92FF920F931F93CF93DF932E
:1026A000EC018B015A01690184DF85E090E0A0E034
:1026B000B0E008301105C1F1B4F487E090E0A0E08B
:1026C000B0E00230110581F186E090E0A0E0B0E0DA
:1026D0000430110549F101301105A1F488E090E0C2
:1026E000A0E0B0E021C083E090E0A0E0B0E00032E4
:1026F0001105D1F05CF484E090E0A0E0B0E000319E
:10270000110591F080E090E0DC010EC082E090E0E5
:10271000A0E0B0E00034110539F081E090E0A0E0E5
:10272000B0E00038110571F7582F442733272227CE
:10273000E12CF12C00E01FE06CE6CE01AADEB50131
:1027400090E080E00E94715B25ED34E045E352E4C7
:102750000E94D25B20E030E04AE754E40E94615DD1
:1027600028EB3EE145E05EE30E94D25B4B015C0159
:1027700026E636E646EA5EE30E94615D20E030E050
:1027800040E85FE30E94FC5C0E94CE5D603180F413
:102790002CEE31E548E35EE3C501B4010E94615DC2
:1027A00020E030E040E85FE30E94FC5C0E94CE5DE8
:1027B000862F8F71262F30E050E040E0542F432FBA
:1027C000322F222722273F7144275527282B60E1EB
:1027D000CE0135DE0D2C000CEE08FF08A6013327D4
:1027E0002227E12CF12C01E010E06CE6CE0151DE55
:1027F000E12CF12C8701E39421E030E040E050E04F
:1028000060E0CE0146DE1FE0E12EF12C00E010E09A
:1028100023E030E040E050E06CE6CE013ADEE12C0F
:1028200010E8F12E01E010E020E030E840E050E058
:102830006CE6CE012EDEE12CF12C8701F39420E032
:1028400031E040E050E060E0CE0123DEE12C14E016
:10285000F12E00E010E020E034E040E050E060E0E5
:10286000CE0117DE2FEF3FEF4FE050E064E1CE01E5
:10287000E6DD20E030E0A90165E1CE01E0DD1FE00A
:10288000E12EF12C00E010E025E030E040E050E0E7
:102890006CE6CE01FEDDE12CF12C8701F39420E003
:1028A00032E040E050E06CE6CE01F3DDE12C10E2D6
:1028B000F12E00E010E020E030E240E050E06CE675
:1028C000CE01E7DD64E670E080E090E0DF91CF913B
:1028D0001F910F91FF90EF90DF90CF90BF90AF903E
:1028E0009F908F900C94FF09CF92DF92EF92FF920E
:1028F0000F931F93CF93DF93EC017B016A01890152
:102900009A01AB01B80188819981BEDE8C8188353E
:1029100071F49601A701B8018A819B81DF91CF9163
:102920001F910F91FF90EF90DF90CF90ADCEDF9190
:10293000CF911F910F91FF90EF90DF90CF9008956E
:10294000CF93DF93EC01188A198A1A8A1B8A83E5D0
:1029500090E00E94990760E086E10E94660983E0AA
:1029600090E00197F1F78EA58295807F61DD8FE081
:1029700090E00197F1F761E086E1DF91CF910C944F
:102980006609CF92DF92EF92FF920F931F93CF933E
:10299000DF938C0183E590E00E94990760E086E177
:1029A0000E94660983E090E00197F1F7F80186A59F
:1029B00097A524E0880F991F2A95E1F78F6038DDED
:1029C0008FE090E00197F1F7C4E0D0E0C12CD12C6A
:1029D0007601FE2CED2CDC2CCC2481E029DDC82AEC
:1029E0002197B9F761E086E10E946609F801C08A83
:1029F000D18AE28AF38ADF91CF911F910F91FF90E4
:102A0000EF90DF90CF900895CF93DF93EC0183B1E7
:102A100083B1E0E0F1E080818081CE0184569E4F59
:102A2000B0DF83B183B180B180B1CE0184539E4FBA
:102A3000A8DF83B183B180B180B1CE0184509E4FB5
:102A4000DF91CF919ECF0895089508950895089538
:102A50008091250890912608892BE1F585E390E087
:102A60000E94F455FC0181E090E0A0E0B0E080839A
:102A70009183A283B38384839583A683B78380875E
:102A80009187A287B3871586148616861786108AC3
:102A9000118A128A138A148A158A168A178A108E46
:102AA000118E138E128E12A213A214A215A217A2B7
:102AB00016A210A611A612A613A614A615A616A64F
:102AC00017A610AA11AA12AA13AA14AAF0932608EC
:102AD000E093250880912508909126080895CF93CA
:102AE000DF93B6DFEC0185E40E943E0921E0892BEB
:102AF00009F420E02C8FACDFEC0184E40E943E0955
:102B000021E0892B09F420E02D8FA2DFEC0183E482
:102B10000E943E0921E0892B09F420E02E8F98DFE6
:102B2000EC0182E40E943E0921E0892B09F420E0B7
:102B30002F8F8EDFEC0181E40E943E0921E0892B7A
:102B400009F420E028A384DFEC0180E40E943E0920
:102B500021E0892B09F420E029A3DF91CF9108958A
:102B600077DFBDCF75DFFC0114AA90E080E0089507
:102B70008091210890912208892B41F481E090E016
:102B80000E94F45590932208809321088091210897
:102B90009091220808950F931F93CF93DF938B0199
:102BA000E7DFF801C2A1D3A1868D978D853091050D
:102BB00029F14CF40497B1F090E080E0DF91CF91DF
:102BC0001F910F9108958630910511F10B97A1F790
:102BD0006BE070E08DEF9DE00E94B80ABE018DEFC2
:102BE0009DE009C064E070E084EF9DE00E94B80AB7
:102BF000BE0184EF9DE00E943C0ADECF65E070E0FC
:102C000087EF9DE00E94B80ABE0187EF9DE0F3CFF9
:102C100066E070E08AEF9DE00E94B80ABE018AEF8C
:102C20009DE0E9CF80911F0890912008892B91F4B5
:102C300080E790E00E94F455FC0131969C012B5CEA
:102C40003F4F119217AAE217F307D9F79093200884
:102C500080931F0880911F08909120080895CF93BA
:102C6000DF93EB01DFDF6AA98E8D0E94930990E06C
:102C700080E0DF91CF9108954F925F926F927F92A3
:102C8000AF92BF92CF92DF92EF92FF920F931F937A
:102C9000CF93DF93EB01C6DF8C01CAA8DBA84EA45B
:102CA0005FA468A879A8AEA0BFA0EE8CFF8C4AA153
:102CB0005BA19601B7013FD9C301B2010E94FF0990
:102CC0009601A501B701C80136D990E080E0DF91F7
:102CD000CF911F910F91FF90EF90DF90CF90BF9019
:102CE000AF907F906F905F904F900895CF93DF9358
:102CF000EB0198DF2AA93BA94AA15BA16E8D7F8DCC
:102D00001AD990E080E0DF91CF910895FC01019005
:102D10000020E9F73197AF01481B590BBC0186EC45
:102D20009CE00C94A3078F929F92AF92BF920F9357
:102D30001F93CF93DF93CDB7DEB7A1970FB6F8946B
:102D4000DEBF0FBECDBF19A2423008F44AE08E01AB
:102D50000F5D1F4F842E912CB12CA12CA501940145
:102D60000E94CB5CE62FB901CA01EA30ECF4E05DC9
:102D7000D801EE938D01232B242B252B79F790E09E
:102D800080E0109711F0CD01C1DFA1960FB6F89445
:102D9000DEBF0FBECDBFDF91CF911F910F91BF90CE
:102DA000AF909F908F900895E95CE2CFCF92DF9231
:102DB000EF92FF92CF93DF9397FF18C06B017C01D6
:102DC0008DE20E948408EC0166277727CB016C19FD
:102DD0007D098E099F094AE0A6DF8C0F9D1FDF91B8
:102DE000CF91FF90EF90DF90CF9008954AE0DF9170
:102DF000CF91FF90EF90DF90CF9095CFBC01990FCE
:102E0000880B990BD3CF82CF882319F084E797E002
:102E1000FACF8DE697E0FCCF2F923F924F925F92D0
:102E20006F927F928F929F92AF92BF92CF92DF92DA
:102E3000EF92FF920F931F93CF93DF93CDB7DEB73F
:102E400062970FB6F894DEBF0FBECDBF1C018C0198
:102E50000C5B1F4F1E870D87D8014D915D916D91C1
:102E60007C917C01B8E4EB0EF11CF701808191812B
:102E7000A281B3816101FCE4CF0ED11CF601208157
:102E80000A5D1F4F58017F964F012223A1F1F101E6
:102E900022A9F801208321E0F40120834115510586
:102EA0006105710559F4F10102A113A124A135A115
:102EB000EB59FF4F00831183228333838101005C30
:102EC0001F4FF80140805180628073809101275923
:102ED0003F4F5901481659066A067B06B4F5481754
:102EE00059076A077B07DCF1D6018C91811137C045
:102EF000D5011C923CC121E0481759076A077B079E
:102F00000CF020E0F50120832A013B0177FF07C088
:102F1000442455243201441A550A660A770A8C0162
:102F20009D01B7FF07C0002711279801081B190B47
:102F30002A0B3B0BBB24B394401651066206730662
:102F40000CF4B12CF401B082A9CF84159505A60527
:102F5000B70554F684179507A607B7072CF6F501B1
:102F60008081882329F2D6018C9181110EC0F6014F
:102F700080818111BDCFD4016C9181E06827C101AE
:102F80000E945F0D8111B4CF06C060E0C1010E94B4
:102F90005F0D8111ECCFD1019A962D913D914D910C
:102FA0005C919D9729833A834B835C835E962D9138
:102FB0003D914D915C9191972D833E834F8358872E
:102FC00092962D913D914D915C91959729873A87E5
:102FD0004B875C87F70180819181A281B381ED8568
:102FE000FE85C080D180E280F380F801408151816C
:102FF00062817381F101E359FF4F10823196108293
:103000003101FFE66F0E711CF3011082910120590E
:103010003F4FF9011082329610824C015D01841AF3
:10302000950AA60AB70AB7FE08C0B094A094909477
:103030008094811C911CA11CB11C481759076A0778
:103040007B072CF0C81AD90AEA0AFB0A04C0C41A82
:10305000D50AE60AF70AD501C401B595A795979553
:1030600087958D879E87AF87B88B81010E581F4F3C
:103070008C149D04AE04BF0408F09FC0D101969645
:103080000D90BC91A02DBA8BA98B81E0F9018083B2
:10309000D8018C93F1018285882309F45CC00E94D9
:1030A000300AD10118960D911C91012E000C220BB3
:1030B000330B601B710B820B930B693E73408105D0
:1030C000910508F448C00E94300AF10171876087B9
:1030D00088E993E098DE8CE993E095DE60E070E0AB
:1030E000CB0164DE82EA93E08EDEC701B6015EDECC
:1030F00088EA93E088DEC501B40158DE8EEA93E0E9
:1031000082DE4AE06D857E858F8598890CDE85EBB1
:1031100093E079DE69817A818B819C8147DE8BEB3C
:1031200093E071DE69857A858B859C853FDE81EC35
:1031300093E069DE6D817E818F81988537DE87EC33
:1031400093E061DE82E294E05EDE89899A8956DE50
:1031500088EE97E058DEF101EB59FF4F09891A8993
:10316000C801B0E0A0E080839183A283B38360E0D4
:10317000C1010E945F0D882339F0F101EC5BFF4F24
:10318000108211821282138262960FB6F894DEBF0B
:103190000FBECDBFDF91CF911F910F91FF90EF90A8
:1031A000DF90CF90BF90AF909F908F907F906F9067
:1031B0005F904F903F902F9008952D853E854F85CD
:1031C00058892C153D054E055F0508F450C08981CE
:1031D0009A81AB81BC818C159D05AE05BF0544F479
:1031E000AD81BE811196BA8BA98B81E0F3014FCFDF
:1031F000C701B6010E94735B2B013C0169817A8192
:103200008B819C810E94735B9B01AC01C301B20165
:103210000E94615D2B013C016D817E818F819885CB
:1032200029853A854B855C85621B730B840B950B56
:103230000E94735B9B01AC01C301B2010E94D25B8F
:103240002B013C0169857A858B859C850E94735B87
:103250009B01AC01C301B2010E94FD5C0E94C95DEB
:103260007A8B698B81E0F101E359FF4F10CFD501D3
:10327000C40129813A814B815C81821B930BA40B91
:10328000B50BC816D906EA06FB065CF44D815E81D3
:103290004E5F5F4F5A8B498B81E0F101E159FF4F3F
:1032A000F6CEC501B4016C197D098E099F090E94F3
:1032B000735B2B013C0169817A818B819C810E9427
:1032C000735B9B01AC01C301B2010E94615D2B01E4
:1032D0003C016D817E818F81988529853A854B855A
:1032E0005C85621B730B840B950B0E94735B9B01C7
:1032F000AC01C301B2010E94D25B2B013C01698584
:103300007A858B859C850E94735B9B01AC01C30110
:10331000B2010E94FD5C0E94C95D7A8B698B81E0DD
:10332000F101E259FF4FB3CECF93DF93EC018DEC67
:1033300093E069DD6AA17BA18CA19DA137DD88EEB8
:1033400097E0DF91CF915FCD0F931F93CF93DF93E2
:103350008C01EB018AE793E056DD82E294E053DDD5
:10336000F80184810E948408CE0148DD71DBDF9181
:10337000CF911F910F91D8CFEF92FF920F931F9390
:10338000CF93DF93182F092F7B016115710569F524
:103390000E943E0931E020E0019709F030E0C32FA0
:1033A000D22F82E0E816F10408F045C080ED93E0EA
:1033B0002ADD82E294E027DD84ED93E024DD812F95
:1033C000902F1CDD82E294E01EDD89E198E01BDD98
:1033D000CE0114DD3DDBA8DF90E080E0DF91CF91EE
:1033E0001F910F91FF90EF900895D0E0C0E0613001
:1033F0007105B9F6812F163310F08AEC810F2091F8
:103400007B00982F9870277F922B90937B0087707A
:10341000806480937C0080917A00806480937A003D
:1034200080917A0086FDFCCF80917800C091790070
:10343000DC2FC82FB6CF81E090E0D0CF0F931F9341
:10344000CF93DF93FC012081318121153105C1F13A
:10345000EC01822F0E943E0921E0892B09F420E033
:103460002B876A85261701F11E821F82188619860E
:103470000E811F81288539858A819B81AC81BD8120
:10348000081719072A073B07DCF081E068278881C5
:103490000E946609C7DB70E060E088819981DF9156
:1034A000CF911F910F9168CF8E819F81A885B9859B
:1034B0000196A11DB11D8E839F83A887B987D8CFA0
:1034C000DF91CF911F910F910895CF93DF93EB017F
:1034D000A9DB6AA97BA98E8D9F8D4EDF90E080E0ED
:1034E000DF91CF910895CF93DF93EC0186ED93E0C8
:1034F0008ADC8AED93E087DC8C8D86DC8EED93E0B0
:1035000082DC8D8D81DC82EE93E07DDC8E8D7CDC37
:1035100086EE93E078DC8F8D77DC8AEE93E073DCC7
:1035200088A172DC8EEE93E06EDC89A16DDCCE01A9
:10353000DF91CF91F9CE8CDAD6CF82EF93E063DCC6
:1035400087DACDDA85DACFDF6DDB70E060E088E026
:1035500090E012DF67DB70E060E089E090E00CDF74
:1035600061DB70E060E08AE090E006DF5BDB70E04A
:1035700060E08DE090E000DF90E080E00895CF9281
:10358000DF92EF92FF92CF93DF93EB01CB010E948A
:10359000D101882351F1FE01EE0FFF1FEE0FFF1F37
:1035A000EE5BF64FC080D180E280F38089EF93E03C
:1035B0002ADC82E294E027DC84ED93E024DCCE0177
:1035C0001DDC82E294E01FDC89E198E01CDCC7018D
:1035D000B601ECDB3DDAA8DE90E080E0DF91CF9130
:1035E000FF90EF90DF90CF9008958DEF93E00BDC8C
:1035F000F3CF0F931F93CF93DF938C01D0E0C0E004
:10360000CE010E94D101882319F0BE01C801B7DFA5
:103610002196C13ED105A1F7DF91CF911F910F9166
:1036200008958FE194E0EFDB8AE292E0ECDB8AE040
:1036300092E0E9DB84E294E0E6DB0ADA75DE90E012
:1036400080E008954F925F926F927F928F929F9247
:10365000AF92BF92CF92DF92EF92FF920F931F93A0
:10366000CF936B017C01742EAC019B010E94FE5D27
:10367000882391F08EE294E0CF911F910F91FF90FB
:10368000EF90DF90CF90BF90AF909F908F907F9002
:103690006F905F904F903ACB46015701E894B7F88E
:1036A0002FEF3FEF4FE75FE7C501B4010E94FE5DDA
:1036B00081110DC02FEF3FEF4FE75FE7C501B40168
:1036C0000E946D5B18161CF482E394E0D5CF2FEFB7
:1036D0003FEF4FE75FE4C701B6010E94FA5D18169D
:1036E0001CF486E394E0C8CF2FEF3FEF4FE75FEC89
:1036F000C701B6010E946D5B87FDF3CF20E030E08B
:10370000A901C701B6010E946D5B10E000E087FFD0
:1037100008C08DE20E9484088C01F7FAF094F7F853
:10372000F094C0E060E070E080E09FE37C1641F040
:1037300020E030E040E251E40E94615DCF5FF6CFCF
:10374000A70196010E94FD5C2B013C010E94CE5D09
:103750004B015C014AE0E7DA7C01E00EF11ECC236C
:10376000A9F1C501B4010E94715B9B01AC01C301C9
:10377000B2010E94FC5C4B015C018EE20E94840855
:10378000E80EF91EC15010F120E030E040E251E4B3
:10379000C501B4010E94D25B2B013C010E94CE5DA9
:1037A0004B01B12CA12C4AE0C501B401BCDAE80EF2
:1037B000F91EC501B4010E94715B9B01AC01C301FC
:1037C000B2010E94FC5C4B015C01DCCFC701CF91D0
:1037D0001F910F91FF90EF90DF90CF90BF90AF902F
:1037E0009F908F907F906F905F904F900895CF92B1
:1037F000DF92EF92FF92CF93DF93EC018881998162
:10380000AA81BB81181619061A061B0644F081E02E
:1038100090E0A0E0B0E088839983AA83BB838C8189
:103820009D81AE81BF81181619061A061B0644F049
:1038300081E090E0A0E0B0E08C839D83AE83BF8305
:1038400088859985AA85BB85181619061A061B0650
:1038500044F081E090E0A0E0B0E088879987AA87F3
:10386000BB878AE394E0CFDA8FE494E0CCDA6E850C
:103870007F85888999890E94735B6B017C016881CF
:1038800079818A819B810E94735B9B01AC01C70196
:10389000B6010E94615D42E0D5DE8FE594E0B3DAC7
:1038A0006A897B898C899D890E94735B6B017C018D
:1038B0006C817D818E819F810E94735B9B01AC0135
:1038C000C701B6010E94615D42E0BCDE8FE694E074
:1038D0009ADA6E897F89888D998D0E94735B6B015E
:1038E0007C01688579858A859B850E94735B9B0135
:1038F000AC01C701B6010E94615D42E0A3DECE01CA
:10390000DF91CF91FF90EF90DF90CF900DCDA0D8B9
:103910006EDF90E080E008958F929F92AF92BF9209
:10392000CF92DF92EF92FF920F931F93CF93DF938B
:10393000EC018AE392E067DA8FE494E064DA6E01E6
:1039400084E6C81A8EEFD80AC6010E94CA100E94E7
:10395000735B4B015C01FE01EB54FD4F6081718193
:10396000828193810E94735B9B01AC01C501B4010C
:103970000E94615D42E066DE8FE594E044DA7E01FC
:10398000E4E3EE1AEEEFFE0AC7010E94CA100E949D
:10399000735B4B015C01FE01E754FD4F6081718157
:1039A000828193810E94735B9B01AC01C501B401CC
:1039B0000E94615D42E046DE8FE694E024DA8E01EB
:1039C00004501E4FC8010E94CA100E94735B4B0135
:1039D0005C01C354DD4F688179818A819B810E949B
:1039E000735B9B01AC01C501B4010E94615D42E0C3
:1039F00029DE2ED899DC86E392E005DA8FE494E0A4
:103A000002DAF601A68DB78D208931894289538962
:103A10000E94C55CCBD98FE594E0F5D9F701A68D5E
:103A2000B78D20893189428953890E94C55CBED9EE
:103A30008FE694E0E8D9F801A68DB78D2089318909
:103A4000428953890E94C55CB1D902D8DF91CF91D8
:103A50001F910F91FF90EF90DF90CF90BF90AF90AC
:103A60009F908F9061CCCF92DF92EF92FF920F9355
:103A70001F93CF93DF938C016A017B01EC01CC0F84
:103A8000DD1F642FCE010E94915C9927F7FC9A9567
:103A90008F2D7E2D6D2DCE0101960E94915C0D58CB
:103AA00011090330110588F4B701992777FD909526
:103AB000892FCE0144960E94915C6F2D772788272D
:103AC0009927CE0145960E94915C90E080E0DF91BD
:103AD000CF911F910F91FF90EF90DF90CF900895BD
:103AE0004F925F926F927F928F929F92AF92BF920E
:103AF000CF92DF92EF92FF920F931F93CF93DF93BA
:103B00008C01EC01CC0FDD1FCE010E94895C882E58
:103B1000912CB12CA12CCE0101960E94895CC82E5B
:103B2000D12CF12CE12C0D5811090330110508F0AE
:103B30005AC0CE0144960E94895C482E512C712CAB
:103B4000612CCE0145960E94895C082F10E030E080
:103B500020E08FEF481651046104710429F50F3FEE
:103B600011052105310501F58FEF88169104A10497
:103B7000B104C9F58FEFC816D104E104F10499F539
:103B80006FEF7FEFCB01DF91CF911F910F91FF90EE
:103B9000EF90DF90CF90BF90AF909F908F907F90ED
:103BA0006F905F904F900895003811052105310501
:103BB0003CF7FE2CED2CDC2CCC24C701B601680DA3
:103BC000791D8A1D9B1D320155244424640D751DE9
:103BD000861D971D302F222711270027600F711F88
:103BE000821F931FD0CF00E010E09801412C512C90
:103BF000320180E8C816D104E104F104D4F2C0CF48
:103C0000EF92FF920F931F93CF93DF93809123083E
:103C100090912408892B51F586E090E00E94F4559C
:103C20007C0190E080E05CDF1616170654F1C701B6
:103C30000E94870FD0E0C0E0CE010E94D10188230E
:103C400069F0FE01EE0FFF1FEE0FFF1FEE5BF64F58
:103C50004081518162817381CE0105DF2196C63991
:103C6000D10551F7F0922408E092230880912308AF
:103C700090912408DF91CF911F910F91FF90EF90C9
:103C8000089583E090E02CDF613071058105910596
:103C900031F502E419E0D0E0C0E0CE010E94D1018C
:103CA0008823B1F0CE011CDFF80160837183828329
:103CB00093836F3F7F4F8F4F9F4F51F4CE010E94F0
:103CC0006702F8014081518162817381CE01CBDEB0
:103CD00021960C5F1F4FC13ED105F9F6C3CFC70136
:103CE0000E94870FBFCF8CDF84DC8EE394E08BD8FB
:103CF0000E94281519DB90E080E00895CF92DF92B2
:103D0000EF92FF920F931F93CF93DF937C016B0190
:103D10008A01E90175DFF601EE0FFF1FEE0FFF1FAD
:103D2000EE5BF64F80819181F7019183808368DF9C
:103D3000000F111F000F111FF801EE5BF64F81E01D
:103D40004081518162817381413051056105710566
:103D500009F080E0F701828753DFCC0FDD1FCC0F25
:103D6000DD1FCE5BD64F88819981AA81BB81F70187
:103D700082839383A483B58316821782108611866B
:103D8000DF91CF911F910F91FF90EF90DF90CF9037
:103D90000895CF93DF93EC012AEC30E04BEC50E038
:103DA00069EC70E0ABDF2EEC30E04FEC50E06DECF6
:103DB00070E0CE010C96A2DF24ED30E045ED50E03E
:103DC00063ED70E0CE01489699DF28ED30E049EDD3
:103DD00050E067ED70E0CE01849690DF2EED30E08C
:103DE0004FED50E06DED70E0CE01C096DF91CF91C8
:103DF00085CFCF93DF938091270890912808892B56
:103E0000A1F48CE390E00E94F455EC011982188231
:103E10001D861C86198E188E1DA21CA219AA18AA0E
:103E2000B8DFD0932808C093270880912708909185
:103E30002808DF91CF9108952F923F924F925F9281
:103E40006F927F928F929F92AF92BF92CF92DF92AA
:103E5000EF92FF920F931F93CF93DF93EC01D0DE8D
:103E6000FE01E551FD4F8091FE0A9091FF0A91837A
:103E70008083C6DEFE01E351FD4F8091020B9091DD
:103E8000030B91838083BCDEFE01E151FD4F8091E5
:103E9000060B9091070B91838083B2DE8E010F5049
:103EA0001D4F6091260B7091270B8091280B9091EC
:103EB000290B0E94735BF801608371838283938373
:103EC0009FDE1E01FBE02F1AFDEF3F0A60912A0BD7
:103ED00070912B0B80912C0B90912D0B0E94735B9A
:103EE000F10160837183828393838ADE20E030E076
:103EF00048EC52E4F80160817181828193810E94D3
:103F0000615D2B013C0120E030E048EC52E4F1011E
:103F100060817181828193810E94615D4B015C01AE
:103F200060912E0B70912F0B8091300B9091310B83
:103F30000E94735B20E030E048EC52E40E94615D37
:103F40006B017C012AE037ED43E25CE3C301B2017F
:103F50000E94FA5D18160CF02AC120E030E046EC11
:103F600052E4C301B2010E946D5B87FD06C0412C83
:103F7000512C56EC652E52E4752EF8014082518288
:103F8000628273822AE037ED43E25CE3C501B4014B
:103F90000E94FA5D18160CF013C120E030E046ECE8
:103FA00052E4C501B4010E946D5B87FD06C0812CFF
:103FB000912C36ECA32E32E4B32EF1018082918253
:103FC000A282B3822AE037ED43E25CE3C701B60187
:103FD0000E94FA5D18160CF0FCC020E030E046ECC0
:103FE00052E4C701B6010E946D5B87FD06C0C12C7B
:103FF000D12C96ECE92E92E4F92EFE01E750FD4F0C
:10400000C082D182E282F382FBDD8091E60A909148
:10401000E70AFE01FD5F91838083F2DD8091EA0A69
:104020009091EB0AFE01EE5FFC4F91838083E8DD07
:104030008091EE0A9091EF0AFE01EC5FFC4F9183B4
:104040008083DEDD80910E0B90910F0BA091100B01
:10405000B091110BFE01EA5FFC4F80839183A28334
:10406000B383CEDD8091120B9091130BA091140BB2
:10407000B091150BFE01E65FFC4F80839183A28314
:10408000B383BEDD8091160B9091170BA091180B96
:10409000B091190BFE01E25FFC4F80839183A283F4
:1040A000B383AEDD8091360B9091370BFE01EE5E4F
:1040B000FC4F91838083A4DD80913A0B90913B0B60
:1040C000FE01EC5EFC4F918380839ADD80913E0B74
:1040D00090913F0BFE01EA5EFC4F9183808390DD5F
:1040E00080914E0B90914F0BFE01E85EFC4F918347
:1040F000808386DD8091520B9091530BFE01E65E2A
:10410000FC4F918380837CDD8091560B9091570BFF
:10411000FE01E45EFC4F9183808372DD8091D60ABC
:104120009091D70AA091D80AB091D90AFE01E35024
:10413000FD4F0197A105B10509F054C081E08083CE
:104140005FDD8091DA0A9091DB0AA091DC0AB091E0
:10415000DD0AFE01E250FD4F0197A105B10509F00E
:1041600043C081E080834CDD8091DE0A9091DF0ABC
:10417000A091E00AB091E10AC150DD4F0197A1057D
:10418000B105A1F581E08883DF91CF911F910F9157
:10419000FF90EF90DF90CF90BF90AF909F908F9067
:1041A0007F906F905F904F903F902F9008954AE0DE
:1041B000442E47ED542E43E2642E4CE3742EDDCEA4
:1041C0002AE0822E27ED922E23E2A22E2CE3B22E9D
:1041D000F4CE8AE0C82E87EDD82E83E2E82E8CE359
:1041E000F82E0BCF1082ACCF1082BDCF1882CCCF6F
:1041F0002F923F924F925F926F927F928F929F92F7
:10420000AF92BF92CF92DF92EF92FF920F931F93E4
:10421000CF93DF93CDB7DEB765970FB6F894DEBFC7
:104220000FBECDBF998B888BEBDCE889F989ED5BFC
:10423000FD4F81E040910E0A50910F0A6091100AE3
:104240007091110A452B462B472B09F480E080839F
:10425000D7DCE889F989EC5BFD4F81E04091120AD7
:104260005091130A6091140A7091150A452B462B40
:10427000472B09F480E08083C3DCE889F989EB5B94
:10428000FD4F81E04091160A5091170A6091180A7B
:104290007091190A452B462B472B09F480E0808347
:1042A000AFDC80915E0A90915F0AA091600AB091A4
:1042B000610AE889F989EA5BFD4F80839183A283D3
:1042C000B3839EDC8091620A9091630AA091640A94
:1042D000B091650AE889F989E65BFD4F8083918397
:1042E000A283B3838DDC8091660A9091670AA091C6
:1042F000680AB091690AE889F989E25BFD4F808319
:104300009183A283B3837CDC8091360A9091370A33
:10431000A091380AB091390AE889F989E25AFD4F2B
:1043200080839183A283B3836BDC80913A0A90915E
:104330003B0AA0913C0AB0913D0AE889F989EE59FF
:10434000FD4F80839183A283B3835ADC80913E0A20
:1043500090913F0AA091400AB091410AE889F989F9
:10436000EA59FD4F80839183A283B38349DC809116
:10437000460A9091470AA091480AB091490AE889F3
:10438000F989E659FD4F80839183A283B38338DC9A
:1043900080914A0A90914B0AA0914C0AB0914D0A23
:1043A000E889F989E259FD4F80839183A283B38321
:1043B00027DC80914E0A90914F0AA091500AB0914B
:1043C000510AE889F989EE58FD4F80839183A283D1
:1043D000B38316DC8091E6099091E709A091E80982
:1043E000B091E909E889F989EA58FD4F8083918302
:1043F000A283B38305DC8091EA099091EB09A09137
:10440000EC09B091ED09E889F989E658FD4F808300
:104410009183A283B383F4DB8091EE099091EF093D
:10442000A091F009B091F109E889F989E258FD4FAE
:1044300080839183A283B383E3DBE889F989EE5714
:10444000FD4F81E02091BE093091BF092130310537
:1044500009F080E08083D4DBE889F989ED57FD4FCE
:1044600081E02091C2093091C3092130310509F062
:1044700080E08083C5DBE889F989EC57FD4F81E056
:104480002091C6093091C7092130310509F080E03B
:104490008083B6DBE889F989E056FD4F81E04091E1
:1044A0009609509197096091980970919909452B47
:1044B000462B472B09F480E08083A2DBE889F98949
:1044C000EF55FD4F81E040919A0950919B09609111
:1044D0009C0970919D09452B462B472B09F480E0E0
:1044E00080838EDBE889F989EE55FD4F81E04091AC
:1044F0009E0950919F096091A0097091A109452BD7
:10450000462B472B09F480E080837ADBE889F98920
:10451000ED55FD4F81E040916E0A50916F0A609118
:10452000700A7091710A452B462B472B09F480E0E5
:10453000808366DBE889F989EC55FD4F81E0409185
:10454000720A5091730A6091740A7091750A452B32
:10455000462B472B09F480E0808352DBE889F989F8
:10456000EB55FD4F81E04091760A5091770A6091BA
:10457000780A7091790A452B462B472B09F480E085
:1045800080833EDBE889F989EA55FD4F81E020917F
:10459000A6093091A7092130310509F080E0808318
:1045A0002FDBE889F989E955FD4F81E02091AA09BF
:1045B0003091AB092130310509F080E0808320DBA8
:1045C000E889F989E855FD4F81E02091AE093091E5
:1045D000AF092130310509F080E0808311DB809143
:1045E0006E0990916F09A0917009B0917109E889E5
:1045F000F989E755FD4F80839183A283B38300DB64
:104600008091720990917309A0917409B091750914
:10461000E889F989E355FD4F80839183A283B383B1
:10462000EFDA8091760990917709A0917809B0919D
:104630007909E889F989EF54FD4F80839183A2833A
:10464000B383DEDAE889F989EC56FD4F81E04091C9
:104650007E0950917F096091800970918109452BF5
:10466000462B472B09F480E08083CADAE889F98970
:10467000EB56FD4F81E04091820950918309609192
:10468000840970918509452B462B472B09F480E05E
:104690008083B6DAE889F989EA56FD4F81E04091D6
:1046A0008609509187096091880970918909452B85
:1046B000462B472B09F480E08083A2DA8091760BA9
:1046C0009091770BA091780BB091790BE889F989DB
:1046D000EB57FD4F80839183A283B38391DA80915E
:1046E0007A0B90917B0BA0917C0BB0917D0BE889AC
:1046F000F989E757FD4F80839183A283B38380DAE2
:1047000080917E0B90917F0BA091800BB091810BDB
:10471000E889F989E357FD4F80839183A283B383AE
:104720006FDAE889F989E956FD4F81E02091D609D1
:104730003091D7092130310509F080E08083E88984
:10474000F989E856FD4F1082E889F989E756FD4F4F
:10475000108256DAE889F989E656FD4F81E020910A
:10476000D2093091D3092130310509F080E08083EE
:10477000E889F989E556FD4F1082E889F989E45600
:10478000FD4F10823DDAE889F989E356FD4F81E05B
:104790002091F6093091F7092130310509F080E0C8
:1047A00080832EDAE889F989E256FD4F81E0209175
:1047B000FA093091FB092130310509F080E080834E
:1047C0001FDAE889F989E156FD4F81E02091FE0961
:1047D0003091FF092130310509F080E0808310DA43
:1047E000E889F989EF56FD4F81E02091860B3091E1
:1047F000870B2130310509F080E0808301DAE889F8
:10480000F989EE56FD4F81E020918A0B30918B0B98
:104810002130310509F080E08083F2D9E889F989F7
:10482000ED56FD4F81E020918E0B30918F0B2130A2
:10483000310509F080E08083E3D9088919890B5498
:104840001D4F80911E0A90911F0AA091200AB091DD
:10485000210AF80180839183A283B383D1D9E888A8
:10486000F988F7E4EF1AFDEFFF0A8091220A909190
:10487000230AA091240AB091250AF701808391832D
:10488000A283B383BDD98091260A9091270AA09173
:10489000280AB091290AC888D988F3E4CF1AFDEF15
:1048A000DF0AF60180839183A283B383F8014081FC
:1048B000518162817381141615061606170644F09D
:1048C00041E050E060E070E0408351836283738395
:1048D000F701408151816281738114161506160615
:1048E000170644F041E050E060E070E040835183FF
:1048F00062837383181619061A061B064CF081E0B2
:1049000090E0A0E0B0E0F60180839183A283B383BE
:104910000E942815FC01D6018D909D90AD90BC9011
:10492000D7014D915D916D917C91D8010D911D91B3
:104930002D913C91008311832283338344835583DB
:104940006683778380869186A286B386E889F98913
:104950007096FB83EA83E889F989EF56FD4F208141
:104960002983E889F989EB57FD4F80819181A281E4
:10497000B381E889F989E356FD4F20812D83E889C9
:10498000F989EA55FD4F20812C83E889F989E95698
:10499000FD4F20812987E889F989E656FD4F20815E
:1049A0002A87E889F989ED55FD4F20812E87E8890E
:1049B000F989E056FD4F20812F87E889F989EE5764
:1049C000FD4F2080E889F989ED5BFD4F3080E88953
:1049D000F989E755FD4F4081518162817381E889F2
:1049E000F989EA58FD4F0081118122813381E889DC
:1049F000F989E659FD4FC080D180E280F380E889D3
:104A0000F989E25AFD4F80809180A280B380E889C5
:104A1000F989EA5BFD4F4080518062807380E889AC
:104A2000F98946A657A660AA71AA82AA93AAA4AA3F
:104A3000B5AAC6AAD7AAE0AEF1AE02AF13AF24AFB3
:104A400035AFFE964083518362837383E889F98989
:104A5000EE5BFF4F3082E889F989ED5BFF4F2082E2
:104A60002F85E889F98923A72E8524A72C8125A7DE
:104A700040E450E060E070E0EA5BFF4F4083518328
:104A800062837383E889F989EC5BFF4F2A85208371
:104A9000E889F989EB5BFF4F29852083E889F9894B
:104AA000E65BFF4F2D812083E889F989E55BFF4FA5
:104AB00080839183A283B383E889F989E15BFF4F07
:104AC00089818083A889B9895B968D919C915C9737
:104AD0008633910509F034C28AE49CE0FD01EC576D
:104AE000FF4F9183808332961182108288E49CE08C
:104AF000369691838083329611821082E889F989F3
:104B000081A192A14A97D1F486E49CE0E857FF4F37
:104B100091838083E889F989E657FF4F11821082DB
:104B200084E49CE0E889F989E057FF4F9183808312
:104B3000E889F989EE56FF4F118210820889198998
:104B40000C561F4FE889F989EE56FD4F20812983C5
:104B5000E889F989E757FD4F80819181A281B3816E
:104B60008D839E83AF83B887E889F989E256FD4F2C
:104B700090819C83E889F989E955FD4FA081A98737
:104B8000E889F989E856FD4FB081BA87E889F98943
:104B9000E556FD4F20812E87E889F989EC55FD4FB8
:104BA0002080E889F989EF55FD4F3080E889F9893F
:104BB000ED57FD4F3081E889F989EC5BFD4F20818D
:104BC000E889F989E355FD4F80819181A281B38104
:104BD000E889F989E658FD4F4081518162817381EE
:104BE000E889F989E259FD4FC080D180E280F380E5
:104BF000E889F989EE59FD4F80809180A280B380C9
:104C0000E889F989E65BFD4F4080518062807380BE
:104C1000F801468E578E60A271A282A293A2A4A22E
:104C2000B5A2C6A2D7A2E0A6F1A642A753A764A741
:104C300075A786A797A7A0ABB1AB22AB33AB338EDA
:104C4000248E2985258F80E490E0A0E0B0E086AB3B
:104C500097ABA0AFB1AF2E8524AB8A8585AB9C8185
:104C600092AF8D819E81AF81B88583AF94AFA5AFA0
:104C7000B6AF298127AF838594858633910509F0E6
:104C800091C18AE49CE0E889F989E85FFE4F91834D
:104C90008083E889F989E65FFE4F1182108288E4FB
:104CA0009CE0E889F989E05FFE4F91838083E88981
:104CB000F989EE5EFE4F11821082D80151968D91D6
:104CC0009C914A97E1F486E49CE0E889F989E45FE5
:104CD000FE4F91838083E889F989E25FFE4F11825C
:104CE000108284E49CE0E889F989EC5EFE4F9183B0
:104CF0008083E889F989EA5EFE4F11821082E88894
:104D0000F988B8EEEB1ABEEFFB0AE889F989ED568F
:104D1000FD4F20812983E889F989E357FD4F808180
:104D20009181A281B3818D839E83AF83B887E88907
:104D3000F989E156FD4F90819C83E889F989E8550E
:104D4000FD4F3080E889F989E756FD4FA081A9879A
:104D5000E889F989E456FD4F2080E889F989EB5507
:104D6000FD4FC080E889F989EE55FD4FD080E88974
:104D7000F989EC57FD4F3081E889F989EB5BFD4FEC
:104D80002081E889F989EF54FD4F80819181A281CA
:104D9000B3818A8B9B8BAC8BBD8BE889F989E258F8
:104DA000FD4F4081518162817381E889F989EE5814
:104DB000FD4F80809180A280B380E889F989EA590B
:104DC000FD4F4080518062807380E889F989E25B01
:104DD000FD4F80819181A281B381F701868F978FEA
:104DE000A0A3B1A342A253A264A275A286A297A2D5
:104DF000A0A6B1A642A753A764A775A78A899B89D5
:104E0000AC89BD8986A797A7A0ABB1AB22AB33AB6A
:104E1000D38EC48E358E80E490E0A0E0B0E086AB07
:104E200097ABA0AFB1AF24AA298525AB8C8182AF07
:104E30008D819E81AF81B88583AF94AFA5AFB6AFAA
:104E4000298127AF838594858633910509F0D2C0E7
:104E50008AE49CE0E889F989E457FE4F91838083D6
:104E6000E889F989E257FE4F1182108288E49CE0BC
:104E7000E889F989EC56FE4F91838083E889F989A6
:104E8000EA56FE4F11821082D70151968D919C9166
:104E90004A97E1F486E49CE0E889F989E057FE4FFF
:104EA00091838083E889F989EE56FE4F1182108242
:104EB00084E49CE0E889F989E856FE4F9183808379
:104EC000E889F989E656FE4F11821082E889F9894E
:104ED000EC56FD4F8081882309F4B4C08A819B8100
:104EE0000E94D10CE889F989EB56FD4F8081882317
:104EF00009F4ADC0C8010E94D10CE889F989EA56CD
:104F0000FD4F8081882309F4A6C0C70165960FB6BE
:104F1000F894DEBF0FBECDBFDF91CF911F910F91EF
:104F2000FF90EF90DF90CF90BF90AF909F908F90C9
:104F30007F906F905F904F903F902F900C94D10C8A
:104F40008C339105D9F482E49CE0E889F989EC5727
:104F5000FF4F91838083E889F989EA57FF4F1182D7
:104F6000108280E49CE0E889F989E457FF4F91833F
:104F70008083E889F989E257FF4FBECD8E9709F00B
:104F8000BDCD8AE39CE0E889F989EC57FF4F918316
:104F90008083E889F989EA57FF4F1182108284E300
:104FA0009CE0E1CF8C33910589F482E49CE0E889B0
:104FB000F989E85FFE4F91838083E889F989E65F8C
:104FC000FE4F1182108280E49CE06BCE8E9709F038
:104FD00074CE8AE39CE0E889F989E85FFE4F91830B
:104FE0008083E889F989E65FFE4F1182108284E3AD
:104FF0009CE057CE8C33910589F482E49CE0E889EB
:10500000F989E457FE4F91838083E889F989E25753
:10501000FE4F1182108280E49CE02ACF8E9709F027
:1050200033CF8AE39CE0E889F989E457FE4F918306
:105030008083E889F989E257FE4F1182108284E368
:105040009CE016CF8A819B810E94BF0C4BCFC80188
:105050000E94BF0C52CFC70165960FB6F894DEBF11
:105060000FBECDBFDF91CF911F910F91FF90EF90B9
:10507000DF90CF90BF90AF909F908F907F906F9078
:105080005F904F903F902F900C94BF0CAF92BF92C7
:10509000CF92DF92EF92FF920F931F93CF93DF9304
:1050A000EC018AE190E09C8F8B8F8BE190E09E8FEA
:1050B0008D8F89E190E098A38F8F8FE090E09AA385
:1050C00089A38EE190E09CA38BA38EE090E09EA349
:1050D0008DA385E490E098A78FA384E490E09AA73D
:1050E00089A7FE01EC56FF4F80E290E0948783870A
:1050F00081E290E0968785878FE190E0908B8787AB
:10510000128A118A148A138A168A158A83E490E017
:10511000908F878B82E490E0928F818FEC57FF4FC6
:1051200083E290E09487838784E290E09687858786
:1051300082E290E0908B8787128A118A148A138A00
:10514000168A158A81E490E0908F878B80E490E046
:10515000928F818FEB5DFE4F118210823296118209
:105160001082329611821082CE0142D8CE010E9466
:105170001C1FCE0184569E4F41E050E0FC0157A712
:1051800046A7DE01A453BE4F24E030E09F963C9337
:105190002E939E975E01F4E0AF1AFEEFBF0A28E05F
:1051A00030E0F50137A726A720E130E0FC0131838C
:1051B000208321E130E0358324832FEF3FEF3383D9
:1051C000228337832683628560876385618767E1F1
:1051D00070E011967C936E9368E170E015967C9375
:1051E0006E93149713963C932E93129717963C93B5
:1051F0002E9316971A966C911A9718966C93189787
:105200001B966C911B9719966C9319976DE170E042
:10521000F501718360836CE170E07583648333838F
:105220002283378326836285608763856187BE0119
:10523000685E7C4FFB01608171818E010A5F1C4FAB
:10524000F801C080D180E280F38006501109F80196
:1052500000811181FC01158F048FC48AD58AE68AEA
:10526000F78A6130710509F04EC0378F268FCE0165
:10527000865E9C4FFC01808191819E01265F3C4FA0
:10528000F901408151816281738128503109F9010E
:10529000208131815D963C932E935C9754964D937B
:1052A0005D936D937C935797019781F58FEF9FEFF7
:1052B0005F969C938E935E97DE01A45EBC4F8D91AA
:1052C0009C9111971E974D915D916D917C91CC5F52
:1052D000DC4F28813981F501358F248F448B558B24
:1052E000668B778B0197A9F48FEF9FEF978F868F4F
:1052F000DF91CF911F910F91FF90EF90DF90CF90B2
:10530000BF90AF900895578F468FB1CF81E090E066
:10531000CFCF81E090E0EACF2F923F924F925F9201
:105320006F927F928F929F92AF92BF92CF92DF92B5
:10533000EF92FF920F931F93CF93DF9300D01F92B2
:10534000CDB7DEB79C838B830E94001E6090860AD7
:105350007090870A0E94001E8090960A9090970A8B
:105360000E94001E2090AE0A3090AF0A0E94001EDC
:10537000C0908A0AD0908B0A0E94001EA0909A0AC0
:10538000B0909B0A0E94001E4090B20A5090B30A4F
:105390000E94001E00918E0A10918F0A0E94001E2A
:1053A000E0909E0AF0909F0A0E94001E8091B60A2B
:1053B00089838091B70A8A8391011216130614F02B
:1053C00021E030E0A401B3018B819C8140960E94D2
:1053D000741492011414150414F021E030E0A501B6
:1053E000B6018B819C818C569F4F0E947414298139
:1053F0003A811216130614F021E030E0A701B8013B
:105400008B819C81885E9E4F0F900F900F900F9024
:10541000DF91CF911F910F91FF90EF90DF90CF9090
:10542000BF90AF909F908F907F906F905F904F90C4
:105430003F902F900C9474148F929F92AF92BF92D2
:10544000CF92DF92EF92FF92CF93DF937B010E9486
:10545000001EEC01F70182A093A0A4A0B5A0C68C09
:10546000D78CE0A0F1A08A819B818F30F7E29F0763
:105470000CF043C001969B838A838C819D818F3081
:1054800027E29207ECF596012B7F21553109233055
:10549000310530F096012B5531092330310518F4D0
:1054A00001969D838C83C6010E94D101882359F106
:1054B000F601EE0FFF1FEE0FFF1FEE5BF64F80822F
:1054C0009182A282B382B501A401C6010E94331D5C
:1054D000B601CE010E94BF1A0E94F91E0E94C91E89
:1054E00090E080E0DF91CF91FF90EF90DF90CF9040
:1054F000BF90AF909F908F9008951B821A82BDCF6E
:105500001D821C82D0CF8DEF93E00E940317E4CF61
:10551000CF93DF93EB010E94001E6E8D7F8D0E9462
:10552000BF1A90E080E0DF91CF910895FC01808167
:105530009181009711F00C94905608950C94905618
:105540000C9490560C9490560C9490560C94905643
:105550000C9490560C9490560C9490560C94905633
:105560000C9490560C9490560C9490560C94905623
:105570000C9490560C9490560C9490560C94905613
:105580000C9490560C9490560C9490560C94905603
:105590000C9490560C9490560F931F93CF93DF93D7
:1055A000EC0188819981009759F02A813B81261767
:1055B000370730F081E0DF91CF911F910F9108956F
:1055C0008B016F5F7F4F0E94255E009759F0998392
:1055D00088831B830A832C813D81232B59F7FC018F
:1055E0001082E8CF80E0E7CF0F931F93CF93DF9334
:1055F000EC018B01D1DF28813981811112C0211585
:10560000310519F0C9010E949056198218821D8235
:105610001C821B821A82CE01DF91CF911F910F91C4
:1056200008951D830C836AEE77E0C9010E94165F1E
:10563000F2CF70E060E0D8CF2F923F924F925F920E
:105640006F927F928F929F92AF92BF92CF92DF9292
:10565000EF92FF920F931F93CF93DF93CDB7DEB7F7
:10566000C458D1090FB6F894DEBF0FBECDBF8C0170
:10567000FC0110821182128213821482158216821A
:105680001782108611861286138614861586168652
:1056900017864C01F0E18F0E911CC4010E94B60EDA
:1056A000580184E9A80EB11CC5010E94B60E68011C
:1056B000E8EECE1AEEEFDE0AC6010E94B60E7801C1
:1056C000F4E6EF1AFEEFFF0AC7010E94E01138016D
:1056D00084E3681A8EEF780AC3010E94E011280162
:1056E000E4E04E1AEEEF5E0AC2010E94E011F801FA
:1056F000E45DFD4F118210821382128215821482A2
:10570000CF0197DFF801EE5CFD4F118210823296D7
:10571000118210823296118210823296118210828A
:105720003296108231961082319610823196118213
:105730001082329611821082329611821082329635
:105740001082319610823196108231961082118229
:10575000128213823496108211821282138234963E
:105760001082118212821382349610821182128268
:105770001382349610821182128213823496108220
:105780001182128213823496108211821282138245
:105790003496108211821282138234961082118202
:1057A00012821382349610821182128213823496EE
:1057B0001082118212821382349610821182128218
:1057C00013823496108211821282138234961082D0
:1057D00011821282138234961082118212821382F5
:1057E0003496108231961082319610823196108252
:1057F00011821282138234961082118212821382D5
:10580000349610821182128213823496108231965D
:105810001082319610823196108231961082319624
:105820001082319610823196108231961082319614
:105830001082319610823196108231961082319604
:1058400010823196108231961082319610823196F4
:1058500010823196108231961082319610823196E4
:105860001082319610823196108231961082118208
:10587000128213823496108211821282138234961D
:105880001082118212821382D801AB54BD4F8CE07A
:10589000E9E1F2E001900D928A95E1F7F801EF530A
:1058A000FD4F10821182128213823496108211826F
:1058B00012821382349610821182128213823496DD
:1058C00011821082329611821082329611821082D9
:1058D00032961082118212821382349610821182C3
:1058E00012821382349610821182128213823496AD
:1058F00010821182128213823496108211821282D7
:10590000138234961082118212821382349611828D
:105910001082329611821082329611821082329653
:1059200010821182128213823496108211821282A6
:10593000138234961082118212821382349610825E
:1059400031961082319610823196118210823296F1
:105950001182108232961182108232961082118248
:10596000128213823496108211821282138234962C
:105970001082118212821382349611821082329622
:105980001182108232961182108232961182108218
:1059900032961182108232961182108232961182D2
:1059A00010823296118210821801FEED2F1AFCEF40
:1059B0003F0AF101108231961182108232961182D3
:1059C0001082CE0101960E94B60E84E8FE01319647
:1059D000D40101900D928A95E1F7CE0101960E94C3
:1059E000B60E84E8FE013196D50101900D928A959C
:1059F000E1F7CE0101960E94B60E84E8FE013196D1
:105A0000D60101900D928A95E1F788E5F801848B23
:105A1000E856FF4F89E58083EC57FF4F8AE5808386
:105A2000CE0101960E94E01180E3FE013196D7017C
:105A300001900D928A95E1F7CE0101960E94E01146
:105A400080E3FE013196D30101900D928A95E1F732
:105A5000CE0101960E94E01180E3FE013196D20151
:105A600001900D928A95E1F7C80110DBF1011082D7
:105A7000CC57DF4F0FB6F894DEBF0FBECDBFDF911E
:105A8000CF911F910F91FF90EF90DF90CF90BF903B
:105A9000AF909F908F907F906F905F904F903F90CE
:105AA0002F900895CF93DF9380911D0890911E0849
:105AB000892B51F487E293E00E94F455EC01BCDDA0
:105AC000D0931E08C0931D0880911D0890911E0858
:105AD000DF91CF910895CF93DF9380911C088111BE
