:100000009DC10000CCC10000CAC10000C8C10000F1
:10001000C6C10000C4C10000C2C10000C0C10000D0
:10002000BEC10000BCC10000BAC10000B8C10000E0
:10003000B6C10000B4C10000B2C10000B0C10000F0
:10004000AEC100000C94F93DAAC10000A8C1000097
:100050000C94273EA4C10000A2C100000C94253DD1
:100060009EC100000C94EF3C0C94C53C98C100006C
:1000700096C1000094C1000092C1000090C1000030
:100080000C94CB3D8CC100008AC1000088C10000E7
:1000900086C1000084C1000082C1000080C1000050
:1000A0007EC100007CC100000C949D3D78C1000021
:1000B00076C1000074C1000072C100000C946F3D55
:1000C0006EC100006CC100006AC1000068C1000080
:1000D00066C1000064C1000062C1000060C1000090
:1000E0005EC100004E414E494E495459494E46CDDD
:1000F000CCCC3D0AD7233C17B7D13877CC2B3295DF
:1001000095E6241FB14F0A000020410000C84200BC
:10011000401C4620BCBE4CCA1B0E5AAEC59D740086
:10012000407A10F35A00A0724E18090010A5D4E8C6
:100130000000E87648170000E40B54020000CA9A59
:100140003B000000E1F505000080969800000040AB
:10015000420F000000A086010000001027000000F0
:1001600000E803000000006400000000000A000036
:100170000000000100000000002C76D888DC674FEA
:100180000823DFC1DFAE59E1B1B796E5E3E453C61A
:100190003AE651997696E8E6C28426EB898C9B6212
:1001A000ED407C6FFCEFBC9C9F40F2BAA56FA5F4BC
:1001B00090055A2AF75C936B6CF9676DC11BFCE0E4
:1001C000E40D47FEF520E6B500D0ED902E03009437
:1001D0003577050080841E080000204E0A000000CC
:1001E000C80C333333330F986E12831141EF8D21D6
:1001F00014893BE65516CFFEE6DB18D1844B381B3D
:10020000F77C1D901DA4BBE424203284725E228101
:1002100000C9F124ECA1E53D2700002200250028BB
:10022000002B002E003100340002010000050108FF
:10023000010B01000020002300260029002C002FC4
:100240000032000001000003010601090100000A5C
:100250000B02090C0D0E080703040100000000004A
:10026000000000000000000000000000000000008E
:10027000000000000000000000121110000000004B
:10028000000000000000000000000000000000006E
:1002900000000000002100240027002A002D00306B
:1002A00000330001010000040107010A01010210EE
:1002B0002020080810204010204080020102010880
:1002C0000402010102040810204080804020100830
:1002D0000402018004020180402010080402010889
:1002E00004020101020408102040800102040810E9
:1002F00020408005050505070508080808020202D8
:10030000020A0A08080404040401010101010101B0
:10031000010303030303030303040707070C0C0C87
:100320000C0C0C0C0C02020202060606060606065F
:10033000060B0B0B0B0B0B0B0B00523E11241FBEBD
:10034000CFEFD1E2DEBFCDBF00E00CBF17E0A0E0F1
:10035000B2E0EAE7F7EA00E00BBF02C007900D92B7
:10036000AE3CB107D9F72DE0AEECB7E001C01D926D
:10037000A13DB207E1F711E0CEE9D1E000E006C00F
:1003800021970109802FFE010E94BB52CD39D10770
:1003900080E00807A9F70E94C33E0C94BB5330CEFF
:1003A000883591050CF04BC085359105CCF4803330
:1003B00091054CF58D3291059CF48C319105BCF47E
:1003C000893191056CF48E30910564F48B30910580
:1003D0003CF4009729F097FD08C00297049728F491
:1003E00081E008950F970997D8F380E00895863249
:1003F00091053CF4843291059CF74F970397A8F739
:10040000EFCF8997FBCF843491056CF4813491054B
:100410003CF78A3391052CF4873391050CF7C39789
:10042000EDCFCD97EBCF8E34910534F48B3491051D
:10043000BCF687549109E2CF81559109DFCF863808
:1004400091051CF5833891055CF68237910584F49B
:100450008F3691052CF6883691053CF4853691054A
:100460000CF0BECF8B559109C9CF89569109C6CFE3
:100470008C3791053CF4893791050CF0B1CF835747
:100480009109BCCF8D579109B9CF803D91058CF46E
:100490008D3C91050CF0A4CF843991053CF4813951
:1004A00091050CF09DCF8D589109A8CF895C9109D9
:1004B000A5CF8A3D91053CF4873D91050CF090CF86
:1004C000835D91099BCF8D5D910998CF9C01803E02
:1004D000910508F021C5FC018827EE58FD4F8F4F8C
:1004E0000C94BB5252035F03680371037E038703BE
:1004F0008C078C078C078C078C079403A103AE0331
:100500008C07BB03C403CD03DA03E303EC03F50359
:10051000FE0307048C071004190422048C078C07BF
:100520008C072B0434043D048C078C0746045304C9
:100530008C078C078C0760046D047A048C07870491
:10054000900499048C078C078C07A204AB04B404B4
:100550008C07C104CE04DB048C078C078C07E804ED
:10056000F50402058C070F051C0529058C078C076F
:100570008C073605430550058C075D0566056F053C
:100580008C078C078C079305A005AD058C07BA0571
:10059000C705D4058C078C078C07E105EA05F30530
:1005A0008C078C078C078C078C078C078C07FC0545
:1005B00005060E068C071706200629068C078C07F1
:1005C0008C0732063F064C068C07590666067306F2
:1005D0008C078C078C0780068D069A068C07A70669
:1005E000B006B9068C078C078C07C206CB06D4066A
:1005F0008C078C078C078C078C078C078C078C0763
:100600008C078C078C07780581058A058C078C0779
:100610008C078C078C078C078C078C078C078C0742
:100620008C078C078C078C078C078C078C078C0732
:100630008C078C078C078C078C078C078C078C0722
:100640008C078C078C078C078C078C078C078C0712
:100650008C078C078C078C078C078C078C078C0702
:100660008C078C078C078C078C078C078C078C07F2
:100670008C078C078C07DD06E606F3068C0700075F
:10068000090716078C078C078C0723072C073907E7
:100690008C0746074F075C078C078C078C07690798
:1006A00072077F0781E090E0A0E0B0E08093050949
:1006B00090930609A0930709B09308090895109232
:1006C000090910920A0910920B0910920C09089559
:1006D00010920D0910920E0910920F091092100934
:1006E000089581E090E0A0E0B0E08093110990933C
:1006F0001209A0931309B0931409089510921509D3
:10070000109216091092170910921809089583E0A3
:1007100090E0A0E0B0E08093190990931A09A093AB
:100720001B09B0931C09089588E790E0A0E0B0E0B1
:100730008093310990933209A0933309B09334091F
:10074000089588E790E0A0E0B0E0809335099093A9
:100750003609A0933709B0933809089588E790E0E7
:10076000A0E0B0E08093390990933A09A0933B0947
:10077000B0933C09089510924109109242091092D9
:1007800043091092440908951092450910924609B0
:100790001092470910924809089581E090E0A0E086
:1007A000B0E08093490990934A09A0934B09B09314
:1007B0004C09089510924D0910924E0910924F095C
:1007C00010925009089510925109109252091092F6
:1007D0005309109254090895109255091092560920
:1007E00010925709109258090895109259091092C1
:1007F0005A0910925B0910925C09089510925D09E4
:1008000010925E0910925F0910926009089510928B
:1008100061091092620910926309109264090895A7
:100820001092690910926A0910926B0910926C0972
:10083000089510926D0910926E0910926F0910922E
:10084000700908951092710910927209109273093B
:1008500010927409089510928109109282091092E1
:1008600083091092840908951092850910928609CF
:1008700010928709109288090895109289091092A0
:100880008A0910928B0910928C09089581E090E0FA
:10089000A0E0B0E08093950990939609A093970902
:1008A000B0939809089581E090E0A0E0B0E08093D3
:1008B000990990939A09A0939B09B0939C09089574
:1008C0008CE291E0A0E0B0E08093A9099093AA099E
:1008D000A093AB09B093AC0908958CE291E0A0E03D
:1008E000B0E08093AD099093AE09A093AF09B093A7
:1008F000B00908958CE291E0A0E0B0E08093B109E6
:100900009093B209A093B309B093B40908951092DB
:10091000B9091092BA091092BB091092BC09089546
:100920001092BD091092BE091092BF091092C00921
:1009300008951092C1091092C2091092C309109231
:10094000C40908951092D1091092D2091092D309C6
:100950001092D40908951092D5091092D6091092D8
:10096000D7091092D809089581E090E0A0E0B0E0A6
:100970008093D9099093DA09A093DB09B093DC093D
:10098000089585E090E0A0E0B0E08093E1099093C5
:10099000E209A093E309B093E409089585E090E0AB
:1009A000A0E0B0E08093E5099093E609A093E70901
:1009B000B093E809089589E190E0A0E0B0E0809369
:1009C000E9099093EA09A093EB09B093EC09089523
:1009D00082E390E0A0E0B0E08093F9099093FA09F7
:1009E000A093FB09B093FC09089582E390E0A0E096
:1009F000B0E08093FD099093FE09A093FF09B093A6
:100A0000000A089582E390E0A0E0B0E08093010A3C
:100A10009093020AA093030AB093040A089582E314
:100A200090E0A0E0B0E08093090A90930A0AA093B6
:100A30000B0AB0930C0A089582E390E0A0E0B0E0C6
:100A400080930D0A90930E0AA0930F0AB093100A98
:100A5000089582E390E0A0E0B0E08093110A9093C3
:100A6000120AA093130AB093140A089580E991E042
:100A7000A0E0B0E08093210A9093220AA093230A79
:100A8000B093240A089580E991E0A0E0B0E080935B
:100A9000250A9093260AA093270AB093280A08955E
:100AA00080E991E0A0E0B0E08093290A90932A0ABF
:100AB000A0932B0AB0932C0A08951092310A109239
:100AC000320A1092330A1092340A08951092350AAD
:100AD0001092360A1092370A1092380A089510922E
:100AE000390A10923A0A10923B0A10923C0A089571
:100AF0001092490B10924A0B10924B0B10924C0B18
:100B0000089510924D0B10924E0B10924F0B1092B5
:100B1000500B08951092510B1092520B1092530BE0
:100B20001092540B089588E592E0A0E0B0E0809325
:100B3000490A90934A0AA0934B0AB0934C0A08952D
:100B400088E592E0A0E0B0E080934D0A90934E0AD1
:100B5000A0934F0AB093500A089588E592E0A0E070
:100B6000B0E08093510A9093520AA093530AB09335
:100B7000540A08958EE190E0A0E0B0E08093590A15
:100B800090935A0AA0935B0AB0935C0A08958EE191
:100B900090E0A0E0B0E080935D0A90935E0AA0939D
:100BA0005F0AB093600A08958EE190E0A0E0B0E0A3
:100BB0008093610A9093620AA093630AB093640AD7
:100BC00008951092710A1092720A1092730A10928C
:100BD000740A08951092750A1092760A1092770A94
:100BE0001092780A08951092790A10927A0A109257
:100BF0007B0A10927C0A08951092990A10929A0A20
:100C000010929B0A10929C0A089510929D0A1092CD
:100C10009E0A10929F0A1092A00A08951092A10AAB
:100C20001092A20A1092A30A1092A40A0895109298
:100C3000A90A1092AA0A1092AB0A1092AC0A08955F
:100C40001092AD0A1092AE0A1092AF0A1092B00A3A
:100C500008951092B10A1092B20A1092B30A10923B
:100C6000B40A089585E090E0A0E0B0E08093C10A66
:100C70009093C20AA093C30AB093C40A089585E072
:100C800090E0A0E0B0E08093C50A9093C60AA093DC
:100C9000C70AB093C80A089585E090E0A0E0B0E0EC
:100CA0008093C90A9093CA0AA093CB0AB093CC0A46
:100CB000089584EB95E1A0E0B0E08093D10A909391
:100CC000D20AA093D30AB093D40A089584EB95E195
:100CD000A0E0B0E08093D50A9093D60AA093D70AFB
:100CE000B093D80A089584EB95E1A0E0B0E080933A
:100CF000D90A9093DA0AA093DB0AB093DC0A08952C
:100D000085E090E0A0E0B0E08093E90A9093EA0AE1
:100D1000A093EB0AB093EC0A089585E090E0A0E080
:100D2000B0E08093ED0A9093EE0AA093EF0AB0939F
:100D3000F00A089585E090E0A0E0B0E08093F10A29
:100D40009093F20AA093F30AB093F40A08951092D4
:100D5000F90A1092FA0A1092FB0A1092FC0A0895FE
:100D60001092FD0A1092FE0A1092FF0A1092000BD8
:100D700008951092010B1092020B1092030B109227
:100D8000040B08951092110B1092120B1092130B7A
:100D90001092140B08951092150B1092160B1092CE
:100DA000170B1092180B08951092190B10921A0B32
:100DB00010921B0B10921C0B08951092290C10928C
:100DC0002A0C10922B0C10922C0C08958CE390E0BE
:100DD000A0E0B0E080932D0C90932E0CA0932F0CEC
:100DE000B093300C089581E090E0A0E0B0E08093F3
:100DF000310C9093320CA093330CB093340C0895C3
:100E00001092390C10923A0C10923B0C10923C0C40
:100E100008958CE390E0A0E0B0E080933D0C9093C7
:100E20003E0CA0933F0CB093400C089581E090E0FD
:100E3000A0E0B0E08093410C9093420CA093430C4F
:100E4000B093440C08951092510C1092520C1092D1
:100E5000530C1092540C08958CE390E0A0E0B0E0A5
:100E60008093550C9093560CA093570CB093580C4C
:100E7000089581E090E0A0E0B0E08093590C909359
:100E80005A0CA0935B0CB0935C0C08951092610C0B
:100E90001092620C1092630C1092640C08958CE313
:100EA00090E0A0E0B0E08093650C9093660CA09376
:100EB000670CB093680C089581E090E0A0E0B0E08A
:100EC0008093690C90936A0CA0936B0CB0936C0C9C
:100ED00008951092790C10927A0C10927B0C10925B
:100EE0007C0C08958CE390E0A0E0B0E080937D0C52
:100EF00090937E0CA0937F0CB093800C089581E0BA
:100F000090E0A0E0B0E08093810C9093820CA093DD
:100F1000830CB093840C0895220F331F220F331FCC
:100F2000F901EB5FF64F108211821282138208954D
:100F3000AF92BF92CF92DF92EF92FF920F931F93E7
:100F4000CF93DF936C017B018B01040F151FEB0125
:100F50005E01AE18BF08C017D10759F06991D601DC
:100F6000ED91FC910190F081E02DC6011995892B3E
:100F700079F7C501DF91CF911F910F91FF90EF900D
:100F8000DF90CF90BF90AF900895FC01538D448DBA
:100F9000252F30E0842F90E0821B930B541710F024
:100FA000CF96089501970895FC01918D828D981731
:100FB00061F0A28DAE0FBF2FB11D5D968C91928D09
:100FC0009F5F9F73928F90E008958FEF9FEF08953A
:100FD000FC01918D828D981731F0828DE80FF11D03
:100FE000858D90E008958FEF9FEF0895FC01918D1E
:100FF000228D892F90E0805C9F4F821B91098F7317
:10100000992708958DE89CE0F1DF21E0892B09F410
:1010100020E0822F0895FC01A48DA80FB92FB11DE7
:10102000A35ABF4F2C91848D90E001968F7399271E
:10103000848FA689B7892C93A089B1898C918370FC
:1010400080648C93938D848D981306C00288F389F5
:10105000E02D80818F7D80830895EF92FF920F9322
:101060001F93CF93DF93EC0181E0888F9B8D8C8D54
:1010700098131AC0E889F989808185FF15C09FB748
:10108000F894EE89FF896083E889F989808183700B
:10109000806480839FBF81E090E0DF91CF911F91BA
:1010A0000F91FF90EF900895F62E0B8D10E00F5FDB
:1010B0001F4F0F731127E02E8C8D8E110BC00FB6B2
:1010C00007FCFACFE889F989808185FFF5CFCE0149
:1010D000A2DFF2CFEB8DEC0FFD2FF11DE35AFF4F96
:1010E000F0829FB7F8940B8FEA89FB898081806238
:1010F000D0CF682F8DE89CE0B0CFCF93DF93EC0189
:10110000888D8823B1F0AA89BB89E889F9898C91F7
:1011100085FD03C0808186FD0CC00FB607FCF7CFAC
:101120008C9185FFF2CF808185FFEDCFCE0173DFFB
:10113000EACFDF91CF91089580E090E0892B21F0F4
:1011400061DF81110E94000080E090E0892B49F06E
:1011500080E090E0892B29F00E94000081110E941C
:10116000000080E090E0892B49F080E090E0892B3E
:1011700029F00E94000081110E94000080E090E0B0
:10118000892B49F080E090E0892B29F00E94000033
:1011900081110C94000008958150823108F05AC0EA
:1011A000E82FF0E08827E852F74F8F4F0C94BB529E
:1011B000F808FC08EA08F008F4082A09FF080509FD
:1011C00009090F09130917091D0921092A09250908
:1011D0002B092F09809180008F77809380000895DC
:1011E000809180008F7DF9CF80918000877FF5CF3F
:1011F00084B58F7784BD089584B58F7DFBCF8091B2
:10120000B0008F778093B00008958091B0008F7DFB
:10121000F9CF809190008F7780939000089580910E
:1012200090008F7DF9CF80919000877FF5CF8091DE
:10123000A0008F778093A00008958091A0008F7DFB
:10124000F9CF8091A000877FF5CF809120018F7723
:10125000809320010895809120018F7DF9CF8091A6
:101260002001877FF5CFCF93DF93282F30E0F9015E
:10127000E35BFD4F8491F901E355FD4FD491F901F2
:10128000ED50FD4FC491CC2399F0811185DFEC2FF7
:10129000F0E0EE0FFF1FED5CFD4FA591B491EC91D6
:1012A000ED2381E090E009F480E0DF91CF91089593
:1012B00080E090E0FACF1F93CF93DF93282F30E0A8
:1012C000F901E35BFD4F8491F901E355FD4FD491A2
:1012D000F901ED50FD4FC491CC23A1F0162F8111DF
:1012E0005BDFEC2FF0E0EE0FFF1FE75EFD4FA591F7
:1012F000B4918FB7F894EC91111108C0D095DE230A
:10130000DC938FBFDF91CF911F910895DE2BF8CF33
:10131000CF93DF9390E0FC01E355FD4F24918D5076
:101320009D4FFC0184918823C9F090E0880F991F9C
:10133000FC01ED56FD4FA591B491FC01E75EFD4F18
:10134000C591D49161110DC09FB7F8948C912095EF
:1013500082238C938881282328839FBFDF91CF919C
:101360000895623051F49FB7F8943C91822F809594
:1013700083238C93E8812E2BEFCF8FB7F894EC91D9
:101380002E2B2C938FBFEACF8230910538F0880F37
:10139000991F880F991F05970197F1F708953FB797
:1013A000F8948091E4079091E507A091E607B09149
:1013B000E70726B5A89B05C02F3F19F00196A11D90
:1013C000B11D3FBFBA2FA92F982F8827BC01CD018F
:1013D000620F711D811D911D42E0660F771F881FEE
:1013E000991F4A95D1F708958F929F92AF92BF921D
:1013F000CF92DF92EF92FF926B017C01D0DF4B0125
:101400005C01C114D104E104F104B1F0C8DF681932
:1014100079098A099B09683E73408105910588F323
:1014200021E0C21AD108E108F10888EE880E83E0B5
:10143000981EA11CB11CE5CFFF90EF90DF90CF90DC
:10144000BF90AF909F908F9008952FB7F8946091C0
:10145000E0077091E1078091E2079091E3072FBFC9
:101460000895CF92DF92EF92FF92CF93DF93EC013A
:10147000603282E07807CCF5653B710514F064EBCF
:1014800070E0898128E830E0281B310987FD339519
:10149000220F331F220F331F6901330FEE08FF089D
:1014A0008A8128E532E0281B310987FD3395220F18
:1014B000331F220F331F032E000C440B550B2C1926
:1014C0003D094E095F09DB0177FF02C0B0E0A0E0F3
:1014D0000E94635124EB30E040E050E00E943D5117
:1014E000C20ED31EE41EF51EB601E881E03370F58E
:1014F000298188E890E0821B910927FD9395880F48
:10150000991F880F991F681779077CF02A8188E551
:1015100092E0821B910927FD9395880F991F880FF0
:10152000991F681779070CF4CB010297880F991F50
:101530004FB7F8942E2F30E0F901EE0FFF1FE20FA6
:10154000F31FE65DF24F928381834FBFDF91CF910E
:10155000FF90EF90DF90CF9008951F93CF93DF938C
:10156000EC01162F8881803308F04DC061E0812F97
:10157000CFDE8881282F30E0F901EE0FFF1FE20F48
:10158000F31FE65DF24F1F736081607C612B608307
:1015900019821A822CE0622F0E94AF52829FB00102
:1015A000112430E020E0AB01420F531FFA01EE0F8F
:1015B000FF1FE40FF51FE65DF24F908196FD16C008
:1015C0002F5F3F4F2C30310571F7813009F51092B4
:1015D000800082E080938100109285001092840048
:1015E000B19A80916F00826080936F00E8818E2FA6
:1015F00090E0FC01EE0FFF1FE80FF91FE65DF24FD0
:101600008081806480838881DF91CF911F910895CC
:10161000823061F4109290008093910010929500B6
:101620001092940088BB80937100E0CF833069F4FE
:101630001092A00082E08093A1001092A500109269
:10164000A40089BB80937200D1CF8111CFCF1092BB
:10165000200182E080932101109225011092240143
:101660008ABB80937300C2CFAF92BF92CF92DF92BA
:10167000EF92FF920F931F93CF93DF936B017A0149
:10168000EC01C552D84F28813CE0389F8001399F3A
:10169000100D1124A090BA0DB12C27FF1FC0FB0123
:1016A0001182108288818F5F888388819801280F3A
:1016B000311D87FD3A95F6012A153B051CF48881FA
:1016C0008C30BCF180819181049680349C4908F46F
:1016D00071C0F6018081918104966EC08881980165
:1016E000280F311D87FD3A952A153B05DCF68881C8
:1016F000A801480F511D87FD5A95FA01EE0FFF1FF3
:10170000E40FF51FE65DF24F808186FFCBCF888125
:10171000F801E80FF11D87FDFA95CF01EE0FFF1FCD
:10172000E80FF91FE65DF24F808160E08F73C3DD43
:10173000B9CF808191812881A801420F511D27FDD9
:101740005A959A01FA01EE0FFF1FE20FF31FE65DB3
:10175000F24F21813281820F931FF70191838083A1
:1017600088819801280F311D87FD3A95F901EE0F08
:10177000FF1FE20FF31FE65DF24F808186FF21C05D
:101780008881080F111D87FD1A95F801EE0FFF1FC4
:10179000E00FF11FE65DF24F808161E08F73DF9112
:1017A000CF911F910F91FF90EF90DF90CF90BF905E
:1017B000AF9081CD80E49CE9F701918380838FEF26
:1017C0008883DF91CF911F910F91FF90EF90DF9071
:1017D000CF90BF90AF90089508950895089508950B
:1017E0000895EBE0F1E08081877F80830895EBE04E
:1017F000F1E080818860808308958E9808958E9AA4
:10180000089514980895149A089588980895889AC8
:10181000089560E0FC0183854ECD60E0FC01858188
:101820004ACD61E0FC01838546CD61E0FC01858104
:1018300042CDCF93DF93EC01FC01E359FF4F1082BF
:10184000379781E0808360E08D8135DD8F859889D1
:10185000892B29F060E08B85DF91CF912CCDDF9132
:10186000CF910895CF93DF93EC018B89FCDC2E8917
:101870002817190621F48F89DF91CF91089580E010
:10188000FBCFCF93DF93EC018989EDDC2E892817FC
:10189000190621F48F89DF91CF91089580E0FBCF65
:1018A000CF93DF93EC018F819DA561E0911101C081
:1018B00060E001DD8D859EA5992321F09FA561E063
:1018C000911101C060E0DF91CF91F5CCCF93DF9310
:1018D000EC018F819DA560E0911101C061E0EBDC1E
:1018E0008D859EA5992321F09FA560E0911101C0EF
:1018F00061E0DF91CF91DFCCCF93DF93EC0161E02A
:101900008985D9DC8EA5882319F061E08F85D3DC29
:10191000C559DF4F1882DF91CF910895CF93DF93A0
:10192000EC0160E08985C7DC8EA5882319F060E0B2
:101930008F85C1DCC559DF4F81E08883DF91CF916E
:101940000895CF92DF92EF92FF920F931F93CF9360
:10195000DF93FC0142AF53AF64AF75AFDC01DE969D
:101960004D935D936D937C93139714960D931D93F4
:101970002D933C931397EC01CA5BDF4FE88284A957
:10198000882351F094A591114CC037FF50C01D928F
:101990001D921D921C92139745A956A967A970AD77
:1019A00014161506160617063CF591AD992321F17C
:1019B0000D911D912D913C9113976801790137FF8D
:1019C00007C0CC24DD247601C01AD10AE20AF30A4A
:1019D0004C155D056E057F057CF437FF07C07095DB
:1019E0006095509541955F4F6F4F7F4F4D935D933D
:1019F0006D937C931397892FDF01AD5ABF4F1D92D2
:101A00001D921D921C921397ED59FF4F91E0908308
:101A1000DF91CF911F910F91FF90EF90DF90CF90CA
:101A2000089510161106120613060CF4B0CF80E0CC
:101A3000B3CF0F931F93CF93DF93EC01062F8D89C4
:101A400081110DC0CE011DDF182FCE010BDF01115A
:101A5000182F812FDF91CF911F910F910895CE0103
:101A600001DF182FCE010DDFF2CFCF93DF93EC0112
:101A7000FC01E359FF4F81E08083AE01425C5F4F80
:101A8000FA0180819181A281B3819E012C593F4F3F
:101A9000F9012081222309F440C00196A11DB11D46
:101AA000FA0180839183A283B383FE01E059FF4F43
:101AB00020813181C901959587958C0F9D1F3297A3
:101AC0000190F081E02D20FF08C0DC012D913C91B8
:101AD000E20FF31F0190F081E02D19958F85988911
:101AE000892BF9F0FE01EC58FF4F20813181C901AB
:101AF000959587958C0F9D1FCE58DF4FE881F98112
:101B000020FF08C0DC012D913C91E20FF31F0190F2
:101B1000F081E02DDF91CF9119940197A109B109CE
:101B2000BFCFDF91CF9108958F929F92AF92BF92D6
:101B3000CF92DF92EF92FF920F931F93CF93DF9399
:101B4000EC01FC01ED5AFF4F60817181828193812C
:101B50000E940F506B017C0168A979A98AA99BA9F1
:101B60000E9411509B01AC0160E074E284E799E4AB
:101B70000E94FF514B015C01FE01E15AFF4F608161
:101B80007181828193810E940F509B01AC01C5013C
:101B9000B4010E94FF514B015C018E01095A1F4F95
:101BA00020E030E040E05FE30E947050A701960122
:101BB0000E949B510E946C52F80160837183828362
:101BC0009383C55ADF4FA5019401C701B6010E9456
:101BD0009B510E946C52688379838A839B83DF9137
:101BE000CF911F910F91FF90EF90DF90CF90BF901A
:101BF000AF909F908F9008950F931F93CF93DF9393
:101C0000FC01E359FF4F20812223B9F07A9700812C
:101C100011812281338138964081518162817381A3
:101C2000041715072607370710F1EC0102DECE0175
:101C3000DF91CF911F910F9177CFFC01ED59FF4FAD
:101C400020812223A1F070970081118122813381AC
:101C500034964081518162817381041715072607EC
:101C6000370728F0DF91CF911F910F91FECEDF91C2
:101C7000CF911F910F910895FC01ED59FF4F2081E5
:101C8000222361F0709780819181A281B3810196B6
:101C9000A11DB11D80839183A283B38308950F9307
:101CA0001F93FC01EA5BFF4F2081211112C038977E
:101CB000008111812281338134964081518162817A
:101CC000738104171507260737073CF41F910F91FE
:101CD000FDCDFC0124A52111F9CF1F910F91E0CD7D
:101CE000FC011382128214828CE291E0A0E0B0E049
:101CF000808F918FA28FB38F42E350E060E070E05D
:101D0000448F558F668F778F40A351A362A373A32F
:101D100084A395A3A6A3B7A388E790E0A0E0B0E0D2
:101D200080A791A7A2A7B3A714A615A616A617A6C3
:101D300084E690E0A0E0B0E080AB91ABA2ABB3ABA7
:101D400014AA15AA16AA17AA10AE11AE12AE13AE97
:101D500014AE15AEDF01DE961D921D921D921C92EF
:101D6000139714961D921D921D921C921397149610
:101D70001C9211961D921D921D921C9213971496FF
:101D80001D921D921D921C92139714961D921D92E6
:101D90001D921C92139714961D921D921D921C92D7
:101DA000139714961D921D921D921C9213971496D0
:101DB0001D921D921D921C92139714961D921D92B6
:101DC0001D921C92139714961C9211961C921196B8
:101DD0001C9211961C9211961C9211961C921196AF
:101DE0001C9211961C9211961C9211961C9211969F
:101DF0001C9216821582108617821286118614860E
:101E0000138616861586108A1786128A118A148AF6
:101E1000138A119685E19CE011969C938E931296FD
:101E200011961C921E92129681E19CE011969C9351
:101E30008E93129611961C921E9212968DE09CE043
:101E400011969C938E93129611961C921E92129646
:101E500089E09CE08D939C93E458FF4F118210829F
:101E600008950895089508958FEF9FEF08950895B8
:101E700008954F925F926F927F928F929F92AF924E
:101E8000BF92CF92DF92EF92FF92CF93DF93EC015C
:101E90006C897D898E899F8988889988AA88BB8862
:101EA000CE8CDF8C0D2C000CEE08FF08603127E291
:101EB00072078105910529F01616170618061906EE
:101EC000ACF0A7019601C501B4010E94A052DF91B8
:101ED000CF91FF90EF90DF90CF90BF90AF909F9009
:101EE0008F907F906F905F904F9008950E94115057
:101EF00020E030E44CE157E40E94FF512B013C010B
:101F0000488E598E6A8E7B8EC501B4010E94115095
:101F1000A30192010E9470504B015C01C701B60100
:101F20000E9411509B01AC01C501B4010E94705088
:101F30000E946752CCCFFC01118210821382128260
:101F400015821482178216821086118612861386D5
:101F50001486158616861786108A118A128A138AA5
:101F6000108E118E128E138E158E148E178E168E65
:101F700010A211A212A213A214A215A216A217A2B5
:101F800010A611A612A613A614A615A681E090E02D
:101F900097A786A780E197E2A0E0B0E0848B958BBD
:101FA000A68BB78B08958EBD00000DB407FEFDCF44
:101FB0008EB50895CF93DF93EC01188A198A1A8A97
:101FC0001B8A60E086E177D98EA58295807FEBDF62
:101FD00061E086E1DF91CF916EC9CF92DF92EF92FF
:101FE000FF920F931F93CF93DF938C0160E086E104
:101FF00062D9F80186A597A524E0880F991F2A9534
:10200000E1F78F60D0DF83E290E00197F1F7C4E061
:10201000D0E0C12CD12C7601FE2CED2CDC2CCC2474
:1020200081E0C1DFC82A2197B9F761E086E143D991
:10203000F801C08AD18AE28AF38ADF91CF911F9199
:102040000F91FF90EF90DF90CF900895089508953D
:102050000895089508950F931F93CF93DF938B01F5
:10206000EA01AB01415051094433510508F0E9C080
:102070002230310508F0E5C048E3429FF001439F5C
:10208000F00D1124E80FF91FE60FF71F81E08083A0
:102090006C2F232B09F4D2C061E0802F39D920970F
:1020A00049F460E0802F07D9CE01DF91CF911F91D5
:1020B0000F910895CF3FD10511F461E0BFC0F80141
:1020C000E35BFD4FE491E150E23108F0B2C0F0E093
:1020D0008827E259FF4E8F4F0C94BB528010871017
:1020E0008C109610A0101911AA10B210BA10C410BA
:1020F000CE10D810E710F1101911FB1005110F11B7
:1021000084B5806884BDC7BDD0E0C0E0CDCF84B5C4
:10211000806284BDC8BDF8CF8091800080688093C4
:102120008000D0938900C0938800EECF809180001A
:10213000806280938000D0938B00C0938A00E4CFAC
:1021400080918000886080938000D0938D00C09340
:102150008C00DACF8091B00080688093B000C0938B
:10216000B300D2CF8091B00080628093B000C09362
:10217000B400CACF80919000806880939000D09383
:102180009900C0939800C0CF8091900080628093A6
:102190009000D0939B00C0939A00B6CF809190009E
:1021A000886080939000D0939D00C0939C00ACCF3A
:1021B0008091A00080688093A0008091A0008F7B18
:1021C0008093A000D093A900C093A8009DCF8091D8
:1021D000A00080628093A000D093AB00C093AA00BF
:1021E00093CF8091A00088608093A000D093AD0031
:1021F000C093AC0089CF809120018068809320013A
:10220000D0932901C09328017FCF80912001806263
:1022100080932001D0932B01C0932A0175CF809128
:102220002001886080932001D0932D01C0932C0160
:102230006BCF60E0C038D1050CF03FCF802F3BD88A
:1022400063CFC1E0D0E030CF0895CF93DF93D0E0EB
:10225000C0E0CE010E94D001882319F0CE010E9477
:1022600066022196C13ED105A1F7DF91CF91089575
:1022700008952F923F924F925F926F927F928F922A
:102280009F92AF92BF92CF92DF92EF92FF920F9305
:102290001F93CF93DF9300D01F92CDB7DEB79C83FF
:1022A0008B834B015A011901FA82E982FA014080BD
:1022B00051806280738020E030E0A901C301B20147
:1022C0000E949852181674F4F601208131814281DF
:1022D0005381C301B2010E949A51F5016083718359
:1022E00082839383F8014080518062807380F4017F
:1022F000A68DB78D20893189428953890E94635107
:102300006B017C01EB81FC81EC59FF4F80818823BC
:1023100009F43FC0C414D504E604F7040CF43EC02D
:10232000F801C082D182E282F3828B819C81CE96B9
:102330009C838B83FC0180819181A281B381F10117
:1023400080839183A283B383E981FA818081918123
:10235000892B41F0C4018DDDEB81FC8160837183A9
:10236000828393830F900F900F900F90DF91CF9106
:102370001F910F91FF90EF90DF90CF90BF90AF90A3
:102380009F908F907F906F905F904F903F902F9095
:1023900008954C145D046E047F0414F6F50140802A
:1023A00051806280738020E030E04AEF56E4C30140
:1023B000B2010E940B5087FFB3CF20E030E040E82D
:1023C0005FE3C301B2010E949B51F50160837183F9
:1023D00082839383A5CFCF93DF93EC0183B183B145
:1023E000E0E0F1E080818081CE0186579E4FF5DDEF
:1023F00083B183B180B180B1CE0186549E4FEDDDB3
:1024000083B183B180B180B1CE0186519E4FDF91FF
:10241000CF91E3CDCF93DF93EC01FC01E05FFC4F64
:102420001082EE58F1098081811103C0CE014096DF
:1024300063DAFE01ED57FD4F8081811104C0CE01AA
:1024400082579F4F59DAFE01EC57FD4F8081811171
:1024500004C0CE01845F9E4F4FDA64E670E080E0F6
:1024600090E0DF91CF910C94F409089508950895B8
:10247000089508958091D9079091DA07892B09F082
:1024800040C08FE090E00E94924AFC0181E090E021
:10249000A0E0B0E080839183A283B383848395839B
:1024A000A683B78380879187A287B3871586148612
:1024B00016861092EB081092EC081092ED0810921C
:1024C000EE081092EF081092F0081092F1081092A6
:1024D000F2081092F3081092F4081092F508109286
:1024E000F6081092890C10928A0C10928B0C1092A4
:1024F0008C0C10921B0810921A08F093DA07E093E4
:10250000D9078091D9079091DA070895B3DF85E460
:102510000E94330921E0892B09F420E02093FF0871
:10252000A9DF84E40E94330921E0892B09F420E02B
:10253000209300099FDF83E40E94330921E0892B67
:1025400009F420E02093010995DF82E40E94330919
:1025500021E0892B09F420E0209302098BDF81E43C
:102560000E94330921E0892B09F420E0209303091C
:1025700081DF80E40E94330921E0892B09F420E007
:1025800020930409089576DFC1CF74DFFC0116861D
:1025900090E080E008958091D5079091D607892B2F
:1025A00041F481E090E00E94924A9093D607809394
:1025B000D5078091D5079091D60708950F931F9363
:1025C000CF93DF938B01E7DFF801C2A1D3A1868D02
:1025D000978D8530910529F14CF40497B1F090E086
:1025E00080E0DF91CF911F910F9108958630910582
:1025F00011F10B97A1F76BE070E084EC9DE00E9475
:10260000AD0ABE0184EC9DE009C064E070E08BEB94
:102610009DE00E94AD0ABE018BEB9DE00E94310A55
:10262000DECF65E070E08EEB9DE00E94AD0ABE015A
:102630008EEB9DE0F3CF66E070E081EC9DE00E94C0
:10264000AD0ABE0181EC9DE0E9CF8091D207909167
:10265000D307892B91F480E790E00E94924AFC0115
:1026600031969C012B5C3F4F119217AAE217F3079A
:10267000D9F79093D3078093D2078091D207909196
:10268000D3070895CF93DF93EB01DFDF6AA98E8D27
:102690000E94880990E080E0DF91CF9108954F92E9
:1026A0005F926F927F92AF92BF92CF92DF92EF9242
:1026B000FF920F931F93CF93DF93EB01C6DF8C0143
:1026C000CAA8DBA84EA45FA468A879A8AEA0BFA042
:1026D000EE8CFF8C4AA15BA19601B701BCDCC30163
:1026E000B2010E94F4099601A501B701C801B3DC4B
:1026F00090E080E0DF91CF911F910F91FF90EF90DC
:10270000DF90CF90BF90AF907F906F905F904F9091
:102710000895CF93DF93EB0198DF2AA93BA94AA143
:102720005BA16E8D7F8D97DC90E080E0DF91CF9193
:102730000895FC0101900020E9F73197AF01481B93
:10274000590BBC018DE89CE00C9498078F929F92E6
:10275000AF92BF920F931F93CF93DF93CDB7DEB7A6
:10276000A1970FB6F894DEBF0FBECDBF19A24230BD
:1027700008F44AE08E010F5D1F4F842E912CB12C7E
:10278000A12CA50194010E946951E62FB901CA014B
:10279000EA30ECF4E05DD801EE938D01232B242B7D
:1027A000252B79F790E080E0109711F0CD01C1DF83
:1027B000A1960FB6F894DEBF0FBECDBFDF91CF91CB
:1027C0001F910F91BF90AF909F908F900895E95CFB
:1027D000E2CFAFCF882319F087E297E0FACF80E20B
:1027E00097E0FCCFCF92DF92EF92FF92CF93DF93EF
:1027F00097FF18C06B017C018DE20E947908EC0103
:1028000066277727CB016C197D098E099F094AE05D
:102810009DDF8C0F9D1FDF91CF91FF90EF90DF9098
:10282000CF9008954AE0DF91CF91FF90EF90DF9035
:10283000CF908CCFBC01990F880B990BD3CF87E930
:1028400093E0C7DF6091890C70918A0C80918B0CAA
:1028500090918C0CC7DF8BE997E0BBCF0F931F9350
:10286000CF93DF938C01EB0189E793E0B2DF86EC35
:1028700093E0AFDFF80180810E947908CE01DADFB2
:10288000F9DDDF91CF911F910F91D9CFEF92FF9298
:102890000F931F93CF93DF93182F092F7B0161159F
:1028A000710569F50E94330931E020E0019709F0D4
:1028B00030E0C32FD22F82E0E816F10408F045C0C3
:1028C0008AE993E086DF86EC93E083DF8EE993E08C
:1028D00080DF812F902FAEDF86EC93E07ADF8CECE7
:1028E00097E077DFCE01A6DFC5DDA9DF90E080E0CD
:1028F000DF91CF911F910F91FF90EF900895D0E05D
:10290000C0E061307105B9F6812F163310F08AEC02
:10291000810F20917B00982F9870277F922B9093A6
:102920007B008770806480937C0080917A00806453
:1029300080937A0080917A0086FDFCCF80917800A8
:10294000C0917900DC2FC82FB6CF81E090E0D0CFC6
:102950000F931F93CF93DF93FC01208131812115C9
:102960003105C1F1EC01822F0E94330921E0892B4E
:1029700009F420E02B876A85261701F11E821F8249
:10298000188619860E811F81288539858A819B8149
:10299000AC81BD81081719072A073B07DCF081E0ED
:1029A000682788810E945B0950DE70E060E08881C2
:1029B0009981DF91CF911F910F9168CF8E819F8177
:1029C000A885B9850196A11DB11D8E839F83A88717
:1029D000B987D8CFDF91CF911F910F910895CF93F1
:1029E000DF93EB0132DE6AA97BA98E8D9F8D4EDFCE
:1029F00090E080E0DF91CF910895CF93DF9380EA5C
:102A000093E0E7DE84EA93E0E4DECFEFD8E088816C
:102A1000E1DE88EA93E0DDDE8981DCDE8CEA93E0AA
:102A2000D8DE8A81D7DE80EB93E0D3DE8B81D2DEE5
:102A300084EB93E0CEDE8C81CDDE88EB93E0C9DEC3
:102A40008D81C8DEDF91CF91FACE14DDD6CF8CEB2D
:102A500093E0BFDE0FDD5ADD0DDDCFDFF6DD70E088
:102A600060E088E090E012DFF0DD70E060E089E097
:102A700090E00CDFEADD70E060E08AE090E006DFE5
:102A8000E4DD70E060E08DE090E000DF90E080E069
:102A9000089583EC93E09DDE8AE292E09ADE8AE07C
:102AA00092E097DEE7DCCBDE90E080E00895CF9205
:102AB000DF92EF92FF92CF93DF93EB01CB010E9465
:102AC000D001882351F1FE01EE0FFF1FEE0FFF1F13
:102AD000EB5FF64FC080D180E280F38088EC93E01A
:102AE00078DE86EC93E075DE8EE993E072DECE014F
:102AF000A1DE86EC93E06DDE8CEC97E06ADEC70128
:102B0000B60170DEB7DC9BDE90E080E0DF91CF9114
:102B1000FF90EF90DF90CF9008958CEC93E059DE1A
:102B2000F3CF0F931F93CF93DF938C01D0E0C0E0DE
:102B3000CE010E94D001882319F0BE01C801B7DF81
:102B40002196C13ED105A1F7DF91CF911F910F9141
:102B500008952F923F924F925F926F927F928F9241
:102B60009F92AF92BF92CF92DF92EF92FF920F931C
:102B70001F93CF93DF93CDB7DEB762970FB6F8946C
:102B8000DEBF0FBECDBF8C01FC01FE96408151819E
:102B9000628173811C0122E4220E311CF1018081CB
:102BA0009181A281B3817801F6E4EF0EF11CF70167
:102BB000B08098012C593F4F49017F966F01BB208F
:102BC00089F1F80124A5F401208321E0F601208396
:102BD000411551056105710559F4F801848C958CF6
:102BE000A68CB78CE15AFF4F80829182A282B38279
:102BF000F80142AC53AC64AC75AC98012D593F4F11
:102C00005901481659066A067B06A4F54817590764
:102C10006A077B07CCF1D7018C91811135C0D501B2
:102C20001C9239C121E0481759076A077B070CF04D
:102C300020E0F40120832A013B0177FF07C04424F0
:102C400055243201441A550A660A770A4C015D017F
:102C5000B7FF07C0882499245401881A990AAA0A40
:102C6000BB0A21E0481459046A047B040CF0AECF7F
:102C700020E0ACCF84159505A605B70564F684174A
:102C80009507A607B7073CF6F5018081882339F23E
:102C9000D7018C9181110EC0F70180818111BFCFC6
:102CA000D6016C9181E06827C8010E94190D81113D
:102CB000B6CF06C060E0C8010E94190D8111ECCFAB
:102CC000D80194962D913D914D915C9197972983D0
:102CD0003A834B835C8358962D913D914D915C9145
:102CE0005B972D833E834F8358875C962D913D9152
:102CF0004D915C915F9729873A874B875C87F101FB
:102D000080819181A281B381F801FE96C080D1803B
:102D1000E280F380F80142AD53AD64AD75ADE95981
:102D2000FF4F1082319610823801F9E66F0E711C48
:102D3000F3011082980126593F4FF9011082329613
:102D400010824C015D01841A950AA60AB70AB7FEE3
:102D500008C0B094A09490948094811C911CA11CF4
:102D6000B11C481759076A077B072CF0C81AD90A03
:102D7000EA0AFB0A04C0C41AD50AE60AF70AD50112
:102D8000C401B595A795979587958D879E87AF8741
:102D9000B88BD801A459BF4F1D018C149D04AE04FB
:102DA000BF0408F09DC0F80100A0F1A1E02DFA8B4E
:102DB000E98B81E0D9018C93F1018083F801848152
:102DC000882309F45CC00E94250AD80112964D9010
:102DD0005C90052C000C6608770864197509860953
:102DE0009709693E73408105910508F448C00E9427
:102DF000250AF801738362838EEE93E0EADC82EFAA
:102E000093E0E7DC60E070E0CB01ECDC88EF93E07E
:102E1000E0DCC701B601E6DC8EEF93E0DADCC50149
:102E2000B401E0DC84E094E0D4DC4AE06D857E858A
:102E30008F8598898BDC8BE094E0CBDC69817A818B
:102E40008B819C81CFDC81E194E0C3DC69857A854C
:102E50008B859C85C7DC87E194E0BBDC6D817E813E
:102E60008F819885BFDC8DE194E0B3DC86EC93E044
:102E7000B0DC89899A89DEDC8BE997E0AADCF8016D
:102E8000E15AFF4F29893A89C901B0E0A0E0808367
:102E90009183A283B38360E0C8010E94190D882347
:102EA00031F0F801FE96108211821282138262962E
:102EB0000FB6F894DEBF0FBECDBFDF91CF911F914B
:102EC0000F91FF90EF90DF90CF90BF90AF909F90C9
:102ED0008F907F906F905F904F903F902F900895CC
:102EE0002D853E854F8558892C153D054E055F057E
:102EF00008F453C089819A81AB81BC818C159D05F2
:102F0000AE05BF055CF4AD81BE811196BA8BA98B6D
:102F100081E0F3018083D1018C9350CFC701B601CA
:102F20000E9411502B013C0169817A818B819C8127
:102F30000E9411509B01AC01C301B2010E94FF51DC
:102F40002B013C016D817E818F81988529853A8591
:102F50004B855C85621B730B840B950B0E94115093
:102F60009B01AC01C301B2010E9470502B013C01D6
:102F700069857A858B859C850E9411509B01AC01E7
:102F8000C301B2010E949B510E9467527A8B698BE8
:102F900081E0F801E959FF4FBDCFD501C401298176
:102FA0003A814B815C81821B930BA40BB50BC81635
:102FB000D906EA06FB065CF44D815E814E5F5F4FE9
:102FC0005A8B498B81E0F801E759FF4FA3CFC50128
:102FD000B4016C197D098E099F090E9411502B01C3
:102FE0003C0169817A818B819C810E9411509B01F7
:102FF000AC01C301B2010E94FF512B013C016D8164
:103000007E818F81988529853A854B855C85621BF9
:10301000730B840B950B0E9411509B01AC01C301F3
:10302000B2010E9470502B013C0169857A858B8525
:103030009C850E9411509B01AC01C301B2010E940A
:103040009B510E9467527A8B698B81E0F801E859A5
:10305000FF4F60CF4F925F926F927F928F929F92BD
:10306000AF92BF92CF92DF92EF92FF920F931F9396
:10307000CF936B017C01742EAC019B010E949C528A
:10308000882391F083E294E0CF911F910F91FF90FC
:10309000EF90DF90CF90BF90AF909F908F907F90F8
:1030A0006F905F904F9045CB46015701E894B7F879
:1030B0002FEF3FEF4FE75FE7C501B4010E949C523D
:1030C00081110DC02FEF3FEF4FE75FE7C501B4015E
:1030D0000E940B5018161CF487E294E0D5CF2FEF16
:1030E0003FEF4FE75FE4C701B6010E949852181600
:1030F0001CF48BE294E0C8CF2FEF3FEF4FE75FEC7B
:10310000C701B6010E940B5087FDF3CF20E030E0ED
:10311000A901C701B6010E940B5010E000E087FF33
:1031200008C08DE20E9479088C01F7FAF094F7F854
:10313000F094C0E060E070E080E09FE37C1641F036
:1031400020E030E040E251E40E94FF51CF5FF6CF33
:10315000A70196010E949B512B013C010E946C52D9
:103160004B015C014AE0F2DA7C01E00EF11ECC2357
:10317000A9F1C501B4010E940F509B01AC01C3012C
:10318000B2010E949A514B015C018EE20E947908C3
:10319000E80EF91EC15010F120E030E040E251E4A9
:1031A000C501B4010E9470502B013C010E946C5279
:1031B0004B01B12CA12C4AE0C501B401C7DAE80EDD
:1031C000F91EC501B4010E940F509B01AC01C3015F
:1031D000B2010E949A514B015C01DCCFC701CF9133
:1031E0001F910F91FF90EF90DF90CF90BF90AF9025
:1031F0009F908F907F906F905F904F900895CF92A7
:10320000DF92EF92FF92CF93DF93EC018881998157
:10321000AA81BB81181619061A061B0644F081E024
:1032200090E0A0E0B0E088839983AA83BB838C817F
:103230009D81AE81BF81181619061A061B0644F03F
:1032400081E090E0A0E0B0E08C839D83AE83BF83FB
:1032500088859985AA85BB85181619061A061B0646
:1032600044F081E090E0A0E0B0E088879987AA87E9
:10327000BB878FE294E0ADDA84E494E0AADA60914F
:10328000EB087091EC088091ED089091EE080E9497
:1032900011506B017C01688179818A819B810E9438
:1032A00011509B01AC01C701B6010E94FF5142E0E1
:1032B000D1DE84E594E08DDA6091EF087091F0083A
:1032C0008091F1089091F2080E9411506B017C01ED
:1032D0006C817D818E819F810E9411509B01AC0188
:1032E000C701B6010E94FF5142E0B4DE84E694E0DB
:1032F00070DA6091F3087091F4088091F50890916C
:10330000F6080E9411506B017C01688579858A85D9
:103310009B850E9411509B01AC01C701B6010E9420
:10332000FF5142E097DEDF91CF91FF90EF90DF9069
:10333000CF9085CA9FD863DF90E080E008958F9298
:103340009F92AF92BF92CF92DF92EF92FF920F9334
:103350001F93CF93DF93EC0189E392E03ADA84E4A0
:1033600094E037DA6E0186E7C81A8EEFD80AC601F4
:103370000E94390F0E9411504B015C01FE01ED5576
:10338000FD4F60817181828193810E9411509B0168
:10339000AC01C501B4010E94FF5142E05BDE84E54F
:1033A00094E017DA7E01E6E4EE1AEEEFFE0AC701BA
:1033B0000E94390F0E9411504B015C01FE01E9553A
:1033C000FD4F60817181828193810E9411509B0128
:1033D000AC01C501B4010E94FF5142E03BDE84E62E
:1033E00094E0F7D98E0106511E4FC8010E94390F93
:1033F0000E9411504B015C01C555DD4F68817981F8
:103400008A819B810E9411509B01AC01C501B401CE
:103410000E94FF5142E01EDE2DD811DA85E392E0D2
:10342000D8D984E494E0D5D9F601A68DB78D20894A
:103430003189428953890E946351D4D984E594E04B
:10344000C8D9F701A68DB78D208931894289538962
:103450000E946351C7D984E694E0BBD9F801A68DD8
:10346000B78D20893189428953890E946351BAD925
:1034700001D8DF91CF911F910F91FF90EF90DF90D6
:10348000CF90BF90AF909F908F90D9C9CF92DF928D
:10349000EF92FF920F931F93CF93DF938C016A01FA
:1034A0007B01EC01CC0FDD1F642FCE010E942F5158
:1034B0009927F7FC9A958F2D7E2D6D2DCE010196C3
:1034C0000E942F510D5811090330110588F4B701DE
:1034D000992777FD9095892FCE0144960E942F5110
:1034E0006F2D772788279927CE0145960E942F5167
:1034F00090E080E0DF91CF911F910F91FF90EF90CE
:10350000DF90CF9008954F925F926F927F928F924B
:103510009F92AF92BF92CF92DF92EF92FF920F9362
:103520001F93CF93DF938C01EC01CC0FDD1FCE01F5
:103530000E942751882E912CB12CA12CCE010196EE
:103540000E942751C82ED12CF12CE12C0D581109C5
:103550000330110508F05AC0CE0144960E9427514D
:10356000482E512C712C612CCE0145960E9427517A
:10357000082F10E030E020E08FEF4816510461047E
:10358000710429F50F3F11052105310501F58FEF74
:1035900088169104A104B104C9F58FEFC816D104AF
:1035A000E104F10499F56FEF7FEFCB01DF91CF914B
:1035B0001F910F91FF90EF90DF90CF90BF90AF9051
:1035C0009F908F907F906F905F904F9008950038FC
:1035D0001105210531053CF7FE2CED2CDC2CCC240B
:1035E000C701B601680D791D8A1D9B1D3201552446
:1035F0004424640D751D861D971D302F2227112729
:103600000027600F711F821F931FD0CF00E010E0D2
:103610009801412C512C320180E8C816D104E104F4
:10362000F104D4F2C0CFEF92FF920F931F93CF9388
:10363000DF938091D0079091D107892B51F584E0D9
:1036400090E00E94924A7C0190E080E05CDF1616D8
:10365000170654F1C7010E942511D0E0C0E0CE0149
:103660000E94D001882369F0FE01EE0FFF1FEE0FCC
:10367000FF1FEB5FF64F4081518162817381CE0164
:1036800005DF2196C639D10551F7F092D107E092B6
:10369000D0078091D0079091D107DF91CF911F91F2
:1036A0000F91FF90EF90089583E090E02CDF613060
:1036B00071058105910531F505E019E0D0E0C0E024
:1036C000CE010E94D0018823B1F0CE011CDFF801A9
:1036D00060837183828393836F3F7F4F8F4F9F4FB0
:1036E00051F4CE010E946602F8014081518162814D
:1036F0007381CE01CBDE21960C5F1F4FC13ED105F9
:10370000F9F6C3CFC7010E942511BFCF8CDF09DABC
:1037100083E394E05ED80E943A1291D890E080E072
:103720000895CF92DF92EF92FF920F931F93CF9362
:10373000DF937C016B018A01E90175DFF601EE0F71
:10374000FF1FEE0FFF1FEB5FF64F80819181F701A6
:103750009183808368DF000F111F000F111FF80194
:10376000EB5FF64F81E0408151816281738141308E
:1037700051056105710509F080E0F701828753DF8B
:10378000CC0FDD1FCC0FDD1FCB5FD64F8881998119
:10379000AA81BB81F70182839383A483B5831682B8
:1037A000178210861186DF91CF911F910F91FF90A4
:1037B000EF90DF90CF900895CF93DF93EC012AEC48
:1037C00030E04BEC50E069EC70E0ABDF2EEC30E029
:1037D0004FEC50E06DEC70E0CE010C96A2DF24EDD2
:1037E00030E045ED50E063ED70E0CE01489699DFA2
:1037F00028ED30E049ED50E067ED70E0CE018496B1
:1038000090DF2EED30E04FED50E06DED70E0CE0139
:10381000C096DF91CF9185CFCF93DF938091D7076B
:103820009091D807892BA1F48CE390E00E94924AF2
:10383000EC01198218821D861C86198E188E1DA215
:103840001CA219AA18AAB8DFD093D807C093D7072B
:103850008091D7079091D807DF91CF9108952F924B
:103860003F924F925F926F927F928F929F92AF9210
:10387000BF92CF92DF92EF92FF920F931F93CF935D
:10388000DF93EC01D0DEFE01E752FD4F8091C10ACB
:103890009091C20A91838083C6DEFE01E552FD4FFE
:1038A0008091C50A9091C60A91838083BCDEFE0197
:1038B000E352FD4F8091C90A9091CA0A9183808397
:1038C000B2DE8E0101521D4F6091E90A7091EA0A41
:1038D0008091EB0A9091EC0A0E941150F8016083EC
:1038E0007183828393839FDE1E01FDE12F1AFDEF1A
:1038F0003F0A6091ED0A7091EE0A8091EF0A909173
:10390000F00A0E941150F1016083718382839383D6
:103910008ADE20E030E048EC52E4F80160817181F9
:10392000828193810E94FF512B013C0120E030E015
:1039300048EC52E4F10160817181828193810E949F
:10394000FF514B015C016091F10A7091F20A809184
:10395000F30A9091F40A0E94115020E030E048EC04
:1039600052E40E94FF516B017C012AE037ED43E2F3
:103970005CE3C301B2010E94985218160CF02AC1F0
:1039800020E030E046EC52E4C301B2010E940B504B
:1039900087FD06C0412C512C56EC652E52E4752E45
:1039A000F80140825182628273822AE037ED43E25D
:1039B0005CE3C501B4010E94985218160CF013C1C3
:1039C00020E030E046EC52E4C501B4010E940B5007
:1039D00087FD06C0812C912C36ECA32E32E4B32E49
:1039E000F10180829182A282B3822AE037ED43E224
:1039F0005CE3C701B6010E94985218160CF0FCC097
:103A000020E030E046EC52E4C701B6010E940B50C2
:103A100087FD06C0C12CD12C96ECE92E92E4F92E3C
:103A2000FE01E951FD4FC082D182E282F382FBDDCB
:103A30008091A90A9091AA0AFE01E251FD4F91835B
:103A40008083F1DD8091AD0A9091AE0AFE01E051D4
:103A5000FD4F91838083E7DD8091B10A9091B20A96
:103A6000FE01EE50FD4F91838083DDDD8091D10A10
:103A70009091D20AA091D30AB091D40AFE01EC50E1
:103A8000FD4F80839183A283B383CDDD8091D50ADE
:103A90009091D60AA091D70AB091D80AFE01E850B9
:103AA000FD4F80839183A283B383BDDD8091D90ACA
:103AB0009091DA0AA091DB0AB091DC0AFE01E45091
:103AC000FD4F80839183A283B383ADDD8091F90A9A
:103AD0009091FA0AFE01FD5F91838083A4DD8091BD
:103AE000FD0A9091FE0AFE01EE5FFC4F91838083F8
:103AF0009ADD8091010B9091020BFE01EC5FFC4F6F
:103B00009183808390DD8091110B9091120BFE01C7
:103B1000EA5FFC4F9183808386DD8091150B909145
:103B2000160BFE01E85FFC4F918380837CDD809162
:103B3000190B90911A0BFE01E65FFC4F9183808375
:103B400072DD8091990A90919A0AA0919B0AB09196
:103B50009C0AFE01E551FD4F0197A105B10509F051
:103B600054C081E080835FDD80919D0A90919E0A20
:103B7000A0919F0AB091A00AFE01E451FD4F019768
:103B8000A105B10509F043C081E080834CDD80913F
:103B9000A10A9091A20AA091A30AB091A40AC351CC
:103BA000DD4F0197A105B105A1F581E08883DF9183
:103BB000CF911F910F91FF90EF90DF90CF90BF902A
:103BC000AF909F908F907F906F905F904F903F90BD
:103BD0002F9008954AE0442E47ED542E43E2642E80
:103BE0004CE3742EDDCE2AE0822E27ED922E23E2C6
:103BF000A22E2CE3B22EF4CE8AE0C82E87EDD82E6A
:103C000083E2E82E8CE3F82E0BCF1082ACCF10822B
:103C1000BDCF1882CCCF2F923F924F925F926F927E
:103C20007F928F929F92AF92BF92CF92DF92EF924C
:103C3000FF920F931F93CF93DF93CDB7DEB76597B6
:103C40000FB6F894DEBF0FBECDBF998B888BEBDC2F
:103C5000E889F989EF5CFD4F81E04091D1095091ED
:103C6000D2096091D3097091D409452B462B472B7B
:103C700009F480E08083D7DCE889F989EE5CFD4FA8
:103C800081E04091D5095091D6096091D709709192
:103C9000D809452B462B472B09F480E08083C3DCF1
:103CA000E889F989ED5CFD4F81E04091D909509197
:103CB000DA096091DB097091DC09452B462B472B13
:103CC00009F480E08083AFDC8091210A9091220A80
:103CD000A091230AB091240AE889F989EC5CFD4F90
:103CE00080839183A283B3839EDC8091250A909187
:103CF000260AA091270AB091280AE889F989E85C88
:103D0000FD4F80839183A283B3838DDC8091290A48
:103D100090912A0AA0912B0AB0912C0AE889F9897E
:103D2000E45CFD4F80839183A283B3837CDC80912C
:103D3000F9099091FA09A091FB09B091FC09E88971
:103D4000F989E45BFD4F80839183A283B3836BDCAD
:103D50008091FD099091FE09A091FF09B091000AA0
:103D6000E889F989E05BFD4F80839183A283B38367
:103D70005ADC8091010A9091020AA091030AB09145
:103D8000040AE889F989EC5AFD4F80839183A28364
:103D9000B38349DC8091090A90910A0AA0910B0A29
:103DA000B0910C0AE889F989E85AFD4F8083918324
:103DB000A283B38338DC80910D0A90910E0AA09102
:103DC0000F0AB091100AE889F989E45AFD4F8083FF
:103DD0009183A283B38327DC8091110A9091120A08
:103DE000A091130AB091140AE889F989E05AFD4FAD
:103DF00080839183A283B38316DC8091A90990917B
:103E0000AA09A091AB09B091AC09E889F989EC59EC
:103E1000FD4F80839183A283B38305DC8091AD093C
:103E20009091AE09A091AF09B091B009E889F989E4
:103E3000E859FD4F80839183A283B383F4DB8091A3
:103E4000B1099091B209A091B309B091B409E88980
:103E5000F989E459FD4F80839183A283B383E3DB27
:103E6000E889F989E059FD4F81E02091810930917D
:103E700082092130310509F080E08083D4DBE889B4
:103E8000F989EF58FD4F81E020918509309186092D
:103E90002130310509F080E08083C5DBE889F989AC
:103EA000EE58FD4F81E02091890930918A09213037
:103EB000310509F080E08083B6DBE889F989E257B3
:103EC000FD4F81E04091590950915A0960915B0979
:103ED00070915C09452B462B472B09F480E08083C9
:103EE000A2DBE889F989E157FD4F81E040915D0946
:103EF00050915E0960915F0970916009452B462BD6
:103F0000472B09F480E080838EDBE889F989E0574C
:103F1000FD4F81E040916109509162096091630910
:103F200070916409452B462B472B09F480E0808370
:103F30007ADBE889F989EF56FD4F81E04091310A3B
:103F40005091320A6091330A7091340A452B462B06
:103F5000472B09F480E0808366DBE889F989EE5617
:103F6000FD4F81E04091350A5091360A6091370A41
:103F70007091380A452B462B472B09F480E080834B
:103F800052DBE889F989ED56FD4F81E04091390A0D
:103F900050913A0A60913B0A70913C0A452B462B9E
:103FA000472B09F480E080833EDBE889F989EC56F1
:103FB000FD4F81E02091690930916A092130310576
:103FC00009F080E080832FDBE889F989EB56FD4F0B
:103FD00081E020916D0930916E092130310509F0A1
:103FE00080E0808320DBE889F989EA56FD4F81E093
:103FF00020917109309172092130310509F080E07A
:10400000808311DB8091310990913209A0913309AD
:10401000B0913409E889F989E956FD4F808391838D
:10402000A283B38300DB8091350990913609A0917A
:104030003709B0913809E889F989E556FD4F808341
:104040009183A283B383EFDA8091390990913A0981
:10405000A0913B09B0913C09E889F989E156FD4FEF
:1040600080839183A283B383DEDAE889F989EE57EE
:10407000FD4F81E04091410950914209609143090F
:1040800070914409452B462B472B09F480E080832F
:10409000CADAE889F989ED57FD4F81E04091450979
:1040A000509146096091470970914809452B462B6C
:1040B000472B09F480E08083B6DAE889F989EC5768
:1040C000FD4F81E04091490950914A0960914B09A7
:1040D00070914C09452B462B472B09F480E08083D7
:1040E000A2DA8091390B90913A0BA0913B0BB091E1
:1040F0003C0BE889F989ED58FD4F80839183A283B9
:10410000B38391DA80913D0B90913E0BA0913F0BD0
:10411000B091400BE889F989E958FD4F808391837C
:10412000A283B38380DA8091410B9091420BA091DE
:10413000430BB091440BE889F989E558FD4F808322
:104140009183A283B3836FDAE889F989EB57FD4F36
:1041500081E02091990930919A092130310509F0C7
:1041600080E08083E889F989EA57FD4F1082E88969
:10417000F989E957FD4F108256DAE889F989E8573D
:10418000FD4F81E02091950930919609213031054C
:1041900009F080E08083E889F989E757FD4F1082B4
:1041A000E889F989E657FD4F10823DDAE889F989F7
:1041B000E557FD4F81E02091B9093091BA092130CE
:1041C000310509F080E080832EDAE889F989E45727
:1041D000FD4F81E02091BD093091BE0921303105AC
:1041E00009F080E080831FDAE889F989E357FD4F01
:1041F00081E02091C1093091C2092130310509F0D7
:1042000080E0808310DAE889F989E158FD4F81E088
:104210002091490B30914A0B2130310509F080E0A3
:10422000808301DAE889F989E058FD4F81E0209127
:104230004D0B30914E0B2130310509F080E0808329
:10424000F2D9E889F989EF57FD4F81E02091510BB0
:104250003091520B2130310509F080E08083E3D9A1
:10426000088919890D551D4F8091E1099091E20946
:10427000A091E309B091E409F80180839183A283BE
:10428000B383D1D9E888F988F9E5EF1AFDEFFF0A81
:104290008091E5099091E609A091E709B091E809BC
:1042A000F70180839183A283B383BDD98091E9090B
:1042B0009091EA09A091EB09B091EC09C888D988DE
:1042C000F5E5CF1AFDEFDF0AF60180839183A28323
:1042D000B383F80140815181628173811416150600
:1042E0001606170644F041E050E060E070E04083BD
:1042F000518362837383F7014081518162817381AD
:10430000141615061606170644F041E050E060E06A
:1043100070E04083518362837383181619061A066E
:104320001B064CF081E090E0A0E0B0E0F601808355
:104330009183A283B3830E943A12FC01D6018D902F
:104340009D90AD90BC90D7014D915D916D917C9108
:10435000D8010D911D912D913C91008311832283F1
:104360003383448355836683778380869186A286D0
:10437000B386E889F9897096FB83EA83E889F9892D
:10438000E158FD4F20812983E889F989ED58FD4FD7
:1043900080819181A281B381E889F989E557FD4F38
:1043A00020812D83E889F989EC56FD4F20812C83EB
:1043B000E889F989EB57FD4F20812987E889F98938
:1043C000E857FD4F20812A87E889F989EF56FD4F8C
:1043D00020812E87E889F989E257FD4F20812F87B8
:1043E000E889F989E059FD4F2080E889F989EF5C77
:1043F000FD4F3080E889F989E956FD4F40815181B0
:1044000062817381E889F989EC59FD4F008111813E
:1044100022813381E889F989E85AFD4FC080D18033
:10442000E280F380E889F989E45BFD4F8080918028
:10443000A280B380E889F989EC5CFD4F408051800F
:1044400062807380E889F98940A651A662A673A6A6
:1044500084A695A6A6A6B7A6C0AAD1AAE2AAF3AA40
:1044600004AB15AB26AB37AB40AF51AF62AF73AF08
:1044700034AE25AE2F8525A32E8526A32C8127A318
:1044800040E450E060E070E0E05CFF4F4083518327
:10449000628373832A85E889F98926AF298527AF46
:1044A000EC5BFF4F2D812083E889F989EB5BFF4F9F
:1044B00080839183A283B383E889F989E75BFF4F07
:1044C00089818083A889B98955968D919C91569749
:1044D0008633910509F033C287E09CE0FD01E25884
:1044E000FF4F9183808332961182108285E09CE099
:1044F000369691838083329611821082E889F989F9
:10450000838D948D4A97D1F483E09CE0EE57FF4F62
:1045100091838083E889F989EC57FF4F11821082DB
:1045200081E09CE0E889F989E657FF4F9183808319
:10453000E889F989E457FF4F1182108208891989A7
:1045400002571F4FE889F989E058FD4F20812983E0
:10455000E889F989E958FD4F80819181A281B38171
:104560008D839E83AF83B887E889F989E457FD4F2F
:1045700090819C83E889F989EB56FD4FA081A9873A
:10458000E889F989EA57FD4FB081BA87E889F98946
:10459000E757FD4F20812E87E889F989EE56FD4FB8
:1045A0002080E889F989E157FD4F3080E889F98951
:1045B000EF58FD4F3081E889F989EE5CFD4F20818D
:1045C000E889F989E556FD4F80819181A281B38107
:1045D000E889F989E859FD4F4081518162817381F1
:1045E000E889F989E45AFD4FC080D180E280F380E8
:1045F000E889F989E05BFD4F80809180A280B380DB
:10460000E889F989E85CFD4F4080518062807380C1
:10461000F801408E518E628E738E848E958EA68E9A
:10462000B78EC0A2D1A2E2A2F3A244A355A366A36F
:1046300077A380A791A7A2A7B3A724A735A7358AF8
:10464000268A2985278B80E490E0A0E0B0E080AB4B
:1046500091ABA2ABB3AB2E8526A78A8587A79C8199
:1046600094AB8D819E81AF81B88585AB96ABA7ABAE
:10467000B0AF298121AF858196818633910509F0FC
:1046800090C187E09CE0E889F989E450FF4F91836D
:104690008083E889F989E250FF4F1182108285E01A
:1046A0009CE0E889F989EC5FFE4F91838083E8897B
:1046B000F989EA5FFE4F11821082D8011B968D9115
:1046C0009C914A97D9F483E09CE0E889F989F395B5
:1046D00091838083E889F989EE5FFE4F1182108211
:1046E00081E09CE0E889F989E85FFE4F918380834F
:1046F000E889F989E65FFE4F11821082E888F9881F
:10470000B4EFEB1ABEEFFB0AE889F989EF57FD4FCA
:1047100020812983E889F989E558FD4F80819181BD
:10472000A281B3818D839E83AF83B887E889F9899D
:10473000E357FD4F90819C83E889F989EA56FD4F44
:104740003080E889F989E957FD4FA081A987E88978
:10475000F989E657FD4F2080E889F989ED56FD4F2C
:10476000C080E889F989E057FD4FD080E889F98950
:10477000EE58FD4F3081E889F989ED5CFD4F2081CD
:10478000E889F989E156FD4F80819181A281B38149
:104790008A8B9B8BAC8BBD8BE889F989E459FD4FE3
:1047A0004081518162817381E889F989E05AFD4F26
:1047B00080809180A280B380E889F989EC5AFD4F0E
:1047C0004080518062807380E889F989E45CFD4F04
:1047D00080819181A281B381F701808F918FA28F17
:1047E000B38F448E558E668E778E80A291A2A2A240
:1047F000B3A244A355A366A377A38A899B89AC89F6
:10480000BD8980A791A7A2A7B3A724A735A7D58A5A
:10481000C68A378A80E490E0A0E0B0E080AB91AB3C
:10482000A2ABB3AB26A6298527A78C8184AB8D814B
:104830009E81AF81B88585AB96ABA7ABB0AF298120
:1048400021AF858196818633910509F0D2C087E03A
:104850009CE0E889F989E658FE4F91838083E889D6
:10486000F989E458FE4F1182108285E09CE0E889C6
:10487000F989EE57FE4F91838083E889F989EC57D7
:10488000FE4F11821082D7011B968D919C914A9701
:10489000E1F483E09CE0E889F989E258FE4F9183D6
:1048A0008083E889F989E058FE4F1182108281E007
:1048B0009CE0E889F989EA57FE4F91838083E88973
:1048C000F989E857FE4F11821082E889F989EE577D
:1048D000FD4F8081882309F4B4C08A819B810E94A6
:1048E0008E0CE889F989ED57FD4F8081882309F402
:1048F000ADC0C8010E948E0CE889F989EC57FD4FC4
:104900008081882309F4A6C0C70165960FB6F89484
:10491000DEBF0FBECDBFDF91CF911F910F91FF90F2
:10492000EF90DF90CF90BF90AF909F908F907F904F
:104930006F905F904F903F902F900C948E0C8C3323
:104940009105D9F48FEF9BE0E889F989E258FF4F90
:1049500091838083E889F989E058FF4F11821082A2
:104960008DEF9BE0E889F989EA57FF4F91838083B7
:10497000E889F989E857FF4FBFCD8E9709F0BECD82
:1049800087EF9BE0E889F989E258FF4F91838083A4
:10499000E889F989E058FF4F1182108281EF9BE08E
:1049A000E1CF8C33910589F48FEF9BE0E889F98999
:1049B000E450FF4F91838083E889F989E250FF4FEB
:1049C000118210828DEF9BE06CCE8E9709F075CE30
:1049D00087EF9BE0E889F989E450FF4F918380835A
:1049E000E889F989E250FF4F1182108281EF9BE044
:1049F00058CE8C33910589F48FEF9BE0E889F989D3
:104A0000E658FE4F91838083E889F989E458FE4F88
:104A1000118210828DEF9BE02ACF8E9709F033CF61
:104A200087EF9BE0E889F989E658FE4F9183808300
:104A3000E889F989E458FE4F1182108281EF9BE0EA
:104A400016CF8A819B810E947C0C4BCFC8010E94AB
:104A50007C0C52CFC70165960FB6F894DEBF0FBE2F
:104A6000CDBFDF91CF911F910F91FF90EF90DF901D
:104A7000CF90BF90AF909F908F907F906F905F90FE
:104A80004F903F902F900C947C0CAF92BF92CF929E
:104A9000DF92EF92FF920F931F93CF93DF93EC017E
:104AA0008AE190E09E8B8D8B8BE190E0988F8F8BCD
:104AB00089E190E09A8F898F8FE090E09C8F8B8FB7
:104AC0008EE190E09E8F8D8F8EE090E098A38F8F87
:104AD00085E490E09AA389A384E490E09CA38BA34F
:104AE000FE01E257FF4F80E290E09683858381E2EA
:104AF00090E0908787838FE190E09287818714868A
:104B0000138616861586108A178683E490E0928BAA
:104B1000818B82E490E0948B838BE258FF4F83E299
:104B200090E09683858384E290E09087878382E299
:104B300090E0928781871486138616861586108AE0
:104B4000178681E490E0928B818B80E490E0948BD7
:104B5000838BE15EFE4F11821082329611821082A9
:104B6000329611821082CE0156D8CE010E942F1C9F
:104B7000CE0186579E4F41E050E0FC0157A746A763
:104B8000DE01A654BE4F24E030E09F963C932E9366
:104B90009E975E01F6E1AF1AFEEFBF0A28E030E013
:104BA000F50137A726A720E130E0FC0131832083FF
:104BB00021E130E0358324832FEF3FEF33832283DD
:104BC00037832683628560876385618767E170E04C
:104BD00011967C936E9368E170E015967C936E93CA
:104BE000149713963C932E93129717963C932E93FB
:104BF00016971A966C911A9718966C9318971B969D
:104C00006C911B9719966C9319976DE170E0F50103
:104C1000718360836CE170E07583648333832283E6
:104C2000378326836285608763856187BE016A5FFB
:104C30007C4FFB01608171818E010C501D4FF8018A
:104C4000C080D180E280F38006501109F801008114
:104C50001181FC01158F048FC48AD58AE68AF78AF0
:104C60006130710509F04EC0378F268FCE01885F05
:104C70009C4FFC01808191819E0128503D4FF9019C
:104C8000408151816281738128503109F90120816D
:104C900031815D963C932E935C9754964D935D9332
:104CA0006D937C935797019781F58FEF9FEF5F96F8
:104CB0009C938E935E97DE01A65FBC4F8D919C9175
:104CC00011971E974D915D916D917C91CE50DD4F66
:104CD00028813981F501358F248F448B558B668B64
:104CE000778B0197A9F48FEF9FEF978F868FDF91D6
:104CF000CF911F910F91FF90EF90DF90CF90BF90D9
:104D0000AF900895578F468FB1CF81E090E0CFCF1D
:104D100081E090E0EACFCF92DF92EF92FF920F9383
:104D20001F93CF93DF938B010E94131BEC01F801BB
:104D3000C2A0D3A0E4A0F5A0068D178D8A819B8127
:104D40008F30F7E29F075CF501969B838A83C80149
:104D50000E94D001882331F1F801EE0FFF1FEE0F02
:104D6000FF1FEB5FF64FC082D182E282F382B70170
:104D7000A601C8010E94461AB801CE010E9457152B
:104D80000E940C1C0E94DC1B90E080E0DF91CF9120
:104D90001F910F91FF90EF90DF90CF9008951B82AD
:104DA0001A82D5CF8CEC93E00E94E913E9CFCF9320
:104DB000DF93EB010E94131B6E8D7F8D0E945715B0
:104DC00090E080E0DF91CF910895FC018081918196
:104DD000009711F00C942E4B08950C942E4B0C94CC
:104DE0002E4B0C942E4B0C942E4B0C942E4B0C945F
:104DF0002E4B0C942E4B0C942E4B0C942E4B0C944F
:104E00002E4B0C942E4B0C942E4B0C942E4B0C943E
:104E10002E4B0C942E4B0C942E4B0C942E4B0C942E
:104E20002E4B0C942E4B0C942E4B0C942E4B0C941E
:104E30002E4B0C942E4B0F931F93CF93DF93EC01CB
:104E400088819981009759F02A813B81261737077D
:104E500030F081E0DF91CF911F910F9108958B0188
:104E60006F5F7F4F0E94C352009759F099838883E8
:104E70001B830A832C813D81232B59F7FC0110826F
:104E8000E8CF80E0E7CF0F931F93CF93DF93EC0140
:104E90008B01D1DF28813981811112C021153105A3
:104EA00019F0C9010E942E4B198218821D821C82A2
:104EB0001B821A82CE01DF91CF911F910F9108952D
:104EC0001D830C836DE977E0C9010E94B453F2CFD2
:104ED000CF93DF93FC01E25EFD4F4081518141158C
:104EE000510501F1EC01CE5DDD4F28813981865EEF
:104EF0009D4F24173507E8F4FC01808191810097CC
:104F0000A1F0820F931FFC0180818A3031F08D3037
:104F100069F48BE997E00E94E913888199810196F1
:104F200099838883DF91CF91089580E00E9479086A
:104F3000F4CF70E060E0A7DF19821882F3CF2F92E0
:104F40003F924F925F926F927F928F929F92AF9219
:104F5000BF92CF92DF92EF92FF920F931F93CF9366
:104F6000DF93CDB7DEB7CE57D1090FB6F894DEBFC9
:104F70000FBECDBF8C01FC01108211821282138200
:104F80001482158216821782108611861286138665
:104F900014861586168617864C01F0E18F0E911C3B
:104FA000C4010E94700E68018EE8C80ED11CC601B3
:104FB0000E94700E7801E4EFEE1AEEEFFE0AC701D0
:104FC0000E94700E5801F6E7AF1AFEEFBF0AC50146
:104FD0000E949B0F380186E4681A8EEF780AC3019D
:104FE0000E949B0F2801E6E14E1AEEEF5E0AC20115
:104FF0000E949B0FF801E65EFD4F11821082138222
:1050000012821582148270E060E0CF013CDFF8016B
:10501000E05EFD4F1182108232961182108232962C
:10502000118210823296118210823296108231964D
:10503000108231961082319611821082329611823E
:10504000108232961182108232961082319610822E
:105050003196108231961082118212821382349618
:10506000108211821282138234961082118212826F
:105070001382349610821182128213823496108227
:10508000118212821382349610821182128213824C
:105090003496108211821282138234961082118209
:1050A00012821382349610821182128213823496F5
:1050B000108211821282138234961082118212821F
:1050C00013823496108211821282138234961082D7
:1050D00011821282138234961082118212821382FC
:1050E0003496108211821282138234961082319685
:1050F00010823196108231961082118212821382B0
:105100003496108211821282138234961082118298
:105110001282138234961082319610823196108258
:10512000319610823196108231961082319610821B
:10513000319610823196108231961082319610820B
:1051400031961082319610823196108231961082FB
:1051500031961082319610823196108231961082EB
:1051600031961082319610823196108231961082DB
:1051700031961082319610821182128213823496F7
:10518000108211821282138234961082118212824E
:105190001382D801AD55BD4F8CE0E9E1F2E00190FA
:1051A0000D928A95E1F7F801E155FD4F10821182C9
:1051B00012821382349610821182128213823496E4
:1051C00010821182128213823496118210823296DA
:1051D00011821082329611821082329610821182D0
:1051E00012821382349610821182128213823496B4
:1051F00010821182128213823496108211821282DE
:105200001382349610821182128213823496108295
:105210001182128213823496118210823296118288
:10522000108232961182108232961082118212827E
:105230001382349610821182128213823496108265
:105240001182128213823496108231961082319626
:10525000108231961182108232961182108232961B
:105260001182108232961082118212821382349639
:10527000108211821282138234961082118212825D
:1052800013823496118210823296118210823296E5
:10529000118210823296118210823296118210820F
:1052A00032961182108232961182108232961182C9
:1052B00010821801F0EF2F1AFCEF3F0AF101108263
:1052C000319611821082329611821082CE0101969F
:1052D0000E94700E8EE7FE013196D40101900D926E
:1052E0008A95E1F7CE0101960E94700E8EE7FE01CD
:1052F0003196D60101900D928A95E1F7CE01019683
:105300000E94700E8EE7FE013196D70101900D923A
:105310008A95E1F788E5F801808B89E5F6018083BD
:105320008AE5F7018083CE0101960E949B0F80E3FE
:10533000FE013196D50101900D928A95E1F7CE01DB
:1053400001960E949B0F80E3FE013196D3010190EC
:105350000D928A95E1F7CE0101960E949B0F80E3A2
:10536000FE013196D20101900D928A95E1F7C801B4
:105370008CDBF1011082C258DF4F0FB6F894DEBF0C
:105380000FBECDBFDF91CF911F910F91FF90EF9096
:10539000DF90CF90BF90AF909F908F907F906F9055
:1053A0005F904F903F902F900895CF93DF9380911F
:1053B000CE079091CF07892B51F485E193E00E94AD
:1053C000924AEC01BCDDD093CF07C093CE07809109
:1053D000CE079091CF07DF91CF910895CF93DF93C0
:1053E0008091D407811114C081E08093D407DDDF60
:1053F000EC0140960E943C0ECE0182579F4F0E94C6
:105400003C0ECE01845F9E4F0E943C0E1092D4074A
:10541000DF91CF910895CF93DF93EB0120E030E04F
:1054200040E85FE36A817B818C819D810E940B5003
:10543000811110C087E394E00E94E913B6DFFC01FC
:10544000E25BFF4F108211821282138286579E4FB9
:105450000E94DA0F20E030E040E85FE36E817F8158
:10546000888599850E940B50811110C087E494E0D3
:105470000E94E9139ADFFC01E453FF4F108211826E
:105480001282138286549E4F0E94DA0F20E030E091
:1054900040E85FE36A857B858C859D850E940B5083
:1054A000811110C087E594E00E94E9137EDFFC01C2
:1054B000E65BFE4F108211821282138286519E4F4C
:1054C0000E94DA0F0E943A120E941F1490E080E0BE
:1054D000DF91CF910895EF92FF920F931F93CF9397
:1054E000DF936115710541F480E0DF91CF911F9149
:1054F0000F91FF90EF90089541155105A9F07B01A0
:10550000EC010C811D81040F151FB80194DC882368
:1055100059F3288139818C819D81B701820F931FB6
:105520000E94B4531D830C8381E0DFCFEF92FF9282
:105530000F931F93CF93DF93CDB7DEB764970FB66A
:10554000F894DEBF0FBECDBF7C01CB01BA018E0146
:105550000F5F1F4F22E044E00E94754AFC0101905A
:105560000020E9F73197AF01481B590BBC01C70177
:10557000B2DF64960FB6F894DEBF0FBECDBFDF91E9
:10558000CF911F910F91FF90EF900895EF92FF92AE
:105590000F931F93CF93DF93CDB7DEB72E970FB640
:1055A000F894DEBF0FBECDBF7C01CB01BA012AE06B
:1055B0008E010F5F1F4FA8010E94EE4BF801019072
:1055C0000020E9F73197AF01401B510BB801C7012B
:1055D00082DF2E960FB6F894DEBF0FBECDBFDF91EF
:1055E000CF911F910F91FF90EF900895FB010190D3
:1055F0000020E9F73197AF01461B570B6CCFCF93D3
:10560000DF93EC01198218821B821A821D821C8290
:1056100070E060E038DC67E973E0CE01E7DF4091DD
:10562000890C50918A0C60918B0C70918C0CCE017E
:10563000ADDF6BE977E0CE01D9DFCE01DF91CF910D
:105640000895FB01448155816081718144CFCF92DF
:10565000DF92EF92FF920F931F93CF93DF9300D0CF
:1056600000D01F921F92CDB7DEB78B016A01865E14
:105670009D4F7C0161E372E0B9DF66EC73E0C70126
:10568000B5DFF801808189831A8241E050E08E0104
:105690000F5F1F4FB801C7011EDF4AE0B801C60106
:1056A0000E94E44BF80101900020E9F73197AF0127
:1056B000401B510BB801C7010EDF0E943A12C8010E
:1056C0009EDFB801C701BDDFC8017FDB28960FB69A
:1056D000F894DEBF0FBECDBFDF91CF911F910F9128
:1056E000FF90EF90DF90CF9008952F923F924F92CE
:1056F0005F926F927F928F929F92AF92BF92CF9262
:10570000DF92EF92FF920F931F93CF93DF93CDB76A
:10571000DEB7A3970FB6F894DEBF0FBECDBF9BA335
:105720008AA37C836B830E940B1E8AA19BA10E948B
:105730002F1C0E94C3120E9425152B813C81AAA018
:10574000BBA02130310509F464C02230310509F4D1
:1057500090C030E1A30EB11C2AA03BA046E7241A5A
:105760004EEF340AEAA1FBA1E257FD4F5081598761
:105770008AA19BA181559D4F9E838D83EAA1FBA1A8
:10578000E752FD4FF98BE88B2AA13BA125513D4FF4
:105790003D8B2C8B4AA15BA1455D5D4F5B874A87A2
:1057A0008DE890E09B8B8A8BE5E1F0E0F887EF8352
:1057B000C5010E94410C882309F48AC087E694E061
:1057C0000E94E9130E943A1281E090E090931B0836
:1057D00080931A08E1E0F0E0FA83E98389819A81F5
:1057E000A3960FB6F894DEBF0FBECDBFDF91CF9169
:1057F0001F910F91FF90EF90DF90CF90BF90AF90EF
:105800009F908F907F906F905F904F903F902F90E0
:105810000895FEE8AF0EB11C2AA03BA026E4221A90
:105820002EEF320AEAA1FBA1E157FD4F3081398703
:105830004AA15BA14D545D4F5E834D838AA19BA11C
:1058400085529D4F998B888BEAA1FBA1E451FD4FB6
:10585000FD8BEC8B2AA13BA1235D3D4F3B872A8723
:105860004EE850E05B8B4A8B86E190E098878F830F
:105870009FCF94EFA91A9EEFB90A2AA03BA0E6E1B8
:105880002E1AEEEF3E0AEAA1FBA1E057FD4F208160
:1058900029874AA15BA149545D4F5E834D838AA14C
:1058A0009BA183529D4F998B888BEAA1FBA1E35169
:1058B000FD4FFD8BEC8B2AA13BA1215D3D4F3B872A
:1058C0002A874FE850E05B8B4A8B87E190E0CECF90
:1058D000C5010E94320C811171CF8EEE93E00E94BF
:1058E000E9138DE994E00E94E913F50180810E949B
:1058F000790884EA94E00E94E9138BE997E00E941A
:10590000E91381E090E0EA85FB859183808341E0A3
:1059100050E0B5018AA19BA19ADEC5010E948E0CC0
:10592000F50184A585010C591F4F882309F4B8C0DF
:10593000C5010E94500CF8011082C1010E94390F6C
:10594000F501FE966083718382839383ED81FE81EE
:105950001082118212821382EAA1FBA1E155FD4F50
:105960001082118212821382EAA1FBA1ED54FD4F35
:105970001082118212821382EAA1FBA1E954FD4F29
:10598000108211821282138286E090E0EA85FB8504
:105990009183808346E050E0B5018AA19BA157DE48
:1059A00061E070E0C5010E942E148B809C80880C01
:1059B000991C880C991CC40181529D4F2AA13BA1BE
:1059C000280F391F398F288F8B819C8180589E4FDB
:1059D000880F991F4AA15BA1480F591F5B8F4A8FFF
:1059E000C40183539D4FEAA1FBA1E80FF91FFD8F6E
:1059F000EC8F0C972AA13BA1280F391F3F8F2E8FC8
:105A000042974AA15BA1480F591F59A348A3412CB3
:105A1000512C320143948B819C81EAA1FBA18E0F12
:105A20009F1F9C0125513D4F3F8B2E8BCF01880D31
:105A3000991DAC01485A5D4F5D874C878AA19BA197
:105A40000E94EB11EE89FF898081882371F0C88C58
:105A5000D98CEA8CFB8C0C8D1D8D2E8D3F8D48A131
:105A600059A1B101C5010E9439118DE89CE00E9445
:105A7000F60718161906DCF010E01A821982C50123
:105A80000E94410C882391F188ED94E00E94E91373
:105A9000C5010E94410C811101C0898589878DC093
:105AA000C5010E94660C81E0F801808346CF8DE835
:105AB0009CE00E94D4078F7D85349105E9F683EC44
:105AC00094E00E94E9130E943A1221E0FC0126872B
:105AD00085E692E00E94E9130E943A120E941F1488
