:100000009DC10000CCC10000CAC10000C8C10000F1
:10001000C6C10000C4C10000C2C10000C0C10000D0
:10002000BEC10000BCC10000BAC10000B8C10000E0
:10003000B6C10000B4C10000B2C10000B0C10000F0
:10004000AEC100000C94303DAAC10000A8C1000060
:100050000C945E3DA4C10000A2C100000C945C3C65
:100060009EC100000C94263C0C94FC3B98C10000FF
:1000700096C1000094C1000092C1000090C1000030
:100080000C94023D8CC100008AC1000088C10000B0
:1000900086C1000084C1000082C1000080C1000050
:1000A0007EC100007CC100000C94D43C78C10000EB
:1000B00076C1000074C1000072C100000C94A63C1F
:1000C0006EC100006CC100006AC1000068C1000080
:1000D00066C1000064C1000062C1000060C1000090
:1000E0005EC100004E414E494E495459494E46CDDD
:1000F000CCCC3D0AD7233C17B7D13877CC2B3295DF
:1001000095E6241FB14F0A000020410000C84200BC
:10011000401C4620BCBE4CCA1B0E5AAEC59D740086
:10012000407A10F35A00A0724E18090010A5D4E8C6
:100130000000E87648170000E40B54020000CA9A59
:100140003B000000E1F505000080969800000040AB
:10015000420F000000A086010000001027000000F0
:1001600000E803000000006400000000000A000036
:100170000000000100000000002C76D888DC674FEA
:100180000823DFC1DFAE59E1B1B796E5E3E453C61A
:100190003AE651997696E8E6C28426EB898C9B6212
:1001A000ED407C6FFCEFBC9C9F40F2BAA56FA5F4BC
:1001B00090055A2AF75C936B6CF9676DC11BFCE0E4
:1001C000E40D47FEF520E6B500D0ED902E03009437
:1001D0003577050080841E080000204E0A000000CC
:1001E000C80C333333330F986E12831141EF8D21D6
:1001F00014893BE65516CFFEE6DB18D1844B381B3D
:10020000F77C1D901DA4BBE424203284725E228101
:1002100000C9F124ECA1E53D2700002100240027BE
:10022000002A002D00300033000101000004010706
:10023000010A0100002200250028002B002E0031B9
:1002400000340002010000050108010B010000203C
:10025000002300260029002C002F0032000001009E
:100260000003010601090105050505070508080841
:1002700008020202020A0A08080404040401010137
:10028000010101010103030303030303030407073F
:10029000070C0C0C0C0C0C0C0C02020202060606DD
:1002A00006060606060B0B0B0B0B0B0B0B010210C5
:1002B0002020080810204010204080020102010880
:1002C0000402010102040810204080804020100830
:1002D0000402018004020180402010080402010889
:1002E00004020101020408102040800102040810E9
:1002F00020408000000A0B02090C0D0E08070304C1
:1003000001000000000000000000000000000000EC
:1003100000000000000000000000000000000012CB
:1003200011100000000000000000000000000000AC
:1003300000000000000000000000893D11241FBEE5
:10034000CFEFD1E2DEBFCDBF00E00CBF17E0A0E0F1
:10035000B2E0E8E2F5EA00E00BBF02C007900D92C0
:10036000A03CB107D9F72DE0A0ECB7E001C01D9289
:10037000A23CB207E1F711E0CEE9D1E000E006C00F
:1003800021970109802FFE010E949251CD39D1079A
:1003900080E00807A9F70E94FA3D0C94925230CEF3
:1003A000883591050CF04BC085359105CCF4803330
:1003B00091054CF58D3291059CF48C319105BCF47E
:1003C000893191056CF48E30910564F48B30910580
:1003D0003CF4009729F097FD08C00297049728F491
:1003E00081E008950F970997D8F380E00895863249
:1003F00091053CF4843291059CF74F970397A8F739
:10040000EFCF8997FBCF843491056CF4813491054B
:100410003CF78A3391052CF4873391050CF7C39789
:10042000EDCFCD97EBCF8E34910534F48B3491051D
:10043000BCF687549109E2CF81559109DFCF863808
:1004400091051CF5833891055CF68237910584F49B
:100450008F3691052CF6883691053CF4853691054A
:100460000CF0BECF8B559109C9CF89569109C6CFE3
:100470008C3791053CF4893791050CF0B1CF835747
:100480009109BCCF8D579109B9CF803D91058CF46E
:100490008D3C91050CF0A4CF843991053CF4813951
:1004A00091050CF09DCF8D589109A8CF895C9109D9
:1004B000A5CF8A3D91053CF4873D91050CF090CF86
:1004C000835D91099BCF8D5D910998CF9C01803E02
:1004D000910508F021C5FC018827EE58FD4F8F4F8C
:1004E0000C94925152035F03680371037E038703E8
:1004F0008C078C078C078C078C079403A103AE0331
:100500008C07BB03C403CD03DA03E303EC03F50359
:10051000FE0307048C071004190422048C078C07BF
:100520008C072B0434043D048C078C0746045304C9
:100530008C078C078C0760046D047A048C07870491
:10054000900499048C078C078C07A204AB04B404B4
:100550008C07C104CE04DB048C078C078C07E804ED
:10056000F50402058C070F051C0529058C078C076F
:100570008C073605430550058C075D0566056F053C
:100580008C078C078C079305A005AD058C07BA0571
:10059000C705D4058C078C078C07E105EA05F30530
:1005A0008C078C078C078C078C078C078C07FC0545
:1005B00005060E068C071706200629068C078C07F1
:1005C0008C0732063F064C068C07590666067306F2
:1005D0008C078C078C0780068D069A068C07A70669
:1005E000B006B9068C078C078C07C206CB06D4066A
:1005F0008C078C078C078C078C078C078C078C0763
:100600008C078C078C07780581058A058C078C0779
:100610008C078C078C078C078C078C078C078C0742
:100620008C078C078C078C078C078C078C078C0732
:100630008C078C078C078C078C078C078C078C0722
:100640008C078C078C078C078C078C078C078C0712
:100650008C078C078C078C078C078C078C078C0702
:100660008C078C078C078C078C078C078C078C07F2
:100670008C078C078C07DD06E606F3068C0700075F
:10068000090716078C078C078C0723072C073907E7
:100690008C0746074F075C078C078C078C07690798
:1006A00072077F0781E090E0A0E0B0E08093F60859
:1006B0009093F708A093F808B093F9080895109262
:1006C000FA081092FB081092FC081092FD08089599
:1006D0001092FE081092FF08109200091092010972
:1006E000089581E090E0A0E0B0E08093020990934B
:1006F0000309A0930409B09305090895109206090F
:10070000109207091092080910920909089583E0D0
:1007100090E0A0E0B0E080930A0990930B09A093C9
:100720000C09B0930D09089588E790E0A0E0B0E0CF
:100730008093220990932309A0932409B09325095B
:10074000089588E790E0A0E0B0E0809326099093B8
:100750002709A0932809B0932909089588E790E014
:10076000A0E0B0E080932A0990932B09A0932C0974
:10077000B0932D0908951092320910923309109206
:1007800034091092350908951092360910923709EC
:100790001092380910923909089581E090E0A0E0A4
:1007A000B0E080933A0990933B09A0933C09B09341
:1007B0003D09089510923E0910923F091092400998
:1007C0001092410908951092420910924309109223
:1007D000440910924509089510924609109247095C
:1007E0001092480910924909089510924A091092EE
:1007F0004B0910924C0910924D09089510924E0920
:1008000010924F09109250091092510908951092B8
:1008100052091092530910925409109255090895E3
:1008200010925A0910925B0910925C0910925D09AE
:10083000089510925E0910925F091092600910925B
:100840006109089510926209109263091092640977
:10085000109265090895109272091092730910920E
:10086000740910927509089510927609109277090B
:100870001092780910927909089510927A091092CD
:100880007B0910927C0910927D09089581E090E027
:10089000A0E0B0E08093860990938709A09388092F
:1008A000B0938909089581E090E0A0E0B0E08093E2
:1008B0008A0990938B09A0938C09B0938D090895B0
:1008C0008CE291E0A0E0B0E080939A0990939B09BC
:1008D000A0939C09B0939D0908958CE291E0A0E05B
:1008E000B0E080939E0990939F09A093A009B093D4
:1008F000A10908958CE291E0A0E0B0E08093A20904
:100900009093A309A093A409B093A5090895109208
:10091000AA091092AB091092AC091092AD09089582
:100920001092AE091092AF091092B0091092B1095D
:1009300008951092B2091092B3091092B40910925E
:10094000B50908951092C2091092C3091092C40902
:100950001092C50908951092C6091092C709109205
:10096000C8091092C909089581E090E0A0E0B0E0C4
:100970008093CA099093CB09A093CC09B093CD0979
:10098000089585E090E0A0E0B0E08093D2099093D4
:10099000D309A093D409B093D509089585E090E0D8
:1009A000A0E0B0E08093D6099093D709A093D8092E
:1009B000B093D909089589E190E0A0E0B0E0809378
:1009C000DA099093DB09A093DC09B093DD0908955F
:1009D00082E390E0A0E0B0E08093EA099093EB0915
:1009E000A093EC09B093ED09089582E390E0A0E0B4
:1009F000B0E08093EE099093EF09A093F009B093D3
:100A0000F109089582E390E0A0E0B0E08093F2095C
:100A10009093F309A093F409B093F509089582E344
:100A200090E0A0E0B0E08093FA099093FB09A093D6
:100A3000FC09B093FD09089582E390E0A0E0B0E0E6
:100A40008093FE099093FF09A093000AB093010AD6
:100A5000089582E390E0A0E0B0E08093020A9093D2
:100A6000030AA093040AB093050A089580E991E06F
:100A7000A0E0B0E08093120A9093130AA093140AA6
:100A8000B093150A089580E991E0A0E0B0E080936A
:100A9000160A9093170AA093180AB093190A08959A
:100AA00080E991E0A0E0B0E080931A0A90931B0ADD
:100AB000A0931C0AB0931D0A08951092220A109266
:100AC000230A1092240A1092250A08951092260AE9
:100AD0001092270A1092280A1092290A089510925B
:100AE0002A0A10922B0A10922C0A10922D0A0895AD
:100AF00010923A0B10923B0B10923C0B10923D0B54
:100B0000089510923E0B10923F0B1092400B1092E2
:100B1000410B08951092420B1092430B1092440B1C
:100B20001092450B089588E592E0A0E0B0E0809334
:100B30003A0A90933B0AA0933C0AB0933D0A089569
:100B400088E592E0A0E0B0E080933E0A90933F0AEF
:100B5000A093400AB093410A089588E592E0A0E08E
:100B6000B0E08093420A9093430AA093440AB09362
:100B7000450A08958EE190E0A0E0B0E080934A0A33
:100B800090934B0AA0934C0AB0934D0A08958EE1BE
:100B900090E0A0E0B0E080934E0A90934F0AA093BB
:100BA000500AB093510A08958EE190E0A0E0B0E0C1
:100BB0008093520A9093530AA093540AB093550A13
:100BC00008951092620A1092630A1092640A1092B9
:100BD000650A08951092660A1092670A1092680AD0
:100BE0001092690A089510926A0A10926B0A109284
:100BF0006C0A10926D0A089510928A0A10928B0A5C
:100C000010928C0A10928D0A089510928E0A1092FA
:100C10008F0A1092900A1092910A08951092920AE7
:100C20001092930A1092940A1092950A08951092C5
:100C30009A0A10929B0A10929C0A10929D0A08959B
:100C400010929E0A10929F0A1092A00A1092A10A76
:100C500008951092A20A1092A30A1092A40A109268
:100C6000A50A089585E090E0A0E0B0E08093B20A84
:100C70009093B30AA093B40AB093B50A089585E09F
:100C800090E0A0E0B0E08093B60A9093B70AA093FA
:100C9000B80AB093B90A089585E090E0A0E0B0E00A
:100CA0008093BA0A9093BB0AA093BC0AB093BD0A82
:100CB000089584EB95E1A0E0B0E08093C20A9093A0
:100CC000C30AA093C40AB093C50A089584EB95E1C2
:100CD000A0E0B0E08093C60A9093C70AA093C80A28
:100CE000B093C90A089584EB95E1A0E0B0E0809349
:100CF000CA0A9093CB0AA093CC0AB093CD0A089568
:100D000085E090E0A0E0B0E08093DA0A9093DB0AFF
:100D1000A093DC0AB093DD0A089585E090E0A0E09E
:100D2000B0E08093DE0A9093DF0AA093E00AB093CC
:100D3000E10A089585E090E0A0E0B0E08093E20A47
:100D40009093E30AA093E40AB093E50A0895109201
:100D5000EA0A1092EB0A1092EC0A1092ED0A08953A
:100D60001092EE0A1092EF0A1092F00A1092F10A15
:100D700008951092F20A1092F30A1092F40A109257
:100D8000F50A08951092020B1092030B1092040BB7
:100D90001092050B08951092060B1092070B1092FB
:100DA000080B1092090B089510920A0B10920B0B6E
:100DB00010920C0B10920D0B089510921A0C1092B9
:100DC0001B0C10921C0C10921D0C08958CE390E0EB
:100DD000A0E0B0E080931E0C90931F0CA093200C19
:100DE000B093210C089581E090E0A0E0B0E0809302
:100DF000220C9093230CA093240CB093250C0895FF
:100E000010922A0C10922B0C10922C0C10922D0C7C
:100E100008958CE390E0A0E0B0E080932E0C9093D6
:100E20002F0CA093300CB093310C089581E090E02A
:100E3000A0E0B0E08093320C9093330CA093340C7C
:100E4000B093350C08951092420C1092430C1092FE
:100E5000440C1092450C08958CE390E0A0E0B0E0C3
:100E60008093460C9093470CA093480CB093490C88
:100E7000089581E090E0A0E0B0E080934A0C909368
:100E80004B0CA0934C0CB0934D0C08951092520C47
:100E90001092530C1092540C1092550C08958CE340
:100EA00090E0A0E0B0E08093560C9093570CA09394
:100EB000580CB093590C089581E090E0A0E0B0E0A8
:100EC00080935A0C90935B0CA0935C0CB0935D0CD8
:100ED000089510926A0C10926B0C10926C0C109288
:100EE0006D0C08958CE390E0A0E0B0E080936E0C70
:100EF00090936F0CA093700CB093710C089581E0E7
:100F000090E0A0E0B0E08093720C9093730CA093FB
:100F1000740CB093750C0895220F331F220F331FEA
:100F2000F901EA50F74F108211821282138208955C
:100F3000AF92BF92CF92DF92EF92FF920F931F93E7
:100F4000CF93DF936C017B018B01040F151FEB0125
:100F50005E01AE18BF08C017D10759F06991D601DC
:100F6000ED91FC910190F081E02DC6011995892B3E
:100F700079F7C501DF91CF911F910F91FF90EF900D
:100F8000DF90CF90BF90AF900895FC01538D448DBA
:100F9000252F30E0842F90E0821B930B541710F024
:100FA000CF96089501970895FC01918D828D981731
:100FB00061F0A28DAE0FBF2FB11D5D968C91928D09
:100FC0009F5F9F73928F90E008958FEF9FEF08953A
:100FD000FC01918D828D981731F0828DE80FF11D03
:100FE000858D90E008958FEF9FEF0895FC01918D1E
:100FF000228D892F90E0805C9F4F821B91098F7317
:10100000992708958EE79CE0F1DF21E0892B09F410
:1010100020E0822F0895FC01A48DA80FB92FB11DE7
:10102000A35ABF4F2C91848D90E001968F7399271E
:10103000848FA689B7892C93A089B1898C918370FC
:1010400080648C93938D848D981306C00288F389F5
:10105000E02D80818F7D80830895EF92FF920F9322
:101060001F93CF93DF93EC0181E0888F9B8D8C8D54
:1010700098131AC0E889F989808185FF15C09FB748
:10108000F894EE89FF896083E889F989808183700B
:10109000806480839FBF81E090E0DF91CF911F91BA
:1010A0000F91FF90EF900895F62E0B8D10E00F5FDB
:1010B0001F4F0F731127E02E8C8D8E110BC00FB6B2
:1010C00007FCFACFE889F989808185FFF5CFCE0149
:1010D000A2DFF2CFEB8DEC0FFD2FF11DE35AFF4F96
:1010E000F0829FB7F8940B8FEA89FB898081806238
:1010F000D0CF682F8EE79CE0B0CFCF93DF93EC0189
:10110000888D8823B1F0AA89BB89E889F9898C91F7
:1011100085FD03C0808186FD0CC00FB607FCF7CFAC
:101120008C9185FFF2CF808185FFEDCFCE0173DFFB
:10113000EACFDF91CF91089580E090E0892B21F0F4
:1011400061DF81110E94000080E090E0892B49F06E
:1011500080E090E0892B29F00E94000081110E941C
:10116000000080E090E0892B49F080E090E0892B3E
:1011700029F00E94000081110E94000080E090E0B0
:10118000892B49F080E090E0892B29F00E94000033
:1011900081110C94000008958150823108F05AC0EA
:1011A000E82FF0E08827E852F74F8F4F0C949251C8
:1011B000F808FC08EA08F008F4082A09FF080509FD
:1011C00009090F09130917091D0921092A09250908
:1011D0002B092F09809180008F77809380000895DC
:1011E000809180008F7DF9CF80918000877FF5CF3F
:1011F00084B58F7784BD089584B58F7DFBCF8091B2
:10120000B0008F778093B00008958091B0008F7DFB
:10121000F9CF809190008F7780939000089580910E
:1012200090008F7DF9CF80919000877FF5CF8091DE
:10123000A0008F778093A00008958091A0008F7DFB
:10124000F9CF8091A000877FF5CF809120018F7723
:10125000809320010895809120018F7DF9CF8091A6
:101260002001877FF5CFCF93DF93282F30E0F9015E
:10127000ED50FD4F8491F901E355FD4FD491F901F3
:10128000E959FD4FC491CC2399F0811185DFEC2FF2
:10129000F0E0EE0FFF1FE35BFD4FA591B491EC91E1
:1012A000ED2381E090E009F480E0DF91CF91089593
:1012B00080E090E0FACF1F93CF93DF93282F30E0A8
:1012C000F901ED50FD4F8491F901E355FD4FD491A3
:1012D000F901E959FD4FC491CC23A1F0162F8111DA
:1012E0005BDFEC2FF0E0EE0FFF1FED5CFD4FA591F3
:1012F000B4918FB7F894EC91111108C0D095DE230A
:10130000DC938FBFDF91CF911F910895DE2BF8CF33
:10131000CF93DF9390E0FC01E355FD4F2491895971
:101320009D4FFC0184918823C9F090E0880F991F9C
:10133000FC01E75EFD4FA591B491FC01ED5CFD4F12
:10134000C591D49161110DC09FB7F8948C912095EF
:1013500082238C938881282328839FBFDF91CF919C
:101360000895623051F49FB7F8943C91822F809594
:1013700083238C93E8812E2BEFCF8FB7F894EC91D9
:101380002E2B2C938FBFEACF8230910538F0880F37
:10139000991F880F991F05970197F1F708953FB797
:1013A000F8948091D6079091D707A091D807B09173
:1013B000D90726B5A89B05C02F3F19F00196A11D9E
:1013C000B11D3FBFBA2FA92F982F8827BC01CD018F
:1013D000620F711D811D911D42E0660F771F881FEE
:1013E000991F4A95D1F708958F929F92AF92BF921D
:1013F000CF92DF92EF92FF926B017C01D0DF4B0125
:101400005C01C114D104E104F104B1F0C8DF681932
:1014100079098A099B09683E73408105910588F323
:1014200021E0C21AD108E108F10888EE880E83E0B5
:10143000981EA11CB11CE5CFFF90EF90DF90CF90DC
:10144000BF90AF909F908F9008952FB7F8946091C0
:10145000D2077091D3078091D4079091D5072FBF01
:101460000895CF92DF92EF92FF92CF93DF93EC013A
:10147000603282E07807CCF5653B710514F064EBCF
:1014800070E0898128E830E0281B310987FD339519
:10149000220F331F220F331F6901330FEE08FF089D
:1014A0008A8128E532E0281B310987FD3395220F18
:1014B000331F220F331F032E000C440B550B2C1926
:1014C0003D094E095F09DB0177FF02C0B0E0A0E0F3
:1014D0000E943A5024EB30E040E050E00E9414506B
:1014E000C20ED31EE41EF51EB601E881E03370F58E
:1014F000298188E890E0821B910927FD9395880F48
:10150000991F880F991F681779077CF02A8188E551
:1015100092E0821B910927FD9395880F991F880FF0
:10152000991F681779070CF4CB010297880F991F50
:101530004FB7F8942E2F30E0F901EE0FFF1FE20FA6
:10154000F31FE55EF24F928381834FBFDF91CF910E
:10155000FF90EF90DF90CF9008951F93CF93DF938C
:10156000EC01162F8881803308F04DC061E0812F97
:10157000CFDE8881282F30E0F901EE0FFF1FE20F48
:10158000F31FE55EF24F1F736081607C612B608307
:1015900019821A822CE0622F0E948651829FB0012C
:1015A000112430E020E0AB01420F531FFA01EE0F8F
:1015B000FF1FE40FF51FE55EF24F908196FD16C008
:1015C0002F5F3F4F2C30310571F7813009F51092B4
:1015D000800082E080938100109285001092840048
:1015E000B19A80916F00826080936F00E8818E2FA6
:1015F00090E0FC01EE0FFF1FE80FF91FE55EF24FD0
:101600008081806480838881DF91CF911F910895CC
:10161000823061F4109290008093910010929500B6
:101620001092940088BB80937100E0CF833069F4FE
:101630001092A00082E08093A1001092A500109269
:10164000A40089BB80937200D1CF8111CFCF1092BB
:10165000200182E080932101109225011092240143
:101660008ABB80937300C2CFAF92BF92CF92DF92BA
:10167000EF92FF920F931F93CF93DF936B017A0149
:10168000EC01C353D84F28813CE0389F8001399F3B
:10169000100D1124A090AB0DB12C27FF1FC0FB0132
:1016A0001182108288818F5F888388819801280F3A
:1016B000311D87FD3A95F6012A153B051CF48881FA
:1016C0008C30BCF180819181049680349C4908F46F
:1016D00071C0F6018081918104966EC08881980165
:1016E000280F311D87FD3A952A153B05DCF68881C8
:1016F000A801480F511D87FD5A95FA01EE0FFF1FF3
:10170000E40FF51FE55EF24F808186FFCBCF888125
:10171000F801E80FF11D87FDFA95CF01EE0FFF1FCD
:10172000E80FF91FE55EF24F808160E08F73C3DD43
:10173000B9CF808191812881A801420F511D27FDD9
:101740005A959A01FA01EE0FFF1FE20FF31FE55EB3
:10175000F24F21813281820F931FF70191838083A1
:1017600088819801280F311D87FD3A95F901EE0F08
:10177000FF1FE20FF31FE55EF24F808186FF21C05D
:101780008881080F111D87FD1A95F801EE0FFF1FC4
:10179000E00FF11FE55EF24F808161E08F73DF9112
:1017A000CF911F910F91FF90EF90DF90CF90BF905E
:1017B000AF9081CD80E49CE9F701918380838FEF26
:1017C0008883DF91CF911F910F91FF90EF90DF9071
:1017D000CF90BF90AF90089508950895089508950B
:1017E0000895EBE0F1E08081877F80830895EBE04E
:1017F000F1E080818860808308958E9808958E9AA4
:10180000089514980895149A089588980895889AC8
:10181000089560E0FC0183854ECD60E0FC01858188
:101820004ACD61E0FC01838546CD61E0FC01858104
:1018300042CDCF93DF93EC01FC01E359FF4F1082BF
:10184000379781E0808360E08D8135DD8F859889D1
:10185000892B29F060E08B85DF91CF912CCDDF9132
:10186000CF910895CF93DF93EC018B89FCDC2E8917
:101870002817190621F48F89DF91CF91089580E010
:10188000FBCFCF93DF93EC018989EDDC2E892817FC
:10189000190621F48F89DF91CF91089580E0FBCF65
:1018A000CF93DF93EC018F819DA561E0911101C081
:1018B00060E001DD8D859EA5992321F09FA561E063
:1018C000911101C060E0DF91CF91F5CCCF93DF9310
:1018D000EC018F819DA560E0911101C061E0EBDC1E
:1018E0008D859EA5992321F09FA560E0911101C0EF
:1018F00061E0DF91CF91DFCCCF93DF93EC0161E02A
:101900008985D9DC8EA5882319F061E08F85D3DC29
:10191000C559DF4F1882DF91CF910895CF93DF93A0
:10192000EC0160E08985C7DC8EA5882319F060E0B2
:101930008F85C1DCC559DF4F81E08883DF91CF916E
:101940000895CF92DF92EF92FF920F931F93CF9360
:10195000DF93FC0142AF53AF64AF75AFDC01DE969D
:101960004D935D936D937C93139714960D931D93F4
:101970002D933C931397EC01CA5BDF4FE88284A957
:10198000882351F094A591114CC037FF50C01D928F
:101990001D921D921C92139745A956A967A970AD77
:1019A00014161506160617063CF591AD992321F17C
:1019B0000D911D912D913C9113976801790137FF8D
:1019C00007C0CC24DD247601C01AD10AE20AF30A4A
:1019D0004C155D056E057F057CF437FF07C07095DB
:1019E0006095509541955F4F6F4F7F4F4D935D933D
:1019F0006D937C931397892FDF01AD5ABF4F1D92D2
:101A00001D921D921C921397ED59FF4F91E0908308
:101A1000DF91CF911F910F91FF90EF90DF90CF90CA
:101A2000089510161106120613060CF4B0CF80E0CC
:101A3000B3CF0F931F93CF93DF93EC01062F8D89C4
:101A400081110DC0CE011DDF182FCE010BDF01115A
:101A5000182F812FDF91CF911F910F910895CE0103
:101A600001DF182FCE010DDFF2CFCF93DF93EC0112
:101A7000FC01E359FF4F81E08083AE01425C5F4F80
:101A8000FA0180819181A281B3819E012C593F4F3F
:101A9000F9012081222309F440C00196A11DB11D46
:101AA000FA0180839183A283B383FE01E059FF4F43
:101AB00020813181C901959587958C0F9D1F3297A3
:101AC0000190F081E02D20FF08C0DC012D913C91B8
:101AD000E20FF31F0190F081E02D19958F85988911
:101AE000892BF9F0FE01EC58FF4F20813181C901AB
:101AF000959587958C0F9D1FCE58DF4FE881F98112
:101B000020FF08C0DC012D913C91E20FF31F0190F2
:101B1000F081E02DDF91CF9119940197A109B109CE
:101B2000BFCFDF91CF9108958F929F92AF92BF92D6
:101B3000CF92DF92EF92FF920F931F93CF93DF9399
:101B4000EC01FC01ED5AFF4F60817181828193812C
:101B50000E94E64E6B017C0168A979A98AA99BA91C
:101B60000E94E84E9B01AC0160E074E284E799E4D6
:101B70000E94D6504B015C01FE01E15AFF4F60818B
:101B80007181828193810E94E64E9B01AC01C50167
:101B9000B4010E94D6504B015C018E01095A1F4FBF
:101BA00020E030E040E05FE30E94474FA70196014C
:101BB0000E9472500E944351F801608371838283B6
:101BC0009383C55ADF4FA5019401C701B6010E9456
:101BD00072500E944351688379838A839B83DF918B
:101BE000CF911F910F91FF90EF90DF90CF90BF901A
:101BF000AF909F908F9008950F931F93CF93DF9393
:101C0000FC01E359FF4F20812223B9F07A9700812C
:101C100011812281338138964081518162817381A3
:101C2000041715072607370710F1EC0102DECE0175
:101C3000DF91CF911F910F9177CFFC01ED59FF4FAD
:101C400020812223A1F070970081118122813381AC
:101C500034964081518162817381041715072607EC
:101C6000370728F0DF91CF911F910F91FECEDF91C2
:101C7000CF911F910F910895FC01ED59FF4F2081E5
:101C8000222361F0709780819181A281B3810196B6
:101C9000A11DB11D80839183A283B38308950F9307
:101CA0001F93FC01EA5BFF4F2081211112C038977E
:101CB000008111812281338134964081518162817A
:101CC000738104171507260737073CF41F910F91FE
:101CD000FDCDFC0124A52111F9CF1F910F91E0CD7D
:101CE000FC011382128214828CE291E0A0E0B0E049
:101CF000808F918FA28FB38F42E350E060E070E05D
:101D0000448F558F668F778F40A351A362A373A32F
:101D100084A395A3A6A3B7A388E790E0A0E0B0E0D2
:101D200080A791A7A2A7B3A714A615A616A617A6C3
:101D300084E690E0A0E0B0E080AB91ABA2ABB3ABA7
:101D400014AA15AA16AA17AA10AE11AE12AE13AE97
:101D500014AE15AEDF01DE961D921D921D921C92EF
:101D6000139714961D921D921D921C921397149610
:101D70001C9211961D921D921D921C9213971496FF
:101D80001D921D921D921C92139714961D921D92E6
:101D90001D921C92139714961D921D921D921C92D7
:101DA000139714961D921D921D921C9213971496D0
:101DB0001D921D921D921C92139714961D921D92B6
:101DC0001D921C92139714961C9211961C921196B8
:101DD0001C9211961C9211961C9211961C921196AF
:101DE0001C9211961C9211961C9211961C9211969F
:101DF0001C9216821582108617821286118614860E
:101E0000138616861586108A1786128A118A148AF6
:101E1000138A119685E19CE011969C938E931296FD
:101E200011961C921E92129681E19CE011969C9351
:101E30008E93129611961C921E9212968DE09CE043
:101E400011969C938E93129611961C921E92129646
:101E500089E09CE08D939C93E458FF4F118210829F
:101E600008950895089508958FEF9FEF08950895B8
:101E70000895CF93DF93EC018881F5D921E0892B78
:101E800009F420E02C878C81EED921E0892B09F41C
:101E900020E02E878C8D9D8D0197D1F48A81E3D926
:101EA00021E0892B09F420E02D878E81DCD921E007
:101EB000892B09F420E02F879C858D85981729F0C0
:101EC0008E85281711F09A878B87DF91CF9108951F
:101ED0008C858A872B87F9CF0F93FC019285908799
:101EE00083858187A48DB58D119721F4621721F028
:101EF000401711F0628743878385882381F08285AC
:101F000091110FC0882359F080899189A289B389E2
:101F10000197A109B109808B918BA28BB38B0F9193
:101F200008958111FCCF80899189A289B389019696
:101F3000A11DB11DF0CF4F925F926F927F928F9251
:101F40009F92AF92BF92CF92DF92EF92FF92CF9388
:101F5000DF93EC016C897D898E899F8988889988B7
:101F6000AA88BB88CE8CDF8C0D2C000CEE08FF08F5
:101F7000603127E272078105910529F016161706D0
:101F800018061906ACF0A7019601C501B4010E941C
:101F90007751DF91CF91FF90EF90DF90CF90BF907E
:101FA000AF909F908F907F906F905F904F9008952B
:101FB0000E94E84E20E030E44CE156E40E94D65006
:101FC0002B013C01488E598E6A8E7B8EC501B4016F
:101FD0000E94E84EA30192010E94474F4B015C0111
:101FE000C701B6010E94E84E9B01AC01C501B401D6
:101FF0000E94474F0E943E51CCCFFC0111821082BB
:10200000138212821582148217821682108611861C
:10201000128613861486158616861786108A118AEC
:10202000128A138A108E118E128E138E158E148EB4
:10203000178E168E10A211A212A213A214A215A21C
:1020400016A217A210A611A612A613A614A615A6CC
:1020500081E090E097A786A780E197E2A0E0B0E05A
:10206000848B958BA68BB78B08950895089508955A
:10207000089508950F931F93CF93DF938B01EA0187
:10208000AB01415051094433510508F0E9C02230F9
:10209000310508F0E5C048E3429FF001439FF00D91
:1020A0001124E80FF91FE60FF71F81E080836C2FE2
:1020B000232B09F4D2C061E0802F2AD9209749F45C
:1020C00060E0802FF8D8CE01DF91CF911F910F9162
:1020D0000895CF3FD10511F461E0BFC0F801ED5084
:1020E000FD4FE491E150E23108F0B2C0F0E0882702
:1020F000E358FF4E8F4F0C9492518F1096109B1007
:10210000A510AF102811B910C110C910D310DD10DF
:10211000E710F610001128110A1114111E1184B5D0
:10212000806884BDC7BDD0E0C0E0CDCF84B58062FB
:1021300084BDC8BDF8CF8091800080688093800006
:10214000D0938900C0938800EECF80918000806298
:1021500080938000D0938B00C0938A00E4CF80915D
:102160008000886080938000D0938D00C0938C00A5
:10217000DACF8091B00080688093B000C093B30044
:10218000D2CF8091B00080628093B000C093B40041
:10219000CACF80919000806880939000D09399007E
:1021A000C0939800C0CF809190008062809390008F
:1021B000D0939B00C0939A00B6CF80919000886026
:1021C00080939000D0939D00C0939C00ACCF8091F1
:1021D000A00080688093A0008091A0008F7B8093F6
:1021E000A000D093A900C093A8009DCF8091A0002B
:1021F00080628093A000D093AB00C093AA0093CFDD
:102200008091A00088608093A000D093AD00C0931F
:10221000AC0089CF80912001806880932001D09309
:102220002901C09328017FCF809120018062809393
:102230002001D0932B01C0932A0175CF80912001FA
:10224000886080932001D0932D01C0932C016BCF27
:1022500060E0C038D1050CF03FCF802F2CD863CF81
:10226000C1E0D0E030CF0895CF93DF93D0E0C0E05D
:10227000CE010E94D001882319F0CE010E9466028F
:102280002196C13ED105A1F7DF91CF910895089520
:102290002F923F924F925F926F927F928F929F9276
:1022A000AF92BF92CF92DF92EF92FF920F931F9364
:1022B000CF93DF9300D01F92CDB7DEB79C838B8383
:1022C0004B015A011901FA82E982FA0140805180DA
:1022D0006280738020E030E0A901C301B2010E9456
:1022E0006F51181674F4F6012081318142815381B7
:1022F000C301B2010E947150F50160837183828332
:102300009383F8014080518062807380F401A68D30
:10231000B78D20893189428953890E943A506B01D7
:102320007C01EB81FC81EC59FF4F8081882309F40B
:102330003FC0C414D504E604F7040CF43EC0F80111
:10234000C082D182E282F3828B819C81CE969C8373
:102350008B83FC0180819181A281B381F101808313
:102360009183A283B383E981FA8180819181892B52
:1023700041F0C401E0DDEB81FC81608371838283E5
:1023800093830F900F900F900F90DF91CF911F913B
:102390000F91FF90EF90DF90CF90BF90AF909F9004
:1023A0008F907F906F905F904F903F902F90089507
:1023B0004C145D046E047F0414F6F50140805180D6
:1023C0006280738020E030E04AEF56E4C301B2013E
:1023D0000E94E24E87FFB3CF20E030E040E85FE3A9
:1023E000C301B2010E947250F50160837183828340
:1023F0009383A5CFCF93DF93EC01FC01E05FFC4F0B
:102400001082EE58F1098081811103C0CE014096FF
:1024100073DAFE01ED57FD4F8081811104C0CE01BA
:1024200082579F4F69DAFE01EC57FD4F8081811181
:1024300004C0CE01845F9E4F5FDA64E670E080E006
:1024400090E0DF91CF910C94F409089508950895D8
:10245000089508958091CB079091CC07892B09F0BE
:1024600040C08FE090E00E946949FC0181E090E06B
:10247000A0E0B0E080839183A283B38384839583BB
:10248000A683B78380879187A287B3871586148632
:1024900016861092DC081092DD081092DE08109269
:1024A000DF081092E0081092E1081092E208109202
:1024B000E3081092E4081092E5081092E6081092E2
:1024C000E70810927A0C10927B0C10927C0C109200
:1024D0007D0C10920C0810920B08F093CC07E0933F
:1024E000CB078091CB079091CC070895B3DF85E4AB
:1024F0000E94330921E0892B09F420E02093F008A1
:10250000A9DF84E40E94330921E0892B09F420E04B
:102510002093F1089FDF83E40E94330921E0892B97
:1025200009F420E02093F20895DF82E40E94330949
:1025300021E0892B09F420E02093F3088BDF81E46C
:102540000E94330921E0892B09F420E02093F4084C
:1025500081DF80E40E94330921E0892B09F420E027
:102560002093F508089576DFC1CF74DFFC0116864D
:1025700090E080E008958091C7079091C807892B6B
:1025800041F481E090E00E9469499093C8078093EC
:10259000C7078091C7079091C80708950F931F93AD
:1025A000CF93DF938B01E7DFF801C2A1D3A1868D22
:1025B000978D8530910529F14CF40497B1F090E0A6
:1025C00080E0DF91CF911F910F91089586309105A2
:1025D00011F10B97A1F76BE070E085EB9DE00E9495
:1025E000AD0ABE0185EB9DE009C064E070E08CEAB5
:1025F0009DE00E94AD0ABE018CEA9DE00E94310A76
:10260000DECF65E070E08FEA9DE00E94AD0ABE017A
:102610008FEA9DE0F3CF66E070E082EB9DE00E94E0
:10262000AD0ABE0182EB9DE0E9CF8091C407909195
:10263000C507892B91F480E790E00E946949FC016D
:1026400031969C012B5C3F4F119217AAE217F307BA
:10265000D9F79093C5078093C4078091C4079091E0
:10266000C5070895CF93DF93EB01DFDF6AA98E8D55
:102670000E94880990E080E0DF91CF9108954F9209
:102680005F926F927F92AF92BF92CF92DF92EF9262
:10269000FF920F931F93CF93DF93EB01C6DF8C0163
:1026A000CAA8DBA84EA45FA468A879A8AEA0BFA062
:1026B000EE8CFF8C4AA15BA19601B701DBDCC30164
:1026C000B2010E94F4099601A501B701C801D2DC4C
:1026D00090E080E0DF91CF911F910F91FF90EF90FC
:1026E000DF90CF90BF90AF907F906F905F904F90B2
:1026F0000895CF93DF93EB0198DF2AA93BA94AA164
:102700005BA16E8D7F8DB6DC90E080E0DF91CF9194
:102710000895FC0101900020E9F73197AF01481BB3
:10272000590BBC018EE79CE00C9498078F929F9206
:10273000AF92BF920F931F93CF93DF93CDB7DEB7C6
:10274000A1970FB6F894DEBF0FBECDBF19A24230DD
:1027500008F44AE08E010F5D1F4F842E912CB12C9E
:10276000A12CA50194010E944050E62FB901CA0195
:10277000EA30ECF4E05DD801EE938D01232B242B9D
:10278000252B79F790E080E0109711F0CD01C1DFA3
:10279000A1960FB6F894DEBF0FBECDBFDF91CF91EB
:1027A0001F910F91BF90AF909F908F900895E95C1B
:1027B000E2CFAFCF882319F088E197E0FACF81E12B
:1027C00097E0FCCFCF92DF92EF92FF92CF93DF930F
:1027D00097FF18C06B017C018DE20E947908EC0123
:1027E00066277727CB016C197D098E099F094AE07E
:1027F0009DDF8C0F9D1FDF91CF91FF90EF90DF90B9
:10280000CF9008954AE0DF91CF91FF90EF90DF9055
:10281000CF908CCFBC01990F880B990BD3CF88E850
:1028200093E0C7DF60917A0C70917B0C80917C0CF7
:1028300090917D0CC7DF8CE897E0BBCF0F931F937F
:10284000CF93DF938C01EB018AE693E0B2DF87EB55
:1028500093E0AFDFF80180810E947908CE01DADFD2
:10286000F9DDDF91CF911F910F91D9CFEF92FF92B8
:102870000F931F93CF93DF93182F092F7B016115BF
:10288000710569F50E94330931E020E0019709F0F4
:1028900030E0C32FD22F82E0E816F10408F045C0E3
:1028A0008BE893E086DF87EB93E083DF8FE893E0AC
:1028B00080DF812F902FAEDF87EB93E07ADF8DEB07
:1028C00097E077DFCE01A6DFC5DDA9DF90E080E0ED
:1028D000DF91CF911F910F91FF90EF900895D0E07D
:1028E000C0E061307105B9F6812F163310F08AEC23
:1028F000810F20917B00982F9870277F922B9093C7
:102900007B008770806480937C0080917A00806473
:1029100080937A0080917A0086FDFCCF80917800C8
:10292000C0917900DC2FC82FB6CF81E090E0D0CFE6
:102930000F931F93CF93DF93FC01208131812115E9
:102940003105C1F1EC01822F0E94330921E0892B6E
:1029500009F420E02B876A85261701F11E821F8269
:10296000188619860E811F81288539858A819B8169
:10297000AC81BD81081719072A073B07DCF081E00D
:10298000682788810E945B0950DE70E060E08881E2
:102990009981DF91CF911F910F9168CF8E819F8197
:1029A000A885B9850196A11DB11D8E839F83A88737
:1029B000B987D8CFDF91CF911F910F910895CF9311
:1029C000DF93EB0132DE6AA97BA98E8D9F8D4EDFEE
:1029D00090E080E0DF91CF910895CF93DF9381E97C
:1029E00093E0E7DE85E993E0E4DEC0EFD8E088819C
:1029F000E1DE89E993E0DDDE8981DCDE8DE993E0CB
:102A0000D8DE8A81D7DE81EA93E0D3DE8B81D2DE05
:102A100085EA93E0CEDE8C81CDDE89EA93E0C9DEE3
:102A20008D81C8DEDF91CF91FACE14DDD6CF8DEA4D
:102A300093E0BFDE0FDD5ADD0DDDCFDFF6DD70E0A8
:102A400060E088E090E012DFF0DD70E060E089E0B7
:102A500090E00CDFEADD70E060E08AE090E006DF05
:102A6000E4DD70E060E08DE090E000DF90E080E089
:102A7000089584EB93E09DDE88E092E09ADEEADC44
:102A8000CEDE90E080E00895CF92DF92EF92FF9249
:102A9000CF93DF93EB01CB010E94D001882351F14A
:102AA000FE01EE0FFF1FEE0FFF1FEA50F74FC08031
:102AB000D180E280F38089EB93E07BDE87EB93E0CB
:102AC00078DE8FE893E075DECE01A4DE87EB93E03D
:102AD00070DE8DEB97E06DDEC701B60173DEBADC08
:102AE0009EDE90E080E0DF91CF91FF90EF90DF904D
:102AF000CF9008958DEB93E05CDEF3CF0F931F939F
:102B0000CF93DF938C01D0E0C0E0CE010E94D001D2
:102B1000882319F0BE01C801B7DF2196C13ED10557
:102B2000A1F7DF91CF911F910F9108952F923F92BE
:102B30004F925F926F927F928F929F92AF92BF92CD
:102B4000CF92DF92EF92FF920F931F93CF93DF9379
:102B5000CDB7DEB762970FB6F894DEBF0FBECDBF1C
:102B60008C01FC01FE9640815181628173811C01C0
:102B700022E4220E311CF10180819181A281B38176
:102B80007801F6E4EF0EF11CF701B08098012C59A2
:102B90003F4F49017F966F01BB2089F1F80124A5C1
:102BA000F401208321E0F6012083411551056105E0
:102BB000710559F4F801848C958CA68CB78CE15A78
:102BC000FF4F80829182A282B382F80142AC53AC63
:102BD00064AC75AC98012D593F4F59014816590600
:102BE0006A067B06A4F5481759076A077B07CCF1EC
:102BF000D7018C91811135C0D5011C9239C121E0DA
:102C0000481759076A077B070CF020E0F40120837E
:102C10002A013B0177FF07C0442455243201441A9E
:102C2000550A660A770A4C015D01B7FF07C0882480
:102C300099245401881A990AAA0ABB0A21E0481467
:102C400059046A047B040CF0AECF20E0ACCF8415AD
:102C50009505A605B70564F684179507A607B70777
:102C60003CF6F5018081882339F2D7018C918111DE
:102C70000EC0F70180818111BFCFD6016C9181E038
:102C80006827C8010E94190D8111B6CF06C060E007
:102C9000C8010E94190D8111ECCFD80194962D9195
:102CA0003D914D915C91979729833A834B835C8347
:102CB00058962D913D914D915C915B972D833E836C
:102CC0004F8358875C962D913D914D915C915F9714
:102CD00029873A874B875C87F10180819181A281A6
:102CE000B381F801FE96C080D180E280F380F801C4
:102CF00042AD53AD64AD75ADE959FF4F10823196C9
:102D000010823801F9E66F0E711CF30110829801F0
:102D100026593F4FF9011082329610824C015D0115
:102D2000841A950AA60AB70AB7FE08C0B094A09400
:102D300090948094811C911CA11CB11C48175907C8
:102D40006A077B072CF0C81AD90AEA0AFB0A04C0F2
:102D5000C41AD50AE60AF70AD501C401B595A795A4
:102D6000979587958D879E87AF87B88BD801A45993
:102D7000BF4F1D018C149D04AE04BF0408F09DC01C
:102D8000F80100A0F1A1E02DFA8BE98B81E0D901D7
:102D90008C93F1018083F8018481882309F45CC05D
:102DA0000E94250AD80112964D905C90052C000CCB
:102DB000660877086419750986099709693E7340A2
:102DC0008105910508F448C00E94250AF801738323
:102DD00062838FED93E0EDDC83EE93E0EADC60E06C
:102DE00070E0CB01EFDC89EE93E0E3DCC701B601D4
:102DF000E9DC8FEE93E0DDDCC501B401E3DC85EFB7
:102E000093E0D7DC4AE06D857E858F8598898EDCDE
:102E10008CEF93E0CEDC69817A818B819C81D2DC5E
:102E200082E094E0C6DC69857A858B859C85CADC66
:102E300088E094E0BEDC6D817E818F819885C2DC64
:102E40008EE094E0B6DC87EB93E0B3DC89899A8965
:102E5000E1DC8CE897E0ADDCF801E15AFF4F29890D
:102E60003A89C901B0E0A0E080839183A283B38353
:102E700060E0C8010E94190D882331F0F801FE9628
:102E8000108211821282138262960FB6F894DEBF0E
:102E90000FBECDBFDF91CF911F910F91FF90EF90AB
:102EA000DF90CF90BF90AF909F908F907F906F906A
:102EB0005F904F903F902F9008952D853E854F85D0
:102EC00058892C153D054E055F0508F453C08981CE
:102ED0009A81AB81BC818C159D05AE05BF055CF464
:102EE000AD81BE811196BA8BA98B81E0F3018083FD
:102EF000D1018C9350CFC701B6010E94E84E2B013F
:102F00003C0169817A818B819C810E94E84E9B0102
:102F1000AC01C301B2010E94D6502B013C016D816E
:102F20007E818F81988529853A854B855C85621BDA
:102F3000730B840B950B0E94E84E9B01AC01C301FF
:102F4000B2010E94474F2B013C0169857A858B8530
:102F50009C850E94E84E9B01AC01C301B2010E9416
:102F600072500E943E517A8B698B81E0F801E959D9
:102F7000FF4FBDCFD501C40129813A814B815C81CE
:102F8000821B930BA40BB50BC816D906EA06FB06E9
:102F90005CF44D815E814E5F5F4F5A8B498B81E0BF
:102FA000F801E759FF4FA3CFC501B4016C197D09A2
:102FB0008E099F090E94E84E2B013C0169817A81AC
:102FC0008B819C810E94E84E9B01AC01C301B20140
:102FD0000E94D6502B013C016D817E818F819885A6
:102FE00029853A854B855C85621B730B840B950B99
:102FF0000E94E84E9B01AC01C301B2010E94474F01
:103000002B013C0169857A858B859C850E94E84E61
:103010009B01AC01C301B2010E9472500E943E515B
:103020007A8B698B81E0F801E859FF4F60CF4F92AE
:103030005F926F927F928F929F92AF92BF92CF9248
:10304000DF92EF92FF920F931F93CF936B017C015E
:10305000742EAC019B010E947351882391F084E18E
:1030600094E0CF911F910F91FF90EF90DF90CF9060
:10307000BF90AF909F908F907F906F905F904F9098
:1030800048CB46015701E894B7F82FEF3FEF4FE7E1
:103090005FE7C501B4010E94735181110DC02FEF8C
:1030A0003FEF4FE75FE7C501B4010E94E24E1816FB
:1030B0001CF488E194E0D5CF2FEF3FEF4FE75FE4BA
:1030C000C701B6010E946F5118161CF48CE194E000
:1030D000C8CF2FEF3FEF4FE75FECC701B6010E946B
:1030E000E24E87FDF3CF20E030E0A901C701B60131
:1030F0000E94E24E10E000E087FF08C08DE20E94CF
:1031000079088C01F7FAF094F7F8F094C0E060E0E9
:1031100070E080E09FE37C1641F020E030E040E288
:1031200051E40E94D650CF5FF6CFA70196010E94CE
:1031300072502B013C010E9443514B015C014AE05B
:10314000F5DA7C01E00EF11ECC23A9F1C501B40132
:103150000E94E64E9B01AC01C301B2010E94715076
:103160004B015C018EE20E947908E80EF91EC15005
:1031700010F120E030E040E251E4C501B4010E94CA
:10318000474F2B013C010E9443514B01B12CA12C14
:103190004AE0C501B401CADAE80EF91EC501B4015E
:1031A0000E94E64E9B01AC01C301B2010E94715026
:1031B0004B015C01DCCFC701CF911F910F91FF90B4
:1031C000EF90DF90CF90BF90AF909F908F907F90C7
:1031D0006F905F904F900895CF92DF92EF92FF92A1
:1031E000CF93DF93EC0188819981AA81BB81181666
:1031F00019061A061B0644F081E090E0A0E0B0E05A
:1032000088839983AA83BB838C819D81AE81BF8192
:10321000181619061A061B0644F081E090E0A0E09B
:10322000B0E08C839D83AE83BF8388859985AA8512
:10323000BB85181619061A061B0644F081E090E0BB
:10324000A0E0B0E088879987AA87BB8780E294E0F6
:10325000B0DA85E394E0ADDA6091DC087091DD08C6
:103260008091DE089091DF080E94E84E6B017C019E
:10327000688179818A819B810E94E84E9B01AC0123
:10328000C701B6010E94D65042E0D1DE85E494E049
:1032900090DA6091E0087091E1088091E2089091E5
:1032A000E3080E94E84E6B017C016C817D818E8178
:1032B0009F810E94E84E9B01AC01C701B6010E94AC
:1032C000D65042E0B4DE85E594E073DA6091E4081C
:1032D0007091E5088091E6089091E7080E94E84E19
:1032E0006B017C01688579858A859B850E94E84E03
:1032F0009B01AC01C701B6010E94D65042E097DEA7
:10330000DF91CF91FF90EF90DF90CF9088CAA2D845
:1033100063DF90E080E008958F929F92AF92BF921A
:10332000CF92DF92EF92FF920F931F93CF93DF9391
:10333000EC0186E292E03DDA85E394E03ADA6E0150
:1033400086E7C81A8EEFD80AC6010E949B0F0E941A
:10335000E84E4B015C01FE01ED55FD4F608171812E
:10336000828193810E94E84E9B01AC01C501B401AA
:103370000E94D65042E05BDE85E494E01ADA7E01DA
:10338000E6E4EE1AEEEFFE0AC7010E949B0F0E94D0
:10339000E84E4B015C01FE01E955FD4F60817181F2
:1033A000828193810E94E84E9B01AC01C501B4016A
:1033B0000E94D65042E03BDE85E594E0FAD98E01CA
:1033C00006511E4FC8010E949B0F0E94E84E4B0100
:1033D0005C01C555DD4F688179818A819B810E949E
:1033E000E84E9B01AC01C501B4010E94D65042E0F9
:1033F0001EDE30D814DA82E292E0DBD985E394E075
:10340000D8D9F601A68DB78D208931894289538993
:103410000E943A50D7D985E494E0CBD9F701A68D24
:10342000B78D20893189428953890E943A50CAD97F
:1034300085E594E0BED9F801A68DB78D2089318944
:10344000428953890E943A50BDD904D8DF91CF9167
:103450001F910F91FF90EF90DF90CF90BF90AF90B2
:103460009F908F90DCC9CF92DF92EF92FF920F93E3
:103470001F93CF93DF938C016A017B01EC01CC0F8A
:10348000DD1F642FCE010E9406509927F7FC9A9504
:103490008F2D7E2D6D2DCE0101960E9406500D5868
:1034A00011090330110588F4B701992777FD90952C
:1034B000892FCE0144960E9406506F2D77278827CA
:1034C0009927CE0145960E94065090E080E0DF915A
:1034D000CF911F910F91FF90EF90DF90CF900895C3
:1034E0004F925F926F927F928F929F92AF92BF9214
:1034F000CF92DF92EF92FF920F931F93CF93DF93C0
:103500008C01EC01CC0FDD1FCE010E94FE4F882EF6
:10351000912CB12CA12CCE0101960E94FE4FC82EF9
:10352000D12CF12CE12C0D5811090330110508F0B4
:103530005AC0CE0144960E94FE4F482E512C712C49
:10354000612CCE0145960E94FE4F082F10E030E01E
:1035500020E08FEF481651046104710429F50F3FF4
:1035600011052105310501F58FEF88169104A1049D
:10357000B104C9F58FEFC816D104E104F10499F53F
:103580006FEF7FEFCB01DF91CF911F910F91FF90F4
:10359000EF90DF90CF90BF90AF909F908F907F90F3
:1035A0006F905F904F900895003811052105310507
:1035B0003CF7FE2CED2CDC2CCC24C701B601680DA9
:1035C000791D8A1D9B1D320155244424640D751DEF
:1035D000861D971D302F222711270027600F711F8E
:1035E000821F931FD0CF00E010E09801412C512C96
:1035F000320180E8C816D104E104F104D4F2C0CF4E
:10360000EF92FF920F931F93CF93DF938091C207A6
:103610009091C307892B51F584E090E00E9469499D
:103620007C0190E080E05CDF1616170654F1C701BC
:103630000E943411D0E0C0E0CE010E94D001882366
:1036400069F0FE01EE0FFF1FEE0FFF1FEA50F74F6C
:103650004081518162817381CE0105DF2196C63997
:10366000D10551F7F092C307E092C2078091C207DB
:103670009091C307DF91CF911F910F91FF90EF9031
:10368000089583E090E02CDF61307105810591059C
:1036900031F506EF18E0D0E0C0E0CE010E94D00185
:1036A0008823B1F0CE011CDFF8016083718382832F
:1036B00093836F3F7F4F8F4F9F4F51F4CE010E94F6
:1036C0006602F8014081518162817381CE01CBDEB7
:1036D00021960C5F1F4FC13ED105F9F6C3CFC7013C
:1036E0000E943411BFCF8CDF09DA84E294E061D804
:1036F0000E942A1294D890E080E00895CF92DF9241
:10370000EF92FF920F931F93CF93DF937C016B0196
:103710008A01E90175DFF601EE0FFF1FEE0FFF1FB3
:10372000EA50F74F80819181F7019183808368DFB0
:10373000000F111F000F111FF801EA50F74F81E031
:10374000408151816281738141305105610571056C
:1037500009F080E0F701828753DFCC0FDD1FCC0F2B
:10376000DD1FCA50D74F88819981AA81BB81F7019B
:1037700082839383A483B583168217821086118671
:10378000DF91CF911F910F91FF90EF90DF90CF903D
:103790000895CF93DF93EC012AEC30E04BEC50E03E
:1037A00069EC70E0ABDF2EEC30E04FEC50E06DECFC
:1037B00070E0CE010C96A2DF24ED30E045ED50E044
:1037C00063ED70E0CE01489699DF28ED30E049EDD9
:1037D00050E067ED70E0CE01849690DF2EED30E092
:1037E0004FED50E06DED70E0CE01C096DF91CF91CE
:1037F00085CFCF93DF938091C9079091CA07892B1A
:10380000A1F48CE390E00E946949EC0119821882CE
:103810001D861C86198E188E1DA21CA219AA18AA14
:10382000B8DFD093CA07C093C9078091C9079091A8
:10383000CA07DF91CF9108952F923F924F925F92E6
:103840006F927F928F929F92AF92BF92CF92DF92B0
:10385000EF92FF920F931F93CF93DF93EC01D0DE93
:10386000FE01E752FD4F8091B20A9091B30A918315
:103870008083C6DEFE01E552FD4F8091B60A90912D
:10388000B70A91838083BCDEFE01E352FD4F809135
:10389000BA0A9091BB0A91838083B2DE8E010152F5
:1038A0001D4F6091DA0A7091DB0A8091DC0A9091D9
:1038B000DD0A0E94E84EF80160837183828393835E
:1038C0009FDE1E01FDE12F1AFDEF3F0A6091DE0A27
:1038D0007091DF0A8091E00A9091E10A0E94E84E1F
:1038E000F10160837183828393838ADE20E030E07C
:1038F00048EC52E4F80160817181828193810E94D9
:10390000D6502B013C0120E030E048EC52E4F101BC
:1039100060817181828193810E94D6504B015C014C
:103920006091E20A7091E30A8091E40A9091E50ABD
:103930000E94E84E20E030E048EC52E40E94D6506D
:103940006B017C012AE037ED43E25CE3C301B20185
:103950000E946F5118160CF02AC120E030E046ECAE
:1039600052E4C301B2010E94E24E87FD06C0412C21
:10397000512C56EC652E52E4752EF801408251828E
:10398000628273822AE037ED43E25CE3C501B40151
:103990000E946F5118160CF013C120E030E046EC85
:1039A00052E4C501B4010E94E24E87FD06C0812C9D
:1039B000912C36ECA32E32E4B32EF1018082918259
:1039C000A282B3822AE037ED43E25CE3C701B6018D
:1039D0000E946F5118160CF0FCC020E030E046EC5D
:1039E00052E4C701B6010E94E24E87FD06C0C12C19
:1039F000D12C96ECE92E92E4F92EFE01E951FD4F0F
:103A0000C082D182E282F382FBDD80919A0A90919A
:103A10009B0AFE01E251FD4F91838083F1DD80918D
:103A20009E0A90919F0AFE01E051FD4F9183808391
:103A3000E7DD8091A20A9091A30AFE01EE50FD4FAE
:103A400091838083DDDD8091C20A9091C30AA091A9
:103A5000C40AB091C50AFE01EC50FD4F80839183EA
:103A6000A283B383CDDD8091C60A9091C70AA0914D
:103A7000C80AB091C90AFE01E850FD4F80839183C6
:103A8000A283B383BDDD8091CA0A9091CB0AA09135
:103A9000CC0AB091CD0AFE01E450FD4F80839183A2
:103AA000A283B383ADDD8091EA0A9091EB0AFE0117
:103AB000FD5F91838083A4DD8091EE0A9091EF0AEF
:103AC000FE01EE5FFC4F918380839ADD8091F20AC4
:103AD0009091F30AFE01EC5FFC4F9183808390DDAF
:103AE0008091020B9091030BFE01EA5FFC4F9183E2
:103AF000808386DD8091060B9091070BFE01E85FC5
:103B0000FC4F918380837CDD80910A0B90910B0B9D
:103B1000FE01E65FFC4F9183808372DD80918A0A0B
:103B200090918B0AA0918C0AB0918D0AFE01E5510B
:103B3000FD4F0197A105B10509F054C081E08083D4
:103B40005FDD80918E0A90918F0AA091900AB091CA
:103B5000910AFE01E451FD4F0197A105B10509F05D
:103B600043C081E080834CDD8091920A9091930A5A
:103B7000A091940AB091950AC351DD4F0197A10518
:103B8000B105A1F581E08883DF91CF911F910F915D
:103B9000FF90EF90DF90CF90BF90AF909F908F906D
:103BA0007F906F905F904F903F902F9008954AE0E4
:103BB000442E47ED542E43E2642E4CE3742EDDCEAA
:103BC0002AE0822E27ED922E23E2A22E2CE3B22EA3
:103BD000F4CE8AE0C82E87EDD82E83E2E82E8CE35F
:103BE000F82E0BCF1082ACCF1082BDCF1882CCCF75
:103BF0002F923F924F925F926F927F928F929F92FD
:103C0000AF92BF92CF92DF92EF92FF920F931F93EA
:103C1000CF93DF93CDB7DEB765970FB6F894DEBFCD
:103C20000FBECDBF998B888BEBDCE889F989EF5CFF
:103C3000FD4F81E04091C2095091C3096091C409D0
:103C40007091C509452B462B472B09F480E08083F2
:103C5000D7DCE889F989EE5CFD4F81E04091C60927
:103C60005091C7096091C8097091C909452B462B2D
:103C7000472B09F480E08083C3DCE889F989ED5C97
:103C8000FD4F81E04091CA095091CB096091CC0968
:103C90007091CD09452B462B472B09F480E080839A
:103CA000AFDC8091120A9091130AA091140AB0918E
:103CB000150AE889F989EC5CFD4F80839183A28322
:103CC000B3839EDC8091160A9091170AA091180A7E
:103CD000B091190AE889F989E85CFD4F80839183E6
:103CE000A283B3838DDC80911A0A90911B0AA09164
:103CF0001C0AB0911D0AE889F989E45CFD4F8083B4
:103D00009183A283B3837CDC8091EA099091EB09D3
:103D1000A091EC09B091ED09E889F989E45BFD4FC8
:103D200080839183A283B3836BDC8091EE099091B1
:103D3000EF09A091F009B091F109E889F989E05BF8
:103D4000FD4F80839183A283B3835ADC8091F20973
:103D50009091F309A091F409B091F509E889F989E6
:103D6000EC5AFD4F80839183A283B38349DC809119
:103D7000FA099091FB09A091FC09B091FD09E8892D
:103D8000F989E85AFD4F80839183A283B38338DC9D
:103D90008091FE099091FF09A091000AB091010A5B
:103DA000E889F989E45AFD4F80839183A283B38324
:103DB00027DC8091020A9091030AA091040AB09135
:103DC000050AE889F989E05AFD4F80839183A2832F
:103DD000B38316DC80919A0990919B09A0919C096C
:103DE000B0919D09E889F989EC59FD4F8083918351
:103DF000A283B38305DC80919E0990919F09A091D5
:103E0000A009B091A109E889F989E859FD4F80839B
:103E10009183A283B383F4DB8091A2099091A309DB
:103E2000A091A409B091A509E889F989E459FD4F49
:103E300080839183A283B383E3DBE889F989E05926
:103E4000FD4F81E0209172093091730921303105D5
:103E500009F080E08083D4DBE889F989EF58FD4FD1
:103E600081E020917609309177092130310509F000
:103E700080E08083C5DBE889F989EE58FD4F81E059
:103E800020917A0930917B092130310509F080E0D9
:103E90008083B6DBE889F989E257FD4F81E04091E4
:103EA0004A0950914B0960914C0970914D09452B7D
:103EB000462B472B09F480E08083A2DBE889F9894F
:103EC000E157FD4F81E040914E0950914F096091BB
:103ED000500970915109452B462B472B09F480E07E
:103EE00080838EDBE889F989E057FD4F81E04091BE
:103EF0005209509153096091540970915509452B0D
:103F0000462B472B09F480E080837ADBE889F98926
:103F1000EF56FD4F81E04091220A5091230A6091B3
:103F2000240A7091250A452B462B472B09F480E083
:103F3000808366DBE889F989EE56FD4F81E0409188
:103F4000260A5091270A6091280A7091290A452B68
:103F5000462B472B09F480E0808352DBE889F989FE
:103F6000ED56FD4F81E040912A0A50912B0A609155
:103F70002C0A70912D0A452B462B472B09F480E023
:103F800080833EDBE889F989EC56FD4F81E0209182
:103F90005A0930915B092130310509F080E08083B6
:103FA0002FDBE889F989EB56FD4F81E020915E090E
:103FB00030915F092130310509F080E0808320DBFA
:103FC000E889F989EA56FD4F81E020916209309134
:103FD00063092130310509F080E0808311DB809195
:103FE000220990912309A0912409B0912509E8891B
:103FF000F989E956FD4F80839183A283B38300DB67
:104000008091260990912709A0912809B09129094A
:10401000E889F989E556FD4F80839183A283B383B4
:10402000EFDA80912A0990912B09A0912C09B09187
:104030002D09E889F989E156FD4F80839183A28398
:10404000B383DEDAE889F989EE57FD4F81E04091CC
:104050003209509133096091340970913509452B2B
:10406000462B472B09F480E08083CADAE889F98976
:10407000ED57FD4F81E0409136095091370960912D
:10408000380970913909452B462B472B09F480E0FC
:104090008083B6DAE889F989EC57FD4F81E04091D9
:1040A0003A0950913B0960913C0970913D09452BBB
:1040B000462B472B09F480E08083A2DA80912A0BFB
:1040C00090912B0BA0912C0BB0912D0BE889F989C5
:1040D000ED58FD4F80839183A283B38391DA809161
:1040E0002E0B90912F0BA091300BB091310BE889E2
:1040F000F989E958FD4F80839183A283B38380DAE5
:104100008091320B9091330BA091340BB091350B11
:10411000E889F989E558FD4F80839183A283B383B1
:104120006FDAE889F989EB57FD4F81E020918A0920
:1041300030918B092130310509F080E08083E889D6
:10414000F989EA57FD4F1082E889F989E957FD4F4F
:10415000108256DAE889F989E857FD4F81E020910D
:104160008609309187092130310509F080E080838C
:10417000E889F989E757FD4F1082E889F989E65700
:10418000FD4F10823DDAE889F989E557FD4F81E05E
:104190002091AA093091AB092130310509F080E066
:1041A00080832EDAE889F989E457FD4F81E0209178
:1041B000AE093091AF092130310509F080E08083EC
:1041C0001FDAE889F989E357FD4F81E02091B209B0
:1041D0003091B3092130310509F080E0808310DA95
:1041E000E889F989E158FD4F81E020913A0B30913F
:1041F0003B0B2130310509F080E0808301DAE8894A
:10420000F989E058FD4F81E020913E0B30913F0B42
:104210002130310509F080E08083F2D9E889F989FD
:10422000EF57FD4F81E02091420B3091430B21303D
:10423000310509F080E08083E3D9088919890D559B
:104240001D4F8091D2099091D309A091D409B091CA
:10425000D509F80180839183A283B383D1D9E888FB
:10426000F988F9E5EF1AFDEFFF0A8091D6099091E0
:10427000D709A091D809B091D909F701808391831A
:10428000A283B383BDD98091DA099091DB09A09113
:10429000DC09B091DD09C888D988F5E5CF1AFDEFB2
:1042A000DF0AF60180839183A283B383F801408102
:1042B000518162817381141615061606170644F0A3
:1042C00041E050E060E070E040835183628373839B
:1042D000F70140815181628173811416150616061B
:1042E000170644F041E050E060E070E04083518305
:1042F00062837383181619061A061B064CF081E0B8
:1043000090E0A0E0B0E0F60180839183A283B383C4
:104310000E942A12FC01D6018D909D90AD90BC9018
:10432000D7014D915D916D917C91D8010D911D91B9
:104330002D913C91008311832283338344835583E1
:104340006683778380869186A286B386E889F98919
:104350007096FB83EA83E889F989E158FD4F208153
:104360002983E889F989ED58FD4F80819181A281E7
:10437000B381E889F989E557FD4F20812D83E889CC
:10438000F989EC56FD4F20812C83E889F989EB5798
:10439000FD4F20812987E889F989E857FD4F208161
:1043A0002A87E889F989EF56FD4F20812E87E88911
:1043B000F989E257FD4F20812F87E889F989E05973
:1043C000FD4F2080E889F989EF5CFD4F3080E88956
:1043D000F989E956FD4F4081518162817381E889F5
:1043E000F989EC59FD4F0081118122813381E889DF
:1043F000F989E85AFD4FC080D180E280F380E889D6
:10440000F989E45BFD4F80809180A280B380E889C8
:10441000F989EC5CFD4F4080518062807380E889AF
:10442000F98940A651A662A673A684A695A6A6A65B
:10443000B7A6C0AAD1AAE2AAF3AA04AB15AB26ABD1
:1044400037AB40AF51AF62AF73AF34AE25AE2F85FF
:1044500025A32E8526A32C8127A340E450E060E00D
:1044600070E0E05CFF4F40835183628373832A8551
:10447000E889F98926AF298527AFEC5BFF4F2D81AD
:104480002083E889F989EB5BFF4F80839183A283C6
:10449000B383E889F989E75BFF4F89818083A88925
:1044A000B98955968D919C9156978633910509F05F
:1044B00033C287E09CE0FD01E258FF4F9183808387
:1044C00032961182108285E09CE03696918380833B
:1044D000329611821082E889F989838D948D4A97EA
:1044E000D1F483E09CE0EE57FF4F91838083E8890D
:1044F000F989EC57FF4F1182108281E09CE0E88936
:10450000F989E657FF4F91838083E889F989E45759
:10451000FF4F118210820889198902571F4FE889BD
:10452000F989E058FD4F20812983E889F989E95804
:10453000FD4F80819181A281B3818D839E83AF8362
:10454000B887E889F989E457FD4F90819C83E88911
:10455000F989EB56FD4FA081A987E889F989EA57C7
:10456000FD4FB081BA87E889F989E757FD4F20816F
:104570002E87E889F989EE56FD4F2080E889F98970
:10458000E157FD4F3080E889F989EF58FD4F3081C0
:10459000E889F989EE5CFD4F2081E889F989E556C3
:1045A000FD4F80819181A281B381E889F989E85921
:1045B000FD4F4081518162817381E889F989E45A14
:1045C000FD4FC080D180E280F380E889F989E05B0B
:1045D000FD4F80809180A280B380E889F989E85CF2
:1045E000FD4F4080518062807380F801408E518E73
:1045F000628E738E848E958EA68EB78EC0A2D1A247
:10460000E2A2F3A244A355A366A377A380A791A730
:10461000A2A7B3A724A735A7358A268A2985278B81
:1046200080E490E0A0E0B0E080AB91ABA2ABB3AB94
:104630002E8526A78A8587A79C8194AB8D819E8134
:10464000AF81B88585AB96ABA7ABB0AF298121AF61
:10465000858196818633910509F090C187E09CE0C1
:10466000E889F989E450FF4F91838083E889F989CB
:10467000E250FF4F1182108285E09CE0E889F989C1
:10468000EC5FFE4F91838083E889F989EA5FFE4FF2
:1046900011821082D8011B968D919C914A97D9F472
:1046A00083E09CE0E889F989F39591838083E88928
:1046B000F989EE5FFE4F1182108281E09CE0E8896B
:1046C000F989E85FFE4F91838083E889F989E65F85
:1046D000FE4F11821082E888F988B4EFEB1ABEEF22
:1046E000FB0AE889F989EF57FD4F20812983E88982
:1046F000F989E558FD4F80819181A281B3818D8335
:104700009E83AF83B887E889F989E357FD4F90818D
:104710009C83E889F989EA56FD4F3080E889F98958
:10472000E957FD4FA081A987E889F989E657FD4F30
:104730002080E889F989ED56FD4FC080E889F98924
:10474000E057FD4FD080E889F989EE58FD4F308160
:10475000E889F989ED5CFD4F2081E889F989E15606
:10476000FD4F80819181A281B3818A8B9B8BAC8B21
:10477000BD8BE889F989E459FD4F408151816281FF
:104780007381E889F989E05AFD4F80809180A28089
:10479000B380E889F989EC5AFD4F408051806280EE
:1047A0007380E889F989E45CFD4F80819181A28161
:1047B000B381F701808F918FA28FB38F448E558E76
:1047C000668E778E80A291A2A2A2B3A244A355A323
:1047D00066A377A38A899B89AC89BD8980A791A7A5
:1047E000A2A7B3A724A735A7D58AC68A378A80E4AB
:1047F00090E0A0E0B0E080AB91ABA2ABB3AB26A65B
:10480000298527A78C8184AB8D819E81AF81B88556
:1048100085AB96ABA7ABB0AF298121AF85819681DF
:104820008633910509F0D2C087E09CE0E889F989D8
:10483000E658FE4F91838083E889F989E458FE4F5A
:104840001182108285E09CE0E889F989EE57FE4FDD
:1048500091838083E889F989EC57FE4F1182108299
:10486000D7011B968D919C914A97E1F483E09CE0DF
:10487000E889F989E258FE4F91838083E889F989B4
:10488000E058FE4F1182108281E09CE0E889F989AE
:10489000EA57FE4F91838083E889F989E857FE4FF4
:1048A00011821082E889F989EE57FD4F80818823B3
:1048B00009F4B4C08A819B810E948E0CE889F98931
:1048C000ED57FD4F8081882309F4ADC0C8010E94D7
:1048D0008E0CE889F989EC57FD4F8081882309F413
:1048E000A6C0C70165960FB6F894DEBF0FBECDBF58
:1048F000DF91CF911F910F91FF90EF90DF90CF90BC
:10490000BF90AF909F908F907F906F905F904F90EF
:104910003F902F900C948E0C8C339105D9F48FEF2F
:104920009BE0E889F989E258FF4F91838083E88909
:10493000F989E058FF4F118210828DEF9BE0E889E2
:10494000F989EA57FF4F91838083E889F989E8570D
:10495000FF4FBFCD8E9709F0BECD87EF9BE0E88972
:10496000F989E258FF4F91838083E889F989E058FB
:10497000FF4F1182108281EF9BE0E1CF8C339105D4
:1049800089F48FEF9BE0E889F989E450FF4F918328
:104990008083E889F989E250FF4F118210828DEF00
:1049A0009BE06CCE8E9709F075CE87EF9BE0E8898F
:1049B000F989E450FF4F91838083E889F989E250B7
:1049C000FF4F1182108281EF9BE058CE8C3391050E
:1049D00089F48FEF9BE0E889F989E658FE4F9183CF
:1049E0008083E889F989E458FE4F118210828DEFA7
:1049F0009BE02ACF8E9709F033CF87EF9BE0E889C1
:104A0000F989E658FE4F91838083E889F989E45853
:104A1000FE4F1182108281EF9BE016CF8A819B812D
:104A20000E947C0C4BCFC8010E947C0C52CFC70166
:104A300065960FB6F894DEBF0FBECDBFDF91CF9164
:104A40001F910F91FF90EF90DF90CF90BF90AF90AC
:104A50009F908F907F906F905F904F903F902F909E
:104A60000C947C0C8F929F92AF92BF92CF92DF9268
:104A7000EF92FF920F931F93CF93DF93EC018AE1A4
:104A800090E09E8B8D8B8BE190E0988F8F8B89E1EE
:104A900090E09A8F898F8FE090E09C8F8B8F8EE1D2
:104AA00090E09E8F8D8F8EE090E098A38F8F85E4AD
:104AB00090E09AA389A384E490E09CA38BA3FE01D9
:104AC000E257FF4F80E290E09683858381E290E099
:104AD000908787838FE190E0928781871486138681
:104AE00016861586108A178683E490E0928B818B58
:104AF00082E490E0948B838BE258FF4F83E290E056
:104B00009683858384E290E09087878382E290E0B9
:104B1000928781871486138616861586108A1786D3
:104B200081E490E0928B818B80E490E0948B838B86
:104B3000E15EFE4F1182108232961182108232960F
:104B400011821082CE0154D8CE010E941C1C6E012D
:104B500086E7C81A8EEFD80A88248394912CF60130
:104B600097A686A67E01F6E4EF1AFEEFFF0A84E020
:104B700090E0F70197A786A78E0106511E4F88E0A7
:104B800090E0F80197A786A780E190E0F601918375
:104B9000808381E190E095838483AA24AA94BA2C2F
:104BA000B382A282B782A682C6010E94390FF601A3
:104BB000828580878385818787E190E0F7019183F3
:104BC000808388E190E095838483B382A282B78258
:104BD000A682C7010E94390FF701828580878385ED
:104BE00081878DE190E0F801918380838CE190E0F2
:104BF00095838483B382A282B782A682C8010E9471
:104C0000390FF8018285808783858187E45EFE4FB6
:104C10008081918172974081518162817381369741
:104C200020813181F601358F248F448B558B668B23
:104C3000778B019709F044C0B78EA68EFE01E85F1E
:104C4000FC4F808191817097408151816281738195
:104C5000389720813181F701358F248F448B558B14
:104C6000668B778B019779F58FEF9FEF978F868F04
:104C7000FE01E65FFC4F808191813E97408151812A
:104C800062817381CE50DD4F28813981F801358FE3
:104C9000248F448B558B668B778B0197B9F48FEFFC
:104CA0009FEF978F868FDF91CF911F910F91FF908C
:104CB000EF90DF90CF90BF90AF909F908F9008952E
:104CC000978E868EBBCF81E090E0D0CF81E090E0E0
:104CD000E8CFCF92DF92EF92FF920F931F93CF9383
:104CE000DF938B010E94001BEC01F801C2A0D3A04E
:104CF000E4A0F5A0068D178D8A819B818F30F7E2A5
:104D00009F075CF501969B838A83C8010E94D001AE
:104D1000882331F1F801EE0FFF1FEE0FFF1FEA505D
:104D2000F74FC082D182E282F382B701A601C801A7
:104D30000E94331AB801CE010E9444150E94F91B4B
:104D40000E94C91B90E080E0DF91CF911F910F91ED
:104D5000FF90EF90DF90CF9008951B821A82D5CFFD
:104D60008DEB93E00E94D913E9CFCF93DF93EB0152
:104D70000E94001B6E8D7F8D0E94441590E080E0A4
:104D8000DF91CF910895FC0180819181009711F00E
:104D90000C94054A08950C94054A0C94054A0C9409
:104DA000054A0C94054A0C94054A0C94054A0C9447
:104DB000054A0C94054A0C94054A0C94054A0C9437
:104DC000054A0C94054A0C94054A0C94054A0C9427
:104DD000054A0C94054A0C94054A0C94054A0C9417
:104DE000054A0C94054A0C94054A0C94054A0C9407
:104DF000054A0F931F93CF93DF93EC01888199812C
:104E0000009759F02A813B812617370730F081E05F
:104E1000DF91CF911F910F9108958B016F5F7F4FAD
:104E20000E949A51009759F0998388831B830A83C3
:104E30002C813D81232B59F7FC011082E8CF80E0C3
:104E4000E7CF0F931F93CF93DF93EC018B01D1DF5B
:104E500028813981811112C02115310519F0C9014C
:104E60000E94054A198218821D821C821B821A82A6
:104E7000CE01DF91CF911F910F9108951D830C8377
:104E80006EE877E0C9010E948B52F2CFCF93DF9397
:104E9000FC01E25EFD4F408151814115510501F158
:104EA000EC01CE5DDD4F28813981865E9D4F241750
:104EB0003507E8F4FC01808191810097A1F0820F11
:104EC000931FFC0180818A3031F08D3069F48CE8C9
:104ED00097E00E94D91388819981019699838883EC
:104EE000DF91CF91089580E00E947908F4CF70E0BF
:104EF00060E0A7DF19821882F3CF2F923F924F9282
:104F00005F926F927F928F929F92AF92BF92CF9259
:104F1000DF92EF92FF920F931F93CF93DF93CDB762
:104F2000DEB7CE57D1090FB6F894DEBF0FBECDBFA6
:104F30008C01FC011082118212821382148215826C
:104F4000168217821086118612861386148615869D
:104F5000168617864C01F0E18F0E911CC4010E9449
:104F6000700E68018EE8C80ED11CC6010E94700E3A
:104F70007801E4EFEE1AEEEFFE0AC7010E94700E10
:104F80005801F6E7AF1AFEEFBF0AC5010E94FD0FF8
:104F9000380186E4681A8EEF780AC3010E94FD0F7B
:104FA0002801E6E14E1AEEEF5E0AC2010E94FD0FF3
:104FB000F801E65EFD4F1182108213821282158283
:104FC000148270E060E0CF013CDFF801E05EFD4F4D
:104FD00011821082329611821082329611821082D2
:104FE000329611821082329610823196108231965A
:104FF000108231961182108232961182108232967E
:10500000118210823296108231961082319610826F
:10501000319610821182128213823496108211828C
:105020001282138234961082118212821382349675
:10503000108211821282138234961082118212829F
:105040001382349610821182128213823496108257
:10505000118212821382349610821182128213827C
:105060003496108211821282138234961082118239
:105070001282138234961082118212821382349625
:10508000108211821282138234961082118212824F
:105090001382349610821182128213823496108207
:1050A00011821282138234961082319610823196C8
:1050B00010823196108211821282138234961082ED
:1050C000118212821382349610821182128213820C
:1050D0003496108231961082319610823196108269
:1050E000319610823196108231961082319610825C
:1050F000319610823196108231961082319610824C
:10510000319610823196108231961082319610823B
:10511000319610823196108231961082319610822B
:10512000319610823196108231961082319610821B
:10513000319610821182128213823496108211826B
:105140001282138234961082118212821382D80145
:10515000AD55BD4F8CE0E1E1F2E001900D928A95F2
:10516000E1F7F801E155FD4F10821182128213829E
:105170003496108211821282138234961082118228
:10518000128213823496118210823296118210821A
:10519000329611821082329610821182128213820C
:1051A00034961082118212821382349610821182F8
:1051B00012821382349610821182128213823496E4
:1051C000108211821282138234961082118212820E
:1051D0001382349611821082329611821082329696
:1051E00011821082329610821182128213823496BA
:1051F00010821182128213823496108211821282DE
:105200001382349610823196108231961082319634
:10521000118210823296118210823296118210828F
:105220003296108211821282138234961082118279
:105230001282138234961082118212821382349663
:10524000118210823296118210823296118210825F
:105250003296118210823296118210823296118219
:1052600010823296118210823296118210821801B9
:10527000F0EF2F1AFCEF3F0AF101108231961182F4
:105280001082329611821082CE0101960E94700E19
:105290008EE7FE013196D40101900D928A95E1F7D7
:1052A000CE0101960E94700E8EE7FE013196D60166
:1052B00001900D928A95E1F7CE0101960E94700E41
:1052C0008EE7FE013196D70101900D928A95E1F7A4
:1052D00088E5F801808B89E5F60180838AE5F7018E
:1052E0008083CE0101960E94FD0F80E3FE0131967E
:1052F000D50101900D928A95E1F7CE0101960E94A9
:10530000FD0F80E3FE013196D30101900D928A9545
:10531000E1F7CE0101960E94FD0F80E3FE01319678
:10532000D20101900D928A95E1F7C8019BDBF10152
:105330001082C258DF4F0FB6F894DEBF0FBECDBF4C
:10534000DF91CF911F910F91FF90EF90DF90CF9061
:10535000BF90AF909F908F907F906F905F904F9095
:105360003F902F900895CF93DF938091C007909145
:10537000C107892B51F485E193E00E946949EC0152
:10538000BCDDD093C107C093C0078091C007909146
:10539000C107DF91CF9108950F93CF93DF93809151
:1053A000C607811151C081E08093C607DCDFEC01A4
:1053B00003B123B14091000160910001001F00275B
:1053C000001F221F2227221F417066956170865799
:1053D0009E4F0E946C0F03B123B140B160B1001F1A
:1053E0000027001F221F2227221F42FB442740F9CB
:1053F00066956170CE0186549E4F0E946C0F03B17A
:1054000023B140B160B1001F0027001F221F2227D7
:10541000221F46FB442740F9661F6627661FCE0100
:1054200086519E4F0E946C0FCE0140960E943C0E0A
:10543000CE0182579F4F0E943C0ECE01845F9E4F4B
:105440000E943C0E1092C607DF91CF910F910895F4
:10545000CF93DF93EB0120E030E040E85FE36A8127
:105460007B818C819D810E94E24E811113C088E274
:1054700094E00E94D91377DFFC01E25BFF4F1082BA
:1054800011821282138286579E4FFC01108A118A64
:10549000128A138A20E030E040E85FE36E817F816A
:1054A000888599850E94E24E811113C088E394E0BB
:1054B0000E94D91358DFFC01E453FF4F1082118280
:1054C0001282138286549E4FFC01108A118A128A1E
:1054D000138A20E030E040E85FE36A857B858C85B5
:1054E0009D850E94E24E811113C088E494E00E94E1
:1054F000D91339DFFC01E65BFE4F10821182128264
:10550000138286519E4FFC01108A118A128A138AD7
:105510000E942A120E940F1490E080E0DF91CF9148
:105520000895EF92FF920F931F93CF93DF9361152E
:10553000710541F480E0DF91CF911F910F91FF90B1
:10554000EF90089541155105A9F07B01EC010C8104
:105550001D81040F151FB8014CDC882359F32881E5
:1055600039818C819D81B701820F931F0E948B52DC
:105570001D830C8381E0DFCFEF92FF920F931F9387
:10558000CF93DF93CDB7DEB764970FB6F894DEBF45
:105590000FBECDBF7C01CB01BA018E010F5F1F4F43
:1055A00022E044E00E944C49FC0101900020E9F710
:1055B0003197AF01481B590BBC01C701B2DF64969C
:1055C0000FB6F894DEBF0FBECDBFDF91CF911F9114
:1055D0000F91FF90EF900895FB0101900020E9F7F3
:1055E0003197AF01461B570B9CCFEF92FF920F9361
:1055F0001F93CF93DF93CDB7DEB72E970FB6F894F6
:10560000DEBF0FBECDBF8C01FC0111821082138260
:1056100012821582148270E060E013DC68E873E0A7
:10562000C801DADF60917A0C70917B0C80917C0C60
:1056300090917D0C2AE0AE014F5F5F4F7A010E948E
:10564000C54AF70101900020E9F73197AF014E19E3
:105650005F09B701C80165DF6CE877E0C801BCDF0E
:10566000C8012E960FB6F894DEBF0FBECDBFDF91F6
:10567000CF911F910F91FF90EF900895FB0144810E
:105680005581608171814DCFCF92DF92EF92FF9271
:105690000F931F93CF93DF9300D000D01F921F92E0
:1056A000CDB7DEB78B016A01865E9D4F7C016AE251
:1056B00072E092DF67EB73E0C7018EDFF801808153
:1056C00089831A8241E050E08E010F5F1F4FB801BD
:1056D000C70127DF4AE0B801C6010E94BB4AF801B2
:1056E00001900020E9F73197AF01401B510BB80141
:1056F000C70117DF0E942A12C80177DFB801C7016E
:10570000BDDFC80140DB28960FB6F894DEBF0FBEA0
:10571000CDBFDF91CF911F910F91FF90EF90DF9060
:10572000CF9008952F923F924F925F926F927F9207
:105730008F929F92AF92BF92CF92DF92EF92FF92A1
:105740000F931F93CF93DF93CDB7DEB7A3970FB619
:10575000F894DEBF0FBECDBF9BA38AA37C836B836F
:105760000E94F81D8AA19BA10E941C1C0E94B312DA
:105770000E9415152B813C81AAA0BBA021303105C8
:1057800009F464C02230310509F490C030E1A30E61
:10579000B11C2AA03BA046E7241A4EEF340AEAA126
:1057A000FBA1E257FD4F508159878AA19BA18155EA
:1057B0009D4F9E838D83EAA1FBA1E752FD4FF98B9C
:1057C000E88B2AA13BA125513D4F3D8B2C8B4AA153
:1057D0005BA1455D5D4F5B874A878DE890E09B8BC1
:1057E0008A8BE5E1F0E0F887EF83C5010E94410C68
:1057F000882309F48AC088E594E00E94D9130E94A6
:105800002A1281E090E090930C0880930B08E1E06D
:10581000F0E0FA83E98389819A81A3960FB6F89420
:10582000DEBF0FBECDBFDF91CF911F910F91FF90D3
:10583000EF90DF90CF90BF90AF909F908F907F9030
:105840006F905F904F903F902F900895FEE8AF0EBD
:10585000B11C2AA03BA026E4221A2EEF320AEAA1AC
:10586000FBA1E157FD4F308139874AA15BA14D541F
:105870005D4F5E834D838AA19BA185529D4F998B7D
:10588000888BEAA1FBA1E451FD4FFD8BEC8B2AA193
:105890003BA1235D3D4F3B872A874EE850E05B8B61
:1058A0004A8B86E190E098878F839FCF94EFA91A67
:1058B0009EEFB90A2AA03BA0E6E12E1AEEEF3E0ABF
:1058C000EAA1FBA1E057FD4F208129874AA15BA1F6
:1058D00049545D4F5E834D838AA19BA183529D4FA6
:1058E000998B888BEAA1FBA1E351FD4FFD8BEC8BDB
:1058F0002AA13BA1215D3D4F3B872A874FE850E01D
:105900005B8B4A8B87E190E0CECFC5010E94320CC1
:10591000811171CF8FED93E00E94D9138EE894E04E
:105920000E94D913F50180810E94790885E994E0ED
:105930000E94D9138CE897E00E94D91381E090E08F
:10594000EA85FB859183808341E050E0B5018AA11F
:105950009BA19ADEC5010E948E0CF50184A58501EC
:105960000C591F4F882309F4B4C0C5010E94500C84
:10597000F8011082C1010E949B0FF501FE96608321
:10598000718382839383ED81FE8110821182128262
:105990001382EAA1FBA1E155FD4F10821182128210
:1059A0001382EAA1FBA1ED54FD4F108211821282F5
:1059B0001382EAA1FBA1E954FD4F108211821282E9
:1059C000138286E090E0EA85FB859183808346E040
:1059D00050E0B5018AA19BA157DE61E070E0C501EE
:1059E0000E941E148B809C80880C991C880C991C2A
:1059F000C40181529D4F2AA13BA1280F391F398F25
:105A0000288F8B819C8180589E4F880F991F4AA1B7
:105A10005BA1480F591F5B8F4A8FC40183539D4F71
:105A2000EAA1FBA1E80FF91FFD8FEC8F0C972AA1CB
:105A30003BA1280F391F3F8F2E8F42974AA15BA1B0
:105A4000480F591F59A348A3412C512C32014394AC
:105A50008B819C81EAA1FBA18E0F9F1F9C01255188
:105A60003D4F3F8B2E8BCF01880D991DAC01485ABD
:105A70005D4F5D874C87EE89FF898081882371F0B7
:105A8000C88CD98CEA8CFB8C0C8D1D8D2E8D3F8D96
:105A900048A159A1B101C5010E9448118EE79CE0BF
:105AA0000E94F60718161906DCF010E01A82198217
:105AB000C5010E94410C882391F189EC94E00E9479
:105AC000D913C5010E94410C811101C089858987C4
:105AD0008DC0C5010E94660C81E0F80180834ACF29
